{
	"Documents/GitHub/SOLIDITY-REMIX/5ef069451e67668750287d64bc5f8bae/calculadora.sol": {
		"Calculadora": {
			"abi": [
				{
					"inputs": [],
					"name": "a",
					"outputs": [
						{
							"internalType": "int256",
							"name": "",
							"type": "int256"
						}
					],
					"stateMutability": "view",
					"type": "function"
				},
				{
					"inputs": [],
					"name": "b",
					"outputs": [
						{
							"internalType": "int256",
							"name": "",
							"type": "int256"
						}
					],
					"stateMutability": "view",
					"type": "function"
				},
				{
					"inputs": [
						{
							"internalType": "int256",
							"name": "_a",
							"type": "int256"
						}
					],
					"name": "cuadrado",
					"outputs": [
						{
							"internalType": "uint256",
							"name": "",
							"type": "uint256"
						}
					],
					"stateMutability": "pure",
					"type": "function"
				},
				{
					"inputs": [
						{
							"internalType": "int256",
							"name": "_a",
							"type": "int256"
						},
						{
							"internalType": "int256",
							"name": "_b",
							"type": "int256"
						}
					],
					"name": "division",
					"outputs": [
						{
							"internalType": "int256",
							"name": "",
							"type": "int256"
						}
					],
					"stateMutability": "pure",
					"type": "function"
				},
				{
					"inputs": [
						{
							"internalType": "uint256",
							"name": "_a",
							"type": "uint256"
						}
					],
					"name": "factorial",
					"outputs": [
						{
							"internalType": "uint256",
							"name": "",
							"type": "uint256"
						}
					],
					"stateMutability": "nonpayable",
					"type": "function"
				},
				{
					"inputs": [
						{
							"internalType": "int256",
							"name": "_a",
							"type": "int256"
						},
						{
							"internalType": "int256",
							"name": "_b",
							"type": "int256"
						}
					],
					"name": "multiplicacion",
					"outputs": [
						{
							"internalType": "int256",
							"name": "",
							"type": "int256"
						}
					],
					"stateMutability": "pure",
					"type": "function"
				},
				{
					"inputs": [
						{
							"internalType": "int256",
							"name": "_a",
							"type": "int256"
						},
						{
							"internalType": "int256",
							"name": "_b",
							"type": "int256"
						}
					],
					"name": "resta",
					"outputs": [
						{
							"internalType": "int256",
							"name": "",
							"type": "int256"
						}
					],
					"stateMutability": "pure",
					"type": "function"
				},
				{
					"inputs": [
						{
							"internalType": "int256",
							"name": "_a",
							"type": "int256"
						},
						{
							"internalType": "int256",
							"name": "_b",
							"type": "int256"
						}
					],
					"name": "suma",
					"outputs": [
						{
							"internalType": "int256",
							"name": "",
							"type": "int256"
						}
					],
					"stateMutability": "pure",
					"type": "function"
				},
				{
					"inputs": [
						{
							"internalType": "int256",
							"name": "_a",
							"type": "int256"
						}
					],
					"name": "valorAbsoluto",
					"outputs": [
						{
							"internalType": "uint256",
							"name": "",
							"type": "uint256"
						}
					],
					"stateMutability": "pure",
					"type": "function"
				}
			],
			"devdoc": {
				"kind": "dev",
				"methods": {},
				"version": 1
			},
			"evm": {
				"assembly": "    /* \"Documents/GitHub/SOLIDITY-REMIX/5ef069451e67668750287d64bc5f8bae/calculadora.sol\":68:1061  contract Calculadora {\r... */\n  mstore(0x40, 0x80)\n  callvalue\n  dup1\n  iszero\n  tag_1\n  jumpi\n  0x00\n  dup1\n  revert\ntag_1:\n  pop\n  dataSize(sub_0)\n  dup1\n  dataOffset(sub_0)\n  0x00\n  codecopy\n  0x00\n  return\nstop\n\nsub_0: assembly {\n        /* \"Documents/GitHub/SOLIDITY-REMIX/5ef069451e67668750287d64bc5f8bae/calculadora.sol\":68:1061  contract Calculadora {\r... */\n      mstore(0x40, 0x80)\n      callvalue\n      dup1\n      iszero\n      tag_1\n      jumpi\n      0x00\n      dup1\n      revert\n    tag_1:\n      pop\n      jumpi(tag_2, lt(calldatasize, 0x04))\n      shr(0xe0, calldataload(0x00))\n      dup1\n      0x4df7e3d0\n      gt\n      tag_12\n      jumpi\n      dup1\n      0x4df7e3d0\n      eq\n      tag_7\n      jumpi\n      dup1\n      0x7d825142\n      eq\n      tag_8\n      jumpi\n      dup1\n      0x7ea9e058\n      eq\n      tag_9\n      jumpi\n      dup1\n      0x83714834\n      eq\n      tag_10\n      jumpi\n      dup1\n      0x8f8a0d19\n      eq\n      tag_11\n      jumpi\n      jump(tag_2)\n    tag_12:\n      dup1\n      0x09b7cdda\n      eq\n      tag_3\n      jumpi\n      dup1\n      0x0dbe671f\n      eq\n      tag_4\n      jumpi\n      dup1\n      0x187983bf\n      eq\n      tag_5\n      jumpi\n      dup1\n      0x4c627bad\n      eq\n      tag_6\n      jumpi\n    tag_2:\n      0x00\n      dup1\n      revert\n        /* \"Documents/GitHub/SOLIDITY-REMIX/5ef069451e67668750287d64bc5f8bae/calculadora.sol\":438:531  function division(int _a,int _b) public pure returns(int) {\r... */\n    tag_3:\n      tag_13\n      0x04\n      dup1\n      calldatasize\n      sub\n      dup2\n      add\n      swap1\n      tag_14\n      swap2\n      swap1\n      tag_15\n      jump\t// in\n    tag_14:\n      tag_16\n      jump\t// in\n    tag_13:\n      mload(0x40)\n      tag_17\n      swap2\n      swap1\n      tag_18\n      jump\t// in\n    tag_17:\n      mload(0x40)\n      dup1\n      swap2\n      sub\n      swap1\n      return\n        /* \"Documents/GitHub/SOLIDITY-REMIX/5ef069451e67668750287d64bc5f8bae/calculadora.sol\":96:108  int public a */\n    tag_4:\n      tag_19\n      tag_20\n      jump\t// in\n    tag_19:\n      mload(0x40)\n      tag_21\n      swap2\n      swap1\n      tag_18\n      jump\t// in\n    tag_21:\n      mload(0x40)\n      dup1\n      swap2\n      sub\n      swap1\n      return\n        /* \"Documents/GitHub/SOLIDITY-REMIX/5ef069451e67668750287d64bc5f8bae/calculadora.sol\":331:430  function multiplicacion(int _a,int _b) public pure returns(int) {\r... */\n    tag_5:\n      tag_22\n      0x04\n      dup1\n      calldatasize\n      sub\n      dup2\n      add\n      swap1\n      tag_23\n      swap2\n      swap1\n      tag_15\n      jump\t// in\n    tag_23:\n      tag_24\n      jump\t// in\n    tag_22:\n      mload(0x40)\n      tag_25\n      swap2\n      swap1\n      tag_18\n      jump\t// in\n    tag_25:\n      mload(0x40)\n      dup1\n      swap2\n      sub\n      swap1\n      return\n        /* \"Documents/GitHub/SOLIDITY-REMIX/5ef069451e67668750287d64bc5f8bae/calculadora.sol\":233:323  function resta(int _a,int _b) public pure returns(int) {\r... */\n    tag_6:\n      tag_26\n      0x04\n      dup1\n      calldatasize\n      sub\n      dup2\n      add\n      swap1\n      tag_27\n      swap2\n      swap1\n      tag_15\n      jump\t// in\n    tag_27:\n      tag_28\n      jump\t// in\n    tag_26:\n      mload(0x40)\n      tag_29\n      swap2\n      swap1\n      tag_18\n      jump\t// in\n    tag_29:\n      mload(0x40)\n      dup1\n      swap2\n      sub\n      swap1\n      return\n        /* \"Documents/GitHub/SOLIDITY-REMIX/5ef069451e67668750287d64bc5f8bae/calculadora.sol\":115:127  int public b */\n    tag_7:\n      tag_30\n      tag_31\n      jump\t// in\n    tag_30:\n      mload(0x40)\n      tag_32\n      swap2\n      swap1\n      tag_18\n      jump\t// in\n    tag_32:\n      mload(0x40)\n      dup1\n      swap2\n      sub\n      swap1\n      return\n        /* \"Documents/GitHub/SOLIDITY-REMIX/5ef069451e67668750287d64bc5f8bae/calculadora.sol\":730:917  function valorAbsoluto(int _a) public pure returns(uint) {\r... */\n    tag_8:\n      tag_33\n      0x04\n      dup1\n      calldatasize\n      sub\n      dup2\n      add\n      swap1\n      tag_34\n      swap2\n      swap1\n      tag_35\n      jump\t// in\n    tag_34:\n      tag_36\n      jump\t// in\n    tag_33:\n      mload(0x40)\n      tag_37\n      swap2\n      swap1\n      tag_38\n      jump\t// in\n    tag_37:\n      mload(0x40)\n      dup1\n      swap2\n      sub\n      swap1\n      return\n        /* \"Documents/GitHub/SOLIDITY-REMIX/5ef069451e67668750287d64bc5f8bae/calculadora.sol\":925:1016  function cuadrado(int _a) public pure returns(uint) {\r... */\n    tag_9:\n      tag_39\n      0x04\n      dup1\n      calldatasize\n      sub\n      dup2\n      add\n      swap1\n      tag_40\n      swap2\n      swap1\n      tag_35\n      jump\t// in\n    tag_40:\n      tag_41\n      jump\t// in\n    tag_39:\n      mload(0x40)\n      tag_42\n      swap2\n      swap1\n      tag_38\n      jump\t// in\n    tag_42:\n      mload(0x40)\n      dup1\n      swap2\n      sub\n      swap1\n      return\n        /* \"Documents/GitHub/SOLIDITY-REMIX/5ef069451e67668750287d64bc5f8bae/calculadora.sol\":539:722  function factorial(uint _a) public returns(uint){\r... */\n    tag_10:\n      tag_43\n      0x04\n      dup1\n      calldatasize\n      sub\n      dup2\n      add\n      swap1\n      tag_44\n      swap2\n      swap1\n      tag_45\n      jump\t// in\n    tag_44:\n      tag_46\n      jump\t// in\n    tag_43:\n      mload(0x40)\n      tag_47\n      swap2\n      swap1\n      tag_38\n      jump\t// in\n    tag_47:\n      mload(0x40)\n      dup1\n      swap2\n      sub\n      swap1\n      return\n        /* \"Documents/GitHub/SOLIDITY-REMIX/5ef069451e67668750287d64bc5f8bae/calculadora.sol\":136:225  function suma(int _a,int _b) public pure returns(int) {\r... */\n    tag_11:\n      tag_48\n      0x04\n      dup1\n      calldatasize\n      sub\n      dup2\n      add\n      swap1\n      tag_49\n      swap2\n      swap1\n      tag_15\n      jump\t// in\n    tag_49:\n      tag_50\n      jump\t// in\n    tag_48:\n      mload(0x40)\n      tag_51\n      swap2\n      swap1\n      tag_18\n      jump\t// in\n    tag_51:\n      mload(0x40)\n      dup1\n      swap2\n      sub\n      swap1\n      return\n        /* \"Documents/GitHub/SOLIDITY-REMIX/5ef069451e67668750287d64bc5f8bae/calculadora.sol\":438:531  function division(int _a,int _b) public pure returns(int) {\r... */\n    tag_16:\n        /* \"Documents/GitHub/SOLIDITY-REMIX/5ef069451e67668750287d64bc5f8bae/calculadora.sol\":491:494  int */\n      0x00\n        /* \"Documents/GitHub/SOLIDITY-REMIX/5ef069451e67668750287d64bc5f8bae/calculadora.sol\":520:522  _b */\n      dup2\n        /* \"Documents/GitHub/SOLIDITY-REMIX/5ef069451e67668750287d64bc5f8bae/calculadora.sol\":515:517  _a */\n      dup4\n        /* \"Documents/GitHub/SOLIDITY-REMIX/5ef069451e67668750287d64bc5f8bae/calculadora.sol\":515:522  _a / _b */\n      tag_53\n      swap2\n      swap1\n      tag_54\n      jump\t// in\n    tag_53:\n        /* \"Documents/GitHub/SOLIDITY-REMIX/5ef069451e67668750287d64bc5f8bae/calculadora.sol\":507:523  return (_a / _b) */\n      swap1\n      pop\n        /* \"Documents/GitHub/SOLIDITY-REMIX/5ef069451e67668750287d64bc5f8bae/calculadora.sol\":438:531  function division(int _a,int _b) public pure returns(int) {\r... */\n      swap3\n      swap2\n      pop\n      pop\n      jump\t// out\n        /* \"Documents/GitHub/SOLIDITY-REMIX/5ef069451e67668750287d64bc5f8bae/calculadora.sol\":96:108  int public a */\n    tag_20:\n      sload(0x00)\n      dup2\n      jump\t// out\n        /* \"Documents/GitHub/SOLIDITY-REMIX/5ef069451e67668750287d64bc5f8bae/calculadora.sol\":331:430  function multiplicacion(int _a,int _b) public pure returns(int) {\r... */\n    tag_24:\n        /* \"Documents/GitHub/SOLIDITY-REMIX/5ef069451e67668750287d64bc5f8bae/calculadora.sol\":390:393  int */\n      0x00\n        /* \"Documents/GitHub/SOLIDITY-REMIX/5ef069451e67668750287d64bc5f8bae/calculadora.sol\":419:421  _b */\n      dup2\n        /* \"Documents/GitHub/SOLIDITY-REMIX/5ef069451e67668750287d64bc5f8bae/calculadora.sol\":414:416  _a */\n      dup4\n        /* \"Documents/GitHub/SOLIDITY-REMIX/5ef069451e67668750287d64bc5f8bae/calculadora.sol\":414:421  _a * _b */\n      tag_56\n      swap2\n      swap1\n      tag_57\n      jump\t// in\n    tag_56:\n        /* \"Documents/GitHub/SOLIDITY-REMIX/5ef069451e67668750287d64bc5f8bae/calculadora.sol\":406:422  return (_a * _b) */\n      swap1\n      pop\n        /* \"Documents/GitHub/SOLIDITY-REMIX/5ef069451e67668750287d64bc5f8bae/calculadora.sol\":331:430  function multiplicacion(int _a,int _b) public pure returns(int) {\r... */\n      swap3\n      swap2\n      pop\n      pop\n      jump\t// out\n        /* \"Documents/GitHub/SOLIDITY-REMIX/5ef069451e67668750287d64bc5f8bae/calculadora.sol\":233:323  function resta(int _a,int _b) public pure returns(int) {\r... */\n    tag_28:\n        /* \"Documents/GitHub/SOLIDITY-REMIX/5ef069451e67668750287d64bc5f8bae/calculadora.sol\":283:286  int */\n      0x00\n        /* \"Documents/GitHub/SOLIDITY-REMIX/5ef069451e67668750287d64bc5f8bae/calculadora.sol\":312:314  _b */\n      dup2\n        /* \"Documents/GitHub/SOLIDITY-REMIX/5ef069451e67668750287d64bc5f8bae/calculadora.sol\":307:309  _a */\n      dup4\n        /* \"Documents/GitHub/SOLIDITY-REMIX/5ef069451e67668750287d64bc5f8bae/calculadora.sol\":307:314  _a - _b */\n      tag_59\n      swap2\n      swap1\n      tag_60\n      jump\t// in\n    tag_59:\n        /* \"Documents/GitHub/SOLIDITY-REMIX/5ef069451e67668750287d64bc5f8bae/calculadora.sol\":299:315  return (_a - _b) */\n      swap1\n      pop\n        /* \"Documents/GitHub/SOLIDITY-REMIX/5ef069451e67668750287d64bc5f8bae/calculadora.sol\":233:323  function resta(int _a,int _b) public pure returns(int) {\r... */\n      swap3\n      swap2\n      pop\n      pop\n      jump\t// out\n        /* \"Documents/GitHub/SOLIDITY-REMIX/5ef069451e67668750287d64bc5f8bae/calculadora.sol\":115:127  int public b */\n    tag_31:\n      sload(0x01)\n      dup2\n      jump\t// out\n        /* \"Documents/GitHub/SOLIDITY-REMIX/5ef069451e67668750287d64bc5f8bae/calculadora.sol\":730:917  function valorAbsoluto(int _a) public pure returns(uint) {\r... */\n    tag_36:\n        /* \"Documents/GitHub/SOLIDITY-REMIX/5ef069451e67668750287d64bc5f8bae/calculadora.sol\":781:785  uint */\n      0x00\n        /* \"Documents/GitHub/SOLIDITY-REMIX/5ef069451e67668750287d64bc5f8bae/calculadora.sol\":807:808  0 */\n      dup1\n        /* \"Documents/GitHub/SOLIDITY-REMIX/5ef069451e67668750287d64bc5f8bae/calculadora.sol\":802:804  _a */\n      dup3\n        /* \"Documents/GitHub/SOLIDITY-REMIX/5ef069451e67668750287d64bc5f8bae/calculadora.sol\":802:808  _a > 0 */\n      sgt\n        /* \"Documents/GitHub/SOLIDITY-REMIX/5ef069451e67668750287d64bc5f8bae/calculadora.sol\":798:910  if (_a > 0){\r... */\n      iszero\n      tag_62\n      jumpi\n        /* \"Documents/GitHub/SOLIDITY-REMIX/5ef069451e67668750287d64bc5f8bae/calculadora.sol\":836:838  _a */\n      dup2\n        /* \"Documents/GitHub/SOLIDITY-REMIX/5ef069451e67668750287d64bc5f8bae/calculadora.sol\":824:840  return(uint(_a)) */\n      swap1\n      pop\n      jump(tag_61)\n        /* \"Documents/GitHub/SOLIDITY-REMIX/5ef069451e67668750287d64bc5f8bae/calculadora.sol\":798:910  if (_a > 0){\r... */\n    tag_62:\n        /* \"Documents/GitHub/SOLIDITY-REMIX/5ef069451e67668750287d64bc5f8bae/calculadora.sol\":894:896  _a */\n      dup2\n        /* \"Documents/GitHub/SOLIDITY-REMIX/5ef069451e67668750287d64bc5f8bae/calculadora.sol\":893:896  -_a */\n      tag_64\n      swap1\n      tag_65\n      jump\t// in\n    tag_64:\n        /* \"Documents/GitHub/SOLIDITY-REMIX/5ef069451e67668750287d64bc5f8bae/calculadora.sol\":881:898  return(uint(-_a)) */\n      swap1\n      pop\n        /* \"Documents/GitHub/SOLIDITY-REMIX/5ef069451e67668750287d64bc5f8bae/calculadora.sol\":730:917  function valorAbsoluto(int _a) public pure returns(uint) {\r... */\n    tag_61:\n      swap2\n      swap1\n      pop\n      jump\t// out\n        /* \"Documents/GitHub/SOLIDITY-REMIX/5ef069451e67668750287d64bc5f8bae/calculadora.sol\":925:1016  function cuadrado(int _a) public pure returns(uint) {\r... */\n    tag_41:\n        /* \"Documents/GitHub/SOLIDITY-REMIX/5ef069451e67668750287d64bc5f8bae/calculadora.sol\":971:975  uint */\n      0x00\n        /* \"Documents/GitHub/SOLIDITY-REMIX/5ef069451e67668750287d64bc5f8bae/calculadora.sol\":1005:1007  _a */\n      dup2\n        /* \"Documents/GitHub/SOLIDITY-REMIX/5ef069451e67668750287d64bc5f8bae/calculadora.sol\":1000:1002  _a */\n      dup3\n        /* \"Documents/GitHub/SOLIDITY-REMIX/5ef069451e67668750287d64bc5f8bae/calculadora.sol\":1000:1007  _a * _a */\n      tag_67\n      swap2\n      swap1\n      tag_57\n      jump\t// in\n    tag_67:\n        /* \"Documents/GitHub/SOLIDITY-REMIX/5ef069451e67668750287d64bc5f8bae/calculadora.sol\":988:1008  return uint(_a * _a) */\n      swap1\n      pop\n        /* \"Documents/GitHub/SOLIDITY-REMIX/5ef069451e67668750287d64bc5f8bae/calculadora.sol\":925:1016  function cuadrado(int _a) public pure returns(uint) {\r... */\n      swap2\n      swap1\n      pop\n      jump\t// out\n        /* \"Documents/GitHub/SOLIDITY-REMIX/5ef069451e67668750287d64bc5f8bae/calculadora.sol\":539:722  function factorial(uint _a) public returns(uint){\r... */\n    tag_46:\n        /* \"Documents/GitHub/SOLIDITY-REMIX/5ef069451e67668750287d64bc5f8bae/calculadora.sol\":582:586  uint */\n      0x00\n        /* \"Documents/GitHub/SOLIDITY-REMIX/5ef069451e67668750287d64bc5f8bae/calculadora.sol\":608:609  1 */\n      0x01\n        /* \"Documents/GitHub/SOLIDITY-REMIX/5ef069451e67668750287d64bc5f8bae/calculadora.sol\":602:604  _a */\n      dup3\n        /* \"Documents/GitHub/SOLIDITY-REMIX/5ef069451e67668750287d64bc5f8bae/calculadora.sol\":602:609  _a <= 1 */\n      gt\n        /* \"Documents/GitHub/SOLIDITY-REMIX/5ef069451e67668750287d64bc5f8bae/calculadora.sol\":598:715  if (_a <= 1){\r... */\n      tag_69\n      jumpi\n        /* \"Documents/GitHub/SOLIDITY-REMIX/5ef069451e67668750287d64bc5f8bae/calculadora.sol\":632:633  1 */\n      0x01\n        /* \"Documents/GitHub/SOLIDITY-REMIX/5ef069451e67668750287d64bc5f8bae/calculadora.sol\":625:633  return 1 */\n      swap1\n      pop\n      jump(tag_68)\n        /* \"Documents/GitHub/SOLIDITY-REMIX/5ef069451e67668750287d64bc5f8bae/calculadora.sol\":598:715  if (_a <= 1){\r... */\n    tag_69:\n        /* \"Documents/GitHub/SOLIDITY-REMIX/5ef069451e67668750287d64bc5f8bae/calculadora.sol\":687:702  factorial(_a-1) */\n      tag_71\n        /* \"Documents/GitHub/SOLIDITY-REMIX/5ef069451e67668750287d64bc5f8bae/calculadora.sol\":700:701  1 */\n      0x01\n        /* \"Documents/GitHub/SOLIDITY-REMIX/5ef069451e67668750287d64bc5f8bae/calculadora.sol\":697:699  _a */\n      dup4\n        /* \"Documents/GitHub/SOLIDITY-REMIX/5ef069451e67668750287d64bc5f8bae/calculadora.sol\":697:701  _a-1 */\n      tag_72\n      swap2\n      swap1\n      tag_73\n      jump\t// in\n    tag_72:\n        /* \"Documents/GitHub/SOLIDITY-REMIX/5ef069451e67668750287d64bc5f8bae/calculadora.sol\":687:696  factorial */\n      tag_46\n        /* \"Documents/GitHub/SOLIDITY-REMIX/5ef069451e67668750287d64bc5f8bae/calculadora.sol\":687:702  factorial(_a-1) */\n      jump\t// in\n    tag_71:\n        /* \"Documents/GitHub/SOLIDITY-REMIX/5ef069451e67668750287d64bc5f8bae/calculadora.sol\":682:684  _a */\n      dup3\n        /* \"Documents/GitHub/SOLIDITY-REMIX/5ef069451e67668750287d64bc5f8bae/calculadora.sol\":682:702  _a * factorial(_a-1) */\n      tag_74\n      swap2\n      swap1\n      tag_75\n      jump\t// in\n    tag_74:\n        /* \"Documents/GitHub/SOLIDITY-REMIX/5ef069451e67668750287d64bc5f8bae/calculadora.sol\":674:703  return (_a * factorial(_a-1)) */\n      swap1\n      pop\n        /* \"Documents/GitHub/SOLIDITY-REMIX/5ef069451e67668750287d64bc5f8bae/calculadora.sol\":539:722  function factorial(uint _a) public returns(uint){\r... */\n    tag_68:\n      swap2\n      swap1\n      pop\n      jump\t// out\n        /* \"Documents/GitHub/SOLIDITY-REMIX/5ef069451e67668750287d64bc5f8bae/calculadora.sol\":136:225  function suma(int _a,int _b) public pure returns(int) {\r... */\n    tag_50:\n        /* \"Documents/GitHub/SOLIDITY-REMIX/5ef069451e67668750287d64bc5f8bae/calculadora.sol\":185:188  int */\n      0x00\n        /* \"Documents/GitHub/SOLIDITY-REMIX/5ef069451e67668750287d64bc5f8bae/calculadora.sol\":214:216  _b */\n      dup2\n        /* \"Documents/GitHub/SOLIDITY-REMIX/5ef069451e67668750287d64bc5f8bae/calculadora.sol\":209:211  _a */\n      dup4\n        /* \"Documents/GitHub/SOLIDITY-REMIX/5ef069451e67668750287d64bc5f8bae/calculadora.sol\":209:216  _a + _b */\n      tag_77\n      swap2\n      swap1\n      tag_78\n      jump\t// in\n    tag_77:\n        /* \"Documents/GitHub/SOLIDITY-REMIX/5ef069451e67668750287d64bc5f8bae/calculadora.sol\":201:217  return (_a + _b) */\n      swap1\n      pop\n        /* \"Documents/GitHub/SOLIDITY-REMIX/5ef069451e67668750287d64bc5f8bae/calculadora.sol\":136:225  function suma(int _a,int _b) public pure returns(int) {\r... */\n      swap3\n      swap2\n      pop\n      pop\n      jump\t// out\n        /* \"#utility.yul\":7:144   */\n    tag_80:\n        /* \"#utility.yul\":52:57   */\n      0x00\n        /* \"#utility.yul\":90:96   */\n      dup2\n        /* \"#utility.yul\":77:97   */\n      calldataload\n        /* \"#utility.yul\":68:97   */\n      swap1\n      pop\n        /* \"#utility.yul\":106:138   */\n      tag_82\n        /* \"#utility.yul\":132:137   */\n      dup2\n        /* \"#utility.yul\":106:138   */\n      tag_83\n      jump\t// in\n    tag_82:\n        /* \"#utility.yul\":7:144   */\n      swap3\n      swap2\n      pop\n      pop\n      jump\t// out\n        /* \"#utility.yul\":150:289   */\n    tag_84:\n        /* \"#utility.yul\":196:201   */\n      0x00\n        /* \"#utility.yul\":234:240   */\n      dup2\n        /* \"#utility.yul\":221:241   */\n      calldataload\n        /* \"#utility.yul\":212:241   */\n      swap1\n      pop\n        /* \"#utility.yul\":250:283   */\n      tag_86\n        /* \"#utility.yul\":277:282   */\n      dup2\n        /* \"#utility.yul\":250:283   */\n      tag_87\n      jump\t// in\n    tag_86:\n        /* \"#utility.yul\":150:289   */\n      swap3\n      swap2\n      pop\n      pop\n      jump\t// out\n        /* \"#utility.yul\":295:622   */\n    tag_35:\n        /* \"#utility.yul\":353:359   */\n      0x00\n        /* \"#utility.yul\":402:404   */\n      0x20\n        /* \"#utility.yul\":390:399   */\n      dup3\n        /* \"#utility.yul\":381:388   */\n      dup5\n        /* \"#utility.yul\":377:400   */\n      sub\n        /* \"#utility.yul\":373:405   */\n      slt\n        /* \"#utility.yul\":370:489   */\n      iszero\n      tag_89\n      jumpi\n        /* \"#utility.yul\":408:487   */\n      tag_90\n      tag_91\n      jump\t// in\n    tag_90:\n        /* \"#utility.yul\":370:489   */\n    tag_89:\n        /* \"#utility.yul\":528:529   */\n      0x00\n        /* \"#utility.yul\":553:605   */\n      tag_92\n        /* \"#utility.yul\":597:604   */\n      dup5\n        /* \"#utility.yul\":588:594   */\n      dup3\n        /* \"#utility.yul\":577:586   */\n      dup6\n        /* \"#utility.yul\":573:595   */\n      add\n        /* \"#utility.yul\":553:605   */\n      tag_80\n      jump\t// in\n    tag_92:\n        /* \"#utility.yul\":543:605   */\n      swap2\n      pop\n        /* \"#utility.yul\":499:615   */\n      pop\n        /* \"#utility.yul\":295:622   */\n      swap3\n      swap2\n      pop\n      pop\n      jump\t// out\n        /* \"#utility.yul\":628:1098   */\n    tag_15:\n        /* \"#utility.yul\":694:700   */\n      0x00\n        /* \"#utility.yul\":702:708   */\n      dup1\n        /* \"#utility.yul\":751:753   */\n      0x40\n        /* \"#utility.yul\":739:748   */\n      dup4\n        /* \"#utility.yul\":730:737   */\n      dup6\n        /* \"#utility.yul\":726:749   */\n      sub\n        /* \"#utility.yul\":722:754   */\n      slt\n        /* \"#utility.yul\":719:838   */\n      iszero\n      tag_94\n      jumpi\n        /* \"#utility.yul\":757:836   */\n      tag_95\n      tag_91\n      jump\t// in\n    tag_95:\n        /* \"#utility.yul\":719:838   */\n    tag_94:\n        /* \"#utility.yul\":877:878   */\n      0x00\n        /* \"#utility.yul\":902:954   */\n      tag_96\n        /* \"#utility.yul\":946:953   */\n      dup6\n        /* \"#utility.yul\":937:943   */\n      dup3\n        /* \"#utility.yul\":926:935   */\n      dup7\n        /* \"#utility.yul\":922:944   */\n      add\n        /* \"#utility.yul\":902:954   */\n      tag_80\n      jump\t// in\n    tag_96:\n        /* \"#utility.yul\":892:954   */\n      swap3\n      pop\n        /* \"#utility.yul\":848:964   */\n      pop\n        /* \"#utility.yul\":1003:1005   */\n      0x20\n        /* \"#utility.yul\":1029:1081   */\n      tag_97\n        /* \"#utility.yul\":1073:1080   */\n      dup6\n        /* \"#utility.yul\":1064:1070   */\n      dup3\n        /* \"#utility.yul\":1053:1062   */\n      dup7\n        /* \"#utility.yul\":1049:1071   */\n      add\n        /* \"#utility.yul\":1029:1081   */\n      tag_80\n      jump\t// in\n    tag_97:\n        /* \"#utility.yul\":1019:1081   */\n      swap2\n      pop\n        /* \"#utility.yul\":974:1091   */\n      pop\n        /* \"#utility.yul\":628:1098   */\n      swap3\n      pop\n      swap3\n      swap1\n      pop\n      jump\t// out\n        /* \"#utility.yul\":1104:1433   */\n    tag_45:\n        /* \"#utility.yul\":1163:1169   */\n      0x00\n        /* \"#utility.yul\":1212:1214   */\n      0x20\n        /* \"#utility.yul\":1200:1209   */\n      dup3\n        /* \"#utility.yul\":1191:1198   */\n      dup5\n        /* \"#utility.yul\":1187:1210   */\n      sub\n        /* \"#utility.yul\":1183:1215   */\n      slt\n        /* \"#utility.yul\":1180:1299   */\n      iszero\n      tag_99\n      jumpi\n        /* \"#utility.yul\":1218:1297   */\n      tag_100\n      tag_91\n      jump\t// in\n    tag_100:\n        /* \"#utility.yul\":1180:1299   */\n    tag_99:\n        /* \"#utility.yul\":1338:1339   */\n      0x00\n        /* \"#utility.yul\":1363:1416   */\n      tag_101\n        /* \"#utility.yul\":1408:1415   */\n      dup5\n        /* \"#utility.yul\":1399:1405   */\n      dup3\n        /* \"#utility.yul\":1388:1397   */\n      dup6\n        /* \"#utility.yul\":1384:1406   */\n      add\n        /* \"#utility.yul\":1363:1416   */\n      tag_84\n      jump\t// in\n    tag_101:\n        /* \"#utility.yul\":1353:1416   */\n      swap2\n      pop\n        /* \"#utility.yul\":1309:1426   */\n      pop\n        /* \"#utility.yul\":1104:1433   */\n      swap3\n      swap2\n      pop\n      pop\n      jump\t// out\n        /* \"#utility.yul\":1439:1554   */\n    tag_102:\n        /* \"#utility.yul\":1524:1547   */\n      tag_104\n        /* \"#utility.yul\":1541:1546   */\n      dup2\n        /* \"#utility.yul\":1524:1547   */\n      tag_105\n      jump\t// in\n    tag_104:\n        /* \"#utility.yul\":1519:1522   */\n      dup3\n        /* \"#utility.yul\":1512:1548   */\n      mstore\n        /* \"#utility.yul\":1439:1554   */\n      pop\n      pop\n      jump\t// out\n        /* \"#utility.yul\":1560:1678   */\n    tag_106:\n        /* \"#utility.yul\":1647:1671   */\n      tag_108\n        /* \"#utility.yul\":1665:1670   */\n      dup2\n        /* \"#utility.yul\":1647:1671   */\n      tag_109\n      jump\t// in\n    tag_108:\n        /* \"#utility.yul\":1642:1645   */\n      dup3\n        /* \"#utility.yul\":1635:1672   */\n      mstore\n        /* \"#utility.yul\":1560:1678   */\n      pop\n      pop\n      jump\t// out\n        /* \"#utility.yul\":1684:1902   */\n    tag_18:\n        /* \"#utility.yul\":1775:1779   */\n      0x00\n        /* \"#utility.yul\":1813:1815   */\n      0x20\n        /* \"#utility.yul\":1802:1811   */\n      dup3\n        /* \"#utility.yul\":1798:1816   */\n      add\n        /* \"#utility.yul\":1790:1816   */\n      swap1\n      pop\n        /* \"#utility.yul\":1826:1895   */\n      tag_111\n        /* \"#utility.yul\":1892:1893   */\n      0x00\n        /* \"#utility.yul\":1881:1890   */\n      dup4\n        /* \"#utility.yul\":1877:1894   */\n      add\n        /* \"#utility.yul\":1868:1874   */\n      dup5\n        /* \"#utility.yul\":1826:1895   */\n      tag_102\n      jump\t// in\n    tag_111:\n        /* \"#utility.yul\":1684:1902   */\n      swap3\n      swap2\n      pop\n      pop\n      jump\t// out\n        /* \"#utility.yul\":1908:2130   */\n    tag_38:\n        /* \"#utility.yul\":2001:2005   */\n      0x00\n        /* \"#utility.yul\":2039:2041   */\n      0x20\n        /* \"#utility.yul\":2028:2037   */\n      dup3\n        /* \"#utility.yul\":2024:2042   */\n      add\n        /* \"#utility.yul\":2016:2042   */\n      swap1\n      pop\n        /* \"#utility.yul\":2052:2123   */\n      tag_113\n        /* \"#utility.yul\":2120:2121   */\n      0x00\n        /* \"#utility.yul\":2109:2118   */\n      dup4\n        /* \"#utility.yul\":2105:2122   */\n      add\n        /* \"#utility.yul\":2096:2102   */\n      dup5\n        /* \"#utility.yul\":2052:2123   */\n      tag_106\n      jump\t// in\n    tag_113:\n        /* \"#utility.yul\":1908:2130   */\n      swap3\n      swap2\n      pop\n      pop\n      jump\t// out\n        /* \"#utility.yul\":2217:2742   */\n    tag_78:\n        /* \"#utility.yul\":2256:2259   */\n      0x00\n        /* \"#utility.yul\":2275:2294   */\n      tag_117\n        /* \"#utility.yul\":2292:2293   */\n      dup3\n        /* \"#utility.yul\":2275:2294   */\n      tag_105\n      jump\t// in\n    tag_117:\n        /* \"#utility.yul\":2270:2294   */\n      swap2\n      pop\n        /* \"#utility.yul\":2308:2327   */\n      tag_118\n        /* \"#utility.yul\":2325:2326   */\n      dup4\n        /* \"#utility.yul\":2308:2327   */\n      tag_105\n      jump\t// in\n    tag_118:\n        /* \"#utility.yul\":2303:2327   */\n      swap3\n      pop\n        /* \"#utility.yul\":2496:2497   */\n      dup2\n        /* \"#utility.yul\":2428:2494   */\n      0x7fffffffffffffffffffffffffffffffffffffffffffffffffffffffffffffff\n        /* \"#utility.yul\":2424:2498   */\n      sub\n        /* \"#utility.yul\":2421:2422   */\n      dup4\n        /* \"#utility.yul\":2417:2499   */\n      sgt\n        /* \"#utility.yul\":2412:2413   */\n      0x00\n        /* \"#utility.yul\":2409:2410   */\n      dup4\n        /* \"#utility.yul\":2405:2414   */\n      slt\n        /* \"#utility.yul\":2398:2415   */\n      iszero\n        /* \"#utility.yul\":2394:2500   */\n      and\n        /* \"#utility.yul\":2391:2523   */\n      iszero\n      tag_119\n      jumpi\n        /* \"#utility.yul\":2503:2521   */\n      tag_120\n      tag_121\n      jump\t// in\n    tag_120:\n        /* \"#utility.yul\":2391:2523   */\n    tag_119:\n        /* \"#utility.yul\":2683:2684   */\n      dup2\n        /* \"#utility.yul\":2615:2681   */\n      0x8000000000000000000000000000000000000000000000000000000000000000\n        /* \"#utility.yul\":2611:2685   */\n      sub\n        /* \"#utility.yul\":2608:2609   */\n      dup4\n        /* \"#utility.yul\":2604:2686   */\n      slt\n        /* \"#utility.yul\":2600:2601   */\n      0x00\n        /* \"#utility.yul\":2597:2598   */\n      dup4\n        /* \"#utility.yul\":2593:2602   */\n      slt\n        /* \"#utility.yul\":2589:2687   */\n      and\n        /* \"#utility.yul\":2586:2710   */\n      iszero\n      tag_122\n      jumpi\n        /* \"#utility.yul\":2690:2708   */\n      tag_123\n      tag_121\n      jump\t// in\n    tag_123:\n        /* \"#utility.yul\":2586:2710   */\n    tag_122:\n        /* \"#utility.yul\":2734:2735   */\n      dup3\n        /* \"#utility.yul\":2731:2732   */\n      dup3\n        /* \"#utility.yul\":2727:2736   */\n      add\n        /* \"#utility.yul\":2720:2736   */\n      swap1\n      pop\n        /* \"#utility.yul\":2217:2742   */\n      swap3\n      swap2\n      pop\n      pop\n      jump\t// out\n        /* \"#utility.yul\":2748:3133   */\n    tag_54:\n        /* \"#utility.yul\":2787:2788   */\n      0x00\n        /* \"#utility.yul\":2804:2823   */\n      tag_125\n        /* \"#utility.yul\":2821:2822   */\n      dup3\n        /* \"#utility.yul\":2804:2823   */\n      tag_105\n      jump\t// in\n    tag_125:\n        /* \"#utility.yul\":2799:2823   */\n      swap2\n      pop\n        /* \"#utility.yul\":2837:2856   */\n      tag_126\n        /* \"#utility.yul\":2854:2855   */\n      dup4\n        /* \"#utility.yul\":2837:2856   */\n      tag_105\n      jump\t// in\n    tag_126:\n        /* \"#utility.yul\":2832:2856   */\n      swap3\n      pop\n        /* \"#utility.yul\":2875:2876   */\n      dup3\n        /* \"#utility.yul\":2865:2900   */\n      tag_127\n      jumpi\n        /* \"#utility.yul\":2880:2898   */\n      tag_128\n      tag_129\n      jump\t// in\n    tag_128:\n        /* \"#utility.yul\":2865:2900   */\n    tag_127:\n        /* \"#utility.yul\":3066:3067   */\n      0x01\n        /* \"#utility.yul\":3063:3064   */\n      0x00\n        /* \"#utility.yul\":3059:3068   */\n      sub\n        /* \"#utility.yul\":3056:3057   */\n      dup4\n        /* \"#utility.yul\":3053:3069   */\n      eq\n        /* \"#utility.yul\":2972:3038   */\n      0x8000000000000000000000000000000000000000000000000000000000000000\n        /* \"#utility.yul\":2969:2970   */\n      dup4\n        /* \"#utility.yul\":2966:3039   */\n      eq\n        /* \"#utility.yul\":2949:3079   */\n      and\n        /* \"#utility.yul\":2946:3102   */\n      iszero\n      tag_130\n      jumpi\n        /* \"#utility.yul\":3082:3100   */\n      tag_131\n      tag_121\n      jump\t// in\n    tag_131:\n        /* \"#utility.yul\":2946:3102   */\n    tag_130:\n        /* \"#utility.yul\":3125:3126   */\n      dup3\n        /* \"#utility.yul\":3122:3123   */\n      dup3\n        /* \"#utility.yul\":3117:3127   */\n      sdiv\n        /* \"#utility.yul\":3112:3127   */\n      swap1\n      pop\n        /* \"#utility.yul\":2748:3133   */\n      swap3\n      swap2\n      pop\n      pop\n      jump\t// out\n        /* \"#utility.yul\":3139:4130   */\n    tag_57:\n        /* \"#utility.yul\":3178:3185   */\n      0x00\n        /* \"#utility.yul\":3201:3220   */\n      tag_133\n        /* \"#utility.yul\":3218:3219   */\n      dup3\n        /* \"#utility.yul\":3201:3220   */\n      tag_105\n      jump\t// in\n    tag_133:\n        /* \"#utility.yul\":3196:3220   */\n      swap2\n      pop\n        /* \"#utility.yul\":3234:3253   */\n      tag_134\n        /* \"#utility.yul\":3251:3252   */\n      dup4\n        /* \"#utility.yul\":3234:3253   */\n      tag_105\n      jump\t// in\n    tag_134:\n        /* \"#utility.yul\":3229:3253   */\n      swap3\n      pop\n        /* \"#utility.yul\":3435:3436   */\n      dup3\n        /* \"#utility.yul\":3367:3433   */\n      0x7fffffffffffffffffffffffffffffffffffffffffffffffffffffffffffffff\n        /* \"#utility.yul\":3363:3437   */\n      div\n        /* \"#utility.yul\":3360:3361   */\n      dup3\n        /* \"#utility.yul\":3357:3438   */\n      gt\n        /* \"#utility.yul\":3352:3353   */\n      0x00\n        /* \"#utility.yul\":3349:3350   */\n      dup5\n        /* \"#utility.yul\":3345:3354   */\n      sgt\n        /* \"#utility.yul\":3341:3342   */\n      0x00\n        /* \"#utility.yul\":3338:3339   */\n      dup5\n        /* \"#utility.yul\":3334:3343   */\n      sgt\n        /* \"#utility.yul\":3330:3355   */\n      and\n        /* \"#utility.yul\":3326:3439   */\n      and\n        /* \"#utility.yul\":3323:3462   */\n      iszero\n      tag_135\n      jumpi\n        /* \"#utility.yul\":3442:3460   */\n      tag_136\n      tag_121\n      jump\t// in\n    tag_136:\n        /* \"#utility.yul\":3323:3462   */\n    tag_135:\n        /* \"#utility.yul\":3646:3647   */\n      dup2\n        /* \"#utility.yul\":3578:3644   */\n      0x8000000000000000000000000000000000000000000000000000000000000000\n        /* \"#utility.yul\":3573:3648   */\n      sdiv\n        /* \"#utility.yul\":3570:3571   */\n      dup4\n        /* \"#utility.yul\":3566:3649   */\n      slt\n        /* \"#utility.yul\":3561:3562   */\n      0x00\n        /* \"#utility.yul\":3558:3559   */\n      dup5\n        /* \"#utility.yul\":3554:3563   */\n      slt\n        /* \"#utility.yul\":3550:3551   */\n      0x00\n        /* \"#utility.yul\":3547:3548   */\n      dup5\n        /* \"#utility.yul\":3543:3552   */\n      sgt\n        /* \"#utility.yul\":3539:3564   */\n      and\n        /* \"#utility.yul\":3535:3650   */\n      and\n        /* \"#utility.yul\":3532:3673   */\n      iszero\n      tag_137\n      jumpi\n        /* \"#utility.yul\":3653:3671   */\n      tag_138\n      tag_121\n      jump\t// in\n    tag_138:\n        /* \"#utility.yul\":3532:3673   */\n    tag_137:\n        /* \"#utility.yul\":3857:3858   */\n      dup3\n        /* \"#utility.yul\":3789:3855   */\n      0x8000000000000000000000000000000000000000000000000000000000000000\n        /* \"#utility.yul\":3784:3859   */\n      sdiv\n        /* \"#utility.yul\":3781:3782   */\n      dup3\n        /* \"#utility.yul\":3777:3860   */\n      slt\n        /* \"#utility.yul\":3772:3773   */\n      0x00\n        /* \"#utility.yul\":3769:3770   */\n      dup5\n        /* \"#utility.yul\":3765:3774   */\n      sgt\n        /* \"#utility.yul\":3761:3762   */\n      0x00\n        /* \"#utility.yul\":3758:3759   */\n      dup5\n        /* \"#utility.yul\":3754:3763   */\n      slt\n        /* \"#utility.yul\":3750:3775   */\n      and\n        /* \"#utility.yul\":3746:3861   */\n      and\n        /* \"#utility.yul\":3743:3884   */\n      iszero\n      tag_139\n      jumpi\n        /* \"#utility.yul\":3864:3882   */\n      tag_140\n      tag_121\n      jump\t// in\n    tag_140:\n        /* \"#utility.yul\":3743:3884   */\n    tag_139:\n        /* \"#utility.yul\":4067:4068   */\n      dup3\n        /* \"#utility.yul\":3999:4065   */\n      0x7fffffffffffffffffffffffffffffffffffffffffffffffffffffffffffffff\n        /* \"#utility.yul\":3994:4069   */\n      sdiv\n        /* \"#utility.yul\":3991:3992   */\n      dup3\n        /* \"#utility.yul\":3987:4070   */\n      slt\n        /* \"#utility.yul\":3982:3983   */\n      0x00\n        /* \"#utility.yul\":3979:3980   */\n      dup5\n        /* \"#utility.yul\":3975:3984   */\n      slt\n        /* \"#utility.yul\":3971:3972   */\n      0x00\n        /* \"#utility.yul\":3968:3969   */\n      dup5\n        /* \"#utility.yul\":3964:3973   */\n      slt\n        /* \"#utility.yul\":3960:3985   */\n      and\n        /* \"#utility.yul\":3956:4071   */\n      and\n        /* \"#utility.yul\":3953:4094   */\n      iszero\n      tag_141\n      jumpi\n        /* \"#utility.yul\":4074:4092   */\n      tag_142\n      tag_121\n      jump\t// in\n    tag_142:\n        /* \"#utility.yul\":3953:4094   */\n    tag_141:\n        /* \"#utility.yul\":4122:4123   */\n      dup3\n        /* \"#utility.yul\":4119:4120   */\n      dup3\n        /* \"#utility.yul\":4115:4124   */\n      mul\n        /* \"#utility.yul\":4104:4124   */\n      swap1\n      pop\n        /* \"#utility.yul\":3139:4130   */\n      swap3\n      swap2\n      pop\n      pop\n      jump\t// out\n        /* \"#utility.yul\":4136:4484   */\n    tag_75:\n        /* \"#utility.yul\":4176:4183   */\n      0x00\n        /* \"#utility.yul\":4199:4219   */\n      tag_144\n        /* \"#utility.yul\":4217:4218   */\n      dup3\n        /* \"#utility.yul\":4199:4219   */\n      tag_109\n      jump\t// in\n    tag_144:\n        /* \"#utility.yul\":4194:4219   */\n      swap2\n      pop\n        /* \"#utility.yul\":4233:4253   */\n      tag_145\n        /* \"#utility.yul\":4251:4252   */\n      dup4\n        /* \"#utility.yul\":4233:4253   */\n      tag_109\n      jump\t// in\n    tag_145:\n        /* \"#utility.yul\":4228:4253   */\n      swap3\n      pop\n        /* \"#utility.yul\":4421:4422   */\n      dup2\n        /* \"#utility.yul\":4353:4419   */\n      0xffffffffffffffffffffffffffffffffffffffffffffffffffffffffffffffff\n        /* \"#utility.yul\":4349:4423   */\n      div\n        /* \"#utility.yul\":4346:4347   */\n      dup4\n        /* \"#utility.yul\":4343:4424   */\n      gt\n        /* \"#utility.yul\":4338:4339   */\n      dup3\n        /* \"#utility.yul\":4331:4340   */\n      iszero\n        /* \"#utility.yul\":4324:4341   */\n      iszero\n        /* \"#utility.yul\":4320:4425   */\n      and\n        /* \"#utility.yul\":4317:4448   */\n      iszero\n      tag_146\n      jumpi\n        /* \"#utility.yul\":4428:4446   */\n      tag_147\n      tag_121\n      jump\t// in\n    tag_147:\n        /* \"#utility.yul\":4317:4448   */\n    tag_146:\n        /* \"#utility.yul\":4476:4477   */\n      dup3\n        /* \"#utility.yul\":4473:4474   */\n      dup3\n        /* \"#utility.yul\":4469:4478   */\n      mul\n        /* \"#utility.yul\":4458:4478   */\n      swap1\n      pop\n        /* \"#utility.yul\":4136:4484   */\n      swap3\n      swap2\n      pop\n      pop\n      jump\t// out\n        /* \"#utility.yul\":4490:5017   */\n    tag_60:\n        /* \"#utility.yul\":4529:4533   */\n      0x00\n        /* \"#utility.yul\":4549:4568   */\n      tag_149\n        /* \"#utility.yul\":4566:4567   */\n      dup3\n        /* \"#utility.yul\":4549:4568   */\n      tag_105\n      jump\t// in\n    tag_149:\n        /* \"#utility.yul\":4544:4568   */\n      swap2\n      pop\n        /* \"#utility.yul\":4582:4601   */\n      tag_150\n        /* \"#utility.yul\":4599:4600   */\n      dup4\n        /* \"#utility.yul\":4582:4601   */\n      tag_105\n      jump\t// in\n    tag_150:\n        /* \"#utility.yul\":4577:4601   */\n      swap3\n      pop\n        /* \"#utility.yul\":4771:4772   */\n      dup3\n        /* \"#utility.yul\":4703:4769   */\n      0x8000000000000000000000000000000000000000000000000000000000000000\n        /* \"#utility.yul\":4699:4773   */\n      add\n        /* \"#utility.yul\":4696:4697   */\n      dup3\n        /* \"#utility.yul\":4692:4774   */\n      slt\n        /* \"#utility.yul\":4687:4688   */\n      0x00\n        /* \"#utility.yul\":4684:4685   */\n      dup5\n        /* \"#utility.yul\":4680:4689   */\n      slt\n        /* \"#utility.yul\":4673:4690   */\n      iszero\n        /* \"#utility.yul\":4669:4775   */\n      and\n        /* \"#utility.yul\":4666:4798   */\n      iszero\n      tag_151\n      jumpi\n        /* \"#utility.yul\":4778:4796   */\n      tag_152\n      tag_121\n      jump\t// in\n    tag_152:\n        /* \"#utility.yul\":4666:4798   */\n    tag_151:\n        /* \"#utility.yul\":4957:4958   */\n      dup3\n        /* \"#utility.yul\":4889:4955   */\n      0x7fffffffffffffffffffffffffffffffffffffffffffffffffffffffffffffff\n        /* \"#utility.yul\":4885:4959   */\n      add\n        /* \"#utility.yul\":4882:4883   */\n      dup3\n        /* \"#utility.yul\":4878:4960   */\n      sgt\n        /* \"#utility.yul\":4874:4875   */\n      0x00\n        /* \"#utility.yul\":4871:4872   */\n      dup5\n        /* \"#utility.yul\":4867:4876   */\n      slt\n        /* \"#utility.yul\":4863:4961   */\n      and\n        /* \"#utility.yul\":4860:4984   */\n      iszero\n      tag_153\n      jumpi\n        /* \"#utility.yul\":4964:4982   */\n      tag_154\n      tag_121\n      jump\t// in\n    tag_154:\n        /* \"#utility.yul\":4860:4984   */\n    tag_153:\n        /* \"#utility.yul\":5009:5010   */\n      dup3\n        /* \"#utility.yul\":5006:5007   */\n      dup3\n        /* \"#utility.yul\":5002:5011   */\n      sub\n        /* \"#utility.yul\":4994:5011   */\n      swap1\n      pop\n        /* \"#utility.yul\":4490:5017   */\n      swap3\n      swap2\n      pop\n      pop\n      jump\t// out\n        /* \"#utility.yul\":5023:5214   */\n    tag_73:\n        /* \"#utility.yul\":5063:5067   */\n      0x00\n        /* \"#utility.yul\":5083:5103   */\n      tag_156\n        /* \"#utility.yul\":5101:5102   */\n      dup3\n        /* \"#utility.yul\":5083:5103   */\n      tag_109\n      jump\t// in\n    tag_156:\n        /* \"#utility.yul\":5078:5103   */\n      swap2\n      pop\n        /* \"#utility.yul\":5117:5137   */\n      tag_157\n        /* \"#utility.yul\":5135:5136   */\n      dup4\n        /* \"#utility.yul\":5117:5137   */\n      tag_109\n      jump\t// in\n    tag_157:\n        /* \"#utility.yul\":5112:5137   */\n      swap3\n      pop\n        /* \"#utility.yul\":5156:5157   */\n      dup3\n        /* \"#utility.yul\":5153:5154   */\n      dup3\n        /* \"#utility.yul\":5150:5158   */\n      lt\n        /* \"#utility.yul\":5147:5181   */\n      iszero\n      tag_158\n      jumpi\n        /* \"#utility.yul\":5161:5179   */\n      tag_159\n      tag_121\n      jump\t// in\n    tag_159:\n        /* \"#utility.yul\":5147:5181   */\n    tag_158:\n        /* \"#utility.yul\":5206:5207   */\n      dup3\n        /* \"#utility.yul\":5203:5204   */\n      dup3\n        /* \"#utility.yul\":5199:5208   */\n      sub\n        /* \"#utility.yul\":5191:5208   */\n      swap1\n      pop\n        /* \"#utility.yul\":5023:5214   */\n      swap3\n      swap2\n      pop\n      pop\n      jump\t// out\n        /* \"#utility.yul\":5220:5296   */\n    tag_105:\n        /* \"#utility.yul\":5256:5263   */\n      0x00\n        /* \"#utility.yul\":5285:5290   */\n      dup2\n        /* \"#utility.yul\":5274:5290   */\n      swap1\n      pop\n        /* \"#utility.yul\":5220:5296   */\n      swap2\n      swap1\n      pop\n      jump\t// out\n        /* \"#utility.yul\":5302:5379   */\n    tag_109:\n        /* \"#utility.yul\":5339:5346   */\n      0x00\n        /* \"#utility.yul\":5368:5373   */\n      dup2\n        /* \"#utility.yul\":5357:5373   */\n      swap1\n      pop\n        /* \"#utility.yul\":5302:5379   */\n      swap2\n      swap1\n      pop\n      jump\t// out\n        /* \"#utility.yul\":5385:5613   */\n    tag_65:\n        /* \"#utility.yul\":5420:5423   */\n      0x00\n        /* \"#utility.yul\":5443:5466   */\n      tag_163\n        /* \"#utility.yul\":5460:5465   */\n      dup3\n        /* \"#utility.yul\":5443:5466   */\n      tag_105\n      jump\t// in\n    tag_163:\n        /* \"#utility.yul\":5434:5466   */\n      swap2\n      pop\n        /* \"#utility.yul\":5488:5554   */\n      0x8000000000000000000000000000000000000000000000000000000000000000\n        /* \"#utility.yul\":5481:5486   */\n      dup3\n        /* \"#utility.yul\":5478:5555   */\n      eq\n        /* \"#utility.yul\":5475:5578   */\n      iszero\n      tag_164\n      jumpi\n        /* \"#utility.yul\":5558:5576   */\n      tag_165\n      tag_121\n      jump\t// in\n    tag_165:\n        /* \"#utility.yul\":5475:5578   */\n    tag_164:\n        /* \"#utility.yul\":5601:5606   */\n      dup2\n        /* \"#utility.yul\":5598:5599   */\n      0x00\n        /* \"#utility.yul\":5594:5607   */\n      sub\n        /* \"#utility.yul\":5587:5607   */\n      swap1\n      pop\n        /* \"#utility.yul\":5385:5613   */\n      swap2\n      swap1\n      pop\n      jump\t// out\n        /* \"#utility.yul\":5619:5799   */\n    tag_121:\n        /* \"#utility.yul\":5667:5744   */\n      0x4e487b7100000000000000000000000000000000000000000000000000000000\n        /* \"#utility.yul\":5664:5665   */\n      0x00\n        /* \"#utility.yul\":5657:5745   */\n      mstore\n        /* \"#utility.yul\":5764:5768   */\n      0x11\n        /* \"#utility.yul\":5761:5762   */\n      0x04\n        /* \"#utility.yul\":5754:5769   */\n      mstore\n        /* \"#utility.yul\":5788:5792   */\n      0x24\n        /* \"#utility.yul\":5785:5786   */\n      0x00\n        /* \"#utility.yul\":5778:5793   */\n      revert\n        /* \"#utility.yul\":5805:5985   */\n    tag_129:\n        /* \"#utility.yul\":5853:5930   */\n      0x4e487b7100000000000000000000000000000000000000000000000000000000\n        /* \"#utility.yul\":5850:5851   */\n      0x00\n        /* \"#utility.yul\":5843:5931   */\n      mstore\n        /* \"#utility.yul\":5950:5954   */\n      0x12\n        /* \"#utility.yul\":5947:5948   */\n      0x04\n        /* \"#utility.yul\":5940:5955   */\n      mstore\n        /* \"#utility.yul\":5974:5978   */\n      0x24\n        /* \"#utility.yul\":5971:5972   */\n      0x00\n        /* \"#utility.yul\":5964:5979   */\n      revert\n        /* \"#utility.yul\":6114:6231   */\n    tag_91:\n        /* \"#utility.yul\":6223:6224   */\n      0x00\n        /* \"#utility.yul\":6220:6221   */\n      dup1\n        /* \"#utility.yul\":6213:6225   */\n      revert\n        /* \"#utility.yul\":6237:6357   */\n    tag_83:\n        /* \"#utility.yul\":6309:6332   */\n      tag_172\n        /* \"#utility.yul\":6326:6331   */\n      dup2\n        /* \"#utility.yul\":6309:6332   */\n      tag_105\n      jump\t// in\n    tag_172:\n        /* \"#utility.yul\":6302:6307   */\n      dup2\n        /* \"#utility.yul\":6299:6333   */\n      eq\n        /* \"#utility.yul\":6289:6351   */\n      tag_173\n      jumpi\n        /* \"#utility.yul\":6347:6348   */\n      0x00\n        /* \"#utility.yul\":6344:6345   */\n      dup1\n        /* \"#utility.yul\":6337:6349   */\n      revert\n        /* \"#utility.yul\":6289:6351   */\n    tag_173:\n        /* \"#utility.yul\":6237:6357   */\n      pop\n      jump\t// out\n        /* \"#utility.yul\":6363:6485   */\n    tag_87:\n        /* \"#utility.yul\":6436:6460   */\n      tag_175\n        /* \"#utility.yul\":6454:6459   */\n      dup2\n        /* \"#utility.yul\":6436:6460   */\n      tag_109\n      jump\t// in\n    tag_175:\n        /* \"#utility.yul\":6429:6434   */\n      dup2\n        /* \"#utility.yul\":6426:6461   */\n      eq\n        /* \"#utility.yul\":6416:6479   */\n      tag_176\n      jumpi\n        /* \"#utility.yul\":6475:6476   */\n      0x00\n        /* \"#utility.yul\":6472:6473   */\n      dup1\n        /* \"#utility.yul\":6465:6477   */\n      revert\n        /* \"#utility.yul\":6416:6479   */\n    tag_176:\n        /* \"#utility.yul\":6363:6485   */\n      pop\n      jump\t// out\n\n    auxdata: 0xa26469706673582212207fa0669143933bd52f6aa7ddf8b84a34efc04508f892f42bfcc6be3e24cf2d3764736f6c63430008070033\n}\n",
				"bytecode": {
					"linkReferences": {},
					"object": "608060405234801561001057600080fd5b5061086f806100206000396000f3fe608060405234801561001057600080fd5b50600436106100935760003560e01c80634df7e3d0116100665780634df7e3d0146101465780637d825142146101645780637ea9e0581461019457806383714834146101c45780638f8a0d19146101f457610093565b806309b7cdda146100985780630dbe671f146100c8578063187983bf146100e65780634c627bad14610116575b600080fd5b6100b260048036038101906100ad9190610353565b610224565b6040516100bf91906103de565b60405180910390f35b6100d061023a565b6040516100dd91906103de565b60405180910390f35b61010060048036038101906100fb9190610353565b610240565b60405161010d91906103de565b60405180910390f35b610130600480360381019061012b9190610353565b610256565b60405161013d91906103de565b60405180910390f35b61014e61026c565b60405161015b91906103de565b60405180910390f35b61017e60048036038101906101799190610326565b610272565b60405161018b91906103f9565b60405180910390f35b6101ae60048036038101906101a99190610326565b610296565b6040516101bb91906103f9565b60405180910390f35b6101de60048036038101906101d99190610393565b6102ab565b6040516101eb91906103f9565b60405180910390f35b61020e60048036038101906102099190610353565b6102e6565b60405161021b91906103de565b60405180910390f35b6000818361023291906104a8565b905092915050565b60005481565b6000818361024e9190610512565b905092915050565b600081836102649190610683565b905092915050565b60015481565b60008082131561028457819050610291565b8161028e9061075f565b90505b919050565b600081826102a49190610512565b9050919050565b6000600182116102be57600190506102e1565b6102d36001836102ce9190610717565b6102ab565b826102de9190610629565b90505b919050565b600081836102f49190610414565b905092915050565b60008135905061030b8161080b565b92915050565b60008135905061032081610822565b92915050565b60006020828403121561033c5761033b610806565b5b600061034a848285016102fc565b91505092915050565b6000806040838503121561036a57610369610806565b5b6000610378858286016102fc565b9250506020610389858286016102fc565b9150509250929050565b6000602082840312156103a9576103a8610806565b5b60006103b784828501610311565b91505092915050565b6103c98161074b565b82525050565b6103d881610755565b82525050565b60006020820190506103f360008301846103c0565b92915050565b600060208201905061040e60008301846103cf565b92915050565b600061041f8261074b565b915061042a8361074b565b9250817f7fffffffffffffffffffffffffffffffffffffffffffffffffffffffffffffff03831360008312151615610465576104646107a8565b5b817f800000000000000000000000000000000000000000000000000000000000000003831260008312161561049d5761049c6107a8565b5b828201905092915050565b60006104b38261074b565b91506104be8361074b565b9250826104ce576104cd6107d7565b5b600160000383147f800000000000000000000000000000000000000000000000000000000000000083141615610507576105066107a8565b5b828205905092915050565b600061051d8261074b565b91506105288361074b565b9250827f7fffffffffffffffffffffffffffffffffffffffffffffffffffffffffffffff0482116000841360008413161615610567576105666107a8565b5b817f800000000000000000000000000000000000000000000000000000000000000005831260008412600084131616156105a4576105a36107a8565b5b827f800000000000000000000000000000000000000000000000000000000000000005821260008413600084121616156105e1576105e06107a8565b5b827f7fffffffffffffffffffffffffffffffffffffffffffffffffffffffffffffff058212600084126000841216161561061e5761061d6107a8565b5b828202905092915050565b600061063482610755565b915061063f83610755565b9250817fffffffffffffffffffffffffffffffffffffffffffffffffffffffffffffffff0483118215151615610678576106776107a8565b5b828202905092915050565b600061068e8261074b565b91506106998361074b565b9250827f8000000000000000000000000000000000000000000000000000000000000000018212600084121516156106d4576106d36107a8565b5b827f7fffffffffffffffffffffffffffffffffffffffffffffffffffffffffffffff01821360008412161561070c5761070b6107a8565b5b828203905092915050565b600061072282610755565b915061072d83610755565b9250828210156107405761073f6107a8565b5b828203905092915050565b6000819050919050565b6000819050919050565b600061076a8261074b565b91507f800000000000000000000000000000000000000000000000000000000000000082141561079d5761079c6107a8565b5b816000039050919050565b7f4e487b7100000000000000000000000000000000000000000000000000000000600052601160045260246000fd5b7f4e487b7100000000000000000000000000000000000000000000000000000000600052601260045260246000fd5b600080fd5b6108148161074b565b811461081f57600080fd5b50565b61082b81610755565b811461083657600080fd5b5056fea26469706673582212207fa0669143933bd52f6aa7ddf8b84a34efc04508f892f42bfcc6be3e24cf2d3764736f6c63430008070033",
					"opcodes": "PUSH1 0x80 PUSH1 0x40 MSTORE CALLVALUE DUP1 ISZERO PUSH2 0x10 JUMPI PUSH1 0x0 DUP1 REVERT JUMPDEST POP PUSH2 0x86F DUP1 PUSH2 0x20 PUSH1 0x0 CODECOPY PUSH1 0x0 RETURN INVALID PUSH1 0x80 PUSH1 0x40 MSTORE CALLVALUE DUP1 ISZERO PUSH2 0x10 JUMPI PUSH1 0x0 DUP1 REVERT JUMPDEST POP PUSH1 0x4 CALLDATASIZE LT PUSH2 0x93 JUMPI PUSH1 0x0 CALLDATALOAD PUSH1 0xE0 SHR DUP1 PUSH4 0x4DF7E3D0 GT PUSH2 0x66 JUMPI DUP1 PUSH4 0x4DF7E3D0 EQ PUSH2 0x146 JUMPI DUP1 PUSH4 0x7D825142 EQ PUSH2 0x164 JUMPI DUP1 PUSH4 0x7EA9E058 EQ PUSH2 0x194 JUMPI DUP1 PUSH4 0x83714834 EQ PUSH2 0x1C4 JUMPI DUP1 PUSH4 0x8F8A0D19 EQ PUSH2 0x1F4 JUMPI PUSH2 0x93 JUMP JUMPDEST DUP1 PUSH4 0x9B7CDDA EQ PUSH2 0x98 JUMPI DUP1 PUSH4 0xDBE671F EQ PUSH2 0xC8 JUMPI DUP1 PUSH4 0x187983BF EQ PUSH2 0xE6 JUMPI DUP1 PUSH4 0x4C627BAD EQ PUSH2 0x116 JUMPI JUMPDEST PUSH1 0x0 DUP1 REVERT JUMPDEST PUSH2 0xB2 PUSH1 0x4 DUP1 CALLDATASIZE SUB DUP2 ADD SWAP1 PUSH2 0xAD SWAP2 SWAP1 PUSH2 0x353 JUMP JUMPDEST PUSH2 0x224 JUMP JUMPDEST PUSH1 0x40 MLOAD PUSH2 0xBF SWAP2 SWAP1 PUSH2 0x3DE JUMP JUMPDEST PUSH1 0x40 MLOAD DUP1 SWAP2 SUB SWAP1 RETURN JUMPDEST PUSH2 0xD0 PUSH2 0x23A JUMP JUMPDEST PUSH1 0x40 MLOAD PUSH2 0xDD SWAP2 SWAP1 PUSH2 0x3DE JUMP JUMPDEST PUSH1 0x40 MLOAD DUP1 SWAP2 SUB SWAP1 RETURN JUMPDEST PUSH2 0x100 PUSH1 0x4 DUP1 CALLDATASIZE SUB DUP2 ADD SWAP1 PUSH2 0xFB SWAP2 SWAP1 PUSH2 0x353 JUMP JUMPDEST PUSH2 0x240 JUMP JUMPDEST PUSH1 0x40 MLOAD PUSH2 0x10D SWAP2 SWAP1 PUSH2 0x3DE JUMP JUMPDEST PUSH1 0x40 MLOAD DUP1 SWAP2 SUB SWAP1 RETURN JUMPDEST PUSH2 0x130 PUSH1 0x4 DUP1 CALLDATASIZE SUB DUP2 ADD SWAP1 PUSH2 0x12B SWAP2 SWAP1 PUSH2 0x353 JUMP JUMPDEST PUSH2 0x256 JUMP JUMPDEST PUSH1 0x40 MLOAD PUSH2 0x13D SWAP2 SWAP1 PUSH2 0x3DE JUMP JUMPDEST PUSH1 0x40 MLOAD DUP1 SWAP2 SUB SWAP1 RETURN JUMPDEST PUSH2 0x14E PUSH2 0x26C JUMP JUMPDEST PUSH1 0x40 MLOAD PUSH2 0x15B SWAP2 SWAP1 PUSH2 0x3DE JUMP JUMPDEST PUSH1 0x40 MLOAD DUP1 SWAP2 SUB SWAP1 RETURN JUMPDEST PUSH2 0x17E PUSH1 0x4 DUP1 CALLDATASIZE SUB DUP2 ADD SWAP1 PUSH2 0x179 SWAP2 SWAP1 PUSH2 0x326 JUMP JUMPDEST PUSH2 0x272 JUMP JUMPDEST PUSH1 0x40 MLOAD PUSH2 0x18B SWAP2 SWAP1 PUSH2 0x3F9 JUMP JUMPDEST PUSH1 0x40 MLOAD DUP1 SWAP2 SUB SWAP1 RETURN JUMPDEST PUSH2 0x1AE PUSH1 0x4 DUP1 CALLDATASIZE SUB DUP2 ADD SWAP1 PUSH2 0x1A9 SWAP2 SWAP1 PUSH2 0x326 JUMP JUMPDEST PUSH2 0x296 JUMP JUMPDEST PUSH1 0x40 MLOAD PUSH2 0x1BB SWAP2 SWAP1 PUSH2 0x3F9 JUMP JUMPDEST PUSH1 0x40 MLOAD DUP1 SWAP2 SUB SWAP1 RETURN JUMPDEST PUSH2 0x1DE PUSH1 0x4 DUP1 CALLDATASIZE SUB DUP2 ADD SWAP1 PUSH2 0x1D9 SWAP2 SWAP1 PUSH2 0x393 JUMP JUMPDEST PUSH2 0x2AB JUMP JUMPDEST PUSH1 0x40 MLOAD PUSH2 0x1EB SWAP2 SWAP1 PUSH2 0x3F9 JUMP JUMPDEST PUSH1 0x40 MLOAD DUP1 SWAP2 SUB SWAP1 RETURN JUMPDEST PUSH2 0x20E PUSH1 0x4 DUP1 CALLDATASIZE SUB DUP2 ADD SWAP1 PUSH2 0x209 SWAP2 SWAP1 PUSH2 0x353 JUMP JUMPDEST PUSH2 0x2E6 JUMP JUMPDEST PUSH1 0x40 MLOAD PUSH2 0x21B SWAP2 SWAP1 PUSH2 0x3DE JUMP JUMPDEST PUSH1 0x40 MLOAD DUP1 SWAP2 SUB SWAP1 RETURN JUMPDEST PUSH1 0x0 DUP2 DUP4 PUSH2 0x232 SWAP2 SWAP1 PUSH2 0x4A8 JUMP JUMPDEST SWAP1 POP SWAP3 SWAP2 POP POP JUMP JUMPDEST PUSH1 0x0 SLOAD DUP2 JUMP JUMPDEST PUSH1 0x0 DUP2 DUP4 PUSH2 0x24E SWAP2 SWAP1 PUSH2 0x512 JUMP JUMPDEST SWAP1 POP SWAP3 SWAP2 POP POP JUMP JUMPDEST PUSH1 0x0 DUP2 DUP4 PUSH2 0x264 SWAP2 SWAP1 PUSH2 0x683 JUMP JUMPDEST SWAP1 POP SWAP3 SWAP2 POP POP JUMP JUMPDEST PUSH1 0x1 SLOAD DUP2 JUMP JUMPDEST PUSH1 0x0 DUP1 DUP3 SGT ISZERO PUSH2 0x284 JUMPI DUP2 SWAP1 POP PUSH2 0x291 JUMP JUMPDEST DUP2 PUSH2 0x28E SWAP1 PUSH2 0x75F JUMP JUMPDEST SWAP1 POP JUMPDEST SWAP2 SWAP1 POP JUMP JUMPDEST PUSH1 0x0 DUP2 DUP3 PUSH2 0x2A4 SWAP2 SWAP1 PUSH2 0x512 JUMP JUMPDEST SWAP1 POP SWAP2 SWAP1 POP JUMP JUMPDEST PUSH1 0x0 PUSH1 0x1 DUP3 GT PUSH2 0x2BE JUMPI PUSH1 0x1 SWAP1 POP PUSH2 0x2E1 JUMP JUMPDEST PUSH2 0x2D3 PUSH1 0x1 DUP4 PUSH2 0x2CE SWAP2 SWAP1 PUSH2 0x717 JUMP JUMPDEST PUSH2 0x2AB JUMP JUMPDEST DUP3 PUSH2 0x2DE SWAP2 SWAP1 PUSH2 0x629 JUMP JUMPDEST SWAP1 POP JUMPDEST SWAP2 SWAP1 POP JUMP JUMPDEST PUSH1 0x0 DUP2 DUP4 PUSH2 0x2F4 SWAP2 SWAP1 PUSH2 0x414 JUMP JUMPDEST SWAP1 POP SWAP3 SWAP2 POP POP JUMP JUMPDEST PUSH1 0x0 DUP2 CALLDATALOAD SWAP1 POP PUSH2 0x30B DUP2 PUSH2 0x80B JUMP JUMPDEST SWAP3 SWAP2 POP POP JUMP JUMPDEST PUSH1 0x0 DUP2 CALLDATALOAD SWAP1 POP PUSH2 0x320 DUP2 PUSH2 0x822 JUMP JUMPDEST SWAP3 SWAP2 POP POP JUMP JUMPDEST PUSH1 0x0 PUSH1 0x20 DUP3 DUP5 SUB SLT ISZERO PUSH2 0x33C JUMPI PUSH2 0x33B PUSH2 0x806 JUMP JUMPDEST JUMPDEST PUSH1 0x0 PUSH2 0x34A DUP5 DUP3 DUP6 ADD PUSH2 0x2FC JUMP JUMPDEST SWAP2 POP POP SWAP3 SWAP2 POP POP JUMP JUMPDEST PUSH1 0x0 DUP1 PUSH1 0x40 DUP4 DUP6 SUB SLT ISZERO PUSH2 0x36A JUMPI PUSH2 0x369 PUSH2 0x806 JUMP JUMPDEST JUMPDEST PUSH1 0x0 PUSH2 0x378 DUP6 DUP3 DUP7 ADD PUSH2 0x2FC JUMP JUMPDEST SWAP3 POP POP PUSH1 0x20 PUSH2 0x389 DUP6 DUP3 DUP7 ADD PUSH2 0x2FC JUMP JUMPDEST SWAP2 POP POP SWAP3 POP SWAP3 SWAP1 POP JUMP JUMPDEST PUSH1 0x0 PUSH1 0x20 DUP3 DUP5 SUB SLT ISZERO PUSH2 0x3A9 JUMPI PUSH2 0x3A8 PUSH2 0x806 JUMP JUMPDEST JUMPDEST PUSH1 0x0 PUSH2 0x3B7 DUP5 DUP3 DUP6 ADD PUSH2 0x311 JUMP JUMPDEST SWAP2 POP POP SWAP3 SWAP2 POP POP JUMP JUMPDEST PUSH2 0x3C9 DUP2 PUSH2 0x74B JUMP JUMPDEST DUP3 MSTORE POP POP JUMP JUMPDEST PUSH2 0x3D8 DUP2 PUSH2 0x755 JUMP JUMPDEST DUP3 MSTORE POP POP JUMP JUMPDEST PUSH1 0x0 PUSH1 0x20 DUP3 ADD SWAP1 POP PUSH2 0x3F3 PUSH1 0x0 DUP4 ADD DUP5 PUSH2 0x3C0 JUMP JUMPDEST SWAP3 SWAP2 POP POP JUMP JUMPDEST PUSH1 0x0 PUSH1 0x20 DUP3 ADD SWAP1 POP PUSH2 0x40E PUSH1 0x0 DUP4 ADD DUP5 PUSH2 0x3CF JUMP JUMPDEST SWAP3 SWAP2 POP POP JUMP JUMPDEST PUSH1 0x0 PUSH2 0x41F DUP3 PUSH2 0x74B JUMP JUMPDEST SWAP2 POP PUSH2 0x42A DUP4 PUSH2 0x74B JUMP JUMPDEST SWAP3 POP DUP2 PUSH32 0x7FFFFFFFFFFFFFFFFFFFFFFFFFFFFFFFFFFFFFFFFFFFFFFFFFFFFFFFFFFFFFFF SUB DUP4 SGT PUSH1 0x0 DUP4 SLT ISZERO AND ISZERO PUSH2 0x465 JUMPI PUSH2 0x464 PUSH2 0x7A8 JUMP JUMPDEST JUMPDEST DUP2 PUSH32 0x8000000000000000000000000000000000000000000000000000000000000000 SUB DUP4 SLT PUSH1 0x0 DUP4 SLT AND ISZERO PUSH2 0x49D JUMPI PUSH2 0x49C PUSH2 0x7A8 JUMP JUMPDEST JUMPDEST DUP3 DUP3 ADD SWAP1 POP SWAP3 SWAP2 POP POP JUMP JUMPDEST PUSH1 0x0 PUSH2 0x4B3 DUP3 PUSH2 0x74B JUMP JUMPDEST SWAP2 POP PUSH2 0x4BE DUP4 PUSH2 0x74B JUMP JUMPDEST SWAP3 POP DUP3 PUSH2 0x4CE JUMPI PUSH2 0x4CD PUSH2 0x7D7 JUMP JUMPDEST JUMPDEST PUSH1 0x1 PUSH1 0x0 SUB DUP4 EQ PUSH32 0x8000000000000000000000000000000000000000000000000000000000000000 DUP4 EQ AND ISZERO PUSH2 0x507 JUMPI PUSH2 0x506 PUSH2 0x7A8 JUMP JUMPDEST JUMPDEST DUP3 DUP3 SDIV SWAP1 POP SWAP3 SWAP2 POP POP JUMP JUMPDEST PUSH1 0x0 PUSH2 0x51D DUP3 PUSH2 0x74B JUMP JUMPDEST SWAP2 POP PUSH2 0x528 DUP4 PUSH2 0x74B JUMP JUMPDEST SWAP3 POP DUP3 PUSH32 0x7FFFFFFFFFFFFFFFFFFFFFFFFFFFFFFFFFFFFFFFFFFFFFFFFFFFFFFFFFFFFFFF DIV DUP3 GT PUSH1 0x0 DUP5 SGT PUSH1 0x0 DUP5 SGT AND AND ISZERO PUSH2 0x567 JUMPI PUSH2 0x566 PUSH2 0x7A8 JUMP JUMPDEST JUMPDEST DUP2 PUSH32 0x8000000000000000000000000000000000000000000000000000000000000000 SDIV DUP4 SLT PUSH1 0x0 DUP5 SLT PUSH1 0x0 DUP5 SGT AND AND ISZERO PUSH2 0x5A4 JUMPI PUSH2 0x5A3 PUSH2 0x7A8 JUMP JUMPDEST JUMPDEST DUP3 PUSH32 0x8000000000000000000000000000000000000000000000000000000000000000 SDIV DUP3 SLT PUSH1 0x0 DUP5 SGT PUSH1 0x0 DUP5 SLT AND AND ISZERO PUSH2 0x5E1 JUMPI PUSH2 0x5E0 PUSH2 0x7A8 JUMP JUMPDEST JUMPDEST DUP3 PUSH32 0x7FFFFFFFFFFFFFFFFFFFFFFFFFFFFFFFFFFFFFFFFFFFFFFFFFFFFFFFFFFFFFFF SDIV DUP3 SLT PUSH1 0x0 DUP5 SLT PUSH1 0x0 DUP5 SLT AND AND ISZERO PUSH2 0x61E JUMPI PUSH2 0x61D PUSH2 0x7A8 JUMP JUMPDEST JUMPDEST DUP3 DUP3 MUL SWAP1 POP SWAP3 SWAP2 POP POP JUMP JUMPDEST PUSH1 0x0 PUSH2 0x634 DUP3 PUSH2 0x755 JUMP JUMPDEST SWAP2 POP PUSH2 0x63F DUP4 PUSH2 0x755 JUMP JUMPDEST SWAP3 POP DUP2 PUSH32 0xFFFFFFFFFFFFFFFFFFFFFFFFFFFFFFFFFFFFFFFFFFFFFFFFFFFFFFFFFFFFFFFF DIV DUP4 GT DUP3 ISZERO ISZERO AND ISZERO PUSH2 0x678 JUMPI PUSH2 0x677 PUSH2 0x7A8 JUMP JUMPDEST JUMPDEST DUP3 DUP3 MUL SWAP1 POP SWAP3 SWAP2 POP POP JUMP JUMPDEST PUSH1 0x0 PUSH2 0x68E DUP3 PUSH2 0x74B JUMP JUMPDEST SWAP2 POP PUSH2 0x699 DUP4 PUSH2 0x74B JUMP JUMPDEST SWAP3 POP DUP3 PUSH32 0x8000000000000000000000000000000000000000000000000000000000000000 ADD DUP3 SLT PUSH1 0x0 DUP5 SLT ISZERO AND ISZERO PUSH2 0x6D4 JUMPI PUSH2 0x6D3 PUSH2 0x7A8 JUMP JUMPDEST JUMPDEST DUP3 PUSH32 0x7FFFFFFFFFFFFFFFFFFFFFFFFFFFFFFFFFFFFFFFFFFFFFFFFFFFFFFFFFFFFFFF ADD DUP3 SGT PUSH1 0x0 DUP5 SLT AND ISZERO PUSH2 0x70C JUMPI PUSH2 0x70B PUSH2 0x7A8 JUMP JUMPDEST JUMPDEST DUP3 DUP3 SUB SWAP1 POP SWAP3 SWAP2 POP POP JUMP JUMPDEST PUSH1 0x0 PUSH2 0x722 DUP3 PUSH2 0x755 JUMP JUMPDEST SWAP2 POP PUSH2 0x72D DUP4 PUSH2 0x755 JUMP JUMPDEST SWAP3 POP DUP3 DUP3 LT ISZERO PUSH2 0x740 JUMPI PUSH2 0x73F PUSH2 0x7A8 JUMP JUMPDEST JUMPDEST DUP3 DUP3 SUB SWAP1 POP SWAP3 SWAP2 POP POP JUMP JUMPDEST PUSH1 0x0 DUP2 SWAP1 POP SWAP2 SWAP1 POP JUMP JUMPDEST PUSH1 0x0 DUP2 SWAP1 POP SWAP2 SWAP1 POP JUMP JUMPDEST PUSH1 0x0 PUSH2 0x76A DUP3 PUSH2 0x74B JUMP JUMPDEST SWAP2 POP PUSH32 0x8000000000000000000000000000000000000000000000000000000000000000 DUP3 EQ ISZERO PUSH2 0x79D JUMPI PUSH2 0x79C PUSH2 0x7A8 JUMP JUMPDEST JUMPDEST DUP2 PUSH1 0x0 SUB SWAP1 POP SWAP2 SWAP1 POP JUMP JUMPDEST PUSH32 0x4E487B7100000000000000000000000000000000000000000000000000000000 PUSH1 0x0 MSTORE PUSH1 0x11 PUSH1 0x4 MSTORE PUSH1 0x24 PUSH1 0x0 REVERT JUMPDEST PUSH32 0x4E487B7100000000000000000000000000000000000000000000000000000000 PUSH1 0x0 MSTORE PUSH1 0x12 PUSH1 0x4 MSTORE PUSH1 0x24 PUSH1 0x0 REVERT JUMPDEST PUSH1 0x0 DUP1 REVERT JUMPDEST PUSH2 0x814 DUP2 PUSH2 0x74B JUMP JUMPDEST DUP2 EQ PUSH2 0x81F JUMPI PUSH1 0x0 DUP1 REVERT JUMPDEST POP JUMP JUMPDEST PUSH2 0x82B DUP2 PUSH2 0x755 JUMP JUMPDEST DUP2 EQ PUSH2 0x836 JUMPI PUSH1 0x0 DUP1 REVERT JUMPDEST POP JUMP INVALID LOG2 PUSH5 0x6970667358 0x22 SLT KECCAK256 PUSH32 0xA0669143933BD52F6AA7DDF8B84A34EFC04508F892F42BFCC6BE3E24CF2D3764 PUSH20 0x6F6C634300080700330000000000000000000000 "
				},
				"gasEstimates": {
					"creation": {
						"codeDepositCost": "431800",
						"executionCost": "468",
						"totalCost": "432268"
					},
					"external": {
						"a()": "2452",
						"b()": "2429",
						"cuadrado(int256)": "infinite",
						"division(int256,int256)": "infinite",
						"factorial(uint256)": "infinite",
						"multiplicacion(int256,int256)": "infinite",
						"resta(int256,int256)": "infinite",
						"suma(int256,int256)": "infinite",
						"valorAbsoluto(int256)": "infinite"
					}
				},
				"methodIdentifiers": {
					"a()": "0dbe671f",
					"b()": "4df7e3d0",
					"cuadrado(int256)": "7ea9e058",
					"division(int256,int256)": "09b7cdda",
					"factorial(uint256)": "83714834",
					"multiplicacion(int256,int256)": "187983bf",
					"resta(int256,int256)": "4c627bad",
					"suma(int256,int256)": "8f8a0d19",
					"valorAbsoluto(int256)": "7d825142"
				}
			},
			"storageLayout": {
				"storage": [
					{
						"astId": 3,
						"contract": "Documents/GitHub/SOLIDITY-REMIX/5ef069451e67668750287d64bc5f8bae/calculadora.sol:Calculadora",
						"label": "a",
						"offset": 0,
						"slot": "0",
						"type": "t_int256"
					},
					{
						"astId": 5,
						"contract": "Documents/GitHub/SOLIDITY-REMIX/5ef069451e67668750287d64bc5f8bae/calculadora.sol:Calculadora",
						"label": "b",
						"offset": 0,
						"slot": "1",
						"type": "t_int256"
					}
				],
				"types": {
					"t_int256": {
						"encoding": "inplace",
						"label": "int256",
						"numberOfBytes": "32"
					}
				}
			},
			"userdoc": {
				"kind": "user",
				"methods": {},
				"version": 1
			}
		}
	}
}