{
	"Documents/GitHub/SOLIDITY-REMIX/5ef069451e67668750287d64bc5f8bae/calculadora.sol": {
		"Calculadora": {
			"abi": [
				{
					"inputs": [],
					"name": "a",
					"outputs": [
						{
							"internalType": "int256",
							"name": "",
							"type": "int256"
						}
					],
					"stateMutability": "view",
					"type": "function"
				},
				{
					"inputs": [],
					"name": "b",
					"outputs": [
						{
							"internalType": "int256",
							"name": "",
							"type": "int256"
						}
					],
					"stateMutability": "view",
					"type": "function"
				},
				{
					"inputs": [
						{
							"internalType": "int256",
							"name": "_a",
							"type": "int256"
						},
						{
							"internalType": "int256",
							"name": "_b",
							"type": "int256"
						}
					],
					"name": "division",
					"outputs": [
						{
							"internalType": "int256",
							"name": "",
							"type": "int256"
						}
					],
					"stateMutability": "pure",
					"type": "function"
				},
				{
					"inputs": [
						{
							"internalType": "uint256",
							"name": "_a",
							"type": "uint256"
						}
					],
					"name": "factorial",
					"outputs": [
						{
							"internalType": "uint256",
							"name": "",
							"type": "uint256"
						}
					],
					"stateMutability": "nonpayable",
					"type": "function"
				},
				{
					"inputs": [
						{
							"internalType": "int256",
							"name": "_a",
							"type": "int256"
						},
						{
							"internalType": "int256",
							"name": "_b",
							"type": "int256"
						}
					],
					"name": "multiplicacion",
					"outputs": [
						{
							"internalType": "int256",
							"name": "",
							"type": "int256"
						}
					],
					"stateMutability": "pure",
					"type": "function"
				},
				{
					"inputs": [
						{
							"internalType": "int256",
							"name": "_a",
							"type": "int256"
						},
						{
							"internalType": "int256",
							"name": "_b",
							"type": "int256"
						}
					],
					"name": "resta",
					"outputs": [
						{
							"internalType": "int256",
							"name": "",
							"type": "int256"
						}
					],
					"stateMutability": "pure",
					"type": "function"
				},
				{
					"inputs": [
						{
							"internalType": "int256",
							"name": "_a",
							"type": "int256"
						},
						{
							"internalType": "int256",
							"name": "_b",
							"type": "int256"
						}
					],
					"name": "suma",
					"outputs": [
						{
							"internalType": "int256",
							"name": "",
							"type": "int256"
						}
					],
					"stateMutability": "pure",
					"type": "function"
				}
			],
			"devdoc": {
				"kind": "dev",
				"methods": {},
				"version": 1
			},
			"evm": {
				"assembly": "    /* \"Documents/GitHub/SOLIDITY-REMIX/5ef069451e67668750287d64bc5f8bae/calculadora.sol\":68:1765  contract Calculadora {\r... */\n  mstore(0x40, 0x80)\n  callvalue\n  dup1\n  iszero\n  tag_1\n  jumpi\n  0x00\n  dup1\n  revert\ntag_1:\n  pop\n  dataSize(sub_0)\n  dup1\n  dataOffset(sub_0)\n  0x00\n  codecopy\n  0x00\n  return\nstop\n\nsub_0: assembly {\n        /* \"Documents/GitHub/SOLIDITY-REMIX/5ef069451e67668750287d64bc5f8bae/calculadora.sol\":68:1765  contract Calculadora {\r... */\n      mstore(0x40, 0x80)\n      callvalue\n      dup1\n      iszero\n      tag_1\n      jumpi\n      0x00\n      dup1\n      revert\n    tag_1:\n      pop\n      jumpi(tag_2, lt(calldatasize, 0x04))\n      shr(0xe0, calldataload(0x00))\n      dup1\n      0x4c627bad\n      gt\n      tag_10\n      jumpi\n      dup1\n      0x4c627bad\n      eq\n      tag_6\n      jumpi\n      dup1\n      0x4df7e3d0\n      eq\n      tag_7\n      jumpi\n      dup1\n      0x83714834\n      eq\n      tag_8\n      jumpi\n      dup1\n      0x8f8a0d19\n      eq\n      tag_9\n      jumpi\n      jump(tag_2)\n    tag_10:\n      dup1\n      0x09b7cdda\n      eq\n      tag_3\n      jumpi\n      dup1\n      0x0dbe671f\n      eq\n      tag_4\n      jumpi\n      dup1\n      0x187983bf\n      eq\n      tag_5\n      jumpi\n    tag_2:\n      0x00\n      dup1\n      revert\n        /* \"Documents/GitHub/SOLIDITY-REMIX/5ef069451e67668750287d64bc5f8bae/calculadora.sol\":438:531  function division(int _a,int _b) public pure returns(int) {\r... */\n    tag_3:\n      tag_11\n      0x04\n      dup1\n      calldatasize\n      sub\n      dup2\n      add\n      swap1\n      tag_12\n      swap2\n      swap1\n      tag_13\n      jump\t// in\n    tag_12:\n      tag_14\n      jump\t// in\n    tag_11:\n      mload(0x40)\n      tag_15\n      swap2\n      swap1\n      tag_16\n      jump\t// in\n    tag_15:\n      mload(0x40)\n      dup1\n      swap2\n      sub\n      swap1\n      return\n        /* \"Documents/GitHub/SOLIDITY-REMIX/5ef069451e67668750287d64bc5f8bae/calculadora.sol\":96:108  int public a */\n    tag_4:\n      tag_17\n      tag_18\n      jump\t// in\n    tag_17:\n      mload(0x40)\n      tag_19\n      swap2\n      swap1\n      tag_16\n      jump\t// in\n    tag_19:\n      mload(0x40)\n      dup1\n      swap2\n      sub\n      swap1\n      return\n        /* \"Documents/GitHub/SOLIDITY-REMIX/5ef069451e67668750287d64bc5f8bae/calculadora.sol\":331:430  function multiplicacion(int _a,int _b) public pure returns(int) {\r... */\n    tag_5:\n      tag_20\n      0x04\n      dup1\n      calldatasize\n      sub\n      dup2\n      add\n      swap1\n      tag_21\n      swap2\n      swap1\n      tag_13\n      jump\t// in\n    tag_21:\n      tag_22\n      jump\t// in\n    tag_20:\n      mload(0x40)\n      tag_23\n      swap2\n      swap1\n      tag_16\n      jump\t// in\n    tag_23:\n      mload(0x40)\n      dup1\n      swap2\n      sub\n      swap1\n      return\n        /* \"Documents/GitHub/SOLIDITY-REMIX/5ef069451e67668750287d64bc5f8bae/calculadora.sol\":233:323  function resta(int _a,int _b) public pure returns(int) {\r... */\n    tag_6:\n      tag_24\n      0x04\n      dup1\n      calldatasize\n      sub\n      dup2\n      add\n      swap1\n      tag_25\n      swap2\n      swap1\n      tag_13\n      jump\t// in\n    tag_25:\n      tag_26\n      jump\t// in\n    tag_24:\n      mload(0x40)\n      tag_27\n      swap2\n      swap1\n      tag_16\n      jump\t// in\n    tag_27:\n      mload(0x40)\n      dup1\n      swap2\n      sub\n      swap1\n      return\n        /* \"Documents/GitHub/SOLIDITY-REMIX/5ef069451e67668750287d64bc5f8bae/calculadora.sol\":115:127  int public b */\n    tag_7:\n      tag_28\n      tag_29\n      jump\t// in\n    tag_28:\n      mload(0x40)\n      tag_30\n      swap2\n      swap1\n      tag_16\n      jump\t// in\n    tag_30:\n      mload(0x40)\n      dup1\n      swap2\n      sub\n      swap1\n      return\n        /* \"Documents/GitHub/SOLIDITY-REMIX/5ef069451e67668750287d64bc5f8bae/calculadora.sol\":539:722  function factorial(uint _a) public returns(uint){\r... */\n    tag_8:\n      tag_31\n      0x04\n      dup1\n      calldatasize\n      sub\n      dup2\n      add\n      swap1\n      tag_32\n      swap2\n      swap1\n      tag_33\n      jump\t// in\n    tag_32:\n      tag_34\n      jump\t// in\n    tag_31:\n      mload(0x40)\n      tag_35\n      swap2\n      swap1\n      tag_36\n      jump\t// in\n    tag_35:\n      mload(0x40)\n      dup1\n      swap2\n      sub\n      swap1\n      return\n        /* \"Documents/GitHub/SOLIDITY-REMIX/5ef069451e67668750287d64bc5f8bae/calculadora.sol\":136:225  function suma(int _a,int _b) public pure returns(int) {\r... */\n    tag_9:\n      tag_37\n      0x04\n      dup1\n      calldatasize\n      sub\n      dup2\n      add\n      swap1\n      tag_38\n      swap2\n      swap1\n      tag_13\n      jump\t// in\n    tag_38:\n      tag_39\n      jump\t// in\n    tag_37:\n      mload(0x40)\n      tag_40\n      swap2\n      swap1\n      tag_16\n      jump\t// in\n    tag_40:\n      mload(0x40)\n      dup1\n      swap2\n      sub\n      swap1\n      return\n        /* \"Documents/GitHub/SOLIDITY-REMIX/5ef069451e67668750287d64bc5f8bae/calculadora.sol\":438:531  function division(int _a,int _b) public pure returns(int) {\r... */\n    tag_14:\n        /* \"Documents/GitHub/SOLIDITY-REMIX/5ef069451e67668750287d64bc5f8bae/calculadora.sol\":491:494  int */\n      0x00\n        /* \"Documents/GitHub/SOLIDITY-REMIX/5ef069451e67668750287d64bc5f8bae/calculadora.sol\":520:522  _b */\n      dup2\n        /* \"Documents/GitHub/SOLIDITY-REMIX/5ef069451e67668750287d64bc5f8bae/calculadora.sol\":515:517  _a */\n      dup4\n        /* \"Documents/GitHub/SOLIDITY-REMIX/5ef069451e67668750287d64bc5f8bae/calculadora.sol\":515:522  _a / _b */\n      tag_42\n      swap2\n      swap1\n      tag_43\n      jump\t// in\n    tag_42:\n        /* \"Documents/GitHub/SOLIDITY-REMIX/5ef069451e67668750287d64bc5f8bae/calculadora.sol\":507:523  return (_a / _b) */\n      swap1\n      pop\n        /* \"Documents/GitHub/SOLIDITY-REMIX/5ef069451e67668750287d64bc5f8bae/calculadora.sol\":438:531  function division(int _a,int _b) public pure returns(int) {\r... */\n      swap3\n      swap2\n      pop\n      pop\n      jump\t// out\n        /* \"Documents/GitHub/SOLIDITY-REMIX/5ef069451e67668750287d64bc5f8bae/calculadora.sol\":96:108  int public a */\n    tag_18:\n      sload(0x00)\n      dup2\n      jump\t// out\n        /* \"Documents/GitHub/SOLIDITY-REMIX/5ef069451e67668750287d64bc5f8bae/calculadora.sol\":331:430  function multiplicacion(int _a,int _b) public pure returns(int) {\r... */\n    tag_22:\n        /* \"Documents/GitHub/SOLIDITY-REMIX/5ef069451e67668750287d64bc5f8bae/calculadora.sol\":390:393  int */\n      0x00\n        /* \"Documents/GitHub/SOLIDITY-REMIX/5ef069451e67668750287d64bc5f8bae/calculadora.sol\":419:421  _b */\n      dup2\n        /* \"Documents/GitHub/SOLIDITY-REMIX/5ef069451e67668750287d64bc5f8bae/calculadora.sol\":414:416  _a */\n      dup4\n        /* \"Documents/GitHub/SOLIDITY-REMIX/5ef069451e67668750287d64bc5f8bae/calculadora.sol\":414:421  _a * _b */\n      tag_45\n      swap2\n      swap1\n      tag_46\n      jump\t// in\n    tag_45:\n        /* \"Documents/GitHub/SOLIDITY-REMIX/5ef069451e67668750287d64bc5f8bae/calculadora.sol\":406:422  return (_a * _b) */\n      swap1\n      pop\n        /* \"Documents/GitHub/SOLIDITY-REMIX/5ef069451e67668750287d64bc5f8bae/calculadora.sol\":331:430  function multiplicacion(int _a,int _b) public pure returns(int) {\r... */\n      swap3\n      swap2\n      pop\n      pop\n      jump\t// out\n        /* \"Documents/GitHub/SOLIDITY-REMIX/5ef069451e67668750287d64bc5f8bae/calculadora.sol\":233:323  function resta(int _a,int _b) public pure returns(int) {\r... */\n    tag_26:\n        /* \"Documents/GitHub/SOLIDITY-REMIX/5ef069451e67668750287d64bc5f8bae/calculadora.sol\":283:286  int */\n      0x00\n        /* \"Documents/GitHub/SOLIDITY-REMIX/5ef069451e67668750287d64bc5f8bae/calculadora.sol\":312:314  _b */\n      dup2\n        /* \"Documents/GitHub/SOLIDITY-REMIX/5ef069451e67668750287d64bc5f8bae/calculadora.sol\":307:309  _a */\n      dup4\n        /* \"Documents/GitHub/SOLIDITY-REMIX/5ef069451e67668750287d64bc5f8bae/calculadora.sol\":307:314  _a - _b */\n      tag_48\n      swap2\n      swap1\n      tag_49\n      jump\t// in\n    tag_48:\n        /* \"Documents/GitHub/SOLIDITY-REMIX/5ef069451e67668750287d64bc5f8bae/calculadora.sol\":299:315  return (_a - _b) */\n      swap1\n      pop\n        /* \"Documents/GitHub/SOLIDITY-REMIX/5ef069451e67668750287d64bc5f8bae/calculadora.sol\":233:323  function resta(int _a,int _b) public pure returns(int) {\r... */\n      swap3\n      swap2\n      pop\n      pop\n      jump\t// out\n        /* \"Documents/GitHub/SOLIDITY-REMIX/5ef069451e67668750287d64bc5f8bae/calculadora.sol\":115:127  int public b */\n    tag_29:\n      sload(0x01)\n      dup2\n      jump\t// out\n        /* \"Documents/GitHub/SOLIDITY-REMIX/5ef069451e67668750287d64bc5f8bae/calculadora.sol\":539:722  function factorial(uint _a) public returns(uint){\r... */\n    tag_34:\n        /* \"Documents/GitHub/SOLIDITY-REMIX/5ef069451e67668750287d64bc5f8bae/calculadora.sol\":582:586  uint */\n      0x00\n        /* \"Documents/GitHub/SOLIDITY-REMIX/5ef069451e67668750287d64bc5f8bae/calculadora.sol\":608:609  1 */\n      0x01\n        /* \"Documents/GitHub/SOLIDITY-REMIX/5ef069451e67668750287d64bc5f8bae/calculadora.sol\":602:604  _a */\n      dup3\n        /* \"Documents/GitHub/SOLIDITY-REMIX/5ef069451e67668750287d64bc5f8bae/calculadora.sol\":602:609  _a <= 1 */\n      gt\n        /* \"Documents/GitHub/SOLIDITY-REMIX/5ef069451e67668750287d64bc5f8bae/calculadora.sol\":598:715  if (_a <= 1){\r... */\n      tag_51\n      jumpi\n        /* \"Documents/GitHub/SOLIDITY-REMIX/5ef069451e67668750287d64bc5f8bae/calculadora.sol\":632:633  1 */\n      0x01\n        /* \"Documents/GitHub/SOLIDITY-REMIX/5ef069451e67668750287d64bc5f8bae/calculadora.sol\":625:633  return 1 */\n      swap1\n      pop\n      jump(tag_50)\n        /* \"Documents/GitHub/SOLIDITY-REMIX/5ef069451e67668750287d64bc5f8bae/calculadora.sol\":598:715  if (_a <= 1){\r... */\n    tag_51:\n        /* \"Documents/GitHub/SOLIDITY-REMIX/5ef069451e67668750287d64bc5f8bae/calculadora.sol\":687:702  factorial(_a-1) */\n      tag_53\n        /* \"Documents/GitHub/SOLIDITY-REMIX/5ef069451e67668750287d64bc5f8bae/calculadora.sol\":700:701  1 */\n      0x01\n        /* \"Documents/GitHub/SOLIDITY-REMIX/5ef069451e67668750287d64bc5f8bae/calculadora.sol\":697:699  _a */\n      dup4\n        /* \"Documents/GitHub/SOLIDITY-REMIX/5ef069451e67668750287d64bc5f8bae/calculadora.sol\":697:701  _a-1 */\n      tag_54\n      swap2\n      swap1\n      tag_55\n      jump\t// in\n    tag_54:\n        /* \"Documents/GitHub/SOLIDITY-REMIX/5ef069451e67668750287d64bc5f8bae/calculadora.sol\":687:696  factorial */\n      tag_34\n        /* \"Documents/GitHub/SOLIDITY-REMIX/5ef069451e67668750287d64bc5f8bae/calculadora.sol\":687:702  factorial(_a-1) */\n      jump\t// in\n    tag_53:\n        /* \"Documents/GitHub/SOLIDITY-REMIX/5ef069451e67668750287d64bc5f8bae/calculadora.sol\":682:684  _a */\n      dup3\n        /* \"Documents/GitHub/SOLIDITY-REMIX/5ef069451e67668750287d64bc5f8bae/calculadora.sol\":682:702  _a * factorial(_a-1) */\n      tag_56\n      swap2\n      swap1\n      tag_57\n      jump\t// in\n    tag_56:\n        /* \"Documents/GitHub/SOLIDITY-REMIX/5ef069451e67668750287d64bc5f8bae/calculadora.sol\":674:703  return (_a * factorial(_a-1)) */\n      swap1\n      pop\n        /* \"Documents/GitHub/SOLIDITY-REMIX/5ef069451e67668750287d64bc5f8bae/calculadora.sol\":539:722  function factorial(uint _a) public returns(uint){\r... */\n    tag_50:\n      swap2\n      swap1\n      pop\n      jump\t// out\n        /* \"Documents/GitHub/SOLIDITY-REMIX/5ef069451e67668750287d64bc5f8bae/calculadora.sol\":136:225  function suma(int _a,int _b) public pure returns(int) {\r... */\n    tag_39:\n        /* \"Documents/GitHub/SOLIDITY-REMIX/5ef069451e67668750287d64bc5f8bae/calculadora.sol\":185:188  int */\n      0x00\n        /* \"Documents/GitHub/SOLIDITY-REMIX/5ef069451e67668750287d64bc5f8bae/calculadora.sol\":214:216  _b */\n      dup2\n        /* \"Documents/GitHub/SOLIDITY-REMIX/5ef069451e67668750287d64bc5f8bae/calculadora.sol\":209:211  _a */\n      dup4\n        /* \"Documents/GitHub/SOLIDITY-REMIX/5ef069451e67668750287d64bc5f8bae/calculadora.sol\":209:216  _a + _b */\n      tag_59\n      swap2\n      swap1\n      tag_60\n      jump\t// in\n    tag_59:\n        /* \"Documents/GitHub/SOLIDITY-REMIX/5ef069451e67668750287d64bc5f8bae/calculadora.sol\":201:217  return (_a + _b) */\n      swap1\n      pop\n        /* \"Documents/GitHub/SOLIDITY-REMIX/5ef069451e67668750287d64bc5f8bae/calculadora.sol\":136:225  function suma(int _a,int _b) public pure returns(int) {\r... */\n      swap3\n      swap2\n      pop\n      pop\n      jump\t// out\n        /* \"#utility.yul\":7:144   */\n    tag_62:\n        /* \"#utility.yul\":52:57   */\n      0x00\n        /* \"#utility.yul\":90:96   */\n      dup2\n        /* \"#utility.yul\":77:97   */\n      calldataload\n        /* \"#utility.yul\":68:97   */\n      swap1\n      pop\n        /* \"#utility.yul\":106:138   */\n      tag_64\n        /* \"#utility.yul\":132:137   */\n      dup2\n        /* \"#utility.yul\":106:138   */\n      tag_65\n      jump\t// in\n    tag_64:\n        /* \"#utility.yul\":7:144   */\n      swap3\n      swap2\n      pop\n      pop\n      jump\t// out\n        /* \"#utility.yul\":150:289   */\n    tag_66:\n        /* \"#utility.yul\":196:201   */\n      0x00\n        /* \"#utility.yul\":234:240   */\n      dup2\n        /* \"#utility.yul\":221:241   */\n      calldataload\n        /* \"#utility.yul\":212:241   */\n      swap1\n      pop\n        /* \"#utility.yul\":250:283   */\n      tag_68\n        /* \"#utility.yul\":277:282   */\n      dup2\n        /* \"#utility.yul\":250:283   */\n      tag_69\n      jump\t// in\n    tag_68:\n        /* \"#utility.yul\":150:289   */\n      swap3\n      swap2\n      pop\n      pop\n      jump\t// out\n        /* \"#utility.yul\":295:765   */\n    tag_13:\n        /* \"#utility.yul\":361:367   */\n      0x00\n        /* \"#utility.yul\":369:375   */\n      dup1\n        /* \"#utility.yul\":418:420   */\n      0x40\n        /* \"#utility.yul\":406:415   */\n      dup4\n        /* \"#utility.yul\":397:404   */\n      dup6\n        /* \"#utility.yul\":393:416   */\n      sub\n        /* \"#utility.yul\":389:421   */\n      slt\n        /* \"#utility.yul\":386:505   */\n      iszero\n      tag_71\n      jumpi\n        /* \"#utility.yul\":424:503   */\n      tag_72\n      tag_73\n      jump\t// in\n    tag_72:\n        /* \"#utility.yul\":386:505   */\n    tag_71:\n        /* \"#utility.yul\":544:545   */\n      0x00\n        /* \"#utility.yul\":569:621   */\n      tag_74\n        /* \"#utility.yul\":613:620   */\n      dup6\n        /* \"#utility.yul\":604:610   */\n      dup3\n        /* \"#utility.yul\":593:602   */\n      dup7\n        /* \"#utility.yul\":589:611   */\n      add\n        /* \"#utility.yul\":569:621   */\n      tag_62\n      jump\t// in\n    tag_74:\n        /* \"#utility.yul\":559:621   */\n      swap3\n      pop\n        /* \"#utility.yul\":515:631   */\n      pop\n        /* \"#utility.yul\":670:672   */\n      0x20\n        /* \"#utility.yul\":696:748   */\n      tag_75\n        /* \"#utility.yul\":740:747   */\n      dup6\n        /* \"#utility.yul\":731:737   */\n      dup3\n        /* \"#utility.yul\":720:729   */\n      dup7\n        /* \"#utility.yul\":716:738   */\n      add\n        /* \"#utility.yul\":696:748   */\n      tag_62\n      jump\t// in\n    tag_75:\n        /* \"#utility.yul\":686:748   */\n      swap2\n      pop\n        /* \"#utility.yul\":641:758   */\n      pop\n        /* \"#utility.yul\":295:765   */\n      swap3\n      pop\n      swap3\n      swap1\n      pop\n      jump\t// out\n        /* \"#utility.yul\":771:1100   */\n    tag_33:\n        /* \"#utility.yul\":830:836   */\n      0x00\n        /* \"#utility.yul\":879:881   */\n      0x20\n        /* \"#utility.yul\":867:876   */\n      dup3\n        /* \"#utility.yul\":858:865   */\n      dup5\n        /* \"#utility.yul\":854:877   */\n      sub\n        /* \"#utility.yul\":850:882   */\n      slt\n        /* \"#utility.yul\":847:966   */\n      iszero\n      tag_77\n      jumpi\n        /* \"#utility.yul\":885:964   */\n      tag_78\n      tag_73\n      jump\t// in\n    tag_78:\n        /* \"#utility.yul\":847:966   */\n    tag_77:\n        /* \"#utility.yul\":1005:1006   */\n      0x00\n        /* \"#utility.yul\":1030:1083   */\n      tag_79\n        /* \"#utility.yul\":1075:1082   */\n      dup5\n        /* \"#utility.yul\":1066:1072   */\n      dup3\n        /* \"#utility.yul\":1055:1064   */\n      dup6\n        /* \"#utility.yul\":1051:1073   */\n      add\n        /* \"#utility.yul\":1030:1083   */\n      tag_66\n      jump\t// in\n    tag_79:\n        /* \"#utility.yul\":1020:1083   */\n      swap2\n      pop\n        /* \"#utility.yul\":976:1093   */\n      pop\n        /* \"#utility.yul\":771:1100   */\n      swap3\n      swap2\n      pop\n      pop\n      jump\t// out\n        /* \"#utility.yul\":1106:1221   */\n    tag_80:\n        /* \"#utility.yul\":1191:1214   */\n      tag_82\n        /* \"#utility.yul\":1208:1213   */\n      dup2\n        /* \"#utility.yul\":1191:1214   */\n      tag_83\n      jump\t// in\n    tag_82:\n        /* \"#utility.yul\":1186:1189   */\n      dup3\n        /* \"#utility.yul\":1179:1215   */\n      mstore\n        /* \"#utility.yul\":1106:1221   */\n      pop\n      pop\n      jump\t// out\n        /* \"#utility.yul\":1227:1345   */\n    tag_84:\n        /* \"#utility.yul\":1314:1338   */\n      tag_86\n        /* \"#utility.yul\":1332:1337   */\n      dup2\n        /* \"#utility.yul\":1314:1338   */\n      tag_87\n      jump\t// in\n    tag_86:\n        /* \"#utility.yul\":1309:1312   */\n      dup3\n        /* \"#utility.yul\":1302:1339   */\n      mstore\n        /* \"#utility.yul\":1227:1345   */\n      pop\n      pop\n      jump\t// out\n        /* \"#utility.yul\":1351:1569   */\n    tag_16:\n        /* \"#utility.yul\":1442:1446   */\n      0x00\n        /* \"#utility.yul\":1480:1482   */\n      0x20\n        /* \"#utility.yul\":1469:1478   */\n      dup3\n        /* \"#utility.yul\":1465:1483   */\n      add\n        /* \"#utility.yul\":1457:1483   */\n      swap1\n      pop\n        /* \"#utility.yul\":1493:1562   */\n      tag_89\n        /* \"#utility.yul\":1559:1560   */\n      0x00\n        /* \"#utility.yul\":1548:1557   */\n      dup4\n        /* \"#utility.yul\":1544:1561   */\n      add\n        /* \"#utility.yul\":1535:1541   */\n      dup5\n        /* \"#utility.yul\":1493:1562   */\n      tag_80\n      jump\t// in\n    tag_89:\n        /* \"#utility.yul\":1351:1569   */\n      swap3\n      swap2\n      pop\n      pop\n      jump\t// out\n        /* \"#utility.yul\":1575:1797   */\n    tag_36:\n        /* \"#utility.yul\":1668:1672   */\n      0x00\n        /* \"#utility.yul\":1706:1708   */\n      0x20\n        /* \"#utility.yul\":1695:1704   */\n      dup3\n        /* \"#utility.yul\":1691:1709   */\n      add\n        /* \"#utility.yul\":1683:1709   */\n      swap1\n      pop\n        /* \"#utility.yul\":1719:1790   */\n      tag_91\n        /* \"#utility.yul\":1787:1788   */\n      0x00\n        /* \"#utility.yul\":1776:1785   */\n      dup4\n        /* \"#utility.yul\":1772:1789   */\n      add\n        /* \"#utility.yul\":1763:1769   */\n      dup5\n        /* \"#utility.yul\":1719:1790   */\n      tag_84\n      jump\t// in\n    tag_91:\n        /* \"#utility.yul\":1575:1797   */\n      swap3\n      swap2\n      pop\n      pop\n      jump\t// out\n        /* \"#utility.yul\":1884:2409   */\n    tag_60:\n        /* \"#utility.yul\":1923:1926   */\n      0x00\n        /* \"#utility.yul\":1942:1961   */\n      tag_95\n        /* \"#utility.yul\":1959:1960   */\n      dup3\n        /* \"#utility.yul\":1942:1961   */\n      tag_83\n      jump\t// in\n    tag_95:\n        /* \"#utility.yul\":1937:1961   */\n      swap2\n      pop\n        /* \"#utility.yul\":1975:1994   */\n      tag_96\n        /* \"#utility.yul\":1992:1993   */\n      dup4\n        /* \"#utility.yul\":1975:1994   */\n      tag_83\n      jump\t// in\n    tag_96:\n        /* \"#utility.yul\":1970:1994   */\n      swap3\n      pop\n        /* \"#utility.yul\":2163:2164   */\n      dup2\n        /* \"#utility.yul\":2095:2161   */\n      0x7fffffffffffffffffffffffffffffffffffffffffffffffffffffffffffffff\n        /* \"#utility.yul\":2091:2165   */\n      sub\n        /* \"#utility.yul\":2088:2089   */\n      dup4\n        /* \"#utility.yul\":2084:2166   */\n      sgt\n        /* \"#utility.yul\":2079:2080   */\n      0x00\n        /* \"#utility.yul\":2076:2077   */\n      dup4\n        /* \"#utility.yul\":2072:2081   */\n      slt\n        /* \"#utility.yul\":2065:2082   */\n      iszero\n        /* \"#utility.yul\":2061:2167   */\n      and\n        /* \"#utility.yul\":2058:2190   */\n      iszero\n      tag_97\n      jumpi\n        /* \"#utility.yul\":2170:2188   */\n      tag_98\n      tag_99\n      jump\t// in\n    tag_98:\n        /* \"#utility.yul\":2058:2190   */\n    tag_97:\n        /* \"#utility.yul\":2350:2351   */\n      dup2\n        /* \"#utility.yul\":2282:2348   */\n      0x8000000000000000000000000000000000000000000000000000000000000000\n        /* \"#utility.yul\":2278:2352   */\n      sub\n        /* \"#utility.yul\":2275:2276   */\n      dup4\n        /* \"#utility.yul\":2271:2353   */\n      slt\n        /* \"#utility.yul\":2267:2268   */\n      0x00\n        /* \"#utility.yul\":2264:2265   */\n      dup4\n        /* \"#utility.yul\":2260:2269   */\n      slt\n        /* \"#utility.yul\":2256:2354   */\n      and\n        /* \"#utility.yul\":2253:2377   */\n      iszero\n      tag_100\n      jumpi\n        /* \"#utility.yul\":2357:2375   */\n      tag_101\n      tag_99\n      jump\t// in\n    tag_101:\n        /* \"#utility.yul\":2253:2377   */\n    tag_100:\n        /* \"#utility.yul\":2401:2402   */\n      dup3\n        /* \"#utility.yul\":2398:2399   */\n      dup3\n        /* \"#utility.yul\":2394:2403   */\n      add\n        /* \"#utility.yul\":2387:2403   */\n      swap1\n      pop\n        /* \"#utility.yul\":1884:2409   */\n      swap3\n      swap2\n      pop\n      pop\n      jump\t// out\n        /* \"#utility.yul\":2415:2800   */\n    tag_43:\n        /* \"#utility.yul\":2454:2455   */\n      0x00\n        /* \"#utility.yul\":2471:2490   */\n      tag_103\n        /* \"#utility.yul\":2488:2489   */\n      dup3\n        /* \"#utility.yul\":2471:2490   */\n      tag_83\n      jump\t// in\n    tag_103:\n        /* \"#utility.yul\":2466:2490   */\n      swap2\n      pop\n        /* \"#utility.yul\":2504:2523   */\n      tag_104\n        /* \"#utility.yul\":2521:2522   */\n      dup4\n        /* \"#utility.yul\":2504:2523   */\n      tag_83\n      jump\t// in\n    tag_104:\n        /* \"#utility.yul\":2499:2523   */\n      swap3\n      pop\n        /* \"#utility.yul\":2542:2543   */\n      dup3\n        /* \"#utility.yul\":2532:2567   */\n      tag_105\n      jumpi\n        /* \"#utility.yul\":2547:2565   */\n      tag_106\n      tag_107\n      jump\t// in\n    tag_106:\n        /* \"#utility.yul\":2532:2567   */\n    tag_105:\n        /* \"#utility.yul\":2733:2734   */\n      0x01\n        /* \"#utility.yul\":2730:2731   */\n      0x00\n        /* \"#utility.yul\":2726:2735   */\n      sub\n        /* \"#utility.yul\":2723:2724   */\n      dup4\n        /* \"#utility.yul\":2720:2736   */\n      eq\n        /* \"#utility.yul\":2639:2705   */\n      0x8000000000000000000000000000000000000000000000000000000000000000\n        /* \"#utility.yul\":2636:2637   */\n      dup4\n        /* \"#utility.yul\":2633:2706   */\n      eq\n        /* \"#utility.yul\":2616:2746   */\n      and\n        /* \"#utility.yul\":2613:2769   */\n      iszero\n      tag_108\n      jumpi\n        /* \"#utility.yul\":2749:2767   */\n      tag_109\n      tag_99\n      jump\t// in\n    tag_109:\n        /* \"#utility.yul\":2613:2769   */\n    tag_108:\n        /* \"#utility.yul\":2792:2793   */\n      dup3\n        /* \"#utility.yul\":2789:2790   */\n      dup3\n        /* \"#utility.yul\":2784:2794   */\n      sdiv\n        /* \"#utility.yul\":2779:2794   */\n      swap1\n      pop\n        /* \"#utility.yul\":2415:2800   */\n      swap3\n      swap2\n      pop\n      pop\n      jump\t// out\n        /* \"#utility.yul\":2806:3797   */\n    tag_46:\n        /* \"#utility.yul\":2845:2852   */\n      0x00\n        /* \"#utility.yul\":2868:2887   */\n      tag_111\n        /* \"#utility.yul\":2885:2886   */\n      dup3\n        /* \"#utility.yul\":2868:2887   */\n      tag_83\n      jump\t// in\n    tag_111:\n        /* \"#utility.yul\":2863:2887   */\n      swap2\n      pop\n        /* \"#utility.yul\":2901:2920   */\n      tag_112\n        /* \"#utility.yul\":2918:2919   */\n      dup4\n        /* \"#utility.yul\":2901:2920   */\n      tag_83\n      jump\t// in\n    tag_112:\n        /* \"#utility.yul\":2896:2920   */\n      swap3\n      pop\n        /* \"#utility.yul\":3102:3103   */\n      dup3\n        /* \"#utility.yul\":3034:3100   */\n      0x7fffffffffffffffffffffffffffffffffffffffffffffffffffffffffffffff\n        /* \"#utility.yul\":3030:3104   */\n      div\n        /* \"#utility.yul\":3027:3028   */\n      dup3\n        /* \"#utility.yul\":3024:3105   */\n      gt\n        /* \"#utility.yul\":3019:3020   */\n      0x00\n        /* \"#utility.yul\":3016:3017   */\n      dup5\n        /* \"#utility.yul\":3012:3021   */\n      sgt\n        /* \"#utility.yul\":3008:3009   */\n      0x00\n        /* \"#utility.yul\":3005:3006   */\n      dup5\n        /* \"#utility.yul\":3001:3010   */\n      sgt\n        /* \"#utility.yul\":2997:3022   */\n      and\n        /* \"#utility.yul\":2993:3106   */\n      and\n        /* \"#utility.yul\":2990:3129   */\n      iszero\n      tag_113\n      jumpi\n        /* \"#utility.yul\":3109:3127   */\n      tag_114\n      tag_99\n      jump\t// in\n    tag_114:\n        /* \"#utility.yul\":2990:3129   */\n    tag_113:\n        /* \"#utility.yul\":3313:3314   */\n      dup2\n        /* \"#utility.yul\":3245:3311   */\n      0x8000000000000000000000000000000000000000000000000000000000000000\n        /* \"#utility.yul\":3240:3315   */\n      sdiv\n        /* \"#utility.yul\":3237:3238   */\n      dup4\n        /* \"#utility.yul\":3233:3316   */\n      slt\n        /* \"#utility.yul\":3228:3229   */\n      0x00\n        /* \"#utility.yul\":3225:3226   */\n      dup5\n        /* \"#utility.yul\":3221:3230   */\n      slt\n        /* \"#utility.yul\":3217:3218   */\n      0x00\n        /* \"#utility.yul\":3214:3215   */\n      dup5\n        /* \"#utility.yul\":3210:3219   */\n      sgt\n        /* \"#utility.yul\":3206:3231   */\n      and\n        /* \"#utility.yul\":3202:3317   */\n      and\n        /* \"#utility.yul\":3199:3340   */\n      iszero\n      tag_115\n      jumpi\n        /* \"#utility.yul\":3320:3338   */\n      tag_116\n      tag_99\n      jump\t// in\n    tag_116:\n        /* \"#utility.yul\":3199:3340   */\n    tag_115:\n        /* \"#utility.yul\":3524:3525   */\n      dup3\n        /* \"#utility.yul\":3456:3522   */\n      0x8000000000000000000000000000000000000000000000000000000000000000\n        /* \"#utility.yul\":3451:3526   */\n      sdiv\n        /* \"#utility.yul\":3448:3449   */\n      dup3\n        /* \"#utility.yul\":3444:3527   */\n      slt\n        /* \"#utility.yul\":3439:3440   */\n      0x00\n        /* \"#utility.yul\":3436:3437   */\n      dup5\n        /* \"#utility.yul\":3432:3441   */\n      sgt\n        /* \"#utility.yul\":3428:3429   */\n      0x00\n        /* \"#utility.yul\":3425:3426   */\n      dup5\n        /* \"#utility.yul\":3421:3430   */\n      slt\n        /* \"#utility.yul\":3417:3442   */\n      and\n        /* \"#utility.yul\":3413:3528   */\n      and\n        /* \"#utility.yul\":3410:3551   */\n      iszero\n      tag_117\n      jumpi\n        /* \"#utility.yul\":3531:3549   */\n      tag_118\n      tag_99\n      jump\t// in\n    tag_118:\n        /* \"#utility.yul\":3410:3551   */\n    tag_117:\n        /* \"#utility.yul\":3734:3735   */\n      dup3\n        /* \"#utility.yul\":3666:3732   */\n      0x7fffffffffffffffffffffffffffffffffffffffffffffffffffffffffffffff\n        /* \"#utility.yul\":3661:3736   */\n      sdiv\n        /* \"#utility.yul\":3658:3659   */\n      dup3\n        /* \"#utility.yul\":3654:3737   */\n      slt\n        /* \"#utility.yul\":3649:3650   */\n      0x00\n        /* \"#utility.yul\":3646:3647   */\n      dup5\n        /* \"#utility.yul\":3642:3651   */\n      slt\n        /* \"#utility.yul\":3638:3639   */\n      0x00\n        /* \"#utility.yul\":3635:3636   */\n      dup5\n        /* \"#utility.yul\":3631:3640   */\n      slt\n        /* \"#utility.yul\":3627:3652   */\n      and\n        /* \"#utility.yul\":3623:3738   */\n      and\n        /* \"#utility.yul\":3620:3761   */\n      iszero\n      tag_119\n      jumpi\n        /* \"#utility.yul\":3741:3759   */\n      tag_120\n      tag_99\n      jump\t// in\n    tag_120:\n        /* \"#utility.yul\":3620:3761   */\n    tag_119:\n        /* \"#utility.yul\":3789:3790   */\n      dup3\n        /* \"#utility.yul\":3786:3787   */\n      dup3\n        /* \"#utility.yul\":3782:3791   */\n      mul\n        /* \"#utility.yul\":3771:3791   */\n      swap1\n      pop\n        /* \"#utility.yul\":2806:3797   */\n      swap3\n      swap2\n      pop\n      pop\n      jump\t// out\n        /* \"#utility.yul\":3803:4151   */\n    tag_57:\n        /* \"#utility.yul\":3843:3850   */\n      0x00\n        /* \"#utility.yul\":3866:3886   */\n      tag_122\n        /* \"#utility.yul\":3884:3885   */\n      dup3\n        /* \"#utility.yul\":3866:3886   */\n      tag_87\n      jump\t// in\n    tag_122:\n        /* \"#utility.yul\":3861:3886   */\n      swap2\n      pop\n        /* \"#utility.yul\":3900:3920   */\n      tag_123\n        /* \"#utility.yul\":3918:3919   */\n      dup4\n        /* \"#utility.yul\":3900:3920   */\n      tag_87\n      jump\t// in\n    tag_123:\n        /* \"#utility.yul\":3895:3920   */\n      swap3\n      pop\n        /* \"#utility.yul\":4088:4089   */\n      dup2\n        /* \"#utility.yul\":4020:4086   */\n      0xffffffffffffffffffffffffffffffffffffffffffffffffffffffffffffffff\n        /* \"#utility.yul\":4016:4090   */\n      div\n        /* \"#utility.yul\":4013:4014   */\n      dup4\n        /* \"#utility.yul\":4010:4091   */\n      gt\n        /* \"#utility.yul\":4005:4006   */\n      dup3\n        /* \"#utility.yul\":3998:4007   */\n      iszero\n        /* \"#utility.yul\":3991:4008   */\n      iszero\n        /* \"#utility.yul\":3987:4092   */\n      and\n        /* \"#utility.yul\":3984:4115   */\n      iszero\n      tag_124\n      jumpi\n        /* \"#utility.yul\":4095:4113   */\n      tag_125\n      tag_99\n      jump\t// in\n    tag_125:\n        /* \"#utility.yul\":3984:4115   */\n    tag_124:\n        /* \"#utility.yul\":4143:4144   */\n      dup3\n        /* \"#utility.yul\":4140:4141   */\n      dup3\n        /* \"#utility.yul\":4136:4145   */\n      mul\n        /* \"#utility.yul\":4125:4145   */\n      swap1\n      pop\n        /* \"#utility.yul\":3803:4151   */\n      swap3\n      swap2\n      pop\n      pop\n      jump\t// out\n        /* \"#utility.yul\":4157:4684   */\n    tag_49:\n        /* \"#utility.yul\":4196:4200   */\n      0x00\n        /* \"#utility.yul\":4216:4235   */\n      tag_127\n        /* \"#utility.yul\":4233:4234   */\n      dup3\n        /* \"#utility.yul\":4216:4235   */\n      tag_83\n      jump\t// in\n    tag_127:\n        /* \"#utility.yul\":4211:4235   */\n      swap2\n      pop\n        /* \"#utility.yul\":4249:4268   */\n      tag_128\n        /* \"#utility.yul\":4266:4267   */\n      dup4\n        /* \"#utility.yul\":4249:4268   */\n      tag_83\n      jump\t// in\n    tag_128:\n        /* \"#utility.yul\":4244:4268   */\n      swap3\n      pop\n        /* \"#utility.yul\":4438:4439   */\n      dup3\n        /* \"#utility.yul\":4370:4436   */\n      0x8000000000000000000000000000000000000000000000000000000000000000\n        /* \"#utility.yul\":4366:4440   */\n      add\n        /* \"#utility.yul\":4363:4364   */\n      dup3\n        /* \"#utility.yul\":4359:4441   */\n      slt\n        /* \"#utility.yul\":4354:4355   */\n      0x00\n        /* \"#utility.yul\":4351:4352   */\n      dup5\n        /* \"#utility.yul\":4347:4356   */\n      slt\n        /* \"#utility.yul\":4340:4357   */\n      iszero\n        /* \"#utility.yul\":4336:4442   */\n      and\n        /* \"#utility.yul\":4333:4465   */\n      iszero\n      tag_129\n      jumpi\n        /* \"#utility.yul\":4445:4463   */\n      tag_130\n      tag_99\n      jump\t// in\n    tag_130:\n        /* \"#utility.yul\":4333:4465   */\n    tag_129:\n        /* \"#utility.yul\":4624:4625   */\n      dup3\n        /* \"#utility.yul\":4556:4622   */\n      0x7fffffffffffffffffffffffffffffffffffffffffffffffffffffffffffffff\n        /* \"#utility.yul\":4552:4626   */\n      add\n        /* \"#utility.yul\":4549:4550   */\n      dup3\n        /* \"#utility.yul\":4545:4627   */\n      sgt\n        /* \"#utility.yul\":4541:4542   */\n      0x00\n        /* \"#utility.yul\":4538:4539   */\n      dup5\n        /* \"#utility.yul\":4534:4543   */\n      slt\n        /* \"#utility.yul\":4530:4628   */\n      and\n        /* \"#utility.yul\":4527:4651   */\n      iszero\n      tag_131\n      jumpi\n        /* \"#utility.yul\":4631:4649   */\n      tag_132\n      tag_99\n      jump\t// in\n    tag_132:\n        /* \"#utility.yul\":4527:4651   */\n    tag_131:\n        /* \"#utility.yul\":4676:4677   */\n      dup3\n        /* \"#utility.yul\":4673:4674   */\n      dup3\n        /* \"#utility.yul\":4669:4678   */\n      sub\n        /* \"#utility.yul\":4661:4678   */\n      swap1\n      pop\n        /* \"#utility.yul\":4157:4684   */\n      swap3\n      swap2\n      pop\n      pop\n      jump\t// out\n        /* \"#utility.yul\":4690:4881   */\n    tag_55:\n        /* \"#utility.yul\":4730:4734   */\n      0x00\n        /* \"#utility.yul\":4750:4770   */\n      tag_134\n        /* \"#utility.yul\":4768:4769   */\n      dup3\n        /* \"#utility.yul\":4750:4770   */\n      tag_87\n      jump\t// in\n    tag_134:\n        /* \"#utility.yul\":4745:4770   */\n      swap2\n      pop\n        /* \"#utility.yul\":4784:4804   */\n      tag_135\n        /* \"#utility.yul\":4802:4803   */\n      dup4\n        /* \"#utility.yul\":4784:4804   */\n      tag_87\n      jump\t// in\n    tag_135:\n        /* \"#utility.yul\":4779:4804   */\n      swap3\n      pop\n        /* \"#utility.yul\":4823:4824   */\n      dup3\n        /* \"#utility.yul\":4820:4821   */\n      dup3\n        /* \"#utility.yul\":4817:4825   */\n      lt\n        /* \"#utility.yul\":4814:4848   */\n      iszero\n      tag_136\n      jumpi\n        /* \"#utility.yul\":4828:4846   */\n      tag_137\n      tag_99\n      jump\t// in\n    tag_137:\n        /* \"#utility.yul\":4814:4848   */\n    tag_136:\n        /* \"#utility.yul\":4873:4874   */\n      dup3\n        /* \"#utility.yul\":4870:4871   */\n      dup3\n        /* \"#utility.yul\":4866:4875   */\n      sub\n        /* \"#utility.yul\":4858:4875   */\n      swap1\n      pop\n        /* \"#utility.yul\":4690:4881   */\n      swap3\n      swap2\n      pop\n      pop\n      jump\t// out\n        /* \"#utility.yul\":4887:4963   */\n    tag_83:\n        /* \"#utility.yul\":4923:4930   */\n      0x00\n        /* \"#utility.yul\":4952:4957   */\n      dup2\n        /* \"#utility.yul\":4941:4957   */\n      swap1\n      pop\n        /* \"#utility.yul\":4887:4963   */\n      swap2\n      swap1\n      pop\n      jump\t// out\n        /* \"#utility.yul\":4969:5046   */\n    tag_87:\n        /* \"#utility.yul\":5006:5013   */\n      0x00\n        /* \"#utility.yul\":5035:5040   */\n      dup2\n        /* \"#utility.yul\":5024:5040   */\n      swap1\n      pop\n        /* \"#utility.yul\":4969:5046   */\n      swap2\n      swap1\n      pop\n      jump\t// out\n        /* \"#utility.yul\":5052:5232   */\n    tag_99:\n        /* \"#utility.yul\":5100:5177   */\n      0x4e487b7100000000000000000000000000000000000000000000000000000000\n        /* \"#utility.yul\":5097:5098   */\n      0x00\n        /* \"#utility.yul\":5090:5178   */\n      mstore\n        /* \"#utility.yul\":5197:5201   */\n      0x11\n        /* \"#utility.yul\":5194:5195   */\n      0x04\n        /* \"#utility.yul\":5187:5202   */\n      mstore\n        /* \"#utility.yul\":5221:5225   */\n      0x24\n        /* \"#utility.yul\":5218:5219   */\n      0x00\n        /* \"#utility.yul\":5211:5226   */\n      revert\n        /* \"#utility.yul\":5238:5418   */\n    tag_107:\n        /* \"#utility.yul\":5286:5363   */\n      0x4e487b7100000000000000000000000000000000000000000000000000000000\n        /* \"#utility.yul\":5283:5284   */\n      0x00\n        /* \"#utility.yul\":5276:5364   */\n      mstore\n        /* \"#utility.yul\":5383:5387   */\n      0x12\n        /* \"#utility.yul\":5380:5381   */\n      0x04\n        /* \"#utility.yul\":5373:5388   */\n      mstore\n        /* \"#utility.yul\":5407:5411   */\n      0x24\n        /* \"#utility.yul\":5404:5405   */\n      0x00\n        /* \"#utility.yul\":5397:5412   */\n      revert\n        /* \"#utility.yul\":5547:5664   */\n    tag_73:\n        /* \"#utility.yul\":5656:5657   */\n      0x00\n        /* \"#utility.yul\":5653:5654   */\n      dup1\n        /* \"#utility.yul\":5646:5658   */\n      revert\n        /* \"#utility.yul\":5670:5790   */\n    tag_65:\n        /* \"#utility.yul\":5742:5765   */\n      tag_146\n        /* \"#utility.yul\":5759:5764   */\n      dup2\n        /* \"#utility.yul\":5742:5765   */\n      tag_83\n      jump\t// in\n    tag_146:\n        /* \"#utility.yul\":5735:5740   */\n      dup2\n        /* \"#utility.yul\":5732:5766   */\n      eq\n        /* \"#utility.yul\":5722:5784   */\n      tag_147\n      jumpi\n        /* \"#utility.yul\":5780:5781   */\n      0x00\n        /* \"#utility.yul\":5777:5778   */\n      dup1\n        /* \"#utility.yul\":5770:5782   */\n      revert\n        /* \"#utility.yul\":5722:5784   */\n    tag_147:\n        /* \"#utility.yul\":5670:5790   */\n      pop\n      jump\t// out\n        /* \"#utility.yul\":5796:5918   */\n    tag_69:\n        /* \"#utility.yul\":5869:5893   */\n      tag_149\n        /* \"#utility.yul\":5887:5892   */\n      dup2\n        /* \"#utility.yul\":5869:5893   */\n      tag_87\n      jump\t// in\n    tag_149:\n        /* \"#utility.yul\":5862:5867   */\n      dup2\n        /* \"#utility.yul\":5859:5894   */\n      eq\n        /* \"#utility.yul\":5849:5912   */\n      tag_150\n      jumpi\n        /* \"#utility.yul\":5908:5909   */\n      0x00\n        /* \"#utility.yul\":5905:5906   */\n      dup1\n        /* \"#utility.yul\":5898:5910   */\n      revert\n        /* \"#utility.yul\":5849:5912   */\n    tag_150:\n        /* \"#utility.yul\":5796:5918   */\n      pop\n      jump\t// out\n\n    auxdata: 0xa26469706673582212203a14ce30c6ce19408657613102f135907e187581c9f2c4a85afcec458a6f9b0464736f6c63430008070033\n}\n",
				"bytecode": {
					"linkReferences": {},
					"object": "608060405234801561001057600080fd5b5061074a806100206000396000f3fe608060405234801561001057600080fd5b506004361061007d5760003560e01c80634c627bad1161005b5780634c627bad146101005780634df7e3d014610130578063837148341461014e5780638f8a0d191461017e5761007d565b806309b7cdda146100825780630dbe671f146100b2578063187983bf146100d0575b600080fd5b61009c60048036038101906100979190610277565b6101ae565b6040516100a99190610302565b60405180910390f35b6100ba6101c4565b6040516100c79190610302565b60405180910390f35b6100ea60048036038101906100e59190610277565b6101ca565b6040516100f79190610302565b60405180910390f35b61011a60048036038101906101159190610277565b6101e0565b6040516101279190610302565b60405180910390f35b6101386101f6565b6040516101459190610302565b60405180910390f35b610168600480360381019061016391906102b7565b6101fc565b604051610175919061031d565b60405180910390f35b61019860048036038101906101939190610277565b610237565b6040516101a59190610302565b60405180910390f35b600081836101bc91906103cc565b905092915050565b60005481565b600081836101d89190610436565b905092915050565b600081836101ee91906105a7565b905092915050565b60015481565b60006001821161020f5760019050610232565b61022460018361021f919061063b565b6101fc565b8261022f919061054d565b90505b919050565b600081836102459190610338565b905092915050565b60008135905061025c816106e6565b92915050565b600081359050610271816106fd565b92915050565b6000806040838503121561028e5761028d6106e1565b5b600061029c8582860161024d565b92505060206102ad8582860161024d565b9150509250929050565b6000602082840312156102cd576102cc6106e1565b5b60006102db84828501610262565b91505092915050565b6102ed8161066f565b82525050565b6102fc81610679565b82525050565b600060208201905061031760008301846102e4565b92915050565b600060208201905061033260008301846102f3565b92915050565b60006103438261066f565b915061034e8361066f565b9250817f7fffffffffffffffffffffffffffffffffffffffffffffffffffffffffffffff0383136000831215161561038957610388610683565b5b817f80000000000000000000000000000000000000000000000000000000000000000383126000831216156103c1576103c0610683565b5b828201905092915050565b60006103d78261066f565b91506103e28361066f565b9250826103f2576103f16106b2565b5b600160000383147f80000000000000000000000000000000000000000000000000000000000000008314161561042b5761042a610683565b5b828205905092915050565b60006104418261066f565b915061044c8361066f565b9250827f7fffffffffffffffffffffffffffffffffffffffffffffffffffffffffffffff048211600084136000841316161561048b5761048a610683565b5b817f800000000000000000000000000000000000000000000000000000000000000005831260008412600084131616156104c8576104c7610683565b5b827f8000000000000000000000000000000000000000000000000000000000000000058212600084136000841216161561050557610504610683565b5b827f7fffffffffffffffffffffffffffffffffffffffffffffffffffffffffffffff058212600084126000841216161561054257610541610683565b5b828202905092915050565b600061055882610679565b915061056383610679565b9250817fffffffffffffffffffffffffffffffffffffffffffffffffffffffffffffffff048311821515161561059c5761059b610683565b5b828202905092915050565b60006105b28261066f565b91506105bd8361066f565b9250827f8000000000000000000000000000000000000000000000000000000000000000018212600084121516156105f8576105f7610683565b5b827f7fffffffffffffffffffffffffffffffffffffffffffffffffffffffffffffff0182136000841216156106305761062f610683565b5b828203905092915050565b600061064682610679565b915061065183610679565b92508282101561066457610663610683565b5b828203905092915050565b6000819050919050565b6000819050919050565b7f4e487b7100000000000000000000000000000000000000000000000000000000600052601160045260246000fd5b7f4e487b7100000000000000000000000000000000000000000000000000000000600052601260045260246000fd5b600080fd5b6106ef8161066f565b81146106fa57600080fd5b50565b61070681610679565b811461071157600080fd5b5056fea26469706673582212203a14ce30c6ce19408657613102f135907e187581c9f2c4a85afcec458a6f9b0464736f6c63430008070033",
					"opcodes": "PUSH1 0x80 PUSH1 0x40 MSTORE CALLVALUE DUP1 ISZERO PUSH2 0x10 JUMPI PUSH1 0x0 DUP1 REVERT JUMPDEST POP PUSH2 0x74A DUP1 PUSH2 0x20 PUSH1 0x0 CODECOPY PUSH1 0x0 RETURN INVALID PUSH1 0x80 PUSH1 0x40 MSTORE CALLVALUE DUP1 ISZERO PUSH2 0x10 JUMPI PUSH1 0x0 DUP1 REVERT JUMPDEST POP PUSH1 0x4 CALLDATASIZE LT PUSH2 0x7D JUMPI PUSH1 0x0 CALLDATALOAD PUSH1 0xE0 SHR DUP1 PUSH4 0x4C627BAD GT PUSH2 0x5B JUMPI DUP1 PUSH4 0x4C627BAD EQ PUSH2 0x100 JUMPI DUP1 PUSH4 0x4DF7E3D0 EQ PUSH2 0x130 JUMPI DUP1 PUSH4 0x83714834 EQ PUSH2 0x14E JUMPI DUP1 PUSH4 0x8F8A0D19 EQ PUSH2 0x17E JUMPI PUSH2 0x7D JUMP JUMPDEST DUP1 PUSH4 0x9B7CDDA EQ PUSH2 0x82 JUMPI DUP1 PUSH4 0xDBE671F EQ PUSH2 0xB2 JUMPI DUP1 PUSH4 0x187983BF EQ PUSH2 0xD0 JUMPI JUMPDEST PUSH1 0x0 DUP1 REVERT JUMPDEST PUSH2 0x9C PUSH1 0x4 DUP1 CALLDATASIZE SUB DUP2 ADD SWAP1 PUSH2 0x97 SWAP2 SWAP1 PUSH2 0x277 JUMP JUMPDEST PUSH2 0x1AE JUMP JUMPDEST PUSH1 0x40 MLOAD PUSH2 0xA9 SWAP2 SWAP1 PUSH2 0x302 JUMP JUMPDEST PUSH1 0x40 MLOAD DUP1 SWAP2 SUB SWAP1 RETURN JUMPDEST PUSH2 0xBA PUSH2 0x1C4 JUMP JUMPDEST PUSH1 0x40 MLOAD PUSH2 0xC7 SWAP2 SWAP1 PUSH2 0x302 JUMP JUMPDEST PUSH1 0x40 MLOAD DUP1 SWAP2 SUB SWAP1 RETURN JUMPDEST PUSH2 0xEA PUSH1 0x4 DUP1 CALLDATASIZE SUB DUP2 ADD SWAP1 PUSH2 0xE5 SWAP2 SWAP1 PUSH2 0x277 JUMP JUMPDEST PUSH2 0x1CA JUMP JUMPDEST PUSH1 0x40 MLOAD PUSH2 0xF7 SWAP2 SWAP1 PUSH2 0x302 JUMP JUMPDEST PUSH1 0x40 MLOAD DUP1 SWAP2 SUB SWAP1 RETURN JUMPDEST PUSH2 0x11A PUSH1 0x4 DUP1 CALLDATASIZE SUB DUP2 ADD SWAP1 PUSH2 0x115 SWAP2 SWAP1 PUSH2 0x277 JUMP JUMPDEST PUSH2 0x1E0 JUMP JUMPDEST PUSH1 0x40 MLOAD PUSH2 0x127 SWAP2 SWAP1 PUSH2 0x302 JUMP JUMPDEST PUSH1 0x40 MLOAD DUP1 SWAP2 SUB SWAP1 RETURN JUMPDEST PUSH2 0x138 PUSH2 0x1F6 JUMP JUMPDEST PUSH1 0x40 MLOAD PUSH2 0x145 SWAP2 SWAP1 PUSH2 0x302 JUMP JUMPDEST PUSH1 0x40 MLOAD DUP1 SWAP2 SUB SWAP1 RETURN JUMPDEST PUSH2 0x168 PUSH1 0x4 DUP1 CALLDATASIZE SUB DUP2 ADD SWAP1 PUSH2 0x163 SWAP2 SWAP1 PUSH2 0x2B7 JUMP JUMPDEST PUSH2 0x1FC JUMP JUMPDEST PUSH1 0x40 MLOAD PUSH2 0x175 SWAP2 SWAP1 PUSH2 0x31D JUMP JUMPDEST PUSH1 0x40 MLOAD DUP1 SWAP2 SUB SWAP1 RETURN JUMPDEST PUSH2 0x198 PUSH1 0x4 DUP1 CALLDATASIZE SUB DUP2 ADD SWAP1 PUSH2 0x193 SWAP2 SWAP1 PUSH2 0x277 JUMP JUMPDEST PUSH2 0x237 JUMP JUMPDEST PUSH1 0x40 MLOAD PUSH2 0x1A5 SWAP2 SWAP1 PUSH2 0x302 JUMP JUMPDEST PUSH1 0x40 MLOAD DUP1 SWAP2 SUB SWAP1 RETURN JUMPDEST PUSH1 0x0 DUP2 DUP4 PUSH2 0x1BC SWAP2 SWAP1 PUSH2 0x3CC JUMP JUMPDEST SWAP1 POP SWAP3 SWAP2 POP POP JUMP JUMPDEST PUSH1 0x0 SLOAD DUP2 JUMP JUMPDEST PUSH1 0x0 DUP2 DUP4 PUSH2 0x1D8 SWAP2 SWAP1 PUSH2 0x436 JUMP JUMPDEST SWAP1 POP SWAP3 SWAP2 POP POP JUMP JUMPDEST PUSH1 0x0 DUP2 DUP4 PUSH2 0x1EE SWAP2 SWAP1 PUSH2 0x5A7 JUMP JUMPDEST SWAP1 POP SWAP3 SWAP2 POP POP JUMP JUMPDEST PUSH1 0x1 SLOAD DUP2 JUMP JUMPDEST PUSH1 0x0 PUSH1 0x1 DUP3 GT PUSH2 0x20F JUMPI PUSH1 0x1 SWAP1 POP PUSH2 0x232 JUMP JUMPDEST PUSH2 0x224 PUSH1 0x1 DUP4 PUSH2 0x21F SWAP2 SWAP1 PUSH2 0x63B JUMP JUMPDEST PUSH2 0x1FC JUMP JUMPDEST DUP3 PUSH2 0x22F SWAP2 SWAP1 PUSH2 0x54D JUMP JUMPDEST SWAP1 POP JUMPDEST SWAP2 SWAP1 POP JUMP JUMPDEST PUSH1 0x0 DUP2 DUP4 PUSH2 0x245 SWAP2 SWAP1 PUSH2 0x338 JUMP JUMPDEST SWAP1 POP SWAP3 SWAP2 POP POP JUMP JUMPDEST PUSH1 0x0 DUP2 CALLDATALOAD SWAP1 POP PUSH2 0x25C DUP2 PUSH2 0x6E6 JUMP JUMPDEST SWAP3 SWAP2 POP POP JUMP JUMPDEST PUSH1 0x0 DUP2 CALLDATALOAD SWAP1 POP PUSH2 0x271 DUP2 PUSH2 0x6FD JUMP JUMPDEST SWAP3 SWAP2 POP POP JUMP JUMPDEST PUSH1 0x0 DUP1 PUSH1 0x40 DUP4 DUP6 SUB SLT ISZERO PUSH2 0x28E JUMPI PUSH2 0x28D PUSH2 0x6E1 JUMP JUMPDEST JUMPDEST PUSH1 0x0 PUSH2 0x29C DUP6 DUP3 DUP7 ADD PUSH2 0x24D JUMP JUMPDEST SWAP3 POP POP PUSH1 0x20 PUSH2 0x2AD DUP6 DUP3 DUP7 ADD PUSH2 0x24D JUMP JUMPDEST SWAP2 POP POP SWAP3 POP SWAP3 SWAP1 POP JUMP JUMPDEST PUSH1 0x0 PUSH1 0x20 DUP3 DUP5 SUB SLT ISZERO PUSH2 0x2CD JUMPI PUSH2 0x2CC PUSH2 0x6E1 JUMP JUMPDEST JUMPDEST PUSH1 0x0 PUSH2 0x2DB DUP5 DUP3 DUP6 ADD PUSH2 0x262 JUMP JUMPDEST SWAP2 POP POP SWAP3 SWAP2 POP POP JUMP JUMPDEST PUSH2 0x2ED DUP2 PUSH2 0x66F JUMP JUMPDEST DUP3 MSTORE POP POP JUMP JUMPDEST PUSH2 0x2FC DUP2 PUSH2 0x679 JUMP JUMPDEST DUP3 MSTORE POP POP JUMP JUMPDEST PUSH1 0x0 PUSH1 0x20 DUP3 ADD SWAP1 POP PUSH2 0x317 PUSH1 0x0 DUP4 ADD DUP5 PUSH2 0x2E4 JUMP JUMPDEST SWAP3 SWAP2 POP POP JUMP JUMPDEST PUSH1 0x0 PUSH1 0x20 DUP3 ADD SWAP1 POP PUSH2 0x332 PUSH1 0x0 DUP4 ADD DUP5 PUSH2 0x2F3 JUMP JUMPDEST SWAP3 SWAP2 POP POP JUMP JUMPDEST PUSH1 0x0 PUSH2 0x343 DUP3 PUSH2 0x66F JUMP JUMPDEST SWAP2 POP PUSH2 0x34E DUP4 PUSH2 0x66F JUMP JUMPDEST SWAP3 POP DUP2 PUSH32 0x7FFFFFFFFFFFFFFFFFFFFFFFFFFFFFFFFFFFFFFFFFFFFFFFFFFFFFFFFFFFFFFF SUB DUP4 SGT PUSH1 0x0 DUP4 SLT ISZERO AND ISZERO PUSH2 0x389 JUMPI PUSH2 0x388 PUSH2 0x683 JUMP JUMPDEST JUMPDEST DUP2 PUSH32 0x8000000000000000000000000000000000000000000000000000000000000000 SUB DUP4 SLT PUSH1 0x0 DUP4 SLT AND ISZERO PUSH2 0x3C1 JUMPI PUSH2 0x3C0 PUSH2 0x683 JUMP JUMPDEST JUMPDEST DUP3 DUP3 ADD SWAP1 POP SWAP3 SWAP2 POP POP JUMP JUMPDEST PUSH1 0x0 PUSH2 0x3D7 DUP3 PUSH2 0x66F JUMP JUMPDEST SWAP2 POP PUSH2 0x3E2 DUP4 PUSH2 0x66F JUMP JUMPDEST SWAP3 POP DUP3 PUSH2 0x3F2 JUMPI PUSH2 0x3F1 PUSH2 0x6B2 JUMP JUMPDEST JUMPDEST PUSH1 0x1 PUSH1 0x0 SUB DUP4 EQ PUSH32 0x8000000000000000000000000000000000000000000000000000000000000000 DUP4 EQ AND ISZERO PUSH2 0x42B JUMPI PUSH2 0x42A PUSH2 0x683 JUMP JUMPDEST JUMPDEST DUP3 DUP3 SDIV SWAP1 POP SWAP3 SWAP2 POP POP JUMP JUMPDEST PUSH1 0x0 PUSH2 0x441 DUP3 PUSH2 0x66F JUMP JUMPDEST SWAP2 POP PUSH2 0x44C DUP4 PUSH2 0x66F JUMP JUMPDEST SWAP3 POP DUP3 PUSH32 0x7FFFFFFFFFFFFFFFFFFFFFFFFFFFFFFFFFFFFFFFFFFFFFFFFFFFFFFFFFFFFFFF DIV DUP3 GT PUSH1 0x0 DUP5 SGT PUSH1 0x0 DUP5 SGT AND AND ISZERO PUSH2 0x48B JUMPI PUSH2 0x48A PUSH2 0x683 JUMP JUMPDEST JUMPDEST DUP2 PUSH32 0x8000000000000000000000000000000000000000000000000000000000000000 SDIV DUP4 SLT PUSH1 0x0 DUP5 SLT PUSH1 0x0 DUP5 SGT AND AND ISZERO PUSH2 0x4C8 JUMPI PUSH2 0x4C7 PUSH2 0x683 JUMP JUMPDEST JUMPDEST DUP3 PUSH32 0x8000000000000000000000000000000000000000000000000000000000000000 SDIV DUP3 SLT PUSH1 0x0 DUP5 SGT PUSH1 0x0 DUP5 SLT AND AND ISZERO PUSH2 0x505 JUMPI PUSH2 0x504 PUSH2 0x683 JUMP JUMPDEST JUMPDEST DUP3 PUSH32 0x7FFFFFFFFFFFFFFFFFFFFFFFFFFFFFFFFFFFFFFFFFFFFFFFFFFFFFFFFFFFFFFF SDIV DUP3 SLT PUSH1 0x0 DUP5 SLT PUSH1 0x0 DUP5 SLT AND AND ISZERO PUSH2 0x542 JUMPI PUSH2 0x541 PUSH2 0x683 JUMP JUMPDEST JUMPDEST DUP3 DUP3 MUL SWAP1 POP SWAP3 SWAP2 POP POP JUMP JUMPDEST PUSH1 0x0 PUSH2 0x558 DUP3 PUSH2 0x679 JUMP JUMPDEST SWAP2 POP PUSH2 0x563 DUP4 PUSH2 0x679 JUMP JUMPDEST SWAP3 POP DUP2 PUSH32 0xFFFFFFFFFFFFFFFFFFFFFFFFFFFFFFFFFFFFFFFFFFFFFFFFFFFFFFFFFFFFFFFF DIV DUP4 GT DUP3 ISZERO ISZERO AND ISZERO PUSH2 0x59C JUMPI PUSH2 0x59B PUSH2 0x683 JUMP JUMPDEST JUMPDEST DUP3 DUP3 MUL SWAP1 POP SWAP3 SWAP2 POP POP JUMP JUMPDEST PUSH1 0x0 PUSH2 0x5B2 DUP3 PUSH2 0x66F JUMP JUMPDEST SWAP2 POP PUSH2 0x5BD DUP4 PUSH2 0x66F JUMP JUMPDEST SWAP3 POP DUP3 PUSH32 0x8000000000000000000000000000000000000000000000000000000000000000 ADD DUP3 SLT PUSH1 0x0 DUP5 SLT ISZERO AND ISZERO PUSH2 0x5F8 JUMPI PUSH2 0x5F7 PUSH2 0x683 JUMP JUMPDEST JUMPDEST DUP3 PUSH32 0x7FFFFFFFFFFFFFFFFFFFFFFFFFFFFFFFFFFFFFFFFFFFFFFFFFFFFFFFFFFFFFFF ADD DUP3 SGT PUSH1 0x0 DUP5 SLT AND ISZERO PUSH2 0x630 JUMPI PUSH2 0x62F PUSH2 0x683 JUMP JUMPDEST JUMPDEST DUP3 DUP3 SUB SWAP1 POP SWAP3 SWAP2 POP POP JUMP JUMPDEST PUSH1 0x0 PUSH2 0x646 DUP3 PUSH2 0x679 JUMP JUMPDEST SWAP2 POP PUSH2 0x651 DUP4 PUSH2 0x679 JUMP JUMPDEST SWAP3 POP DUP3 DUP3 LT ISZERO PUSH2 0x664 JUMPI PUSH2 0x663 PUSH2 0x683 JUMP JUMPDEST JUMPDEST DUP3 DUP3 SUB SWAP1 POP SWAP3 SWAP2 POP POP JUMP JUMPDEST PUSH1 0x0 DUP2 SWAP1 POP SWAP2 SWAP1 POP JUMP JUMPDEST PUSH1 0x0 DUP2 SWAP1 POP SWAP2 SWAP1 POP JUMP JUMPDEST PUSH32 0x4E487B7100000000000000000000000000000000000000000000000000000000 PUSH1 0x0 MSTORE PUSH1 0x11 PUSH1 0x4 MSTORE PUSH1 0x24 PUSH1 0x0 REVERT JUMPDEST PUSH32 0x4E487B7100000000000000000000000000000000000000000000000000000000 PUSH1 0x0 MSTORE PUSH1 0x12 PUSH1 0x4 MSTORE PUSH1 0x24 PUSH1 0x0 REVERT JUMPDEST PUSH1 0x0 DUP1 REVERT JUMPDEST PUSH2 0x6EF DUP2 PUSH2 0x66F JUMP JUMPDEST DUP2 EQ PUSH2 0x6FA JUMPI PUSH1 0x0 DUP1 REVERT JUMPDEST POP JUMP JUMPDEST PUSH2 0x706 DUP2 PUSH2 0x679 JUMP JUMPDEST DUP2 EQ PUSH2 0x711 JUMPI PUSH1 0x0 DUP1 REVERT JUMPDEST POP JUMP INVALID LOG2 PUSH5 0x6970667358 0x22 SLT KECCAK256 GASPRICE EQ 0xCE ADDRESS 0xC6 0xCE NOT BLOCKHASH DUP7 JUMPI PUSH2 0x3102 CALL CALLDATALOAD SWAP1 PUSH31 0x187581C9F2C4A85AFCEC458A6F9B0464736F6C634300080700330000000000 "
				},
				"gasEstimates": {
					"creation": {
						"codeDepositCost": "373200",
						"executionCost": "411",
						"totalCost": "373611"
					},
					"external": {
						"a()": "2452",
						"b()": "2451",
						"division(int256,int256)": "infinite",
						"factorial(uint256)": "infinite",
						"multiplicacion(int256,int256)": "infinite",
						"resta(int256,int256)": "infinite",
						"suma(int256,int256)": "infinite"
					},
					"internal": {
						"cuadrado(int256)": "infinite",
						"raizCuadrada(int128)": "infinite",
						"raizCuadradaUnsigned(uint256)": "infinite",
						"valorAbsoluto(int256)": "infinite"
					}
				},
				"methodIdentifiers": {
					"a()": "0dbe671f",
					"b()": "4df7e3d0",
					"division(int256,int256)": "09b7cdda",
					"factorial(uint256)": "83714834",
					"multiplicacion(int256,int256)": "187983bf",
					"resta(int256,int256)": "4c627bad",
					"suma(int256,int256)": "8f8a0d19"
				}
			},
			"storageLayout": {
				"storage": [
					{
						"astId": 3,
						"contract": "Documents/GitHub/SOLIDITY-REMIX/5ef069451e67668750287d64bc5f8bae/calculadora.sol:Calculadora",
						"label": "a",
						"offset": 0,
						"slot": "0",
						"type": "t_int256"
					},
					{
						"astId": 5,
						"contract": "Documents/GitHub/SOLIDITY-REMIX/5ef069451e67668750287d64bc5f8bae/calculadora.sol:Calculadora",
						"label": "b",
						"offset": 0,
						"slot": "1",
						"type": "t_int256"
					}
				],
				"types": {
					"t_int256": {
						"encoding": "inplace",
						"label": "int256",
						"numberOfBytes": "32"
					}
				}
			},
			"userdoc": {
				"kind": "user",
				"methods": {},
				"version": 1
			}
		}
	}
}