{
	"Documents/GitHub/SOLIDITY-REMIX/5ef069451e67668750287d64bc5f8bae/calculadora.sol": {
		"Calculadora": {
			"abi": [
				{
					"inputs": [
						{
							"internalType": "int256",
							"name": "a",
							"type": "int256"
						},
						{
							"internalType": "int256",
							"name": "b",
							"type": "int256"
						}
					],
					"name": "division",
					"outputs": [
						{
							"internalType": "int256",
							"name": "",
							"type": "int256"
						}
					],
					"stateMutability": "view",
					"type": "function"
				},
				{
					"inputs": [
						{
							"internalType": "int256",
							"name": "a",
							"type": "int256"
						}
					],
					"name": "factorial",
					"outputs": [
						{
							"internalType": "int256",
							"name": "",
							"type": "int256"
						}
					],
					"stateMutability": "view",
					"type": "function"
				},
				{
					"inputs": [
						{
							"internalType": "int256",
							"name": "a",
							"type": "int256"
						},
						{
							"internalType": "int256",
							"name": "b",
							"type": "int256"
						}
					],
					"name": "multiplicacion",
					"outputs": [
						{
							"internalType": "int256",
							"name": "",
							"type": "int256"
						}
					],
					"stateMutability": "view",
					"type": "function"
				},
				{
					"inputs": [
						{
							"internalType": "int256",
							"name": "a",
							"type": "int256"
						},
						{
							"internalType": "int256",
							"name": "b",
							"type": "int256"
						}
					],
					"name": "resta",
					"outputs": [
						{
							"internalType": "int256",
							"name": "",
							"type": "int256"
						}
					],
					"stateMutability": "view",
					"type": "function"
				},
				{
					"inputs": [
						{
							"internalType": "int256",
							"name": "a",
							"type": "int256"
						},
						{
							"internalType": "int256",
							"name": "b",
							"type": "int256"
						}
					],
					"name": "suma",
					"outputs": [
						{
							"internalType": "int256",
							"name": "",
							"type": "int256"
						}
					],
					"stateMutability": "view",
					"type": "function"
				}
			],
			"devdoc": {
				"kind": "dev",
				"methods": {},
				"version": 1
			},
			"evm": {
				"assembly": "    /* \"Documents/GitHub/SOLIDITY-REMIX/5ef069451e67668750287d64bc5f8bae/calculadora.sol\":94:873  contract Calculadora {\r... */\n  mstore(0x40, 0x80)\n  callvalue\n  dup1\n  iszero\n  tag_1\n  jumpi\n  0x00\n  dup1\n  revert\ntag_1:\n  pop\n  dataSize(sub_0)\n  dup1\n  dataOffset(sub_0)\n  0x00\n  codecopy\n  0x00\n  return\nstop\n\nsub_0: assembly {\n        /* \"Documents/GitHub/SOLIDITY-REMIX/5ef069451e67668750287d64bc5f8bae/calculadora.sol\":94:873  contract Calculadora {\r... */\n      mstore(0x40, 0x80)\n      callvalue\n      dup1\n      iszero\n      tag_1\n      jumpi\n      0x00\n      dup1\n      revert\n    tag_1:\n      pop\n      jumpi(tag_2, lt(calldatasize, 0x04))\n      shr(0xe0, calldataload(0x00))\n      dup1\n      0x09b7cdda\n      eq\n      tag_3\n      jumpi\n      dup1\n      0x187983bf\n      eq\n      tag_4\n      jumpi\n      dup1\n      0x4c627bad\n      eq\n      tag_5\n      jumpi\n      dup1\n      0x5ad78e8a\n      eq\n      tag_6\n      jumpi\n      dup1\n      0x8f8a0d19\n      eq\n      tag_7\n      jumpi\n    tag_2:\n      0x00\n      dup1\n      revert\n        /* \"Documents/GitHub/SOLIDITY-REMIX/5ef069451e67668750287d64bc5f8bae/calculadora.sol\":460:554  function division(int a,int b) public view returns (int){\r... */\n    tag_3:\n      tag_8\n      0x04\n      dup1\n      calldatasize\n      sub\n      dup2\n      add\n      swap1\n      tag_9\n      swap2\n      swap1\n      tag_10\n      jump\t// in\n    tag_9:\n      tag_11\n      jump\t// in\n    tag_8:\n      mload(0x40)\n      tag_12\n      swap2\n      swap1\n      tag_13\n      jump\t// in\n    tag_12:\n      mload(0x40)\n      dup1\n      swap2\n      sub\n      swap1\n      return\n        /* \"Documents/GitHub/SOLIDITY-REMIX/5ef069451e67668750287d64bc5f8bae/calculadora.sol\":346:452  function multiplicacion(int a, int b) public view  returns (int){\r... */\n    tag_4:\n      tag_14\n      0x04\n      dup1\n      calldatasize\n      sub\n      dup2\n      add\n      swap1\n      tag_15\n      swap2\n      swap1\n      tag_10\n      jump\t// in\n    tag_15:\n      tag_16\n      jump\t// in\n    tag_14:\n      mload(0x40)\n      tag_17\n      swap2\n      swap1\n      tag_13\n      jump\t// in\n    tag_17:\n      mload(0x40)\n      dup1\n      swap2\n      sub\n      swap1\n      return\n        /* \"Documents/GitHub/SOLIDITY-REMIX/5ef069451e67668750287d64bc5f8bae/calculadora.sol\":247:338  function resta(int a, int b) public view returns (int){\r... */\n    tag_5:\n      tag_18\n      0x04\n      dup1\n      calldatasize\n      sub\n      dup2\n      add\n      swap1\n      tag_19\n      swap2\n      swap1\n      tag_10\n      jump\t// in\n    tag_19:\n      tag_20\n      jump\t// in\n    tag_18:\n      mload(0x40)\n      tag_21\n      swap2\n      swap1\n      tag_13\n      jump\t// in\n    tag_21:\n      mload(0x40)\n      dup1\n      swap2\n      sub\n      swap1\n      return\n        /* \"Documents/GitHub/SOLIDITY-REMIX/5ef069451e67668750287d64bc5f8bae/calculadora.sol\":562:631  function factorial(int a) public view returns (int){\r... */\n    tag_6:\n      tag_22\n      0x04\n      dup1\n      calldatasize\n      sub\n      dup2\n      add\n      swap1\n      tag_23\n      swap2\n      swap1\n      tag_24\n      jump\t// in\n    tag_23:\n      tag_25\n      jump\t// in\n    tag_22:\n      mload(0x40)\n      tag_26\n      swap2\n      swap1\n      tag_13\n      jump\t// in\n    tag_26:\n      mload(0x40)\n      dup1\n      swap2\n      sub\n      swap1\n      return\n        /* \"Documents/GitHub/SOLIDITY-REMIX/5ef069451e67668750287d64bc5f8bae/calculadora.sol\":150:239  function suma(int a, int b) public view returns (int){\r... */\n    tag_7:\n      tag_27\n      0x04\n      dup1\n      calldatasize\n      sub\n      dup2\n      add\n      swap1\n      tag_28\n      swap2\n      swap1\n      tag_10\n      jump\t// in\n    tag_28:\n      tag_29\n      jump\t// in\n    tag_27:\n      mload(0x40)\n      tag_30\n      swap2\n      swap1\n      tag_13\n      jump\t// in\n    tag_30:\n      mload(0x40)\n      dup1\n      swap2\n      sub\n      swap1\n      return\n        /* \"Documents/GitHub/SOLIDITY-REMIX/5ef069451e67668750287d64bc5f8bae/calculadora.sol\":460:554  function division(int a,int b) public view returns (int){\r... */\n    tag_11:\n        /* \"Documents/GitHub/SOLIDITY-REMIX/5ef069451e67668750287d64bc5f8bae/calculadora.sol\":512:515  int */\n      0x00\n        /* \"Documents/GitHub/SOLIDITY-REMIX/5ef069451e67668750287d64bc5f8bae/calculadora.sol\":534:546  a.dividir(b) */\n      tag_32\n        /* \"Documents/GitHub/SOLIDITY-REMIX/5ef069451e67668750287d64bc5f8bae/calculadora.sol\":544:545  b */\n      dup3\n        /* \"Documents/GitHub/SOLIDITY-REMIX/5ef069451e67668750287d64bc5f8bae/calculadora.sol\":534:535  a */\n      dup5\n        /* \"Documents/GitHub/SOLIDITY-REMIX/5ef069451e67668750287d64bc5f8bae/calculadora.sol\":534:543  a.dividir */\n      tag_33\n      swap1\n        /* \"Documents/GitHub/SOLIDITY-REMIX/5ef069451e67668750287d64bc5f8bae/calculadora.sol\":534:546  a.dividir(b) */\n      swap2\n      swap1\n      0xffffffff\n      and\n      jump\t// in\n    tag_32:\n        /* \"Documents/GitHub/SOLIDITY-REMIX/5ef069451e67668750287d64bc5f8bae/calculadora.sol\":527:546  return a.dividir(b) */\n      swap1\n      pop\n        /* \"Documents/GitHub/SOLIDITY-REMIX/5ef069451e67668750287d64bc5f8bae/calculadora.sol\":460:554  function division(int a,int b) public view returns (int){\r... */\n      swap3\n      swap2\n      pop\n      pop\n      jump\t// out\n        /* \"Documents/GitHub/SOLIDITY-REMIX/5ef069451e67668750287d64bc5f8bae/calculadora.sol\":346:452  function multiplicacion(int a, int b) public view  returns (int){\r... */\n    tag_16:\n        /* \"Documents/GitHub/SOLIDITY-REMIX/5ef069451e67668750287d64bc5f8bae/calculadora.sol\":406:409  int */\n      0x00\n        /* \"Documents/GitHub/SOLIDITY-REMIX/5ef069451e67668750287d64bc5f8bae/calculadora.sol\":428:444  a.multiplicar(b) */\n      tag_35\n        /* \"Documents/GitHub/SOLIDITY-REMIX/5ef069451e67668750287d64bc5f8bae/calculadora.sol\":442:443  b */\n      dup3\n        /* \"Documents/GitHub/SOLIDITY-REMIX/5ef069451e67668750287d64bc5f8bae/calculadora.sol\":428:429  a */\n      dup5\n        /* \"Documents/GitHub/SOLIDITY-REMIX/5ef069451e67668750287d64bc5f8bae/calculadora.sol\":428:441  a.multiplicar */\n      tag_36\n      swap1\n        /* \"Documents/GitHub/SOLIDITY-REMIX/5ef069451e67668750287d64bc5f8bae/calculadora.sol\":428:444  a.multiplicar(b) */\n      swap2\n      swap1\n      0xffffffff\n      and\n      jump\t// in\n    tag_35:\n        /* \"Documents/GitHub/SOLIDITY-REMIX/5ef069451e67668750287d64bc5f8bae/calculadora.sol\":421:444  return a.multiplicar(b) */\n      swap1\n      pop\n        /* \"Documents/GitHub/SOLIDITY-REMIX/5ef069451e67668750287d64bc5f8bae/calculadora.sol\":346:452  function multiplicacion(int a, int b) public view  returns (int){\r... */\n      swap3\n      swap2\n      pop\n      pop\n      jump\t// out\n        /* \"Documents/GitHub/SOLIDITY-REMIX/5ef069451e67668750287d64bc5f8bae/calculadora.sol\":247:338  function resta(int a, int b) public view returns (int){\r... */\n    tag_20:\n        /* \"Documents/GitHub/SOLIDITY-REMIX/5ef069451e67668750287d64bc5f8bae/calculadora.sol\":297:300  int */\n      0x00\n        /* \"Documents/GitHub/SOLIDITY-REMIX/5ef069451e67668750287d64bc5f8bae/calculadora.sol\":319:330  a.restar(b) */\n      tag_38\n        /* \"Documents/GitHub/SOLIDITY-REMIX/5ef069451e67668750287d64bc5f8bae/calculadora.sol\":328:329  b */\n      dup3\n        /* \"Documents/GitHub/SOLIDITY-REMIX/5ef069451e67668750287d64bc5f8bae/calculadora.sol\":319:320  a */\n      dup5\n        /* \"Documents/GitHub/SOLIDITY-REMIX/5ef069451e67668750287d64bc5f8bae/calculadora.sol\":319:327  a.restar */\n      tag_39\n      swap1\n        /* \"Documents/GitHub/SOLIDITY-REMIX/5ef069451e67668750287d64bc5f8bae/calculadora.sol\":319:330  a.restar(b) */\n      swap2\n      swap1\n      0xffffffff\n      and\n      jump\t// in\n    tag_38:\n        /* \"Documents/GitHub/SOLIDITY-REMIX/5ef069451e67668750287d64bc5f8bae/calculadora.sol\":312:330  return a.restar(b) */\n      swap1\n      pop\n        /* \"Documents/GitHub/SOLIDITY-REMIX/5ef069451e67668750287d64bc5f8bae/calculadora.sol\":247:338  function resta(int a, int b) public view returns (int){\r... */\n      swap3\n      swap2\n      pop\n      pop\n      jump\t// out\n        /* \"Documents/GitHub/SOLIDITY-REMIX/5ef069451e67668750287d64bc5f8bae/calculadora.sol\":562:631  function factorial(int a) public view returns (int){\r... */\n    tag_25:\n        /* \"Documents/GitHub/SOLIDITY-REMIX/5ef069451e67668750287d64bc5f8bae/calculadora.sol\":609:612  int */\n      0x00\n        /* \"Documents/GitHub/SOLIDITY-REMIX/5ef069451e67668750287d64bc5f8bae/calculadora.sol\":562:631  function factorial(int a) public view returns (int){\r... */\n      swap2\n      swap1\n      pop\n      jump\t// out\n        /* \"Documents/GitHub/SOLIDITY-REMIX/5ef069451e67668750287d64bc5f8bae/calculadora.sol\":150:239  function suma(int a, int b) public view returns (int){\r... */\n    tag_29:\n        /* \"Documents/GitHub/SOLIDITY-REMIX/5ef069451e67668750287d64bc5f8bae/calculadora.sol\":199:202  int */\n      0x00\n        /* \"Documents/GitHub/SOLIDITY-REMIX/5ef069451e67668750287d64bc5f8bae/calculadora.sol\":221:231  a.sumar(b) */\n      tag_42\n        /* \"Documents/GitHub/SOLIDITY-REMIX/5ef069451e67668750287d64bc5f8bae/calculadora.sol\":229:230  b */\n      dup3\n        /* \"Documents/GitHub/SOLIDITY-REMIX/5ef069451e67668750287d64bc5f8bae/calculadora.sol\":221:222  a */\n      dup5\n        /* \"Documents/GitHub/SOLIDITY-REMIX/5ef069451e67668750287d64bc5f8bae/calculadora.sol\":221:228  a.sumar */\n      tag_43\n      swap1\n        /* \"Documents/GitHub/SOLIDITY-REMIX/5ef069451e67668750287d64bc5f8bae/calculadora.sol\":221:231  a.sumar(b) */\n      swap2\n      swap1\n      0xffffffff\n      and\n      jump\t// in\n    tag_42:\n        /* \"Documents/GitHub/SOLIDITY-REMIX/5ef069451e67668750287d64bc5f8bae/calculadora.sol\":214:231  return a.sumar(b) */\n      swap1\n      pop\n        /* \"Documents/GitHub/SOLIDITY-REMIX/5ef069451e67668750287d64bc5f8bae/calculadora.sol\":150:239  function suma(int a, int b) public view returns (int){\r... */\n      swap3\n      swap2\n      pop\n      pop\n      jump\t// out\n        /* \"Documents/GitHub/SOLIDITY-REMIX/5ef069451e67668750287d64bc5f8bae/libmates.sol\":471:565  function dividir(int _a,int _b) internal pure returns(int) {\r... */\n    tag_33:\n        /* \"Documents/GitHub/SOLIDITY-REMIX/5ef069451e67668750287d64bc5f8bae/libmates.sol\":525:528  int */\n      0x00\n        /* \"Documents/GitHub/SOLIDITY-REMIX/5ef069451e67668750287d64bc5f8bae/libmates.sol\":554:556  _b */\n      dup2\n        /* \"Documents/GitHub/SOLIDITY-REMIX/5ef069451e67668750287d64bc5f8bae/libmates.sol\":549:551  _a */\n      dup4\n        /* \"Documents/GitHub/SOLIDITY-REMIX/5ef069451e67668750287d64bc5f8bae/libmates.sol\":549:556  _a / _b */\n      tag_45\n      swap2\n      swap1\n      tag_46\n      jump\t// in\n    tag_45:\n        /* \"Documents/GitHub/SOLIDITY-REMIX/5ef069451e67668750287d64bc5f8bae/libmates.sol\":541:557  return (_a / _b) */\n      swap1\n      pop\n        /* \"Documents/GitHub/SOLIDITY-REMIX/5ef069451e67668750287d64bc5f8bae/libmates.sol\":471:565  function dividir(int _a,int _b) internal pure returns(int) {\r... */\n      swap3\n      swap2\n      pop\n      pop\n      jump\t// out\n        /* \"Documents/GitHub/SOLIDITY-REMIX/5ef069451e67668750287d64bc5f8bae/libmates.sol\":365:463  function multiplicar(int _a,int _b) internal pure returns(int) {\r... */\n    tag_36:\n        /* \"Documents/GitHub/SOLIDITY-REMIX/5ef069451e67668750287d64bc5f8bae/libmates.sol\":423:426  int */\n      0x00\n        /* \"Documents/GitHub/SOLIDITY-REMIX/5ef069451e67668750287d64bc5f8bae/libmates.sol\":452:454  _b */\n      dup2\n        /* \"Documents/GitHub/SOLIDITY-REMIX/5ef069451e67668750287d64bc5f8bae/libmates.sol\":447:449  _a */\n      dup4\n        /* \"Documents/GitHub/SOLIDITY-REMIX/5ef069451e67668750287d64bc5f8bae/libmates.sol\":447:454  _a * _b */\n      tag_48\n      swap2\n      swap1\n      tag_49\n      jump\t// in\n    tag_48:\n        /* \"Documents/GitHub/SOLIDITY-REMIX/5ef069451e67668750287d64bc5f8bae/libmates.sol\":439:455  return (_a * _b) */\n      swap1\n      pop\n        /* \"Documents/GitHub/SOLIDITY-REMIX/5ef069451e67668750287d64bc5f8bae/libmates.sol\":365:463  function multiplicar(int _a,int _b) internal pure returns(int) {\r... */\n      swap3\n      swap2\n      pop\n      pop\n      jump\t// out\n        /* \"Documents/GitHub/SOLIDITY-REMIX/5ef069451e67668750287d64bc5f8bae/libmates.sol\":264:357  function restar(int _a,int _b) internal pure returns(int) {\r... */\n    tag_39:\n        /* \"Documents/GitHub/SOLIDITY-REMIX/5ef069451e67668750287d64bc5f8bae/libmates.sol\":317:320  int */\n      0x00\n        /* \"Documents/GitHub/SOLIDITY-REMIX/5ef069451e67668750287d64bc5f8bae/libmates.sol\":346:348  _b */\n      dup2\n        /* \"Documents/GitHub/SOLIDITY-REMIX/5ef069451e67668750287d64bc5f8bae/libmates.sol\":341:343  _a */\n      dup4\n        /* \"Documents/GitHub/SOLIDITY-REMIX/5ef069451e67668750287d64bc5f8bae/libmates.sol\":341:348  _a - _b */\n      tag_51\n      swap2\n      swap1\n      tag_52\n      jump\t// in\n    tag_51:\n        /* \"Documents/GitHub/SOLIDITY-REMIX/5ef069451e67668750287d64bc5f8bae/libmates.sol\":333:349  return (_a - _b) */\n      swap1\n      pop\n        /* \"Documents/GitHub/SOLIDITY-REMIX/5ef069451e67668750287d64bc5f8bae/libmates.sol\":264:357  function restar(int _a,int _b) internal pure returns(int) {\r... */\n      swap3\n      swap2\n      pop\n      pop\n      jump\t// out\n        /* \"Documents/GitHub/SOLIDITY-REMIX/5ef069451e67668750287d64bc5f8bae/libmates.sol\":164:256  function sumar(int _a,int _b) internal pure returns(int) {\r... */\n    tag_43:\n        /* \"Documents/GitHub/SOLIDITY-REMIX/5ef069451e67668750287d64bc5f8bae/libmates.sol\":216:219  int */\n      0x00\n        /* \"Documents/GitHub/SOLIDITY-REMIX/5ef069451e67668750287d64bc5f8bae/libmates.sol\":245:247  _b */\n      dup2\n        /* \"Documents/GitHub/SOLIDITY-REMIX/5ef069451e67668750287d64bc5f8bae/libmates.sol\":240:242  _a */\n      dup4\n        /* \"Documents/GitHub/SOLIDITY-REMIX/5ef069451e67668750287d64bc5f8bae/libmates.sol\":240:247  _a + _b */\n      tag_54\n      swap2\n      swap1\n      tag_55\n      jump\t// in\n    tag_54:\n        /* \"Documents/GitHub/SOLIDITY-REMIX/5ef069451e67668750287d64bc5f8bae/libmates.sol\":232:248  return (_a + _b) */\n      swap1\n      pop\n        /* \"Documents/GitHub/SOLIDITY-REMIX/5ef069451e67668750287d64bc5f8bae/libmates.sol\":164:256  function sumar(int _a,int _b) internal pure returns(int) {\r... */\n      swap3\n      swap2\n      pop\n      pop\n      jump\t// out\n        /* \"#utility.yul\":7:144   */\n    tag_57:\n        /* \"#utility.yul\":52:57   */\n      0x00\n        /* \"#utility.yul\":90:96   */\n      dup2\n        /* \"#utility.yul\":77:97   */\n      calldataload\n        /* \"#utility.yul\":68:97   */\n      swap1\n      pop\n        /* \"#utility.yul\":106:138   */\n      tag_59\n        /* \"#utility.yul\":132:137   */\n      dup2\n        /* \"#utility.yul\":106:138   */\n      tag_60\n      jump\t// in\n    tag_59:\n        /* \"#utility.yul\":7:144   */\n      swap3\n      swap2\n      pop\n      pop\n      jump\t// out\n        /* \"#utility.yul\":150:477   */\n    tag_24:\n        /* \"#utility.yul\":208:214   */\n      0x00\n        /* \"#utility.yul\":257:259   */\n      0x20\n        /* \"#utility.yul\":245:254   */\n      dup3\n        /* \"#utility.yul\":236:243   */\n      dup5\n        /* \"#utility.yul\":232:255   */\n      sub\n        /* \"#utility.yul\":228:260   */\n      slt\n        /* \"#utility.yul\":225:344   */\n      iszero\n      tag_62\n      jumpi\n        /* \"#utility.yul\":263:342   */\n      tag_63\n      tag_64\n      jump\t// in\n    tag_63:\n        /* \"#utility.yul\":225:344   */\n    tag_62:\n        /* \"#utility.yul\":383:384   */\n      0x00\n        /* \"#utility.yul\":408:460   */\n      tag_65\n        /* \"#utility.yul\":452:459   */\n      dup5\n        /* \"#utility.yul\":443:449   */\n      dup3\n        /* \"#utility.yul\":432:441   */\n      dup6\n        /* \"#utility.yul\":428:450   */\n      add\n        /* \"#utility.yul\":408:460   */\n      tag_57\n      jump\t// in\n    tag_65:\n        /* \"#utility.yul\":398:460   */\n      swap2\n      pop\n        /* \"#utility.yul\":354:470   */\n      pop\n        /* \"#utility.yul\":150:477   */\n      swap3\n      swap2\n      pop\n      pop\n      jump\t// out\n        /* \"#utility.yul\":483:953   */\n    tag_10:\n        /* \"#utility.yul\":549:555   */\n      0x00\n        /* \"#utility.yul\":557:563   */\n      dup1\n        /* \"#utility.yul\":606:608   */\n      0x40\n        /* \"#utility.yul\":594:603   */\n      dup4\n        /* \"#utility.yul\":585:592   */\n      dup6\n        /* \"#utility.yul\":581:604   */\n      sub\n        /* \"#utility.yul\":577:609   */\n      slt\n        /* \"#utility.yul\":574:693   */\n      iszero\n      tag_67\n      jumpi\n        /* \"#utility.yul\":612:691   */\n      tag_68\n      tag_64\n      jump\t// in\n    tag_68:\n        /* \"#utility.yul\":574:693   */\n    tag_67:\n        /* \"#utility.yul\":732:733   */\n      0x00\n        /* \"#utility.yul\":757:809   */\n      tag_69\n        /* \"#utility.yul\":801:808   */\n      dup6\n        /* \"#utility.yul\":792:798   */\n      dup3\n        /* \"#utility.yul\":781:790   */\n      dup7\n        /* \"#utility.yul\":777:799   */\n      add\n        /* \"#utility.yul\":757:809   */\n      tag_57\n      jump\t// in\n    tag_69:\n        /* \"#utility.yul\":747:809   */\n      swap3\n      pop\n        /* \"#utility.yul\":703:819   */\n      pop\n        /* \"#utility.yul\":858:860   */\n      0x20\n        /* \"#utility.yul\":884:936   */\n      tag_70\n        /* \"#utility.yul\":928:935   */\n      dup6\n        /* \"#utility.yul\":919:925   */\n      dup3\n        /* \"#utility.yul\":908:917   */\n      dup7\n        /* \"#utility.yul\":904:926   */\n      add\n        /* \"#utility.yul\":884:936   */\n      tag_57\n      jump\t// in\n    tag_70:\n        /* \"#utility.yul\":874:936   */\n      swap2\n      pop\n        /* \"#utility.yul\":829:946   */\n      pop\n        /* \"#utility.yul\":483:953   */\n      swap3\n      pop\n      swap3\n      swap1\n      pop\n      jump\t// out\n        /* \"#utility.yul\":959:1074   */\n    tag_71:\n        /* \"#utility.yul\":1044:1067   */\n      tag_73\n        /* \"#utility.yul\":1061:1066   */\n      dup2\n        /* \"#utility.yul\":1044:1067   */\n      tag_74\n      jump\t// in\n    tag_73:\n        /* \"#utility.yul\":1039:1042   */\n      dup3\n        /* \"#utility.yul\":1032:1068   */\n      mstore\n        /* \"#utility.yul\":959:1074   */\n      pop\n      pop\n      jump\t// out\n        /* \"#utility.yul\":1080:1298   */\n    tag_13:\n        /* \"#utility.yul\":1171:1175   */\n      0x00\n        /* \"#utility.yul\":1209:1211   */\n      0x20\n        /* \"#utility.yul\":1198:1207   */\n      dup3\n        /* \"#utility.yul\":1194:1212   */\n      add\n        /* \"#utility.yul\":1186:1212   */\n      swap1\n      pop\n        /* \"#utility.yul\":1222:1291   */\n      tag_76\n        /* \"#utility.yul\":1288:1289   */\n      0x00\n        /* \"#utility.yul\":1277:1286   */\n      dup4\n        /* \"#utility.yul\":1273:1290   */\n      add\n        /* \"#utility.yul\":1264:1270   */\n      dup5\n        /* \"#utility.yul\":1222:1291   */\n      tag_71\n      jump\t// in\n    tag_76:\n        /* \"#utility.yul\":1080:1298   */\n      swap3\n      swap2\n      pop\n      pop\n      jump\t// out\n        /* \"#utility.yul\":1385:1910   */\n    tag_55:\n        /* \"#utility.yul\":1424:1427   */\n      0x00\n        /* \"#utility.yul\":1443:1462   */\n      tag_80\n        /* \"#utility.yul\":1460:1461   */\n      dup3\n        /* \"#utility.yul\":1443:1462   */\n      tag_74\n      jump\t// in\n    tag_80:\n        /* \"#utility.yul\":1438:1462   */\n      swap2\n      pop\n        /* \"#utility.yul\":1476:1495   */\n      tag_81\n        /* \"#utility.yul\":1493:1494   */\n      dup4\n        /* \"#utility.yul\":1476:1495   */\n      tag_74\n      jump\t// in\n    tag_81:\n        /* \"#utility.yul\":1471:1495   */\n      swap3\n      pop\n        /* \"#utility.yul\":1664:1665   */\n      dup2\n        /* \"#utility.yul\":1596:1662   */\n      0x7fffffffffffffffffffffffffffffffffffffffffffffffffffffffffffffff\n        /* \"#utility.yul\":1592:1666   */\n      sub\n        /* \"#utility.yul\":1589:1590   */\n      dup4\n        /* \"#utility.yul\":1585:1667   */\n      sgt\n        /* \"#utility.yul\":1580:1581   */\n      0x00\n        /* \"#utility.yul\":1577:1578   */\n      dup4\n        /* \"#utility.yul\":1573:1582   */\n      slt\n        /* \"#utility.yul\":1566:1583   */\n      iszero\n        /* \"#utility.yul\":1562:1668   */\n      and\n        /* \"#utility.yul\":1559:1691   */\n      iszero\n      tag_82\n      jumpi\n        /* \"#utility.yul\":1671:1689   */\n      tag_83\n      tag_84\n      jump\t// in\n    tag_83:\n        /* \"#utility.yul\":1559:1691   */\n    tag_82:\n        /* \"#utility.yul\":1851:1852   */\n      dup2\n        /* \"#utility.yul\":1783:1849   */\n      0x8000000000000000000000000000000000000000000000000000000000000000\n        /* \"#utility.yul\":1779:1853   */\n      sub\n        /* \"#utility.yul\":1776:1777   */\n      dup4\n        /* \"#utility.yul\":1772:1854   */\n      slt\n        /* \"#utility.yul\":1768:1769   */\n      0x00\n        /* \"#utility.yul\":1765:1766   */\n      dup4\n        /* \"#utility.yul\":1761:1770   */\n      slt\n        /* \"#utility.yul\":1757:1855   */\n      and\n        /* \"#utility.yul\":1754:1878   */\n      iszero\n      tag_85\n      jumpi\n        /* \"#utility.yul\":1858:1876   */\n      tag_86\n      tag_84\n      jump\t// in\n    tag_86:\n        /* \"#utility.yul\":1754:1878   */\n    tag_85:\n        /* \"#utility.yul\":1902:1903   */\n      dup3\n        /* \"#utility.yul\":1899:1900   */\n      dup3\n        /* \"#utility.yul\":1895:1904   */\n      add\n        /* \"#utility.yul\":1888:1904   */\n      swap1\n      pop\n        /* \"#utility.yul\":1385:1910   */\n      swap3\n      swap2\n      pop\n      pop\n      jump\t// out\n        /* \"#utility.yul\":1916:2301   */\n    tag_46:\n        /* \"#utility.yul\":1955:1956   */\n      0x00\n        /* \"#utility.yul\":1972:1991   */\n      tag_88\n        /* \"#utility.yul\":1989:1990   */\n      dup3\n        /* \"#utility.yul\":1972:1991   */\n      tag_74\n      jump\t// in\n    tag_88:\n        /* \"#utility.yul\":1967:1991   */\n      swap2\n      pop\n        /* \"#utility.yul\":2005:2024   */\n      tag_89\n        /* \"#utility.yul\":2022:2023   */\n      dup4\n        /* \"#utility.yul\":2005:2024   */\n      tag_74\n      jump\t// in\n    tag_89:\n        /* \"#utility.yul\":2000:2024   */\n      swap3\n      pop\n        /* \"#utility.yul\":2043:2044   */\n      dup3\n        /* \"#utility.yul\":2033:2068   */\n      tag_90\n      jumpi\n        /* \"#utility.yul\":2048:2066   */\n      tag_91\n      tag_92\n      jump\t// in\n    tag_91:\n        /* \"#utility.yul\":2033:2068   */\n    tag_90:\n        /* \"#utility.yul\":2234:2235   */\n      0x01\n        /* \"#utility.yul\":2231:2232   */\n      0x00\n        /* \"#utility.yul\":2227:2236   */\n      sub\n        /* \"#utility.yul\":2224:2225   */\n      dup4\n        /* \"#utility.yul\":2221:2237   */\n      eq\n        /* \"#utility.yul\":2140:2206   */\n      0x8000000000000000000000000000000000000000000000000000000000000000\n        /* \"#utility.yul\":2137:2138   */\n      dup4\n        /* \"#utility.yul\":2134:2207   */\n      eq\n        /* \"#utility.yul\":2117:2247   */\n      and\n        /* \"#utility.yul\":2114:2270   */\n      iszero\n      tag_93\n      jumpi\n        /* \"#utility.yul\":2250:2268   */\n      tag_94\n      tag_84\n      jump\t// in\n    tag_94:\n        /* \"#utility.yul\":2114:2270   */\n    tag_93:\n        /* \"#utility.yul\":2293:2294   */\n      dup3\n        /* \"#utility.yul\":2290:2291   */\n      dup3\n        /* \"#utility.yul\":2285:2295   */\n      sdiv\n        /* \"#utility.yul\":2280:2295   */\n      swap1\n      pop\n        /* \"#utility.yul\":1916:2301   */\n      swap3\n      swap2\n      pop\n      pop\n      jump\t// out\n        /* \"#utility.yul\":2307:3298   */\n    tag_49:\n        /* \"#utility.yul\":2346:2353   */\n      0x00\n        /* \"#utility.yul\":2369:2388   */\n      tag_96\n        /* \"#utility.yul\":2386:2387   */\n      dup3\n        /* \"#utility.yul\":2369:2388   */\n      tag_74\n      jump\t// in\n    tag_96:\n        /* \"#utility.yul\":2364:2388   */\n      swap2\n      pop\n        /* \"#utility.yul\":2402:2421   */\n      tag_97\n        /* \"#utility.yul\":2419:2420   */\n      dup4\n        /* \"#utility.yul\":2402:2421   */\n      tag_74\n      jump\t// in\n    tag_97:\n        /* \"#utility.yul\":2397:2421   */\n      swap3\n      pop\n        /* \"#utility.yul\":2603:2604   */\n      dup3\n        /* \"#utility.yul\":2535:2601   */\n      0x7fffffffffffffffffffffffffffffffffffffffffffffffffffffffffffffff\n        /* \"#utility.yul\":2531:2605   */\n      div\n        /* \"#utility.yul\":2528:2529   */\n      dup3\n        /* \"#utility.yul\":2525:2606   */\n      gt\n        /* \"#utility.yul\":2520:2521   */\n      0x00\n        /* \"#utility.yul\":2517:2518   */\n      dup5\n        /* \"#utility.yul\":2513:2522   */\n      sgt\n        /* \"#utility.yul\":2509:2510   */\n      0x00\n        /* \"#utility.yul\":2506:2507   */\n      dup5\n        /* \"#utility.yul\":2502:2511   */\n      sgt\n        /* \"#utility.yul\":2498:2523   */\n      and\n        /* \"#utility.yul\":2494:2607   */\n      and\n        /* \"#utility.yul\":2491:2630   */\n      iszero\n      tag_98\n      jumpi\n        /* \"#utility.yul\":2610:2628   */\n      tag_99\n      tag_84\n      jump\t// in\n    tag_99:\n        /* \"#utility.yul\":2491:2630   */\n    tag_98:\n        /* \"#utility.yul\":2814:2815   */\n      dup2\n        /* \"#utility.yul\":2746:2812   */\n      0x8000000000000000000000000000000000000000000000000000000000000000\n        /* \"#utility.yul\":2741:2816   */\n      sdiv\n        /* \"#utility.yul\":2738:2739   */\n      dup4\n        /* \"#utility.yul\":2734:2817   */\n      slt\n        /* \"#utility.yul\":2729:2730   */\n      0x00\n        /* \"#utility.yul\":2726:2727   */\n      dup5\n        /* \"#utility.yul\":2722:2731   */\n      slt\n        /* \"#utility.yul\":2718:2719   */\n      0x00\n        /* \"#utility.yul\":2715:2716   */\n      dup5\n        /* \"#utility.yul\":2711:2720   */\n      sgt\n        /* \"#utility.yul\":2707:2732   */\n      and\n        /* \"#utility.yul\":2703:2818   */\n      and\n        /* \"#utility.yul\":2700:2841   */\n      iszero\n      tag_100\n      jumpi\n        /* \"#utility.yul\":2821:2839   */\n      tag_101\n      tag_84\n      jump\t// in\n    tag_101:\n        /* \"#utility.yul\":2700:2841   */\n    tag_100:\n        /* \"#utility.yul\":3025:3026   */\n      dup3\n        /* \"#utility.yul\":2957:3023   */\n      0x8000000000000000000000000000000000000000000000000000000000000000\n        /* \"#utility.yul\":2952:3027   */\n      sdiv\n        /* \"#utility.yul\":2949:2950   */\n      dup3\n        /* \"#utility.yul\":2945:3028   */\n      slt\n        /* \"#utility.yul\":2940:2941   */\n      0x00\n        /* \"#utility.yul\":2937:2938   */\n      dup5\n        /* \"#utility.yul\":2933:2942   */\n      sgt\n        /* \"#utility.yul\":2929:2930   */\n      0x00\n        /* \"#utility.yul\":2926:2927   */\n      dup5\n        /* \"#utility.yul\":2922:2931   */\n      slt\n        /* \"#utility.yul\":2918:2943   */\n      and\n        /* \"#utility.yul\":2914:3029   */\n      and\n        /* \"#utility.yul\":2911:3052   */\n      iszero\n      tag_102\n      jumpi\n        /* \"#utility.yul\":3032:3050   */\n      tag_103\n      tag_84\n      jump\t// in\n    tag_103:\n        /* \"#utility.yul\":2911:3052   */\n    tag_102:\n        /* \"#utility.yul\":3235:3236   */\n      dup3\n        /* \"#utility.yul\":3167:3233   */\n      0x7fffffffffffffffffffffffffffffffffffffffffffffffffffffffffffffff\n        /* \"#utility.yul\":3162:3237   */\n      sdiv\n        /* \"#utility.yul\":3159:3160   */\n      dup3\n        /* \"#utility.yul\":3155:3238   */\n      slt\n        /* \"#utility.yul\":3150:3151   */\n      0x00\n        /* \"#utility.yul\":3147:3148   */\n      dup5\n        /* \"#utility.yul\":3143:3152   */\n      slt\n        /* \"#utility.yul\":3139:3140   */\n      0x00\n        /* \"#utility.yul\":3136:3137   */\n      dup5\n        /* \"#utility.yul\":3132:3141   */\n      slt\n        /* \"#utility.yul\":3128:3153   */\n      and\n        /* \"#utility.yul\":3124:3239   */\n      and\n        /* \"#utility.yul\":3121:3262   */\n      iszero\n      tag_104\n      jumpi\n        /* \"#utility.yul\":3242:3260   */\n      tag_105\n      tag_84\n      jump\t// in\n    tag_105:\n        /* \"#utility.yul\":3121:3262   */\n    tag_104:\n        /* \"#utility.yul\":3290:3291   */\n      dup3\n        /* \"#utility.yul\":3287:3288   */\n      dup3\n        /* \"#utility.yul\":3283:3292   */\n      mul\n        /* \"#utility.yul\":3272:3292   */\n      swap1\n      pop\n        /* \"#utility.yul\":2307:3298   */\n      swap3\n      swap2\n      pop\n      pop\n      jump\t// out\n        /* \"#utility.yul\":3304:3831   */\n    tag_52:\n        /* \"#utility.yul\":3343:3347   */\n      0x00\n        /* \"#utility.yul\":3363:3382   */\n      tag_107\n        /* \"#utility.yul\":3380:3381   */\n      dup3\n        /* \"#utility.yul\":3363:3382   */\n      tag_74\n      jump\t// in\n    tag_107:\n        /* \"#utility.yul\":3358:3382   */\n      swap2\n      pop\n        /* \"#utility.yul\":3396:3415   */\n      tag_108\n        /* \"#utility.yul\":3413:3414   */\n      dup4\n        /* \"#utility.yul\":3396:3415   */\n      tag_74\n      jump\t// in\n    tag_108:\n        /* \"#utility.yul\":3391:3415   */\n      swap3\n      pop\n        /* \"#utility.yul\":3585:3586   */\n      dup3\n        /* \"#utility.yul\":3517:3583   */\n      0x8000000000000000000000000000000000000000000000000000000000000000\n        /* \"#utility.yul\":3513:3587   */\n      add\n        /* \"#utility.yul\":3510:3511   */\n      dup3\n        /* \"#utility.yul\":3506:3588   */\n      slt\n        /* \"#utility.yul\":3501:3502   */\n      0x00\n        /* \"#utility.yul\":3498:3499   */\n      dup5\n        /* \"#utility.yul\":3494:3503   */\n      slt\n        /* \"#utility.yul\":3487:3504   */\n      iszero\n        /* \"#utility.yul\":3483:3589   */\n      and\n        /* \"#utility.yul\":3480:3612   */\n      iszero\n      tag_109\n      jumpi\n        /* \"#utility.yul\":3592:3610   */\n      tag_110\n      tag_84\n      jump\t// in\n    tag_110:\n        /* \"#utility.yul\":3480:3612   */\n    tag_109:\n        /* \"#utility.yul\":3771:3772   */\n      dup3\n        /* \"#utility.yul\":3703:3769   */\n      0x7fffffffffffffffffffffffffffffffffffffffffffffffffffffffffffffff\n        /* \"#utility.yul\":3699:3773   */\n      add\n        /* \"#utility.yul\":3696:3697   */\n      dup3\n        /* \"#utility.yul\":3692:3774   */\n      sgt\n        /* \"#utility.yul\":3688:3689   */\n      0x00\n        /* \"#utility.yul\":3685:3686   */\n      dup5\n        /* \"#utility.yul\":3681:3690   */\n      slt\n        /* \"#utility.yul\":3677:3775   */\n      and\n        /* \"#utility.yul\":3674:3798   */\n      iszero\n      tag_111\n      jumpi\n        /* \"#utility.yul\":3778:3796   */\n      tag_112\n      tag_84\n      jump\t// in\n    tag_112:\n        /* \"#utility.yul\":3674:3798   */\n    tag_111:\n        /* \"#utility.yul\":3823:3824   */\n      dup3\n        /* \"#utility.yul\":3820:3821   */\n      dup3\n        /* \"#utility.yul\":3816:3825   */\n      sub\n        /* \"#utility.yul\":3808:3825   */\n      swap1\n      pop\n        /* \"#utility.yul\":3304:3831   */\n      swap3\n      swap2\n      pop\n      pop\n      jump\t// out\n        /* \"#utility.yul\":3837:3913   */\n    tag_74:\n        /* \"#utility.yul\":3873:3880   */\n      0x00\n        /* \"#utility.yul\":3902:3907   */\n      dup2\n        /* \"#utility.yul\":3891:3907   */\n      swap1\n      pop\n        /* \"#utility.yul\":3837:3913   */\n      swap2\n      swap1\n      pop\n      jump\t// out\n        /* \"#utility.yul\":3919:4099   */\n    tag_84:\n        /* \"#utility.yul\":3967:4044   */\n      0x4e487b7100000000000000000000000000000000000000000000000000000000\n        /* \"#utility.yul\":3964:3965   */\n      0x00\n        /* \"#utility.yul\":3957:4045   */\n      mstore\n        /* \"#utility.yul\":4064:4068   */\n      0x11\n        /* \"#utility.yul\":4061:4062   */\n      0x04\n        /* \"#utility.yul\":4054:4069   */\n      mstore\n        /* \"#utility.yul\":4088:4092   */\n      0x24\n        /* \"#utility.yul\":4085:4086   */\n      0x00\n        /* \"#utility.yul\":4078:4093   */\n      revert\n        /* \"#utility.yul\":4105:4285   */\n    tag_92:\n        /* \"#utility.yul\":4153:4230   */\n      0x4e487b7100000000000000000000000000000000000000000000000000000000\n        /* \"#utility.yul\":4150:4151   */\n      0x00\n        /* \"#utility.yul\":4143:4231   */\n      mstore\n        /* \"#utility.yul\":4250:4254   */\n      0x12\n        /* \"#utility.yul\":4247:4248   */\n      0x04\n        /* \"#utility.yul\":4240:4255   */\n      mstore\n        /* \"#utility.yul\":4274:4278   */\n      0x24\n        /* \"#utility.yul\":4271:4272   */\n      0x00\n        /* \"#utility.yul\":4264:4279   */\n      revert\n        /* \"#utility.yul\":4414:4531   */\n    tag_64:\n        /* \"#utility.yul\":4523:4524   */\n      0x00\n        /* \"#utility.yul\":4520:4521   */\n      dup1\n        /* \"#utility.yul\":4513:4525   */\n      revert\n        /* \"#utility.yul\":4537:4657   */\n    tag_60:\n        /* \"#utility.yul\":4609:4632   */\n      tag_120\n        /* \"#utility.yul\":4626:4631   */\n      dup2\n        /* \"#utility.yul\":4609:4632   */\n      tag_74\n      jump\t// in\n    tag_120:\n        /* \"#utility.yul\":4602:4607   */\n      dup2\n        /* \"#utility.yul\":4599:4633   */\n      eq\n        /* \"#utility.yul\":4589:4651   */\n      tag_121\n      jumpi\n        /* \"#utility.yul\":4647:4648   */\n      0x00\n        /* \"#utility.yul\":4644:4645   */\n      dup1\n        /* \"#utility.yul\":4637:4649   */\n      revert\n        /* \"#utility.yul\":4589:4651   */\n    tag_121:\n        /* \"#utility.yul\":4537:4657   */\n      pop\n      jump\t// out\n\n    auxdata: 0xa2646970667358221220a07e8af9d43b578d02ab59958272b99c3641ad13f91ac54eb8957de0688a4c2a64736f6c63430008070033\n}\n",
				"bytecode": {
					"linkReferences": {},
					"object": "608060405234801561001057600080fd5b5061062e806100206000396000f3fe608060405234801561001057600080fd5b50600436106100575760003560e01c806309b7cdda1461005c578063187983bf1461008c5780634c627bad146100bc5780635ad78e8a146100ec5780638f8a0d191461011c575b600080fd5b61007660048036038101906100719190610261565b61014c565b60405161008391906102b0565b60405180910390f35b6100a660048036038101906100a19190610261565b610169565b6040516100b391906102b0565b60405180910390f35b6100d660048036038101906100d19190610261565b610186565b6040516100e391906102b0565b60405180910390f35b61010660048036038101906101019190610234565b6101a3565b60405161011391906102b0565b60405180910390f35b61013660048036038101906101319190610261565b6101aa565b60405161014391906102b0565b60405180910390f35b600061016182846101c790919063ffffffff16565b905092915050565b600061017e82846101dd90919063ffffffff16565b905092915050565b600061019b82846101f390919063ffffffff16565b905092915050565b6000919050565b60006101bf828461020990919063ffffffff16565b905092915050565b600081836101d5919061035f565b905092915050565b600081836101eb91906103c9565b905092915050565b6000818361020191906104e0565b905092915050565b6000818361021791906102cb565b905092915050565b60008135905061022e816105e1565b92915050565b60006020828403121561024a576102496105dc565b5b60006102588482850161021f565b91505092915050565b60008060408385031215610278576102776105dc565b5b60006102868582860161021f565b92505060206102978582860161021f565b9150509250929050565b6102aa81610574565b82525050565b60006020820190506102c560008301846102a1565b92915050565b60006102d682610574565b91506102e183610574565b9250817f7fffffffffffffffffffffffffffffffffffffffffffffffffffffffffffffff0383136000831215161561031c5761031b61057e565b5b817f80000000000000000000000000000000000000000000000000000000000000000383126000831216156103545761035361057e565b5b828201905092915050565b600061036a82610574565b915061037583610574565b925082610385576103846105ad565b5b600160000383147f8000000000000000000000000000000000000000000000000000000000000000831416156103be576103bd61057e565b5b828205905092915050565b60006103d482610574565b91506103df83610574565b9250827f7fffffffffffffffffffffffffffffffffffffffffffffffffffffffffffffff048211600084136000841316161561041e5761041d61057e565b5b817f8000000000000000000000000000000000000000000000000000000000000000058312600084126000841316161561045b5761045a61057e565b5b827f800000000000000000000000000000000000000000000000000000000000000005821260008413600084121616156104985761049761057e565b5b827f7fffffffffffffffffffffffffffffffffffffffffffffffffffffffffffffff05821260008412600084121616156104d5576104d461057e565b5b828202905092915050565b60006104eb82610574565b91506104f683610574565b9250827f8000000000000000000000000000000000000000000000000000000000000000018212600084121516156105315761053061057e565b5b827f7fffffffffffffffffffffffffffffffffffffffffffffffffffffffffffffff0182136000841216156105695761056861057e565b5b828203905092915050565b6000819050919050565b7f4e487b7100000000000000000000000000000000000000000000000000000000600052601160045260246000fd5b7f4e487b7100000000000000000000000000000000000000000000000000000000600052601260045260246000fd5b600080fd5b6105ea81610574565b81146105f557600080fd5b5056fea2646970667358221220a07e8af9d43b578d02ab59958272b99c3641ad13f91ac54eb8957de0688a4c2a64736f6c63430008070033",
					"opcodes": "PUSH1 0x80 PUSH1 0x40 MSTORE CALLVALUE DUP1 ISZERO PUSH2 0x10 JUMPI PUSH1 0x0 DUP1 REVERT JUMPDEST POP PUSH2 0x62E DUP1 PUSH2 0x20 PUSH1 0x0 CODECOPY PUSH1 0x0 RETURN INVALID PUSH1 0x80 PUSH1 0x40 MSTORE CALLVALUE DUP1 ISZERO PUSH2 0x10 JUMPI PUSH1 0x0 DUP1 REVERT JUMPDEST POP PUSH1 0x4 CALLDATASIZE LT PUSH2 0x57 JUMPI PUSH1 0x0 CALLDATALOAD PUSH1 0xE0 SHR DUP1 PUSH4 0x9B7CDDA EQ PUSH2 0x5C JUMPI DUP1 PUSH4 0x187983BF EQ PUSH2 0x8C JUMPI DUP1 PUSH4 0x4C627BAD EQ PUSH2 0xBC JUMPI DUP1 PUSH4 0x5AD78E8A EQ PUSH2 0xEC JUMPI DUP1 PUSH4 0x8F8A0D19 EQ PUSH2 0x11C JUMPI JUMPDEST PUSH1 0x0 DUP1 REVERT JUMPDEST PUSH2 0x76 PUSH1 0x4 DUP1 CALLDATASIZE SUB DUP2 ADD SWAP1 PUSH2 0x71 SWAP2 SWAP1 PUSH2 0x261 JUMP JUMPDEST PUSH2 0x14C JUMP JUMPDEST PUSH1 0x40 MLOAD PUSH2 0x83 SWAP2 SWAP1 PUSH2 0x2B0 JUMP JUMPDEST PUSH1 0x40 MLOAD DUP1 SWAP2 SUB SWAP1 RETURN JUMPDEST PUSH2 0xA6 PUSH1 0x4 DUP1 CALLDATASIZE SUB DUP2 ADD SWAP1 PUSH2 0xA1 SWAP2 SWAP1 PUSH2 0x261 JUMP JUMPDEST PUSH2 0x169 JUMP JUMPDEST PUSH1 0x40 MLOAD PUSH2 0xB3 SWAP2 SWAP1 PUSH2 0x2B0 JUMP JUMPDEST PUSH1 0x40 MLOAD DUP1 SWAP2 SUB SWAP1 RETURN JUMPDEST PUSH2 0xD6 PUSH1 0x4 DUP1 CALLDATASIZE SUB DUP2 ADD SWAP1 PUSH2 0xD1 SWAP2 SWAP1 PUSH2 0x261 JUMP JUMPDEST PUSH2 0x186 JUMP JUMPDEST PUSH1 0x40 MLOAD PUSH2 0xE3 SWAP2 SWAP1 PUSH2 0x2B0 JUMP JUMPDEST PUSH1 0x40 MLOAD DUP1 SWAP2 SUB SWAP1 RETURN JUMPDEST PUSH2 0x106 PUSH1 0x4 DUP1 CALLDATASIZE SUB DUP2 ADD SWAP1 PUSH2 0x101 SWAP2 SWAP1 PUSH2 0x234 JUMP JUMPDEST PUSH2 0x1A3 JUMP JUMPDEST PUSH1 0x40 MLOAD PUSH2 0x113 SWAP2 SWAP1 PUSH2 0x2B0 JUMP JUMPDEST PUSH1 0x40 MLOAD DUP1 SWAP2 SUB SWAP1 RETURN JUMPDEST PUSH2 0x136 PUSH1 0x4 DUP1 CALLDATASIZE SUB DUP2 ADD SWAP1 PUSH2 0x131 SWAP2 SWAP1 PUSH2 0x261 JUMP JUMPDEST PUSH2 0x1AA JUMP JUMPDEST PUSH1 0x40 MLOAD PUSH2 0x143 SWAP2 SWAP1 PUSH2 0x2B0 JUMP JUMPDEST PUSH1 0x40 MLOAD DUP1 SWAP2 SUB SWAP1 RETURN JUMPDEST PUSH1 0x0 PUSH2 0x161 DUP3 DUP5 PUSH2 0x1C7 SWAP1 SWAP2 SWAP1 PUSH4 0xFFFFFFFF AND JUMP JUMPDEST SWAP1 POP SWAP3 SWAP2 POP POP JUMP JUMPDEST PUSH1 0x0 PUSH2 0x17E DUP3 DUP5 PUSH2 0x1DD SWAP1 SWAP2 SWAP1 PUSH4 0xFFFFFFFF AND JUMP JUMPDEST SWAP1 POP SWAP3 SWAP2 POP POP JUMP JUMPDEST PUSH1 0x0 PUSH2 0x19B DUP3 DUP5 PUSH2 0x1F3 SWAP1 SWAP2 SWAP1 PUSH4 0xFFFFFFFF AND JUMP JUMPDEST SWAP1 POP SWAP3 SWAP2 POP POP JUMP JUMPDEST PUSH1 0x0 SWAP2 SWAP1 POP JUMP JUMPDEST PUSH1 0x0 PUSH2 0x1BF DUP3 DUP5 PUSH2 0x209 SWAP1 SWAP2 SWAP1 PUSH4 0xFFFFFFFF AND JUMP JUMPDEST SWAP1 POP SWAP3 SWAP2 POP POP JUMP JUMPDEST PUSH1 0x0 DUP2 DUP4 PUSH2 0x1D5 SWAP2 SWAP1 PUSH2 0x35F JUMP JUMPDEST SWAP1 POP SWAP3 SWAP2 POP POP JUMP JUMPDEST PUSH1 0x0 DUP2 DUP4 PUSH2 0x1EB SWAP2 SWAP1 PUSH2 0x3C9 JUMP JUMPDEST SWAP1 POP SWAP3 SWAP2 POP POP JUMP JUMPDEST PUSH1 0x0 DUP2 DUP4 PUSH2 0x201 SWAP2 SWAP1 PUSH2 0x4E0 JUMP JUMPDEST SWAP1 POP SWAP3 SWAP2 POP POP JUMP JUMPDEST PUSH1 0x0 DUP2 DUP4 PUSH2 0x217 SWAP2 SWAP1 PUSH2 0x2CB JUMP JUMPDEST SWAP1 POP SWAP3 SWAP2 POP POP JUMP JUMPDEST PUSH1 0x0 DUP2 CALLDATALOAD SWAP1 POP PUSH2 0x22E DUP2 PUSH2 0x5E1 JUMP JUMPDEST SWAP3 SWAP2 POP POP JUMP JUMPDEST PUSH1 0x0 PUSH1 0x20 DUP3 DUP5 SUB SLT ISZERO PUSH2 0x24A JUMPI PUSH2 0x249 PUSH2 0x5DC JUMP JUMPDEST JUMPDEST PUSH1 0x0 PUSH2 0x258 DUP5 DUP3 DUP6 ADD PUSH2 0x21F JUMP JUMPDEST SWAP2 POP POP SWAP3 SWAP2 POP POP JUMP JUMPDEST PUSH1 0x0 DUP1 PUSH1 0x40 DUP4 DUP6 SUB SLT ISZERO PUSH2 0x278 JUMPI PUSH2 0x277 PUSH2 0x5DC JUMP JUMPDEST JUMPDEST PUSH1 0x0 PUSH2 0x286 DUP6 DUP3 DUP7 ADD PUSH2 0x21F JUMP JUMPDEST SWAP3 POP POP PUSH1 0x20 PUSH2 0x297 DUP6 DUP3 DUP7 ADD PUSH2 0x21F JUMP JUMPDEST SWAP2 POP POP SWAP3 POP SWAP3 SWAP1 POP JUMP JUMPDEST PUSH2 0x2AA DUP2 PUSH2 0x574 JUMP JUMPDEST DUP3 MSTORE POP POP JUMP JUMPDEST PUSH1 0x0 PUSH1 0x20 DUP3 ADD SWAP1 POP PUSH2 0x2C5 PUSH1 0x0 DUP4 ADD DUP5 PUSH2 0x2A1 JUMP JUMPDEST SWAP3 SWAP2 POP POP JUMP JUMPDEST PUSH1 0x0 PUSH2 0x2D6 DUP3 PUSH2 0x574 JUMP JUMPDEST SWAP2 POP PUSH2 0x2E1 DUP4 PUSH2 0x574 JUMP JUMPDEST SWAP3 POP DUP2 PUSH32 0x7FFFFFFFFFFFFFFFFFFFFFFFFFFFFFFFFFFFFFFFFFFFFFFFFFFFFFFFFFFFFFFF SUB DUP4 SGT PUSH1 0x0 DUP4 SLT ISZERO AND ISZERO PUSH2 0x31C JUMPI PUSH2 0x31B PUSH2 0x57E JUMP JUMPDEST JUMPDEST DUP2 PUSH32 0x8000000000000000000000000000000000000000000000000000000000000000 SUB DUP4 SLT PUSH1 0x0 DUP4 SLT AND ISZERO PUSH2 0x354 JUMPI PUSH2 0x353 PUSH2 0x57E JUMP JUMPDEST JUMPDEST DUP3 DUP3 ADD SWAP1 POP SWAP3 SWAP2 POP POP JUMP JUMPDEST PUSH1 0x0 PUSH2 0x36A DUP3 PUSH2 0x574 JUMP JUMPDEST SWAP2 POP PUSH2 0x375 DUP4 PUSH2 0x574 JUMP JUMPDEST SWAP3 POP DUP3 PUSH2 0x385 JUMPI PUSH2 0x384 PUSH2 0x5AD JUMP JUMPDEST JUMPDEST PUSH1 0x1 PUSH1 0x0 SUB DUP4 EQ PUSH32 0x8000000000000000000000000000000000000000000000000000000000000000 DUP4 EQ AND ISZERO PUSH2 0x3BE JUMPI PUSH2 0x3BD PUSH2 0x57E JUMP JUMPDEST JUMPDEST DUP3 DUP3 SDIV SWAP1 POP SWAP3 SWAP2 POP POP JUMP JUMPDEST PUSH1 0x0 PUSH2 0x3D4 DUP3 PUSH2 0x574 JUMP JUMPDEST SWAP2 POP PUSH2 0x3DF DUP4 PUSH2 0x574 JUMP JUMPDEST SWAP3 POP DUP3 PUSH32 0x7FFFFFFFFFFFFFFFFFFFFFFFFFFFFFFFFFFFFFFFFFFFFFFFFFFFFFFFFFFFFFFF DIV DUP3 GT PUSH1 0x0 DUP5 SGT PUSH1 0x0 DUP5 SGT AND AND ISZERO PUSH2 0x41E JUMPI PUSH2 0x41D PUSH2 0x57E JUMP JUMPDEST JUMPDEST DUP2 PUSH32 0x8000000000000000000000000000000000000000000000000000000000000000 SDIV DUP4 SLT PUSH1 0x0 DUP5 SLT PUSH1 0x0 DUP5 SGT AND AND ISZERO PUSH2 0x45B JUMPI PUSH2 0x45A PUSH2 0x57E JUMP JUMPDEST JUMPDEST DUP3 PUSH32 0x8000000000000000000000000000000000000000000000000000000000000000 SDIV DUP3 SLT PUSH1 0x0 DUP5 SGT PUSH1 0x0 DUP5 SLT AND AND ISZERO PUSH2 0x498 JUMPI PUSH2 0x497 PUSH2 0x57E JUMP JUMPDEST JUMPDEST DUP3 PUSH32 0x7FFFFFFFFFFFFFFFFFFFFFFFFFFFFFFFFFFFFFFFFFFFFFFFFFFFFFFFFFFFFFFF SDIV DUP3 SLT PUSH1 0x0 DUP5 SLT PUSH1 0x0 DUP5 SLT AND AND ISZERO PUSH2 0x4D5 JUMPI PUSH2 0x4D4 PUSH2 0x57E JUMP JUMPDEST JUMPDEST DUP3 DUP3 MUL SWAP1 POP SWAP3 SWAP2 POP POP JUMP JUMPDEST PUSH1 0x0 PUSH2 0x4EB DUP3 PUSH2 0x574 JUMP JUMPDEST SWAP2 POP PUSH2 0x4F6 DUP4 PUSH2 0x574 JUMP JUMPDEST SWAP3 POP DUP3 PUSH32 0x8000000000000000000000000000000000000000000000000000000000000000 ADD DUP3 SLT PUSH1 0x0 DUP5 SLT ISZERO AND ISZERO PUSH2 0x531 JUMPI PUSH2 0x530 PUSH2 0x57E JUMP JUMPDEST JUMPDEST DUP3 PUSH32 0x7FFFFFFFFFFFFFFFFFFFFFFFFFFFFFFFFFFFFFFFFFFFFFFFFFFFFFFFFFFFFFFF ADD DUP3 SGT PUSH1 0x0 DUP5 SLT AND ISZERO PUSH2 0x569 JUMPI PUSH2 0x568 PUSH2 0x57E JUMP JUMPDEST JUMPDEST DUP3 DUP3 SUB SWAP1 POP SWAP3 SWAP2 POP POP JUMP JUMPDEST PUSH1 0x0 DUP2 SWAP1 POP SWAP2 SWAP1 POP JUMP JUMPDEST PUSH32 0x4E487B7100000000000000000000000000000000000000000000000000000000 PUSH1 0x0 MSTORE PUSH1 0x11 PUSH1 0x4 MSTORE PUSH1 0x24 PUSH1 0x0 REVERT JUMPDEST PUSH32 0x4E487B7100000000000000000000000000000000000000000000000000000000 PUSH1 0x0 MSTORE PUSH1 0x12 PUSH1 0x4 MSTORE PUSH1 0x24 PUSH1 0x0 REVERT JUMPDEST PUSH1 0x0 DUP1 REVERT JUMPDEST PUSH2 0x5EA DUP2 PUSH2 0x574 JUMP JUMPDEST DUP2 EQ PUSH2 0x5F5 JUMPI PUSH1 0x0 DUP1 REVERT JUMPDEST POP JUMP INVALID LOG2 PUSH5 0x6970667358 0x22 SLT KECCAK256 LOG0 PUSH31 0x8AF9D43B578D02AB59958272B99C3641AD13F91AC54EB8957DE0688A4C2A64 PUSH20 0x6F6C634300080700330000000000000000000000 "
				},
				"gasEstimates": {
					"creation": {
						"codeDepositCost": "316400",
						"executionCost": "355",
						"totalCost": "316755"
					},
					"external": {
						"division(int256,int256)": "infinite",
						"factorial(int256)": "infinite",
						"multiplicacion(int256,int256)": "infinite",
						"resta(int256,int256)": "infinite",
						"suma(int256,int256)": "infinite"
					}
				},
				"methodIdentifiers": {
					"division(int256,int256)": "09b7cdda",
					"factorial(int256)": "5ad78e8a",
					"multiplicacion(int256,int256)": "187983bf",
					"resta(int256,int256)": "4c627bad",
					"suma(int256,int256)": "8f8a0d19"
				}
			},
			"storageLayout": {
				"storage": [],
				"types": null
			},
			"userdoc": {
				"kind": "user",
				"methods": {},
				"version": 1
			}
		}
	}
}