{
	"Documents/GitHub/SOLIDITY-REMIX/5ef069451e67668750287d64bc5f8bae/calculadora.sol": {
		"Calculadora": {
			"abi": [
				{
					"inputs": [],
					"name": "a",
					"outputs": [
						{
							"internalType": "int256",
							"name": "",
							"type": "int256"
						}
					],
					"stateMutability": "view",
					"type": "function"
				},
				{
					"inputs": [],
					"name": "b",
					"outputs": [
						{
							"internalType": "int256",
							"name": "",
							"type": "int256"
						}
					],
					"stateMutability": "view",
					"type": "function"
				},
				{
					"inputs": [
						{
							"internalType": "int256",
							"name": "_a",
							"type": "int256"
						}
					],
					"name": "cuadrado",
					"outputs": [
						{
							"internalType": "uint256",
							"name": "",
							"type": "uint256"
						}
					],
					"stateMutability": "pure",
					"type": "function"
				},
				{
					"inputs": [
						{
							"internalType": "int256",
							"name": "_a",
							"type": "int256"
						},
						{
							"internalType": "int256",
							"name": "_b",
							"type": "int256"
						}
					],
					"name": "division",
					"outputs": [
						{
							"internalType": "int256",
							"name": "",
							"type": "int256"
						}
					],
					"stateMutability": "pure",
					"type": "function"
				},
				{
					"inputs": [
						{
							"internalType": "uint256",
							"name": "_a",
							"type": "uint256"
						}
					],
					"name": "factorial",
					"outputs": [
						{
							"internalType": "uint256",
							"name": "",
							"type": "uint256"
						}
					],
					"stateMutability": "nonpayable",
					"type": "function"
				},
				{
					"inputs": [
						{
							"internalType": "int256",
							"name": "_a",
							"type": "int256"
						},
						{
							"internalType": "int256",
							"name": "_b",
							"type": "int256"
						}
					],
					"name": "multiplicacion",
					"outputs": [
						{
							"internalType": "int256",
							"name": "",
							"type": "int256"
						}
					],
					"stateMutability": "pure",
					"type": "function"
				},
				{
					"inputs": [
						{
							"internalType": "uint256",
							"name": "x",
							"type": "uint256"
						}
					],
					"name": "raizCuadradaUnsigned",
					"outputs": [
						{
							"internalType": "uint128",
							"name": "",
							"type": "uint128"
						}
					],
					"stateMutability": "pure",
					"type": "function"
				},
				{
					"inputs": [
						{
							"internalType": "int256",
							"name": "_a",
							"type": "int256"
						},
						{
							"internalType": "int256",
							"name": "_b",
							"type": "int256"
						}
					],
					"name": "resta",
					"outputs": [
						{
							"internalType": "int256",
							"name": "",
							"type": "int256"
						}
					],
					"stateMutability": "pure",
					"type": "function"
				},
				{
					"inputs": [
						{
							"internalType": "int256",
							"name": "_a",
							"type": "int256"
						},
						{
							"internalType": "int256",
							"name": "_b",
							"type": "int256"
						}
					],
					"name": "suma",
					"outputs": [
						{
							"internalType": "int256",
							"name": "",
							"type": "int256"
						}
					],
					"stateMutability": "pure",
					"type": "function"
				},
				{
					"inputs": [
						{
							"internalType": "int256",
							"name": "_a",
							"type": "int256"
						}
					],
					"name": "valorAbsoluto",
					"outputs": [
						{
							"internalType": "uint256",
							"name": "",
							"type": "uint256"
						}
					],
					"stateMutability": "pure",
					"type": "function"
				}
			],
			"devdoc": {
				"kind": "dev",
				"methods": {},
				"version": 1
			},
			"evm": {
				"assembly": "    /* \"Documents/GitHub/SOLIDITY-REMIX/5ef069451e67668750287d64bc5f8bae/calculadora.sol\":68:1156  contract Calculadora {\r... */\n  mstore(0x40, 0x80)\n  callvalue\n  dup1\n  iszero\n  tag_1\n  jumpi\n  0x00\n  dup1\n  revert\ntag_1:\n  pop\n  dataSize(sub_0)\n  dup1\n  dataOffset(sub_0)\n  0x00\n  codecopy\n  0x00\n  return\nstop\n\nsub_0: assembly {\n        /* \"Documents/GitHub/SOLIDITY-REMIX/5ef069451e67668750287d64bc5f8bae/calculadora.sol\":68:1156  contract Calculadora {\r... */\n      mstore(0x40, 0x80)\n      callvalue\n      dup1\n      iszero\n      tag_1\n      jumpi\n      0x00\n      dup1\n      revert\n    tag_1:\n      pop\n      jumpi(tag_2, lt(calldatasize, 0x04))\n      shr(0xe0, calldataload(0x00))\n      dup1\n      0x4df7e3d0\n      gt\n      tag_13\n      jumpi\n      dup1\n      0x4df7e3d0\n      eq\n      tag_8\n      jumpi\n      dup1\n      0x7d825142\n      eq\n      tag_9\n      jumpi\n      dup1\n      0x7ea9e058\n      eq\n      tag_10\n      jumpi\n      dup1\n      0x83714834\n      eq\n      tag_11\n      jumpi\n      dup1\n      0x8f8a0d19\n      eq\n      tag_12\n      jumpi\n      jump(tag_2)\n    tag_13:\n      dup1\n      0x09b7cdda\n      eq\n      tag_3\n      jumpi\n      dup1\n      0x0dbe671f\n      eq\n      tag_4\n      jumpi\n      dup1\n      0x187983bf\n      eq\n      tag_5\n      jumpi\n      dup1\n      0x4abdea38\n      eq\n      tag_6\n      jumpi\n      dup1\n      0x4c627bad\n      eq\n      tag_7\n      jumpi\n    tag_2:\n      0x00\n      dup1\n      revert\n        /* \"Documents/GitHub/SOLIDITY-REMIX/5ef069451e67668750287d64bc5f8bae/calculadora.sol\":438:531  function division(int _a,int _b) public pure returns(int) {\r... */\n    tag_3:\n      tag_14\n      0x04\n      dup1\n      calldatasize\n      sub\n      dup2\n      add\n      swap1\n      tag_15\n      swap2\n      swap1\n      tag_16\n      jump\t// in\n    tag_15:\n      tag_17\n      jump\t// in\n    tag_14:\n      mload(0x40)\n      tag_18\n      swap2\n      swap1\n      tag_19\n      jump\t// in\n    tag_18:\n      mload(0x40)\n      dup1\n      swap2\n      sub\n      swap1\n      return\n        /* \"Documents/GitHub/SOLIDITY-REMIX/5ef069451e67668750287d64bc5f8bae/calculadora.sol\":96:108  int public a */\n    tag_4:\n      tag_20\n      tag_21\n      jump\t// in\n    tag_20:\n      mload(0x40)\n      tag_22\n      swap2\n      swap1\n      tag_19\n      jump\t// in\n    tag_22:\n      mload(0x40)\n      dup1\n      swap2\n      sub\n      swap1\n      return\n        /* \"Documents/GitHub/SOLIDITY-REMIX/5ef069451e67668750287d64bc5f8bae/calculadora.sol\":331:430  function multiplicacion(int _a,int _b) public pure returns(int) {\r... */\n    tag_5:\n      tag_23\n      0x04\n      dup1\n      calldatasize\n      sub\n      dup2\n      add\n      swap1\n      tag_24\n      swap2\n      swap1\n      tag_16\n      jump\t// in\n    tag_24:\n      tag_25\n      jump\t// in\n    tag_23:\n      mload(0x40)\n      tag_26\n      swap2\n      swap1\n      tag_19\n      jump\t// in\n    tag_26:\n      mload(0x40)\n      dup1\n      swap2\n      sub\n      swap1\n      return\n        /* \"Documents/GitHub/SOLIDITY-REMIX/5ef069451e67668750287d64bc5f8bae/calculadora.sol\":1024:1113  function raizCuadradaUnsigned (uint256 x) public pure returns(uint128) {\r... */\n    tag_6:\n      tag_27\n      0x04\n      dup1\n      calldatasize\n      sub\n      dup2\n      add\n      swap1\n      tag_28\n      swap2\n      swap1\n      tag_29\n      jump\t// in\n    tag_28:\n      tag_30\n      jump\t// in\n    tag_27:\n      mload(0x40)\n      tag_31\n      swap2\n      swap1\n      tag_32\n      jump\t// in\n    tag_31:\n      mload(0x40)\n      dup1\n      swap2\n      sub\n      swap1\n      return\n        /* \"Documents/GitHub/SOLIDITY-REMIX/5ef069451e67668750287d64bc5f8bae/calculadora.sol\":233:323  function resta(int _a,int _b) public pure returns(int) {\r... */\n    tag_7:\n      tag_33\n      0x04\n      dup1\n      calldatasize\n      sub\n      dup2\n      add\n      swap1\n      tag_34\n      swap2\n      swap1\n      tag_16\n      jump\t// in\n    tag_34:\n      tag_35\n      jump\t// in\n    tag_33:\n      mload(0x40)\n      tag_36\n      swap2\n      swap1\n      tag_19\n      jump\t// in\n    tag_36:\n      mload(0x40)\n      dup1\n      swap2\n      sub\n      swap1\n      return\n        /* \"Documents/GitHub/SOLIDITY-REMIX/5ef069451e67668750287d64bc5f8bae/calculadora.sol\":115:127  int public b */\n    tag_8:\n      tag_37\n      tag_38\n      jump\t// in\n    tag_37:\n      mload(0x40)\n      tag_39\n      swap2\n      swap1\n      tag_19\n      jump\t// in\n    tag_39:\n      mload(0x40)\n      dup1\n      swap2\n      sub\n      swap1\n      return\n        /* \"Documents/GitHub/SOLIDITY-REMIX/5ef069451e67668750287d64bc5f8bae/calculadora.sol\":730:917  function valorAbsoluto(int _a) public pure returns(uint) {\r... */\n    tag_9:\n      tag_40\n      0x04\n      dup1\n      calldatasize\n      sub\n      dup2\n      add\n      swap1\n      tag_41\n      swap2\n      swap1\n      tag_42\n      jump\t// in\n    tag_41:\n      tag_43\n      jump\t// in\n    tag_40:\n      mload(0x40)\n      tag_44\n      swap2\n      swap1\n      tag_45\n      jump\t// in\n    tag_44:\n      mload(0x40)\n      dup1\n      swap2\n      sub\n      swap1\n      return\n        /* \"Documents/GitHub/SOLIDITY-REMIX/5ef069451e67668750287d64bc5f8bae/calculadora.sol\":925:1016  function cuadrado(int _a) public pure returns(uint) {\r... */\n    tag_10:\n      tag_46\n      0x04\n      dup1\n      calldatasize\n      sub\n      dup2\n      add\n      swap1\n      tag_47\n      swap2\n      swap1\n      tag_42\n      jump\t// in\n    tag_47:\n      tag_48\n      jump\t// in\n    tag_46:\n      mload(0x40)\n      tag_49\n      swap2\n      swap1\n      tag_45\n      jump\t// in\n    tag_49:\n      mload(0x40)\n      dup1\n      swap2\n      sub\n      swap1\n      return\n        /* \"Documents/GitHub/SOLIDITY-REMIX/5ef069451e67668750287d64bc5f8bae/calculadora.sol\":539:722  function factorial(uint _a) public returns(uint){\r... */\n    tag_11:\n      tag_50\n      0x04\n      dup1\n      calldatasize\n      sub\n      dup2\n      add\n      swap1\n      tag_51\n      swap2\n      swap1\n      tag_29\n      jump\t// in\n    tag_51:\n      tag_52\n      jump\t// in\n    tag_50:\n      mload(0x40)\n      tag_53\n      swap2\n      swap1\n      tag_45\n      jump\t// in\n    tag_53:\n      mload(0x40)\n      dup1\n      swap2\n      sub\n      swap1\n      return\n        /* \"Documents/GitHub/SOLIDITY-REMIX/5ef069451e67668750287d64bc5f8bae/calculadora.sol\":136:225  function suma(int _a,int _b) public pure returns(int) {\r... */\n    tag_12:\n      tag_54\n      0x04\n      dup1\n      calldatasize\n      sub\n      dup2\n      add\n      swap1\n      tag_55\n      swap2\n      swap1\n      tag_16\n      jump\t// in\n    tag_55:\n      tag_56\n      jump\t// in\n    tag_54:\n      mload(0x40)\n      tag_57\n      swap2\n      swap1\n      tag_19\n      jump\t// in\n    tag_57:\n      mload(0x40)\n      dup1\n      swap2\n      sub\n      swap1\n      return\n        /* \"Documents/GitHub/SOLIDITY-REMIX/5ef069451e67668750287d64bc5f8bae/calculadora.sol\":438:531  function division(int _a,int _b) public pure returns(int) {\r... */\n    tag_17:\n        /* \"Documents/GitHub/SOLIDITY-REMIX/5ef069451e67668750287d64bc5f8bae/calculadora.sol\":491:494  int */\n      0x00\n        /* \"Documents/GitHub/SOLIDITY-REMIX/5ef069451e67668750287d64bc5f8bae/calculadora.sol\":520:522  _b */\n      dup2\n        /* \"Documents/GitHub/SOLIDITY-REMIX/5ef069451e67668750287d64bc5f8bae/calculadora.sol\":515:517  _a */\n      dup4\n        /* \"Documents/GitHub/SOLIDITY-REMIX/5ef069451e67668750287d64bc5f8bae/calculadora.sol\":515:522  _a / _b */\n      tag_59\n      swap2\n      swap1\n      tag_60\n      jump\t// in\n    tag_59:\n        /* \"Documents/GitHub/SOLIDITY-REMIX/5ef069451e67668750287d64bc5f8bae/calculadora.sol\":507:523  return (_a / _b) */\n      swap1\n      pop\n        /* \"Documents/GitHub/SOLIDITY-REMIX/5ef069451e67668750287d64bc5f8bae/calculadora.sol\":438:531  function division(int _a,int _b) public pure returns(int) {\r... */\n      swap3\n      swap2\n      pop\n      pop\n      jump\t// out\n        /* \"Documents/GitHub/SOLIDITY-REMIX/5ef069451e67668750287d64bc5f8bae/calculadora.sol\":96:108  int public a */\n    tag_21:\n      sload(0x00)\n      dup2\n      jump\t// out\n        /* \"Documents/GitHub/SOLIDITY-REMIX/5ef069451e67668750287d64bc5f8bae/calculadora.sol\":331:430  function multiplicacion(int _a,int _b) public pure returns(int) {\r... */\n    tag_25:\n        /* \"Documents/GitHub/SOLIDITY-REMIX/5ef069451e67668750287d64bc5f8bae/calculadora.sol\":390:393  int */\n      0x00\n        /* \"Documents/GitHub/SOLIDITY-REMIX/5ef069451e67668750287d64bc5f8bae/calculadora.sol\":419:421  _b */\n      dup2\n        /* \"Documents/GitHub/SOLIDITY-REMIX/5ef069451e67668750287d64bc5f8bae/calculadora.sol\":414:416  _a */\n      dup4\n        /* \"Documents/GitHub/SOLIDITY-REMIX/5ef069451e67668750287d64bc5f8bae/calculadora.sol\":414:421  _a * _b */\n      tag_62\n      swap2\n      swap1\n      tag_63\n      jump\t// in\n    tag_62:\n        /* \"Documents/GitHub/SOLIDITY-REMIX/5ef069451e67668750287d64bc5f8bae/calculadora.sol\":406:422  return (_a * _b) */\n      swap1\n      pop\n        /* \"Documents/GitHub/SOLIDITY-REMIX/5ef069451e67668750287d64bc5f8bae/calculadora.sol\":331:430  function multiplicacion(int _a,int _b) public pure returns(int) {\r... */\n      swap3\n      swap2\n      pop\n      pop\n      jump\t// out\n        /* \"Documents/GitHub/SOLIDITY-REMIX/5ef069451e67668750287d64bc5f8bae/calculadora.sol\":1024:1113  function raizCuadradaUnsigned (uint256 x) public pure returns(uint128) {\r... */\n    tag_30:\n        /* \"Documents/GitHub/SOLIDITY-REMIX/5ef069451e67668750287d64bc5f8bae/calculadora.sol\":1086:1093  uint128 */\n      0x00\n        /* \"Documents/GitHub/SOLIDITY-REMIX/5ef069451e67668750287d64bc5f8bae/calculadora.sol\":1024:1113  function raizCuadradaUnsigned (uint256 x) public pure returns(uint128) {\r... */\n      swap2\n      swap1\n      pop\n      jump\t// out\n        /* \"Documents/GitHub/SOLIDITY-REMIX/5ef069451e67668750287d64bc5f8bae/calculadora.sol\":233:323  function resta(int _a,int _b) public pure returns(int) {\r... */\n    tag_35:\n        /* \"Documents/GitHub/SOLIDITY-REMIX/5ef069451e67668750287d64bc5f8bae/calculadora.sol\":283:286  int */\n      0x00\n        /* \"Documents/GitHub/SOLIDITY-REMIX/5ef069451e67668750287d64bc5f8bae/calculadora.sol\":312:314  _b */\n      dup2\n        /* \"Documents/GitHub/SOLIDITY-REMIX/5ef069451e67668750287d64bc5f8bae/calculadora.sol\":307:309  _a */\n      dup4\n        /* \"Documents/GitHub/SOLIDITY-REMIX/5ef069451e67668750287d64bc5f8bae/calculadora.sol\":307:314  _a - _b */\n      tag_66\n      swap2\n      swap1\n      tag_67\n      jump\t// in\n    tag_66:\n        /* \"Documents/GitHub/SOLIDITY-REMIX/5ef069451e67668750287d64bc5f8bae/calculadora.sol\":299:315  return (_a - _b) */\n      swap1\n      pop\n        /* \"Documents/GitHub/SOLIDITY-REMIX/5ef069451e67668750287d64bc5f8bae/calculadora.sol\":233:323  function resta(int _a,int _b) public pure returns(int) {\r... */\n      swap3\n      swap2\n      pop\n      pop\n      jump\t// out\n        /* \"Documents/GitHub/SOLIDITY-REMIX/5ef069451e67668750287d64bc5f8bae/calculadora.sol\":115:127  int public b */\n    tag_38:\n      sload(0x01)\n      dup2\n      jump\t// out\n        /* \"Documents/GitHub/SOLIDITY-REMIX/5ef069451e67668750287d64bc5f8bae/calculadora.sol\":730:917  function valorAbsoluto(int _a) public pure returns(uint) {\r... */\n    tag_43:\n        /* \"Documents/GitHub/SOLIDITY-REMIX/5ef069451e67668750287d64bc5f8bae/calculadora.sol\":781:785  uint */\n      0x00\n        /* \"Documents/GitHub/SOLIDITY-REMIX/5ef069451e67668750287d64bc5f8bae/calculadora.sol\":807:808  0 */\n      dup1\n        /* \"Documents/GitHub/SOLIDITY-REMIX/5ef069451e67668750287d64bc5f8bae/calculadora.sol\":802:804  _a */\n      dup3\n        /* \"Documents/GitHub/SOLIDITY-REMIX/5ef069451e67668750287d64bc5f8bae/calculadora.sol\":802:808  _a > 0 */\n      sgt\n        /* \"Documents/GitHub/SOLIDITY-REMIX/5ef069451e67668750287d64bc5f8bae/calculadora.sol\":798:910  if (_a > 0){\r... */\n      iszero\n      tag_69\n      jumpi\n        /* \"Documents/GitHub/SOLIDITY-REMIX/5ef069451e67668750287d64bc5f8bae/calculadora.sol\":836:838  _a */\n      dup2\n        /* \"Documents/GitHub/SOLIDITY-REMIX/5ef069451e67668750287d64bc5f8bae/calculadora.sol\":824:840  return(uint(_a)) */\n      swap1\n      pop\n      jump(tag_68)\n        /* \"Documents/GitHub/SOLIDITY-REMIX/5ef069451e67668750287d64bc5f8bae/calculadora.sol\":798:910  if (_a > 0){\r... */\n    tag_69:\n        /* \"Documents/GitHub/SOLIDITY-REMIX/5ef069451e67668750287d64bc5f8bae/calculadora.sol\":894:896  _a */\n      dup2\n        /* \"Documents/GitHub/SOLIDITY-REMIX/5ef069451e67668750287d64bc5f8bae/calculadora.sol\":893:896  -_a */\n      tag_71\n      swap1\n      tag_72\n      jump\t// in\n    tag_71:\n        /* \"Documents/GitHub/SOLIDITY-REMIX/5ef069451e67668750287d64bc5f8bae/calculadora.sol\":881:898  return(uint(-_a)) */\n      swap1\n      pop\n        /* \"Documents/GitHub/SOLIDITY-REMIX/5ef069451e67668750287d64bc5f8bae/calculadora.sol\":730:917  function valorAbsoluto(int _a) public pure returns(uint) {\r... */\n    tag_68:\n      swap2\n      swap1\n      pop\n      jump\t// out\n        /* \"Documents/GitHub/SOLIDITY-REMIX/5ef069451e67668750287d64bc5f8bae/calculadora.sol\":925:1016  function cuadrado(int _a) public pure returns(uint) {\r... */\n    tag_48:\n        /* \"Documents/GitHub/SOLIDITY-REMIX/5ef069451e67668750287d64bc5f8bae/calculadora.sol\":971:975  uint */\n      0x00\n        /* \"Documents/GitHub/SOLIDITY-REMIX/5ef069451e67668750287d64bc5f8bae/calculadora.sol\":1005:1007  _a */\n      dup2\n        /* \"Documents/GitHub/SOLIDITY-REMIX/5ef069451e67668750287d64bc5f8bae/calculadora.sol\":1000:1002  _a */\n      dup3\n        /* \"Documents/GitHub/SOLIDITY-REMIX/5ef069451e67668750287d64bc5f8bae/calculadora.sol\":1000:1007  _a * _a */\n      tag_74\n      swap2\n      swap1\n      tag_63\n      jump\t// in\n    tag_74:\n        /* \"Documents/GitHub/SOLIDITY-REMIX/5ef069451e67668750287d64bc5f8bae/calculadora.sol\":988:1008  return uint(_a * _a) */\n      swap1\n      pop\n        /* \"Documents/GitHub/SOLIDITY-REMIX/5ef069451e67668750287d64bc5f8bae/calculadora.sol\":925:1016  function cuadrado(int _a) public pure returns(uint) {\r... */\n      swap2\n      swap1\n      pop\n      jump\t// out\n        /* \"Documents/GitHub/SOLIDITY-REMIX/5ef069451e67668750287d64bc5f8bae/calculadora.sol\":539:722  function factorial(uint _a) public returns(uint){\r... */\n    tag_52:\n        /* \"Documents/GitHub/SOLIDITY-REMIX/5ef069451e67668750287d64bc5f8bae/calculadora.sol\":582:586  uint */\n      0x00\n        /* \"Documents/GitHub/SOLIDITY-REMIX/5ef069451e67668750287d64bc5f8bae/calculadora.sol\":608:609  1 */\n      0x01\n        /* \"Documents/GitHub/SOLIDITY-REMIX/5ef069451e67668750287d64bc5f8bae/calculadora.sol\":602:604  _a */\n      dup3\n        /* \"Documents/GitHub/SOLIDITY-REMIX/5ef069451e67668750287d64bc5f8bae/calculadora.sol\":602:609  _a <= 1 */\n      gt\n        /* \"Documents/GitHub/SOLIDITY-REMIX/5ef069451e67668750287d64bc5f8bae/calculadora.sol\":598:715  if (_a <= 1){\r... */\n      tag_76\n      jumpi\n        /* \"Documents/GitHub/SOLIDITY-REMIX/5ef069451e67668750287d64bc5f8bae/calculadora.sol\":632:633  1 */\n      0x01\n        /* \"Documents/GitHub/SOLIDITY-REMIX/5ef069451e67668750287d64bc5f8bae/calculadora.sol\":625:633  return 1 */\n      swap1\n      pop\n      jump(tag_75)\n        /* \"Documents/GitHub/SOLIDITY-REMIX/5ef069451e67668750287d64bc5f8bae/calculadora.sol\":598:715  if (_a <= 1){\r... */\n    tag_76:\n        /* \"Documents/GitHub/SOLIDITY-REMIX/5ef069451e67668750287d64bc5f8bae/calculadora.sol\":687:702  factorial(_a-1) */\n      tag_78\n        /* \"Documents/GitHub/SOLIDITY-REMIX/5ef069451e67668750287d64bc5f8bae/calculadora.sol\":700:701  1 */\n      0x01\n        /* \"Documents/GitHub/SOLIDITY-REMIX/5ef069451e67668750287d64bc5f8bae/calculadora.sol\":697:699  _a */\n      dup4\n        /* \"Documents/GitHub/SOLIDITY-REMIX/5ef069451e67668750287d64bc5f8bae/calculadora.sol\":697:701  _a-1 */\n      tag_79\n      swap2\n      swap1\n      tag_80\n      jump\t// in\n    tag_79:\n        /* \"Documents/GitHub/SOLIDITY-REMIX/5ef069451e67668750287d64bc5f8bae/calculadora.sol\":687:696  factorial */\n      tag_52\n        /* \"Documents/GitHub/SOLIDITY-REMIX/5ef069451e67668750287d64bc5f8bae/calculadora.sol\":687:702  factorial(_a-1) */\n      jump\t// in\n    tag_78:\n        /* \"Documents/GitHub/SOLIDITY-REMIX/5ef069451e67668750287d64bc5f8bae/calculadora.sol\":682:684  _a */\n      dup3\n        /* \"Documents/GitHub/SOLIDITY-REMIX/5ef069451e67668750287d64bc5f8bae/calculadora.sol\":682:702  _a * factorial(_a-1) */\n      tag_81\n      swap2\n      swap1\n      tag_82\n      jump\t// in\n    tag_81:\n        /* \"Documents/GitHub/SOLIDITY-REMIX/5ef069451e67668750287d64bc5f8bae/calculadora.sol\":674:703  return (_a * factorial(_a-1)) */\n      swap1\n      pop\n        /* \"Documents/GitHub/SOLIDITY-REMIX/5ef069451e67668750287d64bc5f8bae/calculadora.sol\":539:722  function factorial(uint _a) public returns(uint){\r... */\n    tag_75:\n      swap2\n      swap1\n      pop\n      jump\t// out\n        /* \"Documents/GitHub/SOLIDITY-REMIX/5ef069451e67668750287d64bc5f8bae/calculadora.sol\":136:225  function suma(int _a,int _b) public pure returns(int) {\r... */\n    tag_56:\n        /* \"Documents/GitHub/SOLIDITY-REMIX/5ef069451e67668750287d64bc5f8bae/calculadora.sol\":185:188  int */\n      0x00\n        /* \"Documents/GitHub/SOLIDITY-REMIX/5ef069451e67668750287d64bc5f8bae/calculadora.sol\":214:216  _b */\n      dup2\n        /* \"Documents/GitHub/SOLIDITY-REMIX/5ef069451e67668750287d64bc5f8bae/calculadora.sol\":209:211  _a */\n      dup4\n        /* \"Documents/GitHub/SOLIDITY-REMIX/5ef069451e67668750287d64bc5f8bae/calculadora.sol\":209:216  _a + _b */\n      tag_84\n      swap2\n      swap1\n      tag_85\n      jump\t// in\n    tag_84:\n        /* \"Documents/GitHub/SOLIDITY-REMIX/5ef069451e67668750287d64bc5f8bae/calculadora.sol\":201:217  return (_a + _b) */\n      swap1\n      pop\n        /* \"Documents/GitHub/SOLIDITY-REMIX/5ef069451e67668750287d64bc5f8bae/calculadora.sol\":136:225  function suma(int _a,int _b) public pure returns(int) {\r... */\n      swap3\n      swap2\n      pop\n      pop\n      jump\t// out\n        /* \"#utility.yul\":7:144   */\n    tag_87:\n        /* \"#utility.yul\":52:57   */\n      0x00\n        /* \"#utility.yul\":90:96   */\n      dup2\n        /* \"#utility.yul\":77:97   */\n      calldataload\n        /* \"#utility.yul\":68:97   */\n      swap1\n      pop\n        /* \"#utility.yul\":106:138   */\n      tag_89\n        /* \"#utility.yul\":132:137   */\n      dup2\n        /* \"#utility.yul\":106:138   */\n      tag_90\n      jump\t// in\n    tag_89:\n        /* \"#utility.yul\":7:144   */\n      swap3\n      swap2\n      pop\n      pop\n      jump\t// out\n        /* \"#utility.yul\":150:289   */\n    tag_91:\n        /* \"#utility.yul\":196:201   */\n      0x00\n        /* \"#utility.yul\":234:240   */\n      dup2\n        /* \"#utility.yul\":221:241   */\n      calldataload\n        /* \"#utility.yul\":212:241   */\n      swap1\n      pop\n        /* \"#utility.yul\":250:283   */\n      tag_93\n        /* \"#utility.yul\":277:282   */\n      dup2\n        /* \"#utility.yul\":250:283   */\n      tag_94\n      jump\t// in\n    tag_93:\n        /* \"#utility.yul\":150:289   */\n      swap3\n      swap2\n      pop\n      pop\n      jump\t// out\n        /* \"#utility.yul\":295:622   */\n    tag_42:\n        /* \"#utility.yul\":353:359   */\n      0x00\n        /* \"#utility.yul\":402:404   */\n      0x20\n        /* \"#utility.yul\":390:399   */\n      dup3\n        /* \"#utility.yul\":381:388   */\n      dup5\n        /* \"#utility.yul\":377:400   */\n      sub\n        /* \"#utility.yul\":373:405   */\n      slt\n        /* \"#utility.yul\":370:489   */\n      iszero\n      tag_96\n      jumpi\n        /* \"#utility.yul\":408:487   */\n      tag_97\n      tag_98\n      jump\t// in\n    tag_97:\n        /* \"#utility.yul\":370:489   */\n    tag_96:\n        /* \"#utility.yul\":528:529   */\n      0x00\n        /* \"#utility.yul\":553:605   */\n      tag_99\n        /* \"#utility.yul\":597:604   */\n      dup5\n        /* \"#utility.yul\":588:594   */\n      dup3\n        /* \"#utility.yul\":577:586   */\n      dup6\n        /* \"#utility.yul\":573:595   */\n      add\n        /* \"#utility.yul\":553:605   */\n      tag_87\n      jump\t// in\n    tag_99:\n        /* \"#utility.yul\":543:605   */\n      swap2\n      pop\n        /* \"#utility.yul\":499:615   */\n      pop\n        /* \"#utility.yul\":295:622   */\n      swap3\n      swap2\n      pop\n      pop\n      jump\t// out\n        /* \"#utility.yul\":628:1098   */\n    tag_16:\n        /* \"#utility.yul\":694:700   */\n      0x00\n        /* \"#utility.yul\":702:708   */\n      dup1\n        /* \"#utility.yul\":751:753   */\n      0x40\n        /* \"#utility.yul\":739:748   */\n      dup4\n        /* \"#utility.yul\":730:737   */\n      dup6\n        /* \"#utility.yul\":726:749   */\n      sub\n        /* \"#utility.yul\":722:754   */\n      slt\n        /* \"#utility.yul\":719:838   */\n      iszero\n      tag_101\n      jumpi\n        /* \"#utility.yul\":757:836   */\n      tag_102\n      tag_98\n      jump\t// in\n    tag_102:\n        /* \"#utility.yul\":719:838   */\n    tag_101:\n        /* \"#utility.yul\":877:878   */\n      0x00\n        /* \"#utility.yul\":902:954   */\n      tag_103\n        /* \"#utility.yul\":946:953   */\n      dup6\n        /* \"#utility.yul\":937:943   */\n      dup3\n        /* \"#utility.yul\":926:935   */\n      dup7\n        /* \"#utility.yul\":922:944   */\n      add\n        /* \"#utility.yul\":902:954   */\n      tag_87\n      jump\t// in\n    tag_103:\n        /* \"#utility.yul\":892:954   */\n      swap3\n      pop\n        /* \"#utility.yul\":848:964   */\n      pop\n        /* \"#utility.yul\":1003:1005   */\n      0x20\n        /* \"#utility.yul\":1029:1081   */\n      tag_104\n        /* \"#utility.yul\":1073:1080   */\n      dup6\n        /* \"#utility.yul\":1064:1070   */\n      dup3\n        /* \"#utility.yul\":1053:1062   */\n      dup7\n        /* \"#utility.yul\":1049:1071   */\n      add\n        /* \"#utility.yul\":1029:1081   */\n      tag_87\n      jump\t// in\n    tag_104:\n        /* \"#utility.yul\":1019:1081   */\n      swap2\n      pop\n        /* \"#utility.yul\":974:1091   */\n      pop\n        /* \"#utility.yul\":628:1098   */\n      swap3\n      pop\n      swap3\n      swap1\n      pop\n      jump\t// out\n        /* \"#utility.yul\":1104:1433   */\n    tag_29:\n        /* \"#utility.yul\":1163:1169   */\n      0x00\n        /* \"#utility.yul\":1212:1214   */\n      0x20\n        /* \"#utility.yul\":1200:1209   */\n      dup3\n        /* \"#utility.yul\":1191:1198   */\n      dup5\n        /* \"#utility.yul\":1187:1210   */\n      sub\n        /* \"#utility.yul\":1183:1215   */\n      slt\n        /* \"#utility.yul\":1180:1299   */\n      iszero\n      tag_106\n      jumpi\n        /* \"#utility.yul\":1218:1297   */\n      tag_107\n      tag_98\n      jump\t// in\n    tag_107:\n        /* \"#utility.yul\":1180:1299   */\n    tag_106:\n        /* \"#utility.yul\":1338:1339   */\n      0x00\n        /* \"#utility.yul\":1363:1416   */\n      tag_108\n        /* \"#utility.yul\":1408:1415   */\n      dup5\n        /* \"#utility.yul\":1399:1405   */\n      dup3\n        /* \"#utility.yul\":1388:1397   */\n      dup6\n        /* \"#utility.yul\":1384:1406   */\n      add\n        /* \"#utility.yul\":1363:1416   */\n      tag_91\n      jump\t// in\n    tag_108:\n        /* \"#utility.yul\":1353:1416   */\n      swap2\n      pop\n        /* \"#utility.yul\":1309:1426   */\n      pop\n        /* \"#utility.yul\":1104:1433   */\n      swap3\n      swap2\n      pop\n      pop\n      jump\t// out\n        /* \"#utility.yul\":1439:1554   */\n    tag_109:\n        /* \"#utility.yul\":1524:1547   */\n      tag_111\n        /* \"#utility.yul\":1541:1546   */\n      dup2\n        /* \"#utility.yul\":1524:1547   */\n      tag_112\n      jump\t// in\n    tag_111:\n        /* \"#utility.yul\":1519:1522   */\n      dup3\n        /* \"#utility.yul\":1512:1548   */\n      mstore\n        /* \"#utility.yul\":1439:1554   */\n      pop\n      pop\n      jump\t// out\n        /* \"#utility.yul\":1560:1678   */\n    tag_113:\n        /* \"#utility.yul\":1647:1671   */\n      tag_115\n        /* \"#utility.yul\":1665:1670   */\n      dup2\n        /* \"#utility.yul\":1647:1671   */\n      tag_116\n      jump\t// in\n    tag_115:\n        /* \"#utility.yul\":1642:1645   */\n      dup3\n        /* \"#utility.yul\":1635:1672   */\n      mstore\n        /* \"#utility.yul\":1560:1678   */\n      pop\n      pop\n      jump\t// out\n        /* \"#utility.yul\":1684:1802   */\n    tag_117:\n        /* \"#utility.yul\":1771:1795   */\n      tag_119\n        /* \"#utility.yul\":1789:1794   */\n      dup2\n        /* \"#utility.yul\":1771:1795   */\n      tag_120\n      jump\t// in\n    tag_119:\n        /* \"#utility.yul\":1766:1769   */\n      dup3\n        /* \"#utility.yul\":1759:1796   */\n      mstore\n        /* \"#utility.yul\":1684:1802   */\n      pop\n      pop\n      jump\t// out\n        /* \"#utility.yul\":1808:2026   */\n    tag_19:\n        /* \"#utility.yul\":1899:1903   */\n      0x00\n        /* \"#utility.yul\":1937:1939   */\n      0x20\n        /* \"#utility.yul\":1926:1935   */\n      dup3\n        /* \"#utility.yul\":1922:1940   */\n      add\n        /* \"#utility.yul\":1914:1940   */\n      swap1\n      pop\n        /* \"#utility.yul\":1950:2019   */\n      tag_122\n        /* \"#utility.yul\":2016:2017   */\n      0x00\n        /* \"#utility.yul\":2005:2014   */\n      dup4\n        /* \"#utility.yul\":2001:2018   */\n      add\n        /* \"#utility.yul\":1992:1998   */\n      dup5\n        /* \"#utility.yul\":1950:2019   */\n      tag_109\n      jump\t// in\n    tag_122:\n        /* \"#utility.yul\":1808:2026   */\n      swap3\n      swap2\n      pop\n      pop\n      jump\t// out\n        /* \"#utility.yul\":2032:2254   */\n    tag_32:\n        /* \"#utility.yul\":2125:2129   */\n      0x00\n        /* \"#utility.yul\":2163:2165   */\n      0x20\n        /* \"#utility.yul\":2152:2161   */\n      dup3\n        /* \"#utility.yul\":2148:2166   */\n      add\n        /* \"#utility.yul\":2140:2166   */\n      swap1\n      pop\n        /* \"#utility.yul\":2176:2247   */\n      tag_124\n        /* \"#utility.yul\":2244:2245   */\n      0x00\n        /* \"#utility.yul\":2233:2242   */\n      dup4\n        /* \"#utility.yul\":2229:2246   */\n      add\n        /* \"#utility.yul\":2220:2226   */\n      dup5\n        /* \"#utility.yul\":2176:2247   */\n      tag_113\n      jump\t// in\n    tag_124:\n        /* \"#utility.yul\":2032:2254   */\n      swap3\n      swap2\n      pop\n      pop\n      jump\t// out\n        /* \"#utility.yul\":2260:2482   */\n    tag_45:\n        /* \"#utility.yul\":2353:2357   */\n      0x00\n        /* \"#utility.yul\":2391:2393   */\n      0x20\n        /* \"#utility.yul\":2380:2389   */\n      dup3\n        /* \"#utility.yul\":2376:2394   */\n      add\n        /* \"#utility.yul\":2368:2394   */\n      swap1\n      pop\n        /* \"#utility.yul\":2404:2475   */\n      tag_126\n        /* \"#utility.yul\":2472:2473   */\n      0x00\n        /* \"#utility.yul\":2461:2470   */\n      dup4\n        /* \"#utility.yul\":2457:2474   */\n      add\n        /* \"#utility.yul\":2448:2454   */\n      dup5\n        /* \"#utility.yul\":2404:2475   */\n      tag_117\n      jump\t// in\n    tag_126:\n        /* \"#utility.yul\":2260:2482   */\n      swap3\n      swap2\n      pop\n      pop\n      jump\t// out\n        /* \"#utility.yul\":2569:3094   */\n    tag_85:\n        /* \"#utility.yul\":2608:2611   */\n      0x00\n        /* \"#utility.yul\":2627:2646   */\n      tag_130\n        /* \"#utility.yul\":2644:2645   */\n      dup3\n        /* \"#utility.yul\":2627:2646   */\n      tag_112\n      jump\t// in\n    tag_130:\n        /* \"#utility.yul\":2622:2646   */\n      swap2\n      pop\n        /* \"#utility.yul\":2660:2679   */\n      tag_131\n        /* \"#utility.yul\":2677:2678   */\n      dup4\n        /* \"#utility.yul\":2660:2679   */\n      tag_112\n      jump\t// in\n    tag_131:\n        /* \"#utility.yul\":2655:2679   */\n      swap3\n      pop\n        /* \"#utility.yul\":2848:2849   */\n      dup2\n        /* \"#utility.yul\":2780:2846   */\n      0x7fffffffffffffffffffffffffffffffffffffffffffffffffffffffffffffff\n        /* \"#utility.yul\":2776:2850   */\n      sub\n        /* \"#utility.yul\":2773:2774   */\n      dup4\n        /* \"#utility.yul\":2769:2851   */\n      sgt\n        /* \"#utility.yul\":2764:2765   */\n      0x00\n        /* \"#utility.yul\":2761:2762   */\n      dup4\n        /* \"#utility.yul\":2757:2766   */\n      slt\n        /* \"#utility.yul\":2750:2767   */\n      iszero\n        /* \"#utility.yul\":2746:2852   */\n      and\n        /* \"#utility.yul\":2743:2875   */\n      iszero\n      tag_132\n      jumpi\n        /* \"#utility.yul\":2855:2873   */\n      tag_133\n      tag_134\n      jump\t// in\n    tag_133:\n        /* \"#utility.yul\":2743:2875   */\n    tag_132:\n        /* \"#utility.yul\":3035:3036   */\n      dup2\n        /* \"#utility.yul\":2967:3033   */\n      0x8000000000000000000000000000000000000000000000000000000000000000\n        /* \"#utility.yul\":2963:3037   */\n      sub\n        /* \"#utility.yul\":2960:2961   */\n      dup4\n        /* \"#utility.yul\":2956:3038   */\n      slt\n        /* \"#utility.yul\":2952:2953   */\n      0x00\n        /* \"#utility.yul\":2949:2950   */\n      dup4\n        /* \"#utility.yul\":2945:2954   */\n      slt\n        /* \"#utility.yul\":2941:3039   */\n      and\n        /* \"#utility.yul\":2938:3062   */\n      iszero\n      tag_135\n      jumpi\n        /* \"#utility.yul\":3042:3060   */\n      tag_136\n      tag_134\n      jump\t// in\n    tag_136:\n        /* \"#utility.yul\":2938:3062   */\n    tag_135:\n        /* \"#utility.yul\":3086:3087   */\n      dup3\n        /* \"#utility.yul\":3083:3084   */\n      dup3\n        /* \"#utility.yul\":3079:3088   */\n      add\n        /* \"#utility.yul\":3072:3088   */\n      swap1\n      pop\n        /* \"#utility.yul\":2569:3094   */\n      swap3\n      swap2\n      pop\n      pop\n      jump\t// out\n        /* \"#utility.yul\":3100:3485   */\n    tag_60:\n        /* \"#utility.yul\":3139:3140   */\n      0x00\n        /* \"#utility.yul\":3156:3175   */\n      tag_138\n        /* \"#utility.yul\":3173:3174   */\n      dup3\n        /* \"#utility.yul\":3156:3175   */\n      tag_112\n      jump\t// in\n    tag_138:\n        /* \"#utility.yul\":3151:3175   */\n      swap2\n      pop\n        /* \"#utility.yul\":3189:3208   */\n      tag_139\n        /* \"#utility.yul\":3206:3207   */\n      dup4\n        /* \"#utility.yul\":3189:3208   */\n      tag_112\n      jump\t// in\n    tag_139:\n        /* \"#utility.yul\":3184:3208   */\n      swap3\n      pop\n        /* \"#utility.yul\":3227:3228   */\n      dup3\n        /* \"#utility.yul\":3217:3252   */\n      tag_140\n      jumpi\n        /* \"#utility.yul\":3232:3250   */\n      tag_141\n      tag_142\n      jump\t// in\n    tag_141:\n        /* \"#utility.yul\":3217:3252   */\n    tag_140:\n        /* \"#utility.yul\":3418:3419   */\n      0x01\n        /* \"#utility.yul\":3415:3416   */\n      0x00\n        /* \"#utility.yul\":3411:3420   */\n      sub\n        /* \"#utility.yul\":3408:3409   */\n      dup4\n        /* \"#utility.yul\":3405:3421   */\n      eq\n        /* \"#utility.yul\":3324:3390   */\n      0x8000000000000000000000000000000000000000000000000000000000000000\n        /* \"#utility.yul\":3321:3322   */\n      dup4\n        /* \"#utility.yul\":3318:3391   */\n      eq\n        /* \"#utility.yul\":3301:3431   */\n      and\n        /* \"#utility.yul\":3298:3454   */\n      iszero\n      tag_143\n      jumpi\n        /* \"#utility.yul\":3434:3452   */\n      tag_144\n      tag_134\n      jump\t// in\n    tag_144:\n        /* \"#utility.yul\":3298:3454   */\n    tag_143:\n        /* \"#utility.yul\":3477:3478   */\n      dup3\n        /* \"#utility.yul\":3474:3475   */\n      dup3\n        /* \"#utility.yul\":3469:3479   */\n      sdiv\n        /* \"#utility.yul\":3464:3479   */\n      swap1\n      pop\n        /* \"#utility.yul\":3100:3485   */\n      swap3\n      swap2\n      pop\n      pop\n      jump\t// out\n        /* \"#utility.yul\":3491:4482   */\n    tag_63:\n        /* \"#utility.yul\":3530:3537   */\n      0x00\n        /* \"#utility.yul\":3553:3572   */\n      tag_146\n        /* \"#utility.yul\":3570:3571   */\n      dup3\n        /* \"#utility.yul\":3553:3572   */\n      tag_112\n      jump\t// in\n    tag_146:\n        /* \"#utility.yul\":3548:3572   */\n      swap2\n      pop\n        /* \"#utility.yul\":3586:3605   */\n      tag_147\n        /* \"#utility.yul\":3603:3604   */\n      dup4\n        /* \"#utility.yul\":3586:3605   */\n      tag_112\n      jump\t// in\n    tag_147:\n        /* \"#utility.yul\":3581:3605   */\n      swap3\n      pop\n        /* \"#utility.yul\":3787:3788   */\n      dup3\n        /* \"#utility.yul\":3719:3785   */\n      0x7fffffffffffffffffffffffffffffffffffffffffffffffffffffffffffffff\n        /* \"#utility.yul\":3715:3789   */\n      div\n        /* \"#utility.yul\":3712:3713   */\n      dup3\n        /* \"#utility.yul\":3709:3790   */\n      gt\n        /* \"#utility.yul\":3704:3705   */\n      0x00\n        /* \"#utility.yul\":3701:3702   */\n      dup5\n        /* \"#utility.yul\":3697:3706   */\n      sgt\n        /* \"#utility.yul\":3693:3694   */\n      0x00\n        /* \"#utility.yul\":3690:3691   */\n      dup5\n        /* \"#utility.yul\":3686:3695   */\n      sgt\n        /* \"#utility.yul\":3682:3707   */\n      and\n        /* \"#utility.yul\":3678:3791   */\n      and\n        /* \"#utility.yul\":3675:3814   */\n      iszero\n      tag_148\n      jumpi\n        /* \"#utility.yul\":3794:3812   */\n      tag_149\n      tag_134\n      jump\t// in\n    tag_149:\n        /* \"#utility.yul\":3675:3814   */\n    tag_148:\n        /* \"#utility.yul\":3998:3999   */\n      dup2\n        /* \"#utility.yul\":3930:3996   */\n      0x8000000000000000000000000000000000000000000000000000000000000000\n        /* \"#utility.yul\":3925:4000   */\n      sdiv\n        /* \"#utility.yul\":3922:3923   */\n      dup4\n        /* \"#utility.yul\":3918:4001   */\n      slt\n        /* \"#utility.yul\":3913:3914   */\n      0x00\n        /* \"#utility.yul\":3910:3911   */\n      dup5\n        /* \"#utility.yul\":3906:3915   */\n      slt\n        /* \"#utility.yul\":3902:3903   */\n      0x00\n        /* \"#utility.yul\":3899:3900   */\n      dup5\n        /* \"#utility.yul\":3895:3904   */\n      sgt\n        /* \"#utility.yul\":3891:3916   */\n      and\n        /* \"#utility.yul\":3887:4002   */\n      and\n        /* \"#utility.yul\":3884:4025   */\n      iszero\n      tag_150\n      jumpi\n        /* \"#utility.yul\":4005:4023   */\n      tag_151\n      tag_134\n      jump\t// in\n    tag_151:\n        /* \"#utility.yul\":3884:4025   */\n    tag_150:\n        /* \"#utility.yul\":4209:4210   */\n      dup3\n        /* \"#utility.yul\":4141:4207   */\n      0x8000000000000000000000000000000000000000000000000000000000000000\n        /* \"#utility.yul\":4136:4211   */\n      sdiv\n        /* \"#utility.yul\":4133:4134   */\n      dup3\n        /* \"#utility.yul\":4129:4212   */\n      slt\n        /* \"#utility.yul\":4124:4125   */\n      0x00\n        /* \"#utility.yul\":4121:4122   */\n      dup5\n        /* \"#utility.yul\":4117:4126   */\n      sgt\n        /* \"#utility.yul\":4113:4114   */\n      0x00\n        /* \"#utility.yul\":4110:4111   */\n      dup5\n        /* \"#utility.yul\":4106:4115   */\n      slt\n        /* \"#utility.yul\":4102:4127   */\n      and\n        /* \"#utility.yul\":4098:4213   */\n      and\n        /* \"#utility.yul\":4095:4236   */\n      iszero\n      tag_152\n      jumpi\n        /* \"#utility.yul\":4216:4234   */\n      tag_153\n      tag_134\n      jump\t// in\n    tag_153:\n        /* \"#utility.yul\":4095:4236   */\n    tag_152:\n        /* \"#utility.yul\":4419:4420   */\n      dup3\n        /* \"#utility.yul\":4351:4417   */\n      0x7fffffffffffffffffffffffffffffffffffffffffffffffffffffffffffffff\n        /* \"#utility.yul\":4346:4421   */\n      sdiv\n        /* \"#utility.yul\":4343:4344   */\n      dup3\n        /* \"#utility.yul\":4339:4422   */\n      slt\n        /* \"#utility.yul\":4334:4335   */\n      0x00\n        /* \"#utility.yul\":4331:4332   */\n      dup5\n        /* \"#utility.yul\":4327:4336   */\n      slt\n        /* \"#utility.yul\":4323:4324   */\n      0x00\n        /* \"#utility.yul\":4320:4321   */\n      dup5\n        /* \"#utility.yul\":4316:4325   */\n      slt\n        /* \"#utility.yul\":4312:4337   */\n      and\n        /* \"#utility.yul\":4308:4423   */\n      and\n        /* \"#utility.yul\":4305:4446   */\n      iszero\n      tag_154\n      jumpi\n        /* \"#utility.yul\":4426:4444   */\n      tag_155\n      tag_134\n      jump\t// in\n    tag_155:\n        /* \"#utility.yul\":4305:4446   */\n    tag_154:\n        /* \"#utility.yul\":4474:4475   */\n      dup3\n        /* \"#utility.yul\":4471:4472   */\n      dup3\n        /* \"#utility.yul\":4467:4476   */\n      mul\n        /* \"#utility.yul\":4456:4476   */\n      swap1\n      pop\n        /* \"#utility.yul\":3491:4482   */\n      swap3\n      swap2\n      pop\n      pop\n      jump\t// out\n        /* \"#utility.yul\":4488:4836   */\n    tag_82:\n        /* \"#utility.yul\":4528:4535   */\n      0x00\n        /* \"#utility.yul\":4551:4571   */\n      tag_157\n        /* \"#utility.yul\":4569:4570   */\n      dup3\n        /* \"#utility.yul\":4551:4571   */\n      tag_120\n      jump\t// in\n    tag_157:\n        /* \"#utility.yul\":4546:4571   */\n      swap2\n      pop\n        /* \"#utility.yul\":4585:4605   */\n      tag_158\n        /* \"#utility.yul\":4603:4604   */\n      dup4\n        /* \"#utility.yul\":4585:4605   */\n      tag_120\n      jump\t// in\n    tag_158:\n        /* \"#utility.yul\":4580:4605   */\n      swap3\n      pop\n        /* \"#utility.yul\":4773:4774   */\n      dup2\n        /* \"#utility.yul\":4705:4771   */\n      0xffffffffffffffffffffffffffffffffffffffffffffffffffffffffffffffff\n        /* \"#utility.yul\":4701:4775   */\n      div\n        /* \"#utility.yul\":4698:4699   */\n      dup4\n        /* \"#utility.yul\":4695:4776   */\n      gt\n        /* \"#utility.yul\":4690:4691   */\n      dup3\n        /* \"#utility.yul\":4683:4692   */\n      iszero\n        /* \"#utility.yul\":4676:4693   */\n      iszero\n        /* \"#utility.yul\":4672:4777   */\n      and\n        /* \"#utility.yul\":4669:4800   */\n      iszero\n      tag_159\n      jumpi\n        /* \"#utility.yul\":4780:4798   */\n      tag_160\n      tag_134\n      jump\t// in\n    tag_160:\n        /* \"#utility.yul\":4669:4800   */\n    tag_159:\n        /* \"#utility.yul\":4828:4829   */\n      dup3\n        /* \"#utility.yul\":4825:4826   */\n      dup3\n        /* \"#utility.yul\":4821:4830   */\n      mul\n        /* \"#utility.yul\":4810:4830   */\n      swap1\n      pop\n        /* \"#utility.yul\":4488:4836   */\n      swap3\n      swap2\n      pop\n      pop\n      jump\t// out\n        /* \"#utility.yul\":4842:5369   */\n    tag_67:\n        /* \"#utility.yul\":4881:4885   */\n      0x00\n        /* \"#utility.yul\":4901:4920   */\n      tag_162\n        /* \"#utility.yul\":4918:4919   */\n      dup3\n        /* \"#utility.yul\":4901:4920   */\n      tag_112\n      jump\t// in\n    tag_162:\n        /* \"#utility.yul\":4896:4920   */\n      swap2\n      pop\n        /* \"#utility.yul\":4934:4953   */\n      tag_163\n        /* \"#utility.yul\":4951:4952   */\n      dup4\n        /* \"#utility.yul\":4934:4953   */\n      tag_112\n      jump\t// in\n    tag_163:\n        /* \"#utility.yul\":4929:4953   */\n      swap3\n      pop\n        /* \"#utility.yul\":5123:5124   */\n      dup3\n        /* \"#utility.yul\":5055:5121   */\n      0x8000000000000000000000000000000000000000000000000000000000000000\n        /* \"#utility.yul\":5051:5125   */\n      add\n        /* \"#utility.yul\":5048:5049   */\n      dup3\n        /* \"#utility.yul\":5044:5126   */\n      slt\n        /* \"#utility.yul\":5039:5040   */\n      0x00\n        /* \"#utility.yul\":5036:5037   */\n      dup5\n        /* \"#utility.yul\":5032:5041   */\n      slt\n        /* \"#utility.yul\":5025:5042   */\n      iszero\n        /* \"#utility.yul\":5021:5127   */\n      and\n        /* \"#utility.yul\":5018:5150   */\n      iszero\n      tag_164\n      jumpi\n        /* \"#utility.yul\":5130:5148   */\n      tag_165\n      tag_134\n      jump\t// in\n    tag_165:\n        /* \"#utility.yul\":5018:5150   */\n    tag_164:\n        /* \"#utility.yul\":5309:5310   */\n      dup3\n        /* \"#utility.yul\":5241:5307   */\n      0x7fffffffffffffffffffffffffffffffffffffffffffffffffffffffffffffff\n        /* \"#utility.yul\":5237:5311   */\n      add\n        /* \"#utility.yul\":5234:5235   */\n      dup3\n        /* \"#utility.yul\":5230:5312   */\n      sgt\n        /* \"#utility.yul\":5226:5227   */\n      0x00\n        /* \"#utility.yul\":5223:5224   */\n      dup5\n        /* \"#utility.yul\":5219:5228   */\n      slt\n        /* \"#utility.yul\":5215:5313   */\n      and\n        /* \"#utility.yul\":5212:5336   */\n      iszero\n      tag_166\n      jumpi\n        /* \"#utility.yul\":5316:5334   */\n      tag_167\n      tag_134\n      jump\t// in\n    tag_167:\n        /* \"#utility.yul\":5212:5336   */\n    tag_166:\n        /* \"#utility.yul\":5361:5362   */\n      dup3\n        /* \"#utility.yul\":5358:5359   */\n      dup3\n        /* \"#utility.yul\":5354:5363   */\n      sub\n        /* \"#utility.yul\":5346:5363   */\n      swap1\n      pop\n        /* \"#utility.yul\":4842:5369   */\n      swap3\n      swap2\n      pop\n      pop\n      jump\t// out\n        /* \"#utility.yul\":5375:5566   */\n    tag_80:\n        /* \"#utility.yul\":5415:5419   */\n      0x00\n        /* \"#utility.yul\":5435:5455   */\n      tag_169\n        /* \"#utility.yul\":5453:5454   */\n      dup3\n        /* \"#utility.yul\":5435:5455   */\n      tag_120\n      jump\t// in\n    tag_169:\n        /* \"#utility.yul\":5430:5455   */\n      swap2\n      pop\n        /* \"#utility.yul\":5469:5489   */\n      tag_170\n        /* \"#utility.yul\":5487:5488   */\n      dup4\n        /* \"#utility.yul\":5469:5489   */\n      tag_120\n      jump\t// in\n    tag_170:\n        /* \"#utility.yul\":5464:5489   */\n      swap3\n      pop\n        /* \"#utility.yul\":5508:5509   */\n      dup3\n        /* \"#utility.yul\":5505:5506   */\n      dup3\n        /* \"#utility.yul\":5502:5510   */\n      lt\n        /* \"#utility.yul\":5499:5533   */\n      iszero\n      tag_171\n      jumpi\n        /* \"#utility.yul\":5513:5531   */\n      tag_172\n      tag_134\n      jump\t// in\n    tag_172:\n        /* \"#utility.yul\":5499:5533   */\n    tag_171:\n        /* \"#utility.yul\":5558:5559   */\n      dup3\n        /* \"#utility.yul\":5555:5556   */\n      dup3\n        /* \"#utility.yul\":5551:5560   */\n      sub\n        /* \"#utility.yul\":5543:5560   */\n      swap1\n      pop\n        /* \"#utility.yul\":5375:5566   */\n      swap3\n      swap2\n      pop\n      pop\n      jump\t// out\n        /* \"#utility.yul\":5572:5648   */\n    tag_112:\n        /* \"#utility.yul\":5608:5615   */\n      0x00\n        /* \"#utility.yul\":5637:5642   */\n      dup2\n        /* \"#utility.yul\":5626:5642   */\n      swap1\n      pop\n        /* \"#utility.yul\":5572:5648   */\n      swap2\n      swap1\n      pop\n      jump\t// out\n        /* \"#utility.yul\":5654:5772   */\n    tag_116:\n        /* \"#utility.yul\":5691:5698   */\n      0x00\n        /* \"#utility.yul\":5731:5765   */\n      0xffffffffffffffffffffffffffffffff\n        /* \"#utility.yul\":5724:5729   */\n      dup3\n        /* \"#utility.yul\":5720:5766   */\n      and\n        /* \"#utility.yul\":5709:5766   */\n      swap1\n      pop\n        /* \"#utility.yul\":5654:5772   */\n      swap2\n      swap1\n      pop\n      jump\t// out\n        /* \"#utility.yul\":5778:5855   */\n    tag_120:\n        /* \"#utility.yul\":5815:5822   */\n      0x00\n        /* \"#utility.yul\":5844:5849   */\n      dup2\n        /* \"#utility.yul\":5833:5849   */\n      swap1\n      pop\n        /* \"#utility.yul\":5778:5855   */\n      swap2\n      swap1\n      pop\n      jump\t// out\n        /* \"#utility.yul\":5861:6089   */\n    tag_72:\n        /* \"#utility.yul\":5896:5899   */\n      0x00\n        /* \"#utility.yul\":5919:5942   */\n      tag_177\n        /* \"#utility.yul\":5936:5941   */\n      dup3\n        /* \"#utility.yul\":5919:5942   */\n      tag_112\n      jump\t// in\n    tag_177:\n        /* \"#utility.yul\":5910:5942   */\n      swap2\n      pop\n        /* \"#utility.yul\":5964:6030   */\n      0x8000000000000000000000000000000000000000000000000000000000000000\n        /* \"#utility.yul\":5957:5962   */\n      dup3\n        /* \"#utility.yul\":5954:6031   */\n      eq\n        /* \"#utility.yul\":5951:6054   */\n      iszero\n      tag_178\n      jumpi\n        /* \"#utility.yul\":6034:6052   */\n      tag_179\n      tag_134\n      jump\t// in\n    tag_179:\n        /* \"#utility.yul\":5951:6054   */\n    tag_178:\n        /* \"#utility.yul\":6077:6082   */\n      dup2\n        /* \"#utility.yul\":6074:6075   */\n      0x00\n        /* \"#utility.yul\":6070:6083   */\n      sub\n        /* \"#utility.yul\":6063:6083   */\n      swap1\n      pop\n        /* \"#utility.yul\":5861:6089   */\n      swap2\n      swap1\n      pop\n      jump\t// out\n        /* \"#utility.yul\":6095:6275   */\n    tag_134:\n        /* \"#utility.yul\":6143:6220   */\n      0x4e487b7100000000000000000000000000000000000000000000000000000000\n        /* \"#utility.yul\":6140:6141   */\n      0x00\n        /* \"#utility.yul\":6133:6221   */\n      mstore\n        /* \"#utility.yul\":6240:6244   */\n      0x11\n        /* \"#utility.yul\":6237:6238   */\n      0x04\n        /* \"#utility.yul\":6230:6245   */\n      mstore\n        /* \"#utility.yul\":6264:6268   */\n      0x24\n        /* \"#utility.yul\":6261:6262   */\n      0x00\n        /* \"#utility.yul\":6254:6269   */\n      revert\n        /* \"#utility.yul\":6281:6461   */\n    tag_142:\n        /* \"#utility.yul\":6329:6406   */\n      0x4e487b7100000000000000000000000000000000000000000000000000000000\n        /* \"#utility.yul\":6326:6327   */\n      0x00\n        /* \"#utility.yul\":6319:6407   */\n      mstore\n        /* \"#utility.yul\":6426:6430   */\n      0x12\n        /* \"#utility.yul\":6423:6424   */\n      0x04\n        /* \"#utility.yul\":6416:6431   */\n      mstore\n        /* \"#utility.yul\":6450:6454   */\n      0x24\n        /* \"#utility.yul\":6447:6448   */\n      0x00\n        /* \"#utility.yul\":6440:6455   */\n      revert\n        /* \"#utility.yul\":6590:6707   */\n    tag_98:\n        /* \"#utility.yul\":6699:6700   */\n      0x00\n        /* \"#utility.yul\":6696:6697   */\n      dup1\n        /* \"#utility.yul\":6689:6701   */\n      revert\n        /* \"#utility.yul\":6713:6833   */\n    tag_90:\n        /* \"#utility.yul\":6785:6808   */\n      tag_186\n        /* \"#utility.yul\":6802:6807   */\n      dup2\n        /* \"#utility.yul\":6785:6808   */\n      tag_112\n      jump\t// in\n    tag_186:\n        /* \"#utility.yul\":6778:6783   */\n      dup2\n        /* \"#utility.yul\":6775:6809   */\n      eq\n        /* \"#utility.yul\":6765:6827   */\n      tag_187\n      jumpi\n        /* \"#utility.yul\":6823:6824   */\n      0x00\n        /* \"#utility.yul\":6820:6821   */\n      dup1\n        /* \"#utility.yul\":6813:6825   */\n      revert\n        /* \"#utility.yul\":6765:6827   */\n    tag_187:\n        /* \"#utility.yul\":6713:6833   */\n      pop\n      jump\t// out\n        /* \"#utility.yul\":6839:6961   */\n    tag_94:\n        /* \"#utility.yul\":6912:6936   */\n      tag_189\n        /* \"#utility.yul\":6930:6935   */\n      dup2\n        /* \"#utility.yul\":6912:6936   */\n      tag_120\n      jump\t// in\n    tag_189:\n        /* \"#utility.yul\":6905:6910   */\n      dup2\n        /* \"#utility.yul\":6902:6937   */\n      eq\n        /* \"#utility.yul\":6892:6955   */\n      tag_190\n      jumpi\n        /* \"#utility.yul\":6951:6952   */\n      0x00\n        /* \"#utility.yul\":6948:6949   */\n      dup1\n        /* \"#utility.yul\":6941:6953   */\n      revert\n        /* \"#utility.yul\":6892:6955   */\n    tag_190:\n        /* \"#utility.yul\":6839:6961   */\n      pop\n      jump\t// out\n\n    auxdata: 0xa264697066735822122019cd86102411f82269ed940db08d4ca28f83ac9178cd74d1d65ae5262aa0100f64736f6c63430008070033\n}\n",
				"bytecode": {
					"linkReferences": {},
					"object": "608060405234801561001057600080fd5b506108f7806100206000396000f3fe608060405234801561001057600080fd5b506004361061009e5760003560e01c80634df7e3d0116100665780634df7e3d0146101815780637d8251421461019f5780637ea9e058146101cf57806383714834146101ff5780638f8a0d191461022f5761009e565b806309b7cdda146100a35780630dbe671f146100d3578063187983bf146100f15780634abdea38146101215780634c627bad14610151575b600080fd5b6100bd60048036038101906100b89190610395565b61025f565b6040516100ca919061042f565b60405180910390f35b6100db610275565b6040516100e8919061042f565b60405180910390f35b61010b60048036038101906101069190610395565b61027b565b604051610118919061042f565b60405180910390f35b61013b600480360381019061013691906103d5565b610291565b604051610148919061044a565b60405180910390f35b61016b60048036038101906101669190610395565b610298565b604051610178919061042f565b60405180910390f35b6101896102ae565b604051610196919061042f565b60405180910390f35b6101b960048036038101906101b49190610368565b6102b4565b6040516101c69190610465565b60405180910390f35b6101e960048036038101906101e49190610368565b6102d8565b6040516101f69190610465565b60405180910390f35b610219600480360381019061021491906103d5565b6102ed565b6040516102269190610465565b60405180910390f35b61024960048036038101906102449190610395565b610328565b604051610256919061042f565b60405180910390f35b6000818361026d9190610514565b905092915050565b60005481565b60008183610289919061057e565b905092915050565b6000919050565b600081836102a691906106ef565b905092915050565b60015481565b6000808213156102c6578190506102d3565b816102d0906107e7565b90505b919050565b600081826102e6919061057e565b9050919050565b6000600182116103005760019050610323565b6103156001836103109190610783565b6102ed565b826103209190610695565b90505b919050565b600081836103369190610480565b905092915050565b60008135905061034d81610893565b92915050565b600081359050610362816108aa565b92915050565b60006020828403121561037e5761037d61088e565b5b600061038c8482850161033e565b91505092915050565b600080604083850312156103ac576103ab61088e565b5b60006103ba8582860161033e565b92505060206103cb8582860161033e565b9150509250929050565b6000602082840312156103eb576103ea61088e565b5b60006103f984828501610353565b91505092915050565b61040b816107b7565b82525050565b61041a816107c1565b82525050565b610429816107dd565b82525050565b60006020820190506104446000830184610402565b92915050565b600060208201905061045f6000830184610411565b92915050565b600060208201905061047a6000830184610420565b92915050565b600061048b826107b7565b9150610496836107b7565b9250817f7fffffffffffffffffffffffffffffffffffffffffffffffffffffffffffffff038313600083121516156104d1576104d0610830565b5b817f800000000000000000000000000000000000000000000000000000000000000003831260008312161561050957610508610830565b5b828201905092915050565b600061051f826107b7565b915061052a836107b7565b92508261053a5761053961085f565b5b600160000383147f80000000000000000000000000000000000000000000000000000000000000008314161561057357610572610830565b5b828205905092915050565b6000610589826107b7565b9150610594836107b7565b9250827f7fffffffffffffffffffffffffffffffffffffffffffffffffffffffffffffff04821160008413600084131616156105d3576105d2610830565b5b817f800000000000000000000000000000000000000000000000000000000000000005831260008412600084131616156106105761060f610830565b5b827f8000000000000000000000000000000000000000000000000000000000000000058212600084136000841216161561064d5761064c610830565b5b827f7fffffffffffffffffffffffffffffffffffffffffffffffffffffffffffffff058212600084126000841216161561068a57610689610830565b5b828202905092915050565b60006106a0826107dd565b91506106ab836107dd565b9250817fffffffffffffffffffffffffffffffffffffffffffffffffffffffffffffffff04831182151516156106e4576106e3610830565b5b828202905092915050565b60006106fa826107b7565b9150610705836107b7565b9250827f8000000000000000000000000000000000000000000000000000000000000000018212600084121516156107405761073f610830565b5b827f7fffffffffffffffffffffffffffffffffffffffffffffffffffffffffffffff01821360008412161561077857610777610830565b5b828203905092915050565b600061078e826107dd565b9150610799836107dd565b9250828210156107ac576107ab610830565b5b828203905092915050565b6000819050919050565b60006fffffffffffffffffffffffffffffffff82169050919050565b6000819050919050565b60006107f2826107b7565b91507f800000000000000000000000000000000000000000000000000000000000000082141561082557610824610830565b5b816000039050919050565b7f4e487b7100000000000000000000000000000000000000000000000000000000600052601160045260246000fd5b7f4e487b7100000000000000000000000000000000000000000000000000000000600052601260045260246000fd5b600080fd5b61089c816107b7565b81146108a757600080fd5b50565b6108b3816107dd565b81146108be57600080fd5b5056fea264697066735822122019cd86102411f82269ed940db08d4ca28f83ac9178cd74d1d65ae5262aa0100f64736f6c63430008070033",
					"opcodes": "PUSH1 0x80 PUSH1 0x40 MSTORE CALLVALUE DUP1 ISZERO PUSH2 0x10 JUMPI PUSH1 0x0 DUP1 REVERT JUMPDEST POP PUSH2 0x8F7 DUP1 PUSH2 0x20 PUSH1 0x0 CODECOPY PUSH1 0x0 RETURN INVALID PUSH1 0x80 PUSH1 0x40 MSTORE CALLVALUE DUP1 ISZERO PUSH2 0x10 JUMPI PUSH1 0x0 DUP1 REVERT JUMPDEST POP PUSH1 0x4 CALLDATASIZE LT PUSH2 0x9E JUMPI PUSH1 0x0 CALLDATALOAD PUSH1 0xE0 SHR DUP1 PUSH4 0x4DF7E3D0 GT PUSH2 0x66 JUMPI DUP1 PUSH4 0x4DF7E3D0 EQ PUSH2 0x181 JUMPI DUP1 PUSH4 0x7D825142 EQ PUSH2 0x19F JUMPI DUP1 PUSH4 0x7EA9E058 EQ PUSH2 0x1CF JUMPI DUP1 PUSH4 0x83714834 EQ PUSH2 0x1FF JUMPI DUP1 PUSH4 0x8F8A0D19 EQ PUSH2 0x22F JUMPI PUSH2 0x9E JUMP JUMPDEST DUP1 PUSH4 0x9B7CDDA EQ PUSH2 0xA3 JUMPI DUP1 PUSH4 0xDBE671F EQ PUSH2 0xD3 JUMPI DUP1 PUSH4 0x187983BF EQ PUSH2 0xF1 JUMPI DUP1 PUSH4 0x4ABDEA38 EQ PUSH2 0x121 JUMPI DUP1 PUSH4 0x4C627BAD EQ PUSH2 0x151 JUMPI JUMPDEST PUSH1 0x0 DUP1 REVERT JUMPDEST PUSH2 0xBD PUSH1 0x4 DUP1 CALLDATASIZE SUB DUP2 ADD SWAP1 PUSH2 0xB8 SWAP2 SWAP1 PUSH2 0x395 JUMP JUMPDEST PUSH2 0x25F JUMP JUMPDEST PUSH1 0x40 MLOAD PUSH2 0xCA SWAP2 SWAP1 PUSH2 0x42F JUMP JUMPDEST PUSH1 0x40 MLOAD DUP1 SWAP2 SUB SWAP1 RETURN JUMPDEST PUSH2 0xDB PUSH2 0x275 JUMP JUMPDEST PUSH1 0x40 MLOAD PUSH2 0xE8 SWAP2 SWAP1 PUSH2 0x42F JUMP JUMPDEST PUSH1 0x40 MLOAD DUP1 SWAP2 SUB SWAP1 RETURN JUMPDEST PUSH2 0x10B PUSH1 0x4 DUP1 CALLDATASIZE SUB DUP2 ADD SWAP1 PUSH2 0x106 SWAP2 SWAP1 PUSH2 0x395 JUMP JUMPDEST PUSH2 0x27B JUMP JUMPDEST PUSH1 0x40 MLOAD PUSH2 0x118 SWAP2 SWAP1 PUSH2 0x42F JUMP JUMPDEST PUSH1 0x40 MLOAD DUP1 SWAP2 SUB SWAP1 RETURN JUMPDEST PUSH2 0x13B PUSH1 0x4 DUP1 CALLDATASIZE SUB DUP2 ADD SWAP1 PUSH2 0x136 SWAP2 SWAP1 PUSH2 0x3D5 JUMP JUMPDEST PUSH2 0x291 JUMP JUMPDEST PUSH1 0x40 MLOAD PUSH2 0x148 SWAP2 SWAP1 PUSH2 0x44A JUMP JUMPDEST PUSH1 0x40 MLOAD DUP1 SWAP2 SUB SWAP1 RETURN JUMPDEST PUSH2 0x16B PUSH1 0x4 DUP1 CALLDATASIZE SUB DUP2 ADD SWAP1 PUSH2 0x166 SWAP2 SWAP1 PUSH2 0x395 JUMP JUMPDEST PUSH2 0x298 JUMP JUMPDEST PUSH1 0x40 MLOAD PUSH2 0x178 SWAP2 SWAP1 PUSH2 0x42F JUMP JUMPDEST PUSH1 0x40 MLOAD DUP1 SWAP2 SUB SWAP1 RETURN JUMPDEST PUSH2 0x189 PUSH2 0x2AE JUMP JUMPDEST PUSH1 0x40 MLOAD PUSH2 0x196 SWAP2 SWAP1 PUSH2 0x42F JUMP JUMPDEST PUSH1 0x40 MLOAD DUP1 SWAP2 SUB SWAP1 RETURN JUMPDEST PUSH2 0x1B9 PUSH1 0x4 DUP1 CALLDATASIZE SUB DUP2 ADD SWAP1 PUSH2 0x1B4 SWAP2 SWAP1 PUSH2 0x368 JUMP JUMPDEST PUSH2 0x2B4 JUMP JUMPDEST PUSH1 0x40 MLOAD PUSH2 0x1C6 SWAP2 SWAP1 PUSH2 0x465 JUMP JUMPDEST PUSH1 0x40 MLOAD DUP1 SWAP2 SUB SWAP1 RETURN JUMPDEST PUSH2 0x1E9 PUSH1 0x4 DUP1 CALLDATASIZE SUB DUP2 ADD SWAP1 PUSH2 0x1E4 SWAP2 SWAP1 PUSH2 0x368 JUMP JUMPDEST PUSH2 0x2D8 JUMP JUMPDEST PUSH1 0x40 MLOAD PUSH2 0x1F6 SWAP2 SWAP1 PUSH2 0x465 JUMP JUMPDEST PUSH1 0x40 MLOAD DUP1 SWAP2 SUB SWAP1 RETURN JUMPDEST PUSH2 0x219 PUSH1 0x4 DUP1 CALLDATASIZE SUB DUP2 ADD SWAP1 PUSH2 0x214 SWAP2 SWAP1 PUSH2 0x3D5 JUMP JUMPDEST PUSH2 0x2ED JUMP JUMPDEST PUSH1 0x40 MLOAD PUSH2 0x226 SWAP2 SWAP1 PUSH2 0x465 JUMP JUMPDEST PUSH1 0x40 MLOAD DUP1 SWAP2 SUB SWAP1 RETURN JUMPDEST PUSH2 0x249 PUSH1 0x4 DUP1 CALLDATASIZE SUB DUP2 ADD SWAP1 PUSH2 0x244 SWAP2 SWAP1 PUSH2 0x395 JUMP JUMPDEST PUSH2 0x328 JUMP JUMPDEST PUSH1 0x40 MLOAD PUSH2 0x256 SWAP2 SWAP1 PUSH2 0x42F JUMP JUMPDEST PUSH1 0x40 MLOAD DUP1 SWAP2 SUB SWAP1 RETURN JUMPDEST PUSH1 0x0 DUP2 DUP4 PUSH2 0x26D SWAP2 SWAP1 PUSH2 0x514 JUMP JUMPDEST SWAP1 POP SWAP3 SWAP2 POP POP JUMP JUMPDEST PUSH1 0x0 SLOAD DUP2 JUMP JUMPDEST PUSH1 0x0 DUP2 DUP4 PUSH2 0x289 SWAP2 SWAP1 PUSH2 0x57E JUMP JUMPDEST SWAP1 POP SWAP3 SWAP2 POP POP JUMP JUMPDEST PUSH1 0x0 SWAP2 SWAP1 POP JUMP JUMPDEST PUSH1 0x0 DUP2 DUP4 PUSH2 0x2A6 SWAP2 SWAP1 PUSH2 0x6EF JUMP JUMPDEST SWAP1 POP SWAP3 SWAP2 POP POP JUMP JUMPDEST PUSH1 0x1 SLOAD DUP2 JUMP JUMPDEST PUSH1 0x0 DUP1 DUP3 SGT ISZERO PUSH2 0x2C6 JUMPI DUP2 SWAP1 POP PUSH2 0x2D3 JUMP JUMPDEST DUP2 PUSH2 0x2D0 SWAP1 PUSH2 0x7E7 JUMP JUMPDEST SWAP1 POP JUMPDEST SWAP2 SWAP1 POP JUMP JUMPDEST PUSH1 0x0 DUP2 DUP3 PUSH2 0x2E6 SWAP2 SWAP1 PUSH2 0x57E JUMP JUMPDEST SWAP1 POP SWAP2 SWAP1 POP JUMP JUMPDEST PUSH1 0x0 PUSH1 0x1 DUP3 GT PUSH2 0x300 JUMPI PUSH1 0x1 SWAP1 POP PUSH2 0x323 JUMP JUMPDEST PUSH2 0x315 PUSH1 0x1 DUP4 PUSH2 0x310 SWAP2 SWAP1 PUSH2 0x783 JUMP JUMPDEST PUSH2 0x2ED JUMP JUMPDEST DUP3 PUSH2 0x320 SWAP2 SWAP1 PUSH2 0x695 JUMP JUMPDEST SWAP1 POP JUMPDEST SWAP2 SWAP1 POP JUMP JUMPDEST PUSH1 0x0 DUP2 DUP4 PUSH2 0x336 SWAP2 SWAP1 PUSH2 0x480 JUMP JUMPDEST SWAP1 POP SWAP3 SWAP2 POP POP JUMP JUMPDEST PUSH1 0x0 DUP2 CALLDATALOAD SWAP1 POP PUSH2 0x34D DUP2 PUSH2 0x893 JUMP JUMPDEST SWAP3 SWAP2 POP POP JUMP JUMPDEST PUSH1 0x0 DUP2 CALLDATALOAD SWAP1 POP PUSH2 0x362 DUP2 PUSH2 0x8AA JUMP JUMPDEST SWAP3 SWAP2 POP POP JUMP JUMPDEST PUSH1 0x0 PUSH1 0x20 DUP3 DUP5 SUB SLT ISZERO PUSH2 0x37E JUMPI PUSH2 0x37D PUSH2 0x88E JUMP JUMPDEST JUMPDEST PUSH1 0x0 PUSH2 0x38C DUP5 DUP3 DUP6 ADD PUSH2 0x33E JUMP JUMPDEST SWAP2 POP POP SWAP3 SWAP2 POP POP JUMP JUMPDEST PUSH1 0x0 DUP1 PUSH1 0x40 DUP4 DUP6 SUB SLT ISZERO PUSH2 0x3AC JUMPI PUSH2 0x3AB PUSH2 0x88E JUMP JUMPDEST JUMPDEST PUSH1 0x0 PUSH2 0x3BA DUP6 DUP3 DUP7 ADD PUSH2 0x33E JUMP JUMPDEST SWAP3 POP POP PUSH1 0x20 PUSH2 0x3CB DUP6 DUP3 DUP7 ADD PUSH2 0x33E JUMP JUMPDEST SWAP2 POP POP SWAP3 POP SWAP3 SWAP1 POP JUMP JUMPDEST PUSH1 0x0 PUSH1 0x20 DUP3 DUP5 SUB SLT ISZERO PUSH2 0x3EB JUMPI PUSH2 0x3EA PUSH2 0x88E JUMP JUMPDEST JUMPDEST PUSH1 0x0 PUSH2 0x3F9 DUP5 DUP3 DUP6 ADD PUSH2 0x353 JUMP JUMPDEST SWAP2 POP POP SWAP3 SWAP2 POP POP JUMP JUMPDEST PUSH2 0x40B DUP2 PUSH2 0x7B7 JUMP JUMPDEST DUP3 MSTORE POP POP JUMP JUMPDEST PUSH2 0x41A DUP2 PUSH2 0x7C1 JUMP JUMPDEST DUP3 MSTORE POP POP JUMP JUMPDEST PUSH2 0x429 DUP2 PUSH2 0x7DD JUMP JUMPDEST DUP3 MSTORE POP POP JUMP JUMPDEST PUSH1 0x0 PUSH1 0x20 DUP3 ADD SWAP1 POP PUSH2 0x444 PUSH1 0x0 DUP4 ADD DUP5 PUSH2 0x402 JUMP JUMPDEST SWAP3 SWAP2 POP POP JUMP JUMPDEST PUSH1 0x0 PUSH1 0x20 DUP3 ADD SWAP1 POP PUSH2 0x45F PUSH1 0x0 DUP4 ADD DUP5 PUSH2 0x411 JUMP JUMPDEST SWAP3 SWAP2 POP POP JUMP JUMPDEST PUSH1 0x0 PUSH1 0x20 DUP3 ADD SWAP1 POP PUSH2 0x47A PUSH1 0x0 DUP4 ADD DUP5 PUSH2 0x420 JUMP JUMPDEST SWAP3 SWAP2 POP POP JUMP JUMPDEST PUSH1 0x0 PUSH2 0x48B DUP3 PUSH2 0x7B7 JUMP JUMPDEST SWAP2 POP PUSH2 0x496 DUP4 PUSH2 0x7B7 JUMP JUMPDEST SWAP3 POP DUP2 PUSH32 0x7FFFFFFFFFFFFFFFFFFFFFFFFFFFFFFFFFFFFFFFFFFFFFFFFFFFFFFFFFFFFFFF SUB DUP4 SGT PUSH1 0x0 DUP4 SLT ISZERO AND ISZERO PUSH2 0x4D1 JUMPI PUSH2 0x4D0 PUSH2 0x830 JUMP JUMPDEST JUMPDEST DUP2 PUSH32 0x8000000000000000000000000000000000000000000000000000000000000000 SUB DUP4 SLT PUSH1 0x0 DUP4 SLT AND ISZERO PUSH2 0x509 JUMPI PUSH2 0x508 PUSH2 0x830 JUMP JUMPDEST JUMPDEST DUP3 DUP3 ADD SWAP1 POP SWAP3 SWAP2 POP POP JUMP JUMPDEST PUSH1 0x0 PUSH2 0x51F DUP3 PUSH2 0x7B7 JUMP JUMPDEST SWAP2 POP PUSH2 0x52A DUP4 PUSH2 0x7B7 JUMP JUMPDEST SWAP3 POP DUP3 PUSH2 0x53A JUMPI PUSH2 0x539 PUSH2 0x85F JUMP JUMPDEST JUMPDEST PUSH1 0x1 PUSH1 0x0 SUB DUP4 EQ PUSH32 0x8000000000000000000000000000000000000000000000000000000000000000 DUP4 EQ AND ISZERO PUSH2 0x573 JUMPI PUSH2 0x572 PUSH2 0x830 JUMP JUMPDEST JUMPDEST DUP3 DUP3 SDIV SWAP1 POP SWAP3 SWAP2 POP POP JUMP JUMPDEST PUSH1 0x0 PUSH2 0x589 DUP3 PUSH2 0x7B7 JUMP JUMPDEST SWAP2 POP PUSH2 0x594 DUP4 PUSH2 0x7B7 JUMP JUMPDEST SWAP3 POP DUP3 PUSH32 0x7FFFFFFFFFFFFFFFFFFFFFFFFFFFFFFFFFFFFFFFFFFFFFFFFFFFFFFFFFFFFFFF DIV DUP3 GT PUSH1 0x0 DUP5 SGT PUSH1 0x0 DUP5 SGT AND AND ISZERO PUSH2 0x5D3 JUMPI PUSH2 0x5D2 PUSH2 0x830 JUMP JUMPDEST JUMPDEST DUP2 PUSH32 0x8000000000000000000000000000000000000000000000000000000000000000 SDIV DUP4 SLT PUSH1 0x0 DUP5 SLT PUSH1 0x0 DUP5 SGT AND AND ISZERO PUSH2 0x610 JUMPI PUSH2 0x60F PUSH2 0x830 JUMP JUMPDEST JUMPDEST DUP3 PUSH32 0x8000000000000000000000000000000000000000000000000000000000000000 SDIV DUP3 SLT PUSH1 0x0 DUP5 SGT PUSH1 0x0 DUP5 SLT AND AND ISZERO PUSH2 0x64D JUMPI PUSH2 0x64C PUSH2 0x830 JUMP JUMPDEST JUMPDEST DUP3 PUSH32 0x7FFFFFFFFFFFFFFFFFFFFFFFFFFFFFFFFFFFFFFFFFFFFFFFFFFFFFFFFFFFFFFF SDIV DUP3 SLT PUSH1 0x0 DUP5 SLT PUSH1 0x0 DUP5 SLT AND AND ISZERO PUSH2 0x68A JUMPI PUSH2 0x689 PUSH2 0x830 JUMP JUMPDEST JUMPDEST DUP3 DUP3 MUL SWAP1 POP SWAP3 SWAP2 POP POP JUMP JUMPDEST PUSH1 0x0 PUSH2 0x6A0 DUP3 PUSH2 0x7DD JUMP JUMPDEST SWAP2 POP PUSH2 0x6AB DUP4 PUSH2 0x7DD JUMP JUMPDEST SWAP3 POP DUP2 PUSH32 0xFFFFFFFFFFFFFFFFFFFFFFFFFFFFFFFFFFFFFFFFFFFFFFFFFFFFFFFFFFFFFFFF DIV DUP4 GT DUP3 ISZERO ISZERO AND ISZERO PUSH2 0x6E4 JUMPI PUSH2 0x6E3 PUSH2 0x830 JUMP JUMPDEST JUMPDEST DUP3 DUP3 MUL SWAP1 POP SWAP3 SWAP2 POP POP JUMP JUMPDEST PUSH1 0x0 PUSH2 0x6FA DUP3 PUSH2 0x7B7 JUMP JUMPDEST SWAP2 POP PUSH2 0x705 DUP4 PUSH2 0x7B7 JUMP JUMPDEST SWAP3 POP DUP3 PUSH32 0x8000000000000000000000000000000000000000000000000000000000000000 ADD DUP3 SLT PUSH1 0x0 DUP5 SLT ISZERO AND ISZERO PUSH2 0x740 JUMPI PUSH2 0x73F PUSH2 0x830 JUMP JUMPDEST JUMPDEST DUP3 PUSH32 0x7FFFFFFFFFFFFFFFFFFFFFFFFFFFFFFFFFFFFFFFFFFFFFFFFFFFFFFFFFFFFFFF ADD DUP3 SGT PUSH1 0x0 DUP5 SLT AND ISZERO PUSH2 0x778 JUMPI PUSH2 0x777 PUSH2 0x830 JUMP JUMPDEST JUMPDEST DUP3 DUP3 SUB SWAP1 POP SWAP3 SWAP2 POP POP JUMP JUMPDEST PUSH1 0x0 PUSH2 0x78E DUP3 PUSH2 0x7DD JUMP JUMPDEST SWAP2 POP PUSH2 0x799 DUP4 PUSH2 0x7DD JUMP JUMPDEST SWAP3 POP DUP3 DUP3 LT ISZERO PUSH2 0x7AC JUMPI PUSH2 0x7AB PUSH2 0x830 JUMP JUMPDEST JUMPDEST DUP3 DUP3 SUB SWAP1 POP SWAP3 SWAP2 POP POP JUMP JUMPDEST PUSH1 0x0 DUP2 SWAP1 POP SWAP2 SWAP1 POP JUMP JUMPDEST PUSH1 0x0 PUSH16 0xFFFFFFFFFFFFFFFFFFFFFFFFFFFFFFFF DUP3 AND SWAP1 POP SWAP2 SWAP1 POP JUMP JUMPDEST PUSH1 0x0 DUP2 SWAP1 POP SWAP2 SWAP1 POP JUMP JUMPDEST PUSH1 0x0 PUSH2 0x7F2 DUP3 PUSH2 0x7B7 JUMP JUMPDEST SWAP2 POP PUSH32 0x8000000000000000000000000000000000000000000000000000000000000000 DUP3 EQ ISZERO PUSH2 0x825 JUMPI PUSH2 0x824 PUSH2 0x830 JUMP JUMPDEST JUMPDEST DUP2 PUSH1 0x0 SUB SWAP1 POP SWAP2 SWAP1 POP JUMP JUMPDEST PUSH32 0x4E487B7100000000000000000000000000000000000000000000000000000000 PUSH1 0x0 MSTORE PUSH1 0x11 PUSH1 0x4 MSTORE PUSH1 0x24 PUSH1 0x0 REVERT JUMPDEST PUSH32 0x4E487B7100000000000000000000000000000000000000000000000000000000 PUSH1 0x0 MSTORE PUSH1 0x12 PUSH1 0x4 MSTORE PUSH1 0x24 PUSH1 0x0 REVERT JUMPDEST PUSH1 0x0 DUP1 REVERT JUMPDEST PUSH2 0x89C DUP2 PUSH2 0x7B7 JUMP JUMPDEST DUP2 EQ PUSH2 0x8A7 JUMPI PUSH1 0x0 DUP1 REVERT JUMPDEST POP JUMP JUMPDEST PUSH2 0x8B3 DUP2 PUSH2 0x7DD JUMP JUMPDEST DUP2 EQ PUSH2 0x8BE JUMPI PUSH1 0x0 DUP1 REVERT JUMPDEST POP JUMP INVALID LOG2 PUSH5 0x6970667358 0x22 SLT KECCAK256 NOT 0xCD DUP7 LT 0x24 GT 0xF8 0x22 PUSH10 0xED940DB08D4CA28F83AC SWAP2 PUSH25 0xCD74D1D65AE5262AA0100F64736F6C63430008070033000000 "
				},
				"gasEstimates": {
					"creation": {
						"codeDepositCost": "459000",
						"executionCost": "493",
						"totalCost": "459493"
					},
					"external": {
						"a()": "2452",
						"b()": "2429",
						"cuadrado(int256)": "infinite",
						"division(int256,int256)": "infinite",
						"factorial(uint256)": "infinite",
						"multiplicacion(int256,int256)": "infinite",
						"raizCuadradaUnsigned(uint256)": "667",
						"resta(int256,int256)": "infinite",
						"suma(int256,int256)": "infinite",
						"valorAbsoluto(int256)": "infinite"
					}
				},
				"methodIdentifiers": {
					"a()": "0dbe671f",
					"b()": "4df7e3d0",
					"cuadrado(int256)": "7ea9e058",
					"division(int256,int256)": "09b7cdda",
					"factorial(uint256)": "83714834",
					"multiplicacion(int256,int256)": "187983bf",
					"raizCuadradaUnsigned(uint256)": "4abdea38",
					"resta(int256,int256)": "4c627bad",
					"suma(int256,int256)": "8f8a0d19",
					"valorAbsoluto(int256)": "7d825142"
				}
			},
			"storageLayout": {
				"storage": [
					{
						"astId": 3,
						"contract": "Documents/GitHub/SOLIDITY-REMIX/5ef069451e67668750287d64bc5f8bae/calculadora.sol:Calculadora",
						"label": "a",
						"offset": 0,
						"slot": "0",
						"type": "t_int256"
					},
					{
						"astId": 5,
						"contract": "Documents/GitHub/SOLIDITY-REMIX/5ef069451e67668750287d64bc5f8bae/calculadora.sol:Calculadora",
						"label": "b",
						"offset": 0,
						"slot": "1",
						"type": "t_int256"
					}
				],
				"types": {
					"t_int256": {
						"encoding": "inplace",
						"label": "int256",
						"numberOfBytes": "32"
					}
				}
			},
			"userdoc": {
				"kind": "user",
				"methods": {},
				"version": 1
			}
		}
	}
}