{
	"Documents/GitHub/SOLIDITY-REMIX/5ef069451e67668750287d64bc5f8bae/calculadora.sol": {
		"Calculadora": {
			"abi": [
				{
					"inputs": [
						{
							"internalType": "int256",
							"name": "a",
							"type": "int256"
						},
						{
							"internalType": "int256",
							"name": "b",
							"type": "int256"
						}
					],
					"name": "multiplicacion",
					"outputs": [
						{
							"internalType": "int256",
							"name": "",
							"type": "int256"
						}
					],
					"stateMutability": "view",
					"type": "function"
				},
				{
					"inputs": [
						{
							"internalType": "int256",
							"name": "a",
							"type": "int256"
						},
						{
							"internalType": "int256",
							"name": "b",
							"type": "int256"
						}
					],
					"name": "resta",
					"outputs": [
						{
							"internalType": "int256",
							"name": "",
							"type": "int256"
						}
					],
					"stateMutability": "view",
					"type": "function"
				},
				{
					"inputs": [
						{
							"internalType": "int256",
							"name": "a",
							"type": "int256"
						},
						{
							"internalType": "int256",
							"name": "b",
							"type": "int256"
						}
					],
					"name": "suma",
					"outputs": [
						{
							"internalType": "int256",
							"name": "",
							"type": "int256"
						}
					],
					"stateMutability": "view",
					"type": "function"
				}
			],
			"devdoc": {
				"kind": "dev",
				"methods": {},
				"version": 1
			},
			"evm": {
				"assembly": "    /* \"Documents/GitHub/SOLIDITY-REMIX/5ef069451e67668750287d64bc5f8bae/calculadora.sol\":94:694  contract Calculadora {\r... */\n  mstore(0x40, 0x80)\n  callvalue\n  dup1\n  iszero\n  tag_1\n  jumpi\n  0x00\n  dup1\n  revert\ntag_1:\n  pop\n  dataSize(sub_0)\n  dup1\n  dataOffset(sub_0)\n  0x00\n  codecopy\n  0x00\n  return\nstop\n\nsub_0: assembly {\n        /* \"Documents/GitHub/SOLIDITY-REMIX/5ef069451e67668750287d64bc5f8bae/calculadora.sol\":94:694  contract Calculadora {\r... */\n      mstore(0x40, 0x80)\n      callvalue\n      dup1\n      iszero\n      tag_1\n      jumpi\n      0x00\n      dup1\n      revert\n    tag_1:\n      pop\n      jumpi(tag_2, lt(calldatasize, 0x04))\n      shr(0xe0, calldataload(0x00))\n      dup1\n      0x187983bf\n      eq\n      tag_3\n      jumpi\n      dup1\n      0x4c627bad\n      eq\n      tag_4\n      jumpi\n      dup1\n      0x8f8a0d19\n      eq\n      tag_5\n      jumpi\n    tag_2:\n      0x00\n      dup1\n      revert\n        /* \"Documents/GitHub/SOLIDITY-REMIX/5ef069451e67668750287d64bc5f8bae/calculadora.sol\":346:452  function multiplicacion(int a, int b) public view  returns (int){\r... */\n    tag_3:\n      tag_6\n      0x04\n      dup1\n      calldatasize\n      sub\n      dup2\n      add\n      swap1\n      tag_7\n      swap2\n      swap1\n      tag_8\n      jump\t// in\n    tag_7:\n      tag_9\n      jump\t// in\n    tag_6:\n      mload(0x40)\n      tag_10\n      swap2\n      swap1\n      tag_11\n      jump\t// in\n    tag_10:\n      mload(0x40)\n      dup1\n      swap2\n      sub\n      swap1\n      return\n        /* \"Documents/GitHub/SOLIDITY-REMIX/5ef069451e67668750287d64bc5f8bae/calculadora.sol\":247:338  function resta(int a, int b) public view returns (int){\r... */\n    tag_4:\n      tag_12\n      0x04\n      dup1\n      calldatasize\n      sub\n      dup2\n      add\n      swap1\n      tag_13\n      swap2\n      swap1\n      tag_8\n      jump\t// in\n    tag_13:\n      tag_14\n      jump\t// in\n    tag_12:\n      mload(0x40)\n      tag_15\n      swap2\n      swap1\n      tag_11\n      jump\t// in\n    tag_15:\n      mload(0x40)\n      dup1\n      swap2\n      sub\n      swap1\n      return\n        /* \"Documents/GitHub/SOLIDITY-REMIX/5ef069451e67668750287d64bc5f8bae/calculadora.sol\":150:239  function suma(int a, int b) public view returns (int){\r... */\n    tag_5:\n      tag_16\n      0x04\n      dup1\n      calldatasize\n      sub\n      dup2\n      add\n      swap1\n      tag_17\n      swap2\n      swap1\n      tag_8\n      jump\t// in\n    tag_17:\n      tag_18\n      jump\t// in\n    tag_16:\n      mload(0x40)\n      tag_19\n      swap2\n      swap1\n      tag_11\n      jump\t// in\n    tag_19:\n      mload(0x40)\n      dup1\n      swap2\n      sub\n      swap1\n      return\n        /* \"Documents/GitHub/SOLIDITY-REMIX/5ef069451e67668750287d64bc5f8bae/calculadora.sol\":346:452  function multiplicacion(int a, int b) public view  returns (int){\r... */\n    tag_9:\n        /* \"Documents/GitHub/SOLIDITY-REMIX/5ef069451e67668750287d64bc5f8bae/calculadora.sol\":406:409  int */\n      0x00\n        /* \"Documents/GitHub/SOLIDITY-REMIX/5ef069451e67668750287d64bc5f8bae/calculadora.sol\":428:444  a.multiplicar(b) */\n      tag_21\n        /* \"Documents/GitHub/SOLIDITY-REMIX/5ef069451e67668750287d64bc5f8bae/calculadora.sol\":442:443  b */\n      dup3\n        /* \"Documents/GitHub/SOLIDITY-REMIX/5ef069451e67668750287d64bc5f8bae/calculadora.sol\":428:429  a */\n      dup5\n        /* \"Documents/GitHub/SOLIDITY-REMIX/5ef069451e67668750287d64bc5f8bae/calculadora.sol\":428:441  a.multiplicar */\n      tag_22\n      swap1\n        /* \"Documents/GitHub/SOLIDITY-REMIX/5ef069451e67668750287d64bc5f8bae/calculadora.sol\":428:444  a.multiplicar(b) */\n      swap2\n      swap1\n      0xffffffff\n      and\n      jump\t// in\n    tag_21:\n        /* \"Documents/GitHub/SOLIDITY-REMIX/5ef069451e67668750287d64bc5f8bae/calculadora.sol\":421:444  return a.multiplicar(b) */\n      swap1\n      pop\n        /* \"Documents/GitHub/SOLIDITY-REMIX/5ef069451e67668750287d64bc5f8bae/calculadora.sol\":346:452  function multiplicacion(int a, int b) public view  returns (int){\r... */\n      swap3\n      swap2\n      pop\n      pop\n      jump\t// out\n        /* \"Documents/GitHub/SOLIDITY-REMIX/5ef069451e67668750287d64bc5f8bae/calculadora.sol\":247:338  function resta(int a, int b) public view returns (int){\r... */\n    tag_14:\n        /* \"Documents/GitHub/SOLIDITY-REMIX/5ef069451e67668750287d64bc5f8bae/calculadora.sol\":297:300  int */\n      0x00\n        /* \"Documents/GitHub/SOLIDITY-REMIX/5ef069451e67668750287d64bc5f8bae/calculadora.sol\":319:330  a.restar(b) */\n      tag_24\n        /* \"Documents/GitHub/SOLIDITY-REMIX/5ef069451e67668750287d64bc5f8bae/calculadora.sol\":328:329  b */\n      dup3\n        /* \"Documents/GitHub/SOLIDITY-REMIX/5ef069451e67668750287d64bc5f8bae/calculadora.sol\":319:320  a */\n      dup5\n        /* \"Documents/GitHub/SOLIDITY-REMIX/5ef069451e67668750287d64bc5f8bae/calculadora.sol\":319:327  a.restar */\n      tag_25\n      swap1\n        /* \"Documents/GitHub/SOLIDITY-REMIX/5ef069451e67668750287d64bc5f8bae/calculadora.sol\":319:330  a.restar(b) */\n      swap2\n      swap1\n      0xffffffff\n      and\n      jump\t// in\n    tag_24:\n        /* \"Documents/GitHub/SOLIDITY-REMIX/5ef069451e67668750287d64bc5f8bae/calculadora.sol\":312:330  return a.restar(b) */\n      swap1\n      pop\n        /* \"Documents/GitHub/SOLIDITY-REMIX/5ef069451e67668750287d64bc5f8bae/calculadora.sol\":247:338  function resta(int a, int b) public view returns (int){\r... */\n      swap3\n      swap2\n      pop\n      pop\n      jump\t// out\n        /* \"Documents/GitHub/SOLIDITY-REMIX/5ef069451e67668750287d64bc5f8bae/calculadora.sol\":150:239  function suma(int a, int b) public view returns (int){\r... */\n    tag_18:\n        /* \"Documents/GitHub/SOLIDITY-REMIX/5ef069451e67668750287d64bc5f8bae/calculadora.sol\":199:202  int */\n      0x00\n        /* \"Documents/GitHub/SOLIDITY-REMIX/5ef069451e67668750287d64bc5f8bae/calculadora.sol\":221:231  a.sumar(b) */\n      tag_27\n        /* \"Documents/GitHub/SOLIDITY-REMIX/5ef069451e67668750287d64bc5f8bae/calculadora.sol\":229:230  b */\n      dup3\n        /* \"Documents/GitHub/SOLIDITY-REMIX/5ef069451e67668750287d64bc5f8bae/calculadora.sol\":221:222  a */\n      dup5\n        /* \"Documents/GitHub/SOLIDITY-REMIX/5ef069451e67668750287d64bc5f8bae/calculadora.sol\":221:228  a.sumar */\n      tag_28\n      swap1\n        /* \"Documents/GitHub/SOLIDITY-REMIX/5ef069451e67668750287d64bc5f8bae/calculadora.sol\":221:231  a.sumar(b) */\n      swap2\n      swap1\n      0xffffffff\n      and\n      jump\t// in\n    tag_27:\n        /* \"Documents/GitHub/SOLIDITY-REMIX/5ef069451e67668750287d64bc5f8bae/calculadora.sol\":214:231  return a.sumar(b) */\n      swap1\n      pop\n        /* \"Documents/GitHub/SOLIDITY-REMIX/5ef069451e67668750287d64bc5f8bae/calculadora.sol\":150:239  function suma(int a, int b) public view returns (int){\r... */\n      swap3\n      swap2\n      pop\n      pop\n      jump\t// out\n        /* \"Documents/GitHub/SOLIDITY-REMIX/5ef069451e67668750287d64bc5f8bae/libmates.sol\":365:463  function multiplicar(int _a,int _b) internal pure returns(int) {\r... */\n    tag_22:\n        /* \"Documents/GitHub/SOLIDITY-REMIX/5ef069451e67668750287d64bc5f8bae/libmates.sol\":423:426  int */\n      0x00\n        /* \"Documents/GitHub/SOLIDITY-REMIX/5ef069451e67668750287d64bc5f8bae/libmates.sol\":452:454  _b */\n      dup2\n        /* \"Documents/GitHub/SOLIDITY-REMIX/5ef069451e67668750287d64bc5f8bae/libmates.sol\":447:449  _a */\n      dup4\n        /* \"Documents/GitHub/SOLIDITY-REMIX/5ef069451e67668750287d64bc5f8bae/libmates.sol\":447:454  _a * _b */\n      tag_30\n      swap2\n      swap1\n      tag_31\n      jump\t// in\n    tag_30:\n        /* \"Documents/GitHub/SOLIDITY-REMIX/5ef069451e67668750287d64bc5f8bae/libmates.sol\":439:455  return (_a * _b) */\n      swap1\n      pop\n        /* \"Documents/GitHub/SOLIDITY-REMIX/5ef069451e67668750287d64bc5f8bae/libmates.sol\":365:463  function multiplicar(int _a,int _b) internal pure returns(int) {\r... */\n      swap3\n      swap2\n      pop\n      pop\n      jump\t// out\n        /* \"Documents/GitHub/SOLIDITY-REMIX/5ef069451e67668750287d64bc5f8bae/libmates.sol\":264:357  function restar(int _a,int _b) internal pure returns(int) {\r... */\n    tag_25:\n        /* \"Documents/GitHub/SOLIDITY-REMIX/5ef069451e67668750287d64bc5f8bae/libmates.sol\":317:320  int */\n      0x00\n        /* \"Documents/GitHub/SOLIDITY-REMIX/5ef069451e67668750287d64bc5f8bae/libmates.sol\":346:348  _b */\n      dup2\n        /* \"Documents/GitHub/SOLIDITY-REMIX/5ef069451e67668750287d64bc5f8bae/libmates.sol\":341:343  _a */\n      dup4\n        /* \"Documents/GitHub/SOLIDITY-REMIX/5ef069451e67668750287d64bc5f8bae/libmates.sol\":341:348  _a - _b */\n      tag_33\n      swap2\n      swap1\n      tag_34\n      jump\t// in\n    tag_33:\n        /* \"Documents/GitHub/SOLIDITY-REMIX/5ef069451e67668750287d64bc5f8bae/libmates.sol\":333:349  return (_a - _b) */\n      swap1\n      pop\n        /* \"Documents/GitHub/SOLIDITY-REMIX/5ef069451e67668750287d64bc5f8bae/libmates.sol\":264:357  function restar(int _a,int _b) internal pure returns(int) {\r... */\n      swap3\n      swap2\n      pop\n      pop\n      jump\t// out\n        /* \"Documents/GitHub/SOLIDITY-REMIX/5ef069451e67668750287d64bc5f8bae/libmates.sol\":164:256  function sumar(int _a,int _b) internal pure returns(int) {\r... */\n    tag_28:\n        /* \"Documents/GitHub/SOLIDITY-REMIX/5ef069451e67668750287d64bc5f8bae/libmates.sol\":216:219  int */\n      0x00\n        /* \"Documents/GitHub/SOLIDITY-REMIX/5ef069451e67668750287d64bc5f8bae/libmates.sol\":245:247  _b */\n      dup2\n        /* \"Documents/GitHub/SOLIDITY-REMIX/5ef069451e67668750287d64bc5f8bae/libmates.sol\":240:242  _a */\n      dup4\n        /* \"Documents/GitHub/SOLIDITY-REMIX/5ef069451e67668750287d64bc5f8bae/libmates.sol\":240:247  _a + _b */\n      tag_36\n      swap2\n      swap1\n      tag_37\n      jump\t// in\n    tag_36:\n        /* \"Documents/GitHub/SOLIDITY-REMIX/5ef069451e67668750287d64bc5f8bae/libmates.sol\":232:248  return (_a + _b) */\n      swap1\n      pop\n        /* \"Documents/GitHub/SOLIDITY-REMIX/5ef069451e67668750287d64bc5f8bae/libmates.sol\":164:256  function sumar(int _a,int _b) internal pure returns(int) {\r... */\n      swap3\n      swap2\n      pop\n      pop\n      jump\t// out\n        /* \"#utility.yul\":7:144   */\n    tag_39:\n        /* \"#utility.yul\":52:57   */\n      0x00\n        /* \"#utility.yul\":90:96   */\n      dup2\n        /* \"#utility.yul\":77:97   */\n      calldataload\n        /* \"#utility.yul\":68:97   */\n      swap1\n      pop\n        /* \"#utility.yul\":106:138   */\n      tag_41\n        /* \"#utility.yul\":132:137   */\n      dup2\n        /* \"#utility.yul\":106:138   */\n      tag_42\n      jump\t// in\n    tag_41:\n        /* \"#utility.yul\":7:144   */\n      swap3\n      swap2\n      pop\n      pop\n      jump\t// out\n        /* \"#utility.yul\":150:620   */\n    tag_8:\n        /* \"#utility.yul\":216:222   */\n      0x00\n        /* \"#utility.yul\":224:230   */\n      dup1\n        /* \"#utility.yul\":273:275   */\n      0x40\n        /* \"#utility.yul\":261:270   */\n      dup4\n        /* \"#utility.yul\":252:259   */\n      dup6\n        /* \"#utility.yul\":248:271   */\n      sub\n        /* \"#utility.yul\":244:276   */\n      slt\n        /* \"#utility.yul\":241:360   */\n      iszero\n      tag_44\n      jumpi\n        /* \"#utility.yul\":279:358   */\n      tag_45\n      tag_46\n      jump\t// in\n    tag_45:\n        /* \"#utility.yul\":241:360   */\n    tag_44:\n        /* \"#utility.yul\":399:400   */\n      0x00\n        /* \"#utility.yul\":424:476   */\n      tag_47\n        /* \"#utility.yul\":468:475   */\n      dup6\n        /* \"#utility.yul\":459:465   */\n      dup3\n        /* \"#utility.yul\":448:457   */\n      dup7\n        /* \"#utility.yul\":444:466   */\n      add\n        /* \"#utility.yul\":424:476   */\n      tag_39\n      jump\t// in\n    tag_47:\n        /* \"#utility.yul\":414:476   */\n      swap3\n      pop\n        /* \"#utility.yul\":370:486   */\n      pop\n        /* \"#utility.yul\":525:527   */\n      0x20\n        /* \"#utility.yul\":551:603   */\n      tag_48\n        /* \"#utility.yul\":595:602   */\n      dup6\n        /* \"#utility.yul\":586:592   */\n      dup3\n        /* \"#utility.yul\":575:584   */\n      dup7\n        /* \"#utility.yul\":571:593   */\n      add\n        /* \"#utility.yul\":551:603   */\n      tag_39\n      jump\t// in\n    tag_48:\n        /* \"#utility.yul\":541:603   */\n      swap2\n      pop\n        /* \"#utility.yul\":496:613   */\n      pop\n        /* \"#utility.yul\":150:620   */\n      swap3\n      pop\n      swap3\n      swap1\n      pop\n      jump\t// out\n        /* \"#utility.yul\":626:741   */\n    tag_49:\n        /* \"#utility.yul\":711:734   */\n      tag_51\n        /* \"#utility.yul\":728:733   */\n      dup2\n        /* \"#utility.yul\":711:734   */\n      tag_52\n      jump\t// in\n    tag_51:\n        /* \"#utility.yul\":706:709   */\n      dup3\n        /* \"#utility.yul\":699:735   */\n      mstore\n        /* \"#utility.yul\":626:741   */\n      pop\n      pop\n      jump\t// out\n        /* \"#utility.yul\":747:965   */\n    tag_11:\n        /* \"#utility.yul\":838:842   */\n      0x00\n        /* \"#utility.yul\":876:878   */\n      0x20\n        /* \"#utility.yul\":865:874   */\n      dup3\n        /* \"#utility.yul\":861:879   */\n      add\n        /* \"#utility.yul\":853:879   */\n      swap1\n      pop\n        /* \"#utility.yul\":889:958   */\n      tag_54\n        /* \"#utility.yul\":955:956   */\n      0x00\n        /* \"#utility.yul\":944:953   */\n      dup4\n        /* \"#utility.yul\":940:957   */\n      add\n        /* \"#utility.yul\":931:937   */\n      dup5\n        /* \"#utility.yul\":889:958   */\n      tag_49\n      jump\t// in\n    tag_54:\n        /* \"#utility.yul\":747:965   */\n      swap3\n      swap2\n      pop\n      pop\n      jump\t// out\n        /* \"#utility.yul\":1052:1577   */\n    tag_37:\n        /* \"#utility.yul\":1091:1094   */\n      0x00\n        /* \"#utility.yul\":1110:1129   */\n      tag_58\n        /* \"#utility.yul\":1127:1128   */\n      dup3\n        /* \"#utility.yul\":1110:1129   */\n      tag_52\n      jump\t// in\n    tag_58:\n        /* \"#utility.yul\":1105:1129   */\n      swap2\n      pop\n        /* \"#utility.yul\":1143:1162   */\n      tag_59\n        /* \"#utility.yul\":1160:1161   */\n      dup4\n        /* \"#utility.yul\":1143:1162   */\n      tag_52\n      jump\t// in\n    tag_59:\n        /* \"#utility.yul\":1138:1162   */\n      swap3\n      pop\n        /* \"#utility.yul\":1331:1332   */\n      dup2\n        /* \"#utility.yul\":1263:1329   */\n      0x7fffffffffffffffffffffffffffffffffffffffffffffffffffffffffffffff\n        /* \"#utility.yul\":1259:1333   */\n      sub\n        /* \"#utility.yul\":1256:1257   */\n      dup4\n        /* \"#utility.yul\":1252:1334   */\n      sgt\n        /* \"#utility.yul\":1247:1248   */\n      0x00\n        /* \"#utility.yul\":1244:1245   */\n      dup4\n        /* \"#utility.yul\":1240:1249   */\n      slt\n        /* \"#utility.yul\":1233:1250   */\n      iszero\n        /* \"#utility.yul\":1229:1335   */\n      and\n        /* \"#utility.yul\":1226:1358   */\n      iszero\n      tag_60\n      jumpi\n        /* \"#utility.yul\":1338:1356   */\n      tag_61\n      tag_62\n      jump\t// in\n    tag_61:\n        /* \"#utility.yul\":1226:1358   */\n    tag_60:\n        /* \"#utility.yul\":1518:1519   */\n      dup2\n        /* \"#utility.yul\":1450:1516   */\n      0x8000000000000000000000000000000000000000000000000000000000000000\n        /* \"#utility.yul\":1446:1520   */\n      sub\n        /* \"#utility.yul\":1443:1444   */\n      dup4\n        /* \"#utility.yul\":1439:1521   */\n      slt\n        /* \"#utility.yul\":1435:1436   */\n      0x00\n        /* \"#utility.yul\":1432:1433   */\n      dup4\n        /* \"#utility.yul\":1428:1437   */\n      slt\n        /* \"#utility.yul\":1424:1522   */\n      and\n        /* \"#utility.yul\":1421:1545   */\n      iszero\n      tag_63\n      jumpi\n        /* \"#utility.yul\":1525:1543   */\n      tag_64\n      tag_62\n      jump\t// in\n    tag_64:\n        /* \"#utility.yul\":1421:1545   */\n    tag_63:\n        /* \"#utility.yul\":1569:1570   */\n      dup3\n        /* \"#utility.yul\":1566:1567   */\n      dup3\n        /* \"#utility.yul\":1562:1571   */\n      add\n        /* \"#utility.yul\":1555:1571   */\n      swap1\n      pop\n        /* \"#utility.yul\":1052:1577   */\n      swap3\n      swap2\n      pop\n      pop\n      jump\t// out\n        /* \"#utility.yul\":1583:2574   */\n    tag_31:\n        /* \"#utility.yul\":1622:1629   */\n      0x00\n        /* \"#utility.yul\":1645:1664   */\n      tag_66\n        /* \"#utility.yul\":1662:1663   */\n      dup3\n        /* \"#utility.yul\":1645:1664   */\n      tag_52\n      jump\t// in\n    tag_66:\n        /* \"#utility.yul\":1640:1664   */\n      swap2\n      pop\n        /* \"#utility.yul\":1678:1697   */\n      tag_67\n        /* \"#utility.yul\":1695:1696   */\n      dup4\n        /* \"#utility.yul\":1678:1697   */\n      tag_52\n      jump\t// in\n    tag_67:\n        /* \"#utility.yul\":1673:1697   */\n      swap3\n      pop\n        /* \"#utility.yul\":1879:1880   */\n      dup3\n        /* \"#utility.yul\":1811:1877   */\n      0x7fffffffffffffffffffffffffffffffffffffffffffffffffffffffffffffff\n        /* \"#utility.yul\":1807:1881   */\n      div\n        /* \"#utility.yul\":1804:1805   */\n      dup3\n        /* \"#utility.yul\":1801:1882   */\n      gt\n        /* \"#utility.yul\":1796:1797   */\n      0x00\n        /* \"#utility.yul\":1793:1794   */\n      dup5\n        /* \"#utility.yul\":1789:1798   */\n      sgt\n        /* \"#utility.yul\":1785:1786   */\n      0x00\n        /* \"#utility.yul\":1782:1783   */\n      dup5\n        /* \"#utility.yul\":1778:1787   */\n      sgt\n        /* \"#utility.yul\":1774:1799   */\n      and\n        /* \"#utility.yul\":1770:1883   */\n      and\n        /* \"#utility.yul\":1767:1906   */\n      iszero\n      tag_68\n      jumpi\n        /* \"#utility.yul\":1886:1904   */\n      tag_69\n      tag_62\n      jump\t// in\n    tag_69:\n        /* \"#utility.yul\":1767:1906   */\n    tag_68:\n        /* \"#utility.yul\":2090:2091   */\n      dup2\n        /* \"#utility.yul\":2022:2088   */\n      0x8000000000000000000000000000000000000000000000000000000000000000\n        /* \"#utility.yul\":2017:2092   */\n      sdiv\n        /* \"#utility.yul\":2014:2015   */\n      dup4\n        /* \"#utility.yul\":2010:2093   */\n      slt\n        /* \"#utility.yul\":2005:2006   */\n      0x00\n        /* \"#utility.yul\":2002:2003   */\n      dup5\n        /* \"#utility.yul\":1998:2007   */\n      slt\n        /* \"#utility.yul\":1994:1995   */\n      0x00\n        /* \"#utility.yul\":1991:1992   */\n      dup5\n        /* \"#utility.yul\":1987:1996   */\n      sgt\n        /* \"#utility.yul\":1983:2008   */\n      and\n        /* \"#utility.yul\":1979:2094   */\n      and\n        /* \"#utility.yul\":1976:2117   */\n      iszero\n      tag_70\n      jumpi\n        /* \"#utility.yul\":2097:2115   */\n      tag_71\n      tag_62\n      jump\t// in\n    tag_71:\n        /* \"#utility.yul\":1976:2117   */\n    tag_70:\n        /* \"#utility.yul\":2301:2302   */\n      dup3\n        /* \"#utility.yul\":2233:2299   */\n      0x8000000000000000000000000000000000000000000000000000000000000000\n        /* \"#utility.yul\":2228:2303   */\n      sdiv\n        /* \"#utility.yul\":2225:2226   */\n      dup3\n        /* \"#utility.yul\":2221:2304   */\n      slt\n        /* \"#utility.yul\":2216:2217   */\n      0x00\n        /* \"#utility.yul\":2213:2214   */\n      dup5\n        /* \"#utility.yul\":2209:2218   */\n      sgt\n        /* \"#utility.yul\":2205:2206   */\n      0x00\n        /* \"#utility.yul\":2202:2203   */\n      dup5\n        /* \"#utility.yul\":2198:2207   */\n      slt\n        /* \"#utility.yul\":2194:2219   */\n      and\n        /* \"#utility.yul\":2190:2305   */\n      and\n        /* \"#utility.yul\":2187:2328   */\n      iszero\n      tag_72\n      jumpi\n        /* \"#utility.yul\":2308:2326   */\n      tag_73\n      tag_62\n      jump\t// in\n    tag_73:\n        /* \"#utility.yul\":2187:2328   */\n    tag_72:\n        /* \"#utility.yul\":2511:2512   */\n      dup3\n        /* \"#utility.yul\":2443:2509   */\n      0x7fffffffffffffffffffffffffffffffffffffffffffffffffffffffffffffff\n        /* \"#utility.yul\":2438:2513   */\n      sdiv\n        /* \"#utility.yul\":2435:2436   */\n      dup3\n        /* \"#utility.yul\":2431:2514   */\n      slt\n        /* \"#utility.yul\":2426:2427   */\n      0x00\n        /* \"#utility.yul\":2423:2424   */\n      dup5\n        /* \"#utility.yul\":2419:2428   */\n      slt\n        /* \"#utility.yul\":2415:2416   */\n      0x00\n        /* \"#utility.yul\":2412:2413   */\n      dup5\n        /* \"#utility.yul\":2408:2417   */\n      slt\n        /* \"#utility.yul\":2404:2429   */\n      and\n        /* \"#utility.yul\":2400:2515   */\n      and\n        /* \"#utility.yul\":2397:2538   */\n      iszero\n      tag_74\n      jumpi\n        /* \"#utility.yul\":2518:2536   */\n      tag_75\n      tag_62\n      jump\t// in\n    tag_75:\n        /* \"#utility.yul\":2397:2538   */\n    tag_74:\n        /* \"#utility.yul\":2566:2567   */\n      dup3\n        /* \"#utility.yul\":2563:2564   */\n      dup3\n        /* \"#utility.yul\":2559:2568   */\n      mul\n        /* \"#utility.yul\":2548:2568   */\n      swap1\n      pop\n        /* \"#utility.yul\":1583:2574   */\n      swap3\n      swap2\n      pop\n      pop\n      jump\t// out\n        /* \"#utility.yul\":2580:3107   */\n    tag_34:\n        /* \"#utility.yul\":2619:2623   */\n      0x00\n        /* \"#utility.yul\":2639:2658   */\n      tag_77\n        /* \"#utility.yul\":2656:2657   */\n      dup3\n        /* \"#utility.yul\":2639:2658   */\n      tag_52\n      jump\t// in\n    tag_77:\n        /* \"#utility.yul\":2634:2658   */\n      swap2\n      pop\n        /* \"#utility.yul\":2672:2691   */\n      tag_78\n        /* \"#utility.yul\":2689:2690   */\n      dup4\n        /* \"#utility.yul\":2672:2691   */\n      tag_52\n      jump\t// in\n    tag_78:\n        /* \"#utility.yul\":2667:2691   */\n      swap3\n      pop\n        /* \"#utility.yul\":2861:2862   */\n      dup3\n        /* \"#utility.yul\":2793:2859   */\n      0x8000000000000000000000000000000000000000000000000000000000000000\n        /* \"#utility.yul\":2789:2863   */\n      add\n        /* \"#utility.yul\":2786:2787   */\n      dup3\n        /* \"#utility.yul\":2782:2864   */\n      slt\n        /* \"#utility.yul\":2777:2778   */\n      0x00\n        /* \"#utility.yul\":2774:2775   */\n      dup5\n        /* \"#utility.yul\":2770:2779   */\n      slt\n        /* \"#utility.yul\":2763:2780   */\n      iszero\n        /* \"#utility.yul\":2759:2865   */\n      and\n        /* \"#utility.yul\":2756:2888   */\n      iszero\n      tag_79\n      jumpi\n        /* \"#utility.yul\":2868:2886   */\n      tag_80\n      tag_62\n      jump\t// in\n    tag_80:\n        /* \"#utility.yul\":2756:2888   */\n    tag_79:\n        /* \"#utility.yul\":3047:3048   */\n      dup3\n        /* \"#utility.yul\":2979:3045   */\n      0x7fffffffffffffffffffffffffffffffffffffffffffffffffffffffffffffff\n        /* \"#utility.yul\":2975:3049   */\n      add\n        /* \"#utility.yul\":2972:2973   */\n      dup3\n        /* \"#utility.yul\":2968:3050   */\n      sgt\n        /* \"#utility.yul\":2964:2965   */\n      0x00\n        /* \"#utility.yul\":2961:2962   */\n      dup5\n        /* \"#utility.yul\":2957:2966   */\n      slt\n        /* \"#utility.yul\":2953:3051   */\n      and\n        /* \"#utility.yul\":2950:3074   */\n      iszero\n      tag_81\n      jumpi\n        /* \"#utility.yul\":3054:3072   */\n      tag_82\n      tag_62\n      jump\t// in\n    tag_82:\n        /* \"#utility.yul\":2950:3074   */\n    tag_81:\n        /* \"#utility.yul\":3099:3100   */\n      dup3\n        /* \"#utility.yul\":3096:3097   */\n      dup3\n        /* \"#utility.yul\":3092:3101   */\n      sub\n        /* \"#utility.yul\":3084:3101   */\n      swap1\n      pop\n        /* \"#utility.yul\":2580:3107   */\n      swap3\n      swap2\n      pop\n      pop\n      jump\t// out\n        /* \"#utility.yul\":3113:3189   */\n    tag_52:\n        /* \"#utility.yul\":3149:3156   */\n      0x00\n        /* \"#utility.yul\":3178:3183   */\n      dup2\n        /* \"#utility.yul\":3167:3183   */\n      swap1\n      pop\n        /* \"#utility.yul\":3113:3189   */\n      swap2\n      swap1\n      pop\n      jump\t// out\n        /* \"#utility.yul\":3195:3375   */\n    tag_62:\n        /* \"#utility.yul\":3243:3320   */\n      0x4e487b7100000000000000000000000000000000000000000000000000000000\n        /* \"#utility.yul\":3240:3241   */\n      0x00\n        /* \"#utility.yul\":3233:3321   */\n      mstore\n        /* \"#utility.yul\":3340:3344   */\n      0x11\n        /* \"#utility.yul\":3337:3338   */\n      0x04\n        /* \"#utility.yul\":3330:3345   */\n      mstore\n        /* \"#utility.yul\":3364:3368   */\n      0x24\n        /* \"#utility.yul\":3361:3362   */\n      0x00\n        /* \"#utility.yul\":3354:3369   */\n      revert\n        /* \"#utility.yul\":3504:3621   */\n    tag_46:\n        /* \"#utility.yul\":3613:3614   */\n      0x00\n        /* \"#utility.yul\":3610:3611   */\n      dup1\n        /* \"#utility.yul\":3603:3615   */\n      revert\n        /* \"#utility.yul\":3627:3747   */\n    tag_42:\n        /* \"#utility.yul\":3699:3722   */\n      tag_89\n        /* \"#utility.yul\":3716:3721   */\n      dup2\n        /* \"#utility.yul\":3699:3722   */\n      tag_52\n      jump\t// in\n    tag_89:\n        /* \"#utility.yul\":3692:3697   */\n      dup2\n        /* \"#utility.yul\":3689:3723   */\n      eq\n        /* \"#utility.yul\":3679:3741   */\n      tag_90\n      jumpi\n        /* \"#utility.yul\":3737:3738   */\n      0x00\n        /* \"#utility.yul\":3734:3735   */\n      dup1\n        /* \"#utility.yul\":3727:3739   */\n      revert\n        /* \"#utility.yul\":3679:3741   */\n    tag_90:\n        /* \"#utility.yul\":3627:3747   */\n      pop\n      jump\t// out\n\n    auxdata: 0xa26469706673582212201e939f9bed255b54b54bf0d647e7688f758b71ce41062ffbe6403d34252ee22464736f6c63430008070033\n}\n",
				"bytecode": {
					"linkReferences": {},
					"object": "608060405234801561001057600080fd5b506104b8806100206000396000f3fe608060405234801561001057600080fd5b50600436106100415760003560e01c8063187983bf146100465780634c627bad146100765780638f8a0d19146100a6575b600080fd5b610060600480360381019061005b9190610184565b6100d6565b60405161006d91906101d3565b60405180910390f35b610090600480360381019061008b9190610184565b6100f3565b60405161009d91906101d3565b60405180910390f35b6100c060048036038101906100bb9190610184565b610110565b6040516100cd91906101d3565b60405180910390f35b60006100eb828461012d90919063ffffffff16565b905092915050565b6000610108828461014390919063ffffffff16565b905092915050565b6000610125828461015990919063ffffffff16565b905092915050565b6000818361013b9190610282565b905092915050565b600081836101519190610399565b905092915050565b6000818361016791906101ee565b905092915050565b60008135905061017e8161046b565b92915050565b6000806040838503121561019b5761019a610466565b5b60006101a98582860161016f565b92505060206101ba8582860161016f565b9150509250929050565b6101cd8161042d565b82525050565b60006020820190506101e860008301846101c4565b92915050565b60006101f98261042d565b91506102048361042d565b9250817f7fffffffffffffffffffffffffffffffffffffffffffffffffffffffffffffff0383136000831215161561023f5761023e610437565b5b817f800000000000000000000000000000000000000000000000000000000000000003831260008312161561027757610276610437565b5b828201905092915050565b600061028d8261042d565b91506102988361042d565b9250827f7fffffffffffffffffffffffffffffffffffffffffffffffffffffffffffffff04821160008413600084131616156102d7576102d6610437565b5b817f8000000000000000000000000000000000000000000000000000000000000000058312600084126000841316161561031457610313610437565b5b827f8000000000000000000000000000000000000000000000000000000000000000058212600084136000841216161561035157610350610437565b5b827f7fffffffffffffffffffffffffffffffffffffffffffffffffffffffffffffff058212600084126000841216161561038e5761038d610437565b5b828202905092915050565b60006103a48261042d565b91506103af8361042d565b9250827f8000000000000000000000000000000000000000000000000000000000000000018212600084121516156103ea576103e9610437565b5b827f7fffffffffffffffffffffffffffffffffffffffffffffffffffffffffffffff01821360008412161561042257610421610437565b5b828203905092915050565b6000819050919050565b7f4e487b7100000000000000000000000000000000000000000000000000000000600052601160045260246000fd5b600080fd5b6104748161042d565b811461047f57600080fd5b5056fea26469706673582212201e939f9bed255b54b54bf0d647e7688f758b71ce41062ffbe6403d34252ee22464736f6c63430008070033",
					"opcodes": "PUSH1 0x80 PUSH1 0x40 MSTORE CALLVALUE DUP1 ISZERO PUSH2 0x10 JUMPI PUSH1 0x0 DUP1 REVERT JUMPDEST POP PUSH2 0x4B8 DUP1 PUSH2 0x20 PUSH1 0x0 CODECOPY PUSH1 0x0 RETURN INVALID PUSH1 0x80 PUSH1 0x40 MSTORE CALLVALUE DUP1 ISZERO PUSH2 0x10 JUMPI PUSH1 0x0 DUP1 REVERT JUMPDEST POP PUSH1 0x4 CALLDATASIZE LT PUSH2 0x41 JUMPI PUSH1 0x0 CALLDATALOAD PUSH1 0xE0 SHR DUP1 PUSH4 0x187983BF EQ PUSH2 0x46 JUMPI DUP1 PUSH4 0x4C627BAD EQ PUSH2 0x76 JUMPI DUP1 PUSH4 0x8F8A0D19 EQ PUSH2 0xA6 JUMPI JUMPDEST PUSH1 0x0 DUP1 REVERT JUMPDEST PUSH2 0x60 PUSH1 0x4 DUP1 CALLDATASIZE SUB DUP2 ADD SWAP1 PUSH2 0x5B SWAP2 SWAP1 PUSH2 0x184 JUMP JUMPDEST PUSH2 0xD6 JUMP JUMPDEST PUSH1 0x40 MLOAD PUSH2 0x6D SWAP2 SWAP1 PUSH2 0x1D3 JUMP JUMPDEST PUSH1 0x40 MLOAD DUP1 SWAP2 SUB SWAP1 RETURN JUMPDEST PUSH2 0x90 PUSH1 0x4 DUP1 CALLDATASIZE SUB DUP2 ADD SWAP1 PUSH2 0x8B SWAP2 SWAP1 PUSH2 0x184 JUMP JUMPDEST PUSH2 0xF3 JUMP JUMPDEST PUSH1 0x40 MLOAD PUSH2 0x9D SWAP2 SWAP1 PUSH2 0x1D3 JUMP JUMPDEST PUSH1 0x40 MLOAD DUP1 SWAP2 SUB SWAP1 RETURN JUMPDEST PUSH2 0xC0 PUSH1 0x4 DUP1 CALLDATASIZE SUB DUP2 ADD SWAP1 PUSH2 0xBB SWAP2 SWAP1 PUSH2 0x184 JUMP JUMPDEST PUSH2 0x110 JUMP JUMPDEST PUSH1 0x40 MLOAD PUSH2 0xCD SWAP2 SWAP1 PUSH2 0x1D3 JUMP JUMPDEST PUSH1 0x40 MLOAD DUP1 SWAP2 SUB SWAP1 RETURN JUMPDEST PUSH1 0x0 PUSH2 0xEB DUP3 DUP5 PUSH2 0x12D SWAP1 SWAP2 SWAP1 PUSH4 0xFFFFFFFF AND JUMP JUMPDEST SWAP1 POP SWAP3 SWAP2 POP POP JUMP JUMPDEST PUSH1 0x0 PUSH2 0x108 DUP3 DUP5 PUSH2 0x143 SWAP1 SWAP2 SWAP1 PUSH4 0xFFFFFFFF AND JUMP JUMPDEST SWAP1 POP SWAP3 SWAP2 POP POP JUMP JUMPDEST PUSH1 0x0 PUSH2 0x125 DUP3 DUP5 PUSH2 0x159 SWAP1 SWAP2 SWAP1 PUSH4 0xFFFFFFFF AND JUMP JUMPDEST SWAP1 POP SWAP3 SWAP2 POP POP JUMP JUMPDEST PUSH1 0x0 DUP2 DUP4 PUSH2 0x13B SWAP2 SWAP1 PUSH2 0x282 JUMP JUMPDEST SWAP1 POP SWAP3 SWAP2 POP POP JUMP JUMPDEST PUSH1 0x0 DUP2 DUP4 PUSH2 0x151 SWAP2 SWAP1 PUSH2 0x399 JUMP JUMPDEST SWAP1 POP SWAP3 SWAP2 POP POP JUMP JUMPDEST PUSH1 0x0 DUP2 DUP4 PUSH2 0x167 SWAP2 SWAP1 PUSH2 0x1EE JUMP JUMPDEST SWAP1 POP SWAP3 SWAP2 POP POP JUMP JUMPDEST PUSH1 0x0 DUP2 CALLDATALOAD SWAP1 POP PUSH2 0x17E DUP2 PUSH2 0x46B JUMP JUMPDEST SWAP3 SWAP2 POP POP JUMP JUMPDEST PUSH1 0x0 DUP1 PUSH1 0x40 DUP4 DUP6 SUB SLT ISZERO PUSH2 0x19B JUMPI PUSH2 0x19A PUSH2 0x466 JUMP JUMPDEST JUMPDEST PUSH1 0x0 PUSH2 0x1A9 DUP6 DUP3 DUP7 ADD PUSH2 0x16F JUMP JUMPDEST SWAP3 POP POP PUSH1 0x20 PUSH2 0x1BA DUP6 DUP3 DUP7 ADD PUSH2 0x16F JUMP JUMPDEST SWAP2 POP POP SWAP3 POP SWAP3 SWAP1 POP JUMP JUMPDEST PUSH2 0x1CD DUP2 PUSH2 0x42D JUMP JUMPDEST DUP3 MSTORE POP POP JUMP JUMPDEST PUSH1 0x0 PUSH1 0x20 DUP3 ADD SWAP1 POP PUSH2 0x1E8 PUSH1 0x0 DUP4 ADD DUP5 PUSH2 0x1C4 JUMP JUMPDEST SWAP3 SWAP2 POP POP JUMP JUMPDEST PUSH1 0x0 PUSH2 0x1F9 DUP3 PUSH2 0x42D JUMP JUMPDEST SWAP2 POP PUSH2 0x204 DUP4 PUSH2 0x42D JUMP JUMPDEST SWAP3 POP DUP2 PUSH32 0x7FFFFFFFFFFFFFFFFFFFFFFFFFFFFFFFFFFFFFFFFFFFFFFFFFFFFFFFFFFFFFFF SUB DUP4 SGT PUSH1 0x0 DUP4 SLT ISZERO AND ISZERO PUSH2 0x23F JUMPI PUSH2 0x23E PUSH2 0x437 JUMP JUMPDEST JUMPDEST DUP2 PUSH32 0x8000000000000000000000000000000000000000000000000000000000000000 SUB DUP4 SLT PUSH1 0x0 DUP4 SLT AND ISZERO PUSH2 0x277 JUMPI PUSH2 0x276 PUSH2 0x437 JUMP JUMPDEST JUMPDEST DUP3 DUP3 ADD SWAP1 POP SWAP3 SWAP2 POP POP JUMP JUMPDEST PUSH1 0x0 PUSH2 0x28D DUP3 PUSH2 0x42D JUMP JUMPDEST SWAP2 POP PUSH2 0x298 DUP4 PUSH2 0x42D JUMP JUMPDEST SWAP3 POP DUP3 PUSH32 0x7FFFFFFFFFFFFFFFFFFFFFFFFFFFFFFFFFFFFFFFFFFFFFFFFFFFFFFFFFFFFFFF DIV DUP3 GT PUSH1 0x0 DUP5 SGT PUSH1 0x0 DUP5 SGT AND AND ISZERO PUSH2 0x2D7 JUMPI PUSH2 0x2D6 PUSH2 0x437 JUMP JUMPDEST JUMPDEST DUP2 PUSH32 0x8000000000000000000000000000000000000000000000000000000000000000 SDIV DUP4 SLT PUSH1 0x0 DUP5 SLT PUSH1 0x0 DUP5 SGT AND AND ISZERO PUSH2 0x314 JUMPI PUSH2 0x313 PUSH2 0x437 JUMP JUMPDEST JUMPDEST DUP3 PUSH32 0x8000000000000000000000000000000000000000000000000000000000000000 SDIV DUP3 SLT PUSH1 0x0 DUP5 SGT PUSH1 0x0 DUP5 SLT AND AND ISZERO PUSH2 0x351 JUMPI PUSH2 0x350 PUSH2 0x437 JUMP JUMPDEST JUMPDEST DUP3 PUSH32 0x7FFFFFFFFFFFFFFFFFFFFFFFFFFFFFFFFFFFFFFFFFFFFFFFFFFFFFFFFFFFFFFF SDIV DUP3 SLT PUSH1 0x0 DUP5 SLT PUSH1 0x0 DUP5 SLT AND AND ISZERO PUSH2 0x38E JUMPI PUSH2 0x38D PUSH2 0x437 JUMP JUMPDEST JUMPDEST DUP3 DUP3 MUL SWAP1 POP SWAP3 SWAP2 POP POP JUMP JUMPDEST PUSH1 0x0 PUSH2 0x3A4 DUP3 PUSH2 0x42D JUMP JUMPDEST SWAP2 POP PUSH2 0x3AF DUP4 PUSH2 0x42D JUMP JUMPDEST SWAP3 POP DUP3 PUSH32 0x8000000000000000000000000000000000000000000000000000000000000000 ADD DUP3 SLT PUSH1 0x0 DUP5 SLT ISZERO AND ISZERO PUSH2 0x3EA JUMPI PUSH2 0x3E9 PUSH2 0x437 JUMP JUMPDEST JUMPDEST DUP3 PUSH32 0x7FFFFFFFFFFFFFFFFFFFFFFFFFFFFFFFFFFFFFFFFFFFFFFFFFFFFFFFFFFFFFFF ADD DUP3 SGT PUSH1 0x0 DUP5 SLT AND ISZERO PUSH2 0x422 JUMPI PUSH2 0x421 PUSH2 0x437 JUMP JUMPDEST JUMPDEST DUP3 DUP3 SUB SWAP1 POP SWAP3 SWAP2 POP POP JUMP JUMPDEST PUSH1 0x0 DUP2 SWAP1 POP SWAP2 SWAP1 POP JUMP JUMPDEST PUSH32 0x4E487B7100000000000000000000000000000000000000000000000000000000 PUSH1 0x0 MSTORE PUSH1 0x11 PUSH1 0x4 MSTORE PUSH1 0x24 PUSH1 0x0 REVERT JUMPDEST PUSH1 0x0 DUP1 REVERT JUMPDEST PUSH2 0x474 DUP2 PUSH2 0x42D JUMP JUMPDEST DUP2 EQ PUSH2 0x47F JUMPI PUSH1 0x0 DUP1 REVERT JUMPDEST POP JUMP INVALID LOG2 PUSH5 0x6970667358 0x22 SLT KECCAK256 0x1E SWAP4 SWAP16 SWAP12 0xED 0x25 JUMPDEST SLOAD 0xB5 0x4B CREATE 0xD6 SELFBALANCE 0xE7 PUSH9 0x8F758B71CE41062FFB 0xE6 BLOCKHASH RETURNDATASIZE CALLVALUE 0x25 0x2E 0xE2 0x24 PUSH5 0x736F6C6343 STOP ADDMOD SMOD STOP CALLER "
				},
				"gasEstimates": {
					"creation": {
						"codeDepositCost": "241600",
						"executionCost": "281",
						"totalCost": "241881"
					},
					"external": {
						"multiplicacion(int256,int256)": "infinite",
						"resta(int256,int256)": "infinite",
						"suma(int256,int256)": "infinite"
					}
				},
				"methodIdentifiers": {
					"multiplicacion(int256,int256)": "187983bf",
					"resta(int256,int256)": "4c627bad",
					"suma(int256,int256)": "8f8a0d19"
				}
			},
			"storageLayout": {
				"storage": [],
				"types": null
			},
			"userdoc": {
				"kind": "user",
				"methods": {},
				"version": 1
			}
		}
	}
}