{
	"Documents/GitHub/SOLIDITY-REMIX/5ef069451e67668750287d64bc5f8bae/calculadora.sol": {
		"Calculadora": {
			"abi": [
				{
					"inputs": [
						{
							"internalType": "int256",
							"name": "a",
							"type": "int256"
						},
						{
							"internalType": "int256",
							"name": "b",
							"type": "int256"
						}
					],
					"name": "division",
					"outputs": [
						{
							"internalType": "int256",
							"name": "",
							"type": "int256"
						}
					],
					"stateMutability": "view",
					"type": "function"
				},
				{
					"inputs": [
						{
							"internalType": "uint256",
							"name": "a",
							"type": "uint256"
						}
					],
					"name": "factorial",
					"outputs": [
						{
							"internalType": "uint256",
							"name": "",
							"type": "uint256"
						}
					],
					"stateMutability": "view",
					"type": "function"
				},
				{
					"inputs": [
						{
							"internalType": "int256",
							"name": "a",
							"type": "int256"
						},
						{
							"internalType": "int256",
							"name": "b",
							"type": "int256"
						}
					],
					"name": "multiplicacion",
					"outputs": [
						{
							"internalType": "int256",
							"name": "",
							"type": "int256"
						}
					],
					"stateMutability": "view",
					"type": "function"
				},
				{
					"inputs": [
						{
							"internalType": "int256",
							"name": "a",
							"type": "int256"
						},
						{
							"internalType": "int256",
							"name": "b",
							"type": "int256"
						}
					],
					"name": "resta",
					"outputs": [
						{
							"internalType": "int256",
							"name": "",
							"type": "int256"
						}
					],
					"stateMutability": "view",
					"type": "function"
				},
				{
					"inputs": [
						{
							"internalType": "int256",
							"name": "a",
							"type": "int256"
						},
						{
							"internalType": "int256",
							"name": "b",
							"type": "int256"
						}
					],
					"name": "suma",
					"outputs": [
						{
							"internalType": "int256",
							"name": "",
							"type": "int256"
						}
					],
					"stateMutability": "view",
					"type": "function"
				}
			],
			"devdoc": {
				"kind": "dev",
				"methods": {},
				"version": 1
			},
			"evm": {
				"assembly": "    /* \"Documents/GitHub/SOLIDITY-REMIX/5ef069451e67668750287d64bc5f8bae/calculadora.sol\":94:884  contract Calculadora {\r... */\n  mstore(0x40, 0x80)\n  callvalue\n  dup1\n  iszero\n  tag_1\n  jumpi\n  0x00\n  dup1\n  revert\ntag_1:\n  pop\n  dataSize(sub_0)\n  dup1\n  dataOffset(sub_0)\n  0x00\n  codecopy\n  0x00\n  return\nstop\n\nsub_0: assembly {\n        /* \"Documents/GitHub/SOLIDITY-REMIX/5ef069451e67668750287d64bc5f8bae/calculadora.sol\":94:884  contract Calculadora {\r... */\n      mstore(0x40, 0x80)\n      callvalue\n      dup1\n      iszero\n      tag_1\n      jumpi\n      0x00\n      dup1\n      revert\n    tag_1:\n      pop\n      jumpi(tag_2, lt(calldatasize, 0x04))\n      shr(0xe0, calldataload(0x00))\n      dup1\n      0x09b7cdda\n      eq\n      tag_3\n      jumpi\n      dup1\n      0x187983bf\n      eq\n      tag_4\n      jumpi\n      dup1\n      0x4c627bad\n      eq\n      tag_5\n      jumpi\n      dup1\n      0x83714834\n      eq\n      tag_6\n      jumpi\n      dup1\n      0x8f8a0d19\n      eq\n      tag_7\n      jumpi\n    tag_2:\n      0x00\n      dup1\n      revert\n        /* \"Documents/GitHub/SOLIDITY-REMIX/5ef069451e67668750287d64bc5f8bae/calculadora.sol\":460:554  function division(int a,int b) public view returns (int){\r... */\n    tag_3:\n      tag_8\n      0x04\n      dup1\n      calldatasize\n      sub\n      dup2\n      add\n      swap1\n      tag_9\n      swap2\n      swap1\n      tag_10\n      jump\t// in\n    tag_9:\n      tag_11\n      jump\t// in\n    tag_8:\n      mload(0x40)\n      tag_12\n      swap2\n      swap1\n      tag_13\n      jump\t// in\n    tag_12:\n      mload(0x40)\n      dup1\n      swap2\n      sub\n      swap1\n      return\n        /* \"Documents/GitHub/SOLIDITY-REMIX/5ef069451e67668750287d64bc5f8bae/calculadora.sol\":346:452  function multiplicacion(int a, int b) public view  returns (int){\r... */\n    tag_4:\n      tag_14\n      0x04\n      dup1\n      calldatasize\n      sub\n      dup2\n      add\n      swap1\n      tag_15\n      swap2\n      swap1\n      tag_10\n      jump\t// in\n    tag_15:\n      tag_16\n      jump\t// in\n    tag_14:\n      mload(0x40)\n      tag_17\n      swap2\n      swap1\n      tag_13\n      jump\t// in\n    tag_17:\n      mload(0x40)\n      dup1\n      swap2\n      sub\n      swap1\n      return\n        /* \"Documents/GitHub/SOLIDITY-REMIX/5ef069451e67668750287d64bc5f8bae/calculadora.sol\":247:338  function resta(int a, int b) public view returns (int){\r... */\n    tag_5:\n      tag_18\n      0x04\n      dup1\n      calldatasize\n      sub\n      dup2\n      add\n      swap1\n      tag_19\n      swap2\n      swap1\n      tag_10\n      jump\t// in\n    tag_19:\n      tag_20\n      jump\t// in\n    tag_18:\n      mload(0x40)\n      tag_21\n      swap2\n      swap1\n      tag_13\n      jump\t// in\n    tag_21:\n      mload(0x40)\n      dup1\n      swap2\n      sub\n      swap1\n      return\n        /* \"Documents/GitHub/SOLIDITY-REMIX/5ef069451e67668750287d64bc5f8bae/calculadora.sol\":562:642  function factorial(uint a) public view returns (uint){\r... */\n    tag_6:\n      tag_22\n      0x04\n      dup1\n      calldatasize\n      sub\n      dup2\n      add\n      swap1\n      tag_23\n      swap2\n      swap1\n      tag_24\n      jump\t// in\n    tag_23:\n      tag_25\n      jump\t// in\n    tag_22:\n      mload(0x40)\n      tag_26\n      swap2\n      swap1\n      tag_27\n      jump\t// in\n    tag_26:\n      mload(0x40)\n      dup1\n      swap2\n      sub\n      swap1\n      return\n        /* \"Documents/GitHub/SOLIDITY-REMIX/5ef069451e67668750287d64bc5f8bae/calculadora.sol\":150:239  function suma(int a, int b) public view returns (int){\r... */\n    tag_7:\n      tag_28\n      0x04\n      dup1\n      calldatasize\n      sub\n      dup2\n      add\n      swap1\n      tag_29\n      swap2\n      swap1\n      tag_10\n      jump\t// in\n    tag_29:\n      tag_30\n      jump\t// in\n    tag_28:\n      mload(0x40)\n      tag_31\n      swap2\n      swap1\n      tag_13\n      jump\t// in\n    tag_31:\n      mload(0x40)\n      dup1\n      swap2\n      sub\n      swap1\n      return\n        /* \"Documents/GitHub/SOLIDITY-REMIX/5ef069451e67668750287d64bc5f8bae/calculadora.sol\":460:554  function division(int a,int b) public view returns (int){\r... */\n    tag_11:\n        /* \"Documents/GitHub/SOLIDITY-REMIX/5ef069451e67668750287d64bc5f8bae/calculadora.sol\":512:515  int */\n      0x00\n        /* \"Documents/GitHub/SOLIDITY-REMIX/5ef069451e67668750287d64bc5f8bae/calculadora.sol\":534:546  a.dividir(b) */\n      tag_33\n        /* \"Documents/GitHub/SOLIDITY-REMIX/5ef069451e67668750287d64bc5f8bae/calculadora.sol\":544:545  b */\n      dup3\n        /* \"Documents/GitHub/SOLIDITY-REMIX/5ef069451e67668750287d64bc5f8bae/calculadora.sol\":534:535  a */\n      dup5\n        /* \"Documents/GitHub/SOLIDITY-REMIX/5ef069451e67668750287d64bc5f8bae/calculadora.sol\":534:543  a.dividir */\n      tag_34\n      swap1\n        /* \"Documents/GitHub/SOLIDITY-REMIX/5ef069451e67668750287d64bc5f8bae/calculadora.sol\":534:546  a.dividir(b) */\n      swap2\n      swap1\n      0xffffffff\n      and\n      jump\t// in\n    tag_33:\n        /* \"Documents/GitHub/SOLIDITY-REMIX/5ef069451e67668750287d64bc5f8bae/calculadora.sol\":527:546  return a.dividir(b) */\n      swap1\n      pop\n        /* \"Documents/GitHub/SOLIDITY-REMIX/5ef069451e67668750287d64bc5f8bae/calculadora.sol\":460:554  function division(int a,int b) public view returns (int){\r... */\n      swap3\n      swap2\n      pop\n      pop\n      jump\t// out\n        /* \"Documents/GitHub/SOLIDITY-REMIX/5ef069451e67668750287d64bc5f8bae/calculadora.sol\":346:452  function multiplicacion(int a, int b) public view  returns (int){\r... */\n    tag_16:\n        /* \"Documents/GitHub/SOLIDITY-REMIX/5ef069451e67668750287d64bc5f8bae/calculadora.sol\":406:409  int */\n      0x00\n        /* \"Documents/GitHub/SOLIDITY-REMIX/5ef069451e67668750287d64bc5f8bae/calculadora.sol\":428:444  a.multiplicar(b) */\n      tag_36\n        /* \"Documents/GitHub/SOLIDITY-REMIX/5ef069451e67668750287d64bc5f8bae/calculadora.sol\":442:443  b */\n      dup3\n        /* \"Documents/GitHub/SOLIDITY-REMIX/5ef069451e67668750287d64bc5f8bae/calculadora.sol\":428:429  a */\n      dup5\n        /* \"Documents/GitHub/SOLIDITY-REMIX/5ef069451e67668750287d64bc5f8bae/calculadora.sol\":428:441  a.multiplicar */\n      tag_37\n      swap1\n        /* \"Documents/GitHub/SOLIDITY-REMIX/5ef069451e67668750287d64bc5f8bae/calculadora.sol\":428:444  a.multiplicar(b) */\n      swap2\n      swap1\n      0xffffffff\n      and\n      jump\t// in\n    tag_36:\n        /* \"Documents/GitHub/SOLIDITY-REMIX/5ef069451e67668750287d64bc5f8bae/calculadora.sol\":421:444  return a.multiplicar(b) */\n      swap1\n      pop\n        /* \"Documents/GitHub/SOLIDITY-REMIX/5ef069451e67668750287d64bc5f8bae/calculadora.sol\":346:452  function multiplicacion(int a, int b) public view  returns (int){\r... */\n      swap3\n      swap2\n      pop\n      pop\n      jump\t// out\n        /* \"Documents/GitHub/SOLIDITY-REMIX/5ef069451e67668750287d64bc5f8bae/calculadora.sol\":247:338  function resta(int a, int b) public view returns (int){\r... */\n    tag_20:\n        /* \"Documents/GitHub/SOLIDITY-REMIX/5ef069451e67668750287d64bc5f8bae/calculadora.sol\":297:300  int */\n      0x00\n        /* \"Documents/GitHub/SOLIDITY-REMIX/5ef069451e67668750287d64bc5f8bae/calculadora.sol\":319:330  a.restar(b) */\n      tag_39\n        /* \"Documents/GitHub/SOLIDITY-REMIX/5ef069451e67668750287d64bc5f8bae/calculadora.sol\":328:329  b */\n      dup3\n        /* \"Documents/GitHub/SOLIDITY-REMIX/5ef069451e67668750287d64bc5f8bae/calculadora.sol\":319:320  a */\n      dup5\n        /* \"Documents/GitHub/SOLIDITY-REMIX/5ef069451e67668750287d64bc5f8bae/calculadora.sol\":319:327  a.restar */\n      tag_40\n      swap1\n        /* \"Documents/GitHub/SOLIDITY-REMIX/5ef069451e67668750287d64bc5f8bae/calculadora.sol\":319:330  a.restar(b) */\n      swap2\n      swap1\n      0xffffffff\n      and\n      jump\t// in\n    tag_39:\n        /* \"Documents/GitHub/SOLIDITY-REMIX/5ef069451e67668750287d64bc5f8bae/calculadora.sol\":312:330  return a.restar(b) */\n      swap1\n      pop\n        /* \"Documents/GitHub/SOLIDITY-REMIX/5ef069451e67668750287d64bc5f8bae/calculadora.sol\":247:338  function resta(int a, int b) public view returns (int){\r... */\n      swap3\n      swap2\n      pop\n      pop\n      jump\t// out\n        /* \"Documents/GitHub/SOLIDITY-REMIX/5ef069451e67668750287d64bc5f8bae/calculadora.sol\":562:642  function factorial(uint a) public view returns (uint){\r... */\n    tag_25:\n        /* \"Documents/GitHub/SOLIDITY-REMIX/5ef069451e67668750287d64bc5f8bae/calculadora.sol\":610:614  uint */\n      0x00\n        /* \"Documents/GitHub/SOLIDITY-REMIX/5ef069451e67668750287d64bc5f8bae/calculadora.sol\":562:642  function factorial(uint a) public view returns (uint){\r... */\n      swap2\n      swap1\n      pop\n      jump\t// out\n        /* \"Documents/GitHub/SOLIDITY-REMIX/5ef069451e67668750287d64bc5f8bae/calculadora.sol\":150:239  function suma(int a, int b) public view returns (int){\r... */\n    tag_30:\n        /* \"Documents/GitHub/SOLIDITY-REMIX/5ef069451e67668750287d64bc5f8bae/calculadora.sol\":199:202  int */\n      0x00\n        /* \"Documents/GitHub/SOLIDITY-REMIX/5ef069451e67668750287d64bc5f8bae/calculadora.sol\":221:231  a.sumar(b) */\n      tag_43\n        /* \"Documents/GitHub/SOLIDITY-REMIX/5ef069451e67668750287d64bc5f8bae/calculadora.sol\":229:230  b */\n      dup3\n        /* \"Documents/GitHub/SOLIDITY-REMIX/5ef069451e67668750287d64bc5f8bae/calculadora.sol\":221:222  a */\n      dup5\n        /* \"Documents/GitHub/SOLIDITY-REMIX/5ef069451e67668750287d64bc5f8bae/calculadora.sol\":221:228  a.sumar */\n      tag_44\n      swap1\n        /* \"Documents/GitHub/SOLIDITY-REMIX/5ef069451e67668750287d64bc5f8bae/calculadora.sol\":221:231  a.sumar(b) */\n      swap2\n      swap1\n      0xffffffff\n      and\n      jump\t// in\n    tag_43:\n        /* \"Documents/GitHub/SOLIDITY-REMIX/5ef069451e67668750287d64bc5f8bae/calculadora.sol\":214:231  return a.sumar(b) */\n      swap1\n      pop\n        /* \"Documents/GitHub/SOLIDITY-REMIX/5ef069451e67668750287d64bc5f8bae/calculadora.sol\":150:239  function suma(int a, int b) public view returns (int){\r... */\n      swap3\n      swap2\n      pop\n      pop\n      jump\t// out\n        /* \"Documents/GitHub/SOLIDITY-REMIX/5ef069451e67668750287d64bc5f8bae/libmates.sol\":471:565  function dividir(int _a,int _b) internal pure returns(int) {\r... */\n    tag_34:\n        /* \"Documents/GitHub/SOLIDITY-REMIX/5ef069451e67668750287d64bc5f8bae/libmates.sol\":525:528  int */\n      0x00\n        /* \"Documents/GitHub/SOLIDITY-REMIX/5ef069451e67668750287d64bc5f8bae/libmates.sol\":554:556  _b */\n      dup2\n        /* \"Documents/GitHub/SOLIDITY-REMIX/5ef069451e67668750287d64bc5f8bae/libmates.sol\":549:551  _a */\n      dup4\n        /* \"Documents/GitHub/SOLIDITY-REMIX/5ef069451e67668750287d64bc5f8bae/libmates.sol\":549:556  _a / _b */\n      tag_46\n      swap2\n      swap1\n      tag_47\n      jump\t// in\n    tag_46:\n        /* \"Documents/GitHub/SOLIDITY-REMIX/5ef069451e67668750287d64bc5f8bae/libmates.sol\":541:557  return (_a / _b) */\n      swap1\n      pop\n        /* \"Documents/GitHub/SOLIDITY-REMIX/5ef069451e67668750287d64bc5f8bae/libmates.sol\":471:565  function dividir(int _a,int _b) internal pure returns(int) {\r... */\n      swap3\n      swap2\n      pop\n      pop\n      jump\t// out\n        /* \"Documents/GitHub/SOLIDITY-REMIX/5ef069451e67668750287d64bc5f8bae/libmates.sol\":365:463  function multiplicar(int _a,int _b) internal pure returns(int) {\r... */\n    tag_37:\n        /* \"Documents/GitHub/SOLIDITY-REMIX/5ef069451e67668750287d64bc5f8bae/libmates.sol\":423:426  int */\n      0x00\n        /* \"Documents/GitHub/SOLIDITY-REMIX/5ef069451e67668750287d64bc5f8bae/libmates.sol\":452:454  _b */\n      dup2\n        /* \"Documents/GitHub/SOLIDITY-REMIX/5ef069451e67668750287d64bc5f8bae/libmates.sol\":447:449  _a */\n      dup4\n        /* \"Documents/GitHub/SOLIDITY-REMIX/5ef069451e67668750287d64bc5f8bae/libmates.sol\":447:454  _a * _b */\n      tag_49\n      swap2\n      swap1\n      tag_50\n      jump\t// in\n    tag_49:\n        /* \"Documents/GitHub/SOLIDITY-REMIX/5ef069451e67668750287d64bc5f8bae/libmates.sol\":439:455  return (_a * _b) */\n      swap1\n      pop\n        /* \"Documents/GitHub/SOLIDITY-REMIX/5ef069451e67668750287d64bc5f8bae/libmates.sol\":365:463  function multiplicar(int _a,int _b) internal pure returns(int) {\r... */\n      swap3\n      swap2\n      pop\n      pop\n      jump\t// out\n        /* \"Documents/GitHub/SOLIDITY-REMIX/5ef069451e67668750287d64bc5f8bae/libmates.sol\":264:357  function restar(int _a,int _b) internal pure returns(int) {\r... */\n    tag_40:\n        /* \"Documents/GitHub/SOLIDITY-REMIX/5ef069451e67668750287d64bc5f8bae/libmates.sol\":317:320  int */\n      0x00\n        /* \"Documents/GitHub/SOLIDITY-REMIX/5ef069451e67668750287d64bc5f8bae/libmates.sol\":346:348  _b */\n      dup2\n        /* \"Documents/GitHub/SOLIDITY-REMIX/5ef069451e67668750287d64bc5f8bae/libmates.sol\":341:343  _a */\n      dup4\n        /* \"Documents/GitHub/SOLIDITY-REMIX/5ef069451e67668750287d64bc5f8bae/libmates.sol\":341:348  _a - _b */\n      tag_52\n      swap2\n      swap1\n      tag_53\n      jump\t// in\n    tag_52:\n        /* \"Documents/GitHub/SOLIDITY-REMIX/5ef069451e67668750287d64bc5f8bae/libmates.sol\":333:349  return (_a - _b) */\n      swap1\n      pop\n        /* \"Documents/GitHub/SOLIDITY-REMIX/5ef069451e67668750287d64bc5f8bae/libmates.sol\":264:357  function restar(int _a,int _b) internal pure returns(int) {\r... */\n      swap3\n      swap2\n      pop\n      pop\n      jump\t// out\n        /* \"Documents/GitHub/SOLIDITY-REMIX/5ef069451e67668750287d64bc5f8bae/libmates.sol\":164:256  function sumar(int _a,int _b) internal pure returns(int) {\r... */\n    tag_44:\n        /* \"Documents/GitHub/SOLIDITY-REMIX/5ef069451e67668750287d64bc5f8bae/libmates.sol\":216:219  int */\n      0x00\n        /* \"Documents/GitHub/SOLIDITY-REMIX/5ef069451e67668750287d64bc5f8bae/libmates.sol\":245:247  _b */\n      dup2\n        /* \"Documents/GitHub/SOLIDITY-REMIX/5ef069451e67668750287d64bc5f8bae/libmates.sol\":240:242  _a */\n      dup4\n        /* \"Documents/GitHub/SOLIDITY-REMIX/5ef069451e67668750287d64bc5f8bae/libmates.sol\":240:247  _a + _b */\n      tag_55\n      swap2\n      swap1\n      tag_56\n      jump\t// in\n    tag_55:\n        /* \"Documents/GitHub/SOLIDITY-REMIX/5ef069451e67668750287d64bc5f8bae/libmates.sol\":232:248  return (_a + _b) */\n      swap1\n      pop\n        /* \"Documents/GitHub/SOLIDITY-REMIX/5ef069451e67668750287d64bc5f8bae/libmates.sol\":164:256  function sumar(int _a,int _b) internal pure returns(int) {\r... */\n      swap3\n      swap2\n      pop\n      pop\n      jump\t// out\n        /* \"#utility.yul\":7:144   */\n    tag_58:\n        /* \"#utility.yul\":52:57   */\n      0x00\n        /* \"#utility.yul\":90:96   */\n      dup2\n        /* \"#utility.yul\":77:97   */\n      calldataload\n        /* \"#utility.yul\":68:97   */\n      swap1\n      pop\n        /* \"#utility.yul\":106:138   */\n      tag_60\n        /* \"#utility.yul\":132:137   */\n      dup2\n        /* \"#utility.yul\":106:138   */\n      tag_61\n      jump\t// in\n    tag_60:\n        /* \"#utility.yul\":7:144   */\n      swap3\n      swap2\n      pop\n      pop\n      jump\t// out\n        /* \"#utility.yul\":150:289   */\n    tag_62:\n        /* \"#utility.yul\":196:201   */\n      0x00\n        /* \"#utility.yul\":234:240   */\n      dup2\n        /* \"#utility.yul\":221:241   */\n      calldataload\n        /* \"#utility.yul\":212:241   */\n      swap1\n      pop\n        /* \"#utility.yul\":250:283   */\n      tag_64\n        /* \"#utility.yul\":277:282   */\n      dup2\n        /* \"#utility.yul\":250:283   */\n      tag_65\n      jump\t// in\n    tag_64:\n        /* \"#utility.yul\":150:289   */\n      swap3\n      swap2\n      pop\n      pop\n      jump\t// out\n        /* \"#utility.yul\":295:765   */\n    tag_10:\n        /* \"#utility.yul\":361:367   */\n      0x00\n        /* \"#utility.yul\":369:375   */\n      dup1\n        /* \"#utility.yul\":418:420   */\n      0x40\n        /* \"#utility.yul\":406:415   */\n      dup4\n        /* \"#utility.yul\":397:404   */\n      dup6\n        /* \"#utility.yul\":393:416   */\n      sub\n        /* \"#utility.yul\":389:421   */\n      slt\n        /* \"#utility.yul\":386:505   */\n      iszero\n      tag_67\n      jumpi\n        /* \"#utility.yul\":424:503   */\n      tag_68\n      tag_69\n      jump\t// in\n    tag_68:\n        /* \"#utility.yul\":386:505   */\n    tag_67:\n        /* \"#utility.yul\":544:545   */\n      0x00\n        /* \"#utility.yul\":569:621   */\n      tag_70\n        /* \"#utility.yul\":613:620   */\n      dup6\n        /* \"#utility.yul\":604:610   */\n      dup3\n        /* \"#utility.yul\":593:602   */\n      dup7\n        /* \"#utility.yul\":589:611   */\n      add\n        /* \"#utility.yul\":569:621   */\n      tag_58\n      jump\t// in\n    tag_70:\n        /* \"#utility.yul\":559:621   */\n      swap3\n      pop\n        /* \"#utility.yul\":515:631   */\n      pop\n        /* \"#utility.yul\":670:672   */\n      0x20\n        /* \"#utility.yul\":696:748   */\n      tag_71\n        /* \"#utility.yul\":740:747   */\n      dup6\n        /* \"#utility.yul\":731:737   */\n      dup3\n        /* \"#utility.yul\":720:729   */\n      dup7\n        /* \"#utility.yul\":716:738   */\n      add\n        /* \"#utility.yul\":696:748   */\n      tag_58\n      jump\t// in\n    tag_71:\n        /* \"#utility.yul\":686:748   */\n      swap2\n      pop\n        /* \"#utility.yul\":641:758   */\n      pop\n        /* \"#utility.yul\":295:765   */\n      swap3\n      pop\n      swap3\n      swap1\n      pop\n      jump\t// out\n        /* \"#utility.yul\":771:1100   */\n    tag_24:\n        /* \"#utility.yul\":830:836   */\n      0x00\n        /* \"#utility.yul\":879:881   */\n      0x20\n        /* \"#utility.yul\":867:876   */\n      dup3\n        /* \"#utility.yul\":858:865   */\n      dup5\n        /* \"#utility.yul\":854:877   */\n      sub\n        /* \"#utility.yul\":850:882   */\n      slt\n        /* \"#utility.yul\":847:966   */\n      iszero\n      tag_73\n      jumpi\n        /* \"#utility.yul\":885:964   */\n      tag_74\n      tag_69\n      jump\t// in\n    tag_74:\n        /* \"#utility.yul\":847:966   */\n    tag_73:\n        /* \"#utility.yul\":1005:1006   */\n      0x00\n        /* \"#utility.yul\":1030:1083   */\n      tag_75\n        /* \"#utility.yul\":1075:1082   */\n      dup5\n        /* \"#utility.yul\":1066:1072   */\n      dup3\n        /* \"#utility.yul\":1055:1064   */\n      dup6\n        /* \"#utility.yul\":1051:1073   */\n      add\n        /* \"#utility.yul\":1030:1083   */\n      tag_62\n      jump\t// in\n    tag_75:\n        /* \"#utility.yul\":1020:1083   */\n      swap2\n      pop\n        /* \"#utility.yul\":976:1093   */\n      pop\n        /* \"#utility.yul\":771:1100   */\n      swap3\n      swap2\n      pop\n      pop\n      jump\t// out\n        /* \"#utility.yul\":1106:1221   */\n    tag_76:\n        /* \"#utility.yul\":1191:1214   */\n      tag_78\n        /* \"#utility.yul\":1208:1213   */\n      dup2\n        /* \"#utility.yul\":1191:1214   */\n      tag_79\n      jump\t// in\n    tag_78:\n        /* \"#utility.yul\":1186:1189   */\n      dup3\n        /* \"#utility.yul\":1179:1215   */\n      mstore\n        /* \"#utility.yul\":1106:1221   */\n      pop\n      pop\n      jump\t// out\n        /* \"#utility.yul\":1227:1345   */\n    tag_80:\n        /* \"#utility.yul\":1314:1338   */\n      tag_82\n        /* \"#utility.yul\":1332:1337   */\n      dup2\n        /* \"#utility.yul\":1314:1338   */\n      tag_83\n      jump\t// in\n    tag_82:\n        /* \"#utility.yul\":1309:1312   */\n      dup3\n        /* \"#utility.yul\":1302:1339   */\n      mstore\n        /* \"#utility.yul\":1227:1345   */\n      pop\n      pop\n      jump\t// out\n        /* \"#utility.yul\":1351:1569   */\n    tag_13:\n        /* \"#utility.yul\":1442:1446   */\n      0x00\n        /* \"#utility.yul\":1480:1482   */\n      0x20\n        /* \"#utility.yul\":1469:1478   */\n      dup3\n        /* \"#utility.yul\":1465:1483   */\n      add\n        /* \"#utility.yul\":1457:1483   */\n      swap1\n      pop\n        /* \"#utility.yul\":1493:1562   */\n      tag_85\n        /* \"#utility.yul\":1559:1560   */\n      0x00\n        /* \"#utility.yul\":1548:1557   */\n      dup4\n        /* \"#utility.yul\":1544:1561   */\n      add\n        /* \"#utility.yul\":1535:1541   */\n      dup5\n        /* \"#utility.yul\":1493:1562   */\n      tag_76\n      jump\t// in\n    tag_85:\n        /* \"#utility.yul\":1351:1569   */\n      swap3\n      swap2\n      pop\n      pop\n      jump\t// out\n        /* \"#utility.yul\":1575:1797   */\n    tag_27:\n        /* \"#utility.yul\":1668:1672   */\n      0x00\n        /* \"#utility.yul\":1706:1708   */\n      0x20\n        /* \"#utility.yul\":1695:1704   */\n      dup3\n        /* \"#utility.yul\":1691:1709   */\n      add\n        /* \"#utility.yul\":1683:1709   */\n      swap1\n      pop\n        /* \"#utility.yul\":1719:1790   */\n      tag_87\n        /* \"#utility.yul\":1787:1788   */\n      0x00\n        /* \"#utility.yul\":1776:1785   */\n      dup4\n        /* \"#utility.yul\":1772:1789   */\n      add\n        /* \"#utility.yul\":1763:1769   */\n      dup5\n        /* \"#utility.yul\":1719:1790   */\n      tag_80\n      jump\t// in\n    tag_87:\n        /* \"#utility.yul\":1575:1797   */\n      swap3\n      swap2\n      pop\n      pop\n      jump\t// out\n        /* \"#utility.yul\":1884:2409   */\n    tag_56:\n        /* \"#utility.yul\":1923:1926   */\n      0x00\n        /* \"#utility.yul\":1942:1961   */\n      tag_91\n        /* \"#utility.yul\":1959:1960   */\n      dup3\n        /* \"#utility.yul\":1942:1961   */\n      tag_79\n      jump\t// in\n    tag_91:\n        /* \"#utility.yul\":1937:1961   */\n      swap2\n      pop\n        /* \"#utility.yul\":1975:1994   */\n      tag_92\n        /* \"#utility.yul\":1992:1993   */\n      dup4\n        /* \"#utility.yul\":1975:1994   */\n      tag_79\n      jump\t// in\n    tag_92:\n        /* \"#utility.yul\":1970:1994   */\n      swap3\n      pop\n        /* \"#utility.yul\":2163:2164   */\n      dup2\n        /* \"#utility.yul\":2095:2161   */\n      0x7fffffffffffffffffffffffffffffffffffffffffffffffffffffffffffffff\n        /* \"#utility.yul\":2091:2165   */\n      sub\n        /* \"#utility.yul\":2088:2089   */\n      dup4\n        /* \"#utility.yul\":2084:2166   */\n      sgt\n        /* \"#utility.yul\":2079:2080   */\n      0x00\n        /* \"#utility.yul\":2076:2077   */\n      dup4\n        /* \"#utility.yul\":2072:2081   */\n      slt\n        /* \"#utility.yul\":2065:2082   */\n      iszero\n        /* \"#utility.yul\":2061:2167   */\n      and\n        /* \"#utility.yul\":2058:2190   */\n      iszero\n      tag_93\n      jumpi\n        /* \"#utility.yul\":2170:2188   */\n      tag_94\n      tag_95\n      jump\t// in\n    tag_94:\n        /* \"#utility.yul\":2058:2190   */\n    tag_93:\n        /* \"#utility.yul\":2350:2351   */\n      dup2\n        /* \"#utility.yul\":2282:2348   */\n      0x8000000000000000000000000000000000000000000000000000000000000000\n        /* \"#utility.yul\":2278:2352   */\n      sub\n        /* \"#utility.yul\":2275:2276   */\n      dup4\n        /* \"#utility.yul\":2271:2353   */\n      slt\n        /* \"#utility.yul\":2267:2268   */\n      0x00\n        /* \"#utility.yul\":2264:2265   */\n      dup4\n        /* \"#utility.yul\":2260:2269   */\n      slt\n        /* \"#utility.yul\":2256:2354   */\n      and\n        /* \"#utility.yul\":2253:2377   */\n      iszero\n      tag_96\n      jumpi\n        /* \"#utility.yul\":2357:2375   */\n      tag_97\n      tag_95\n      jump\t// in\n    tag_97:\n        /* \"#utility.yul\":2253:2377   */\n    tag_96:\n        /* \"#utility.yul\":2401:2402   */\n      dup3\n        /* \"#utility.yul\":2398:2399   */\n      dup3\n        /* \"#utility.yul\":2394:2403   */\n      add\n        /* \"#utility.yul\":2387:2403   */\n      swap1\n      pop\n        /* \"#utility.yul\":1884:2409   */\n      swap3\n      swap2\n      pop\n      pop\n      jump\t// out\n        /* \"#utility.yul\":2415:2800   */\n    tag_47:\n        /* \"#utility.yul\":2454:2455   */\n      0x00\n        /* \"#utility.yul\":2471:2490   */\n      tag_99\n        /* \"#utility.yul\":2488:2489   */\n      dup3\n        /* \"#utility.yul\":2471:2490   */\n      tag_79\n      jump\t// in\n    tag_99:\n        /* \"#utility.yul\":2466:2490   */\n      swap2\n      pop\n        /* \"#utility.yul\":2504:2523   */\n      tag_100\n        /* \"#utility.yul\":2521:2522   */\n      dup4\n        /* \"#utility.yul\":2504:2523   */\n      tag_79\n      jump\t// in\n    tag_100:\n        /* \"#utility.yul\":2499:2523   */\n      swap3\n      pop\n        /* \"#utility.yul\":2542:2543   */\n      dup3\n        /* \"#utility.yul\":2532:2567   */\n      tag_101\n      jumpi\n        /* \"#utility.yul\":2547:2565   */\n      tag_102\n      tag_103\n      jump\t// in\n    tag_102:\n        /* \"#utility.yul\":2532:2567   */\n    tag_101:\n        /* \"#utility.yul\":2733:2734   */\n      0x01\n        /* \"#utility.yul\":2730:2731   */\n      0x00\n        /* \"#utility.yul\":2726:2735   */\n      sub\n        /* \"#utility.yul\":2723:2724   */\n      dup4\n        /* \"#utility.yul\":2720:2736   */\n      eq\n        /* \"#utility.yul\":2639:2705   */\n      0x8000000000000000000000000000000000000000000000000000000000000000\n        /* \"#utility.yul\":2636:2637   */\n      dup4\n        /* \"#utility.yul\":2633:2706   */\n      eq\n        /* \"#utility.yul\":2616:2746   */\n      and\n        /* \"#utility.yul\":2613:2769   */\n      iszero\n      tag_104\n      jumpi\n        /* \"#utility.yul\":2749:2767   */\n      tag_105\n      tag_95\n      jump\t// in\n    tag_105:\n        /* \"#utility.yul\":2613:2769   */\n    tag_104:\n        /* \"#utility.yul\":2792:2793   */\n      dup3\n        /* \"#utility.yul\":2789:2790   */\n      dup3\n        /* \"#utility.yul\":2784:2794   */\n      sdiv\n        /* \"#utility.yul\":2779:2794   */\n      swap1\n      pop\n        /* \"#utility.yul\":2415:2800   */\n      swap3\n      swap2\n      pop\n      pop\n      jump\t// out\n        /* \"#utility.yul\":2806:3797   */\n    tag_50:\n        /* \"#utility.yul\":2845:2852   */\n      0x00\n        /* \"#utility.yul\":2868:2887   */\n      tag_107\n        /* \"#utility.yul\":2885:2886   */\n      dup3\n        /* \"#utility.yul\":2868:2887   */\n      tag_79\n      jump\t// in\n    tag_107:\n        /* \"#utility.yul\":2863:2887   */\n      swap2\n      pop\n        /* \"#utility.yul\":2901:2920   */\n      tag_108\n        /* \"#utility.yul\":2918:2919   */\n      dup4\n        /* \"#utility.yul\":2901:2920   */\n      tag_79\n      jump\t// in\n    tag_108:\n        /* \"#utility.yul\":2896:2920   */\n      swap3\n      pop\n        /* \"#utility.yul\":3102:3103   */\n      dup3\n        /* \"#utility.yul\":3034:3100   */\n      0x7fffffffffffffffffffffffffffffffffffffffffffffffffffffffffffffff\n        /* \"#utility.yul\":3030:3104   */\n      div\n        /* \"#utility.yul\":3027:3028   */\n      dup3\n        /* \"#utility.yul\":3024:3105   */\n      gt\n        /* \"#utility.yul\":3019:3020   */\n      0x00\n        /* \"#utility.yul\":3016:3017   */\n      dup5\n        /* \"#utility.yul\":3012:3021   */\n      sgt\n        /* \"#utility.yul\":3008:3009   */\n      0x00\n        /* \"#utility.yul\":3005:3006   */\n      dup5\n        /* \"#utility.yul\":3001:3010   */\n      sgt\n        /* \"#utility.yul\":2997:3022   */\n      and\n        /* \"#utility.yul\":2993:3106   */\n      and\n        /* \"#utility.yul\":2990:3129   */\n      iszero\n      tag_109\n      jumpi\n        /* \"#utility.yul\":3109:3127   */\n      tag_110\n      tag_95\n      jump\t// in\n    tag_110:\n        /* \"#utility.yul\":2990:3129   */\n    tag_109:\n        /* \"#utility.yul\":3313:3314   */\n      dup2\n        /* \"#utility.yul\":3245:3311   */\n      0x8000000000000000000000000000000000000000000000000000000000000000\n        /* \"#utility.yul\":3240:3315   */\n      sdiv\n        /* \"#utility.yul\":3237:3238   */\n      dup4\n        /* \"#utility.yul\":3233:3316   */\n      slt\n        /* \"#utility.yul\":3228:3229   */\n      0x00\n        /* \"#utility.yul\":3225:3226   */\n      dup5\n        /* \"#utility.yul\":3221:3230   */\n      slt\n        /* \"#utility.yul\":3217:3218   */\n      0x00\n        /* \"#utility.yul\":3214:3215   */\n      dup5\n        /* \"#utility.yul\":3210:3219   */\n      sgt\n        /* \"#utility.yul\":3206:3231   */\n      and\n        /* \"#utility.yul\":3202:3317   */\n      and\n        /* \"#utility.yul\":3199:3340   */\n      iszero\n      tag_111\n      jumpi\n        /* \"#utility.yul\":3320:3338   */\n      tag_112\n      tag_95\n      jump\t// in\n    tag_112:\n        /* \"#utility.yul\":3199:3340   */\n    tag_111:\n        /* \"#utility.yul\":3524:3525   */\n      dup3\n        /* \"#utility.yul\":3456:3522   */\n      0x8000000000000000000000000000000000000000000000000000000000000000\n        /* \"#utility.yul\":3451:3526   */\n      sdiv\n        /* \"#utility.yul\":3448:3449   */\n      dup3\n        /* \"#utility.yul\":3444:3527   */\n      slt\n        /* \"#utility.yul\":3439:3440   */\n      0x00\n        /* \"#utility.yul\":3436:3437   */\n      dup5\n        /* \"#utility.yul\":3432:3441   */\n      sgt\n        /* \"#utility.yul\":3428:3429   */\n      0x00\n        /* \"#utility.yul\":3425:3426   */\n      dup5\n        /* \"#utility.yul\":3421:3430   */\n      slt\n        /* \"#utility.yul\":3417:3442   */\n      and\n        /* \"#utility.yul\":3413:3528   */\n      and\n        /* \"#utility.yul\":3410:3551   */\n      iszero\n      tag_113\n      jumpi\n        /* \"#utility.yul\":3531:3549   */\n      tag_114\n      tag_95\n      jump\t// in\n    tag_114:\n        /* \"#utility.yul\":3410:3551   */\n    tag_113:\n        /* \"#utility.yul\":3734:3735   */\n      dup3\n        /* \"#utility.yul\":3666:3732   */\n      0x7fffffffffffffffffffffffffffffffffffffffffffffffffffffffffffffff\n        /* \"#utility.yul\":3661:3736   */\n      sdiv\n        /* \"#utility.yul\":3658:3659   */\n      dup3\n        /* \"#utility.yul\":3654:3737   */\n      slt\n        /* \"#utility.yul\":3649:3650   */\n      0x00\n        /* \"#utility.yul\":3646:3647   */\n      dup5\n        /* \"#utility.yul\":3642:3651   */\n      slt\n        /* \"#utility.yul\":3638:3639   */\n      0x00\n        /* \"#utility.yul\":3635:3636   */\n      dup5\n        /* \"#utility.yul\":3631:3640   */\n      slt\n        /* \"#utility.yul\":3627:3652   */\n      and\n        /* \"#utility.yul\":3623:3738   */\n      and\n        /* \"#utility.yul\":3620:3761   */\n      iszero\n      tag_115\n      jumpi\n        /* \"#utility.yul\":3741:3759   */\n      tag_116\n      tag_95\n      jump\t// in\n    tag_116:\n        /* \"#utility.yul\":3620:3761   */\n    tag_115:\n        /* \"#utility.yul\":3789:3790   */\n      dup3\n        /* \"#utility.yul\":3786:3787   */\n      dup3\n        /* \"#utility.yul\":3782:3791   */\n      mul\n        /* \"#utility.yul\":3771:3791   */\n      swap1\n      pop\n        /* \"#utility.yul\":2806:3797   */\n      swap3\n      swap2\n      pop\n      pop\n      jump\t// out\n        /* \"#utility.yul\":3803:4330   */\n    tag_53:\n        /* \"#utility.yul\":3842:3846   */\n      0x00\n        /* \"#utility.yul\":3862:3881   */\n      tag_118\n        /* \"#utility.yul\":3879:3880   */\n      dup3\n        /* \"#utility.yul\":3862:3881   */\n      tag_79\n      jump\t// in\n    tag_118:\n        /* \"#utility.yul\":3857:3881   */\n      swap2\n      pop\n        /* \"#utility.yul\":3895:3914   */\n      tag_119\n        /* \"#utility.yul\":3912:3913   */\n      dup4\n        /* \"#utility.yul\":3895:3914   */\n      tag_79\n      jump\t// in\n    tag_119:\n        /* \"#utility.yul\":3890:3914   */\n      swap3\n      pop\n        /* \"#utility.yul\":4084:4085   */\n      dup3\n        /* \"#utility.yul\":4016:4082   */\n      0x8000000000000000000000000000000000000000000000000000000000000000\n        /* \"#utility.yul\":4012:4086   */\n      add\n        /* \"#utility.yul\":4009:4010   */\n      dup3\n        /* \"#utility.yul\":4005:4087   */\n      slt\n        /* \"#utility.yul\":4000:4001   */\n      0x00\n        /* \"#utility.yul\":3997:3998   */\n      dup5\n        /* \"#utility.yul\":3993:4002   */\n      slt\n        /* \"#utility.yul\":3986:4003   */\n      iszero\n        /* \"#utility.yul\":3982:4088   */\n      and\n        /* \"#utility.yul\":3979:4111   */\n      iszero\n      tag_120\n      jumpi\n        /* \"#utility.yul\":4091:4109   */\n      tag_121\n      tag_95\n      jump\t// in\n    tag_121:\n        /* \"#utility.yul\":3979:4111   */\n    tag_120:\n        /* \"#utility.yul\":4270:4271   */\n      dup3\n        /* \"#utility.yul\":4202:4268   */\n      0x7fffffffffffffffffffffffffffffffffffffffffffffffffffffffffffffff\n        /* \"#utility.yul\":4198:4272   */\n      add\n        /* \"#utility.yul\":4195:4196   */\n      dup3\n        /* \"#utility.yul\":4191:4273   */\n      sgt\n        /* \"#utility.yul\":4187:4188   */\n      0x00\n        /* \"#utility.yul\":4184:4185   */\n      dup5\n        /* \"#utility.yul\":4180:4189   */\n      slt\n        /* \"#utility.yul\":4176:4274   */\n      and\n        /* \"#utility.yul\":4173:4297   */\n      iszero\n      tag_122\n      jumpi\n        /* \"#utility.yul\":4277:4295   */\n      tag_123\n      tag_95\n      jump\t// in\n    tag_123:\n        /* \"#utility.yul\":4173:4297   */\n    tag_122:\n        /* \"#utility.yul\":4322:4323   */\n      dup3\n        /* \"#utility.yul\":4319:4320   */\n      dup3\n        /* \"#utility.yul\":4315:4324   */\n      sub\n        /* \"#utility.yul\":4307:4324   */\n      swap1\n      pop\n        /* \"#utility.yul\":3803:4330   */\n      swap3\n      swap2\n      pop\n      pop\n      jump\t// out\n        /* \"#utility.yul\":4336:4412   */\n    tag_79:\n        /* \"#utility.yul\":4372:4379   */\n      0x00\n        /* \"#utility.yul\":4401:4406   */\n      dup2\n        /* \"#utility.yul\":4390:4406   */\n      swap1\n      pop\n        /* \"#utility.yul\":4336:4412   */\n      swap2\n      swap1\n      pop\n      jump\t// out\n        /* \"#utility.yul\":4418:4495   */\n    tag_83:\n        /* \"#utility.yul\":4455:4462   */\n      0x00\n        /* \"#utility.yul\":4484:4489   */\n      dup2\n        /* \"#utility.yul\":4473:4489   */\n      swap1\n      pop\n        /* \"#utility.yul\":4418:4495   */\n      swap2\n      swap1\n      pop\n      jump\t// out\n        /* \"#utility.yul\":4501:4681   */\n    tag_95:\n        /* \"#utility.yul\":4549:4626   */\n      0x4e487b7100000000000000000000000000000000000000000000000000000000\n        /* \"#utility.yul\":4546:4547   */\n      0x00\n        /* \"#utility.yul\":4539:4627   */\n      mstore\n        /* \"#utility.yul\":4646:4650   */\n      0x11\n        /* \"#utility.yul\":4643:4644   */\n      0x04\n        /* \"#utility.yul\":4636:4651   */\n      mstore\n        /* \"#utility.yul\":4670:4674   */\n      0x24\n        /* \"#utility.yul\":4667:4668   */\n      0x00\n        /* \"#utility.yul\":4660:4675   */\n      revert\n        /* \"#utility.yul\":4687:4867   */\n    tag_103:\n        /* \"#utility.yul\":4735:4812   */\n      0x4e487b7100000000000000000000000000000000000000000000000000000000\n        /* \"#utility.yul\":4732:4733   */\n      0x00\n        /* \"#utility.yul\":4725:4813   */\n      mstore\n        /* \"#utility.yul\":4832:4836   */\n      0x12\n        /* \"#utility.yul\":4829:4830   */\n      0x04\n        /* \"#utility.yul\":4822:4837   */\n      mstore\n        /* \"#utility.yul\":4856:4860   */\n      0x24\n        /* \"#utility.yul\":4853:4854   */\n      0x00\n        /* \"#utility.yul\":4846:4861   */\n      revert\n        /* \"#utility.yul\":4996:5113   */\n    tag_69:\n        /* \"#utility.yul\":5105:5106   */\n      0x00\n        /* \"#utility.yul\":5102:5103   */\n      dup1\n        /* \"#utility.yul\":5095:5107   */\n      revert\n        /* \"#utility.yul\":5119:5239   */\n    tag_61:\n        /* \"#utility.yul\":5191:5214   */\n      tag_132\n        /* \"#utility.yul\":5208:5213   */\n      dup2\n        /* \"#utility.yul\":5191:5214   */\n      tag_79\n      jump\t// in\n    tag_132:\n        /* \"#utility.yul\":5184:5189   */\n      dup2\n        /* \"#utility.yul\":5181:5215   */\n      eq\n        /* \"#utility.yul\":5171:5233   */\n      tag_133\n      jumpi\n        /* \"#utility.yul\":5229:5230   */\n      0x00\n        /* \"#utility.yul\":5226:5227   */\n      dup1\n        /* \"#utility.yul\":5219:5231   */\n      revert\n        /* \"#utility.yul\":5171:5233   */\n    tag_133:\n        /* \"#utility.yul\":5119:5239   */\n      pop\n      jump\t// out\n        /* \"#utility.yul\":5245:5367   */\n    tag_65:\n        /* \"#utility.yul\":5318:5342   */\n      tag_135\n        /* \"#utility.yul\":5336:5341   */\n      dup2\n        /* \"#utility.yul\":5318:5342   */\n      tag_83\n      jump\t// in\n    tag_135:\n        /* \"#utility.yul\":5311:5316   */\n      dup2\n        /* \"#utility.yul\":5308:5343   */\n      eq\n        /* \"#utility.yul\":5298:5361   */\n      tag_136\n      jumpi\n        /* \"#utility.yul\":5357:5358   */\n      0x00\n        /* \"#utility.yul\":5354:5355   */\n      dup1\n        /* \"#utility.yul\":5347:5359   */\n      revert\n        /* \"#utility.yul\":5298:5361   */\n    tag_136:\n        /* \"#utility.yul\":5245:5367   */\n      pop\n      jump\t// out\n\n    auxdata: 0xa26469706673582212208a8c5b116a6848a3bfd6d53dc15e9f6d3bc68707fed57acdade5b0842463186d64736f6c63430008070033\n}\n",
				"bytecode": {
					"linkReferences": {},
					"object": "608060405234801561001057600080fd5b5061068e806100206000396000f3fe608060405234801561001057600080fd5b50600436106100575760003560e01c806309b7cdda1461005c578063187983bf1461008c5780634c627bad146100bc57806383714834146100ec5780638f8a0d191461011c575b600080fd5b61007660048036038101906100719190610249565b61014c565b60405161008391906102d4565b60405180910390f35b6100a660048036038101906100a19190610249565b610169565b6040516100b391906102d4565b60405180910390f35b6100d660048036038101906100d19190610249565b610186565b6040516100e391906102d4565b60405180910390f35b61010660048036038101906101019190610289565b6101a3565b60405161011391906102ef565b60405180910390f35b61013660048036038101906101319190610249565b6101aa565b60405161014391906102d4565b60405180910390f35b600061016182846101c790919063ffffffff16565b905092915050565b600061017e82846101dd90919063ffffffff16565b905092915050565b600061019b82846101f390919063ffffffff16565b905092915050565b6000919050565b60006101bf828461020990919063ffffffff16565b905092915050565b600081836101d5919061039e565b905092915050565b600081836101eb9190610408565b905092915050565b60008183610201919061051f565b905092915050565b60008183610217919061030a565b905092915050565b60008135905061022e8161062a565b92915050565b60008135905061024381610641565b92915050565b600080604083850312156102605761025f610625565b5b600061026e8582860161021f565b925050602061027f8582860161021f565b9150509250929050565b60006020828403121561029f5761029e610625565b5b60006102ad84828501610234565b91505092915050565b6102bf816105b3565b82525050565b6102ce816105bd565b82525050565b60006020820190506102e960008301846102b6565b92915050565b600060208201905061030460008301846102c5565b92915050565b6000610315826105b3565b9150610320836105b3565b9250817f7fffffffffffffffffffffffffffffffffffffffffffffffffffffffffffffff0383136000831215161561035b5761035a6105c7565b5b817f8000000000000000000000000000000000000000000000000000000000000000038312600083121615610393576103926105c7565b5b828201905092915050565b60006103a9826105b3565b91506103b4836105b3565b9250826103c4576103c36105f6565b5b600160000383147f8000000000000000000000000000000000000000000000000000000000000000831416156103fd576103fc6105c7565b5b828205905092915050565b6000610413826105b3565b915061041e836105b3565b9250827f7fffffffffffffffffffffffffffffffffffffffffffffffffffffffffffffff048211600084136000841316161561045d5761045c6105c7565b5b817f8000000000000000000000000000000000000000000000000000000000000000058312600084126000841316161561049a576104996105c7565b5b827f800000000000000000000000000000000000000000000000000000000000000005821260008413600084121616156104d7576104d66105c7565b5b827f7fffffffffffffffffffffffffffffffffffffffffffffffffffffffffffffff0582126000841260008412161615610514576105136105c7565b5b828202905092915050565b600061052a826105b3565b9150610535836105b3565b9250827f8000000000000000000000000000000000000000000000000000000000000000018212600084121516156105705761056f6105c7565b5b827f7fffffffffffffffffffffffffffffffffffffffffffffffffffffffffffffff0182136000841216156105a8576105a76105c7565b5b828203905092915050565b6000819050919050565b6000819050919050565b7f4e487b7100000000000000000000000000000000000000000000000000000000600052601160045260246000fd5b7f4e487b7100000000000000000000000000000000000000000000000000000000600052601260045260246000fd5b600080fd5b610633816105b3565b811461063e57600080fd5b50565b61064a816105bd565b811461065557600080fd5b5056fea26469706673582212208a8c5b116a6848a3bfd6d53dc15e9f6d3bc68707fed57acdade5b0842463186d64736f6c63430008070033",
					"opcodes": "PUSH1 0x80 PUSH1 0x40 MSTORE CALLVALUE DUP1 ISZERO PUSH2 0x10 JUMPI PUSH1 0x0 DUP1 REVERT JUMPDEST POP PUSH2 0x68E DUP1 PUSH2 0x20 PUSH1 0x0 CODECOPY PUSH1 0x0 RETURN INVALID PUSH1 0x80 PUSH1 0x40 MSTORE CALLVALUE DUP1 ISZERO PUSH2 0x10 JUMPI PUSH1 0x0 DUP1 REVERT JUMPDEST POP PUSH1 0x4 CALLDATASIZE LT PUSH2 0x57 JUMPI PUSH1 0x0 CALLDATALOAD PUSH1 0xE0 SHR DUP1 PUSH4 0x9B7CDDA EQ PUSH2 0x5C JUMPI DUP1 PUSH4 0x187983BF EQ PUSH2 0x8C JUMPI DUP1 PUSH4 0x4C627BAD EQ PUSH2 0xBC JUMPI DUP1 PUSH4 0x83714834 EQ PUSH2 0xEC JUMPI DUP1 PUSH4 0x8F8A0D19 EQ PUSH2 0x11C JUMPI JUMPDEST PUSH1 0x0 DUP1 REVERT JUMPDEST PUSH2 0x76 PUSH1 0x4 DUP1 CALLDATASIZE SUB DUP2 ADD SWAP1 PUSH2 0x71 SWAP2 SWAP1 PUSH2 0x249 JUMP JUMPDEST PUSH2 0x14C JUMP JUMPDEST PUSH1 0x40 MLOAD PUSH2 0x83 SWAP2 SWAP1 PUSH2 0x2D4 JUMP JUMPDEST PUSH1 0x40 MLOAD DUP1 SWAP2 SUB SWAP1 RETURN JUMPDEST PUSH2 0xA6 PUSH1 0x4 DUP1 CALLDATASIZE SUB DUP2 ADD SWAP1 PUSH2 0xA1 SWAP2 SWAP1 PUSH2 0x249 JUMP JUMPDEST PUSH2 0x169 JUMP JUMPDEST PUSH1 0x40 MLOAD PUSH2 0xB3 SWAP2 SWAP1 PUSH2 0x2D4 JUMP JUMPDEST PUSH1 0x40 MLOAD DUP1 SWAP2 SUB SWAP1 RETURN JUMPDEST PUSH2 0xD6 PUSH1 0x4 DUP1 CALLDATASIZE SUB DUP2 ADD SWAP1 PUSH2 0xD1 SWAP2 SWAP1 PUSH2 0x249 JUMP JUMPDEST PUSH2 0x186 JUMP JUMPDEST PUSH1 0x40 MLOAD PUSH2 0xE3 SWAP2 SWAP1 PUSH2 0x2D4 JUMP JUMPDEST PUSH1 0x40 MLOAD DUP1 SWAP2 SUB SWAP1 RETURN JUMPDEST PUSH2 0x106 PUSH1 0x4 DUP1 CALLDATASIZE SUB DUP2 ADD SWAP1 PUSH2 0x101 SWAP2 SWAP1 PUSH2 0x289 JUMP JUMPDEST PUSH2 0x1A3 JUMP JUMPDEST PUSH1 0x40 MLOAD PUSH2 0x113 SWAP2 SWAP1 PUSH2 0x2EF JUMP JUMPDEST PUSH1 0x40 MLOAD DUP1 SWAP2 SUB SWAP1 RETURN JUMPDEST PUSH2 0x136 PUSH1 0x4 DUP1 CALLDATASIZE SUB DUP2 ADD SWAP1 PUSH2 0x131 SWAP2 SWAP1 PUSH2 0x249 JUMP JUMPDEST PUSH2 0x1AA JUMP JUMPDEST PUSH1 0x40 MLOAD PUSH2 0x143 SWAP2 SWAP1 PUSH2 0x2D4 JUMP JUMPDEST PUSH1 0x40 MLOAD DUP1 SWAP2 SUB SWAP1 RETURN JUMPDEST PUSH1 0x0 PUSH2 0x161 DUP3 DUP5 PUSH2 0x1C7 SWAP1 SWAP2 SWAP1 PUSH4 0xFFFFFFFF AND JUMP JUMPDEST SWAP1 POP SWAP3 SWAP2 POP POP JUMP JUMPDEST PUSH1 0x0 PUSH2 0x17E DUP3 DUP5 PUSH2 0x1DD SWAP1 SWAP2 SWAP1 PUSH4 0xFFFFFFFF AND JUMP JUMPDEST SWAP1 POP SWAP3 SWAP2 POP POP JUMP JUMPDEST PUSH1 0x0 PUSH2 0x19B DUP3 DUP5 PUSH2 0x1F3 SWAP1 SWAP2 SWAP1 PUSH4 0xFFFFFFFF AND JUMP JUMPDEST SWAP1 POP SWAP3 SWAP2 POP POP JUMP JUMPDEST PUSH1 0x0 SWAP2 SWAP1 POP JUMP JUMPDEST PUSH1 0x0 PUSH2 0x1BF DUP3 DUP5 PUSH2 0x209 SWAP1 SWAP2 SWAP1 PUSH4 0xFFFFFFFF AND JUMP JUMPDEST SWAP1 POP SWAP3 SWAP2 POP POP JUMP JUMPDEST PUSH1 0x0 DUP2 DUP4 PUSH2 0x1D5 SWAP2 SWAP1 PUSH2 0x39E JUMP JUMPDEST SWAP1 POP SWAP3 SWAP2 POP POP JUMP JUMPDEST PUSH1 0x0 DUP2 DUP4 PUSH2 0x1EB SWAP2 SWAP1 PUSH2 0x408 JUMP JUMPDEST SWAP1 POP SWAP3 SWAP2 POP POP JUMP JUMPDEST PUSH1 0x0 DUP2 DUP4 PUSH2 0x201 SWAP2 SWAP1 PUSH2 0x51F JUMP JUMPDEST SWAP1 POP SWAP3 SWAP2 POP POP JUMP JUMPDEST PUSH1 0x0 DUP2 DUP4 PUSH2 0x217 SWAP2 SWAP1 PUSH2 0x30A JUMP JUMPDEST SWAP1 POP SWAP3 SWAP2 POP POP JUMP JUMPDEST PUSH1 0x0 DUP2 CALLDATALOAD SWAP1 POP PUSH2 0x22E DUP2 PUSH2 0x62A JUMP JUMPDEST SWAP3 SWAP2 POP POP JUMP JUMPDEST PUSH1 0x0 DUP2 CALLDATALOAD SWAP1 POP PUSH2 0x243 DUP2 PUSH2 0x641 JUMP JUMPDEST SWAP3 SWAP2 POP POP JUMP JUMPDEST PUSH1 0x0 DUP1 PUSH1 0x40 DUP4 DUP6 SUB SLT ISZERO PUSH2 0x260 JUMPI PUSH2 0x25F PUSH2 0x625 JUMP JUMPDEST JUMPDEST PUSH1 0x0 PUSH2 0x26E DUP6 DUP3 DUP7 ADD PUSH2 0x21F JUMP JUMPDEST SWAP3 POP POP PUSH1 0x20 PUSH2 0x27F DUP6 DUP3 DUP7 ADD PUSH2 0x21F JUMP JUMPDEST SWAP2 POP POP SWAP3 POP SWAP3 SWAP1 POP JUMP JUMPDEST PUSH1 0x0 PUSH1 0x20 DUP3 DUP5 SUB SLT ISZERO PUSH2 0x29F JUMPI PUSH2 0x29E PUSH2 0x625 JUMP JUMPDEST JUMPDEST PUSH1 0x0 PUSH2 0x2AD DUP5 DUP3 DUP6 ADD PUSH2 0x234 JUMP JUMPDEST SWAP2 POP POP SWAP3 SWAP2 POP POP JUMP JUMPDEST PUSH2 0x2BF DUP2 PUSH2 0x5B3 JUMP JUMPDEST DUP3 MSTORE POP POP JUMP JUMPDEST PUSH2 0x2CE DUP2 PUSH2 0x5BD JUMP JUMPDEST DUP3 MSTORE POP POP JUMP JUMPDEST PUSH1 0x0 PUSH1 0x20 DUP3 ADD SWAP1 POP PUSH2 0x2E9 PUSH1 0x0 DUP4 ADD DUP5 PUSH2 0x2B6 JUMP JUMPDEST SWAP3 SWAP2 POP POP JUMP JUMPDEST PUSH1 0x0 PUSH1 0x20 DUP3 ADD SWAP1 POP PUSH2 0x304 PUSH1 0x0 DUP4 ADD DUP5 PUSH2 0x2C5 JUMP JUMPDEST SWAP3 SWAP2 POP POP JUMP JUMPDEST PUSH1 0x0 PUSH2 0x315 DUP3 PUSH2 0x5B3 JUMP JUMPDEST SWAP2 POP PUSH2 0x320 DUP4 PUSH2 0x5B3 JUMP JUMPDEST SWAP3 POP DUP2 PUSH32 0x7FFFFFFFFFFFFFFFFFFFFFFFFFFFFFFFFFFFFFFFFFFFFFFFFFFFFFFFFFFFFFFF SUB DUP4 SGT PUSH1 0x0 DUP4 SLT ISZERO AND ISZERO PUSH2 0x35B JUMPI PUSH2 0x35A PUSH2 0x5C7 JUMP JUMPDEST JUMPDEST DUP2 PUSH32 0x8000000000000000000000000000000000000000000000000000000000000000 SUB DUP4 SLT PUSH1 0x0 DUP4 SLT AND ISZERO PUSH2 0x393 JUMPI PUSH2 0x392 PUSH2 0x5C7 JUMP JUMPDEST JUMPDEST DUP3 DUP3 ADD SWAP1 POP SWAP3 SWAP2 POP POP JUMP JUMPDEST PUSH1 0x0 PUSH2 0x3A9 DUP3 PUSH2 0x5B3 JUMP JUMPDEST SWAP2 POP PUSH2 0x3B4 DUP4 PUSH2 0x5B3 JUMP JUMPDEST SWAP3 POP DUP3 PUSH2 0x3C4 JUMPI PUSH2 0x3C3 PUSH2 0x5F6 JUMP JUMPDEST JUMPDEST PUSH1 0x1 PUSH1 0x0 SUB DUP4 EQ PUSH32 0x8000000000000000000000000000000000000000000000000000000000000000 DUP4 EQ AND ISZERO PUSH2 0x3FD JUMPI PUSH2 0x3FC PUSH2 0x5C7 JUMP JUMPDEST JUMPDEST DUP3 DUP3 SDIV SWAP1 POP SWAP3 SWAP2 POP POP JUMP JUMPDEST PUSH1 0x0 PUSH2 0x413 DUP3 PUSH2 0x5B3 JUMP JUMPDEST SWAP2 POP PUSH2 0x41E DUP4 PUSH2 0x5B3 JUMP JUMPDEST SWAP3 POP DUP3 PUSH32 0x7FFFFFFFFFFFFFFFFFFFFFFFFFFFFFFFFFFFFFFFFFFFFFFFFFFFFFFFFFFFFFFF DIV DUP3 GT PUSH1 0x0 DUP5 SGT PUSH1 0x0 DUP5 SGT AND AND ISZERO PUSH2 0x45D JUMPI PUSH2 0x45C PUSH2 0x5C7 JUMP JUMPDEST JUMPDEST DUP2 PUSH32 0x8000000000000000000000000000000000000000000000000000000000000000 SDIV DUP4 SLT PUSH1 0x0 DUP5 SLT PUSH1 0x0 DUP5 SGT AND AND ISZERO PUSH2 0x49A JUMPI PUSH2 0x499 PUSH2 0x5C7 JUMP JUMPDEST JUMPDEST DUP3 PUSH32 0x8000000000000000000000000000000000000000000000000000000000000000 SDIV DUP3 SLT PUSH1 0x0 DUP5 SGT PUSH1 0x0 DUP5 SLT AND AND ISZERO PUSH2 0x4D7 JUMPI PUSH2 0x4D6 PUSH2 0x5C7 JUMP JUMPDEST JUMPDEST DUP3 PUSH32 0x7FFFFFFFFFFFFFFFFFFFFFFFFFFFFFFFFFFFFFFFFFFFFFFFFFFFFFFFFFFFFFFF SDIV DUP3 SLT PUSH1 0x0 DUP5 SLT PUSH1 0x0 DUP5 SLT AND AND ISZERO PUSH2 0x514 JUMPI PUSH2 0x513 PUSH2 0x5C7 JUMP JUMPDEST JUMPDEST DUP3 DUP3 MUL SWAP1 POP SWAP3 SWAP2 POP POP JUMP JUMPDEST PUSH1 0x0 PUSH2 0x52A DUP3 PUSH2 0x5B3 JUMP JUMPDEST SWAP2 POP PUSH2 0x535 DUP4 PUSH2 0x5B3 JUMP JUMPDEST SWAP3 POP DUP3 PUSH32 0x8000000000000000000000000000000000000000000000000000000000000000 ADD DUP3 SLT PUSH1 0x0 DUP5 SLT ISZERO AND ISZERO PUSH2 0x570 JUMPI PUSH2 0x56F PUSH2 0x5C7 JUMP JUMPDEST JUMPDEST DUP3 PUSH32 0x7FFFFFFFFFFFFFFFFFFFFFFFFFFFFFFFFFFFFFFFFFFFFFFFFFFFFFFFFFFFFFFF ADD DUP3 SGT PUSH1 0x0 DUP5 SLT AND ISZERO PUSH2 0x5A8 JUMPI PUSH2 0x5A7 PUSH2 0x5C7 JUMP JUMPDEST JUMPDEST DUP3 DUP3 SUB SWAP1 POP SWAP3 SWAP2 POP POP JUMP JUMPDEST PUSH1 0x0 DUP2 SWAP1 POP SWAP2 SWAP1 POP JUMP JUMPDEST PUSH1 0x0 DUP2 SWAP1 POP SWAP2 SWAP1 POP JUMP JUMPDEST PUSH32 0x4E487B7100000000000000000000000000000000000000000000000000000000 PUSH1 0x0 MSTORE PUSH1 0x11 PUSH1 0x4 MSTORE PUSH1 0x24 PUSH1 0x0 REVERT JUMPDEST PUSH32 0x4E487B7100000000000000000000000000000000000000000000000000000000 PUSH1 0x0 MSTORE PUSH1 0x12 PUSH1 0x4 MSTORE PUSH1 0x24 PUSH1 0x0 REVERT JUMPDEST PUSH1 0x0 DUP1 REVERT JUMPDEST PUSH2 0x633 DUP2 PUSH2 0x5B3 JUMP JUMPDEST DUP2 EQ PUSH2 0x63E JUMPI PUSH1 0x0 DUP1 REVERT JUMPDEST POP JUMP JUMPDEST PUSH2 0x64A DUP2 PUSH2 0x5BD JUMP JUMPDEST DUP2 EQ PUSH2 0x655 JUMPI PUSH1 0x0 DUP1 REVERT JUMPDEST POP JUMP INVALID LOG2 PUSH5 0x6970667358 0x22 SLT KECCAK256 DUP11 DUP13 JUMPDEST GT PUSH11 0x6848A3BFD6D53DC15E9F6D EXTCODESIZE 0xC6 DUP8 SMOD INVALID 0xD5 PUSH27 0xCDADE5B0842463186D64736F6C6343000807003300000000000000 "
				},
				"gasEstimates": {
					"creation": {
						"codeDepositCost": "335600",
						"executionCost": "374",
						"totalCost": "335974"
					},
					"external": {
						"division(int256,int256)": "infinite",
						"factorial(uint256)": "infinite",
						"multiplicacion(int256,int256)": "infinite",
						"resta(int256,int256)": "infinite",
						"suma(int256,int256)": "infinite"
					}
				},
				"methodIdentifiers": {
					"division(int256,int256)": "09b7cdda",
					"factorial(uint256)": "83714834",
					"multiplicacion(int256,int256)": "187983bf",
					"resta(int256,int256)": "4c627bad",
					"suma(int256,int256)": "8f8a0d19"
				}
			},
			"storageLayout": {
				"storage": [],
				"types": null
			},
			"userdoc": {
				"kind": "user",
				"methods": {},
				"version": 1
			}
		}
	}
}