{
	"Documents/GitHub/SOLIDITY-REMIX/5ef069451e67668750287d64bc5f8bae/calculadora.sol": {
		"Calculadora": {
			"abi": [
				{
					"inputs": [
						{
							"internalType": "int256",
							"name": "a",
							"type": "int256"
						},
						{
							"internalType": "int256",
							"name": "b",
							"type": "int256"
						}
					],
					"name": "division",
					"outputs": [
						{
							"internalType": "int256",
							"name": "",
							"type": "int256"
						}
					],
					"stateMutability": "pure",
					"type": "function"
				},
				{
					"inputs": [
						{
							"internalType": "uint256",
							"name": "a",
							"type": "uint256"
						}
					],
					"name": "factorial",
					"outputs": [
						{
							"internalType": "uint256",
							"name": "",
							"type": "uint256"
						}
					],
					"stateMutability": "pure",
					"type": "function"
				},
				{
					"inputs": [
						{
							"internalType": "int256",
							"name": "a",
							"type": "int256"
						},
						{
							"internalType": "int256",
							"name": "b",
							"type": "int256"
						}
					],
					"name": "multiplicacion",
					"outputs": [
						{
							"internalType": "int256",
							"name": "",
							"type": "int256"
						}
					],
					"stateMutability": "pure",
					"type": "function"
				},
				{
					"inputs": [
						{
							"internalType": "int256",
							"name": "a",
							"type": "int256"
						},
						{
							"internalType": "int256",
							"name": "b",
							"type": "int256"
						}
					],
					"name": "resta",
					"outputs": [
						{
							"internalType": "int256",
							"name": "",
							"type": "int256"
						}
					],
					"stateMutability": "pure",
					"type": "function"
				},
				{
					"inputs": [
						{
							"internalType": "int256",
							"name": "a",
							"type": "int256"
						},
						{
							"internalType": "int256",
							"name": "b",
							"type": "int256"
						}
					],
					"name": "suma",
					"outputs": [
						{
							"internalType": "int256",
							"name": "",
							"type": "int256"
						}
					],
					"stateMutability": "pure",
					"type": "function"
				}
			],
			"devdoc": {
				"kind": "dev",
				"methods": {},
				"version": 1
			},
			"evm": {
				"assembly": "    /* \"Documents/GitHub/SOLIDITY-REMIX/5ef069451e67668750287d64bc5f8bae/calculadora.sol\":94:901  contract Calculadora {\r... */\n  mstore(0x40, 0x80)\n  callvalue\n  dup1\n  iszero\n  tag_1\n  jumpi\n  0x00\n  dup1\n  revert\ntag_1:\n  pop\n  dataSize(sub_0)\n  dup1\n  dataOffset(sub_0)\n  0x00\n  codecopy\n  0x00\n  return\nstop\n\nsub_0: assembly {\n        /* \"Documents/GitHub/SOLIDITY-REMIX/5ef069451e67668750287d64bc5f8bae/calculadora.sol\":94:901  contract Calculadora {\r... */\n      mstore(0x40, 0x80)\n      callvalue\n      dup1\n      iszero\n      tag_1\n      jumpi\n      0x00\n      dup1\n      revert\n    tag_1:\n      pop\n      jumpi(tag_2, lt(calldatasize, 0x04))\n      shr(0xe0, calldataload(0x00))\n      dup1\n      0x09b7cdda\n      eq\n      tag_3\n      jumpi\n      dup1\n      0x187983bf\n      eq\n      tag_4\n      jumpi\n      dup1\n      0x4c627bad\n      eq\n      tag_5\n      jumpi\n      dup1\n      0x83714834\n      eq\n      tag_6\n      jumpi\n      dup1\n      0x8f8a0d19\n      eq\n      tag_7\n      jumpi\n    tag_2:\n      0x00\n      dup1\n      revert\n        /* \"Documents/GitHub/SOLIDITY-REMIX/5ef069451e67668750287d64bc5f8bae/calculadora.sol\":463:557  function division(int a,int b) public pure returns (int){\r... */\n    tag_3:\n      tag_8\n      0x04\n      dup1\n      calldatasize\n      sub\n      dup2\n      add\n      swap1\n      tag_9\n      swap2\n      swap1\n      tag_10\n      jump\t// in\n    tag_9:\n      tag_11\n      jump\t// in\n    tag_8:\n      mload(0x40)\n      tag_12\n      swap2\n      swap1\n      tag_13\n      jump\t// in\n    tag_12:\n      mload(0x40)\n      dup1\n      swap2\n      sub\n      swap1\n      return\n        /* \"Documents/GitHub/SOLIDITY-REMIX/5ef069451e67668750287d64bc5f8bae/calculadora.sol\":350:455  function multiplicacion(int a, int b) public pure returns (int){\r... */\n    tag_4:\n      tag_14\n      0x04\n      dup1\n      calldatasize\n      sub\n      dup2\n      add\n      swap1\n      tag_15\n      swap2\n      swap1\n      tag_10\n      jump\t// in\n    tag_15:\n      tag_16\n      jump\t// in\n    tag_14:\n      mload(0x40)\n      tag_17\n      swap2\n      swap1\n      tag_13\n      jump\t// in\n    tag_17:\n      mload(0x40)\n      dup1\n      swap2\n      sub\n      swap1\n      return\n        /* \"Documents/GitHub/SOLIDITY-REMIX/5ef069451e67668750287d64bc5f8bae/calculadora.sol\":251:342  function resta(int a, int b) public pure returns (int){\r... */\n    tag_5:\n      tag_18\n      0x04\n      dup1\n      calldatasize\n      sub\n      dup2\n      add\n      swap1\n      tag_19\n      swap2\n      swap1\n      tag_10\n      jump\t// in\n    tag_19:\n      tag_20\n      jump\t// in\n    tag_18:\n      mload(0x40)\n      tag_21\n      swap2\n      swap1\n      tag_13\n      jump\t// in\n    tag_21:\n      mload(0x40)\n      dup1\n      swap2\n      sub\n      swap1\n      return\n        /* \"Documents/GitHub/SOLIDITY-REMIX/5ef069451e67668750287d64bc5f8bae/calculadora.sol\":565:659  function factorial(uint a) public pure returns (uint){\r... */\n    tag_6:\n      tag_22\n      0x04\n      dup1\n      calldatasize\n      sub\n      dup2\n      add\n      swap1\n      tag_23\n      swap2\n      swap1\n      tag_24\n      jump\t// in\n    tag_23:\n      tag_25\n      jump\t// in\n    tag_22:\n      mload(0x40)\n      tag_26\n      swap2\n      swap1\n      tag_27\n      jump\t// in\n    tag_26:\n      mload(0x40)\n      dup1\n      swap2\n      sub\n      swap1\n      return\n        /* \"Documents/GitHub/SOLIDITY-REMIX/5ef069451e67668750287d64bc5f8bae/calculadora.sol\":150:243  function suma(int a, int b) public pure returns (int){\r... */\n    tag_7:\n      tag_28\n      0x04\n      dup1\n      calldatasize\n      sub\n      dup2\n      add\n      swap1\n      tag_29\n      swap2\n      swap1\n      tag_10\n      jump\t// in\n    tag_29:\n      tag_30\n      jump\t// in\n    tag_28:\n      mload(0x40)\n      tag_31\n      swap2\n      swap1\n      tag_13\n      jump\t// in\n    tag_31:\n      mload(0x40)\n      dup1\n      swap2\n      sub\n      swap1\n      return\n        /* \"Documents/GitHub/SOLIDITY-REMIX/5ef069451e67668750287d64bc5f8bae/calculadora.sol\":463:557  function division(int a,int b) public pure returns (int){\r... */\n    tag_11:\n        /* \"Documents/GitHub/SOLIDITY-REMIX/5ef069451e67668750287d64bc5f8bae/calculadora.sol\":515:518  int */\n      0x00\n        /* \"Documents/GitHub/SOLIDITY-REMIX/5ef069451e67668750287d64bc5f8bae/calculadora.sol\":537:549  a.dividir(b) */\n      tag_33\n        /* \"Documents/GitHub/SOLIDITY-REMIX/5ef069451e67668750287d64bc5f8bae/calculadora.sol\":547:548  b */\n      dup3\n        /* \"Documents/GitHub/SOLIDITY-REMIX/5ef069451e67668750287d64bc5f8bae/calculadora.sol\":537:538  a */\n      dup5\n        /* \"Documents/GitHub/SOLIDITY-REMIX/5ef069451e67668750287d64bc5f8bae/calculadora.sol\":537:546  a.dividir */\n      tag_34\n      swap1\n        /* \"Documents/GitHub/SOLIDITY-REMIX/5ef069451e67668750287d64bc5f8bae/calculadora.sol\":537:549  a.dividir(b) */\n      swap2\n      swap1\n      0xffffffff\n      and\n      jump\t// in\n    tag_33:\n        /* \"Documents/GitHub/SOLIDITY-REMIX/5ef069451e67668750287d64bc5f8bae/calculadora.sol\":530:549  return a.dividir(b) */\n      swap1\n      pop\n        /* \"Documents/GitHub/SOLIDITY-REMIX/5ef069451e67668750287d64bc5f8bae/calculadora.sol\":463:557  function division(int a,int b) public pure returns (int){\r... */\n      swap3\n      swap2\n      pop\n      pop\n      jump\t// out\n        /* \"Documents/GitHub/SOLIDITY-REMIX/5ef069451e67668750287d64bc5f8bae/calculadora.sol\":350:455  function multiplicacion(int a, int b) public pure returns (int){\r... */\n    tag_16:\n        /* \"Documents/GitHub/SOLIDITY-REMIX/5ef069451e67668750287d64bc5f8bae/calculadora.sol\":409:412  int */\n      0x00\n        /* \"Documents/GitHub/SOLIDITY-REMIX/5ef069451e67668750287d64bc5f8bae/calculadora.sol\":431:447  a.multiplicar(b) */\n      tag_36\n        /* \"Documents/GitHub/SOLIDITY-REMIX/5ef069451e67668750287d64bc5f8bae/calculadora.sol\":445:446  b */\n      dup3\n        /* \"Documents/GitHub/SOLIDITY-REMIX/5ef069451e67668750287d64bc5f8bae/calculadora.sol\":431:432  a */\n      dup5\n        /* \"Documents/GitHub/SOLIDITY-REMIX/5ef069451e67668750287d64bc5f8bae/calculadora.sol\":431:444  a.multiplicar */\n      tag_37\n      swap1\n        /* \"Documents/GitHub/SOLIDITY-REMIX/5ef069451e67668750287d64bc5f8bae/calculadora.sol\":431:447  a.multiplicar(b) */\n      swap2\n      swap1\n      0xffffffff\n      and\n      jump\t// in\n    tag_36:\n        /* \"Documents/GitHub/SOLIDITY-REMIX/5ef069451e67668750287d64bc5f8bae/calculadora.sol\":424:447  return a.multiplicar(b) */\n      swap1\n      pop\n        /* \"Documents/GitHub/SOLIDITY-REMIX/5ef069451e67668750287d64bc5f8bae/calculadora.sol\":350:455  function multiplicacion(int a, int b) public pure returns (int){\r... */\n      swap3\n      swap2\n      pop\n      pop\n      jump\t// out\n        /* \"Documents/GitHub/SOLIDITY-REMIX/5ef069451e67668750287d64bc5f8bae/calculadora.sol\":251:342  function resta(int a, int b) public pure returns (int){\r... */\n    tag_20:\n        /* \"Documents/GitHub/SOLIDITY-REMIX/5ef069451e67668750287d64bc5f8bae/calculadora.sol\":301:304  int */\n      0x00\n        /* \"Documents/GitHub/SOLIDITY-REMIX/5ef069451e67668750287d64bc5f8bae/calculadora.sol\":323:334  a.restar(b) */\n      tag_39\n        /* \"Documents/GitHub/SOLIDITY-REMIX/5ef069451e67668750287d64bc5f8bae/calculadora.sol\":332:333  b */\n      dup3\n        /* \"Documents/GitHub/SOLIDITY-REMIX/5ef069451e67668750287d64bc5f8bae/calculadora.sol\":323:324  a */\n      dup5\n        /* \"Documents/GitHub/SOLIDITY-REMIX/5ef069451e67668750287d64bc5f8bae/calculadora.sol\":323:331  a.restar */\n      tag_40\n      swap1\n        /* \"Documents/GitHub/SOLIDITY-REMIX/5ef069451e67668750287d64bc5f8bae/calculadora.sol\":323:334  a.restar(b) */\n      swap2\n      swap1\n      0xffffffff\n      and\n      jump\t// in\n    tag_39:\n        /* \"Documents/GitHub/SOLIDITY-REMIX/5ef069451e67668750287d64bc5f8bae/calculadora.sol\":316:334  return a.restar(b) */\n      swap1\n      pop\n        /* \"Documents/GitHub/SOLIDITY-REMIX/5ef069451e67668750287d64bc5f8bae/calculadora.sol\":251:342  function resta(int a, int b) public pure returns (int){\r... */\n      swap3\n      swap2\n      pop\n      pop\n      jump\t// out\n        /* \"Documents/GitHub/SOLIDITY-REMIX/5ef069451e67668750287d64bc5f8bae/calculadora.sol\":565:659  function factorial(uint a) public pure returns (uint){\r... */\n    tag_25:\n        /* \"Documents/GitHub/SOLIDITY-REMIX/5ef069451e67668750287d64bc5f8bae/calculadora.sol\":613:617  uint */\n      0x00\n        /* \"Documents/GitHub/SOLIDITY-REMIX/5ef069451e67668750287d64bc5f8bae/calculadora.sol\":636:651  a.factoriales() */\n      tag_42\n        /* \"Documents/GitHub/SOLIDITY-REMIX/5ef069451e67668750287d64bc5f8bae/calculadora.sol\":636:637  a */\n      dup3\n        /* \"Documents/GitHub/SOLIDITY-REMIX/5ef069451e67668750287d64bc5f8bae/calculadora.sol\":636:649  a.factoriales */\n      tag_43\n        /* \"Documents/GitHub/SOLIDITY-REMIX/5ef069451e67668750287d64bc5f8bae/calculadora.sol\":636:651  a.factoriales() */\n      jump\t// in\n    tag_42:\n        /* \"Documents/GitHub/SOLIDITY-REMIX/5ef069451e67668750287d64bc5f8bae/calculadora.sol\":629:651  return a.factoriales() */\n      swap1\n      pop\n        /* \"Documents/GitHub/SOLIDITY-REMIX/5ef069451e67668750287d64bc5f8bae/calculadora.sol\":565:659  function factorial(uint a) public pure returns (uint){\r... */\n      swap2\n      swap1\n      pop\n      jump\t// out\n        /* \"Documents/GitHub/SOLIDITY-REMIX/5ef069451e67668750287d64bc5f8bae/calculadora.sol\":150:243  function suma(int a, int b) public pure returns (int){\r... */\n    tag_30:\n        /* \"Documents/GitHub/SOLIDITY-REMIX/5ef069451e67668750287d64bc5f8bae/calculadora.sol\":199:202  int */\n      0x00\n        /* \"Documents/GitHub/SOLIDITY-REMIX/5ef069451e67668750287d64bc5f8bae/calculadora.sol\":225:235  a.sumar(b) */\n      tag_45\n        /* \"Documents/GitHub/SOLIDITY-REMIX/5ef069451e67668750287d64bc5f8bae/calculadora.sol\":233:234  b */\n      dup3\n        /* \"Documents/GitHub/SOLIDITY-REMIX/5ef069451e67668750287d64bc5f8bae/calculadora.sol\":225:226  a */\n      dup5\n        /* \"Documents/GitHub/SOLIDITY-REMIX/5ef069451e67668750287d64bc5f8bae/calculadora.sol\":225:232  a.sumar */\n      tag_46\n      swap1\n        /* \"Documents/GitHub/SOLIDITY-REMIX/5ef069451e67668750287d64bc5f8bae/calculadora.sol\":225:235  a.sumar(b) */\n      swap2\n      swap1\n      0xffffffff\n      and\n      jump\t// in\n    tag_45:\n        /* \"Documents/GitHub/SOLIDITY-REMIX/5ef069451e67668750287d64bc5f8bae/calculadora.sol\":218:235  return a.sumar(b) */\n      swap1\n      pop\n        /* \"Documents/GitHub/SOLIDITY-REMIX/5ef069451e67668750287d64bc5f8bae/calculadora.sol\":150:243  function suma(int a, int b) public pure returns (int){\r... */\n      swap3\n      swap2\n      pop\n      pop\n      jump\t// out\n        /* \"Documents/GitHub/SOLIDITY-REMIX/5ef069451e67668750287d64bc5f8bae/libmates.sol\":471:565  function dividir(int _a,int _b) internal pure returns(int) {\r... */\n    tag_34:\n        /* \"Documents/GitHub/SOLIDITY-REMIX/5ef069451e67668750287d64bc5f8bae/libmates.sol\":525:528  int */\n      0x00\n        /* \"Documents/GitHub/SOLIDITY-REMIX/5ef069451e67668750287d64bc5f8bae/libmates.sol\":554:556  _b */\n      dup2\n        /* \"Documents/GitHub/SOLIDITY-REMIX/5ef069451e67668750287d64bc5f8bae/libmates.sol\":549:551  _a */\n      dup4\n        /* \"Documents/GitHub/SOLIDITY-REMIX/5ef069451e67668750287d64bc5f8bae/libmates.sol\":549:556  _a / _b */\n      tag_48\n      swap2\n      swap1\n      tag_49\n      jump\t// in\n    tag_48:\n        /* \"Documents/GitHub/SOLIDITY-REMIX/5ef069451e67668750287d64bc5f8bae/libmates.sol\":541:557  return (_a / _b) */\n      swap1\n      pop\n        /* \"Documents/GitHub/SOLIDITY-REMIX/5ef069451e67668750287d64bc5f8bae/libmates.sol\":471:565  function dividir(int _a,int _b) internal pure returns(int) {\r... */\n      swap3\n      swap2\n      pop\n      pop\n      jump\t// out\n        /* \"Documents/GitHub/SOLIDITY-REMIX/5ef069451e67668750287d64bc5f8bae/libmates.sol\":365:463  function multiplicar(int _a,int _b) internal pure returns(int) {\r... */\n    tag_37:\n        /* \"Documents/GitHub/SOLIDITY-REMIX/5ef069451e67668750287d64bc5f8bae/libmates.sol\":423:426  int */\n      0x00\n        /* \"Documents/GitHub/SOLIDITY-REMIX/5ef069451e67668750287d64bc5f8bae/libmates.sol\":452:454  _b */\n      dup2\n        /* \"Documents/GitHub/SOLIDITY-REMIX/5ef069451e67668750287d64bc5f8bae/libmates.sol\":447:449  _a */\n      dup4\n        /* \"Documents/GitHub/SOLIDITY-REMIX/5ef069451e67668750287d64bc5f8bae/libmates.sol\":447:454  _a * _b */\n      tag_51\n      swap2\n      swap1\n      tag_52\n      jump\t// in\n    tag_51:\n        /* \"Documents/GitHub/SOLIDITY-REMIX/5ef069451e67668750287d64bc5f8bae/libmates.sol\":439:455  return (_a * _b) */\n      swap1\n      pop\n        /* \"Documents/GitHub/SOLIDITY-REMIX/5ef069451e67668750287d64bc5f8bae/libmates.sol\":365:463  function multiplicar(int _a,int _b) internal pure returns(int) {\r... */\n      swap3\n      swap2\n      pop\n      pop\n      jump\t// out\n        /* \"Documents/GitHub/SOLIDITY-REMIX/5ef069451e67668750287d64bc5f8bae/libmates.sol\":264:357  function restar(int _a,int _b) internal pure returns(int) {\r... */\n    tag_40:\n        /* \"Documents/GitHub/SOLIDITY-REMIX/5ef069451e67668750287d64bc5f8bae/libmates.sol\":317:320  int */\n      0x00\n        /* \"Documents/GitHub/SOLIDITY-REMIX/5ef069451e67668750287d64bc5f8bae/libmates.sol\":346:348  _b */\n      dup2\n        /* \"Documents/GitHub/SOLIDITY-REMIX/5ef069451e67668750287d64bc5f8bae/libmates.sol\":341:343  _a */\n      dup4\n        /* \"Documents/GitHub/SOLIDITY-REMIX/5ef069451e67668750287d64bc5f8bae/libmates.sol\":341:348  _a - _b */\n      tag_54\n      swap2\n      swap1\n      tag_55\n      jump\t// in\n    tag_54:\n        /* \"Documents/GitHub/SOLIDITY-REMIX/5ef069451e67668750287d64bc5f8bae/libmates.sol\":333:349  return (_a - _b) */\n      swap1\n      pop\n        /* \"Documents/GitHub/SOLIDITY-REMIX/5ef069451e67668750287d64bc5f8bae/libmates.sol\":264:357  function restar(int _a,int _b) internal pure returns(int) {\r... */\n      swap3\n      swap2\n      pop\n      pop\n      jump\t// out\n        /* \"Documents/GitHub/SOLIDITY-REMIX/5ef069451e67668750287d64bc5f8bae/libmates.sol\":573:767  function factoriales(uint _a) internal pure returns(uint){\r... */\n    tag_43:\n        /* \"Documents/GitHub/SOLIDITY-REMIX/5ef069451e67668750287d64bc5f8bae/libmates.sol\":625:629  uint */\n      0x00\n        /* \"Documents/GitHub/SOLIDITY-REMIX/5ef069451e67668750287d64bc5f8bae/libmates.sol\":651:652  1 */\n      0x01\n        /* \"Documents/GitHub/SOLIDITY-REMIX/5ef069451e67668750287d64bc5f8bae/libmates.sol\":645:647  _a */\n      dup3\n        /* \"Documents/GitHub/SOLIDITY-REMIX/5ef069451e67668750287d64bc5f8bae/libmates.sol\":645:652  _a <= 1 */\n      gt\n        /* \"Documents/GitHub/SOLIDITY-REMIX/5ef069451e67668750287d64bc5f8bae/libmates.sol\":641:760  if (_a <= 1){\r... */\n      tag_57\n      jumpi\n        /* \"Documents/GitHub/SOLIDITY-REMIX/5ef069451e67668750287d64bc5f8bae/libmates.sol\":675:676  1 */\n      0x01\n        /* \"Documents/GitHub/SOLIDITY-REMIX/5ef069451e67668750287d64bc5f8bae/libmates.sol\":668:676  return 1 */\n      swap1\n      pop\n      jump(tag_56)\n        /* \"Documents/GitHub/SOLIDITY-REMIX/5ef069451e67668750287d64bc5f8bae/libmates.sol\":641:760  if (_a <= 1){\r... */\n    tag_57:\n        /* \"Documents/GitHub/SOLIDITY-REMIX/5ef069451e67668750287d64bc5f8bae/libmates.sol\":730:747  factoriales(_a-1) */\n      tag_59\n        /* \"Documents/GitHub/SOLIDITY-REMIX/5ef069451e67668750287d64bc5f8bae/libmates.sol\":745:746  1 */\n      0x01\n        /* \"Documents/GitHub/SOLIDITY-REMIX/5ef069451e67668750287d64bc5f8bae/libmates.sol\":742:744  _a */\n      dup4\n        /* \"Documents/GitHub/SOLIDITY-REMIX/5ef069451e67668750287d64bc5f8bae/libmates.sol\":742:746  _a-1 */\n      tag_60\n      swap2\n      swap1\n      tag_61\n      jump\t// in\n    tag_60:\n        /* \"Documents/GitHub/SOLIDITY-REMIX/5ef069451e67668750287d64bc5f8bae/libmates.sol\":730:741  factoriales */\n      tag_43\n        /* \"Documents/GitHub/SOLIDITY-REMIX/5ef069451e67668750287d64bc5f8bae/libmates.sol\":730:747  factoriales(_a-1) */\n      jump\t// in\n    tag_59:\n        /* \"Documents/GitHub/SOLIDITY-REMIX/5ef069451e67668750287d64bc5f8bae/libmates.sol\":725:727  _a */\n      dup3\n        /* \"Documents/GitHub/SOLIDITY-REMIX/5ef069451e67668750287d64bc5f8bae/libmates.sol\":725:747  _a * factoriales(_a-1) */\n      tag_62\n      swap2\n      swap1\n      tag_63\n      jump\t// in\n    tag_62:\n        /* \"Documents/GitHub/SOLIDITY-REMIX/5ef069451e67668750287d64bc5f8bae/libmates.sol\":717:748  return (_a * factoriales(_a-1)) */\n      swap1\n      pop\n        /* \"Documents/GitHub/SOLIDITY-REMIX/5ef069451e67668750287d64bc5f8bae/libmates.sol\":573:767  function factoriales(uint _a) internal pure returns(uint){\r... */\n    tag_56:\n      swap2\n      swap1\n      pop\n      jump\t// out\n        /* \"Documents/GitHub/SOLIDITY-REMIX/5ef069451e67668750287d64bc5f8bae/libmates.sol\":164:256  function sumar(int _a,int _b) internal pure returns(int) {\r... */\n    tag_46:\n        /* \"Documents/GitHub/SOLIDITY-REMIX/5ef069451e67668750287d64bc5f8bae/libmates.sol\":216:219  int */\n      0x00\n        /* \"Documents/GitHub/SOLIDITY-REMIX/5ef069451e67668750287d64bc5f8bae/libmates.sol\":245:247  _b */\n      dup2\n        /* \"Documents/GitHub/SOLIDITY-REMIX/5ef069451e67668750287d64bc5f8bae/libmates.sol\":240:242  _a */\n      dup4\n        /* \"Documents/GitHub/SOLIDITY-REMIX/5ef069451e67668750287d64bc5f8bae/libmates.sol\":240:247  _a + _b */\n      tag_65\n      swap2\n      swap1\n      tag_66\n      jump\t// in\n    tag_65:\n        /* \"Documents/GitHub/SOLIDITY-REMIX/5ef069451e67668750287d64bc5f8bae/libmates.sol\":232:248  return (_a + _b) */\n      swap1\n      pop\n        /* \"Documents/GitHub/SOLIDITY-REMIX/5ef069451e67668750287d64bc5f8bae/libmates.sol\":164:256  function sumar(int _a,int _b) internal pure returns(int) {\r... */\n      swap3\n      swap2\n      pop\n      pop\n      jump\t// out\n        /* \"#utility.yul\":7:144   */\n    tag_68:\n        /* \"#utility.yul\":52:57   */\n      0x00\n        /* \"#utility.yul\":90:96   */\n      dup2\n        /* \"#utility.yul\":77:97   */\n      calldataload\n        /* \"#utility.yul\":68:97   */\n      swap1\n      pop\n        /* \"#utility.yul\":106:138   */\n      tag_70\n        /* \"#utility.yul\":132:137   */\n      dup2\n        /* \"#utility.yul\":106:138   */\n      tag_71\n      jump\t// in\n    tag_70:\n        /* \"#utility.yul\":7:144   */\n      swap3\n      swap2\n      pop\n      pop\n      jump\t// out\n        /* \"#utility.yul\":150:289   */\n    tag_72:\n        /* \"#utility.yul\":196:201   */\n      0x00\n        /* \"#utility.yul\":234:240   */\n      dup2\n        /* \"#utility.yul\":221:241   */\n      calldataload\n        /* \"#utility.yul\":212:241   */\n      swap1\n      pop\n        /* \"#utility.yul\":250:283   */\n      tag_74\n        /* \"#utility.yul\":277:282   */\n      dup2\n        /* \"#utility.yul\":250:283   */\n      tag_75\n      jump\t// in\n    tag_74:\n        /* \"#utility.yul\":150:289   */\n      swap3\n      swap2\n      pop\n      pop\n      jump\t// out\n        /* \"#utility.yul\":295:765   */\n    tag_10:\n        /* \"#utility.yul\":361:367   */\n      0x00\n        /* \"#utility.yul\":369:375   */\n      dup1\n        /* \"#utility.yul\":418:420   */\n      0x40\n        /* \"#utility.yul\":406:415   */\n      dup4\n        /* \"#utility.yul\":397:404   */\n      dup6\n        /* \"#utility.yul\":393:416   */\n      sub\n        /* \"#utility.yul\":389:421   */\n      slt\n        /* \"#utility.yul\":386:505   */\n      iszero\n      tag_77\n      jumpi\n        /* \"#utility.yul\":424:503   */\n      tag_78\n      tag_79\n      jump\t// in\n    tag_78:\n        /* \"#utility.yul\":386:505   */\n    tag_77:\n        /* \"#utility.yul\":544:545   */\n      0x00\n        /* \"#utility.yul\":569:621   */\n      tag_80\n        /* \"#utility.yul\":613:620   */\n      dup6\n        /* \"#utility.yul\":604:610   */\n      dup3\n        /* \"#utility.yul\":593:602   */\n      dup7\n        /* \"#utility.yul\":589:611   */\n      add\n        /* \"#utility.yul\":569:621   */\n      tag_68\n      jump\t// in\n    tag_80:\n        /* \"#utility.yul\":559:621   */\n      swap3\n      pop\n        /* \"#utility.yul\":515:631   */\n      pop\n        /* \"#utility.yul\":670:672   */\n      0x20\n        /* \"#utility.yul\":696:748   */\n      tag_81\n        /* \"#utility.yul\":740:747   */\n      dup6\n        /* \"#utility.yul\":731:737   */\n      dup3\n        /* \"#utility.yul\":720:729   */\n      dup7\n        /* \"#utility.yul\":716:738   */\n      add\n        /* \"#utility.yul\":696:748   */\n      tag_68\n      jump\t// in\n    tag_81:\n        /* \"#utility.yul\":686:748   */\n      swap2\n      pop\n        /* \"#utility.yul\":641:758   */\n      pop\n        /* \"#utility.yul\":295:765   */\n      swap3\n      pop\n      swap3\n      swap1\n      pop\n      jump\t// out\n        /* \"#utility.yul\":771:1100   */\n    tag_24:\n        /* \"#utility.yul\":830:836   */\n      0x00\n        /* \"#utility.yul\":879:881   */\n      0x20\n        /* \"#utility.yul\":867:876   */\n      dup3\n        /* \"#utility.yul\":858:865   */\n      dup5\n        /* \"#utility.yul\":854:877   */\n      sub\n        /* \"#utility.yul\":850:882   */\n      slt\n        /* \"#utility.yul\":847:966   */\n      iszero\n      tag_83\n      jumpi\n        /* \"#utility.yul\":885:964   */\n      tag_84\n      tag_79\n      jump\t// in\n    tag_84:\n        /* \"#utility.yul\":847:966   */\n    tag_83:\n        /* \"#utility.yul\":1005:1006   */\n      0x00\n        /* \"#utility.yul\":1030:1083   */\n      tag_85\n        /* \"#utility.yul\":1075:1082   */\n      dup5\n        /* \"#utility.yul\":1066:1072   */\n      dup3\n        /* \"#utility.yul\":1055:1064   */\n      dup6\n        /* \"#utility.yul\":1051:1073   */\n      add\n        /* \"#utility.yul\":1030:1083   */\n      tag_72\n      jump\t// in\n    tag_85:\n        /* \"#utility.yul\":1020:1083   */\n      swap2\n      pop\n        /* \"#utility.yul\":976:1093   */\n      pop\n        /* \"#utility.yul\":771:1100   */\n      swap3\n      swap2\n      pop\n      pop\n      jump\t// out\n        /* \"#utility.yul\":1106:1221   */\n    tag_86:\n        /* \"#utility.yul\":1191:1214   */\n      tag_88\n        /* \"#utility.yul\":1208:1213   */\n      dup2\n        /* \"#utility.yul\":1191:1214   */\n      tag_89\n      jump\t// in\n    tag_88:\n        /* \"#utility.yul\":1186:1189   */\n      dup3\n        /* \"#utility.yul\":1179:1215   */\n      mstore\n        /* \"#utility.yul\":1106:1221   */\n      pop\n      pop\n      jump\t// out\n        /* \"#utility.yul\":1227:1345   */\n    tag_90:\n        /* \"#utility.yul\":1314:1338   */\n      tag_92\n        /* \"#utility.yul\":1332:1337   */\n      dup2\n        /* \"#utility.yul\":1314:1338   */\n      tag_93\n      jump\t// in\n    tag_92:\n        /* \"#utility.yul\":1309:1312   */\n      dup3\n        /* \"#utility.yul\":1302:1339   */\n      mstore\n        /* \"#utility.yul\":1227:1345   */\n      pop\n      pop\n      jump\t// out\n        /* \"#utility.yul\":1351:1569   */\n    tag_13:\n        /* \"#utility.yul\":1442:1446   */\n      0x00\n        /* \"#utility.yul\":1480:1482   */\n      0x20\n        /* \"#utility.yul\":1469:1478   */\n      dup3\n        /* \"#utility.yul\":1465:1483   */\n      add\n        /* \"#utility.yul\":1457:1483   */\n      swap1\n      pop\n        /* \"#utility.yul\":1493:1562   */\n      tag_95\n        /* \"#utility.yul\":1559:1560   */\n      0x00\n        /* \"#utility.yul\":1548:1557   */\n      dup4\n        /* \"#utility.yul\":1544:1561   */\n      add\n        /* \"#utility.yul\":1535:1541   */\n      dup5\n        /* \"#utility.yul\":1493:1562   */\n      tag_86\n      jump\t// in\n    tag_95:\n        /* \"#utility.yul\":1351:1569   */\n      swap3\n      swap2\n      pop\n      pop\n      jump\t// out\n        /* \"#utility.yul\":1575:1797   */\n    tag_27:\n        /* \"#utility.yul\":1668:1672   */\n      0x00\n        /* \"#utility.yul\":1706:1708   */\n      0x20\n        /* \"#utility.yul\":1695:1704   */\n      dup3\n        /* \"#utility.yul\":1691:1709   */\n      add\n        /* \"#utility.yul\":1683:1709   */\n      swap1\n      pop\n        /* \"#utility.yul\":1719:1790   */\n      tag_97\n        /* \"#utility.yul\":1787:1788   */\n      0x00\n        /* \"#utility.yul\":1776:1785   */\n      dup4\n        /* \"#utility.yul\":1772:1789   */\n      add\n        /* \"#utility.yul\":1763:1769   */\n      dup5\n        /* \"#utility.yul\":1719:1790   */\n      tag_90\n      jump\t// in\n    tag_97:\n        /* \"#utility.yul\":1575:1797   */\n      swap3\n      swap2\n      pop\n      pop\n      jump\t// out\n        /* \"#utility.yul\":1884:2409   */\n    tag_66:\n        /* \"#utility.yul\":1923:1926   */\n      0x00\n        /* \"#utility.yul\":1942:1961   */\n      tag_101\n        /* \"#utility.yul\":1959:1960   */\n      dup3\n        /* \"#utility.yul\":1942:1961   */\n      tag_89\n      jump\t// in\n    tag_101:\n        /* \"#utility.yul\":1937:1961   */\n      swap2\n      pop\n        /* \"#utility.yul\":1975:1994   */\n      tag_102\n        /* \"#utility.yul\":1992:1993   */\n      dup4\n        /* \"#utility.yul\":1975:1994   */\n      tag_89\n      jump\t// in\n    tag_102:\n        /* \"#utility.yul\":1970:1994   */\n      swap3\n      pop\n        /* \"#utility.yul\":2163:2164   */\n      dup2\n        /* \"#utility.yul\":2095:2161   */\n      0x7fffffffffffffffffffffffffffffffffffffffffffffffffffffffffffffff\n        /* \"#utility.yul\":2091:2165   */\n      sub\n        /* \"#utility.yul\":2088:2089   */\n      dup4\n        /* \"#utility.yul\":2084:2166   */\n      sgt\n        /* \"#utility.yul\":2079:2080   */\n      0x00\n        /* \"#utility.yul\":2076:2077   */\n      dup4\n        /* \"#utility.yul\":2072:2081   */\n      slt\n        /* \"#utility.yul\":2065:2082   */\n      iszero\n        /* \"#utility.yul\":2061:2167   */\n      and\n        /* \"#utility.yul\":2058:2190   */\n      iszero\n      tag_103\n      jumpi\n        /* \"#utility.yul\":2170:2188   */\n      tag_104\n      tag_105\n      jump\t// in\n    tag_104:\n        /* \"#utility.yul\":2058:2190   */\n    tag_103:\n        /* \"#utility.yul\":2350:2351   */\n      dup2\n        /* \"#utility.yul\":2282:2348   */\n      0x8000000000000000000000000000000000000000000000000000000000000000\n        /* \"#utility.yul\":2278:2352   */\n      sub\n        /* \"#utility.yul\":2275:2276   */\n      dup4\n        /* \"#utility.yul\":2271:2353   */\n      slt\n        /* \"#utility.yul\":2267:2268   */\n      0x00\n        /* \"#utility.yul\":2264:2265   */\n      dup4\n        /* \"#utility.yul\":2260:2269   */\n      slt\n        /* \"#utility.yul\":2256:2354   */\n      and\n        /* \"#utility.yul\":2253:2377   */\n      iszero\n      tag_106\n      jumpi\n        /* \"#utility.yul\":2357:2375   */\n      tag_107\n      tag_105\n      jump\t// in\n    tag_107:\n        /* \"#utility.yul\":2253:2377   */\n    tag_106:\n        /* \"#utility.yul\":2401:2402   */\n      dup3\n        /* \"#utility.yul\":2398:2399   */\n      dup3\n        /* \"#utility.yul\":2394:2403   */\n      add\n        /* \"#utility.yul\":2387:2403   */\n      swap1\n      pop\n        /* \"#utility.yul\":1884:2409   */\n      swap3\n      swap2\n      pop\n      pop\n      jump\t// out\n        /* \"#utility.yul\":2415:2800   */\n    tag_49:\n        /* \"#utility.yul\":2454:2455   */\n      0x00\n        /* \"#utility.yul\":2471:2490   */\n      tag_109\n        /* \"#utility.yul\":2488:2489   */\n      dup3\n        /* \"#utility.yul\":2471:2490   */\n      tag_89\n      jump\t// in\n    tag_109:\n        /* \"#utility.yul\":2466:2490   */\n      swap2\n      pop\n        /* \"#utility.yul\":2504:2523   */\n      tag_110\n        /* \"#utility.yul\":2521:2522   */\n      dup4\n        /* \"#utility.yul\":2504:2523   */\n      tag_89\n      jump\t// in\n    tag_110:\n        /* \"#utility.yul\":2499:2523   */\n      swap3\n      pop\n        /* \"#utility.yul\":2542:2543   */\n      dup3\n        /* \"#utility.yul\":2532:2567   */\n      tag_111\n      jumpi\n        /* \"#utility.yul\":2547:2565   */\n      tag_112\n      tag_113\n      jump\t// in\n    tag_112:\n        /* \"#utility.yul\":2532:2567   */\n    tag_111:\n        /* \"#utility.yul\":2733:2734   */\n      0x01\n        /* \"#utility.yul\":2730:2731   */\n      0x00\n        /* \"#utility.yul\":2726:2735   */\n      sub\n        /* \"#utility.yul\":2723:2724   */\n      dup4\n        /* \"#utility.yul\":2720:2736   */\n      eq\n        /* \"#utility.yul\":2639:2705   */\n      0x8000000000000000000000000000000000000000000000000000000000000000\n        /* \"#utility.yul\":2636:2637   */\n      dup4\n        /* \"#utility.yul\":2633:2706   */\n      eq\n        /* \"#utility.yul\":2616:2746   */\n      and\n        /* \"#utility.yul\":2613:2769   */\n      iszero\n      tag_114\n      jumpi\n        /* \"#utility.yul\":2749:2767   */\n      tag_115\n      tag_105\n      jump\t// in\n    tag_115:\n        /* \"#utility.yul\":2613:2769   */\n    tag_114:\n        /* \"#utility.yul\":2792:2793   */\n      dup3\n        /* \"#utility.yul\":2789:2790   */\n      dup3\n        /* \"#utility.yul\":2784:2794   */\n      sdiv\n        /* \"#utility.yul\":2779:2794   */\n      swap1\n      pop\n        /* \"#utility.yul\":2415:2800   */\n      swap3\n      swap2\n      pop\n      pop\n      jump\t// out\n        /* \"#utility.yul\":2806:3797   */\n    tag_52:\n        /* \"#utility.yul\":2845:2852   */\n      0x00\n        /* \"#utility.yul\":2868:2887   */\n      tag_117\n        /* \"#utility.yul\":2885:2886   */\n      dup3\n        /* \"#utility.yul\":2868:2887   */\n      tag_89\n      jump\t// in\n    tag_117:\n        /* \"#utility.yul\":2863:2887   */\n      swap2\n      pop\n        /* \"#utility.yul\":2901:2920   */\n      tag_118\n        /* \"#utility.yul\":2918:2919   */\n      dup4\n        /* \"#utility.yul\":2901:2920   */\n      tag_89\n      jump\t// in\n    tag_118:\n        /* \"#utility.yul\":2896:2920   */\n      swap3\n      pop\n        /* \"#utility.yul\":3102:3103   */\n      dup3\n        /* \"#utility.yul\":3034:3100   */\n      0x7fffffffffffffffffffffffffffffffffffffffffffffffffffffffffffffff\n        /* \"#utility.yul\":3030:3104   */\n      div\n        /* \"#utility.yul\":3027:3028   */\n      dup3\n        /* \"#utility.yul\":3024:3105   */\n      gt\n        /* \"#utility.yul\":3019:3020   */\n      0x00\n        /* \"#utility.yul\":3016:3017   */\n      dup5\n        /* \"#utility.yul\":3012:3021   */\n      sgt\n        /* \"#utility.yul\":3008:3009   */\n      0x00\n        /* \"#utility.yul\":3005:3006   */\n      dup5\n        /* \"#utility.yul\":3001:3010   */\n      sgt\n        /* \"#utility.yul\":2997:3022   */\n      and\n        /* \"#utility.yul\":2993:3106   */\n      and\n        /* \"#utility.yul\":2990:3129   */\n      iszero\n      tag_119\n      jumpi\n        /* \"#utility.yul\":3109:3127   */\n      tag_120\n      tag_105\n      jump\t// in\n    tag_120:\n        /* \"#utility.yul\":2990:3129   */\n    tag_119:\n        /* \"#utility.yul\":3313:3314   */\n      dup2\n        /* \"#utility.yul\":3245:3311   */\n      0x8000000000000000000000000000000000000000000000000000000000000000\n        /* \"#utility.yul\":3240:3315   */\n      sdiv\n        /* \"#utility.yul\":3237:3238   */\n      dup4\n        /* \"#utility.yul\":3233:3316   */\n      slt\n        /* \"#utility.yul\":3228:3229   */\n      0x00\n        /* \"#utility.yul\":3225:3226   */\n      dup5\n        /* \"#utility.yul\":3221:3230   */\n      slt\n        /* \"#utility.yul\":3217:3218   */\n      0x00\n        /* \"#utility.yul\":3214:3215   */\n      dup5\n        /* \"#utility.yul\":3210:3219   */\n      sgt\n        /* \"#utility.yul\":3206:3231   */\n      and\n        /* \"#utility.yul\":3202:3317   */\n      and\n        /* \"#utility.yul\":3199:3340   */\n      iszero\n      tag_121\n      jumpi\n        /* \"#utility.yul\":3320:3338   */\n      tag_122\n      tag_105\n      jump\t// in\n    tag_122:\n        /* \"#utility.yul\":3199:3340   */\n    tag_121:\n        /* \"#utility.yul\":3524:3525   */\n      dup3\n        /* \"#utility.yul\":3456:3522   */\n      0x8000000000000000000000000000000000000000000000000000000000000000\n        /* \"#utility.yul\":3451:3526   */\n      sdiv\n        /* \"#utility.yul\":3448:3449   */\n      dup3\n        /* \"#utility.yul\":3444:3527   */\n      slt\n        /* \"#utility.yul\":3439:3440   */\n      0x00\n        /* \"#utility.yul\":3436:3437   */\n      dup5\n        /* \"#utility.yul\":3432:3441   */\n      sgt\n        /* \"#utility.yul\":3428:3429   */\n      0x00\n        /* \"#utility.yul\":3425:3426   */\n      dup5\n        /* \"#utility.yul\":3421:3430   */\n      slt\n        /* \"#utility.yul\":3417:3442   */\n      and\n        /* \"#utility.yul\":3413:3528   */\n      and\n        /* \"#utility.yul\":3410:3551   */\n      iszero\n      tag_123\n      jumpi\n        /* \"#utility.yul\":3531:3549   */\n      tag_124\n      tag_105\n      jump\t// in\n    tag_124:\n        /* \"#utility.yul\":3410:3551   */\n    tag_123:\n        /* \"#utility.yul\":3734:3735   */\n      dup3\n        /* \"#utility.yul\":3666:3732   */\n      0x7fffffffffffffffffffffffffffffffffffffffffffffffffffffffffffffff\n        /* \"#utility.yul\":3661:3736   */\n      sdiv\n        /* \"#utility.yul\":3658:3659   */\n      dup3\n        /* \"#utility.yul\":3654:3737   */\n      slt\n        /* \"#utility.yul\":3649:3650   */\n      0x00\n        /* \"#utility.yul\":3646:3647   */\n      dup5\n        /* \"#utility.yul\":3642:3651   */\n      slt\n        /* \"#utility.yul\":3638:3639   */\n      0x00\n        /* \"#utility.yul\":3635:3636   */\n      dup5\n        /* \"#utility.yul\":3631:3640   */\n      slt\n        /* \"#utility.yul\":3627:3652   */\n      and\n        /* \"#utility.yul\":3623:3738   */\n      and\n        /* \"#utility.yul\":3620:3761   */\n      iszero\n      tag_125\n      jumpi\n        /* \"#utility.yul\":3741:3759   */\n      tag_126\n      tag_105\n      jump\t// in\n    tag_126:\n        /* \"#utility.yul\":3620:3761   */\n    tag_125:\n        /* \"#utility.yul\":3789:3790   */\n      dup3\n        /* \"#utility.yul\":3786:3787   */\n      dup3\n        /* \"#utility.yul\":3782:3791   */\n      mul\n        /* \"#utility.yul\":3771:3791   */\n      swap1\n      pop\n        /* \"#utility.yul\":2806:3797   */\n      swap3\n      swap2\n      pop\n      pop\n      jump\t// out\n        /* \"#utility.yul\":3803:4151   */\n    tag_63:\n        /* \"#utility.yul\":3843:3850   */\n      0x00\n        /* \"#utility.yul\":3866:3886   */\n      tag_128\n        /* \"#utility.yul\":3884:3885   */\n      dup3\n        /* \"#utility.yul\":3866:3886   */\n      tag_93\n      jump\t// in\n    tag_128:\n        /* \"#utility.yul\":3861:3886   */\n      swap2\n      pop\n        /* \"#utility.yul\":3900:3920   */\n      tag_129\n        /* \"#utility.yul\":3918:3919   */\n      dup4\n        /* \"#utility.yul\":3900:3920   */\n      tag_93\n      jump\t// in\n    tag_129:\n        /* \"#utility.yul\":3895:3920   */\n      swap3\n      pop\n        /* \"#utility.yul\":4088:4089   */\n      dup2\n        /* \"#utility.yul\":4020:4086   */\n      0xffffffffffffffffffffffffffffffffffffffffffffffffffffffffffffffff\n        /* \"#utility.yul\":4016:4090   */\n      div\n        /* \"#utility.yul\":4013:4014   */\n      dup4\n        /* \"#utility.yul\":4010:4091   */\n      gt\n        /* \"#utility.yul\":4005:4006   */\n      dup3\n        /* \"#utility.yul\":3998:4007   */\n      iszero\n        /* \"#utility.yul\":3991:4008   */\n      iszero\n        /* \"#utility.yul\":3987:4092   */\n      and\n        /* \"#utility.yul\":3984:4115   */\n      iszero\n      tag_130\n      jumpi\n        /* \"#utility.yul\":4095:4113   */\n      tag_131\n      tag_105\n      jump\t// in\n    tag_131:\n        /* \"#utility.yul\":3984:4115   */\n    tag_130:\n        /* \"#utility.yul\":4143:4144   */\n      dup3\n        /* \"#utility.yul\":4140:4141   */\n      dup3\n        /* \"#utility.yul\":4136:4145   */\n      mul\n        /* \"#utility.yul\":4125:4145   */\n      swap1\n      pop\n        /* \"#utility.yul\":3803:4151   */\n      swap3\n      swap2\n      pop\n      pop\n      jump\t// out\n        /* \"#utility.yul\":4157:4684   */\n    tag_55:\n        /* \"#utility.yul\":4196:4200   */\n      0x00\n        /* \"#utility.yul\":4216:4235   */\n      tag_133\n        /* \"#utility.yul\":4233:4234   */\n      dup3\n        /* \"#utility.yul\":4216:4235   */\n      tag_89\n      jump\t// in\n    tag_133:\n        /* \"#utility.yul\":4211:4235   */\n      swap2\n      pop\n        /* \"#utility.yul\":4249:4268   */\n      tag_134\n        /* \"#utility.yul\":4266:4267   */\n      dup4\n        /* \"#utility.yul\":4249:4268   */\n      tag_89\n      jump\t// in\n    tag_134:\n        /* \"#utility.yul\":4244:4268   */\n      swap3\n      pop\n        /* \"#utility.yul\":4438:4439   */\n      dup3\n        /* \"#utility.yul\":4370:4436   */\n      0x8000000000000000000000000000000000000000000000000000000000000000\n        /* \"#utility.yul\":4366:4440   */\n      add\n        /* \"#utility.yul\":4363:4364   */\n      dup3\n        /* \"#utility.yul\":4359:4441   */\n      slt\n        /* \"#utility.yul\":4354:4355   */\n      0x00\n        /* \"#utility.yul\":4351:4352   */\n      dup5\n        /* \"#utility.yul\":4347:4356   */\n      slt\n        /* \"#utility.yul\":4340:4357   */\n      iszero\n        /* \"#utility.yul\":4336:4442   */\n      and\n        /* \"#utility.yul\":4333:4465   */\n      iszero\n      tag_135\n      jumpi\n        /* \"#utility.yul\":4445:4463   */\n      tag_136\n      tag_105\n      jump\t// in\n    tag_136:\n        /* \"#utility.yul\":4333:4465   */\n    tag_135:\n        /* \"#utility.yul\":4624:4625   */\n      dup3\n        /* \"#utility.yul\":4556:4622   */\n      0x7fffffffffffffffffffffffffffffffffffffffffffffffffffffffffffffff\n        /* \"#utility.yul\":4552:4626   */\n      add\n        /* \"#utility.yul\":4549:4550   */\n      dup3\n        /* \"#utility.yul\":4545:4627   */\n      sgt\n        /* \"#utility.yul\":4541:4542   */\n      0x00\n        /* \"#utility.yul\":4538:4539   */\n      dup5\n        /* \"#utility.yul\":4534:4543   */\n      slt\n        /* \"#utility.yul\":4530:4628   */\n      and\n        /* \"#utility.yul\":4527:4651   */\n      iszero\n      tag_137\n      jumpi\n        /* \"#utility.yul\":4631:4649   */\n      tag_138\n      tag_105\n      jump\t// in\n    tag_138:\n        /* \"#utility.yul\":4527:4651   */\n    tag_137:\n        /* \"#utility.yul\":4676:4677   */\n      dup3\n        /* \"#utility.yul\":4673:4674   */\n      dup3\n        /* \"#utility.yul\":4669:4678   */\n      sub\n        /* \"#utility.yul\":4661:4678   */\n      swap1\n      pop\n        /* \"#utility.yul\":4157:4684   */\n      swap3\n      swap2\n      pop\n      pop\n      jump\t// out\n        /* \"#utility.yul\":4690:4881   */\n    tag_61:\n        /* \"#utility.yul\":4730:4734   */\n      0x00\n        /* \"#utility.yul\":4750:4770   */\n      tag_140\n        /* \"#utility.yul\":4768:4769   */\n      dup3\n        /* \"#utility.yul\":4750:4770   */\n      tag_93\n      jump\t// in\n    tag_140:\n        /* \"#utility.yul\":4745:4770   */\n      swap2\n      pop\n        /* \"#utility.yul\":4784:4804   */\n      tag_141\n        /* \"#utility.yul\":4802:4803   */\n      dup4\n        /* \"#utility.yul\":4784:4804   */\n      tag_93\n      jump\t// in\n    tag_141:\n        /* \"#utility.yul\":4779:4804   */\n      swap3\n      pop\n        /* \"#utility.yul\":4823:4824   */\n      dup3\n        /* \"#utility.yul\":4820:4821   */\n      dup3\n        /* \"#utility.yul\":4817:4825   */\n      lt\n        /* \"#utility.yul\":4814:4848   */\n      iszero\n      tag_142\n      jumpi\n        /* \"#utility.yul\":4828:4846   */\n      tag_143\n      tag_105\n      jump\t// in\n    tag_143:\n        /* \"#utility.yul\":4814:4848   */\n    tag_142:\n        /* \"#utility.yul\":4873:4874   */\n      dup3\n        /* \"#utility.yul\":4870:4871   */\n      dup3\n        /* \"#utility.yul\":4866:4875   */\n      sub\n        /* \"#utility.yul\":4858:4875   */\n      swap1\n      pop\n        /* \"#utility.yul\":4690:4881   */\n      swap3\n      swap2\n      pop\n      pop\n      jump\t// out\n        /* \"#utility.yul\":4887:4963   */\n    tag_89:\n        /* \"#utility.yul\":4923:4930   */\n      0x00\n        /* \"#utility.yul\":4952:4957   */\n      dup2\n        /* \"#utility.yul\":4941:4957   */\n      swap1\n      pop\n        /* \"#utility.yul\":4887:4963   */\n      swap2\n      swap1\n      pop\n      jump\t// out\n        /* \"#utility.yul\":4969:5046   */\n    tag_93:\n        /* \"#utility.yul\":5006:5013   */\n      0x00\n        /* \"#utility.yul\":5035:5040   */\n      dup2\n        /* \"#utility.yul\":5024:5040   */\n      swap1\n      pop\n        /* \"#utility.yul\":4969:5046   */\n      swap2\n      swap1\n      pop\n      jump\t// out\n        /* \"#utility.yul\":5052:5232   */\n    tag_105:\n        /* \"#utility.yul\":5100:5177   */\n      0x4e487b7100000000000000000000000000000000000000000000000000000000\n        /* \"#utility.yul\":5097:5098   */\n      0x00\n        /* \"#utility.yul\":5090:5178   */\n      mstore\n        /* \"#utility.yul\":5197:5201   */\n      0x11\n        /* \"#utility.yul\":5194:5195   */\n      0x04\n        /* \"#utility.yul\":5187:5202   */\n      mstore\n        /* \"#utility.yul\":5221:5225   */\n      0x24\n        /* \"#utility.yul\":5218:5219   */\n      0x00\n        /* \"#utility.yul\":5211:5226   */\n      revert\n        /* \"#utility.yul\":5238:5418   */\n    tag_113:\n        /* \"#utility.yul\":5286:5363   */\n      0x4e487b7100000000000000000000000000000000000000000000000000000000\n        /* \"#utility.yul\":5283:5284   */\n      0x00\n        /* \"#utility.yul\":5276:5364   */\n      mstore\n        /* \"#utility.yul\":5383:5387   */\n      0x12\n        /* \"#utility.yul\":5380:5381   */\n      0x04\n        /* \"#utility.yul\":5373:5388   */\n      mstore\n        /* \"#utility.yul\":5407:5411   */\n      0x24\n        /* \"#utility.yul\":5404:5405   */\n      0x00\n        /* \"#utility.yul\":5397:5412   */\n      revert\n        /* \"#utility.yul\":5547:5664   */\n    tag_79:\n        /* \"#utility.yul\":5656:5657   */\n      0x00\n        /* \"#utility.yul\":5653:5654   */\n      dup1\n        /* \"#utility.yul\":5646:5658   */\n      revert\n        /* \"#utility.yul\":5670:5790   */\n    tag_71:\n        /* \"#utility.yul\":5742:5765   */\n      tag_152\n        /* \"#utility.yul\":5759:5764   */\n      dup2\n        /* \"#utility.yul\":5742:5765   */\n      tag_89\n      jump\t// in\n    tag_152:\n        /* \"#utility.yul\":5735:5740   */\n      dup2\n        /* \"#utility.yul\":5732:5766   */\n      eq\n        /* \"#utility.yul\":5722:5784   */\n      tag_153\n      jumpi\n        /* \"#utility.yul\":5780:5781   */\n      0x00\n        /* \"#utility.yul\":5777:5778   */\n      dup1\n        /* \"#utility.yul\":5770:5782   */\n      revert\n        /* \"#utility.yul\":5722:5784   */\n    tag_153:\n        /* \"#utility.yul\":5670:5790   */\n      pop\n      jump\t// out\n        /* \"#utility.yul\":5796:5918   */\n    tag_75:\n        /* \"#utility.yul\":5869:5893   */\n      tag_155\n        /* \"#utility.yul\":5887:5892   */\n      dup2\n        /* \"#utility.yul\":5869:5893   */\n      tag_93\n      jump\t// in\n    tag_155:\n        /* \"#utility.yul\":5862:5867   */\n      dup2\n        /* \"#utility.yul\":5859:5894   */\n      eq\n        /* \"#utility.yul\":5849:5912   */\n      tag_156\n      jumpi\n        /* \"#utility.yul\":5908:5909   */\n      0x00\n        /* \"#utility.yul\":5905:5906   */\n      dup1\n        /* \"#utility.yul\":5898:5910   */\n      revert\n        /* \"#utility.yul\":5849:5912   */\n    tag_156:\n        /* \"#utility.yul\":5796:5918   */\n      pop\n      jump\t// out\n\n    auxdata: 0xa26469706673582212205301baeb1de8a4f433291e687f8735d68971502c8db38d0c219795080d2c477364736f6c63430008070033\n}\n",
				"bytecode": {
					"linkReferences": {},
					"object": "608060405234801561001057600080fd5b50610762806100206000396000f3fe608060405234801561001057600080fd5b50600436106100575760003560e01c806309b7cdda1461005c578063187983bf1461008c5780634c627bad146100bc57806383714834146100ec5780638f8a0d191461011c575b600080fd5b6100766004803603810190610071919061028f565b61014c565b604051610083919061031a565b60405180910390f35b6100a660048036038101906100a1919061028f565b610169565b6040516100b3919061031a565b60405180910390f35b6100d660048036038101906100d1919061028f565b610186565b6040516100e3919061031a565b60405180910390f35b610106600480360381019061010191906102cf565b6101a3565b6040516101139190610335565b60405180910390f35b6101366004803603810190610131919061028f565b6101b5565b604051610143919061031a565b60405180910390f35b600061016182846101d290919063ffffffff16565b905092915050565b600061017e82846101e890919063ffffffff16565b905092915050565b600061019b82846101fe90919063ffffffff16565b905092915050565b60006101ae82610214565b9050919050565b60006101ca828461024f90919063ffffffff16565b905092915050565b600081836101e091906103e4565b905092915050565b600081836101f6919061044e565b905092915050565b6000818361020c91906105bf565b905092915050565b600060018211610227576001905061024a565b61023c6001836102379190610653565b610214565b826102479190610565565b90505b919050565b6000818361025d9190610350565b905092915050565b600081359050610274816106fe565b92915050565b60008135905061028981610715565b92915050565b600080604083850312156102a6576102a56106f9565b5b60006102b485828601610265565b92505060206102c585828601610265565b9150509250929050565b6000602082840312156102e5576102e46106f9565b5b60006102f38482850161027a565b91505092915050565b61030581610687565b82525050565b61031481610691565b82525050565b600060208201905061032f60008301846102fc565b92915050565b600060208201905061034a600083018461030b565b92915050565b600061035b82610687565b915061036683610687565b9250817f7fffffffffffffffffffffffffffffffffffffffffffffffffffffffffffffff038313600083121516156103a1576103a061069b565b5b817f80000000000000000000000000000000000000000000000000000000000000000383126000831216156103d9576103d861069b565b5b828201905092915050565b60006103ef82610687565b91506103fa83610687565b92508261040a576104096106ca565b5b600160000383147f8000000000000000000000000000000000000000000000000000000000000000831416156104435761044261069b565b5b828205905092915050565b600061045982610687565b915061046483610687565b9250827f7fffffffffffffffffffffffffffffffffffffffffffffffffffffffffffffff04821160008413600084131616156104a3576104a261069b565b5b817f800000000000000000000000000000000000000000000000000000000000000005831260008412600084131616156104e0576104df61069b565b5b827f8000000000000000000000000000000000000000000000000000000000000000058212600084136000841216161561051d5761051c61069b565b5b827f7fffffffffffffffffffffffffffffffffffffffffffffffffffffffffffffff058212600084126000841216161561055a5761055961069b565b5b828202905092915050565b600061057082610691565b915061057b83610691565b9250817fffffffffffffffffffffffffffffffffffffffffffffffffffffffffffffffff04831182151516156105b4576105b361069b565b5b828202905092915050565b60006105ca82610687565b91506105d583610687565b9250827f8000000000000000000000000000000000000000000000000000000000000000018212600084121516156106105761060f61069b565b5b827f7fffffffffffffffffffffffffffffffffffffffffffffffffffffffffffffff0182136000841216156106485761064761069b565b5b828203905092915050565b600061065e82610691565b915061066983610691565b92508282101561067c5761067b61069b565b5b828203905092915050565b6000819050919050565b6000819050919050565b7f4e487b7100000000000000000000000000000000000000000000000000000000600052601160045260246000fd5b7f4e487b7100000000000000000000000000000000000000000000000000000000600052601260045260246000fd5b600080fd5b61070781610687565b811461071257600080fd5b50565b61071e81610691565b811461072957600080fd5b5056fea26469706673582212205301baeb1de8a4f433291e687f8735d68971502c8db38d0c219795080d2c477364736f6c63430008070033",
					"opcodes": "PUSH1 0x80 PUSH1 0x40 MSTORE CALLVALUE DUP1 ISZERO PUSH2 0x10 JUMPI PUSH1 0x0 DUP1 REVERT JUMPDEST POP PUSH2 0x762 DUP1 PUSH2 0x20 PUSH1 0x0 CODECOPY PUSH1 0x0 RETURN INVALID PUSH1 0x80 PUSH1 0x40 MSTORE CALLVALUE DUP1 ISZERO PUSH2 0x10 JUMPI PUSH1 0x0 DUP1 REVERT JUMPDEST POP PUSH1 0x4 CALLDATASIZE LT PUSH2 0x57 JUMPI PUSH1 0x0 CALLDATALOAD PUSH1 0xE0 SHR DUP1 PUSH4 0x9B7CDDA EQ PUSH2 0x5C JUMPI DUP1 PUSH4 0x187983BF EQ PUSH2 0x8C JUMPI DUP1 PUSH4 0x4C627BAD EQ PUSH2 0xBC JUMPI DUP1 PUSH4 0x83714834 EQ PUSH2 0xEC JUMPI DUP1 PUSH4 0x8F8A0D19 EQ PUSH2 0x11C JUMPI JUMPDEST PUSH1 0x0 DUP1 REVERT JUMPDEST PUSH2 0x76 PUSH1 0x4 DUP1 CALLDATASIZE SUB DUP2 ADD SWAP1 PUSH2 0x71 SWAP2 SWAP1 PUSH2 0x28F JUMP JUMPDEST PUSH2 0x14C JUMP JUMPDEST PUSH1 0x40 MLOAD PUSH2 0x83 SWAP2 SWAP1 PUSH2 0x31A JUMP JUMPDEST PUSH1 0x40 MLOAD DUP1 SWAP2 SUB SWAP1 RETURN JUMPDEST PUSH2 0xA6 PUSH1 0x4 DUP1 CALLDATASIZE SUB DUP2 ADD SWAP1 PUSH2 0xA1 SWAP2 SWAP1 PUSH2 0x28F JUMP JUMPDEST PUSH2 0x169 JUMP JUMPDEST PUSH1 0x40 MLOAD PUSH2 0xB3 SWAP2 SWAP1 PUSH2 0x31A JUMP JUMPDEST PUSH1 0x40 MLOAD DUP1 SWAP2 SUB SWAP1 RETURN JUMPDEST PUSH2 0xD6 PUSH1 0x4 DUP1 CALLDATASIZE SUB DUP2 ADD SWAP1 PUSH2 0xD1 SWAP2 SWAP1 PUSH2 0x28F JUMP JUMPDEST PUSH2 0x186 JUMP JUMPDEST PUSH1 0x40 MLOAD PUSH2 0xE3 SWAP2 SWAP1 PUSH2 0x31A JUMP JUMPDEST PUSH1 0x40 MLOAD DUP1 SWAP2 SUB SWAP1 RETURN JUMPDEST PUSH2 0x106 PUSH1 0x4 DUP1 CALLDATASIZE SUB DUP2 ADD SWAP1 PUSH2 0x101 SWAP2 SWAP1 PUSH2 0x2CF JUMP JUMPDEST PUSH2 0x1A3 JUMP JUMPDEST PUSH1 0x40 MLOAD PUSH2 0x113 SWAP2 SWAP1 PUSH2 0x335 JUMP JUMPDEST PUSH1 0x40 MLOAD DUP1 SWAP2 SUB SWAP1 RETURN JUMPDEST PUSH2 0x136 PUSH1 0x4 DUP1 CALLDATASIZE SUB DUP2 ADD SWAP1 PUSH2 0x131 SWAP2 SWAP1 PUSH2 0x28F JUMP JUMPDEST PUSH2 0x1B5 JUMP JUMPDEST PUSH1 0x40 MLOAD PUSH2 0x143 SWAP2 SWAP1 PUSH2 0x31A JUMP JUMPDEST PUSH1 0x40 MLOAD DUP1 SWAP2 SUB SWAP1 RETURN JUMPDEST PUSH1 0x0 PUSH2 0x161 DUP3 DUP5 PUSH2 0x1D2 SWAP1 SWAP2 SWAP1 PUSH4 0xFFFFFFFF AND JUMP JUMPDEST SWAP1 POP SWAP3 SWAP2 POP POP JUMP JUMPDEST PUSH1 0x0 PUSH2 0x17E DUP3 DUP5 PUSH2 0x1E8 SWAP1 SWAP2 SWAP1 PUSH4 0xFFFFFFFF AND JUMP JUMPDEST SWAP1 POP SWAP3 SWAP2 POP POP JUMP JUMPDEST PUSH1 0x0 PUSH2 0x19B DUP3 DUP5 PUSH2 0x1FE SWAP1 SWAP2 SWAP1 PUSH4 0xFFFFFFFF AND JUMP JUMPDEST SWAP1 POP SWAP3 SWAP2 POP POP JUMP JUMPDEST PUSH1 0x0 PUSH2 0x1AE DUP3 PUSH2 0x214 JUMP JUMPDEST SWAP1 POP SWAP2 SWAP1 POP JUMP JUMPDEST PUSH1 0x0 PUSH2 0x1CA DUP3 DUP5 PUSH2 0x24F SWAP1 SWAP2 SWAP1 PUSH4 0xFFFFFFFF AND JUMP JUMPDEST SWAP1 POP SWAP3 SWAP2 POP POP JUMP JUMPDEST PUSH1 0x0 DUP2 DUP4 PUSH2 0x1E0 SWAP2 SWAP1 PUSH2 0x3E4 JUMP JUMPDEST SWAP1 POP SWAP3 SWAP2 POP POP JUMP JUMPDEST PUSH1 0x0 DUP2 DUP4 PUSH2 0x1F6 SWAP2 SWAP1 PUSH2 0x44E JUMP JUMPDEST SWAP1 POP SWAP3 SWAP2 POP POP JUMP JUMPDEST PUSH1 0x0 DUP2 DUP4 PUSH2 0x20C SWAP2 SWAP1 PUSH2 0x5BF JUMP JUMPDEST SWAP1 POP SWAP3 SWAP2 POP POP JUMP JUMPDEST PUSH1 0x0 PUSH1 0x1 DUP3 GT PUSH2 0x227 JUMPI PUSH1 0x1 SWAP1 POP PUSH2 0x24A JUMP JUMPDEST PUSH2 0x23C PUSH1 0x1 DUP4 PUSH2 0x237 SWAP2 SWAP1 PUSH2 0x653 JUMP JUMPDEST PUSH2 0x214 JUMP JUMPDEST DUP3 PUSH2 0x247 SWAP2 SWAP1 PUSH2 0x565 JUMP JUMPDEST SWAP1 POP JUMPDEST SWAP2 SWAP1 POP JUMP JUMPDEST PUSH1 0x0 DUP2 DUP4 PUSH2 0x25D SWAP2 SWAP1 PUSH2 0x350 JUMP JUMPDEST SWAP1 POP SWAP3 SWAP2 POP POP JUMP JUMPDEST PUSH1 0x0 DUP2 CALLDATALOAD SWAP1 POP PUSH2 0x274 DUP2 PUSH2 0x6FE JUMP JUMPDEST SWAP3 SWAP2 POP POP JUMP JUMPDEST PUSH1 0x0 DUP2 CALLDATALOAD SWAP1 POP PUSH2 0x289 DUP2 PUSH2 0x715 JUMP JUMPDEST SWAP3 SWAP2 POP POP JUMP JUMPDEST PUSH1 0x0 DUP1 PUSH1 0x40 DUP4 DUP6 SUB SLT ISZERO PUSH2 0x2A6 JUMPI PUSH2 0x2A5 PUSH2 0x6F9 JUMP JUMPDEST JUMPDEST PUSH1 0x0 PUSH2 0x2B4 DUP6 DUP3 DUP7 ADD PUSH2 0x265 JUMP JUMPDEST SWAP3 POP POP PUSH1 0x20 PUSH2 0x2C5 DUP6 DUP3 DUP7 ADD PUSH2 0x265 JUMP JUMPDEST SWAP2 POP POP SWAP3 POP SWAP3 SWAP1 POP JUMP JUMPDEST PUSH1 0x0 PUSH1 0x20 DUP3 DUP5 SUB SLT ISZERO PUSH2 0x2E5 JUMPI PUSH2 0x2E4 PUSH2 0x6F9 JUMP JUMPDEST JUMPDEST PUSH1 0x0 PUSH2 0x2F3 DUP5 DUP3 DUP6 ADD PUSH2 0x27A JUMP JUMPDEST SWAP2 POP POP SWAP3 SWAP2 POP POP JUMP JUMPDEST PUSH2 0x305 DUP2 PUSH2 0x687 JUMP JUMPDEST DUP3 MSTORE POP POP JUMP JUMPDEST PUSH2 0x314 DUP2 PUSH2 0x691 JUMP JUMPDEST DUP3 MSTORE POP POP JUMP JUMPDEST PUSH1 0x0 PUSH1 0x20 DUP3 ADD SWAP1 POP PUSH2 0x32F PUSH1 0x0 DUP4 ADD DUP5 PUSH2 0x2FC JUMP JUMPDEST SWAP3 SWAP2 POP POP JUMP JUMPDEST PUSH1 0x0 PUSH1 0x20 DUP3 ADD SWAP1 POP PUSH2 0x34A PUSH1 0x0 DUP4 ADD DUP5 PUSH2 0x30B JUMP JUMPDEST SWAP3 SWAP2 POP POP JUMP JUMPDEST PUSH1 0x0 PUSH2 0x35B DUP3 PUSH2 0x687 JUMP JUMPDEST SWAP2 POP PUSH2 0x366 DUP4 PUSH2 0x687 JUMP JUMPDEST SWAP3 POP DUP2 PUSH32 0x7FFFFFFFFFFFFFFFFFFFFFFFFFFFFFFFFFFFFFFFFFFFFFFFFFFFFFFFFFFFFFFF SUB DUP4 SGT PUSH1 0x0 DUP4 SLT ISZERO AND ISZERO PUSH2 0x3A1 JUMPI PUSH2 0x3A0 PUSH2 0x69B JUMP JUMPDEST JUMPDEST DUP2 PUSH32 0x8000000000000000000000000000000000000000000000000000000000000000 SUB DUP4 SLT PUSH1 0x0 DUP4 SLT AND ISZERO PUSH2 0x3D9 JUMPI PUSH2 0x3D8 PUSH2 0x69B JUMP JUMPDEST JUMPDEST DUP3 DUP3 ADD SWAP1 POP SWAP3 SWAP2 POP POP JUMP JUMPDEST PUSH1 0x0 PUSH2 0x3EF DUP3 PUSH2 0x687 JUMP JUMPDEST SWAP2 POP PUSH2 0x3FA DUP4 PUSH2 0x687 JUMP JUMPDEST SWAP3 POP DUP3 PUSH2 0x40A JUMPI PUSH2 0x409 PUSH2 0x6CA JUMP JUMPDEST JUMPDEST PUSH1 0x1 PUSH1 0x0 SUB DUP4 EQ PUSH32 0x8000000000000000000000000000000000000000000000000000000000000000 DUP4 EQ AND ISZERO PUSH2 0x443 JUMPI PUSH2 0x442 PUSH2 0x69B JUMP JUMPDEST JUMPDEST DUP3 DUP3 SDIV SWAP1 POP SWAP3 SWAP2 POP POP JUMP JUMPDEST PUSH1 0x0 PUSH2 0x459 DUP3 PUSH2 0x687 JUMP JUMPDEST SWAP2 POP PUSH2 0x464 DUP4 PUSH2 0x687 JUMP JUMPDEST SWAP3 POP DUP3 PUSH32 0x7FFFFFFFFFFFFFFFFFFFFFFFFFFFFFFFFFFFFFFFFFFFFFFFFFFFFFFFFFFFFFFF DIV DUP3 GT PUSH1 0x0 DUP5 SGT PUSH1 0x0 DUP5 SGT AND AND ISZERO PUSH2 0x4A3 JUMPI PUSH2 0x4A2 PUSH2 0x69B JUMP JUMPDEST JUMPDEST DUP2 PUSH32 0x8000000000000000000000000000000000000000000000000000000000000000 SDIV DUP4 SLT PUSH1 0x0 DUP5 SLT PUSH1 0x0 DUP5 SGT AND AND ISZERO PUSH2 0x4E0 JUMPI PUSH2 0x4DF PUSH2 0x69B JUMP JUMPDEST JUMPDEST DUP3 PUSH32 0x8000000000000000000000000000000000000000000000000000000000000000 SDIV DUP3 SLT PUSH1 0x0 DUP5 SGT PUSH1 0x0 DUP5 SLT AND AND ISZERO PUSH2 0x51D JUMPI PUSH2 0x51C PUSH2 0x69B JUMP JUMPDEST JUMPDEST DUP3 PUSH32 0x7FFFFFFFFFFFFFFFFFFFFFFFFFFFFFFFFFFFFFFFFFFFFFFFFFFFFFFFFFFFFFFF SDIV DUP3 SLT PUSH1 0x0 DUP5 SLT PUSH1 0x0 DUP5 SLT AND AND ISZERO PUSH2 0x55A JUMPI PUSH2 0x559 PUSH2 0x69B JUMP JUMPDEST JUMPDEST DUP3 DUP3 MUL SWAP1 POP SWAP3 SWAP2 POP POP JUMP JUMPDEST PUSH1 0x0 PUSH2 0x570 DUP3 PUSH2 0x691 JUMP JUMPDEST SWAP2 POP PUSH2 0x57B DUP4 PUSH2 0x691 JUMP JUMPDEST SWAP3 POP DUP2 PUSH32 0xFFFFFFFFFFFFFFFFFFFFFFFFFFFFFFFFFFFFFFFFFFFFFFFFFFFFFFFFFFFFFFFF DIV DUP4 GT DUP3 ISZERO ISZERO AND ISZERO PUSH2 0x5B4 JUMPI PUSH2 0x5B3 PUSH2 0x69B JUMP JUMPDEST JUMPDEST DUP3 DUP3 MUL SWAP1 POP SWAP3 SWAP2 POP POP JUMP JUMPDEST PUSH1 0x0 PUSH2 0x5CA DUP3 PUSH2 0x687 JUMP JUMPDEST SWAP2 POP PUSH2 0x5D5 DUP4 PUSH2 0x687 JUMP JUMPDEST SWAP3 POP DUP3 PUSH32 0x8000000000000000000000000000000000000000000000000000000000000000 ADD DUP3 SLT PUSH1 0x0 DUP5 SLT ISZERO AND ISZERO PUSH2 0x610 JUMPI PUSH2 0x60F PUSH2 0x69B JUMP JUMPDEST JUMPDEST DUP3 PUSH32 0x7FFFFFFFFFFFFFFFFFFFFFFFFFFFFFFFFFFFFFFFFFFFFFFFFFFFFFFFFFFFFFFF ADD DUP3 SGT PUSH1 0x0 DUP5 SLT AND ISZERO PUSH2 0x648 JUMPI PUSH2 0x647 PUSH2 0x69B JUMP JUMPDEST JUMPDEST DUP3 DUP3 SUB SWAP1 POP SWAP3 SWAP2 POP POP JUMP JUMPDEST PUSH1 0x0 PUSH2 0x65E DUP3 PUSH2 0x691 JUMP JUMPDEST SWAP2 POP PUSH2 0x669 DUP4 PUSH2 0x691 JUMP JUMPDEST SWAP3 POP DUP3 DUP3 LT ISZERO PUSH2 0x67C JUMPI PUSH2 0x67B PUSH2 0x69B JUMP JUMPDEST JUMPDEST DUP3 DUP3 SUB SWAP1 POP SWAP3 SWAP2 POP POP JUMP JUMPDEST PUSH1 0x0 DUP2 SWAP1 POP SWAP2 SWAP1 POP JUMP JUMPDEST PUSH1 0x0 DUP2 SWAP1 POP SWAP2 SWAP1 POP JUMP JUMPDEST PUSH32 0x4E487B7100000000000000000000000000000000000000000000000000000000 PUSH1 0x0 MSTORE PUSH1 0x11 PUSH1 0x4 MSTORE PUSH1 0x24 PUSH1 0x0 REVERT JUMPDEST PUSH32 0x4E487B7100000000000000000000000000000000000000000000000000000000 PUSH1 0x0 MSTORE PUSH1 0x12 PUSH1 0x4 MSTORE PUSH1 0x24 PUSH1 0x0 REVERT JUMPDEST PUSH1 0x0 DUP1 REVERT JUMPDEST PUSH2 0x707 DUP2 PUSH2 0x687 JUMP JUMPDEST DUP2 EQ PUSH2 0x712 JUMPI PUSH1 0x0 DUP1 REVERT JUMPDEST POP JUMP JUMPDEST PUSH2 0x71E DUP2 PUSH2 0x691 JUMP JUMPDEST DUP2 EQ PUSH2 0x729 JUMPI PUSH1 0x0 DUP1 REVERT JUMPDEST POP JUMP INVALID LOG2 PUSH5 0x6970667358 0x22 SLT KECCAK256 MSTORE8 ADD 0xBA 0xEB SAR 0xE8 LOG4 DELEGATECALL CALLER 0x29 0x1E PUSH9 0x7F8735D68971502C8D 0xB3 DUP14 0xC 0x21 SWAP8 SWAP6 ADDMOD 0xD 0x2C SELFBALANCE PUSH20 0x64736F6C63430008070033000000000000000000 "
				},
				"gasEstimates": {
					"creation": {
						"codeDepositCost": "378000",
						"executionCost": "418",
						"totalCost": "378418"
					},
					"external": {
						"division(int256,int256)": "infinite",
						"factorial(uint256)": "infinite",
						"multiplicacion(int256,int256)": "infinite",
						"resta(int256,int256)": "infinite",
						"suma(int256,int256)": "infinite"
					}
				},
				"methodIdentifiers": {
					"division(int256,int256)": "09b7cdda",
					"factorial(uint256)": "83714834",
					"multiplicacion(int256,int256)": "187983bf",
					"resta(int256,int256)": "4c627bad",
					"suma(int256,int256)": "8f8a0d19"
				}
			},
			"storageLayout": {
				"storage": [],
				"types": null
			},
			"userdoc": {
				"kind": "user",
				"methods": {},
				"version": 1
			}
		}
	}
}