{
	"Documents/GitHub/SOLIDITY-REMIX/5ef069451e67668750287d64bc5f8bae/calculadora.sol": {
		"Calculadora": {
			"abi": [
				{
					"inputs": [],
					"name": "a",
					"outputs": [
						{
							"internalType": "int256",
							"name": "",
							"type": "int256"
						}
					],
					"stateMutability": "view",
					"type": "function"
				},
				{
					"inputs": [],
					"name": "b",
					"outputs": [
						{
							"internalType": "int256",
							"name": "",
							"type": "int256"
						}
					],
					"stateMutability": "view",
					"type": "function"
				},
				{
					"inputs": [
						{
							"internalType": "int256",
							"name": "_a",
							"type": "int256"
						}
					],
					"name": "cuadrado",
					"outputs": [
						{
							"internalType": "uint256",
							"name": "",
							"type": "uint256"
						}
					],
					"stateMutability": "pure",
					"type": "function"
				},
				{
					"inputs": [
						{
							"internalType": "int256",
							"name": "_a",
							"type": "int256"
						},
						{
							"internalType": "int256",
							"name": "_b",
							"type": "int256"
						}
					],
					"name": "division",
					"outputs": [
						{
							"internalType": "int256",
							"name": "",
							"type": "int256"
						}
					],
					"stateMutability": "pure",
					"type": "function"
				},
				{
					"inputs": [
						{
							"internalType": "uint256",
							"name": "_a",
							"type": "uint256"
						}
					],
					"name": "factorial",
					"outputs": [
						{
							"internalType": "uint256",
							"name": "",
							"type": "uint256"
						}
					],
					"stateMutability": "nonpayable",
					"type": "function"
				},
				{
					"inputs": [
						{
							"internalType": "int256",
							"name": "_a",
							"type": "int256"
						},
						{
							"internalType": "int256",
							"name": "_b",
							"type": "int256"
						}
					],
					"name": "multiplicacion",
					"outputs": [
						{
							"internalType": "int256",
							"name": "",
							"type": "int256"
						}
					],
					"stateMutability": "pure",
					"type": "function"
				},
				{
					"inputs": [
						{
							"internalType": "uint256",
							"name": "x",
							"type": "uint256"
						}
					],
					"name": "raizCuadrada",
					"outputs": [
						{
							"internalType": "uint128",
							"name": "",
							"type": "uint128"
						}
					],
					"stateMutability": "pure",
					"type": "function"
				},
				{
					"inputs": [
						{
							"internalType": "int256",
							"name": "_a",
							"type": "int256"
						},
						{
							"internalType": "int256",
							"name": "_b",
							"type": "int256"
						}
					],
					"name": "resta",
					"outputs": [
						{
							"internalType": "int256",
							"name": "",
							"type": "int256"
						}
					],
					"stateMutability": "pure",
					"type": "function"
				},
				{
					"inputs": [
						{
							"internalType": "int256",
							"name": "_a",
							"type": "int256"
						},
						{
							"internalType": "int256",
							"name": "_b",
							"type": "int256"
						}
					],
					"name": "suma",
					"outputs": [
						{
							"internalType": "int256",
							"name": "",
							"type": "int256"
						}
					],
					"stateMutability": "pure",
					"type": "function"
				},
				{
					"inputs": [
						{
							"internalType": "int256",
							"name": "_a",
							"type": "int256"
						}
					],
					"name": "valorAbsoluto",
					"outputs": [
						{
							"internalType": "uint256",
							"name": "",
							"type": "uint256"
						}
					],
					"stateMutability": "pure",
					"type": "function"
				}
			],
			"devdoc": {
				"kind": "dev",
				"methods": {},
				"version": 1
			},
			"evm": {
				"assembly": "    /* \"Documents/GitHub/SOLIDITY-REMIX/5ef069451e67668750287d64bc5f8bae/calculadora.sol\":68:1624  contract Calculadora {\r... */\n  mstore(0x40, 0x80)\n  callvalue\n  dup1\n  iszero\n  tag_1\n  jumpi\n  0x00\n  dup1\n  revert\ntag_1:\n  pop\n  dataSize(sub_0)\n  dup1\n  dataOffset(sub_0)\n  0x00\n  codecopy\n  0x00\n  return\nstop\n\nsub_0: assembly {\n        /* \"Documents/GitHub/SOLIDITY-REMIX/5ef069451e67668750287d64bc5f8bae/calculadora.sol\":68:1624  contract Calculadora {\r... */\n      mstore(0x40, 0x80)\n      callvalue\n      dup1\n      iszero\n      tag_1\n      jumpi\n      0x00\n      dup1\n      revert\n    tag_1:\n      pop\n      jumpi(tag_2, lt(calldatasize, 0x04))\n      shr(0xe0, calldataload(0x00))\n      dup1\n      0x7d825142\n      gt\n      tag_13\n      jumpi\n      dup1\n      0x7d825142\n      eq\n      tag_8\n      jumpi\n      dup1\n      0x7ea9e058\n      eq\n      tag_9\n      jumpi\n      dup1\n      0x83714834\n      eq\n      tag_10\n      jumpi\n      dup1\n      0x8f8a0d19\n      eq\n      tag_11\n      jumpi\n      dup1\n      0xb29400d0\n      eq\n      tag_12\n      jumpi\n      jump(tag_2)\n    tag_13:\n      dup1\n      0x09b7cdda\n      eq\n      tag_3\n      jumpi\n      dup1\n      0x0dbe671f\n      eq\n      tag_4\n      jumpi\n      dup1\n      0x187983bf\n      eq\n      tag_5\n      jumpi\n      dup1\n      0x4c627bad\n      eq\n      tag_6\n      jumpi\n      dup1\n      0x4df7e3d0\n      eq\n      tag_7\n      jumpi\n    tag_2:\n      0x00\n      dup1\n      revert\n        /* \"Documents/GitHub/SOLIDITY-REMIX/5ef069451e67668750287d64bc5f8bae/calculadora.sol\":438:531  function division(int _a,int _b) public pure returns(int) {\r... */\n    tag_3:\n      tag_14\n      0x04\n      dup1\n      calldatasize\n      sub\n      dup2\n      add\n      swap1\n      tag_15\n      swap2\n      swap1\n      tag_16\n      jump\t// in\n    tag_15:\n      tag_17\n      jump\t// in\n    tag_14:\n      mload(0x40)\n      tag_18\n      swap2\n      swap1\n      tag_19\n      jump\t// in\n    tag_18:\n      mload(0x40)\n      dup1\n      swap2\n      sub\n      swap1\n      return\n        /* \"Documents/GitHub/SOLIDITY-REMIX/5ef069451e67668750287d64bc5f8bae/calculadora.sol\":96:108  int public a */\n    tag_4:\n      tag_20\n      tag_21\n      jump\t// in\n    tag_20:\n      mload(0x40)\n      tag_22\n      swap2\n      swap1\n      tag_19\n      jump\t// in\n    tag_22:\n      mload(0x40)\n      dup1\n      swap2\n      sub\n      swap1\n      return\n        /* \"Documents/GitHub/SOLIDITY-REMIX/5ef069451e67668750287d64bc5f8bae/calculadora.sol\":331:430  function multiplicacion(int _a,int _b) public pure returns(int) {\r... */\n    tag_5:\n      tag_23\n      0x04\n      dup1\n      calldatasize\n      sub\n      dup2\n      add\n      swap1\n      tag_24\n      swap2\n      swap1\n      tag_16\n      jump\t// in\n    tag_24:\n      tag_25\n      jump\t// in\n    tag_23:\n      mload(0x40)\n      tag_26\n      swap2\n      swap1\n      tag_19\n      jump\t// in\n    tag_26:\n      mload(0x40)\n      dup1\n      swap2\n      sub\n      swap1\n      return\n        /* \"Documents/GitHub/SOLIDITY-REMIX/5ef069451e67668750287d64bc5f8bae/calculadora.sol\":233:323  function resta(int _a,int _b) public pure returns(int) {\r... */\n    tag_6:\n      tag_27\n      0x04\n      dup1\n      calldatasize\n      sub\n      dup2\n      add\n      swap1\n      tag_28\n      swap2\n      swap1\n      tag_16\n      jump\t// in\n    tag_28:\n      tag_29\n      jump\t// in\n    tag_27:\n      mload(0x40)\n      tag_30\n      swap2\n      swap1\n      tag_19\n      jump\t// in\n    tag_30:\n      mload(0x40)\n      dup1\n      swap2\n      sub\n      swap1\n      return\n        /* \"Documents/GitHub/SOLIDITY-REMIX/5ef069451e67668750287d64bc5f8bae/calculadora.sol\":115:127  int public b */\n    tag_7:\n      tag_31\n      tag_32\n      jump\t// in\n    tag_31:\n      mload(0x40)\n      tag_33\n      swap2\n      swap1\n      tag_19\n      jump\t// in\n    tag_33:\n      mload(0x40)\n      dup1\n      swap2\n      sub\n      swap1\n      return\n        /* \"Documents/GitHub/SOLIDITY-REMIX/5ef069451e67668750287d64bc5f8bae/calculadora.sol\":730:917  function valorAbsoluto(int _a) public pure returns(uint) {\r... */\n    tag_8:\n      tag_34\n      0x04\n      dup1\n      calldatasize\n      sub\n      dup2\n      add\n      swap1\n      tag_35\n      swap2\n      swap1\n      tag_36\n      jump\t// in\n    tag_35:\n      tag_37\n      jump\t// in\n    tag_34:\n      mload(0x40)\n      tag_38\n      swap2\n      swap1\n      tag_39\n      jump\t// in\n    tag_38:\n      mload(0x40)\n      dup1\n      swap2\n      sub\n      swap1\n      return\n        /* \"Documents/GitHub/SOLIDITY-REMIX/5ef069451e67668750287d64bc5f8bae/calculadora.sol\":925:1016  function cuadrado(int _a) public pure returns(uint) {\r... */\n    tag_9:\n      tag_40\n      0x04\n      dup1\n      calldatasize\n      sub\n      dup2\n      add\n      swap1\n      tag_41\n      swap2\n      swap1\n      tag_36\n      jump\t// in\n    tag_41:\n      tag_42\n      jump\t// in\n    tag_40:\n      mload(0x40)\n      tag_43\n      swap2\n      swap1\n      tag_39\n      jump\t// in\n    tag_43:\n      mload(0x40)\n      dup1\n      swap2\n      sub\n      swap1\n      return\n        /* \"Documents/GitHub/SOLIDITY-REMIX/5ef069451e67668750287d64bc5f8bae/calculadora.sol\":539:722  function factorial(uint _a) public returns(uint){\r... */\n    tag_10:\n      tag_44\n      0x04\n      dup1\n      calldatasize\n      sub\n      dup2\n      add\n      swap1\n      tag_45\n      swap2\n      swap1\n      tag_46\n      jump\t// in\n    tag_45:\n      tag_47\n      jump\t// in\n    tag_44:\n      mload(0x40)\n      tag_48\n      swap2\n      swap1\n      tag_39\n      jump\t// in\n    tag_48:\n      mload(0x40)\n      dup1\n      swap2\n      sub\n      swap1\n      return\n        /* \"Documents/GitHub/SOLIDITY-REMIX/5ef069451e67668750287d64bc5f8bae/calculadora.sol\":136:225  function suma(int _a,int _b) public pure returns(int) {\r... */\n    tag_11:\n      tag_49\n      0x04\n      dup1\n      calldatasize\n      sub\n      dup2\n      add\n      swap1\n      tag_50\n      swap2\n      swap1\n      tag_16\n      jump\t// in\n    tag_50:\n      tag_51\n      jump\t// in\n    tag_49:\n      mload(0x40)\n      tag_52\n      swap2\n      swap1\n      tag_19\n      jump\t// in\n    tag_52:\n      mload(0x40)\n      dup1\n      swap2\n      sub\n      swap1\n      return\n        /* \"Documents/GitHub/SOLIDITY-REMIX/5ef069451e67668750287d64bc5f8bae/calculadora.sol\":1024:1621  function raizCuadrada (uint256 x) public pure returns(uint128) {\r... */\n    tag_12:\n      tag_53\n      0x04\n      dup1\n      calldatasize\n      sub\n      dup2\n      add\n      swap1\n      tag_54\n      swap2\n      swap1\n      tag_46\n      jump\t// in\n    tag_54:\n      tag_55\n      jump\t// in\n    tag_53:\n      mload(0x40)\n      tag_56\n      swap2\n      swap1\n      tag_57\n      jump\t// in\n    tag_56:\n      mload(0x40)\n      dup1\n      swap2\n      sub\n      swap1\n      return\n        /* \"Documents/GitHub/SOLIDITY-REMIX/5ef069451e67668750287d64bc5f8bae/calculadora.sol\":438:531  function division(int _a,int _b) public pure returns(int) {\r... */\n    tag_17:\n        /* \"Documents/GitHub/SOLIDITY-REMIX/5ef069451e67668750287d64bc5f8bae/calculadora.sol\":491:494  int */\n      0x00\n        /* \"Documents/GitHub/SOLIDITY-REMIX/5ef069451e67668750287d64bc5f8bae/calculadora.sol\":520:522  _b */\n      dup2\n        /* \"Documents/GitHub/SOLIDITY-REMIX/5ef069451e67668750287d64bc5f8bae/calculadora.sol\":515:517  _a */\n      dup4\n        /* \"Documents/GitHub/SOLIDITY-REMIX/5ef069451e67668750287d64bc5f8bae/calculadora.sol\":515:522  _a / _b */\n      tag_59\n      swap2\n      swap1\n      tag_60\n      jump\t// in\n    tag_59:\n        /* \"Documents/GitHub/SOLIDITY-REMIX/5ef069451e67668750287d64bc5f8bae/calculadora.sol\":507:523  return (_a / _b) */\n      swap1\n      pop\n        /* \"Documents/GitHub/SOLIDITY-REMIX/5ef069451e67668750287d64bc5f8bae/calculadora.sol\":438:531  function division(int _a,int _b) public pure returns(int) {\r... */\n      swap3\n      swap2\n      pop\n      pop\n      jump\t// out\n        /* \"Documents/GitHub/SOLIDITY-REMIX/5ef069451e67668750287d64bc5f8bae/calculadora.sol\":96:108  int public a */\n    tag_21:\n      sload(0x00)\n      dup2\n      jump\t// out\n        /* \"Documents/GitHub/SOLIDITY-REMIX/5ef069451e67668750287d64bc5f8bae/calculadora.sol\":331:430  function multiplicacion(int _a,int _b) public pure returns(int) {\r... */\n    tag_25:\n        /* \"Documents/GitHub/SOLIDITY-REMIX/5ef069451e67668750287d64bc5f8bae/calculadora.sol\":390:393  int */\n      0x00\n        /* \"Documents/GitHub/SOLIDITY-REMIX/5ef069451e67668750287d64bc5f8bae/calculadora.sol\":419:421  _b */\n      dup2\n        /* \"Documents/GitHub/SOLIDITY-REMIX/5ef069451e67668750287d64bc5f8bae/calculadora.sol\":414:416  _a */\n      dup4\n        /* \"Documents/GitHub/SOLIDITY-REMIX/5ef069451e67668750287d64bc5f8bae/calculadora.sol\":414:421  _a * _b */\n      tag_62\n      swap2\n      swap1\n      tag_63\n      jump\t// in\n    tag_62:\n        /* \"Documents/GitHub/SOLIDITY-REMIX/5ef069451e67668750287d64bc5f8bae/calculadora.sol\":406:422  return (_a * _b) */\n      swap1\n      pop\n        /* \"Documents/GitHub/SOLIDITY-REMIX/5ef069451e67668750287d64bc5f8bae/calculadora.sol\":331:430  function multiplicacion(int _a,int _b) public pure returns(int) {\r... */\n      swap3\n      swap2\n      pop\n      pop\n      jump\t// out\n        /* \"Documents/GitHub/SOLIDITY-REMIX/5ef069451e67668750287d64bc5f8bae/calculadora.sol\":233:323  function resta(int _a,int _b) public pure returns(int) {\r... */\n    tag_29:\n        /* \"Documents/GitHub/SOLIDITY-REMIX/5ef069451e67668750287d64bc5f8bae/calculadora.sol\":283:286  int */\n      0x00\n        /* \"Documents/GitHub/SOLIDITY-REMIX/5ef069451e67668750287d64bc5f8bae/calculadora.sol\":312:314  _b */\n      dup2\n        /* \"Documents/GitHub/SOLIDITY-REMIX/5ef069451e67668750287d64bc5f8bae/calculadora.sol\":307:309  _a */\n      dup4\n        /* \"Documents/GitHub/SOLIDITY-REMIX/5ef069451e67668750287d64bc5f8bae/calculadora.sol\":307:314  _a - _b */\n      tag_65\n      swap2\n      swap1\n      tag_66\n      jump\t// in\n    tag_65:\n        /* \"Documents/GitHub/SOLIDITY-REMIX/5ef069451e67668750287d64bc5f8bae/calculadora.sol\":299:315  return (_a - _b) */\n      swap1\n      pop\n        /* \"Documents/GitHub/SOLIDITY-REMIX/5ef069451e67668750287d64bc5f8bae/calculadora.sol\":233:323  function resta(int _a,int _b) public pure returns(int) {\r... */\n      swap3\n      swap2\n      pop\n      pop\n      jump\t// out\n        /* \"Documents/GitHub/SOLIDITY-REMIX/5ef069451e67668750287d64bc5f8bae/calculadora.sol\":115:127  int public b */\n    tag_32:\n      sload(0x01)\n      dup2\n      jump\t// out\n        /* \"Documents/GitHub/SOLIDITY-REMIX/5ef069451e67668750287d64bc5f8bae/calculadora.sol\":730:917  function valorAbsoluto(int _a) public pure returns(uint) {\r... */\n    tag_37:\n        /* \"Documents/GitHub/SOLIDITY-REMIX/5ef069451e67668750287d64bc5f8bae/calculadora.sol\":781:785  uint */\n      0x00\n        /* \"Documents/GitHub/SOLIDITY-REMIX/5ef069451e67668750287d64bc5f8bae/calculadora.sol\":807:808  0 */\n      dup1\n        /* \"Documents/GitHub/SOLIDITY-REMIX/5ef069451e67668750287d64bc5f8bae/calculadora.sol\":802:804  _a */\n      dup3\n        /* \"Documents/GitHub/SOLIDITY-REMIX/5ef069451e67668750287d64bc5f8bae/calculadora.sol\":802:808  _a > 0 */\n      sgt\n        /* \"Documents/GitHub/SOLIDITY-REMIX/5ef069451e67668750287d64bc5f8bae/calculadora.sol\":798:910  if (_a > 0){\r... */\n      iszero\n      tag_68\n      jumpi\n        /* \"Documents/GitHub/SOLIDITY-REMIX/5ef069451e67668750287d64bc5f8bae/calculadora.sol\":836:838  _a */\n      dup2\n        /* \"Documents/GitHub/SOLIDITY-REMIX/5ef069451e67668750287d64bc5f8bae/calculadora.sol\":824:840  return(uint(_a)) */\n      swap1\n      pop\n      jump(tag_67)\n        /* \"Documents/GitHub/SOLIDITY-REMIX/5ef069451e67668750287d64bc5f8bae/calculadora.sol\":798:910  if (_a > 0){\r... */\n    tag_68:\n        /* \"Documents/GitHub/SOLIDITY-REMIX/5ef069451e67668750287d64bc5f8bae/calculadora.sol\":894:896  _a */\n      dup2\n        /* \"Documents/GitHub/SOLIDITY-REMIX/5ef069451e67668750287d64bc5f8bae/calculadora.sol\":893:896  -_a */\n      tag_70\n      swap1\n      tag_71\n      jump\t// in\n    tag_70:\n        /* \"Documents/GitHub/SOLIDITY-REMIX/5ef069451e67668750287d64bc5f8bae/calculadora.sol\":881:898  return(uint(-_a)) */\n      swap1\n      pop\n        /* \"Documents/GitHub/SOLIDITY-REMIX/5ef069451e67668750287d64bc5f8bae/calculadora.sol\":730:917  function valorAbsoluto(int _a) public pure returns(uint) {\r... */\n    tag_67:\n      swap2\n      swap1\n      pop\n      jump\t// out\n        /* \"Documents/GitHub/SOLIDITY-REMIX/5ef069451e67668750287d64bc5f8bae/calculadora.sol\":925:1016  function cuadrado(int _a) public pure returns(uint) {\r... */\n    tag_42:\n        /* \"Documents/GitHub/SOLIDITY-REMIX/5ef069451e67668750287d64bc5f8bae/calculadora.sol\":971:975  uint */\n      0x00\n        /* \"Documents/GitHub/SOLIDITY-REMIX/5ef069451e67668750287d64bc5f8bae/calculadora.sol\":1005:1007  _a */\n      dup2\n        /* \"Documents/GitHub/SOLIDITY-REMIX/5ef069451e67668750287d64bc5f8bae/calculadora.sol\":1000:1002  _a */\n      dup3\n        /* \"Documents/GitHub/SOLIDITY-REMIX/5ef069451e67668750287d64bc5f8bae/calculadora.sol\":1000:1007  _a * _a */\n      tag_73\n      swap2\n      swap1\n      tag_63\n      jump\t// in\n    tag_73:\n        /* \"Documents/GitHub/SOLIDITY-REMIX/5ef069451e67668750287d64bc5f8bae/calculadora.sol\":988:1008  return uint(_a * _a) */\n      swap1\n      pop\n        /* \"Documents/GitHub/SOLIDITY-REMIX/5ef069451e67668750287d64bc5f8bae/calculadora.sol\":925:1016  function cuadrado(int _a) public pure returns(uint) {\r... */\n      swap2\n      swap1\n      pop\n      jump\t// out\n        /* \"Documents/GitHub/SOLIDITY-REMIX/5ef069451e67668750287d64bc5f8bae/calculadora.sol\":539:722  function factorial(uint _a) public returns(uint){\r... */\n    tag_47:\n        /* \"Documents/GitHub/SOLIDITY-REMIX/5ef069451e67668750287d64bc5f8bae/calculadora.sol\":582:586  uint */\n      0x00\n        /* \"Documents/GitHub/SOLIDITY-REMIX/5ef069451e67668750287d64bc5f8bae/calculadora.sol\":608:609  1 */\n      0x01\n        /* \"Documents/GitHub/SOLIDITY-REMIX/5ef069451e67668750287d64bc5f8bae/calculadora.sol\":602:604  _a */\n      dup3\n        /* \"Documents/GitHub/SOLIDITY-REMIX/5ef069451e67668750287d64bc5f8bae/calculadora.sol\":602:609  _a <= 1 */\n      gt\n        /* \"Documents/GitHub/SOLIDITY-REMIX/5ef069451e67668750287d64bc5f8bae/calculadora.sol\":598:715  if (_a <= 1){\r... */\n      tag_75\n      jumpi\n        /* \"Documents/GitHub/SOLIDITY-REMIX/5ef069451e67668750287d64bc5f8bae/calculadora.sol\":632:633  1 */\n      0x01\n        /* \"Documents/GitHub/SOLIDITY-REMIX/5ef069451e67668750287d64bc5f8bae/calculadora.sol\":625:633  return 1 */\n      swap1\n      pop\n      jump(tag_74)\n        /* \"Documents/GitHub/SOLIDITY-REMIX/5ef069451e67668750287d64bc5f8bae/calculadora.sol\":598:715  if (_a <= 1){\r... */\n    tag_75:\n        /* \"Documents/GitHub/SOLIDITY-REMIX/5ef069451e67668750287d64bc5f8bae/calculadora.sol\":687:702  factorial(_a-1) */\n      tag_77\n        /* \"Documents/GitHub/SOLIDITY-REMIX/5ef069451e67668750287d64bc5f8bae/calculadora.sol\":700:701  1 */\n      0x01\n        /* \"Documents/GitHub/SOLIDITY-REMIX/5ef069451e67668750287d64bc5f8bae/calculadora.sol\":697:699  _a */\n      dup4\n        /* \"Documents/GitHub/SOLIDITY-REMIX/5ef069451e67668750287d64bc5f8bae/calculadora.sol\":697:701  _a-1 */\n      tag_78\n      swap2\n      swap1\n      tag_79\n      jump\t// in\n    tag_78:\n        /* \"Documents/GitHub/SOLIDITY-REMIX/5ef069451e67668750287d64bc5f8bae/calculadora.sol\":687:696  factorial */\n      tag_47\n        /* \"Documents/GitHub/SOLIDITY-REMIX/5ef069451e67668750287d64bc5f8bae/calculadora.sol\":687:702  factorial(_a-1) */\n      jump\t// in\n    tag_77:\n        /* \"Documents/GitHub/SOLIDITY-REMIX/5ef069451e67668750287d64bc5f8bae/calculadora.sol\":682:684  _a */\n      dup3\n        /* \"Documents/GitHub/SOLIDITY-REMIX/5ef069451e67668750287d64bc5f8bae/calculadora.sol\":682:702  _a * factorial(_a-1) */\n      tag_80\n      swap2\n      swap1\n      tag_81\n      jump\t// in\n    tag_80:\n        /* \"Documents/GitHub/SOLIDITY-REMIX/5ef069451e67668750287d64bc5f8bae/calculadora.sol\":674:703  return (_a * factorial(_a-1)) */\n      swap1\n      pop\n        /* \"Documents/GitHub/SOLIDITY-REMIX/5ef069451e67668750287d64bc5f8bae/calculadora.sol\":539:722  function factorial(uint _a) public returns(uint){\r... */\n    tag_74:\n      swap2\n      swap1\n      pop\n      jump\t// out\n        /* \"Documents/GitHub/SOLIDITY-REMIX/5ef069451e67668750287d64bc5f8bae/calculadora.sol\":136:225  function suma(int _a,int _b) public pure returns(int) {\r... */\n    tag_51:\n        /* \"Documents/GitHub/SOLIDITY-REMIX/5ef069451e67668750287d64bc5f8bae/calculadora.sol\":185:188  int */\n      0x00\n        /* \"Documents/GitHub/SOLIDITY-REMIX/5ef069451e67668750287d64bc5f8bae/calculadora.sol\":214:216  _b */\n      dup2\n        /* \"Documents/GitHub/SOLIDITY-REMIX/5ef069451e67668750287d64bc5f8bae/calculadora.sol\":209:211  _a */\n      dup4\n        /* \"Documents/GitHub/SOLIDITY-REMIX/5ef069451e67668750287d64bc5f8bae/calculadora.sol\":209:216  _a + _b */\n      tag_83\n      swap2\n      swap1\n      tag_84\n      jump\t// in\n    tag_83:\n        /* \"Documents/GitHub/SOLIDITY-REMIX/5ef069451e67668750287d64bc5f8bae/calculadora.sol\":201:217  return (_a + _b) */\n      swap1\n      pop\n        /* \"Documents/GitHub/SOLIDITY-REMIX/5ef069451e67668750287d64bc5f8bae/calculadora.sol\":136:225  function suma(int _a,int _b) public pure returns(int) {\r... */\n      swap3\n      swap2\n      pop\n      pop\n      jump\t// out\n        /* \"Documents/GitHub/SOLIDITY-REMIX/5ef069451e67668750287d64bc5f8bae/calculadora.sol\":1024:1621  function raizCuadrada (uint256 x) public pure returns(uint128) {\r... */\n    tag_55:\n        /* \"Documents/GitHub/SOLIDITY-REMIX/5ef069451e67668750287d64bc5f8bae/calculadora.sol\":1078:1085  uint128 */\n      0x00\n        /* \"Documents/GitHub/SOLIDITY-REMIX/5ef069451e67668750287d64bc5f8bae/calculadora.sol\":1137:1138  0 */\n      dup1\n        /* \"Documents/GitHub/SOLIDITY-REMIX/5ef069451e67668750287d64bc5f8bae/calculadora.sol\":1132:1133  x */\n      dup3\n        /* \"Documents/GitHub/SOLIDITY-REMIX/5ef069451e67668750287d64bc5f8bae/calculadora.sol\":1132:1138  x >= 0 */\n      lt\n      iszero\n        /* \"Documents/GitHub/SOLIDITY-REMIX/5ef069451e67668750287d64bc5f8bae/calculadora.sol\":1123:1139  require (x >= 0) */\n      tag_86\n      jumpi\n      0x00\n      dup1\n      revert\n    tag_86:\n        /* \"Documents/GitHub/SOLIDITY-REMIX/5ef069451e67668750287d64bc5f8bae/calculadora.sol\":1163:1164  0 */\n      0x00\n        /* \"Documents/GitHub/SOLIDITY-REMIX/5ef069451e67668750287d64bc5f8bae/calculadora.sol\":1158:1159  x */\n      dup3\n        /* \"Documents/GitHub/SOLIDITY-REMIX/5ef069451e67668750287d64bc5f8bae/calculadora.sol\":1158:1164  x == 0 */\n      eq\n        /* \"Documents/GitHub/SOLIDITY-REMIX/5ef069451e67668750287d64bc5f8bae/calculadora.sol\":1154:1603  if (x == 0) return 0;\r... */\n      iszero\n      tag_87\n      jumpi\n        /* \"Documents/GitHub/SOLIDITY-REMIX/5ef069451e67668750287d64bc5f8bae/calculadora.sol\":1173:1174  0 */\n      0x00\n        /* \"Documents/GitHub/SOLIDITY-REMIX/5ef069451e67668750287d64bc5f8bae/calculadora.sol\":1166:1174  return 0 */\n      swap1\n      pop\n      jump(tag_85)\n        /* \"Documents/GitHub/SOLIDITY-REMIX/5ef069451e67668750287d64bc5f8bae/calculadora.sol\":1154:1603  if (x == 0) return 0;\r... */\n    tag_87:\n        /* \"Documents/GitHub/SOLIDITY-REMIX/5ef069451e67668750287d64bc5f8bae/calculadora.sol\":1213:1222  uint256 r */\n      0x00\n        /* \"Documents/GitHub/SOLIDITY-REMIX/5ef069451e67668750287d64bc5f8bae/calculadora.sol\":1225:1226  1 */\n      0x01\n        /* \"Documents/GitHub/SOLIDITY-REMIX/5ef069451e67668750287d64bc5f8bae/calculadora.sol\":1213:1226  uint256 r = 1 */\n      swap1\n      pop\n        /* \"Documents/GitHub/SOLIDITY-REMIX/5ef069451e67668750287d64bc5f8bae/calculadora.sol\":1331:1332  2 */\n      0x02\n        /* \"Documents/GitHub/SOLIDITY-REMIX/5ef069451e67668750287d64bc5f8bae/calculadora.sol\":1328:1329  r */\n      dup2\n        /* \"Documents/GitHub/SOLIDITY-REMIX/5ef069451e67668750287d64bc5f8bae/calculadora.sol\":1326:1327  x */\n      dup5\n        /* \"Documents/GitHub/SOLIDITY-REMIX/5ef069451e67668750287d64bc5f8bae/calculadora.sol\":1326:1329  x/r */\n      dup2\n      tag_89\n      jumpi\n      tag_90\n      tag_91\n      jump\t// in\n    tag_90:\n    tag_89:\n      div\n        /* \"Documents/GitHub/SOLIDITY-REMIX/5ef069451e67668750287d64bc5f8bae/calculadora.sol\":1324:1325  r */\n      dup3\n        /* \"Documents/GitHub/SOLIDITY-REMIX/5ef069451e67668750287d64bc5f8bae/calculadora.sol\":1324:1329  r+x/r */\n      add\n        /* \"Documents/GitHub/SOLIDITY-REMIX/5ef069451e67668750287d64bc5f8bae/calculadora.sol\":1323:1332  (r+x/r)/2 */\n      dup2\n      tag_92\n      jumpi\n      tag_93\n      tag_91\n      jump\t// in\n    tag_93:\n    tag_92:\n      div\n        /* \"Documents/GitHub/SOLIDITY-REMIX/5ef069451e67668750287d64bc5f8bae/calculadora.sol\":1319:1332  r = (r+x/r)/2 */\n      swap1\n      pop\n        /* \"Documents/GitHub/SOLIDITY-REMIX/5ef069451e67668750287d64bc5f8bae/calculadora.sol\":1363:1364  2 */\n      0x02\n        /* \"Documents/GitHub/SOLIDITY-REMIX/5ef069451e67668750287d64bc5f8bae/calculadora.sol\":1360:1361  r */\n      dup2\n        /* \"Documents/GitHub/SOLIDITY-REMIX/5ef069451e67668750287d64bc5f8bae/calculadora.sol\":1358:1359  x */\n      dup5\n        /* \"Documents/GitHub/SOLIDITY-REMIX/5ef069451e67668750287d64bc5f8bae/calculadora.sol\":1358:1361  x/r */\n      dup2\n      tag_94\n      jumpi\n      tag_95\n      tag_91\n      jump\t// in\n    tag_95:\n    tag_94:\n      div\n        /* \"Documents/GitHub/SOLIDITY-REMIX/5ef069451e67668750287d64bc5f8bae/calculadora.sol\":1356:1357  r */\n      dup3\n        /* \"Documents/GitHub/SOLIDITY-REMIX/5ef069451e67668750287d64bc5f8bae/calculadora.sol\":1356:1361  r+x/r */\n      add\n        /* \"Documents/GitHub/SOLIDITY-REMIX/5ef069451e67668750287d64bc5f8bae/calculadora.sol\":1355:1364  (r+x/r)/2 */\n      dup2\n      tag_96\n      jumpi\n      tag_97\n      tag_91\n      jump\t// in\n    tag_97:\n    tag_96:\n      div\n        /* \"Documents/GitHub/SOLIDITY-REMIX/5ef069451e67668750287d64bc5f8bae/calculadora.sol\":1351:1364  r = (r+x/r)/2 */\n      swap1\n      pop\n        /* \"Documents/GitHub/SOLIDITY-REMIX/5ef069451e67668750287d64bc5f8bae/calculadora.sol\":1395:1396  2 */\n      0x02\n        /* \"Documents/GitHub/SOLIDITY-REMIX/5ef069451e67668750287d64bc5f8bae/calculadora.sol\":1392:1393  r */\n      dup2\n        /* \"Documents/GitHub/SOLIDITY-REMIX/5ef069451e67668750287d64bc5f8bae/calculadora.sol\":1390:1391  x */\n      dup5\n        /* \"Documents/GitHub/SOLIDITY-REMIX/5ef069451e67668750287d64bc5f8bae/calculadora.sol\":1390:1393  x/r */\n      dup2\n      tag_98\n      jumpi\n      tag_99\n      tag_91\n      jump\t// in\n    tag_99:\n    tag_98:\n      div\n        /* \"Documents/GitHub/SOLIDITY-REMIX/5ef069451e67668750287d64bc5f8bae/calculadora.sol\":1388:1389  r */\n      dup3\n        /* \"Documents/GitHub/SOLIDITY-REMIX/5ef069451e67668750287d64bc5f8bae/calculadora.sol\":1388:1393  r+x/r */\n      add\n        /* \"Documents/GitHub/SOLIDITY-REMIX/5ef069451e67668750287d64bc5f8bae/calculadora.sol\":1387:1396  (r+x/r)/2 */\n      dup2\n      tag_100\n      jumpi\n      tag_101\n      tag_91\n      jump\t// in\n    tag_101:\n    tag_100:\n      div\n        /* \"Documents/GitHub/SOLIDITY-REMIX/5ef069451e67668750287d64bc5f8bae/calculadora.sol\":1383:1396  r = (r+x/r)/2 */\n      swap1\n      pop\n        /* \"Documents/GitHub/SOLIDITY-REMIX/5ef069451e67668750287d64bc5f8bae/calculadora.sol\":1427:1428  2 */\n      0x02\n        /* \"Documents/GitHub/SOLIDITY-REMIX/5ef069451e67668750287d64bc5f8bae/calculadora.sol\":1424:1425  r */\n      dup2\n        /* \"Documents/GitHub/SOLIDITY-REMIX/5ef069451e67668750287d64bc5f8bae/calculadora.sol\":1422:1423  x */\n      dup5\n        /* \"Documents/GitHub/SOLIDITY-REMIX/5ef069451e67668750287d64bc5f8bae/calculadora.sol\":1422:1425  x/r */\n      dup2\n      tag_102\n      jumpi\n      tag_103\n      tag_91\n      jump\t// in\n    tag_103:\n    tag_102:\n      div\n        /* \"Documents/GitHub/SOLIDITY-REMIX/5ef069451e67668750287d64bc5f8bae/calculadora.sol\":1420:1421  r */\n      dup3\n        /* \"Documents/GitHub/SOLIDITY-REMIX/5ef069451e67668750287d64bc5f8bae/calculadora.sol\":1420:1425  r+x/r */\n      add\n        /* \"Documents/GitHub/SOLIDITY-REMIX/5ef069451e67668750287d64bc5f8bae/calculadora.sol\":1419:1428  (r+x/r)/2 */\n      dup2\n      tag_104\n      jumpi\n      tag_105\n      tag_91\n      jump\t// in\n    tag_105:\n    tag_104:\n      div\n        /* \"Documents/GitHub/SOLIDITY-REMIX/5ef069451e67668750287d64bc5f8bae/calculadora.sol\":1415:1428  r = (r+x/r)/2 */\n      swap1\n      pop\n        /* \"Documents/GitHub/SOLIDITY-REMIX/5ef069451e67668750287d64bc5f8bae/calculadora.sol\":1459:1460  2 */\n      0x02\n        /* \"Documents/GitHub/SOLIDITY-REMIX/5ef069451e67668750287d64bc5f8bae/calculadora.sol\":1456:1457  r */\n      dup2\n        /* \"Documents/GitHub/SOLIDITY-REMIX/5ef069451e67668750287d64bc5f8bae/calculadora.sol\":1454:1455  x */\n      dup5\n        /* \"Documents/GitHub/SOLIDITY-REMIX/5ef069451e67668750287d64bc5f8bae/calculadora.sol\":1454:1457  x/r */\n      dup2\n      tag_106\n      jumpi\n      tag_107\n      tag_91\n      jump\t// in\n    tag_107:\n    tag_106:\n      div\n        /* \"Documents/GitHub/SOLIDITY-REMIX/5ef069451e67668750287d64bc5f8bae/calculadora.sol\":1452:1453  r */\n      dup3\n        /* \"Documents/GitHub/SOLIDITY-REMIX/5ef069451e67668750287d64bc5f8bae/calculadora.sol\":1452:1457  r+x/r */\n      add\n        /* \"Documents/GitHub/SOLIDITY-REMIX/5ef069451e67668750287d64bc5f8bae/calculadora.sol\":1451:1460  (r+x/r)/2 */\n      dup2\n      tag_108\n      jumpi\n      tag_109\n      tag_91\n      jump\t// in\n    tag_109:\n    tag_108:\n      div\n        /* \"Documents/GitHub/SOLIDITY-REMIX/5ef069451e67668750287d64bc5f8bae/calculadora.sol\":1447:1460  r = (r+x/r)/2 */\n      swap1\n      pop\n        /* \"Documents/GitHub/SOLIDITY-REMIX/5ef069451e67668750287d64bc5f8bae/calculadora.sol\":1479:1489  uint256 r1 */\n      0x00\n        /* \"Documents/GitHub/SOLIDITY-REMIX/5ef069451e67668750287d64bc5f8bae/calculadora.sol\":1494:1495  r */\n      dup2\n        /* \"Documents/GitHub/SOLIDITY-REMIX/5ef069451e67668750287d64bc5f8bae/calculadora.sol\":1492:1493  x */\n      dup5\n        /* \"Documents/GitHub/SOLIDITY-REMIX/5ef069451e67668750287d64bc5f8bae/calculadora.sol\":1492:1495  x/r */\n      dup2\n      tag_110\n      jumpi\n      tag_111\n      tag_91\n      jump\t// in\n    tag_111:\n    tag_110:\n      div\n        /* \"Documents/GitHub/SOLIDITY-REMIX/5ef069451e67668750287d64bc5f8bae/calculadora.sol\":1479:1495  uint256 r1 = x/r */\n      swap1\n      pop\n        /* \"Documents/GitHub/SOLIDITY-REMIX/5ef069451e67668750287d64bc5f8bae/calculadora.sol\":1522:1524  r1 */\n      dup1\n        /* \"Documents/GitHub/SOLIDITY-REMIX/5ef069451e67668750287d64bc5f8bae/calculadora.sol\":1518:1519  r */\n      dup3\n        /* \"Documents/GitHub/SOLIDITY-REMIX/5ef069451e67668750287d64bc5f8bae/calculadora.sol\":1518:1524  r < r1 */\n      lt\n        /* \"Documents/GitHub/SOLIDITY-REMIX/5ef069451e67668750287d64bc5f8bae/calculadora.sol\":1514:1568  if (r < r1) return uint128(r);\r... */\n      iszero\n      tag_112\n      jumpi\n        /* \"Documents/GitHub/SOLIDITY-REMIX/5ef069451e67668750287d64bc5f8bae/calculadora.sol\":1541:1542  r */\n      dup2\n        /* \"Documents/GitHub/SOLIDITY-REMIX/5ef069451e67668750287d64bc5f8bae/calculadora.sol\":1526:1543  return uint128(r) */\n      swap3\n      pop\n      pop\n      pop\n      jump(tag_85)\n        /* \"Documents/GitHub/SOLIDITY-REMIX/5ef069451e67668750287d64bc5f8bae/calculadora.sol\":1514:1568  if (r < r1) return uint128(r);\r... */\n    tag_112:\n        /* \"Documents/GitHub/SOLIDITY-REMIX/5ef069451e67668750287d64bc5f8bae/calculadora.sol\":1584:1586  r1 */\n      dup1\n        /* \"Documents/GitHub/SOLIDITY-REMIX/5ef069451e67668750287d64bc5f8bae/calculadora.sol\":1569:1587  return uint128(r1) */\n      swap3\n      pop\n      pop\n      pop\n        /* \"Documents/GitHub/SOLIDITY-REMIX/5ef069451e67668750287d64bc5f8bae/calculadora.sol\":1024:1621  function raizCuadrada (uint256 x) public pure returns(uint128) {\r... */\n    tag_85:\n      swap2\n      swap1\n      pop\n      jump\t// out\n        /* \"#utility.yul\":7:144   */\n    tag_115:\n        /* \"#utility.yul\":52:57   */\n      0x00\n        /* \"#utility.yul\":90:96   */\n      dup2\n        /* \"#utility.yul\":77:97   */\n      calldataload\n        /* \"#utility.yul\":68:97   */\n      swap1\n      pop\n        /* \"#utility.yul\":106:138   */\n      tag_117\n        /* \"#utility.yul\":132:137   */\n      dup2\n        /* \"#utility.yul\":106:138   */\n      tag_118\n      jump\t// in\n    tag_117:\n        /* \"#utility.yul\":7:144   */\n      swap3\n      swap2\n      pop\n      pop\n      jump\t// out\n        /* \"#utility.yul\":150:289   */\n    tag_119:\n        /* \"#utility.yul\":196:201   */\n      0x00\n        /* \"#utility.yul\":234:240   */\n      dup2\n        /* \"#utility.yul\":221:241   */\n      calldataload\n        /* \"#utility.yul\":212:241   */\n      swap1\n      pop\n        /* \"#utility.yul\":250:283   */\n      tag_121\n        /* \"#utility.yul\":277:282   */\n      dup2\n        /* \"#utility.yul\":250:283   */\n      tag_122\n      jump\t// in\n    tag_121:\n        /* \"#utility.yul\":150:289   */\n      swap3\n      swap2\n      pop\n      pop\n      jump\t// out\n        /* \"#utility.yul\":295:622   */\n    tag_36:\n        /* \"#utility.yul\":353:359   */\n      0x00\n        /* \"#utility.yul\":402:404   */\n      0x20\n        /* \"#utility.yul\":390:399   */\n      dup3\n        /* \"#utility.yul\":381:388   */\n      dup5\n        /* \"#utility.yul\":377:400   */\n      sub\n        /* \"#utility.yul\":373:405   */\n      slt\n        /* \"#utility.yul\":370:489   */\n      iszero\n      tag_124\n      jumpi\n        /* \"#utility.yul\":408:487   */\n      tag_125\n      tag_126\n      jump\t// in\n    tag_125:\n        /* \"#utility.yul\":370:489   */\n    tag_124:\n        /* \"#utility.yul\":528:529   */\n      0x00\n        /* \"#utility.yul\":553:605   */\n      tag_127\n        /* \"#utility.yul\":597:604   */\n      dup5\n        /* \"#utility.yul\":588:594   */\n      dup3\n        /* \"#utility.yul\":577:586   */\n      dup6\n        /* \"#utility.yul\":573:595   */\n      add\n        /* \"#utility.yul\":553:605   */\n      tag_115\n      jump\t// in\n    tag_127:\n        /* \"#utility.yul\":543:605   */\n      swap2\n      pop\n        /* \"#utility.yul\":499:615   */\n      pop\n        /* \"#utility.yul\":295:622   */\n      swap3\n      swap2\n      pop\n      pop\n      jump\t// out\n        /* \"#utility.yul\":628:1098   */\n    tag_16:\n        /* \"#utility.yul\":694:700   */\n      0x00\n        /* \"#utility.yul\":702:708   */\n      dup1\n        /* \"#utility.yul\":751:753   */\n      0x40\n        /* \"#utility.yul\":739:748   */\n      dup4\n        /* \"#utility.yul\":730:737   */\n      dup6\n        /* \"#utility.yul\":726:749   */\n      sub\n        /* \"#utility.yul\":722:754   */\n      slt\n        /* \"#utility.yul\":719:838   */\n      iszero\n      tag_129\n      jumpi\n        /* \"#utility.yul\":757:836   */\n      tag_130\n      tag_126\n      jump\t// in\n    tag_130:\n        /* \"#utility.yul\":719:838   */\n    tag_129:\n        /* \"#utility.yul\":877:878   */\n      0x00\n        /* \"#utility.yul\":902:954   */\n      tag_131\n        /* \"#utility.yul\":946:953   */\n      dup6\n        /* \"#utility.yul\":937:943   */\n      dup3\n        /* \"#utility.yul\":926:935   */\n      dup7\n        /* \"#utility.yul\":922:944   */\n      add\n        /* \"#utility.yul\":902:954   */\n      tag_115\n      jump\t// in\n    tag_131:\n        /* \"#utility.yul\":892:954   */\n      swap3\n      pop\n        /* \"#utility.yul\":848:964   */\n      pop\n        /* \"#utility.yul\":1003:1005   */\n      0x20\n        /* \"#utility.yul\":1029:1081   */\n      tag_132\n        /* \"#utility.yul\":1073:1080   */\n      dup6\n        /* \"#utility.yul\":1064:1070   */\n      dup3\n        /* \"#utility.yul\":1053:1062   */\n      dup7\n        /* \"#utility.yul\":1049:1071   */\n      add\n        /* \"#utility.yul\":1029:1081   */\n      tag_115\n      jump\t// in\n    tag_132:\n        /* \"#utility.yul\":1019:1081   */\n      swap2\n      pop\n        /* \"#utility.yul\":974:1091   */\n      pop\n        /* \"#utility.yul\":628:1098   */\n      swap3\n      pop\n      swap3\n      swap1\n      pop\n      jump\t// out\n        /* \"#utility.yul\":1104:1433   */\n    tag_46:\n        /* \"#utility.yul\":1163:1169   */\n      0x00\n        /* \"#utility.yul\":1212:1214   */\n      0x20\n        /* \"#utility.yul\":1200:1209   */\n      dup3\n        /* \"#utility.yul\":1191:1198   */\n      dup5\n        /* \"#utility.yul\":1187:1210   */\n      sub\n        /* \"#utility.yul\":1183:1215   */\n      slt\n        /* \"#utility.yul\":1180:1299   */\n      iszero\n      tag_134\n      jumpi\n        /* \"#utility.yul\":1218:1297   */\n      tag_135\n      tag_126\n      jump\t// in\n    tag_135:\n        /* \"#utility.yul\":1180:1299   */\n    tag_134:\n        /* \"#utility.yul\":1338:1339   */\n      0x00\n        /* \"#utility.yul\":1363:1416   */\n      tag_136\n        /* \"#utility.yul\":1408:1415   */\n      dup5\n        /* \"#utility.yul\":1399:1405   */\n      dup3\n        /* \"#utility.yul\":1388:1397   */\n      dup6\n        /* \"#utility.yul\":1384:1406   */\n      add\n        /* \"#utility.yul\":1363:1416   */\n      tag_119\n      jump\t// in\n    tag_136:\n        /* \"#utility.yul\":1353:1416   */\n      swap2\n      pop\n        /* \"#utility.yul\":1309:1426   */\n      pop\n        /* \"#utility.yul\":1104:1433   */\n      swap3\n      swap2\n      pop\n      pop\n      jump\t// out\n        /* \"#utility.yul\":1439:1554   */\n    tag_137:\n        /* \"#utility.yul\":1524:1547   */\n      tag_139\n        /* \"#utility.yul\":1541:1546   */\n      dup2\n        /* \"#utility.yul\":1524:1547   */\n      tag_140\n      jump\t// in\n    tag_139:\n        /* \"#utility.yul\":1519:1522   */\n      dup3\n        /* \"#utility.yul\":1512:1548   */\n      mstore\n        /* \"#utility.yul\":1439:1554   */\n      pop\n      pop\n      jump\t// out\n        /* \"#utility.yul\":1560:1678   */\n    tag_141:\n        /* \"#utility.yul\":1647:1671   */\n      tag_143\n        /* \"#utility.yul\":1665:1670   */\n      dup2\n        /* \"#utility.yul\":1647:1671   */\n      tag_144\n      jump\t// in\n    tag_143:\n        /* \"#utility.yul\":1642:1645   */\n      dup3\n        /* \"#utility.yul\":1635:1672   */\n      mstore\n        /* \"#utility.yul\":1560:1678   */\n      pop\n      pop\n      jump\t// out\n        /* \"#utility.yul\":1684:1802   */\n    tag_145:\n        /* \"#utility.yul\":1771:1795   */\n      tag_147\n        /* \"#utility.yul\":1789:1794   */\n      dup2\n        /* \"#utility.yul\":1771:1795   */\n      tag_148\n      jump\t// in\n    tag_147:\n        /* \"#utility.yul\":1766:1769   */\n      dup3\n        /* \"#utility.yul\":1759:1796   */\n      mstore\n        /* \"#utility.yul\":1684:1802   */\n      pop\n      pop\n      jump\t// out\n        /* \"#utility.yul\":1808:2026   */\n    tag_19:\n        /* \"#utility.yul\":1899:1903   */\n      0x00\n        /* \"#utility.yul\":1937:1939   */\n      0x20\n        /* \"#utility.yul\":1926:1935   */\n      dup3\n        /* \"#utility.yul\":1922:1940   */\n      add\n        /* \"#utility.yul\":1914:1940   */\n      swap1\n      pop\n        /* \"#utility.yul\":1950:2019   */\n      tag_150\n        /* \"#utility.yul\":2016:2017   */\n      0x00\n        /* \"#utility.yul\":2005:2014   */\n      dup4\n        /* \"#utility.yul\":2001:2018   */\n      add\n        /* \"#utility.yul\":1992:1998   */\n      dup5\n        /* \"#utility.yul\":1950:2019   */\n      tag_137\n      jump\t// in\n    tag_150:\n        /* \"#utility.yul\":1808:2026   */\n      swap3\n      swap2\n      pop\n      pop\n      jump\t// out\n        /* \"#utility.yul\":2032:2254   */\n    tag_57:\n        /* \"#utility.yul\":2125:2129   */\n      0x00\n        /* \"#utility.yul\":2163:2165   */\n      0x20\n        /* \"#utility.yul\":2152:2161   */\n      dup3\n        /* \"#utility.yul\":2148:2166   */\n      add\n        /* \"#utility.yul\":2140:2166   */\n      swap1\n      pop\n        /* \"#utility.yul\":2176:2247   */\n      tag_152\n        /* \"#utility.yul\":2244:2245   */\n      0x00\n        /* \"#utility.yul\":2233:2242   */\n      dup4\n        /* \"#utility.yul\":2229:2246   */\n      add\n        /* \"#utility.yul\":2220:2226   */\n      dup5\n        /* \"#utility.yul\":2176:2247   */\n      tag_141\n      jump\t// in\n    tag_152:\n        /* \"#utility.yul\":2032:2254   */\n      swap3\n      swap2\n      pop\n      pop\n      jump\t// out\n        /* \"#utility.yul\":2260:2482   */\n    tag_39:\n        /* \"#utility.yul\":2353:2357   */\n      0x00\n        /* \"#utility.yul\":2391:2393   */\n      0x20\n        /* \"#utility.yul\":2380:2389   */\n      dup3\n        /* \"#utility.yul\":2376:2394   */\n      add\n        /* \"#utility.yul\":2368:2394   */\n      swap1\n      pop\n        /* \"#utility.yul\":2404:2475   */\n      tag_154\n        /* \"#utility.yul\":2472:2473   */\n      0x00\n        /* \"#utility.yul\":2461:2470   */\n      dup4\n        /* \"#utility.yul\":2457:2474   */\n      add\n        /* \"#utility.yul\":2448:2454   */\n      dup5\n        /* \"#utility.yul\":2404:2475   */\n      tag_145\n      jump\t// in\n    tag_154:\n        /* \"#utility.yul\":2260:2482   */\n      swap3\n      swap2\n      pop\n      pop\n      jump\t// out\n        /* \"#utility.yul\":2569:3094   */\n    tag_84:\n        /* \"#utility.yul\":2608:2611   */\n      0x00\n        /* \"#utility.yul\":2627:2646   */\n      tag_158\n        /* \"#utility.yul\":2644:2645   */\n      dup3\n        /* \"#utility.yul\":2627:2646   */\n      tag_140\n      jump\t// in\n    tag_158:\n        /* \"#utility.yul\":2622:2646   */\n      swap2\n      pop\n        /* \"#utility.yul\":2660:2679   */\n      tag_159\n        /* \"#utility.yul\":2677:2678   */\n      dup4\n        /* \"#utility.yul\":2660:2679   */\n      tag_140\n      jump\t// in\n    tag_159:\n        /* \"#utility.yul\":2655:2679   */\n      swap3\n      pop\n        /* \"#utility.yul\":2848:2849   */\n      dup2\n        /* \"#utility.yul\":2780:2846   */\n      0x7fffffffffffffffffffffffffffffffffffffffffffffffffffffffffffffff\n        /* \"#utility.yul\":2776:2850   */\n      sub\n        /* \"#utility.yul\":2773:2774   */\n      dup4\n        /* \"#utility.yul\":2769:2851   */\n      sgt\n        /* \"#utility.yul\":2764:2765   */\n      0x00\n        /* \"#utility.yul\":2761:2762   */\n      dup4\n        /* \"#utility.yul\":2757:2766   */\n      slt\n        /* \"#utility.yul\":2750:2767   */\n      iszero\n        /* \"#utility.yul\":2746:2852   */\n      and\n        /* \"#utility.yul\":2743:2875   */\n      iszero\n      tag_160\n      jumpi\n        /* \"#utility.yul\":2855:2873   */\n      tag_161\n      tag_162\n      jump\t// in\n    tag_161:\n        /* \"#utility.yul\":2743:2875   */\n    tag_160:\n        /* \"#utility.yul\":3035:3036   */\n      dup2\n        /* \"#utility.yul\":2967:3033   */\n      0x8000000000000000000000000000000000000000000000000000000000000000\n        /* \"#utility.yul\":2963:3037   */\n      sub\n        /* \"#utility.yul\":2960:2961   */\n      dup4\n        /* \"#utility.yul\":2956:3038   */\n      slt\n        /* \"#utility.yul\":2952:2953   */\n      0x00\n        /* \"#utility.yul\":2949:2950   */\n      dup4\n        /* \"#utility.yul\":2945:2954   */\n      slt\n        /* \"#utility.yul\":2941:3039   */\n      and\n        /* \"#utility.yul\":2938:3062   */\n      iszero\n      tag_163\n      jumpi\n        /* \"#utility.yul\":3042:3060   */\n      tag_164\n      tag_162\n      jump\t// in\n    tag_164:\n        /* \"#utility.yul\":2938:3062   */\n    tag_163:\n        /* \"#utility.yul\":3086:3087   */\n      dup3\n        /* \"#utility.yul\":3083:3084   */\n      dup3\n        /* \"#utility.yul\":3079:3088   */\n      add\n        /* \"#utility.yul\":3072:3088   */\n      swap1\n      pop\n        /* \"#utility.yul\":2569:3094   */\n      swap3\n      swap2\n      pop\n      pop\n      jump\t// out\n        /* \"#utility.yul\":3100:3485   */\n    tag_60:\n        /* \"#utility.yul\":3139:3140   */\n      0x00\n        /* \"#utility.yul\":3156:3175   */\n      tag_166\n        /* \"#utility.yul\":3173:3174   */\n      dup3\n        /* \"#utility.yul\":3156:3175   */\n      tag_140\n      jump\t// in\n    tag_166:\n        /* \"#utility.yul\":3151:3175   */\n      swap2\n      pop\n        /* \"#utility.yul\":3189:3208   */\n      tag_167\n        /* \"#utility.yul\":3206:3207   */\n      dup4\n        /* \"#utility.yul\":3189:3208   */\n      tag_140\n      jump\t// in\n    tag_167:\n        /* \"#utility.yul\":3184:3208   */\n      swap3\n      pop\n        /* \"#utility.yul\":3227:3228   */\n      dup3\n        /* \"#utility.yul\":3217:3252   */\n      tag_168\n      jumpi\n        /* \"#utility.yul\":3232:3250   */\n      tag_169\n      tag_91\n      jump\t// in\n    tag_169:\n        /* \"#utility.yul\":3217:3252   */\n    tag_168:\n        /* \"#utility.yul\":3418:3419   */\n      0x01\n        /* \"#utility.yul\":3415:3416   */\n      0x00\n        /* \"#utility.yul\":3411:3420   */\n      sub\n        /* \"#utility.yul\":3408:3409   */\n      dup4\n        /* \"#utility.yul\":3405:3421   */\n      eq\n        /* \"#utility.yul\":3324:3390   */\n      0x8000000000000000000000000000000000000000000000000000000000000000\n        /* \"#utility.yul\":3321:3322   */\n      dup4\n        /* \"#utility.yul\":3318:3391   */\n      eq\n        /* \"#utility.yul\":3301:3431   */\n      and\n        /* \"#utility.yul\":3298:3454   */\n      iszero\n      tag_170\n      jumpi\n        /* \"#utility.yul\":3434:3452   */\n      tag_171\n      tag_162\n      jump\t// in\n    tag_171:\n        /* \"#utility.yul\":3298:3454   */\n    tag_170:\n        /* \"#utility.yul\":3477:3478   */\n      dup3\n        /* \"#utility.yul\":3474:3475   */\n      dup3\n        /* \"#utility.yul\":3469:3479   */\n      sdiv\n        /* \"#utility.yul\":3464:3479   */\n      swap1\n      pop\n        /* \"#utility.yul\":3100:3485   */\n      swap3\n      swap2\n      pop\n      pop\n      jump\t// out\n        /* \"#utility.yul\":3491:4482   */\n    tag_63:\n        /* \"#utility.yul\":3530:3537   */\n      0x00\n        /* \"#utility.yul\":3553:3572   */\n      tag_173\n        /* \"#utility.yul\":3570:3571   */\n      dup3\n        /* \"#utility.yul\":3553:3572   */\n      tag_140\n      jump\t// in\n    tag_173:\n        /* \"#utility.yul\":3548:3572   */\n      swap2\n      pop\n        /* \"#utility.yul\":3586:3605   */\n      tag_174\n        /* \"#utility.yul\":3603:3604   */\n      dup4\n        /* \"#utility.yul\":3586:3605   */\n      tag_140\n      jump\t// in\n    tag_174:\n        /* \"#utility.yul\":3581:3605   */\n      swap3\n      pop\n        /* \"#utility.yul\":3787:3788   */\n      dup3\n        /* \"#utility.yul\":3719:3785   */\n      0x7fffffffffffffffffffffffffffffffffffffffffffffffffffffffffffffff\n        /* \"#utility.yul\":3715:3789   */\n      div\n        /* \"#utility.yul\":3712:3713   */\n      dup3\n        /* \"#utility.yul\":3709:3790   */\n      gt\n        /* \"#utility.yul\":3704:3705   */\n      0x00\n        /* \"#utility.yul\":3701:3702   */\n      dup5\n        /* \"#utility.yul\":3697:3706   */\n      sgt\n        /* \"#utility.yul\":3693:3694   */\n      0x00\n        /* \"#utility.yul\":3690:3691   */\n      dup5\n        /* \"#utility.yul\":3686:3695   */\n      sgt\n        /* \"#utility.yul\":3682:3707   */\n      and\n        /* \"#utility.yul\":3678:3791   */\n      and\n        /* \"#utility.yul\":3675:3814   */\n      iszero\n      tag_175\n      jumpi\n        /* \"#utility.yul\":3794:3812   */\n      tag_176\n      tag_162\n      jump\t// in\n    tag_176:\n        /* \"#utility.yul\":3675:3814   */\n    tag_175:\n        /* \"#utility.yul\":3998:3999   */\n      dup2\n        /* \"#utility.yul\":3930:3996   */\n      0x8000000000000000000000000000000000000000000000000000000000000000\n        /* \"#utility.yul\":3925:4000   */\n      sdiv\n        /* \"#utility.yul\":3922:3923   */\n      dup4\n        /* \"#utility.yul\":3918:4001   */\n      slt\n        /* \"#utility.yul\":3913:3914   */\n      0x00\n        /* \"#utility.yul\":3910:3911   */\n      dup5\n        /* \"#utility.yul\":3906:3915   */\n      slt\n        /* \"#utility.yul\":3902:3903   */\n      0x00\n        /* \"#utility.yul\":3899:3900   */\n      dup5\n        /* \"#utility.yul\":3895:3904   */\n      sgt\n        /* \"#utility.yul\":3891:3916   */\n      and\n        /* \"#utility.yul\":3887:4002   */\n      and\n        /* \"#utility.yul\":3884:4025   */\n      iszero\n      tag_177\n      jumpi\n        /* \"#utility.yul\":4005:4023   */\n      tag_178\n      tag_162\n      jump\t// in\n    tag_178:\n        /* \"#utility.yul\":3884:4025   */\n    tag_177:\n        /* \"#utility.yul\":4209:4210   */\n      dup3\n        /* \"#utility.yul\":4141:4207   */\n      0x8000000000000000000000000000000000000000000000000000000000000000\n        /* \"#utility.yul\":4136:4211   */\n      sdiv\n        /* \"#utility.yul\":4133:4134   */\n      dup3\n        /* \"#utility.yul\":4129:4212   */\n      slt\n        /* \"#utility.yul\":4124:4125   */\n      0x00\n        /* \"#utility.yul\":4121:4122   */\n      dup5\n        /* \"#utility.yul\":4117:4126   */\n      sgt\n        /* \"#utility.yul\":4113:4114   */\n      0x00\n        /* \"#utility.yul\":4110:4111   */\n      dup5\n        /* \"#utility.yul\":4106:4115   */\n      slt\n        /* \"#utility.yul\":4102:4127   */\n      and\n        /* \"#utility.yul\":4098:4213   */\n      and\n        /* \"#utility.yul\":4095:4236   */\n      iszero\n      tag_179\n      jumpi\n        /* \"#utility.yul\":4216:4234   */\n      tag_180\n      tag_162\n      jump\t// in\n    tag_180:\n        /* \"#utility.yul\":4095:4236   */\n    tag_179:\n        /* \"#utility.yul\":4419:4420   */\n      dup3\n        /* \"#utility.yul\":4351:4417   */\n      0x7fffffffffffffffffffffffffffffffffffffffffffffffffffffffffffffff\n        /* \"#utility.yul\":4346:4421   */\n      sdiv\n        /* \"#utility.yul\":4343:4344   */\n      dup3\n        /* \"#utility.yul\":4339:4422   */\n      slt\n        /* \"#utility.yul\":4334:4335   */\n      0x00\n        /* \"#utility.yul\":4331:4332   */\n      dup5\n        /* \"#utility.yul\":4327:4336   */\n      slt\n        /* \"#utility.yul\":4323:4324   */\n      0x00\n        /* \"#utility.yul\":4320:4321   */\n      dup5\n        /* \"#utility.yul\":4316:4325   */\n      slt\n        /* \"#utility.yul\":4312:4337   */\n      and\n        /* \"#utility.yul\":4308:4423   */\n      and\n        /* \"#utility.yul\":4305:4446   */\n      iszero\n      tag_181\n      jumpi\n        /* \"#utility.yul\":4426:4444   */\n      tag_182\n      tag_162\n      jump\t// in\n    tag_182:\n        /* \"#utility.yul\":4305:4446   */\n    tag_181:\n        /* \"#utility.yul\":4474:4475   */\n      dup3\n        /* \"#utility.yul\":4471:4472   */\n      dup3\n        /* \"#utility.yul\":4467:4476   */\n      mul\n        /* \"#utility.yul\":4456:4476   */\n      swap1\n      pop\n        /* \"#utility.yul\":3491:4482   */\n      swap3\n      swap2\n      pop\n      pop\n      jump\t// out\n        /* \"#utility.yul\":4488:4836   */\n    tag_81:\n        /* \"#utility.yul\":4528:4535   */\n      0x00\n        /* \"#utility.yul\":4551:4571   */\n      tag_184\n        /* \"#utility.yul\":4569:4570   */\n      dup3\n        /* \"#utility.yul\":4551:4571   */\n      tag_148\n      jump\t// in\n    tag_184:\n        /* \"#utility.yul\":4546:4571   */\n      swap2\n      pop\n        /* \"#utility.yul\":4585:4605   */\n      tag_185\n        /* \"#utility.yul\":4603:4604   */\n      dup4\n        /* \"#utility.yul\":4585:4605   */\n      tag_148\n      jump\t// in\n    tag_185:\n        /* \"#utility.yul\":4580:4605   */\n      swap3\n      pop\n        /* \"#utility.yul\":4773:4774   */\n      dup2\n        /* \"#utility.yul\":4705:4771   */\n      0xffffffffffffffffffffffffffffffffffffffffffffffffffffffffffffffff\n        /* \"#utility.yul\":4701:4775   */\n      div\n        /* \"#utility.yul\":4698:4699   */\n      dup4\n        /* \"#utility.yul\":4695:4776   */\n      gt\n        /* \"#utility.yul\":4690:4691   */\n      dup3\n        /* \"#utility.yul\":4683:4692   */\n      iszero\n        /* \"#utility.yul\":4676:4693   */\n      iszero\n        /* \"#utility.yul\":4672:4777   */\n      and\n        /* \"#utility.yul\":4669:4800   */\n      iszero\n      tag_186\n      jumpi\n        /* \"#utility.yul\":4780:4798   */\n      tag_187\n      tag_162\n      jump\t// in\n    tag_187:\n        /* \"#utility.yul\":4669:4800   */\n    tag_186:\n        /* \"#utility.yul\":4828:4829   */\n      dup3\n        /* \"#utility.yul\":4825:4826   */\n      dup3\n        /* \"#utility.yul\":4821:4830   */\n      mul\n        /* \"#utility.yul\":4810:4830   */\n      swap1\n      pop\n        /* \"#utility.yul\":4488:4836   */\n      swap3\n      swap2\n      pop\n      pop\n      jump\t// out\n        /* \"#utility.yul\":4842:5369   */\n    tag_66:\n        /* \"#utility.yul\":4881:4885   */\n      0x00\n        /* \"#utility.yul\":4901:4920   */\n      tag_189\n        /* \"#utility.yul\":4918:4919   */\n      dup3\n        /* \"#utility.yul\":4901:4920   */\n      tag_140\n      jump\t// in\n    tag_189:\n        /* \"#utility.yul\":4896:4920   */\n      swap2\n      pop\n        /* \"#utility.yul\":4934:4953   */\n      tag_190\n        /* \"#utility.yul\":4951:4952   */\n      dup4\n        /* \"#utility.yul\":4934:4953   */\n      tag_140\n      jump\t// in\n    tag_190:\n        /* \"#utility.yul\":4929:4953   */\n      swap3\n      pop\n        /* \"#utility.yul\":5123:5124   */\n      dup3\n        /* \"#utility.yul\":5055:5121   */\n      0x8000000000000000000000000000000000000000000000000000000000000000\n        /* \"#utility.yul\":5051:5125   */\n      add\n        /* \"#utility.yul\":5048:5049   */\n      dup3\n        /* \"#utility.yul\":5044:5126   */\n      slt\n        /* \"#utility.yul\":5039:5040   */\n      0x00\n        /* \"#utility.yul\":5036:5037   */\n      dup5\n        /* \"#utility.yul\":5032:5041   */\n      slt\n        /* \"#utility.yul\":5025:5042   */\n      iszero\n        /* \"#utility.yul\":5021:5127   */\n      and\n        /* \"#utility.yul\":5018:5150   */\n      iszero\n      tag_191\n      jumpi\n        /* \"#utility.yul\":5130:5148   */\n      tag_192\n      tag_162\n      jump\t// in\n    tag_192:\n        /* \"#utility.yul\":5018:5150   */\n    tag_191:\n        /* \"#utility.yul\":5309:5310   */\n      dup3\n        /* \"#utility.yul\":5241:5307   */\n      0x7fffffffffffffffffffffffffffffffffffffffffffffffffffffffffffffff\n        /* \"#utility.yul\":5237:5311   */\n      add\n        /* \"#utility.yul\":5234:5235   */\n      dup3\n        /* \"#utility.yul\":5230:5312   */\n      sgt\n        /* \"#utility.yul\":5226:5227   */\n      0x00\n        /* \"#utility.yul\":5223:5224   */\n      dup5\n        /* \"#utility.yul\":5219:5228   */\n      slt\n        /* \"#utility.yul\":5215:5313   */\n      and\n        /* \"#utility.yul\":5212:5336   */\n      iszero\n      tag_193\n      jumpi\n        /* \"#utility.yul\":5316:5334   */\n      tag_194\n      tag_162\n      jump\t// in\n    tag_194:\n        /* \"#utility.yul\":5212:5336   */\n    tag_193:\n        /* \"#utility.yul\":5361:5362   */\n      dup3\n        /* \"#utility.yul\":5358:5359   */\n      dup3\n        /* \"#utility.yul\":5354:5363   */\n      sub\n        /* \"#utility.yul\":5346:5363   */\n      swap1\n      pop\n        /* \"#utility.yul\":4842:5369   */\n      swap3\n      swap2\n      pop\n      pop\n      jump\t// out\n        /* \"#utility.yul\":5375:5566   */\n    tag_79:\n        /* \"#utility.yul\":5415:5419   */\n      0x00\n        /* \"#utility.yul\":5435:5455   */\n      tag_196\n        /* \"#utility.yul\":5453:5454   */\n      dup3\n        /* \"#utility.yul\":5435:5455   */\n      tag_148\n      jump\t// in\n    tag_196:\n        /* \"#utility.yul\":5430:5455   */\n      swap2\n      pop\n        /* \"#utility.yul\":5469:5489   */\n      tag_197\n        /* \"#utility.yul\":5487:5488   */\n      dup4\n        /* \"#utility.yul\":5469:5489   */\n      tag_148\n      jump\t// in\n    tag_197:\n        /* \"#utility.yul\":5464:5489   */\n      swap3\n      pop\n        /* \"#utility.yul\":5508:5509   */\n      dup3\n        /* \"#utility.yul\":5505:5506   */\n      dup3\n        /* \"#utility.yul\":5502:5510   */\n      lt\n        /* \"#utility.yul\":5499:5533   */\n      iszero\n      tag_198\n      jumpi\n        /* \"#utility.yul\":5513:5531   */\n      tag_199\n      tag_162\n      jump\t// in\n    tag_199:\n        /* \"#utility.yul\":5499:5533   */\n    tag_198:\n        /* \"#utility.yul\":5558:5559   */\n      dup3\n        /* \"#utility.yul\":5555:5556   */\n      dup3\n        /* \"#utility.yul\":5551:5560   */\n      sub\n        /* \"#utility.yul\":5543:5560   */\n      swap1\n      pop\n        /* \"#utility.yul\":5375:5566   */\n      swap3\n      swap2\n      pop\n      pop\n      jump\t// out\n        /* \"#utility.yul\":5572:5648   */\n    tag_140:\n        /* \"#utility.yul\":5608:5615   */\n      0x00\n        /* \"#utility.yul\":5637:5642   */\n      dup2\n        /* \"#utility.yul\":5626:5642   */\n      swap1\n      pop\n        /* \"#utility.yul\":5572:5648   */\n      swap2\n      swap1\n      pop\n      jump\t// out\n        /* \"#utility.yul\":5654:5772   */\n    tag_144:\n        /* \"#utility.yul\":5691:5698   */\n      0x00\n        /* \"#utility.yul\":5731:5765   */\n      0xffffffffffffffffffffffffffffffff\n        /* \"#utility.yul\":5724:5729   */\n      dup3\n        /* \"#utility.yul\":5720:5766   */\n      and\n        /* \"#utility.yul\":5709:5766   */\n      swap1\n      pop\n        /* \"#utility.yul\":5654:5772   */\n      swap2\n      swap1\n      pop\n      jump\t// out\n        /* \"#utility.yul\":5778:5855   */\n    tag_148:\n        /* \"#utility.yul\":5815:5822   */\n      0x00\n        /* \"#utility.yul\":5844:5849   */\n      dup2\n        /* \"#utility.yul\":5833:5849   */\n      swap1\n      pop\n        /* \"#utility.yul\":5778:5855   */\n      swap2\n      swap1\n      pop\n      jump\t// out\n        /* \"#utility.yul\":5861:6089   */\n    tag_71:\n        /* \"#utility.yul\":5896:5899   */\n      0x00\n        /* \"#utility.yul\":5919:5942   */\n      tag_204\n        /* \"#utility.yul\":5936:5941   */\n      dup3\n        /* \"#utility.yul\":5919:5942   */\n      tag_140\n      jump\t// in\n    tag_204:\n        /* \"#utility.yul\":5910:5942   */\n      swap2\n      pop\n        /* \"#utility.yul\":5964:6030   */\n      0x8000000000000000000000000000000000000000000000000000000000000000\n        /* \"#utility.yul\":5957:5962   */\n      dup3\n        /* \"#utility.yul\":5954:6031   */\n      eq\n        /* \"#utility.yul\":5951:6054   */\n      iszero\n      tag_205\n      jumpi\n        /* \"#utility.yul\":6034:6052   */\n      tag_206\n      tag_162\n      jump\t// in\n    tag_206:\n        /* \"#utility.yul\":5951:6054   */\n    tag_205:\n        /* \"#utility.yul\":6077:6082   */\n      dup2\n        /* \"#utility.yul\":6074:6075   */\n      0x00\n        /* \"#utility.yul\":6070:6083   */\n      sub\n        /* \"#utility.yul\":6063:6083   */\n      swap1\n      pop\n        /* \"#utility.yul\":5861:6089   */\n      swap2\n      swap1\n      pop\n      jump\t// out\n        /* \"#utility.yul\":6095:6275   */\n    tag_162:\n        /* \"#utility.yul\":6143:6220   */\n      0x4e487b7100000000000000000000000000000000000000000000000000000000\n        /* \"#utility.yul\":6140:6141   */\n      0x00\n        /* \"#utility.yul\":6133:6221   */\n      mstore\n        /* \"#utility.yul\":6240:6244   */\n      0x11\n        /* \"#utility.yul\":6237:6238   */\n      0x04\n        /* \"#utility.yul\":6230:6245   */\n      mstore\n        /* \"#utility.yul\":6264:6268   */\n      0x24\n        /* \"#utility.yul\":6261:6262   */\n      0x00\n        /* \"#utility.yul\":6254:6269   */\n      revert\n        /* \"#utility.yul\":6281:6461   */\n    tag_91:\n        /* \"#utility.yul\":6329:6406   */\n      0x4e487b7100000000000000000000000000000000000000000000000000000000\n        /* \"#utility.yul\":6326:6327   */\n      0x00\n        /* \"#utility.yul\":6319:6407   */\n      mstore\n        /* \"#utility.yul\":6426:6430   */\n      0x12\n        /* \"#utility.yul\":6423:6424   */\n      0x04\n        /* \"#utility.yul\":6416:6431   */\n      mstore\n        /* \"#utility.yul\":6450:6454   */\n      0x24\n        /* \"#utility.yul\":6447:6448   */\n      0x00\n        /* \"#utility.yul\":6440:6455   */\n      revert\n        /* \"#utility.yul\":6590:6707   */\n    tag_126:\n        /* \"#utility.yul\":6699:6700   */\n      0x00\n        /* \"#utility.yul\":6696:6697   */\n      dup1\n        /* \"#utility.yul\":6689:6701   */\n      revert\n        /* \"#utility.yul\":6713:6833   */\n    tag_118:\n        /* \"#utility.yul\":6785:6808   */\n      tag_213\n        /* \"#utility.yul\":6802:6807   */\n      dup2\n        /* \"#utility.yul\":6785:6808   */\n      tag_140\n      jump\t// in\n    tag_213:\n        /* \"#utility.yul\":6778:6783   */\n      dup2\n        /* \"#utility.yul\":6775:6809   */\n      eq\n        /* \"#utility.yul\":6765:6827   */\n      tag_214\n      jumpi\n        /* \"#utility.yul\":6823:6824   */\n      0x00\n        /* \"#utility.yul\":6820:6821   */\n      dup1\n        /* \"#utility.yul\":6813:6825   */\n      revert\n        /* \"#utility.yul\":6765:6827   */\n    tag_214:\n        /* \"#utility.yul\":6713:6833   */\n      pop\n      jump\t// out\n        /* \"#utility.yul\":6839:6961   */\n    tag_122:\n        /* \"#utility.yul\":6912:6936   */\n      tag_216\n        /* \"#utility.yul\":6930:6935   */\n      dup2\n        /* \"#utility.yul\":6912:6936   */\n      tag_148\n      jump\t// in\n    tag_216:\n        /* \"#utility.yul\":6905:6910   */\n      dup2\n        /* \"#utility.yul\":6902:6937   */\n      eq\n        /* \"#utility.yul\":6892:6955   */\n      tag_217\n      jumpi\n        /* \"#utility.yul\":6951:6952   */\n      0x00\n        /* \"#utility.yul\":6948:6949   */\n      dup1\n        /* \"#utility.yul\":6941:6953   */\n      revert\n        /* \"#utility.yul\":6892:6955   */\n    tag_217:\n        /* \"#utility.yul\":6839:6961   */\n      pop\n      jump\t// out\n\n    auxdata: 0xa26469706673582212209592478c37bc2d055e15a66600f7f1cad3c74bde0c7a7370e85d48882491e0b464736f6c63430008070033\n}\n",
				"bytecode": {
					"linkReferences": {},
					"object": "608060405234801561001057600080fd5b50610a07806100206000396000f3fe608060405234801561001057600080fd5b506004361061009e5760003560e01c80637d825142116100665780637d8251421461016f5780637ea9e0581461019f57806383714834146101cf5780638f8a0d19146101ff578063b29400d01461022f5761009e565b806309b7cdda146100a35780630dbe671f146100d3578063187983bf146100f15780634c627bad146101215780634df7e3d014610151575b600080fd5b6100bd60048036038101906100b891906104a5565b61025f565b6040516100ca919061053f565b60405180910390f35b6100db610275565b6040516100e8919061053f565b60405180910390f35b61010b600480360381019061010691906104a5565b61027b565b604051610118919061053f565b60405180910390f35b61013b600480360381019061013691906104a5565b610291565b604051610148919061053f565b60405180910390f35b6101596102a7565b604051610166919061053f565b60405180910390f35b61018960048036038101906101849190610478565b6102ad565b6040516101969190610575565b60405180910390f35b6101b960048036038101906101b49190610478565b6102d1565b6040516101c69190610575565b60405180910390f35b6101e960048036038101906101e491906104e5565b6102e6565b6040516101f69190610575565b60405180910390f35b610219600480360381019061021491906104a5565b610321565b604051610226919061053f565b60405180910390f35b610249600480360381019061024491906104e5565b610337565b604051610256919061055a565b60405180910390f35b6000818361026d9190610624565b905092915050565b60005481565b60008183610289919061068e565b905092915050565b6000818361029f91906107ff565b905092915050565b60015481565b6000808213156102bf578190506102cc565b816102c9906108f7565b90505b919050565b600081826102df919061068e565b9050919050565b6000600182116102f9576001905061031c565b61030e6001836103099190610893565b6102e6565b8261031991906107a5565b90505b919050565b6000818361032f9190610590565b905092915050565b60008082101561034657600080fd5b60008214156103585760009050610449565b60006001905060028184816103705761036f61096f565b5b048201816103815761038061096f565b5b04905060028184816103965761039561096f565b5b048201816103a7576103a661096f565b5b04905060028184816103bc576103bb61096f565b5b048201816103cd576103cc61096f565b5b04905060028184816103e2576103e161096f565b5b048201816103f3576103f261096f565b5b04905060028184816104085761040761096f565b5b048201816104195761041861096f565b5b049050600081848161042e5761042d61096f565b5b04905080821015610443578192505050610449565b80925050505b919050565b60008135905061045d816109a3565b92915050565b600081359050610472816109ba565b92915050565b60006020828403121561048e5761048d61099e565b5b600061049c8482850161044e565b91505092915050565b600080604083850312156104bc576104bb61099e565b5b60006104ca8582860161044e565b92505060206104db8582860161044e565b9150509250929050565b6000602082840312156104fb576104fa61099e565b5b600061050984828501610463565b91505092915050565b61051b816108c7565b82525050565b61052a816108d1565b82525050565b610539816108ed565b82525050565b60006020820190506105546000830184610512565b92915050565b600060208201905061056f6000830184610521565b92915050565b600060208201905061058a6000830184610530565b92915050565b600061059b826108c7565b91506105a6836108c7565b9250817f7fffffffffffffffffffffffffffffffffffffffffffffffffffffffffffffff038313600083121516156105e1576105e0610940565b5b817f800000000000000000000000000000000000000000000000000000000000000003831260008312161561061957610618610940565b5b828201905092915050565b600061062f826108c7565b915061063a836108c7565b92508261064a5761064961096f565b5b600160000383147f80000000000000000000000000000000000000000000000000000000000000008314161561068357610682610940565b5b828205905092915050565b6000610699826108c7565b91506106a4836108c7565b9250827f7fffffffffffffffffffffffffffffffffffffffffffffffffffffffffffffff04821160008413600084131616156106e3576106e2610940565b5b817f800000000000000000000000000000000000000000000000000000000000000005831260008412600084131616156107205761071f610940565b5b827f8000000000000000000000000000000000000000000000000000000000000000058212600084136000841216161561075d5761075c610940565b5b827f7fffffffffffffffffffffffffffffffffffffffffffffffffffffffffffffff058212600084126000841216161561079a57610799610940565b5b828202905092915050565b60006107b0826108ed565b91506107bb836108ed565b9250817fffffffffffffffffffffffffffffffffffffffffffffffffffffffffffffffff04831182151516156107f4576107f3610940565b5b828202905092915050565b600061080a826108c7565b9150610815836108c7565b9250827f8000000000000000000000000000000000000000000000000000000000000000018212600084121516156108505761084f610940565b5b827f7fffffffffffffffffffffffffffffffffffffffffffffffffffffffffffffff01821360008412161561088857610887610940565b5b828203905092915050565b600061089e826108ed565b91506108a9836108ed565b9250828210156108bc576108bb610940565b5b828203905092915050565b6000819050919050565b60006fffffffffffffffffffffffffffffffff82169050919050565b6000819050919050565b6000610902826108c7565b91507f800000000000000000000000000000000000000000000000000000000000000082141561093557610934610940565b5b816000039050919050565b7f4e487b7100000000000000000000000000000000000000000000000000000000600052601160045260246000fd5b7f4e487b7100000000000000000000000000000000000000000000000000000000600052601260045260246000fd5b600080fd5b6109ac816108c7565b81146109b757600080fd5b50565b6109c3816108ed565b81146109ce57600080fd5b5056fea26469706673582212209592478c37bc2d055e15a66600f7f1cad3c74bde0c7a7370e85d48882491e0b464736f6c63430008070033",
					"opcodes": "PUSH1 0x80 PUSH1 0x40 MSTORE CALLVALUE DUP1 ISZERO PUSH2 0x10 JUMPI PUSH1 0x0 DUP1 REVERT JUMPDEST POP PUSH2 0xA07 DUP1 PUSH2 0x20 PUSH1 0x0 CODECOPY PUSH1 0x0 RETURN INVALID PUSH1 0x80 PUSH1 0x40 MSTORE CALLVALUE DUP1 ISZERO PUSH2 0x10 JUMPI PUSH1 0x0 DUP1 REVERT JUMPDEST POP PUSH1 0x4 CALLDATASIZE LT PUSH2 0x9E JUMPI PUSH1 0x0 CALLDATALOAD PUSH1 0xE0 SHR DUP1 PUSH4 0x7D825142 GT PUSH2 0x66 JUMPI DUP1 PUSH4 0x7D825142 EQ PUSH2 0x16F JUMPI DUP1 PUSH4 0x7EA9E058 EQ PUSH2 0x19F JUMPI DUP1 PUSH4 0x83714834 EQ PUSH2 0x1CF JUMPI DUP1 PUSH4 0x8F8A0D19 EQ PUSH2 0x1FF JUMPI DUP1 PUSH4 0xB29400D0 EQ PUSH2 0x22F JUMPI PUSH2 0x9E JUMP JUMPDEST DUP1 PUSH4 0x9B7CDDA EQ PUSH2 0xA3 JUMPI DUP1 PUSH4 0xDBE671F EQ PUSH2 0xD3 JUMPI DUP1 PUSH4 0x187983BF EQ PUSH2 0xF1 JUMPI DUP1 PUSH4 0x4C627BAD EQ PUSH2 0x121 JUMPI DUP1 PUSH4 0x4DF7E3D0 EQ PUSH2 0x151 JUMPI JUMPDEST PUSH1 0x0 DUP1 REVERT JUMPDEST PUSH2 0xBD PUSH1 0x4 DUP1 CALLDATASIZE SUB DUP2 ADD SWAP1 PUSH2 0xB8 SWAP2 SWAP1 PUSH2 0x4A5 JUMP JUMPDEST PUSH2 0x25F JUMP JUMPDEST PUSH1 0x40 MLOAD PUSH2 0xCA SWAP2 SWAP1 PUSH2 0x53F JUMP JUMPDEST PUSH1 0x40 MLOAD DUP1 SWAP2 SUB SWAP1 RETURN JUMPDEST PUSH2 0xDB PUSH2 0x275 JUMP JUMPDEST PUSH1 0x40 MLOAD PUSH2 0xE8 SWAP2 SWAP1 PUSH2 0x53F JUMP JUMPDEST PUSH1 0x40 MLOAD DUP1 SWAP2 SUB SWAP1 RETURN JUMPDEST PUSH2 0x10B PUSH1 0x4 DUP1 CALLDATASIZE SUB DUP2 ADD SWAP1 PUSH2 0x106 SWAP2 SWAP1 PUSH2 0x4A5 JUMP JUMPDEST PUSH2 0x27B JUMP JUMPDEST PUSH1 0x40 MLOAD PUSH2 0x118 SWAP2 SWAP1 PUSH2 0x53F JUMP JUMPDEST PUSH1 0x40 MLOAD DUP1 SWAP2 SUB SWAP1 RETURN JUMPDEST PUSH2 0x13B PUSH1 0x4 DUP1 CALLDATASIZE SUB DUP2 ADD SWAP1 PUSH2 0x136 SWAP2 SWAP1 PUSH2 0x4A5 JUMP JUMPDEST PUSH2 0x291 JUMP JUMPDEST PUSH1 0x40 MLOAD PUSH2 0x148 SWAP2 SWAP1 PUSH2 0x53F JUMP JUMPDEST PUSH1 0x40 MLOAD DUP1 SWAP2 SUB SWAP1 RETURN JUMPDEST PUSH2 0x159 PUSH2 0x2A7 JUMP JUMPDEST PUSH1 0x40 MLOAD PUSH2 0x166 SWAP2 SWAP1 PUSH2 0x53F JUMP JUMPDEST PUSH1 0x40 MLOAD DUP1 SWAP2 SUB SWAP1 RETURN JUMPDEST PUSH2 0x189 PUSH1 0x4 DUP1 CALLDATASIZE SUB DUP2 ADD SWAP1 PUSH2 0x184 SWAP2 SWAP1 PUSH2 0x478 JUMP JUMPDEST PUSH2 0x2AD JUMP JUMPDEST PUSH1 0x40 MLOAD PUSH2 0x196 SWAP2 SWAP1 PUSH2 0x575 JUMP JUMPDEST PUSH1 0x40 MLOAD DUP1 SWAP2 SUB SWAP1 RETURN JUMPDEST PUSH2 0x1B9 PUSH1 0x4 DUP1 CALLDATASIZE SUB DUP2 ADD SWAP1 PUSH2 0x1B4 SWAP2 SWAP1 PUSH2 0x478 JUMP JUMPDEST PUSH2 0x2D1 JUMP JUMPDEST PUSH1 0x40 MLOAD PUSH2 0x1C6 SWAP2 SWAP1 PUSH2 0x575 JUMP JUMPDEST PUSH1 0x40 MLOAD DUP1 SWAP2 SUB SWAP1 RETURN JUMPDEST PUSH2 0x1E9 PUSH1 0x4 DUP1 CALLDATASIZE SUB DUP2 ADD SWAP1 PUSH2 0x1E4 SWAP2 SWAP1 PUSH2 0x4E5 JUMP JUMPDEST PUSH2 0x2E6 JUMP JUMPDEST PUSH1 0x40 MLOAD PUSH2 0x1F6 SWAP2 SWAP1 PUSH2 0x575 JUMP JUMPDEST PUSH1 0x40 MLOAD DUP1 SWAP2 SUB SWAP1 RETURN JUMPDEST PUSH2 0x219 PUSH1 0x4 DUP1 CALLDATASIZE SUB DUP2 ADD SWAP1 PUSH2 0x214 SWAP2 SWAP1 PUSH2 0x4A5 JUMP JUMPDEST PUSH2 0x321 JUMP JUMPDEST PUSH1 0x40 MLOAD PUSH2 0x226 SWAP2 SWAP1 PUSH2 0x53F JUMP JUMPDEST PUSH1 0x40 MLOAD DUP1 SWAP2 SUB SWAP1 RETURN JUMPDEST PUSH2 0x249 PUSH1 0x4 DUP1 CALLDATASIZE SUB DUP2 ADD SWAP1 PUSH2 0x244 SWAP2 SWAP1 PUSH2 0x4E5 JUMP JUMPDEST PUSH2 0x337 JUMP JUMPDEST PUSH1 0x40 MLOAD PUSH2 0x256 SWAP2 SWAP1 PUSH2 0x55A JUMP JUMPDEST PUSH1 0x40 MLOAD DUP1 SWAP2 SUB SWAP1 RETURN JUMPDEST PUSH1 0x0 DUP2 DUP4 PUSH2 0x26D SWAP2 SWAP1 PUSH2 0x624 JUMP JUMPDEST SWAP1 POP SWAP3 SWAP2 POP POP JUMP JUMPDEST PUSH1 0x0 SLOAD DUP2 JUMP JUMPDEST PUSH1 0x0 DUP2 DUP4 PUSH2 0x289 SWAP2 SWAP1 PUSH2 0x68E JUMP JUMPDEST SWAP1 POP SWAP3 SWAP2 POP POP JUMP JUMPDEST PUSH1 0x0 DUP2 DUP4 PUSH2 0x29F SWAP2 SWAP1 PUSH2 0x7FF JUMP JUMPDEST SWAP1 POP SWAP3 SWAP2 POP POP JUMP JUMPDEST PUSH1 0x1 SLOAD DUP2 JUMP JUMPDEST PUSH1 0x0 DUP1 DUP3 SGT ISZERO PUSH2 0x2BF JUMPI DUP2 SWAP1 POP PUSH2 0x2CC JUMP JUMPDEST DUP2 PUSH2 0x2C9 SWAP1 PUSH2 0x8F7 JUMP JUMPDEST SWAP1 POP JUMPDEST SWAP2 SWAP1 POP JUMP JUMPDEST PUSH1 0x0 DUP2 DUP3 PUSH2 0x2DF SWAP2 SWAP1 PUSH2 0x68E JUMP JUMPDEST SWAP1 POP SWAP2 SWAP1 POP JUMP JUMPDEST PUSH1 0x0 PUSH1 0x1 DUP3 GT PUSH2 0x2F9 JUMPI PUSH1 0x1 SWAP1 POP PUSH2 0x31C JUMP JUMPDEST PUSH2 0x30E PUSH1 0x1 DUP4 PUSH2 0x309 SWAP2 SWAP1 PUSH2 0x893 JUMP JUMPDEST PUSH2 0x2E6 JUMP JUMPDEST DUP3 PUSH2 0x319 SWAP2 SWAP1 PUSH2 0x7A5 JUMP JUMPDEST SWAP1 POP JUMPDEST SWAP2 SWAP1 POP JUMP JUMPDEST PUSH1 0x0 DUP2 DUP4 PUSH2 0x32F SWAP2 SWAP1 PUSH2 0x590 JUMP JUMPDEST SWAP1 POP SWAP3 SWAP2 POP POP JUMP JUMPDEST PUSH1 0x0 DUP1 DUP3 LT ISZERO PUSH2 0x346 JUMPI PUSH1 0x0 DUP1 REVERT JUMPDEST PUSH1 0x0 DUP3 EQ ISZERO PUSH2 0x358 JUMPI PUSH1 0x0 SWAP1 POP PUSH2 0x449 JUMP JUMPDEST PUSH1 0x0 PUSH1 0x1 SWAP1 POP PUSH1 0x2 DUP2 DUP5 DUP2 PUSH2 0x370 JUMPI PUSH2 0x36F PUSH2 0x96F JUMP JUMPDEST JUMPDEST DIV DUP3 ADD DUP2 PUSH2 0x381 JUMPI PUSH2 0x380 PUSH2 0x96F JUMP JUMPDEST JUMPDEST DIV SWAP1 POP PUSH1 0x2 DUP2 DUP5 DUP2 PUSH2 0x396 JUMPI PUSH2 0x395 PUSH2 0x96F JUMP JUMPDEST JUMPDEST DIV DUP3 ADD DUP2 PUSH2 0x3A7 JUMPI PUSH2 0x3A6 PUSH2 0x96F JUMP JUMPDEST JUMPDEST DIV SWAP1 POP PUSH1 0x2 DUP2 DUP5 DUP2 PUSH2 0x3BC JUMPI PUSH2 0x3BB PUSH2 0x96F JUMP JUMPDEST JUMPDEST DIV DUP3 ADD DUP2 PUSH2 0x3CD JUMPI PUSH2 0x3CC PUSH2 0x96F JUMP JUMPDEST JUMPDEST DIV SWAP1 POP PUSH1 0x2 DUP2 DUP5 DUP2 PUSH2 0x3E2 JUMPI PUSH2 0x3E1 PUSH2 0x96F JUMP JUMPDEST JUMPDEST DIV DUP3 ADD DUP2 PUSH2 0x3F3 JUMPI PUSH2 0x3F2 PUSH2 0x96F JUMP JUMPDEST JUMPDEST DIV SWAP1 POP PUSH1 0x2 DUP2 DUP5 DUP2 PUSH2 0x408 JUMPI PUSH2 0x407 PUSH2 0x96F JUMP JUMPDEST JUMPDEST DIV DUP3 ADD DUP2 PUSH2 0x419 JUMPI PUSH2 0x418 PUSH2 0x96F JUMP JUMPDEST JUMPDEST DIV SWAP1 POP PUSH1 0x0 DUP2 DUP5 DUP2 PUSH2 0x42E JUMPI PUSH2 0x42D PUSH2 0x96F JUMP JUMPDEST JUMPDEST DIV SWAP1 POP DUP1 DUP3 LT ISZERO PUSH2 0x443 JUMPI DUP2 SWAP3 POP POP POP PUSH2 0x449 JUMP JUMPDEST DUP1 SWAP3 POP POP POP JUMPDEST SWAP2 SWAP1 POP JUMP JUMPDEST PUSH1 0x0 DUP2 CALLDATALOAD SWAP1 POP PUSH2 0x45D DUP2 PUSH2 0x9A3 JUMP JUMPDEST SWAP3 SWAP2 POP POP JUMP JUMPDEST PUSH1 0x0 DUP2 CALLDATALOAD SWAP1 POP PUSH2 0x472 DUP2 PUSH2 0x9BA JUMP JUMPDEST SWAP3 SWAP2 POP POP JUMP JUMPDEST PUSH1 0x0 PUSH1 0x20 DUP3 DUP5 SUB SLT ISZERO PUSH2 0x48E JUMPI PUSH2 0x48D PUSH2 0x99E JUMP JUMPDEST JUMPDEST PUSH1 0x0 PUSH2 0x49C DUP5 DUP3 DUP6 ADD PUSH2 0x44E JUMP JUMPDEST SWAP2 POP POP SWAP3 SWAP2 POP POP JUMP JUMPDEST PUSH1 0x0 DUP1 PUSH1 0x40 DUP4 DUP6 SUB SLT ISZERO PUSH2 0x4BC JUMPI PUSH2 0x4BB PUSH2 0x99E JUMP JUMPDEST JUMPDEST PUSH1 0x0 PUSH2 0x4CA DUP6 DUP3 DUP7 ADD PUSH2 0x44E JUMP JUMPDEST SWAP3 POP POP PUSH1 0x20 PUSH2 0x4DB DUP6 DUP3 DUP7 ADD PUSH2 0x44E JUMP JUMPDEST SWAP2 POP POP SWAP3 POP SWAP3 SWAP1 POP JUMP JUMPDEST PUSH1 0x0 PUSH1 0x20 DUP3 DUP5 SUB SLT ISZERO PUSH2 0x4FB JUMPI PUSH2 0x4FA PUSH2 0x99E JUMP JUMPDEST JUMPDEST PUSH1 0x0 PUSH2 0x509 DUP5 DUP3 DUP6 ADD PUSH2 0x463 JUMP JUMPDEST SWAP2 POP POP SWAP3 SWAP2 POP POP JUMP JUMPDEST PUSH2 0x51B DUP2 PUSH2 0x8C7 JUMP JUMPDEST DUP3 MSTORE POP POP JUMP JUMPDEST PUSH2 0x52A DUP2 PUSH2 0x8D1 JUMP JUMPDEST DUP3 MSTORE POP POP JUMP JUMPDEST PUSH2 0x539 DUP2 PUSH2 0x8ED JUMP JUMPDEST DUP3 MSTORE POP POP JUMP JUMPDEST PUSH1 0x0 PUSH1 0x20 DUP3 ADD SWAP1 POP PUSH2 0x554 PUSH1 0x0 DUP4 ADD DUP5 PUSH2 0x512 JUMP JUMPDEST SWAP3 SWAP2 POP POP JUMP JUMPDEST PUSH1 0x0 PUSH1 0x20 DUP3 ADD SWAP1 POP PUSH2 0x56F PUSH1 0x0 DUP4 ADD DUP5 PUSH2 0x521 JUMP JUMPDEST SWAP3 SWAP2 POP POP JUMP JUMPDEST PUSH1 0x0 PUSH1 0x20 DUP3 ADD SWAP1 POP PUSH2 0x58A PUSH1 0x0 DUP4 ADD DUP5 PUSH2 0x530 JUMP JUMPDEST SWAP3 SWAP2 POP POP JUMP JUMPDEST PUSH1 0x0 PUSH2 0x59B DUP3 PUSH2 0x8C7 JUMP JUMPDEST SWAP2 POP PUSH2 0x5A6 DUP4 PUSH2 0x8C7 JUMP JUMPDEST SWAP3 POP DUP2 PUSH32 0x7FFFFFFFFFFFFFFFFFFFFFFFFFFFFFFFFFFFFFFFFFFFFFFFFFFFFFFFFFFFFFFF SUB DUP4 SGT PUSH1 0x0 DUP4 SLT ISZERO AND ISZERO PUSH2 0x5E1 JUMPI PUSH2 0x5E0 PUSH2 0x940 JUMP JUMPDEST JUMPDEST DUP2 PUSH32 0x8000000000000000000000000000000000000000000000000000000000000000 SUB DUP4 SLT PUSH1 0x0 DUP4 SLT AND ISZERO PUSH2 0x619 JUMPI PUSH2 0x618 PUSH2 0x940 JUMP JUMPDEST JUMPDEST DUP3 DUP3 ADD SWAP1 POP SWAP3 SWAP2 POP POP JUMP JUMPDEST PUSH1 0x0 PUSH2 0x62F DUP3 PUSH2 0x8C7 JUMP JUMPDEST SWAP2 POP PUSH2 0x63A DUP4 PUSH2 0x8C7 JUMP JUMPDEST SWAP3 POP DUP3 PUSH2 0x64A JUMPI PUSH2 0x649 PUSH2 0x96F JUMP JUMPDEST JUMPDEST PUSH1 0x1 PUSH1 0x0 SUB DUP4 EQ PUSH32 0x8000000000000000000000000000000000000000000000000000000000000000 DUP4 EQ AND ISZERO PUSH2 0x683 JUMPI PUSH2 0x682 PUSH2 0x940 JUMP JUMPDEST JUMPDEST DUP3 DUP3 SDIV SWAP1 POP SWAP3 SWAP2 POP POP JUMP JUMPDEST PUSH1 0x0 PUSH2 0x699 DUP3 PUSH2 0x8C7 JUMP JUMPDEST SWAP2 POP PUSH2 0x6A4 DUP4 PUSH2 0x8C7 JUMP JUMPDEST SWAP3 POP DUP3 PUSH32 0x7FFFFFFFFFFFFFFFFFFFFFFFFFFFFFFFFFFFFFFFFFFFFFFFFFFFFFFFFFFFFFFF DIV DUP3 GT PUSH1 0x0 DUP5 SGT PUSH1 0x0 DUP5 SGT AND AND ISZERO PUSH2 0x6E3 JUMPI PUSH2 0x6E2 PUSH2 0x940 JUMP JUMPDEST JUMPDEST DUP2 PUSH32 0x8000000000000000000000000000000000000000000000000000000000000000 SDIV DUP4 SLT PUSH1 0x0 DUP5 SLT PUSH1 0x0 DUP5 SGT AND AND ISZERO PUSH2 0x720 JUMPI PUSH2 0x71F PUSH2 0x940 JUMP JUMPDEST JUMPDEST DUP3 PUSH32 0x8000000000000000000000000000000000000000000000000000000000000000 SDIV DUP3 SLT PUSH1 0x0 DUP5 SGT PUSH1 0x0 DUP5 SLT AND AND ISZERO PUSH2 0x75D JUMPI PUSH2 0x75C PUSH2 0x940 JUMP JUMPDEST JUMPDEST DUP3 PUSH32 0x7FFFFFFFFFFFFFFFFFFFFFFFFFFFFFFFFFFFFFFFFFFFFFFFFFFFFFFFFFFFFFFF SDIV DUP3 SLT PUSH1 0x0 DUP5 SLT PUSH1 0x0 DUP5 SLT AND AND ISZERO PUSH2 0x79A JUMPI PUSH2 0x799 PUSH2 0x940 JUMP JUMPDEST JUMPDEST DUP3 DUP3 MUL SWAP1 POP SWAP3 SWAP2 POP POP JUMP JUMPDEST PUSH1 0x0 PUSH2 0x7B0 DUP3 PUSH2 0x8ED JUMP JUMPDEST SWAP2 POP PUSH2 0x7BB DUP4 PUSH2 0x8ED JUMP JUMPDEST SWAP3 POP DUP2 PUSH32 0xFFFFFFFFFFFFFFFFFFFFFFFFFFFFFFFFFFFFFFFFFFFFFFFFFFFFFFFFFFFFFFFF DIV DUP4 GT DUP3 ISZERO ISZERO AND ISZERO PUSH2 0x7F4 JUMPI PUSH2 0x7F3 PUSH2 0x940 JUMP JUMPDEST JUMPDEST DUP3 DUP3 MUL SWAP1 POP SWAP3 SWAP2 POP POP JUMP JUMPDEST PUSH1 0x0 PUSH2 0x80A DUP3 PUSH2 0x8C7 JUMP JUMPDEST SWAP2 POP PUSH2 0x815 DUP4 PUSH2 0x8C7 JUMP JUMPDEST SWAP3 POP DUP3 PUSH32 0x8000000000000000000000000000000000000000000000000000000000000000 ADD DUP3 SLT PUSH1 0x0 DUP5 SLT ISZERO AND ISZERO PUSH2 0x850 JUMPI PUSH2 0x84F PUSH2 0x940 JUMP JUMPDEST JUMPDEST DUP3 PUSH32 0x7FFFFFFFFFFFFFFFFFFFFFFFFFFFFFFFFFFFFFFFFFFFFFFFFFFFFFFFFFFFFFFF ADD DUP3 SGT PUSH1 0x0 DUP5 SLT AND ISZERO PUSH2 0x888 JUMPI PUSH2 0x887 PUSH2 0x940 JUMP JUMPDEST JUMPDEST DUP3 DUP3 SUB SWAP1 POP SWAP3 SWAP2 POP POP JUMP JUMPDEST PUSH1 0x0 PUSH2 0x89E DUP3 PUSH2 0x8ED JUMP JUMPDEST SWAP2 POP PUSH2 0x8A9 DUP4 PUSH2 0x8ED JUMP JUMPDEST SWAP3 POP DUP3 DUP3 LT ISZERO PUSH2 0x8BC JUMPI PUSH2 0x8BB PUSH2 0x940 JUMP JUMPDEST JUMPDEST DUP3 DUP3 SUB SWAP1 POP SWAP3 SWAP2 POP POP JUMP JUMPDEST PUSH1 0x0 DUP2 SWAP1 POP SWAP2 SWAP1 POP JUMP JUMPDEST PUSH1 0x0 PUSH16 0xFFFFFFFFFFFFFFFFFFFFFFFFFFFFFFFF DUP3 AND SWAP1 POP SWAP2 SWAP1 POP JUMP JUMPDEST PUSH1 0x0 DUP2 SWAP1 POP SWAP2 SWAP1 POP JUMP JUMPDEST PUSH1 0x0 PUSH2 0x902 DUP3 PUSH2 0x8C7 JUMP JUMPDEST SWAP2 POP PUSH32 0x8000000000000000000000000000000000000000000000000000000000000000 DUP3 EQ ISZERO PUSH2 0x935 JUMPI PUSH2 0x934 PUSH2 0x940 JUMP JUMPDEST JUMPDEST DUP2 PUSH1 0x0 SUB SWAP1 POP SWAP2 SWAP1 POP JUMP JUMPDEST PUSH32 0x4E487B7100000000000000000000000000000000000000000000000000000000 PUSH1 0x0 MSTORE PUSH1 0x11 PUSH1 0x4 MSTORE PUSH1 0x24 PUSH1 0x0 REVERT JUMPDEST PUSH32 0x4E487B7100000000000000000000000000000000000000000000000000000000 PUSH1 0x0 MSTORE PUSH1 0x12 PUSH1 0x4 MSTORE PUSH1 0x24 PUSH1 0x0 REVERT JUMPDEST PUSH1 0x0 DUP1 REVERT JUMPDEST PUSH2 0x9AC DUP2 PUSH2 0x8C7 JUMP JUMPDEST DUP2 EQ PUSH2 0x9B7 JUMPI PUSH1 0x0 DUP1 REVERT JUMPDEST POP JUMP JUMPDEST PUSH2 0x9C3 DUP2 PUSH2 0x8ED JUMP JUMPDEST DUP2 EQ PUSH2 0x9CE JUMPI PUSH1 0x0 DUP1 REVERT JUMPDEST POP JUMP INVALID LOG2 PUSH5 0x6970667358 0x22 SLT KECCAK256 SWAP6 SWAP3 SELFBALANCE DUP13 CALLDATACOPY 0xBC 0x2D SDIV 0x5E ISZERO 0xA6 PUSH7 0xF7F1CAD3C74B 0xDE 0xC PUSH27 0x7370E85D48882491E0B464736F6C63430008070033000000000000 "
				},
				"gasEstimates": {
					"creation": {
						"codeDepositCost": "513400",
						"executionCost": "549",
						"totalCost": "513949"
					},
					"external": {
						"a()": "2452",
						"b()": "2518",
						"cuadrado(int256)": "infinite",
						"division(int256,int256)": "infinite",
						"factorial(uint256)": "infinite",
						"multiplicacion(int256,int256)": "infinite",
						"raizCuadrada(uint256)": "1156",
						"resta(int256,int256)": "infinite",
						"suma(int256,int256)": "infinite",
						"valorAbsoluto(int256)": "infinite"
					}
				},
				"methodIdentifiers": {
					"a()": "0dbe671f",
					"b()": "4df7e3d0",
					"cuadrado(int256)": "7ea9e058",
					"division(int256,int256)": "09b7cdda",
					"factorial(uint256)": "83714834",
					"multiplicacion(int256,int256)": "187983bf",
					"raizCuadrada(uint256)": "b29400d0",
					"resta(int256,int256)": "4c627bad",
					"suma(int256,int256)": "8f8a0d19",
					"valorAbsoluto(int256)": "7d825142"
				}
			},
			"storageLayout": {
				"storage": [
					{
						"astId": 3,
						"contract": "Documents/GitHub/SOLIDITY-REMIX/5ef069451e67668750287d64bc5f8bae/calculadora.sol:Calculadora",
						"label": "a",
						"offset": 0,
						"slot": "0",
						"type": "t_int256"
					},
					{
						"astId": 5,
						"contract": "Documents/GitHub/SOLIDITY-REMIX/5ef069451e67668750287d64bc5f8bae/calculadora.sol:Calculadora",
						"label": "b",
						"offset": 0,
						"slot": "1",
						"type": "t_int256"
					}
				],
				"types": {
					"t_int256": {
						"encoding": "inplace",
						"label": "int256",
						"numberOfBytes": "32"
					}
				}
			},
			"userdoc": {
				"kind": "user",
				"methods": {},
				"version": 1
			}
		}
	}
}