{
	"Documents/GitHub/SOLIDITY-REMIX/5ef069451e67668750287d64bc5f8bae/calculadora.sol": {
		"Calculadora": {
			"abi": [
				{
					"inputs": [],
					"name": "a",
					"outputs": [
						{
							"internalType": "int256",
							"name": "",
							"type": "int256"
						}
					],
					"stateMutability": "view",
					"type": "function"
				},
				{
					"inputs": [],
					"name": "b",
					"outputs": [
						{
							"internalType": "int256",
							"name": "",
							"type": "int256"
						}
					],
					"stateMutability": "view",
					"type": "function"
				},
				{
					"inputs": [],
					"name": "suma1",
					"outputs": [
						{
							"internalType": "int256",
							"name": "",
							"type": "int256"
						}
					],
					"stateMutability": "view",
					"type": "function"
				}
			],
			"devdoc": {
				"kind": "dev",
				"methods": {},
				"version": 1
			},
			"evm": {
				"assembly": "    /* \"Documents/GitHub/SOLIDITY-REMIX/5ef069451e67668750287d64bc5f8bae/calculadora.sol\":94:471  contract Calculadora {\r... */\n  mstore(0x40, 0x80)\n    /* \"Documents/GitHub/SOLIDITY-REMIX/5ef069451e67668750287d64bc5f8bae/calculadora.sol\":161:162  9 */\n  0x09\n    /* \"Documents/GitHub/SOLIDITY-REMIX/5ef069451e67668750287d64bc5f8bae/calculadora.sol\":146:162  int public a = 9 */\n  0x00\n  sstore\n    /* \"Documents/GitHub/SOLIDITY-REMIX/5ef069451e67668750287d64bc5f8bae/calculadora.sol\":184:185  7 */\n  0x07\n    /* \"Documents/GitHub/SOLIDITY-REMIX/5ef069451e67668750287d64bc5f8bae/calculadora.sol\":169:185  int public b = 7 */\n  0x01\n  sstore\n    /* \"Documents/GitHub/SOLIDITY-REMIX/5ef069451e67668750287d64bc5f8bae/calculadora.sol\":219:228  a.suma(b) */\n  tag_1\n    /* \"Documents/GitHub/SOLIDITY-REMIX/5ef069451e67668750287d64bc5f8bae/calculadora.sol\":226:227  b */\n  sload(0x01)\n    /* \"Documents/GitHub/SOLIDITY-REMIX/5ef069451e67668750287d64bc5f8bae/calculadora.sol\":219:220  a */\n  sload(0x00)\n    /* \"Documents/GitHub/SOLIDITY-REMIX/5ef069451e67668750287d64bc5f8bae/calculadora.sol\":219:225  a.suma */\n  or(tag_0_16, shl(0x20, tag_2))\n  swap1\n    /* \"Documents/GitHub/SOLIDITY-REMIX/5ef069451e67668750287d64bc5f8bae/calculadora.sol\":219:228  a.suma(b) */\n  swap2\n  swap1\n  0x20\n  shr\n  jump\t// in\ntag_1:\n    /* \"Documents/GitHub/SOLIDITY-REMIX/5ef069451e67668750287d64bc5f8bae/calculadora.sol\":200:228  int public suma1 = a.suma(b) */\n  0x02\n  sstore\n    /* \"Documents/GitHub/SOLIDITY-REMIX/5ef069451e67668750287d64bc5f8bae/calculadora.sol\":94:471  contract Calculadora {\r... */\n  callvalue\n  dup1\n  iszero\n  tag_3\n  jumpi\n  0x00\n  dup1\n  revert\ntag_3:\n  pop\n  jump(tag_4)\n    /* \"Documents/GitHub/SOLIDITY-REMIX/5ef069451e67668750287d64bc5f8bae/libmates.sol\":164:255  function suma(int _a,int _b) internal pure returns(int) {\r... */\ntag_2:\n    /* \"Documents/GitHub/SOLIDITY-REMIX/5ef069451e67668750287d64bc5f8bae/libmates.sol\":215:218  int */\n  0x00\n    /* \"Documents/GitHub/SOLIDITY-REMIX/5ef069451e67668750287d64bc5f8bae/libmates.sol\":244:246  _b */\n  dup2\n    /* \"Documents/GitHub/SOLIDITY-REMIX/5ef069451e67668750287d64bc5f8bae/libmates.sol\":239:241  _a */\n  dup4\n    /* \"Documents/GitHub/SOLIDITY-REMIX/5ef069451e67668750287d64bc5f8bae/libmates.sol\":239:246  _a + _b */\n  tag_6\n  swap2\n  swap1\n  tag_7\n  jump\t// in\ntag_6:\n    /* \"Documents/GitHub/SOLIDITY-REMIX/5ef069451e67668750287d64bc5f8bae/libmates.sol\":231:247  return (_a + _b) */\n  swap1\n  pop\n    /* \"Documents/GitHub/SOLIDITY-REMIX/5ef069451e67668750287d64bc5f8bae/libmates.sol\":164:255  function suma(int _a,int _b) internal pure returns(int) {\r... */\n  swap3\n  swap2\n  pop\n  pop\n  jump\t// out\n    /* \"#utility.yul\":7:532   */\ntag_7:\n    /* \"#utility.yul\":46:49   */\n  0x00\n    /* \"#utility.yul\":65:84   */\n  tag_10\n    /* \"#utility.yul\":82:83   */\n  dup3\n    /* \"#utility.yul\":65:84   */\n  tag_11\n  jump\t// in\ntag_10:\n    /* \"#utility.yul\":60:84   */\n  swap2\n  pop\n    /* \"#utility.yul\":98:117   */\n  tag_12\n    /* \"#utility.yul\":115:116   */\n  dup4\n    /* \"#utility.yul\":98:117   */\n  tag_11\n  jump\t// in\ntag_12:\n    /* \"#utility.yul\":93:117   */\n  swap3\n  pop\n    /* \"#utility.yul\":286:287   */\n  dup2\n    /* \"#utility.yul\":218:284   */\n  0x7fffffffffffffffffffffffffffffffffffffffffffffffffffffffffffffff\n    /* \"#utility.yul\":214:288   */\n  sub\n    /* \"#utility.yul\":211:212   */\n  dup4\n    /* \"#utility.yul\":207:289   */\n  sgt\n    /* \"#utility.yul\":202:203   */\n  0x00\n    /* \"#utility.yul\":199:200   */\n  dup4\n    /* \"#utility.yul\":195:204   */\n  slt\n    /* \"#utility.yul\":188:205   */\n  iszero\n    /* \"#utility.yul\":184:290   */\n  and\n    /* \"#utility.yul\":181:313   */\n  iszero\n  tag_13\n  jumpi\n    /* \"#utility.yul\":293:311   */\n  tag_14\n  tag_15\n  jump\t// in\ntag_14:\n    /* \"#utility.yul\":181:313   */\ntag_13:\n    /* \"#utility.yul\":473:474   */\n  dup2\n    /* \"#utility.yul\":405:471   */\n  0x8000000000000000000000000000000000000000000000000000000000000000\n    /* \"#utility.yul\":401:475   */\n  sub\n    /* \"#utility.yul\":398:399   */\n  dup4\n    /* \"#utility.yul\":394:476   */\n  slt\n    /* \"#utility.yul\":390:391   */\n  0x00\n    /* \"#utility.yul\":387:388   */\n  dup4\n    /* \"#utility.yul\":383:392   */\n  slt\n    /* \"#utility.yul\":379:477   */\n  and\n    /* \"#utility.yul\":376:500   */\n  iszero\n  tag_16\n  jumpi\n    /* \"#utility.yul\":480:498   */\n  tag_17\n  tag_15\n  jump\t// in\ntag_17:\n    /* \"#utility.yul\":376:500   */\ntag_16:\n    /* \"#utility.yul\":524:525   */\n  dup3\n    /* \"#utility.yul\":521:522   */\n  dup3\n    /* \"#utility.yul\":517:526   */\n  add\n    /* \"#utility.yul\":510:526   */\n  swap1\n  pop\n    /* \"#utility.yul\":7:532   */\n  swap3\n  swap2\n  pop\n  pop\n  jump\t// out\n    /* \"#utility.yul\":538:614   */\ntag_11:\n    /* \"#utility.yul\":574:581   */\n  0x00\n    /* \"#utility.yul\":603:608   */\n  dup2\n    /* \"#utility.yul\":592:608   */\n  swap1\n  pop\n    /* \"#utility.yul\":538:614   */\n  swap2\n  swap1\n  pop\n  jump\t// out\n    /* \"#utility.yul\":620:800   */\ntag_15:\n    /* \"#utility.yul\":668:745   */\n  0x4e487b7100000000000000000000000000000000000000000000000000000000\n    /* \"#utility.yul\":665:666   */\n  0x00\n    /* \"#utility.yul\":658:746   */\n  mstore\n    /* \"#utility.yul\":765:769   */\n  0x11\n    /* \"#utility.yul\":762:763   */\n  0x04\n    /* \"#utility.yul\":755:770   */\n  mstore\n    /* \"#utility.yul\":789:793   */\n  0x24\n    /* \"#utility.yul\":786:787   */\n  0x00\n    /* \"#utility.yul\":779:794   */\n  revert\n    /* \"Documents/GitHub/SOLIDITY-REMIX/5ef069451e67668750287d64bc5f8bae/calculadora.sol\":94:471  contract Calculadora {\r... */\ntag_4:\n  dataSize(sub_0)\n  dup1\n  dataOffset(sub_0)\n  0x00\n  codecopy\n  0x00\n  return\nstop\n\nsub_0: assembly {\n        /* \"Documents/GitHub/SOLIDITY-REMIX/5ef069451e67668750287d64bc5f8bae/calculadora.sol\":94:471  contract Calculadora {\r... */\n      mstore(0x40, 0x80)\n      callvalue\n      dup1\n      iszero\n      tag_1\n      jumpi\n      0x00\n      dup1\n      revert\n    tag_1:\n      pop\n      jumpi(tag_2, lt(calldatasize, 0x04))\n      shr(0xe0, calldataload(0x00))\n      dup1\n      0x0dbe671f\n      eq\n      tag_3\n      jumpi\n      dup1\n      0x30f7d31c\n      eq\n      tag_4\n      jumpi\n      dup1\n      0x4df7e3d0\n      eq\n      tag_5\n      jumpi\n    tag_2:\n      0x00\n      dup1\n      revert\n        /* \"Documents/GitHub/SOLIDITY-REMIX/5ef069451e67668750287d64bc5f8bae/calculadora.sol\":146:162  int public a = 9 */\n    tag_3:\n      tag_6\n      tag_7\n      jump\t// in\n    tag_6:\n      mload(0x40)\n      tag_8\n      swap2\n      swap1\n      tag_9\n      jump\t// in\n    tag_8:\n      mload(0x40)\n      dup1\n      swap2\n      sub\n      swap1\n      return\n        /* \"Documents/GitHub/SOLIDITY-REMIX/5ef069451e67668750287d64bc5f8bae/calculadora.sol\":200:228  int public suma1 = a.suma(b) */\n    tag_4:\n      tag_10\n      tag_11\n      jump\t// in\n    tag_10:\n      mload(0x40)\n      tag_12\n      swap2\n      swap1\n      tag_9\n      jump\t// in\n    tag_12:\n      mload(0x40)\n      dup1\n      swap2\n      sub\n      swap1\n      return\n        /* \"Documents/GitHub/SOLIDITY-REMIX/5ef069451e67668750287d64bc5f8bae/calculadora.sol\":169:185  int public b = 7 */\n    tag_5:\n      tag_13\n      tag_14\n      jump\t// in\n    tag_13:\n      mload(0x40)\n      tag_15\n      swap2\n      swap1\n      tag_9\n      jump\t// in\n    tag_15:\n      mload(0x40)\n      dup1\n      swap2\n      sub\n      swap1\n      return\n        /* \"Documents/GitHub/SOLIDITY-REMIX/5ef069451e67668750287d64bc5f8bae/calculadora.sol\":146:162  int public a = 9 */\n    tag_7:\n      sload(0x00)\n      dup2\n      jump\t// out\n        /* \"Documents/GitHub/SOLIDITY-REMIX/5ef069451e67668750287d64bc5f8bae/calculadora.sol\":200:228  int public suma1 = a.suma(b) */\n    tag_11:\n      sload(0x02)\n      dup2\n      jump\t// out\n        /* \"Documents/GitHub/SOLIDITY-REMIX/5ef069451e67668750287d64bc5f8bae/calculadora.sol\":169:185  int public b = 7 */\n    tag_14:\n      sload(0x01)\n      dup2\n      jump\t// out\n        /* \"Documents/GitHub/SOLIDITY-REMIX/5ef069451e67668750287d64bc5f8bae/libmates.sol\":164:255  function suma(int _a,int _b) internal pure returns(int) {\r... */\n    tag_16:\n        /* \"Documents/GitHub/SOLIDITY-REMIX/5ef069451e67668750287d64bc5f8bae/libmates.sol\":215:218  int */\n      0x00\n        /* \"Documents/GitHub/SOLIDITY-REMIX/5ef069451e67668750287d64bc5f8bae/libmates.sol\":244:246  _b */\n      dup2\n        /* \"Documents/GitHub/SOLIDITY-REMIX/5ef069451e67668750287d64bc5f8bae/libmates.sol\":239:241  _a */\n      dup4\n        /* \"Documents/GitHub/SOLIDITY-REMIX/5ef069451e67668750287d64bc5f8bae/libmates.sol\":239:246  _a + _b */\n      tag_18\n      swap2\n      swap1\n      tag_19\n      jump\t// in\n    tag_18:\n        /* \"Documents/GitHub/SOLIDITY-REMIX/5ef069451e67668750287d64bc5f8bae/libmates.sol\":231:247  return (_a + _b) */\n      swap1\n      pop\n        /* \"Documents/GitHub/SOLIDITY-REMIX/5ef069451e67668750287d64bc5f8bae/libmates.sol\":164:255  function suma(int _a,int _b) internal pure returns(int) {\r... */\n      swap3\n      swap2\n      pop\n      pop\n      jump\t// out\n        /* \"#utility.yul\":7:122   */\n    tag_21:\n        /* \"#utility.yul\":92:115   */\n      tag_23\n        /* \"#utility.yul\":109:114   */\n      dup2\n        /* \"#utility.yul\":92:115   */\n      tag_24\n      jump\t// in\n    tag_23:\n        /* \"#utility.yul\":87:90   */\n      dup3\n        /* \"#utility.yul\":80:116   */\n      mstore\n        /* \"#utility.yul\":7:122   */\n      pop\n      pop\n      jump\t// out\n        /* \"#utility.yul\":128:346   */\n    tag_9:\n        /* \"#utility.yul\":219:223   */\n      0x00\n        /* \"#utility.yul\":257:259   */\n      0x20\n        /* \"#utility.yul\":246:255   */\n      dup3\n        /* \"#utility.yul\":242:260   */\n      add\n        /* \"#utility.yul\":234:260   */\n      swap1\n      pop\n        /* \"#utility.yul\":270:339   */\n      tag_26\n        /* \"#utility.yul\":336:337   */\n      0x00\n        /* \"#utility.yul\":325:334   */\n      dup4\n        /* \"#utility.yul\":321:338   */\n      add\n        /* \"#utility.yul\":312:318   */\n      dup5\n        /* \"#utility.yul\":270:339   */\n      tag_21\n      jump\t// in\n    tag_26:\n        /* \"#utility.yul\":128:346   */\n      swap3\n      swap2\n      pop\n      pop\n      jump\t// out\n        /* \"#utility.yul\":352:877   */\n    tag_19:\n        /* \"#utility.yul\":391:394   */\n      0x00\n        /* \"#utility.yul\":410:429   */\n      tag_28\n        /* \"#utility.yul\":427:428   */\n      dup3\n        /* \"#utility.yul\":410:429   */\n      tag_24\n      jump\t// in\n    tag_28:\n        /* \"#utility.yul\":405:429   */\n      swap2\n      pop\n        /* \"#utility.yul\":443:462   */\n      tag_29\n        /* \"#utility.yul\":460:461   */\n      dup4\n        /* \"#utility.yul\":443:462   */\n      tag_24\n      jump\t// in\n    tag_29:\n        /* \"#utility.yul\":438:462   */\n      swap3\n      pop\n        /* \"#utility.yul\":631:632   */\n      dup2\n        /* \"#utility.yul\":563:629   */\n      0x7fffffffffffffffffffffffffffffffffffffffffffffffffffffffffffffff\n        /* \"#utility.yul\":559:633   */\n      sub\n        /* \"#utility.yul\":556:557   */\n      dup4\n        /* \"#utility.yul\":552:634   */\n      sgt\n        /* \"#utility.yul\":547:548   */\n      0x00\n        /* \"#utility.yul\":544:545   */\n      dup4\n        /* \"#utility.yul\":540:549   */\n      slt\n        /* \"#utility.yul\":533:550   */\n      iszero\n        /* \"#utility.yul\":529:635   */\n      and\n        /* \"#utility.yul\":526:658   */\n      iszero\n      tag_30\n      jumpi\n        /* \"#utility.yul\":638:656   */\n      tag_31\n      tag_32\n      jump\t// in\n    tag_31:\n        /* \"#utility.yul\":526:658   */\n    tag_30:\n        /* \"#utility.yul\":818:819   */\n      dup2\n        /* \"#utility.yul\":750:816   */\n      0x8000000000000000000000000000000000000000000000000000000000000000\n        /* \"#utility.yul\":746:820   */\n      sub\n        /* \"#utility.yul\":743:744   */\n      dup4\n        /* \"#utility.yul\":739:821   */\n      slt\n        /* \"#utility.yul\":735:736   */\n      0x00\n        /* \"#utility.yul\":732:733   */\n      dup4\n        /* \"#utility.yul\":728:737   */\n      slt\n        /* \"#utility.yul\":724:822   */\n      and\n        /* \"#utility.yul\":721:845   */\n      iszero\n      tag_33\n      jumpi\n        /* \"#utility.yul\":825:843   */\n      tag_34\n      tag_32\n      jump\t// in\n    tag_34:\n        /* \"#utility.yul\":721:845   */\n    tag_33:\n        /* \"#utility.yul\":869:870   */\n      dup3\n        /* \"#utility.yul\":866:867   */\n      dup3\n        /* \"#utility.yul\":862:871   */\n      add\n        /* \"#utility.yul\":855:871   */\n      swap1\n      pop\n        /* \"#utility.yul\":352:877   */\n      swap3\n      swap2\n      pop\n      pop\n      jump\t// out\n        /* \"#utility.yul\":883:959   */\n    tag_24:\n        /* \"#utility.yul\":919:926   */\n      0x00\n        /* \"#utility.yul\":948:953   */\n      dup2\n        /* \"#utility.yul\":937:953   */\n      swap1\n      pop\n        /* \"#utility.yul\":883:959   */\n      swap2\n      swap1\n      pop\n      jump\t// out\n        /* \"#utility.yul\":965:1145   */\n    tag_32:\n        /* \"#utility.yul\":1013:1090   */\n      0x4e487b7100000000000000000000000000000000000000000000000000000000\n        /* \"#utility.yul\":1010:1011   */\n      0x00\n        /* \"#utility.yul\":1003:1091   */\n      mstore\n        /* \"#utility.yul\":1110:1114   */\n      0x11\n        /* \"#utility.yul\":1107:1108   */\n      0x04\n        /* \"#utility.yul\":1100:1115   */\n      mstore\n        /* \"#utility.yul\":1134:1138   */\n      0x24\n        /* \"#utility.yul\":1131:1132   */\n      0x00\n        /* \"#utility.yul\":1124:1139   */\n      revert\n\n    auxdata: 0xa2646970667358221220ad82ecb6a6218841115d76df89b66731b94c3a178776616504f13b6b342a3d2664736f6c63430008070033\n}\n",
				"bytecode": {
					"linkReferences": {},
					"object": "60806040526009600055600760015561002960015460005461003e60201b6100b21790919060201c565b60025534801561003857600080fd5b50610121565b6000818361004c9190610054565b905092915050565b600061005f826100e8565b915061006a836100e8565b9250817f7fffffffffffffffffffffffffffffffffffffffffffffffffffffffffffffff038313600083121516156100a5576100a46100f2565b5b817f80000000000000000000000000000000000000000000000000000000000000000383126000831216156100dd576100dc6100f2565b5b828201905092915050565b6000819050919050565b7f4e487b7100000000000000000000000000000000000000000000000000000000600052601160045260246000fd5b6101f5806101306000396000f3fe608060405234801561001057600080fd5b50600436106100415760003560e01c80630dbe671f1461004657806330f7d31c146100645780634df7e3d014610082575b600080fd5b61004e6100a0565b60405161005b91906100d7565b60405180910390f35b61006c6100a6565b60405161007991906100d7565b60405180910390f35b61008a6100ac565b60405161009791906100d7565b60405180910390f35b60005481565b60025481565b60015481565b600081836100c091906100f2565b905092915050565b6100d181610186565b82525050565b60006020820190506100ec60008301846100c8565b92915050565b60006100fd82610186565b915061010883610186565b9250817f7fffffffffffffffffffffffffffffffffffffffffffffffffffffffffffffff0383136000831215161561014357610142610190565b5b817f800000000000000000000000000000000000000000000000000000000000000003831260008312161561017b5761017a610190565b5b828201905092915050565b6000819050919050565b7f4e487b7100000000000000000000000000000000000000000000000000000000600052601160045260246000fdfea2646970667358221220ad82ecb6a6218841115d76df89b66731b94c3a178776616504f13b6b342a3d2664736f6c63430008070033",
					"opcodes": "PUSH1 0x80 PUSH1 0x40 MSTORE PUSH1 0x9 PUSH1 0x0 SSTORE PUSH1 0x7 PUSH1 0x1 SSTORE PUSH2 0x29 PUSH1 0x1 SLOAD PUSH1 0x0 SLOAD PUSH2 0x3E PUSH1 0x20 SHL PUSH2 0xB2 OR SWAP1 SWAP2 SWAP1 PUSH1 0x20 SHR JUMP JUMPDEST PUSH1 0x2 SSTORE CALLVALUE DUP1 ISZERO PUSH2 0x38 JUMPI PUSH1 0x0 DUP1 REVERT JUMPDEST POP PUSH2 0x121 JUMP JUMPDEST PUSH1 0x0 DUP2 DUP4 PUSH2 0x4C SWAP2 SWAP1 PUSH2 0x54 JUMP JUMPDEST SWAP1 POP SWAP3 SWAP2 POP POP JUMP JUMPDEST PUSH1 0x0 PUSH2 0x5F DUP3 PUSH2 0xE8 JUMP JUMPDEST SWAP2 POP PUSH2 0x6A DUP4 PUSH2 0xE8 JUMP JUMPDEST SWAP3 POP DUP2 PUSH32 0x7FFFFFFFFFFFFFFFFFFFFFFFFFFFFFFFFFFFFFFFFFFFFFFFFFFFFFFFFFFFFFFF SUB DUP4 SGT PUSH1 0x0 DUP4 SLT ISZERO AND ISZERO PUSH2 0xA5 JUMPI PUSH2 0xA4 PUSH2 0xF2 JUMP JUMPDEST JUMPDEST DUP2 PUSH32 0x8000000000000000000000000000000000000000000000000000000000000000 SUB DUP4 SLT PUSH1 0x0 DUP4 SLT AND ISZERO PUSH2 0xDD JUMPI PUSH2 0xDC PUSH2 0xF2 JUMP JUMPDEST JUMPDEST DUP3 DUP3 ADD SWAP1 POP SWAP3 SWAP2 POP POP JUMP JUMPDEST PUSH1 0x0 DUP2 SWAP1 POP SWAP2 SWAP1 POP JUMP JUMPDEST PUSH32 0x4E487B7100000000000000000000000000000000000000000000000000000000 PUSH1 0x0 MSTORE PUSH1 0x11 PUSH1 0x4 MSTORE PUSH1 0x24 PUSH1 0x0 REVERT JUMPDEST PUSH2 0x1F5 DUP1 PUSH2 0x130 PUSH1 0x0 CODECOPY PUSH1 0x0 RETURN INVALID PUSH1 0x80 PUSH1 0x40 MSTORE CALLVALUE DUP1 ISZERO PUSH2 0x10 JUMPI PUSH1 0x0 DUP1 REVERT JUMPDEST POP PUSH1 0x4 CALLDATASIZE LT PUSH2 0x41 JUMPI PUSH1 0x0 CALLDATALOAD PUSH1 0xE0 SHR DUP1 PUSH4 0xDBE671F EQ PUSH2 0x46 JUMPI DUP1 PUSH4 0x30F7D31C EQ PUSH2 0x64 JUMPI DUP1 PUSH4 0x4DF7E3D0 EQ PUSH2 0x82 JUMPI JUMPDEST PUSH1 0x0 DUP1 REVERT JUMPDEST PUSH2 0x4E PUSH2 0xA0 JUMP JUMPDEST PUSH1 0x40 MLOAD PUSH2 0x5B SWAP2 SWAP1 PUSH2 0xD7 JUMP JUMPDEST PUSH1 0x40 MLOAD DUP1 SWAP2 SUB SWAP1 RETURN JUMPDEST PUSH2 0x6C PUSH2 0xA6 JUMP JUMPDEST PUSH1 0x40 MLOAD PUSH2 0x79 SWAP2 SWAP1 PUSH2 0xD7 JUMP JUMPDEST PUSH1 0x40 MLOAD DUP1 SWAP2 SUB SWAP1 RETURN JUMPDEST PUSH2 0x8A PUSH2 0xAC JUMP JUMPDEST PUSH1 0x40 MLOAD PUSH2 0x97 SWAP2 SWAP1 PUSH2 0xD7 JUMP JUMPDEST PUSH1 0x40 MLOAD DUP1 SWAP2 SUB SWAP1 RETURN JUMPDEST PUSH1 0x0 SLOAD DUP2 JUMP JUMPDEST PUSH1 0x2 SLOAD DUP2 JUMP JUMPDEST PUSH1 0x1 SLOAD DUP2 JUMP JUMPDEST PUSH1 0x0 DUP2 DUP4 PUSH2 0xC0 SWAP2 SWAP1 PUSH2 0xF2 JUMP JUMPDEST SWAP1 POP SWAP3 SWAP2 POP POP JUMP JUMPDEST PUSH2 0xD1 DUP2 PUSH2 0x186 JUMP JUMPDEST DUP3 MSTORE POP POP JUMP JUMPDEST PUSH1 0x0 PUSH1 0x20 DUP3 ADD SWAP1 POP PUSH2 0xEC PUSH1 0x0 DUP4 ADD DUP5 PUSH2 0xC8 JUMP JUMPDEST SWAP3 SWAP2 POP POP JUMP JUMPDEST PUSH1 0x0 PUSH2 0xFD DUP3 PUSH2 0x186 JUMP JUMPDEST SWAP2 POP PUSH2 0x108 DUP4 PUSH2 0x186 JUMP JUMPDEST SWAP3 POP DUP2 PUSH32 0x7FFFFFFFFFFFFFFFFFFFFFFFFFFFFFFFFFFFFFFFFFFFFFFFFFFFFFFFFFFFFFFF SUB DUP4 SGT PUSH1 0x0 DUP4 SLT ISZERO AND ISZERO PUSH2 0x143 JUMPI PUSH2 0x142 PUSH2 0x190 JUMP JUMPDEST JUMPDEST DUP2 PUSH32 0x8000000000000000000000000000000000000000000000000000000000000000 SUB DUP4 SLT PUSH1 0x0 DUP4 SLT AND ISZERO PUSH2 0x17B JUMPI PUSH2 0x17A PUSH2 0x190 JUMP JUMPDEST JUMPDEST DUP3 DUP3 ADD SWAP1 POP SWAP3 SWAP2 POP POP JUMP JUMPDEST PUSH1 0x0 DUP2 SWAP1 POP SWAP2 SWAP1 POP JUMP JUMPDEST PUSH32 0x4E487B7100000000000000000000000000000000000000000000000000000000 PUSH1 0x0 MSTORE PUSH1 0x11 PUSH1 0x4 MSTORE PUSH1 0x24 PUSH1 0x0 REVERT INVALID LOG2 PUSH5 0x6970667358 0x22 SLT KECCAK256 0xAD DUP3 0xEC 0xB6 0xA6 0x21 DUP9 COINBASE GT 0x5D PUSH23 0xDF89B66731B94C3A178776616504F13B6B342A3D266473 PUSH16 0x6C634300080700330000000000000000 "
				},
				"gasEstimates": {
					"creation": {
						"codeDepositCost": "100200",
						"executionCost": "infinite",
						"totalCost": "infinite"
					},
					"external": {
						"a()": "2407",
						"b()": "2451",
						"suma1()": "2429"
					}
				},
				"methodIdentifiers": {
					"a()": "0dbe671f",
					"b()": "4df7e3d0",
					"suma1()": "30f7d31c"
				}
			},
			"storageLayout": {
				"storage": [
					{
						"astId": 7,
						"contract": "Documents/GitHub/SOLIDITY-REMIX/5ef069451e67668750287d64bc5f8bae/calculadora.sol:Calculadora",
						"label": "a",
						"offset": 0,
						"slot": "0",
						"type": "t_int256"
					},
					{
						"astId": 10,
						"contract": "Documents/GitHub/SOLIDITY-REMIX/5ef069451e67668750287d64bc5f8bae/calculadora.sol:Calculadora",
						"label": "b",
						"offset": 0,
						"slot": "1",
						"type": "t_int256"
					},
					{
						"astId": 16,
						"contract": "Documents/GitHub/SOLIDITY-REMIX/5ef069451e67668750287d64bc5f8bae/calculadora.sol:Calculadora",
						"label": "suma1",
						"offset": 0,
						"slot": "2",
						"type": "t_int256"
					}
				],
				"types": {
					"t_int256": {
						"encoding": "inplace",
						"label": "int256",
						"numberOfBytes": "32"
					}
				}
			},
			"userdoc": {
				"kind": "user",
				"methods": {},
				"version": 1
			}
		}
	}
}