{
	"Documents/GitHub/SOLIDITY-REMIX/5ef069451e67668750287d64bc5f8bae/calculadora.sol": {
		"Calculadora": {
			"abi": [
				{
					"inputs": [],
					"name": "a",
					"outputs": [
						{
							"internalType": "int256",
							"name": "",
							"type": "int256"
						}
					],
					"stateMutability": "view",
					"type": "function"
				},
				{
					"inputs": [],
					"name": "b",
					"outputs": [
						{
							"internalType": "int256",
							"name": "",
							"type": "int256"
						}
					],
					"stateMutability": "view",
					"type": "function"
				},
				{
					"inputs": [
						{
							"internalType": "int256",
							"name": "_a",
							"type": "int256"
						},
						{
							"internalType": "int256",
							"name": "_b",
							"type": "int256"
						}
					],
					"name": "division",
					"outputs": [
						{
							"internalType": "int256",
							"name": "",
							"type": "int256"
						}
					],
					"stateMutability": "pure",
					"type": "function"
				},
				{
					"inputs": [
						{
							"internalType": "int256",
							"name": "_a",
							"type": "int256"
						},
						{
							"internalType": "int256",
							"name": "_b",
							"type": "int256"
						}
					],
					"name": "multiplicacion",
					"outputs": [
						{
							"internalType": "int256",
							"name": "",
							"type": "int256"
						}
					],
					"stateMutability": "pure",
					"type": "function"
				},
				{
					"inputs": [
						{
							"internalType": "int256",
							"name": "_a",
							"type": "int256"
						},
						{
							"internalType": "int256",
							"name": "_b",
							"type": "int256"
						}
					],
					"name": "resta",
					"outputs": [
						{
							"internalType": "int256",
							"name": "",
							"type": "int256"
						}
					],
					"stateMutability": "pure",
					"type": "function"
				},
				{
					"inputs": [
						{
							"internalType": "int256",
							"name": "_a",
							"type": "int256"
						},
						{
							"internalType": "int256",
							"name": "_b",
							"type": "int256"
						}
					],
					"name": "suma",
					"outputs": [
						{
							"internalType": "int256",
							"name": "",
							"type": "int256"
						}
					],
					"stateMutability": "pure",
					"type": "function"
				}
			],
			"devdoc": {
				"kind": "dev",
				"methods": {},
				"version": 1
			},
			"evm": {
				"assembly": "    /* \"Documents/GitHub/SOLIDITY-REMIX/5ef069451e67668750287d64bc5f8bae/calculadora.sol\":68:1772  contract Calculadora {\r... */\n  mstore(0x40, 0x80)\n  callvalue\n  dup1\n  iszero\n  tag_1\n  jumpi\n  0x00\n  dup1\n  revert\ntag_1:\n  pop\n  dataSize(sub_0)\n  dup1\n  dataOffset(sub_0)\n  0x00\n  codecopy\n  0x00\n  return\nstop\n\nsub_0: assembly {\n        /* \"Documents/GitHub/SOLIDITY-REMIX/5ef069451e67668750287d64bc5f8bae/calculadora.sol\":68:1772  contract Calculadora {\r... */\n      mstore(0x40, 0x80)\n      callvalue\n      dup1\n      iszero\n      tag_1\n      jumpi\n      0x00\n      dup1\n      revert\n    tag_1:\n      pop\n      jumpi(tag_2, lt(calldatasize, 0x04))\n      shr(0xe0, calldataload(0x00))\n      dup1\n      0x09b7cdda\n      eq\n      tag_3\n      jumpi\n      dup1\n      0x0dbe671f\n      eq\n      tag_4\n      jumpi\n      dup1\n      0x187983bf\n      eq\n      tag_5\n      jumpi\n      dup1\n      0x4c627bad\n      eq\n      tag_6\n      jumpi\n      dup1\n      0x4df7e3d0\n      eq\n      tag_7\n      jumpi\n      dup1\n      0x8f8a0d19\n      eq\n      tag_8\n      jumpi\n    tag_2:\n      0x00\n      dup1\n      revert\n        /* \"Documents/GitHub/SOLIDITY-REMIX/5ef069451e67668750287d64bc5f8bae/calculadora.sol\":438:531  function division(int _a,int _b) public pure returns(int) {\r... */\n    tag_3:\n      tag_9\n      0x04\n      dup1\n      calldatasize\n      sub\n      dup2\n      add\n      swap1\n      tag_10\n      swap2\n      swap1\n      tag_11\n      jump\t// in\n    tag_10:\n      tag_12\n      jump\t// in\n    tag_9:\n      mload(0x40)\n      tag_13\n      swap2\n      swap1\n      tag_14\n      jump\t// in\n    tag_13:\n      mload(0x40)\n      dup1\n      swap2\n      sub\n      swap1\n      return\n        /* \"Documents/GitHub/SOLIDITY-REMIX/5ef069451e67668750287d64bc5f8bae/calculadora.sol\":96:108  int public a */\n    tag_4:\n      tag_15\n      tag_16\n      jump\t// in\n    tag_15:\n      mload(0x40)\n      tag_17\n      swap2\n      swap1\n      tag_14\n      jump\t// in\n    tag_17:\n      mload(0x40)\n      dup1\n      swap2\n      sub\n      swap1\n      return\n        /* \"Documents/GitHub/SOLIDITY-REMIX/5ef069451e67668750287d64bc5f8bae/calculadora.sol\":331:430  function multiplicacion(int _a,int _b) public pure returns(int) {\r... */\n    tag_5:\n      tag_18\n      0x04\n      dup1\n      calldatasize\n      sub\n      dup2\n      add\n      swap1\n      tag_19\n      swap2\n      swap1\n      tag_11\n      jump\t// in\n    tag_19:\n      tag_20\n      jump\t// in\n    tag_18:\n      mload(0x40)\n      tag_21\n      swap2\n      swap1\n      tag_14\n      jump\t// in\n    tag_21:\n      mload(0x40)\n      dup1\n      swap2\n      sub\n      swap1\n      return\n        /* \"Documents/GitHub/SOLIDITY-REMIX/5ef069451e67668750287d64bc5f8bae/calculadora.sol\":233:323  function resta(int _a,int _b) public pure returns(int) {\r... */\n    tag_6:\n      tag_22\n      0x04\n      dup1\n      calldatasize\n      sub\n      dup2\n      add\n      swap1\n      tag_23\n      swap2\n      swap1\n      tag_11\n      jump\t// in\n    tag_23:\n      tag_24\n      jump\t// in\n    tag_22:\n      mload(0x40)\n      tag_25\n      swap2\n      swap1\n      tag_14\n      jump\t// in\n    tag_25:\n      mload(0x40)\n      dup1\n      swap2\n      sub\n      swap1\n      return\n        /* \"Documents/GitHub/SOLIDITY-REMIX/5ef069451e67668750287d64bc5f8bae/calculadora.sol\":115:127  int public b */\n    tag_7:\n      tag_26\n      tag_27\n      jump\t// in\n    tag_26:\n      mload(0x40)\n      tag_28\n      swap2\n      swap1\n      tag_14\n      jump\t// in\n    tag_28:\n      mload(0x40)\n      dup1\n      swap2\n      sub\n      swap1\n      return\n        /* \"Documents/GitHub/SOLIDITY-REMIX/5ef069451e67668750287d64bc5f8bae/calculadora.sol\":136:225  function suma(int _a,int _b) public pure returns(int) {\r... */\n    tag_8:\n      tag_29\n      0x04\n      dup1\n      calldatasize\n      sub\n      dup2\n      add\n      swap1\n      tag_30\n      swap2\n      swap1\n      tag_11\n      jump\t// in\n    tag_30:\n      tag_31\n      jump\t// in\n    tag_29:\n      mload(0x40)\n      tag_32\n      swap2\n      swap1\n      tag_14\n      jump\t// in\n    tag_32:\n      mload(0x40)\n      dup1\n      swap2\n      sub\n      swap1\n      return\n        /* \"Documents/GitHub/SOLIDITY-REMIX/5ef069451e67668750287d64bc5f8bae/calculadora.sol\":438:531  function division(int _a,int _b) public pure returns(int) {\r... */\n    tag_12:\n        /* \"Documents/GitHub/SOLIDITY-REMIX/5ef069451e67668750287d64bc5f8bae/calculadora.sol\":491:494  int */\n      0x00\n        /* \"Documents/GitHub/SOLIDITY-REMIX/5ef069451e67668750287d64bc5f8bae/calculadora.sol\":520:522  _b */\n      dup2\n        /* \"Documents/GitHub/SOLIDITY-REMIX/5ef069451e67668750287d64bc5f8bae/calculadora.sol\":515:517  _a */\n      dup4\n        /* \"Documents/GitHub/SOLIDITY-REMIX/5ef069451e67668750287d64bc5f8bae/calculadora.sol\":515:522  _a / _b */\n      tag_34\n      swap2\n      swap1\n      tag_35\n      jump\t// in\n    tag_34:\n        /* \"Documents/GitHub/SOLIDITY-REMIX/5ef069451e67668750287d64bc5f8bae/calculadora.sol\":507:523  return (_a / _b) */\n      swap1\n      pop\n        /* \"Documents/GitHub/SOLIDITY-REMIX/5ef069451e67668750287d64bc5f8bae/calculadora.sol\":438:531  function division(int _a,int _b) public pure returns(int) {\r... */\n      swap3\n      swap2\n      pop\n      pop\n      jump\t// out\n        /* \"Documents/GitHub/SOLIDITY-REMIX/5ef069451e67668750287d64bc5f8bae/calculadora.sol\":96:108  int public a */\n    tag_16:\n      sload(0x00)\n      dup2\n      jump\t// out\n        /* \"Documents/GitHub/SOLIDITY-REMIX/5ef069451e67668750287d64bc5f8bae/calculadora.sol\":331:430  function multiplicacion(int _a,int _b) public pure returns(int) {\r... */\n    tag_20:\n        /* \"Documents/GitHub/SOLIDITY-REMIX/5ef069451e67668750287d64bc5f8bae/calculadora.sol\":390:393  int */\n      0x00\n        /* \"Documents/GitHub/SOLIDITY-REMIX/5ef069451e67668750287d64bc5f8bae/calculadora.sol\":419:421  _b */\n      dup2\n        /* \"Documents/GitHub/SOLIDITY-REMIX/5ef069451e67668750287d64bc5f8bae/calculadora.sol\":414:416  _a */\n      dup4\n        /* \"Documents/GitHub/SOLIDITY-REMIX/5ef069451e67668750287d64bc5f8bae/calculadora.sol\":414:421  _a * _b */\n      tag_37\n      swap2\n      swap1\n      tag_38\n      jump\t// in\n    tag_37:\n        /* \"Documents/GitHub/SOLIDITY-REMIX/5ef069451e67668750287d64bc5f8bae/calculadora.sol\":406:422  return (_a * _b) */\n      swap1\n      pop\n        /* \"Documents/GitHub/SOLIDITY-REMIX/5ef069451e67668750287d64bc5f8bae/calculadora.sol\":331:430  function multiplicacion(int _a,int _b) public pure returns(int) {\r... */\n      swap3\n      swap2\n      pop\n      pop\n      jump\t// out\n        /* \"Documents/GitHub/SOLIDITY-REMIX/5ef069451e67668750287d64bc5f8bae/calculadora.sol\":233:323  function resta(int _a,int _b) public pure returns(int) {\r... */\n    tag_24:\n        /* \"Documents/GitHub/SOLIDITY-REMIX/5ef069451e67668750287d64bc5f8bae/calculadora.sol\":283:286  int */\n      0x00\n        /* \"Documents/GitHub/SOLIDITY-REMIX/5ef069451e67668750287d64bc5f8bae/calculadora.sol\":312:314  _b */\n      dup2\n        /* \"Documents/GitHub/SOLIDITY-REMIX/5ef069451e67668750287d64bc5f8bae/calculadora.sol\":307:309  _a */\n      dup4\n        /* \"Documents/GitHub/SOLIDITY-REMIX/5ef069451e67668750287d64bc5f8bae/calculadora.sol\":307:314  _a - _b */\n      tag_40\n      swap2\n      swap1\n      tag_41\n      jump\t// in\n    tag_40:\n        /* \"Documents/GitHub/SOLIDITY-REMIX/5ef069451e67668750287d64bc5f8bae/calculadora.sol\":299:315  return (_a - _b) */\n      swap1\n      pop\n        /* \"Documents/GitHub/SOLIDITY-REMIX/5ef069451e67668750287d64bc5f8bae/calculadora.sol\":233:323  function resta(int _a,int _b) public pure returns(int) {\r... */\n      swap3\n      swap2\n      pop\n      pop\n      jump\t// out\n        /* \"Documents/GitHub/SOLIDITY-REMIX/5ef069451e67668750287d64bc5f8bae/calculadora.sol\":115:127  int public b */\n    tag_27:\n      sload(0x01)\n      dup2\n      jump\t// out\n        /* \"Documents/GitHub/SOLIDITY-REMIX/5ef069451e67668750287d64bc5f8bae/calculadora.sol\":136:225  function suma(int _a,int _b) public pure returns(int) {\r... */\n    tag_31:\n        /* \"Documents/GitHub/SOLIDITY-REMIX/5ef069451e67668750287d64bc5f8bae/calculadora.sol\":185:188  int */\n      0x00\n        /* \"Documents/GitHub/SOLIDITY-REMIX/5ef069451e67668750287d64bc5f8bae/calculadora.sol\":214:216  _b */\n      dup2\n        /* \"Documents/GitHub/SOLIDITY-REMIX/5ef069451e67668750287d64bc5f8bae/calculadora.sol\":209:211  _a */\n      dup4\n        /* \"Documents/GitHub/SOLIDITY-REMIX/5ef069451e67668750287d64bc5f8bae/calculadora.sol\":209:216  _a + _b */\n      tag_43\n      swap2\n      swap1\n      tag_44\n      jump\t// in\n    tag_43:\n        /* \"Documents/GitHub/SOLIDITY-REMIX/5ef069451e67668750287d64bc5f8bae/calculadora.sol\":201:217  return (_a + _b) */\n      swap1\n      pop\n        /* \"Documents/GitHub/SOLIDITY-REMIX/5ef069451e67668750287d64bc5f8bae/calculadora.sol\":136:225  function suma(int _a,int _b) public pure returns(int) {\r... */\n      swap3\n      swap2\n      pop\n      pop\n      jump\t// out\n        /* \"#utility.yul\":7:144   */\n    tag_46:\n        /* \"#utility.yul\":52:57   */\n      0x00\n        /* \"#utility.yul\":90:96   */\n      dup2\n        /* \"#utility.yul\":77:97   */\n      calldataload\n        /* \"#utility.yul\":68:97   */\n      swap1\n      pop\n        /* \"#utility.yul\":106:138   */\n      tag_48\n        /* \"#utility.yul\":132:137   */\n      dup2\n        /* \"#utility.yul\":106:138   */\n      tag_49\n      jump\t// in\n    tag_48:\n        /* \"#utility.yul\":7:144   */\n      swap3\n      swap2\n      pop\n      pop\n      jump\t// out\n        /* \"#utility.yul\":150:620   */\n    tag_11:\n        /* \"#utility.yul\":216:222   */\n      0x00\n        /* \"#utility.yul\":224:230   */\n      dup1\n        /* \"#utility.yul\":273:275   */\n      0x40\n        /* \"#utility.yul\":261:270   */\n      dup4\n        /* \"#utility.yul\":252:259   */\n      dup6\n        /* \"#utility.yul\":248:271   */\n      sub\n        /* \"#utility.yul\":244:276   */\n      slt\n        /* \"#utility.yul\":241:360   */\n      iszero\n      tag_51\n      jumpi\n        /* \"#utility.yul\":279:358   */\n      tag_52\n      tag_53\n      jump\t// in\n    tag_52:\n        /* \"#utility.yul\":241:360   */\n    tag_51:\n        /* \"#utility.yul\":399:400   */\n      0x00\n        /* \"#utility.yul\":424:476   */\n      tag_54\n        /* \"#utility.yul\":468:475   */\n      dup6\n        /* \"#utility.yul\":459:465   */\n      dup3\n        /* \"#utility.yul\":448:457   */\n      dup7\n        /* \"#utility.yul\":444:466   */\n      add\n        /* \"#utility.yul\":424:476   */\n      tag_46\n      jump\t// in\n    tag_54:\n        /* \"#utility.yul\":414:476   */\n      swap3\n      pop\n        /* \"#utility.yul\":370:486   */\n      pop\n        /* \"#utility.yul\":525:527   */\n      0x20\n        /* \"#utility.yul\":551:603   */\n      tag_55\n        /* \"#utility.yul\":595:602   */\n      dup6\n        /* \"#utility.yul\":586:592   */\n      dup3\n        /* \"#utility.yul\":575:584   */\n      dup7\n        /* \"#utility.yul\":571:593   */\n      add\n        /* \"#utility.yul\":551:603   */\n      tag_46\n      jump\t// in\n    tag_55:\n        /* \"#utility.yul\":541:603   */\n      swap2\n      pop\n        /* \"#utility.yul\":496:613   */\n      pop\n        /* \"#utility.yul\":150:620   */\n      swap3\n      pop\n      swap3\n      swap1\n      pop\n      jump\t// out\n        /* \"#utility.yul\":626:741   */\n    tag_56:\n        /* \"#utility.yul\":711:734   */\n      tag_58\n        /* \"#utility.yul\":728:733   */\n      dup2\n        /* \"#utility.yul\":711:734   */\n      tag_59\n      jump\t// in\n    tag_58:\n        /* \"#utility.yul\":706:709   */\n      dup3\n        /* \"#utility.yul\":699:735   */\n      mstore\n        /* \"#utility.yul\":626:741   */\n      pop\n      pop\n      jump\t// out\n        /* \"#utility.yul\":747:965   */\n    tag_14:\n        /* \"#utility.yul\":838:842   */\n      0x00\n        /* \"#utility.yul\":876:878   */\n      0x20\n        /* \"#utility.yul\":865:874   */\n      dup3\n        /* \"#utility.yul\":861:879   */\n      add\n        /* \"#utility.yul\":853:879   */\n      swap1\n      pop\n        /* \"#utility.yul\":889:958   */\n      tag_61\n        /* \"#utility.yul\":955:956   */\n      0x00\n        /* \"#utility.yul\":944:953   */\n      dup4\n        /* \"#utility.yul\":940:957   */\n      add\n        /* \"#utility.yul\":931:937   */\n      dup5\n        /* \"#utility.yul\":889:958   */\n      tag_56\n      jump\t// in\n    tag_61:\n        /* \"#utility.yul\":747:965   */\n      swap3\n      swap2\n      pop\n      pop\n      jump\t// out\n        /* \"#utility.yul\":1052:1577   */\n    tag_44:\n        /* \"#utility.yul\":1091:1094   */\n      0x00\n        /* \"#utility.yul\":1110:1129   */\n      tag_65\n        /* \"#utility.yul\":1127:1128   */\n      dup3\n        /* \"#utility.yul\":1110:1129   */\n      tag_59\n      jump\t// in\n    tag_65:\n        /* \"#utility.yul\":1105:1129   */\n      swap2\n      pop\n        /* \"#utility.yul\":1143:1162   */\n      tag_66\n        /* \"#utility.yul\":1160:1161   */\n      dup4\n        /* \"#utility.yul\":1143:1162   */\n      tag_59\n      jump\t// in\n    tag_66:\n        /* \"#utility.yul\":1138:1162   */\n      swap3\n      pop\n        /* \"#utility.yul\":1331:1332   */\n      dup2\n        /* \"#utility.yul\":1263:1329   */\n      0x7fffffffffffffffffffffffffffffffffffffffffffffffffffffffffffffff\n        /* \"#utility.yul\":1259:1333   */\n      sub\n        /* \"#utility.yul\":1256:1257   */\n      dup4\n        /* \"#utility.yul\":1252:1334   */\n      sgt\n        /* \"#utility.yul\":1247:1248   */\n      0x00\n        /* \"#utility.yul\":1244:1245   */\n      dup4\n        /* \"#utility.yul\":1240:1249   */\n      slt\n        /* \"#utility.yul\":1233:1250   */\n      iszero\n        /* \"#utility.yul\":1229:1335   */\n      and\n        /* \"#utility.yul\":1226:1358   */\n      iszero\n      tag_67\n      jumpi\n        /* \"#utility.yul\":1338:1356   */\n      tag_68\n      tag_69\n      jump\t// in\n    tag_68:\n        /* \"#utility.yul\":1226:1358   */\n    tag_67:\n        /* \"#utility.yul\":1518:1519   */\n      dup2\n        /* \"#utility.yul\":1450:1516   */\n      0x8000000000000000000000000000000000000000000000000000000000000000\n        /* \"#utility.yul\":1446:1520   */\n      sub\n        /* \"#utility.yul\":1443:1444   */\n      dup4\n        /* \"#utility.yul\":1439:1521   */\n      slt\n        /* \"#utility.yul\":1435:1436   */\n      0x00\n        /* \"#utility.yul\":1432:1433   */\n      dup4\n        /* \"#utility.yul\":1428:1437   */\n      slt\n        /* \"#utility.yul\":1424:1522   */\n      and\n        /* \"#utility.yul\":1421:1545   */\n      iszero\n      tag_70\n      jumpi\n        /* \"#utility.yul\":1525:1543   */\n      tag_71\n      tag_69\n      jump\t// in\n    tag_71:\n        /* \"#utility.yul\":1421:1545   */\n    tag_70:\n        /* \"#utility.yul\":1569:1570   */\n      dup3\n        /* \"#utility.yul\":1566:1567   */\n      dup3\n        /* \"#utility.yul\":1562:1571   */\n      add\n        /* \"#utility.yul\":1555:1571   */\n      swap1\n      pop\n        /* \"#utility.yul\":1052:1577   */\n      swap3\n      swap2\n      pop\n      pop\n      jump\t// out\n        /* \"#utility.yul\":1583:1968   */\n    tag_35:\n        /* \"#utility.yul\":1622:1623   */\n      0x00\n        /* \"#utility.yul\":1639:1658   */\n      tag_73\n        /* \"#utility.yul\":1656:1657   */\n      dup3\n        /* \"#utility.yul\":1639:1658   */\n      tag_59\n      jump\t// in\n    tag_73:\n        /* \"#utility.yul\":1634:1658   */\n      swap2\n      pop\n        /* \"#utility.yul\":1672:1691   */\n      tag_74\n        /* \"#utility.yul\":1689:1690   */\n      dup4\n        /* \"#utility.yul\":1672:1691   */\n      tag_59\n      jump\t// in\n    tag_74:\n        /* \"#utility.yul\":1667:1691   */\n      swap3\n      pop\n        /* \"#utility.yul\":1710:1711   */\n      dup3\n        /* \"#utility.yul\":1700:1735   */\n      tag_75\n      jumpi\n        /* \"#utility.yul\":1715:1733   */\n      tag_76\n      tag_77\n      jump\t// in\n    tag_76:\n        /* \"#utility.yul\":1700:1735   */\n    tag_75:\n        /* \"#utility.yul\":1901:1902   */\n      0x01\n        /* \"#utility.yul\":1898:1899   */\n      0x00\n        /* \"#utility.yul\":1894:1903   */\n      sub\n        /* \"#utility.yul\":1891:1892   */\n      dup4\n        /* \"#utility.yul\":1888:1904   */\n      eq\n        /* \"#utility.yul\":1807:1873   */\n      0x8000000000000000000000000000000000000000000000000000000000000000\n        /* \"#utility.yul\":1804:1805   */\n      dup4\n        /* \"#utility.yul\":1801:1874   */\n      eq\n        /* \"#utility.yul\":1784:1914   */\n      and\n        /* \"#utility.yul\":1781:1937   */\n      iszero\n      tag_78\n      jumpi\n        /* \"#utility.yul\":1917:1935   */\n      tag_79\n      tag_69\n      jump\t// in\n    tag_79:\n        /* \"#utility.yul\":1781:1937   */\n    tag_78:\n        /* \"#utility.yul\":1960:1961   */\n      dup3\n        /* \"#utility.yul\":1957:1958   */\n      dup3\n        /* \"#utility.yul\":1952:1962   */\n      sdiv\n        /* \"#utility.yul\":1947:1962   */\n      swap1\n      pop\n        /* \"#utility.yul\":1583:1968   */\n      swap3\n      swap2\n      pop\n      pop\n      jump\t// out\n        /* \"#utility.yul\":1974:2965   */\n    tag_38:\n        /* \"#utility.yul\":2013:2020   */\n      0x00\n        /* \"#utility.yul\":2036:2055   */\n      tag_81\n        /* \"#utility.yul\":2053:2054   */\n      dup3\n        /* \"#utility.yul\":2036:2055   */\n      tag_59\n      jump\t// in\n    tag_81:\n        /* \"#utility.yul\":2031:2055   */\n      swap2\n      pop\n        /* \"#utility.yul\":2069:2088   */\n      tag_82\n        /* \"#utility.yul\":2086:2087   */\n      dup4\n        /* \"#utility.yul\":2069:2088   */\n      tag_59\n      jump\t// in\n    tag_82:\n        /* \"#utility.yul\":2064:2088   */\n      swap3\n      pop\n        /* \"#utility.yul\":2270:2271   */\n      dup3\n        /* \"#utility.yul\":2202:2268   */\n      0x7fffffffffffffffffffffffffffffffffffffffffffffffffffffffffffffff\n        /* \"#utility.yul\":2198:2272   */\n      div\n        /* \"#utility.yul\":2195:2196   */\n      dup3\n        /* \"#utility.yul\":2192:2273   */\n      gt\n        /* \"#utility.yul\":2187:2188   */\n      0x00\n        /* \"#utility.yul\":2184:2185   */\n      dup5\n        /* \"#utility.yul\":2180:2189   */\n      sgt\n        /* \"#utility.yul\":2176:2177   */\n      0x00\n        /* \"#utility.yul\":2173:2174   */\n      dup5\n        /* \"#utility.yul\":2169:2178   */\n      sgt\n        /* \"#utility.yul\":2165:2190   */\n      and\n        /* \"#utility.yul\":2161:2274   */\n      and\n        /* \"#utility.yul\":2158:2297   */\n      iszero\n      tag_83\n      jumpi\n        /* \"#utility.yul\":2277:2295   */\n      tag_84\n      tag_69\n      jump\t// in\n    tag_84:\n        /* \"#utility.yul\":2158:2297   */\n    tag_83:\n        /* \"#utility.yul\":2481:2482   */\n      dup2\n        /* \"#utility.yul\":2413:2479   */\n      0x8000000000000000000000000000000000000000000000000000000000000000\n        /* \"#utility.yul\":2408:2483   */\n      sdiv\n        /* \"#utility.yul\":2405:2406   */\n      dup4\n        /* \"#utility.yul\":2401:2484   */\n      slt\n        /* \"#utility.yul\":2396:2397   */\n      0x00\n        /* \"#utility.yul\":2393:2394   */\n      dup5\n        /* \"#utility.yul\":2389:2398   */\n      slt\n        /* \"#utility.yul\":2385:2386   */\n      0x00\n        /* \"#utility.yul\":2382:2383   */\n      dup5\n        /* \"#utility.yul\":2378:2387   */\n      sgt\n        /* \"#utility.yul\":2374:2399   */\n      and\n        /* \"#utility.yul\":2370:2485   */\n      and\n        /* \"#utility.yul\":2367:2508   */\n      iszero\n      tag_85\n      jumpi\n        /* \"#utility.yul\":2488:2506   */\n      tag_86\n      tag_69\n      jump\t// in\n    tag_86:\n        /* \"#utility.yul\":2367:2508   */\n    tag_85:\n        /* \"#utility.yul\":2692:2693   */\n      dup3\n        /* \"#utility.yul\":2624:2690   */\n      0x8000000000000000000000000000000000000000000000000000000000000000\n        /* \"#utility.yul\":2619:2694   */\n      sdiv\n        /* \"#utility.yul\":2616:2617   */\n      dup3\n        /* \"#utility.yul\":2612:2695   */\n      slt\n        /* \"#utility.yul\":2607:2608   */\n      0x00\n        /* \"#utility.yul\":2604:2605   */\n      dup5\n        /* \"#utility.yul\":2600:2609   */\n      sgt\n        /* \"#utility.yul\":2596:2597   */\n      0x00\n        /* \"#utility.yul\":2593:2594   */\n      dup5\n        /* \"#utility.yul\":2589:2598   */\n      slt\n        /* \"#utility.yul\":2585:2610   */\n      and\n        /* \"#utility.yul\":2581:2696   */\n      and\n        /* \"#utility.yul\":2578:2719   */\n      iszero\n      tag_87\n      jumpi\n        /* \"#utility.yul\":2699:2717   */\n      tag_88\n      tag_69\n      jump\t// in\n    tag_88:\n        /* \"#utility.yul\":2578:2719   */\n    tag_87:\n        /* \"#utility.yul\":2902:2903   */\n      dup3\n        /* \"#utility.yul\":2834:2900   */\n      0x7fffffffffffffffffffffffffffffffffffffffffffffffffffffffffffffff\n        /* \"#utility.yul\":2829:2904   */\n      sdiv\n        /* \"#utility.yul\":2826:2827   */\n      dup3\n        /* \"#utility.yul\":2822:2905   */\n      slt\n        /* \"#utility.yul\":2817:2818   */\n      0x00\n        /* \"#utility.yul\":2814:2815   */\n      dup5\n        /* \"#utility.yul\":2810:2819   */\n      slt\n        /* \"#utility.yul\":2806:2807   */\n      0x00\n        /* \"#utility.yul\":2803:2804   */\n      dup5\n        /* \"#utility.yul\":2799:2808   */\n      slt\n        /* \"#utility.yul\":2795:2820   */\n      and\n        /* \"#utility.yul\":2791:2906   */\n      and\n        /* \"#utility.yul\":2788:2929   */\n      iszero\n      tag_89\n      jumpi\n        /* \"#utility.yul\":2909:2927   */\n      tag_90\n      tag_69\n      jump\t// in\n    tag_90:\n        /* \"#utility.yul\":2788:2929   */\n    tag_89:\n        /* \"#utility.yul\":2957:2958   */\n      dup3\n        /* \"#utility.yul\":2954:2955   */\n      dup3\n        /* \"#utility.yul\":2950:2959   */\n      mul\n        /* \"#utility.yul\":2939:2959   */\n      swap1\n      pop\n        /* \"#utility.yul\":1974:2965   */\n      swap3\n      swap2\n      pop\n      pop\n      jump\t// out\n        /* \"#utility.yul\":2971:3498   */\n    tag_41:\n        /* \"#utility.yul\":3010:3014   */\n      0x00\n        /* \"#utility.yul\":3030:3049   */\n      tag_92\n        /* \"#utility.yul\":3047:3048   */\n      dup3\n        /* \"#utility.yul\":3030:3049   */\n      tag_59\n      jump\t// in\n    tag_92:\n        /* \"#utility.yul\":3025:3049   */\n      swap2\n      pop\n        /* \"#utility.yul\":3063:3082   */\n      tag_93\n        /* \"#utility.yul\":3080:3081   */\n      dup4\n        /* \"#utility.yul\":3063:3082   */\n      tag_59\n      jump\t// in\n    tag_93:\n        /* \"#utility.yul\":3058:3082   */\n      swap3\n      pop\n        /* \"#utility.yul\":3252:3253   */\n      dup3\n        /* \"#utility.yul\":3184:3250   */\n      0x8000000000000000000000000000000000000000000000000000000000000000\n        /* \"#utility.yul\":3180:3254   */\n      add\n        /* \"#utility.yul\":3177:3178   */\n      dup3\n        /* \"#utility.yul\":3173:3255   */\n      slt\n        /* \"#utility.yul\":3168:3169   */\n      0x00\n        /* \"#utility.yul\":3165:3166   */\n      dup5\n        /* \"#utility.yul\":3161:3170   */\n      slt\n        /* \"#utility.yul\":3154:3171   */\n      iszero\n        /* \"#utility.yul\":3150:3256   */\n      and\n        /* \"#utility.yul\":3147:3279   */\n      iszero\n      tag_94\n      jumpi\n        /* \"#utility.yul\":3259:3277   */\n      tag_95\n      tag_69\n      jump\t// in\n    tag_95:\n        /* \"#utility.yul\":3147:3279   */\n    tag_94:\n        /* \"#utility.yul\":3438:3439   */\n      dup3\n        /* \"#utility.yul\":3370:3436   */\n      0x7fffffffffffffffffffffffffffffffffffffffffffffffffffffffffffffff\n        /* \"#utility.yul\":3366:3440   */\n      add\n        /* \"#utility.yul\":3363:3364   */\n      dup3\n        /* \"#utility.yul\":3359:3441   */\n      sgt\n        /* \"#utility.yul\":3355:3356   */\n      0x00\n        /* \"#utility.yul\":3352:3353   */\n      dup5\n        /* \"#utility.yul\":3348:3357   */\n      slt\n        /* \"#utility.yul\":3344:3442   */\n      and\n        /* \"#utility.yul\":3341:3465   */\n      iszero\n      tag_96\n      jumpi\n        /* \"#utility.yul\":3445:3463   */\n      tag_97\n      tag_69\n      jump\t// in\n    tag_97:\n        /* \"#utility.yul\":3341:3465   */\n    tag_96:\n        /* \"#utility.yul\":3490:3491   */\n      dup3\n        /* \"#utility.yul\":3487:3488   */\n      dup3\n        /* \"#utility.yul\":3483:3492   */\n      sub\n        /* \"#utility.yul\":3475:3492   */\n      swap1\n      pop\n        /* \"#utility.yul\":2971:3498   */\n      swap3\n      swap2\n      pop\n      pop\n      jump\t// out\n        /* \"#utility.yul\":3504:3580   */\n    tag_59:\n        /* \"#utility.yul\":3540:3547   */\n      0x00\n        /* \"#utility.yul\":3569:3574   */\n      dup2\n        /* \"#utility.yul\":3558:3574   */\n      swap1\n      pop\n        /* \"#utility.yul\":3504:3580   */\n      swap2\n      swap1\n      pop\n      jump\t// out\n        /* \"#utility.yul\":3586:3766   */\n    tag_69:\n        /* \"#utility.yul\":3634:3711   */\n      0x4e487b7100000000000000000000000000000000000000000000000000000000\n        /* \"#utility.yul\":3631:3632   */\n      0x00\n        /* \"#utility.yul\":3624:3712   */\n      mstore\n        /* \"#utility.yul\":3731:3735   */\n      0x11\n        /* \"#utility.yul\":3728:3729   */\n      0x04\n        /* \"#utility.yul\":3721:3736   */\n      mstore\n        /* \"#utility.yul\":3755:3759   */\n      0x24\n        /* \"#utility.yul\":3752:3753   */\n      0x00\n        /* \"#utility.yul\":3745:3760   */\n      revert\n        /* \"#utility.yul\":3772:3952   */\n    tag_77:\n        /* \"#utility.yul\":3820:3897   */\n      0x4e487b7100000000000000000000000000000000000000000000000000000000\n        /* \"#utility.yul\":3817:3818   */\n      0x00\n        /* \"#utility.yul\":3810:3898   */\n      mstore\n        /* \"#utility.yul\":3917:3921   */\n      0x12\n        /* \"#utility.yul\":3914:3915   */\n      0x04\n        /* \"#utility.yul\":3907:3922   */\n      mstore\n        /* \"#utility.yul\":3941:3945   */\n      0x24\n        /* \"#utility.yul\":3938:3939   */\n      0x00\n        /* \"#utility.yul\":3931:3946   */\n      revert\n        /* \"#utility.yul\":4081:4198   */\n    tag_53:\n        /* \"#utility.yul\":4190:4191   */\n      0x00\n        /* \"#utility.yul\":4187:4188   */\n      dup1\n        /* \"#utility.yul\":4180:4192   */\n      revert\n        /* \"#utility.yul\":4204:4324   */\n    tag_49:\n        /* \"#utility.yul\":4276:4299   */\n      tag_105\n        /* \"#utility.yul\":4293:4298   */\n      dup2\n        /* \"#utility.yul\":4276:4299   */\n      tag_59\n      jump\t// in\n    tag_105:\n        /* \"#utility.yul\":4269:4274   */\n      dup2\n        /* \"#utility.yul\":4266:4300   */\n      eq\n        /* \"#utility.yul\":4256:4318   */\n      tag_106\n      jumpi\n        /* \"#utility.yul\":4314:4315   */\n      0x00\n        /* \"#utility.yul\":4311:4312   */\n      dup1\n        /* \"#utility.yul\":4304:4316   */\n      revert\n        /* \"#utility.yul\":4256:4318   */\n    tag_106:\n        /* \"#utility.yul\":4204:4324   */\n      pop\n      jump\t// out\n\n    auxdata: 0xa2646970667358221220adee0334a5f70c40aa6f2530ef6bdaa0f8bfaabe8f855c9009b42cf7d878e6c564736f6c63430008070033\n}\n",
				"bytecode": {
					"linkReferences": {},
					"object": "608060405234801561001057600080fd5b506105a9806100206000396000f3fe608060405234801561001057600080fd5b50600436106100625760003560e01c806309b7cdda146100675780630dbe671f14610097578063187983bf146100b55780634c627bad146100e55780634df7e3d0146101155780638f8a0d1914610133575b600080fd5b610081600480360381019061007c91906101dc565b610163565b60405161008e919061022b565b60405180910390f35b61009f610179565b6040516100ac919061022b565b60405180910390f35b6100cf60048036038101906100ca91906101dc565b61017f565b6040516100dc919061022b565b60405180910390f35b6100ff60048036038101906100fa91906101dc565b610195565b60405161010c919061022b565b60405180910390f35b61011d6101ab565b60405161012a919061022b565b60405180910390f35b61014d600480360381019061014891906101dc565b6101b1565b60405161015a919061022b565b60405180910390f35b6000818361017191906102da565b905092915050565b60005481565b6000818361018d9190610344565b905092915050565b600081836101a3919061045b565b905092915050565b60015481565b600081836101bf9190610246565b905092915050565b6000813590506101d68161055c565b92915050565b600080604083850312156101f3576101f2610557565b5b6000610201858286016101c7565b9250506020610212858286016101c7565b9150509250929050565b610225816104ef565b82525050565b6000602082019050610240600083018461021c565b92915050565b6000610251826104ef565b915061025c836104ef565b9250817f7fffffffffffffffffffffffffffffffffffffffffffffffffffffffffffffff03831360008312151615610297576102966104f9565b5b817f80000000000000000000000000000000000000000000000000000000000000000383126000831216156102cf576102ce6104f9565b5b828201905092915050565b60006102e5826104ef565b91506102f0836104ef565b925082610300576102ff610528565b5b600160000383147f800000000000000000000000000000000000000000000000000000000000000083141615610339576103386104f9565b5b828205905092915050565b600061034f826104ef565b915061035a836104ef565b9250827f7fffffffffffffffffffffffffffffffffffffffffffffffffffffffffffffff0482116000841360008413161615610399576103986104f9565b5b817f800000000000000000000000000000000000000000000000000000000000000005831260008412600084131616156103d6576103d56104f9565b5b827f80000000000000000000000000000000000000000000000000000000000000000582126000841360008412161615610413576104126104f9565b5b827f7fffffffffffffffffffffffffffffffffffffffffffffffffffffffffffffff05821260008412600084121616156104505761044f6104f9565b5b828202905092915050565b6000610466826104ef565b9150610471836104ef565b9250827f8000000000000000000000000000000000000000000000000000000000000000018212600084121516156104ac576104ab6104f9565b5b827f7fffffffffffffffffffffffffffffffffffffffffffffffffffffffffffffff0182136000841216156104e4576104e36104f9565b5b828203905092915050565b6000819050919050565b7f4e487b7100000000000000000000000000000000000000000000000000000000600052601160045260246000fd5b7f4e487b7100000000000000000000000000000000000000000000000000000000600052601260045260246000fd5b600080fd5b610565816104ef565b811461057057600080fd5b5056fea2646970667358221220adee0334a5f70c40aa6f2530ef6bdaa0f8bfaabe8f855c9009b42cf7d878e6c564736f6c63430008070033",
					"opcodes": "PUSH1 0x80 PUSH1 0x40 MSTORE CALLVALUE DUP1 ISZERO PUSH2 0x10 JUMPI PUSH1 0x0 DUP1 REVERT JUMPDEST POP PUSH2 0x5A9 DUP1 PUSH2 0x20 PUSH1 0x0 CODECOPY PUSH1 0x0 RETURN INVALID PUSH1 0x80 PUSH1 0x40 MSTORE CALLVALUE DUP1 ISZERO PUSH2 0x10 JUMPI PUSH1 0x0 DUP1 REVERT JUMPDEST POP PUSH1 0x4 CALLDATASIZE LT PUSH2 0x62 JUMPI PUSH1 0x0 CALLDATALOAD PUSH1 0xE0 SHR DUP1 PUSH4 0x9B7CDDA EQ PUSH2 0x67 JUMPI DUP1 PUSH4 0xDBE671F EQ PUSH2 0x97 JUMPI DUP1 PUSH4 0x187983BF EQ PUSH2 0xB5 JUMPI DUP1 PUSH4 0x4C627BAD EQ PUSH2 0xE5 JUMPI DUP1 PUSH4 0x4DF7E3D0 EQ PUSH2 0x115 JUMPI DUP1 PUSH4 0x8F8A0D19 EQ PUSH2 0x133 JUMPI JUMPDEST PUSH1 0x0 DUP1 REVERT JUMPDEST PUSH2 0x81 PUSH1 0x4 DUP1 CALLDATASIZE SUB DUP2 ADD SWAP1 PUSH2 0x7C SWAP2 SWAP1 PUSH2 0x1DC JUMP JUMPDEST PUSH2 0x163 JUMP JUMPDEST PUSH1 0x40 MLOAD PUSH2 0x8E SWAP2 SWAP1 PUSH2 0x22B JUMP JUMPDEST PUSH1 0x40 MLOAD DUP1 SWAP2 SUB SWAP1 RETURN JUMPDEST PUSH2 0x9F PUSH2 0x179 JUMP JUMPDEST PUSH1 0x40 MLOAD PUSH2 0xAC SWAP2 SWAP1 PUSH2 0x22B JUMP JUMPDEST PUSH1 0x40 MLOAD DUP1 SWAP2 SUB SWAP1 RETURN JUMPDEST PUSH2 0xCF PUSH1 0x4 DUP1 CALLDATASIZE SUB DUP2 ADD SWAP1 PUSH2 0xCA SWAP2 SWAP1 PUSH2 0x1DC JUMP JUMPDEST PUSH2 0x17F JUMP JUMPDEST PUSH1 0x40 MLOAD PUSH2 0xDC SWAP2 SWAP1 PUSH2 0x22B JUMP JUMPDEST PUSH1 0x40 MLOAD DUP1 SWAP2 SUB SWAP1 RETURN JUMPDEST PUSH2 0xFF PUSH1 0x4 DUP1 CALLDATASIZE SUB DUP2 ADD SWAP1 PUSH2 0xFA SWAP2 SWAP1 PUSH2 0x1DC JUMP JUMPDEST PUSH2 0x195 JUMP JUMPDEST PUSH1 0x40 MLOAD PUSH2 0x10C SWAP2 SWAP1 PUSH2 0x22B JUMP JUMPDEST PUSH1 0x40 MLOAD DUP1 SWAP2 SUB SWAP1 RETURN JUMPDEST PUSH2 0x11D PUSH2 0x1AB JUMP JUMPDEST PUSH1 0x40 MLOAD PUSH2 0x12A SWAP2 SWAP1 PUSH2 0x22B JUMP JUMPDEST PUSH1 0x40 MLOAD DUP1 SWAP2 SUB SWAP1 RETURN JUMPDEST PUSH2 0x14D PUSH1 0x4 DUP1 CALLDATASIZE SUB DUP2 ADD SWAP1 PUSH2 0x148 SWAP2 SWAP1 PUSH2 0x1DC JUMP JUMPDEST PUSH2 0x1B1 JUMP JUMPDEST PUSH1 0x40 MLOAD PUSH2 0x15A SWAP2 SWAP1 PUSH2 0x22B JUMP JUMPDEST PUSH1 0x40 MLOAD DUP1 SWAP2 SUB SWAP1 RETURN JUMPDEST PUSH1 0x0 DUP2 DUP4 PUSH2 0x171 SWAP2 SWAP1 PUSH2 0x2DA JUMP JUMPDEST SWAP1 POP SWAP3 SWAP2 POP POP JUMP JUMPDEST PUSH1 0x0 SLOAD DUP2 JUMP JUMPDEST PUSH1 0x0 DUP2 DUP4 PUSH2 0x18D SWAP2 SWAP1 PUSH2 0x344 JUMP JUMPDEST SWAP1 POP SWAP3 SWAP2 POP POP JUMP JUMPDEST PUSH1 0x0 DUP2 DUP4 PUSH2 0x1A3 SWAP2 SWAP1 PUSH2 0x45B JUMP JUMPDEST SWAP1 POP SWAP3 SWAP2 POP POP JUMP JUMPDEST PUSH1 0x1 SLOAD DUP2 JUMP JUMPDEST PUSH1 0x0 DUP2 DUP4 PUSH2 0x1BF SWAP2 SWAP1 PUSH2 0x246 JUMP JUMPDEST SWAP1 POP SWAP3 SWAP2 POP POP JUMP JUMPDEST PUSH1 0x0 DUP2 CALLDATALOAD SWAP1 POP PUSH2 0x1D6 DUP2 PUSH2 0x55C JUMP JUMPDEST SWAP3 SWAP2 POP POP JUMP JUMPDEST PUSH1 0x0 DUP1 PUSH1 0x40 DUP4 DUP6 SUB SLT ISZERO PUSH2 0x1F3 JUMPI PUSH2 0x1F2 PUSH2 0x557 JUMP JUMPDEST JUMPDEST PUSH1 0x0 PUSH2 0x201 DUP6 DUP3 DUP7 ADD PUSH2 0x1C7 JUMP JUMPDEST SWAP3 POP POP PUSH1 0x20 PUSH2 0x212 DUP6 DUP3 DUP7 ADD PUSH2 0x1C7 JUMP JUMPDEST SWAP2 POP POP SWAP3 POP SWAP3 SWAP1 POP JUMP JUMPDEST PUSH2 0x225 DUP2 PUSH2 0x4EF JUMP JUMPDEST DUP3 MSTORE POP POP JUMP JUMPDEST PUSH1 0x0 PUSH1 0x20 DUP3 ADD SWAP1 POP PUSH2 0x240 PUSH1 0x0 DUP4 ADD DUP5 PUSH2 0x21C JUMP JUMPDEST SWAP3 SWAP2 POP POP JUMP JUMPDEST PUSH1 0x0 PUSH2 0x251 DUP3 PUSH2 0x4EF JUMP JUMPDEST SWAP2 POP PUSH2 0x25C DUP4 PUSH2 0x4EF JUMP JUMPDEST SWAP3 POP DUP2 PUSH32 0x7FFFFFFFFFFFFFFFFFFFFFFFFFFFFFFFFFFFFFFFFFFFFFFFFFFFFFFFFFFFFFFF SUB DUP4 SGT PUSH1 0x0 DUP4 SLT ISZERO AND ISZERO PUSH2 0x297 JUMPI PUSH2 0x296 PUSH2 0x4F9 JUMP JUMPDEST JUMPDEST DUP2 PUSH32 0x8000000000000000000000000000000000000000000000000000000000000000 SUB DUP4 SLT PUSH1 0x0 DUP4 SLT AND ISZERO PUSH2 0x2CF JUMPI PUSH2 0x2CE PUSH2 0x4F9 JUMP JUMPDEST JUMPDEST DUP3 DUP3 ADD SWAP1 POP SWAP3 SWAP2 POP POP JUMP JUMPDEST PUSH1 0x0 PUSH2 0x2E5 DUP3 PUSH2 0x4EF JUMP JUMPDEST SWAP2 POP PUSH2 0x2F0 DUP4 PUSH2 0x4EF JUMP JUMPDEST SWAP3 POP DUP3 PUSH2 0x300 JUMPI PUSH2 0x2FF PUSH2 0x528 JUMP JUMPDEST JUMPDEST PUSH1 0x1 PUSH1 0x0 SUB DUP4 EQ PUSH32 0x8000000000000000000000000000000000000000000000000000000000000000 DUP4 EQ AND ISZERO PUSH2 0x339 JUMPI PUSH2 0x338 PUSH2 0x4F9 JUMP JUMPDEST JUMPDEST DUP3 DUP3 SDIV SWAP1 POP SWAP3 SWAP2 POP POP JUMP JUMPDEST PUSH1 0x0 PUSH2 0x34F DUP3 PUSH2 0x4EF JUMP JUMPDEST SWAP2 POP PUSH2 0x35A DUP4 PUSH2 0x4EF JUMP JUMPDEST SWAP3 POP DUP3 PUSH32 0x7FFFFFFFFFFFFFFFFFFFFFFFFFFFFFFFFFFFFFFFFFFFFFFFFFFFFFFFFFFFFFFF DIV DUP3 GT PUSH1 0x0 DUP5 SGT PUSH1 0x0 DUP5 SGT AND AND ISZERO PUSH2 0x399 JUMPI PUSH2 0x398 PUSH2 0x4F9 JUMP JUMPDEST JUMPDEST DUP2 PUSH32 0x8000000000000000000000000000000000000000000000000000000000000000 SDIV DUP4 SLT PUSH1 0x0 DUP5 SLT PUSH1 0x0 DUP5 SGT AND AND ISZERO PUSH2 0x3D6 JUMPI PUSH2 0x3D5 PUSH2 0x4F9 JUMP JUMPDEST JUMPDEST DUP3 PUSH32 0x8000000000000000000000000000000000000000000000000000000000000000 SDIV DUP3 SLT PUSH1 0x0 DUP5 SGT PUSH1 0x0 DUP5 SLT AND AND ISZERO PUSH2 0x413 JUMPI PUSH2 0x412 PUSH2 0x4F9 JUMP JUMPDEST JUMPDEST DUP3 PUSH32 0x7FFFFFFFFFFFFFFFFFFFFFFFFFFFFFFFFFFFFFFFFFFFFFFFFFFFFFFFFFFFFFFF SDIV DUP3 SLT PUSH1 0x0 DUP5 SLT PUSH1 0x0 DUP5 SLT AND AND ISZERO PUSH2 0x450 JUMPI PUSH2 0x44F PUSH2 0x4F9 JUMP JUMPDEST JUMPDEST DUP3 DUP3 MUL SWAP1 POP SWAP3 SWAP2 POP POP JUMP JUMPDEST PUSH1 0x0 PUSH2 0x466 DUP3 PUSH2 0x4EF JUMP JUMPDEST SWAP2 POP PUSH2 0x471 DUP4 PUSH2 0x4EF JUMP JUMPDEST SWAP3 POP DUP3 PUSH32 0x8000000000000000000000000000000000000000000000000000000000000000 ADD DUP3 SLT PUSH1 0x0 DUP5 SLT ISZERO AND ISZERO PUSH2 0x4AC JUMPI PUSH2 0x4AB PUSH2 0x4F9 JUMP JUMPDEST JUMPDEST DUP3 PUSH32 0x7FFFFFFFFFFFFFFFFFFFFFFFFFFFFFFFFFFFFFFFFFFFFFFFFFFFFFFFFFFFFFFF ADD DUP3 SGT PUSH1 0x0 DUP5 SLT AND ISZERO PUSH2 0x4E4 JUMPI PUSH2 0x4E3 PUSH2 0x4F9 JUMP JUMPDEST JUMPDEST DUP3 DUP3 SUB SWAP1 POP SWAP3 SWAP2 POP POP JUMP JUMPDEST PUSH1 0x0 DUP2 SWAP1 POP SWAP2 SWAP1 POP JUMP JUMPDEST PUSH32 0x4E487B7100000000000000000000000000000000000000000000000000000000 PUSH1 0x0 MSTORE PUSH1 0x11 PUSH1 0x4 MSTORE PUSH1 0x24 PUSH1 0x0 REVERT JUMPDEST PUSH32 0x4E487B7100000000000000000000000000000000000000000000000000000000 PUSH1 0x0 MSTORE PUSH1 0x12 PUSH1 0x4 MSTORE PUSH1 0x24 PUSH1 0x0 REVERT JUMPDEST PUSH1 0x0 DUP1 REVERT JUMPDEST PUSH2 0x565 DUP2 PUSH2 0x4EF JUMP JUMPDEST DUP2 EQ PUSH2 0x570 JUMPI PUSH1 0x0 DUP1 REVERT JUMPDEST POP JUMP INVALID LOG2 PUSH5 0x6970667358 0x22 SLT KECCAK256 0xAD 0xEE SUB CALLVALUE 0xA5 0xF7 0xC BLOCKHASH 0xAA PUSH16 0x2530EF6BDAA0F8BFAABE8F855C9009B4 0x2C 0xF7 0xD8 PUSH25 0xE6C564736F6C63430008070033000000000000000000000000 "
				},
				"gasEstimates": {
					"creation": {
						"codeDepositCost": "289800",
						"executionCost": "331",
						"totalCost": "290131"
					},
					"external": {
						"a()": "2429",
						"b()": "2495",
						"division(int256,int256)": "infinite",
						"multiplicacion(int256,int256)": "infinite",
						"resta(int256,int256)": "infinite",
						"suma(int256,int256)": "infinite"
					},
					"internal": {
						"cuadrado(int256)": "infinite",
						"factorial(uint256)": "infinite",
						"raizCuadrada(int128)": "infinite",
						"raizCuadradaUnsigned(uint256)": "infinite",
						"valorAbsoluto(int256)": "infinite"
					}
				},
				"methodIdentifiers": {
					"a()": "0dbe671f",
					"b()": "4df7e3d0",
					"division(int256,int256)": "09b7cdda",
					"multiplicacion(int256,int256)": "187983bf",
					"resta(int256,int256)": "4c627bad",
					"suma(int256,int256)": "8f8a0d19"
				}
			},
			"storageLayout": {
				"storage": [
					{
						"astId": 3,
						"contract": "Documents/GitHub/SOLIDITY-REMIX/5ef069451e67668750287d64bc5f8bae/calculadora.sol:Calculadora",
						"label": "a",
						"offset": 0,
						"slot": "0",
						"type": "t_int256"
					},
					{
						"astId": 5,
						"contract": "Documents/GitHub/SOLIDITY-REMIX/5ef069451e67668750287d64bc5f8bae/calculadora.sol:Calculadora",
						"label": "b",
						"offset": 0,
						"slot": "1",
						"type": "t_int256"
					}
				],
				"types": {
					"t_int256": {
						"encoding": "inplace",
						"label": "int256",
						"numberOfBytes": "32"
					}
				}
			},
			"userdoc": {
				"kind": "user",
				"methods": {},
				"version": 1
			}
		}
	}
}