{
	"Documents/GitHub/SOLIDITY-REMIX/5ef069451e67668750287d64bc5f8bae/calculadora.sol": {
		"Calculadora": {
			"abi": [
				{
					"inputs": [],
					"name": "a",
					"outputs": [
						{
							"internalType": "int256",
							"name": "",
							"type": "int256"
						}
					],
					"stateMutability": "view",
					"type": "function"
				},
				{
					"inputs": [],
					"name": "b",
					"outputs": [
						{
							"internalType": "int256",
							"name": "",
							"type": "int256"
						}
					],
					"stateMutability": "view",
					"type": "function"
				},
				{
					"inputs": [
						{
							"internalType": "int256",
							"name": "_a",
							"type": "int256"
						}
					],
					"name": "cuadrado",
					"outputs": [
						{
							"internalType": "uint256",
							"name": "",
							"type": "uint256"
						}
					],
					"stateMutability": "pure",
					"type": "function"
				},
				{
					"inputs": [
						{
							"internalType": "int256",
							"name": "_a",
							"type": "int256"
						},
						{
							"internalType": "int256",
							"name": "_b",
							"type": "int256"
						}
					],
					"name": "division",
					"outputs": [
						{
							"internalType": "int256",
							"name": "",
							"type": "int256"
						}
					],
					"stateMutability": "pure",
					"type": "function"
				},
				{
					"inputs": [
						{
							"internalType": "uint256",
							"name": "_a",
							"type": "uint256"
						}
					],
					"name": "factorial",
					"outputs": [
						{
							"internalType": "uint256",
							"name": "",
							"type": "uint256"
						}
					],
					"stateMutability": "nonpayable",
					"type": "function"
				},
				{
					"inputs": [
						{
							"internalType": "int256",
							"name": "_a",
							"type": "int256"
						},
						{
							"internalType": "int256",
							"name": "_b",
							"type": "int256"
						}
					],
					"name": "multiplicacion",
					"outputs": [
						{
							"internalType": "int256",
							"name": "",
							"type": "int256"
						}
					],
					"stateMutability": "pure",
					"type": "function"
				},
				{
					"inputs": [
						{
							"internalType": "uint256",
							"name": "x",
							"type": "uint256"
						}
					],
					"name": "raizCuadrada",
					"outputs": [
						{
							"internalType": "uint128",
							"name": "",
							"type": "uint128"
						}
					],
					"stateMutability": "pure",
					"type": "function"
				},
				{
					"inputs": [
						{
							"internalType": "int256",
							"name": "_a",
							"type": "int256"
						},
						{
							"internalType": "int256",
							"name": "_b",
							"type": "int256"
						}
					],
					"name": "resta",
					"outputs": [
						{
							"internalType": "int256",
							"name": "",
							"type": "int256"
						}
					],
					"stateMutability": "pure",
					"type": "function"
				},
				{
					"inputs": [
						{
							"internalType": "int256",
							"name": "_a",
							"type": "int256"
						},
						{
							"internalType": "int256",
							"name": "_b",
							"type": "int256"
						}
					],
					"name": "suma",
					"outputs": [
						{
							"internalType": "int256",
							"name": "",
							"type": "int256"
						}
					],
					"stateMutability": "pure",
					"type": "function"
				},
				{
					"inputs": [
						{
							"internalType": "int256",
							"name": "_a",
							"type": "int256"
						}
					],
					"name": "valorAbsoluto",
					"outputs": [
						{
							"internalType": "uint256",
							"name": "",
							"type": "uint256"
						}
					],
					"stateMutability": "pure",
					"type": "function"
				}
			],
			"devdoc": {
				"kind": "dev",
				"methods": {},
				"version": 1
			},
			"evm": {
				"assembly": "    /* \"Documents/GitHub/SOLIDITY-REMIX/5ef069451e67668750287d64bc5f8bae/calculadora.sol\":68:1586  contract Calculadora {\r... */\n  mstore(0x40, 0x80)\n  callvalue\n  dup1\n  iszero\n  tag_1\n  jumpi\n  0x00\n  dup1\n  revert\ntag_1:\n  pop\n  dataSize(sub_0)\n  dup1\n  dataOffset(sub_0)\n  0x00\n  codecopy\n  0x00\n  return\nstop\n\nsub_0: assembly {\n        /* \"Documents/GitHub/SOLIDITY-REMIX/5ef069451e67668750287d64bc5f8bae/calculadora.sol\":68:1586  contract Calculadora {\r... */\n      mstore(0x40, 0x80)\n      callvalue\n      dup1\n      iszero\n      tag_1\n      jumpi\n      0x00\n      dup1\n      revert\n    tag_1:\n      pop\n      jumpi(tag_2, lt(calldatasize, 0x04))\n      shr(0xe0, calldataload(0x00))\n      dup1\n      0x7d825142\n      gt\n      tag_13\n      jumpi\n      dup1\n      0x7d825142\n      eq\n      tag_8\n      jumpi\n      dup1\n      0x7ea9e058\n      eq\n      tag_9\n      jumpi\n      dup1\n      0x83714834\n      eq\n      tag_10\n      jumpi\n      dup1\n      0x8f8a0d19\n      eq\n      tag_11\n      jumpi\n      dup1\n      0xb29400d0\n      eq\n      tag_12\n      jumpi\n      jump(tag_2)\n    tag_13:\n      dup1\n      0x09b7cdda\n      eq\n      tag_3\n      jumpi\n      dup1\n      0x0dbe671f\n      eq\n      tag_4\n      jumpi\n      dup1\n      0x187983bf\n      eq\n      tag_5\n      jumpi\n      dup1\n      0x4c627bad\n      eq\n      tag_6\n      jumpi\n      dup1\n      0x4df7e3d0\n      eq\n      tag_7\n      jumpi\n    tag_2:\n      0x00\n      dup1\n      revert\n        /* \"Documents/GitHub/SOLIDITY-REMIX/5ef069451e67668750287d64bc5f8bae/calculadora.sol\":438:531  function division(int _a,int _b) public pure returns(int) {\r... */\n    tag_3:\n      tag_14\n      0x04\n      dup1\n      calldatasize\n      sub\n      dup2\n      add\n      swap1\n      tag_15\n      swap2\n      swap1\n      tag_16\n      jump\t// in\n    tag_15:\n      tag_17\n      jump\t// in\n    tag_14:\n      mload(0x40)\n      tag_18\n      swap2\n      swap1\n      tag_19\n      jump\t// in\n    tag_18:\n      mload(0x40)\n      dup1\n      swap2\n      sub\n      swap1\n      return\n        /* \"Documents/GitHub/SOLIDITY-REMIX/5ef069451e67668750287d64bc5f8bae/calculadora.sol\":96:108  int public a */\n    tag_4:\n      tag_20\n      tag_21\n      jump\t// in\n    tag_20:\n      mload(0x40)\n      tag_22\n      swap2\n      swap1\n      tag_19\n      jump\t// in\n    tag_22:\n      mload(0x40)\n      dup1\n      swap2\n      sub\n      swap1\n      return\n        /* \"Documents/GitHub/SOLIDITY-REMIX/5ef069451e67668750287d64bc5f8bae/calculadora.sol\":331:430  function multiplicacion(int _a,int _b) public pure returns(int) {\r... */\n    tag_5:\n      tag_23\n      0x04\n      dup1\n      calldatasize\n      sub\n      dup2\n      add\n      swap1\n      tag_24\n      swap2\n      swap1\n      tag_16\n      jump\t// in\n    tag_24:\n      tag_25\n      jump\t// in\n    tag_23:\n      mload(0x40)\n      tag_26\n      swap2\n      swap1\n      tag_19\n      jump\t// in\n    tag_26:\n      mload(0x40)\n      dup1\n      swap2\n      sub\n      swap1\n      return\n        /* \"Documents/GitHub/SOLIDITY-REMIX/5ef069451e67668750287d64bc5f8bae/calculadora.sol\":233:323  function resta(int _a,int _b) public pure returns(int) {\r... */\n    tag_6:\n      tag_27\n      0x04\n      dup1\n      calldatasize\n      sub\n      dup2\n      add\n      swap1\n      tag_28\n      swap2\n      swap1\n      tag_16\n      jump\t// in\n    tag_28:\n      tag_29\n      jump\t// in\n    tag_27:\n      mload(0x40)\n      tag_30\n      swap2\n      swap1\n      tag_19\n      jump\t// in\n    tag_30:\n      mload(0x40)\n      dup1\n      swap2\n      sub\n      swap1\n      return\n        /* \"Documents/GitHub/SOLIDITY-REMIX/5ef069451e67668750287d64bc5f8bae/calculadora.sol\":115:127  int public b */\n    tag_7:\n      tag_31\n      tag_32\n      jump\t// in\n    tag_31:\n      mload(0x40)\n      tag_33\n      swap2\n      swap1\n      tag_19\n      jump\t// in\n    tag_33:\n      mload(0x40)\n      dup1\n      swap2\n      sub\n      swap1\n      return\n        /* \"Documents/GitHub/SOLIDITY-REMIX/5ef069451e67668750287d64bc5f8bae/calculadora.sol\":730:917  function valorAbsoluto(int _a) public pure returns(uint) {\r... */\n    tag_8:\n      tag_34\n      0x04\n      dup1\n      calldatasize\n      sub\n      dup2\n      add\n      swap1\n      tag_35\n      swap2\n      swap1\n      tag_36\n      jump\t// in\n    tag_35:\n      tag_37\n      jump\t// in\n    tag_34:\n      mload(0x40)\n      tag_38\n      swap2\n      swap1\n      tag_39\n      jump\t// in\n    tag_38:\n      mload(0x40)\n      dup1\n      swap2\n      sub\n      swap1\n      return\n        /* \"Documents/GitHub/SOLIDITY-REMIX/5ef069451e67668750287d64bc5f8bae/calculadora.sol\":925:1016  function cuadrado(int _a) public pure returns(uint) {\r... */\n    tag_9:\n      tag_40\n      0x04\n      dup1\n      calldatasize\n      sub\n      dup2\n      add\n      swap1\n      tag_41\n      swap2\n      swap1\n      tag_36\n      jump\t// in\n    tag_41:\n      tag_42\n      jump\t// in\n    tag_40:\n      mload(0x40)\n      tag_43\n      swap2\n      swap1\n      tag_39\n      jump\t// in\n    tag_43:\n      mload(0x40)\n      dup1\n      swap2\n      sub\n      swap1\n      return\n        /* \"Documents/GitHub/SOLIDITY-REMIX/5ef069451e67668750287d64bc5f8bae/calculadora.sol\":539:722  function factorial(uint _a) public returns(uint){\r... */\n    tag_10:\n      tag_44\n      0x04\n      dup1\n      calldatasize\n      sub\n      dup2\n      add\n      swap1\n      tag_45\n      swap2\n      swap1\n      tag_46\n      jump\t// in\n    tag_45:\n      tag_47\n      jump\t// in\n    tag_44:\n      mload(0x40)\n      tag_48\n      swap2\n      swap1\n      tag_39\n      jump\t// in\n    tag_48:\n      mload(0x40)\n      dup1\n      swap2\n      sub\n      swap1\n      return\n        /* \"Documents/GitHub/SOLIDITY-REMIX/5ef069451e67668750287d64bc5f8bae/calculadora.sol\":136:225  function suma(int _a,int _b) public pure returns(int) {\r... */\n    tag_11:\n      tag_49\n      0x04\n      dup1\n      calldatasize\n      sub\n      dup2\n      add\n      swap1\n      tag_50\n      swap2\n      swap1\n      tag_16\n      jump\t// in\n    tag_50:\n      tag_51\n      jump\t// in\n    tag_49:\n      mload(0x40)\n      tag_52\n      swap2\n      swap1\n      tag_19\n      jump\t// in\n    tag_52:\n      mload(0x40)\n      dup1\n      swap2\n      sub\n      swap1\n      return\n        /* \"Documents/GitHub/SOLIDITY-REMIX/5ef069451e67668750287d64bc5f8bae/calculadora.sol\":1024:1583  function raizCuadrada (uint256 x) public pure returns(uint128) {\r... */\n    tag_12:\n      tag_53\n      0x04\n      dup1\n      calldatasize\n      sub\n      dup2\n      add\n      swap1\n      tag_54\n      swap2\n      swap1\n      tag_46\n      jump\t// in\n    tag_54:\n      tag_55\n      jump\t// in\n    tag_53:\n      mload(0x40)\n      tag_56\n      swap2\n      swap1\n      tag_57\n      jump\t// in\n    tag_56:\n      mload(0x40)\n      dup1\n      swap2\n      sub\n      swap1\n      return\n        /* \"Documents/GitHub/SOLIDITY-REMIX/5ef069451e67668750287d64bc5f8bae/calculadora.sol\":438:531  function division(int _a,int _b) public pure returns(int) {\r... */\n    tag_17:\n        /* \"Documents/GitHub/SOLIDITY-REMIX/5ef069451e67668750287d64bc5f8bae/calculadora.sol\":491:494  int */\n      0x00\n        /* \"Documents/GitHub/SOLIDITY-REMIX/5ef069451e67668750287d64bc5f8bae/calculadora.sol\":520:522  _b */\n      dup2\n        /* \"Documents/GitHub/SOLIDITY-REMIX/5ef069451e67668750287d64bc5f8bae/calculadora.sol\":515:517  _a */\n      dup4\n        /* \"Documents/GitHub/SOLIDITY-REMIX/5ef069451e67668750287d64bc5f8bae/calculadora.sol\":515:522  _a / _b */\n      tag_59\n      swap2\n      swap1\n      tag_60\n      jump\t// in\n    tag_59:\n        /* \"Documents/GitHub/SOLIDITY-REMIX/5ef069451e67668750287d64bc5f8bae/calculadora.sol\":507:523  return (_a / _b) */\n      swap1\n      pop\n        /* \"Documents/GitHub/SOLIDITY-REMIX/5ef069451e67668750287d64bc5f8bae/calculadora.sol\":438:531  function division(int _a,int _b) public pure returns(int) {\r... */\n      swap3\n      swap2\n      pop\n      pop\n      jump\t// out\n        /* \"Documents/GitHub/SOLIDITY-REMIX/5ef069451e67668750287d64bc5f8bae/calculadora.sol\":96:108  int public a */\n    tag_21:\n      sload(0x00)\n      dup2\n      jump\t// out\n        /* \"Documents/GitHub/SOLIDITY-REMIX/5ef069451e67668750287d64bc5f8bae/calculadora.sol\":331:430  function multiplicacion(int _a,int _b) public pure returns(int) {\r... */\n    tag_25:\n        /* \"Documents/GitHub/SOLIDITY-REMIX/5ef069451e67668750287d64bc5f8bae/calculadora.sol\":390:393  int */\n      0x00\n        /* \"Documents/GitHub/SOLIDITY-REMIX/5ef069451e67668750287d64bc5f8bae/calculadora.sol\":419:421  _b */\n      dup2\n        /* \"Documents/GitHub/SOLIDITY-REMIX/5ef069451e67668750287d64bc5f8bae/calculadora.sol\":414:416  _a */\n      dup4\n        /* \"Documents/GitHub/SOLIDITY-REMIX/5ef069451e67668750287d64bc5f8bae/calculadora.sol\":414:421  _a * _b */\n      tag_62\n      swap2\n      swap1\n      tag_63\n      jump\t// in\n    tag_62:\n        /* \"Documents/GitHub/SOLIDITY-REMIX/5ef069451e67668750287d64bc5f8bae/calculadora.sol\":406:422  return (_a * _b) */\n      swap1\n      pop\n        /* \"Documents/GitHub/SOLIDITY-REMIX/5ef069451e67668750287d64bc5f8bae/calculadora.sol\":331:430  function multiplicacion(int _a,int _b) public pure returns(int) {\r... */\n      swap3\n      swap2\n      pop\n      pop\n      jump\t// out\n        /* \"Documents/GitHub/SOLIDITY-REMIX/5ef069451e67668750287d64bc5f8bae/calculadora.sol\":233:323  function resta(int _a,int _b) public pure returns(int) {\r... */\n    tag_29:\n        /* \"Documents/GitHub/SOLIDITY-REMIX/5ef069451e67668750287d64bc5f8bae/calculadora.sol\":283:286  int */\n      0x00\n        /* \"Documents/GitHub/SOLIDITY-REMIX/5ef069451e67668750287d64bc5f8bae/calculadora.sol\":312:314  _b */\n      dup2\n        /* \"Documents/GitHub/SOLIDITY-REMIX/5ef069451e67668750287d64bc5f8bae/calculadora.sol\":307:309  _a */\n      dup4\n        /* \"Documents/GitHub/SOLIDITY-REMIX/5ef069451e67668750287d64bc5f8bae/calculadora.sol\":307:314  _a - _b */\n      tag_65\n      swap2\n      swap1\n      tag_66\n      jump\t// in\n    tag_65:\n        /* \"Documents/GitHub/SOLIDITY-REMIX/5ef069451e67668750287d64bc5f8bae/calculadora.sol\":299:315  return (_a - _b) */\n      swap1\n      pop\n        /* \"Documents/GitHub/SOLIDITY-REMIX/5ef069451e67668750287d64bc5f8bae/calculadora.sol\":233:323  function resta(int _a,int _b) public pure returns(int) {\r... */\n      swap3\n      swap2\n      pop\n      pop\n      jump\t// out\n        /* \"Documents/GitHub/SOLIDITY-REMIX/5ef069451e67668750287d64bc5f8bae/calculadora.sol\":115:127  int public b */\n    tag_32:\n      sload(0x01)\n      dup2\n      jump\t// out\n        /* \"Documents/GitHub/SOLIDITY-REMIX/5ef069451e67668750287d64bc5f8bae/calculadora.sol\":730:917  function valorAbsoluto(int _a) public pure returns(uint) {\r... */\n    tag_37:\n        /* \"Documents/GitHub/SOLIDITY-REMIX/5ef069451e67668750287d64bc5f8bae/calculadora.sol\":781:785  uint */\n      0x00\n        /* \"Documents/GitHub/SOLIDITY-REMIX/5ef069451e67668750287d64bc5f8bae/calculadora.sol\":807:808  0 */\n      dup1\n        /* \"Documents/GitHub/SOLIDITY-REMIX/5ef069451e67668750287d64bc5f8bae/calculadora.sol\":802:804  _a */\n      dup3\n        /* \"Documents/GitHub/SOLIDITY-REMIX/5ef069451e67668750287d64bc5f8bae/calculadora.sol\":802:808  _a > 0 */\n      sgt\n        /* \"Documents/GitHub/SOLIDITY-REMIX/5ef069451e67668750287d64bc5f8bae/calculadora.sol\":798:910  if (_a > 0){\r... */\n      iszero\n      tag_68\n      jumpi\n        /* \"Documents/GitHub/SOLIDITY-REMIX/5ef069451e67668750287d64bc5f8bae/calculadora.sol\":836:838  _a */\n      dup2\n        /* \"Documents/GitHub/SOLIDITY-REMIX/5ef069451e67668750287d64bc5f8bae/calculadora.sol\":824:840  return(uint(_a)) */\n      swap1\n      pop\n      jump(tag_67)\n        /* \"Documents/GitHub/SOLIDITY-REMIX/5ef069451e67668750287d64bc5f8bae/calculadora.sol\":798:910  if (_a > 0){\r... */\n    tag_68:\n        /* \"Documents/GitHub/SOLIDITY-REMIX/5ef069451e67668750287d64bc5f8bae/calculadora.sol\":894:896  _a */\n      dup2\n        /* \"Documents/GitHub/SOLIDITY-REMIX/5ef069451e67668750287d64bc5f8bae/calculadora.sol\":893:896  -_a */\n      tag_70\n      swap1\n      tag_71\n      jump\t// in\n    tag_70:\n        /* \"Documents/GitHub/SOLIDITY-REMIX/5ef069451e67668750287d64bc5f8bae/calculadora.sol\":881:898  return(uint(-_a)) */\n      swap1\n      pop\n        /* \"Documents/GitHub/SOLIDITY-REMIX/5ef069451e67668750287d64bc5f8bae/calculadora.sol\":730:917  function valorAbsoluto(int _a) public pure returns(uint) {\r... */\n    tag_67:\n      swap2\n      swap1\n      pop\n      jump\t// out\n        /* \"Documents/GitHub/SOLIDITY-REMIX/5ef069451e67668750287d64bc5f8bae/calculadora.sol\":925:1016  function cuadrado(int _a) public pure returns(uint) {\r... */\n    tag_42:\n        /* \"Documents/GitHub/SOLIDITY-REMIX/5ef069451e67668750287d64bc5f8bae/calculadora.sol\":971:975  uint */\n      0x00\n        /* \"Documents/GitHub/SOLIDITY-REMIX/5ef069451e67668750287d64bc5f8bae/calculadora.sol\":1005:1007  _a */\n      dup2\n        /* \"Documents/GitHub/SOLIDITY-REMIX/5ef069451e67668750287d64bc5f8bae/calculadora.sol\":1000:1002  _a */\n      dup3\n        /* \"Documents/GitHub/SOLIDITY-REMIX/5ef069451e67668750287d64bc5f8bae/calculadora.sol\":1000:1007  _a * _a */\n      tag_73\n      swap2\n      swap1\n      tag_63\n      jump\t// in\n    tag_73:\n        /* \"Documents/GitHub/SOLIDITY-REMIX/5ef069451e67668750287d64bc5f8bae/calculadora.sol\":988:1008  return uint(_a * _a) */\n      swap1\n      pop\n        /* \"Documents/GitHub/SOLIDITY-REMIX/5ef069451e67668750287d64bc5f8bae/calculadora.sol\":925:1016  function cuadrado(int _a) public pure returns(uint) {\r... */\n      swap2\n      swap1\n      pop\n      jump\t// out\n        /* \"Documents/GitHub/SOLIDITY-REMIX/5ef069451e67668750287d64bc5f8bae/calculadora.sol\":539:722  function factorial(uint _a) public returns(uint){\r... */\n    tag_47:\n        /* \"Documents/GitHub/SOLIDITY-REMIX/5ef069451e67668750287d64bc5f8bae/calculadora.sol\":582:586  uint */\n      0x00\n        /* \"Documents/GitHub/SOLIDITY-REMIX/5ef069451e67668750287d64bc5f8bae/calculadora.sol\":608:609  1 */\n      0x01\n        /* \"Documents/GitHub/SOLIDITY-REMIX/5ef069451e67668750287d64bc5f8bae/calculadora.sol\":602:604  _a */\n      dup3\n        /* \"Documents/GitHub/SOLIDITY-REMIX/5ef069451e67668750287d64bc5f8bae/calculadora.sol\":602:609  _a <= 1 */\n      gt\n        /* \"Documents/GitHub/SOLIDITY-REMIX/5ef069451e67668750287d64bc5f8bae/calculadora.sol\":598:715  if (_a <= 1){\r... */\n      tag_75\n      jumpi\n        /* \"Documents/GitHub/SOLIDITY-REMIX/5ef069451e67668750287d64bc5f8bae/calculadora.sol\":632:633  1 */\n      0x01\n        /* \"Documents/GitHub/SOLIDITY-REMIX/5ef069451e67668750287d64bc5f8bae/calculadora.sol\":625:633  return 1 */\n      swap1\n      pop\n      jump(tag_74)\n        /* \"Documents/GitHub/SOLIDITY-REMIX/5ef069451e67668750287d64bc5f8bae/calculadora.sol\":598:715  if (_a <= 1){\r... */\n    tag_75:\n        /* \"Documents/GitHub/SOLIDITY-REMIX/5ef069451e67668750287d64bc5f8bae/calculadora.sol\":687:702  factorial(_a-1) */\n      tag_77\n        /* \"Documents/GitHub/SOLIDITY-REMIX/5ef069451e67668750287d64bc5f8bae/calculadora.sol\":700:701  1 */\n      0x01\n        /* \"Documents/GitHub/SOLIDITY-REMIX/5ef069451e67668750287d64bc5f8bae/calculadora.sol\":697:699  _a */\n      dup4\n        /* \"Documents/GitHub/SOLIDITY-REMIX/5ef069451e67668750287d64bc5f8bae/calculadora.sol\":697:701  _a-1 */\n      tag_78\n      swap2\n      swap1\n      tag_79\n      jump\t// in\n    tag_78:\n        /* \"Documents/GitHub/SOLIDITY-REMIX/5ef069451e67668750287d64bc5f8bae/calculadora.sol\":687:696  factorial */\n      tag_47\n        /* \"Documents/GitHub/SOLIDITY-REMIX/5ef069451e67668750287d64bc5f8bae/calculadora.sol\":687:702  factorial(_a-1) */\n      jump\t// in\n    tag_77:\n        /* \"Documents/GitHub/SOLIDITY-REMIX/5ef069451e67668750287d64bc5f8bae/calculadora.sol\":682:684  _a */\n      dup3\n        /* \"Documents/GitHub/SOLIDITY-REMIX/5ef069451e67668750287d64bc5f8bae/calculadora.sol\":682:702  _a * factorial(_a-1) */\n      tag_80\n      swap2\n      swap1\n      tag_81\n      jump\t// in\n    tag_80:\n        /* \"Documents/GitHub/SOLIDITY-REMIX/5ef069451e67668750287d64bc5f8bae/calculadora.sol\":674:703  return (_a * factorial(_a-1)) */\n      swap1\n      pop\n        /* \"Documents/GitHub/SOLIDITY-REMIX/5ef069451e67668750287d64bc5f8bae/calculadora.sol\":539:722  function factorial(uint _a) public returns(uint){\r... */\n    tag_74:\n      swap2\n      swap1\n      pop\n      jump\t// out\n        /* \"Documents/GitHub/SOLIDITY-REMIX/5ef069451e67668750287d64bc5f8bae/calculadora.sol\":136:225  function suma(int _a,int _b) public pure returns(int) {\r... */\n    tag_51:\n        /* \"Documents/GitHub/SOLIDITY-REMIX/5ef069451e67668750287d64bc5f8bae/calculadora.sol\":185:188  int */\n      0x00\n        /* \"Documents/GitHub/SOLIDITY-REMIX/5ef069451e67668750287d64bc5f8bae/calculadora.sol\":214:216  _b */\n      dup2\n        /* \"Documents/GitHub/SOLIDITY-REMIX/5ef069451e67668750287d64bc5f8bae/calculadora.sol\":209:211  _a */\n      dup4\n        /* \"Documents/GitHub/SOLIDITY-REMIX/5ef069451e67668750287d64bc5f8bae/calculadora.sol\":209:216  _a + _b */\n      tag_83\n      swap2\n      swap1\n      tag_84\n      jump\t// in\n    tag_83:\n        /* \"Documents/GitHub/SOLIDITY-REMIX/5ef069451e67668750287d64bc5f8bae/calculadora.sol\":201:217  return (_a + _b) */\n      swap1\n      pop\n        /* \"Documents/GitHub/SOLIDITY-REMIX/5ef069451e67668750287d64bc5f8bae/calculadora.sol\":136:225  function suma(int _a,int _b) public pure returns(int) {\r... */\n      swap3\n      swap2\n      pop\n      pop\n      jump\t// out\n        /* \"Documents/GitHub/SOLIDITY-REMIX/5ef069451e67668750287d64bc5f8bae/calculadora.sol\":1024:1583  function raizCuadrada (uint256 x) public pure returns(uint128) {\r... */\n    tag_55:\n        /* \"Documents/GitHub/SOLIDITY-REMIX/5ef069451e67668750287d64bc5f8bae/calculadora.sol\":1078:1085  uint128 */\n      0x00\n        /* \"Documents/GitHub/SOLIDITY-REMIX/5ef069451e67668750287d64bc5f8bae/calculadora.sol\":1112:1113  0 */\n      dup1\n        /* \"Documents/GitHub/SOLIDITY-REMIX/5ef069451e67668750287d64bc5f8bae/calculadora.sol\":1107:1108  x */\n      dup3\n        /* \"Documents/GitHub/SOLIDITY-REMIX/5ef069451e67668750287d64bc5f8bae/calculadora.sol\":1107:1113  x >= 0 */\n      lt\n      iszero\n        /* \"Documents/GitHub/SOLIDITY-REMIX/5ef069451e67668750287d64bc5f8bae/calculadora.sol\":1098:1114  require (x >= 0) */\n      tag_86\n      jumpi\n      0x00\n      dup1\n      revert\n    tag_86:\n        /* \"Documents/GitHub/SOLIDITY-REMIX/5ef069451e67668750287d64bc5f8bae/calculadora.sol\":1134:1135  0 */\n      0x00\n        /* \"Documents/GitHub/SOLIDITY-REMIX/5ef069451e67668750287d64bc5f8bae/calculadora.sol\":1129:1130  x */\n      dup3\n        /* \"Documents/GitHub/SOLIDITY-REMIX/5ef069451e67668750287d64bc5f8bae/calculadora.sol\":1129:1135  x == 0 */\n      eq\n        /* \"Documents/GitHub/SOLIDITY-REMIX/5ef069451e67668750287d64bc5f8bae/calculadora.sol\":1125:1570  if (x == 0) return 0;\r... */\n      iszero\n      tag_87\n      jumpi\n        /* \"Documents/GitHub/SOLIDITY-REMIX/5ef069451e67668750287d64bc5f8bae/calculadora.sol\":1144:1145  0 */\n      0x00\n        /* \"Documents/GitHub/SOLIDITY-REMIX/5ef069451e67668750287d64bc5f8bae/calculadora.sol\":1137:1145  return 0 */\n      swap1\n      pop\n      jump(tag_85)\n        /* \"Documents/GitHub/SOLIDITY-REMIX/5ef069451e67668750287d64bc5f8bae/calculadora.sol\":1125:1570  if (x == 0) return 0;\r... */\n    tag_87:\n        /* \"Documents/GitHub/SOLIDITY-REMIX/5ef069451e67668750287d64bc5f8bae/calculadora.sol\":1176:1185  uint256 r */\n      0x00\n        /* \"Documents/GitHub/SOLIDITY-REMIX/5ef069451e67668750287d64bc5f8bae/calculadora.sol\":1188:1189  1 */\n      0x01\n        /* \"Documents/GitHub/SOLIDITY-REMIX/5ef069451e67668750287d64bc5f8bae/calculadora.sol\":1176:1189  uint256 r = 1 */\n      swap1\n      pop\n        /* \"Documents/GitHub/SOLIDITY-REMIX/5ef069451e67668750287d64bc5f8bae/calculadora.sol\":1286:1287  2 */\n      0x02\n        /* \"Documents/GitHub/SOLIDITY-REMIX/5ef069451e67668750287d64bc5f8bae/calculadora.sol\":1283:1284  r */\n      dup2\n        /* \"Documents/GitHub/SOLIDITY-REMIX/5ef069451e67668750287d64bc5f8bae/calculadora.sol\":1281:1282  x */\n      dup5\n        /* \"Documents/GitHub/SOLIDITY-REMIX/5ef069451e67668750287d64bc5f8bae/calculadora.sol\":1281:1284  x/r */\n      tag_89\n      swap2\n      swap1\n      tag_90\n      jump\t// in\n    tag_89:\n        /* \"Documents/GitHub/SOLIDITY-REMIX/5ef069451e67668750287d64bc5f8bae/calculadora.sol\":1279:1280  r */\n      dup3\n        /* \"Documents/GitHub/SOLIDITY-REMIX/5ef069451e67668750287d64bc5f8bae/calculadora.sol\":1279:1284  r+x/r */\n      tag_91\n      swap2\n      swap1\n      tag_92\n      jump\t// in\n    tag_91:\n        /* \"Documents/GitHub/SOLIDITY-REMIX/5ef069451e67668750287d64bc5f8bae/calculadora.sol\":1278:1287  (r+x/r)/2 */\n      tag_93\n      swap2\n      swap1\n      tag_90\n      jump\t// in\n    tag_93:\n        /* \"Documents/GitHub/SOLIDITY-REMIX/5ef069451e67668750287d64bc5f8bae/calculadora.sol\":1274:1287  r = (r+x/r)/2 */\n      swap1\n      pop\n        /* \"Documents/GitHub/SOLIDITY-REMIX/5ef069451e67668750287d64bc5f8bae/calculadora.sol\":1314:1315  2 */\n      0x02\n        /* \"Documents/GitHub/SOLIDITY-REMIX/5ef069451e67668750287d64bc5f8bae/calculadora.sol\":1311:1312  r */\n      dup2\n        /* \"Documents/GitHub/SOLIDITY-REMIX/5ef069451e67668750287d64bc5f8bae/calculadora.sol\":1309:1310  x */\n      dup5\n        /* \"Documents/GitHub/SOLIDITY-REMIX/5ef069451e67668750287d64bc5f8bae/calculadora.sol\":1309:1312  x/r */\n      tag_94\n      swap2\n      swap1\n      tag_90\n      jump\t// in\n    tag_94:\n        /* \"Documents/GitHub/SOLIDITY-REMIX/5ef069451e67668750287d64bc5f8bae/calculadora.sol\":1307:1308  r */\n      dup3\n        /* \"Documents/GitHub/SOLIDITY-REMIX/5ef069451e67668750287d64bc5f8bae/calculadora.sol\":1307:1312  r+x/r */\n      tag_95\n      swap2\n      swap1\n      tag_92\n      jump\t// in\n    tag_95:\n        /* \"Documents/GitHub/SOLIDITY-REMIX/5ef069451e67668750287d64bc5f8bae/calculadora.sol\":1306:1315  (r+x/r)/2 */\n      tag_96\n      swap2\n      swap1\n      tag_90\n      jump\t// in\n    tag_96:\n        /* \"Documents/GitHub/SOLIDITY-REMIX/5ef069451e67668750287d64bc5f8bae/calculadora.sol\":1302:1315  r = (r+x/r)/2 */\n      swap1\n      pop\n        /* \"Documents/GitHub/SOLIDITY-REMIX/5ef069451e67668750287d64bc5f8bae/calculadora.sol\":1342:1343  2 */\n      0x02\n        /* \"Documents/GitHub/SOLIDITY-REMIX/5ef069451e67668750287d64bc5f8bae/calculadora.sol\":1339:1340  r */\n      dup2\n        /* \"Documents/GitHub/SOLIDITY-REMIX/5ef069451e67668750287d64bc5f8bae/calculadora.sol\":1337:1338  x */\n      dup5\n        /* \"Documents/GitHub/SOLIDITY-REMIX/5ef069451e67668750287d64bc5f8bae/calculadora.sol\":1337:1340  x/r */\n      tag_97\n      swap2\n      swap1\n      tag_90\n      jump\t// in\n    tag_97:\n        /* \"Documents/GitHub/SOLIDITY-REMIX/5ef069451e67668750287d64bc5f8bae/calculadora.sol\":1335:1336  r */\n      dup3\n        /* \"Documents/GitHub/SOLIDITY-REMIX/5ef069451e67668750287d64bc5f8bae/calculadora.sol\":1335:1340  r+x/r */\n      tag_98\n      swap2\n      swap1\n      tag_92\n      jump\t// in\n    tag_98:\n        /* \"Documents/GitHub/SOLIDITY-REMIX/5ef069451e67668750287d64bc5f8bae/calculadora.sol\":1334:1343  (r+x/r)/2 */\n      tag_99\n      swap2\n      swap1\n      tag_90\n      jump\t// in\n    tag_99:\n        /* \"Documents/GitHub/SOLIDITY-REMIX/5ef069451e67668750287d64bc5f8bae/calculadora.sol\":1330:1343  r = (r+x/r)/2 */\n      swap1\n      pop\n        /* \"Documents/GitHub/SOLIDITY-REMIX/5ef069451e67668750287d64bc5f8bae/calculadora.sol\":1370:1371  2 */\n      0x02\n        /* \"Documents/GitHub/SOLIDITY-REMIX/5ef069451e67668750287d64bc5f8bae/calculadora.sol\":1367:1368  r */\n      dup2\n        /* \"Documents/GitHub/SOLIDITY-REMIX/5ef069451e67668750287d64bc5f8bae/calculadora.sol\":1365:1366  x */\n      dup5\n        /* \"Documents/GitHub/SOLIDITY-REMIX/5ef069451e67668750287d64bc5f8bae/calculadora.sol\":1365:1368  x/r */\n      tag_100\n      swap2\n      swap1\n      tag_90\n      jump\t// in\n    tag_100:\n        /* \"Documents/GitHub/SOLIDITY-REMIX/5ef069451e67668750287d64bc5f8bae/calculadora.sol\":1363:1364  r */\n      dup3\n        /* \"Documents/GitHub/SOLIDITY-REMIX/5ef069451e67668750287d64bc5f8bae/calculadora.sol\":1363:1368  r+x/r */\n      tag_101\n      swap2\n      swap1\n      tag_92\n      jump\t// in\n    tag_101:\n        /* \"Documents/GitHub/SOLIDITY-REMIX/5ef069451e67668750287d64bc5f8bae/calculadora.sol\":1362:1371  (r+x/r)/2 */\n      tag_102\n      swap2\n      swap1\n      tag_90\n      jump\t// in\n    tag_102:\n        /* \"Documents/GitHub/SOLIDITY-REMIX/5ef069451e67668750287d64bc5f8bae/calculadora.sol\":1358:1371  r = (r+x/r)/2 */\n      swap1\n      pop\n        /* \"Documents/GitHub/SOLIDITY-REMIX/5ef069451e67668750287d64bc5f8bae/calculadora.sol\":1398:1399  2 */\n      0x02\n        /* \"Documents/GitHub/SOLIDITY-REMIX/5ef069451e67668750287d64bc5f8bae/calculadora.sol\":1395:1396  r */\n      dup2\n        /* \"Documents/GitHub/SOLIDITY-REMIX/5ef069451e67668750287d64bc5f8bae/calculadora.sol\":1393:1394  x */\n      dup5\n        /* \"Documents/GitHub/SOLIDITY-REMIX/5ef069451e67668750287d64bc5f8bae/calculadora.sol\":1393:1396  x/r */\n      tag_103\n      swap2\n      swap1\n      tag_90\n      jump\t// in\n    tag_103:\n        /* \"Documents/GitHub/SOLIDITY-REMIX/5ef069451e67668750287d64bc5f8bae/calculadora.sol\":1391:1392  r */\n      dup3\n        /* \"Documents/GitHub/SOLIDITY-REMIX/5ef069451e67668750287d64bc5f8bae/calculadora.sol\":1391:1396  r+x/r */\n      tag_104\n      swap2\n      swap1\n      tag_92\n      jump\t// in\n    tag_104:\n        /* \"Documents/GitHub/SOLIDITY-REMIX/5ef069451e67668750287d64bc5f8bae/calculadora.sol\":1390:1399  (r+x/r)/2 */\n      tag_105\n      swap2\n      swap1\n      tag_90\n      jump\t// in\n    tag_105:\n        /* \"Documents/GitHub/SOLIDITY-REMIX/5ef069451e67668750287d64bc5f8bae/calculadora.sol\":1386:1399  r = (r+x/r)/2 */\n      swap1\n      pop\n        /* \"Documents/GitHub/SOLIDITY-REMIX/5ef069451e67668750287d64bc5f8bae/calculadora.sol\":1414:1424  uint256 r1 */\n      0x00\n        /* \"Documents/GitHub/SOLIDITY-REMIX/5ef069451e67668750287d64bc5f8bae/calculadora.sol\":1429:1430  r */\n      dup2\n        /* \"Documents/GitHub/SOLIDITY-REMIX/5ef069451e67668750287d64bc5f8bae/calculadora.sol\":1427:1428  x */\n      dup5\n        /* \"Documents/GitHub/SOLIDITY-REMIX/5ef069451e67668750287d64bc5f8bae/calculadora.sol\":1427:1430  x/r */\n      tag_106\n      swap2\n      swap1\n      tag_90\n      jump\t// in\n    tag_106:\n        /* \"Documents/GitHub/SOLIDITY-REMIX/5ef069451e67668750287d64bc5f8bae/calculadora.sol\":1414:1430  uint256 r1 = x/r */\n      swap1\n      pop\n        /* \"Documents/GitHub/SOLIDITY-REMIX/5ef069451e67668750287d64bc5f8bae/calculadora.sol\":1453:1455  r1 */\n      dup1\n        /* \"Documents/GitHub/SOLIDITY-REMIX/5ef069451e67668750287d64bc5f8bae/calculadora.sol\":1449:1450  r */\n      dup3\n        /* \"Documents/GitHub/SOLIDITY-REMIX/5ef069451e67668750287d64bc5f8bae/calculadora.sol\":1449:1455  r < r1 */\n      lt\n        /* \"Documents/GitHub/SOLIDITY-REMIX/5ef069451e67668750287d64bc5f8bae/calculadora.sol\":1445:1555  if (r < r1) return uint128(r);\r... */\n      iszero\n      tag_107\n      jumpi\n        /* \"Documents/GitHub/SOLIDITY-REMIX/5ef069451e67668750287d64bc5f8bae/calculadora.sol\":1472:1473  r */\n      dup2\n        /* \"Documents/GitHub/SOLIDITY-REMIX/5ef069451e67668750287d64bc5f8bae/calculadora.sol\":1457:1474  return uint128(r) */\n      swap3\n      pop\n      pop\n      pop\n      jump(tag_85)\n        /* \"Documents/GitHub/SOLIDITY-REMIX/5ef069451e67668750287d64bc5f8bae/calculadora.sol\":1445:1555  if (r < r1) return uint128(r);\r... */\n    tag_107:\n        /* \"Documents/GitHub/SOLIDITY-REMIX/5ef069451e67668750287d64bc5f8bae/calculadora.sol\":1532:1534  r1 */\n      dup1\n        /* \"Documents/GitHub/SOLIDITY-REMIX/5ef069451e67668750287d64bc5f8bae/calculadora.sol\":1517:1535  return uint128(r1) */\n      swap3\n      pop\n      pop\n      pop\n        /* \"Documents/GitHub/SOLIDITY-REMIX/5ef069451e67668750287d64bc5f8bae/calculadora.sol\":1024:1583  function raizCuadrada (uint256 x) public pure returns(uint128) {\r... */\n    tag_85:\n      swap2\n      swap1\n      pop\n      jump\t// out\n        /* \"#utility.yul\":7:144   */\n    tag_110:\n        /* \"#utility.yul\":52:57   */\n      0x00\n        /* \"#utility.yul\":90:96   */\n      dup2\n        /* \"#utility.yul\":77:97   */\n      calldataload\n        /* \"#utility.yul\":68:97   */\n      swap1\n      pop\n        /* \"#utility.yul\":106:138   */\n      tag_112\n        /* \"#utility.yul\":132:137   */\n      dup2\n        /* \"#utility.yul\":106:138   */\n      tag_113\n      jump\t// in\n    tag_112:\n        /* \"#utility.yul\":7:144   */\n      swap3\n      swap2\n      pop\n      pop\n      jump\t// out\n        /* \"#utility.yul\":150:289   */\n    tag_114:\n        /* \"#utility.yul\":196:201   */\n      0x00\n        /* \"#utility.yul\":234:240   */\n      dup2\n        /* \"#utility.yul\":221:241   */\n      calldataload\n        /* \"#utility.yul\":212:241   */\n      swap1\n      pop\n        /* \"#utility.yul\":250:283   */\n      tag_116\n        /* \"#utility.yul\":277:282   */\n      dup2\n        /* \"#utility.yul\":250:283   */\n      tag_117\n      jump\t// in\n    tag_116:\n        /* \"#utility.yul\":150:289   */\n      swap3\n      swap2\n      pop\n      pop\n      jump\t// out\n        /* \"#utility.yul\":295:622   */\n    tag_36:\n        /* \"#utility.yul\":353:359   */\n      0x00\n        /* \"#utility.yul\":402:404   */\n      0x20\n        /* \"#utility.yul\":390:399   */\n      dup3\n        /* \"#utility.yul\":381:388   */\n      dup5\n        /* \"#utility.yul\":377:400   */\n      sub\n        /* \"#utility.yul\":373:405   */\n      slt\n        /* \"#utility.yul\":370:489   */\n      iszero\n      tag_119\n      jumpi\n        /* \"#utility.yul\":408:487   */\n      tag_120\n      tag_121\n      jump\t// in\n    tag_120:\n        /* \"#utility.yul\":370:489   */\n    tag_119:\n        /* \"#utility.yul\":528:529   */\n      0x00\n        /* \"#utility.yul\":553:605   */\n      tag_122\n        /* \"#utility.yul\":597:604   */\n      dup5\n        /* \"#utility.yul\":588:594   */\n      dup3\n        /* \"#utility.yul\":577:586   */\n      dup6\n        /* \"#utility.yul\":573:595   */\n      add\n        /* \"#utility.yul\":553:605   */\n      tag_110\n      jump\t// in\n    tag_122:\n        /* \"#utility.yul\":543:605   */\n      swap2\n      pop\n        /* \"#utility.yul\":499:615   */\n      pop\n        /* \"#utility.yul\":295:622   */\n      swap3\n      swap2\n      pop\n      pop\n      jump\t// out\n        /* \"#utility.yul\":628:1098   */\n    tag_16:\n        /* \"#utility.yul\":694:700   */\n      0x00\n        /* \"#utility.yul\":702:708   */\n      dup1\n        /* \"#utility.yul\":751:753   */\n      0x40\n        /* \"#utility.yul\":739:748   */\n      dup4\n        /* \"#utility.yul\":730:737   */\n      dup6\n        /* \"#utility.yul\":726:749   */\n      sub\n        /* \"#utility.yul\":722:754   */\n      slt\n        /* \"#utility.yul\":719:838   */\n      iszero\n      tag_124\n      jumpi\n        /* \"#utility.yul\":757:836   */\n      tag_125\n      tag_121\n      jump\t// in\n    tag_125:\n        /* \"#utility.yul\":719:838   */\n    tag_124:\n        /* \"#utility.yul\":877:878   */\n      0x00\n        /* \"#utility.yul\":902:954   */\n      tag_126\n        /* \"#utility.yul\":946:953   */\n      dup6\n        /* \"#utility.yul\":937:943   */\n      dup3\n        /* \"#utility.yul\":926:935   */\n      dup7\n        /* \"#utility.yul\":922:944   */\n      add\n        /* \"#utility.yul\":902:954   */\n      tag_110\n      jump\t// in\n    tag_126:\n        /* \"#utility.yul\":892:954   */\n      swap3\n      pop\n        /* \"#utility.yul\":848:964   */\n      pop\n        /* \"#utility.yul\":1003:1005   */\n      0x20\n        /* \"#utility.yul\":1029:1081   */\n      tag_127\n        /* \"#utility.yul\":1073:1080   */\n      dup6\n        /* \"#utility.yul\":1064:1070   */\n      dup3\n        /* \"#utility.yul\":1053:1062   */\n      dup7\n        /* \"#utility.yul\":1049:1071   */\n      add\n        /* \"#utility.yul\":1029:1081   */\n      tag_110\n      jump\t// in\n    tag_127:\n        /* \"#utility.yul\":1019:1081   */\n      swap2\n      pop\n        /* \"#utility.yul\":974:1091   */\n      pop\n        /* \"#utility.yul\":628:1098   */\n      swap3\n      pop\n      swap3\n      swap1\n      pop\n      jump\t// out\n        /* \"#utility.yul\":1104:1433   */\n    tag_46:\n        /* \"#utility.yul\":1163:1169   */\n      0x00\n        /* \"#utility.yul\":1212:1214   */\n      0x20\n        /* \"#utility.yul\":1200:1209   */\n      dup3\n        /* \"#utility.yul\":1191:1198   */\n      dup5\n        /* \"#utility.yul\":1187:1210   */\n      sub\n        /* \"#utility.yul\":1183:1215   */\n      slt\n        /* \"#utility.yul\":1180:1299   */\n      iszero\n      tag_129\n      jumpi\n        /* \"#utility.yul\":1218:1297   */\n      tag_130\n      tag_121\n      jump\t// in\n    tag_130:\n        /* \"#utility.yul\":1180:1299   */\n    tag_129:\n        /* \"#utility.yul\":1338:1339   */\n      0x00\n        /* \"#utility.yul\":1363:1416   */\n      tag_131\n        /* \"#utility.yul\":1408:1415   */\n      dup5\n        /* \"#utility.yul\":1399:1405   */\n      dup3\n        /* \"#utility.yul\":1388:1397   */\n      dup6\n        /* \"#utility.yul\":1384:1406   */\n      add\n        /* \"#utility.yul\":1363:1416   */\n      tag_114\n      jump\t// in\n    tag_131:\n        /* \"#utility.yul\":1353:1416   */\n      swap2\n      pop\n        /* \"#utility.yul\":1309:1426   */\n      pop\n        /* \"#utility.yul\":1104:1433   */\n      swap3\n      swap2\n      pop\n      pop\n      jump\t// out\n        /* \"#utility.yul\":1439:1554   */\n    tag_132:\n        /* \"#utility.yul\":1524:1547   */\n      tag_134\n        /* \"#utility.yul\":1541:1546   */\n      dup2\n        /* \"#utility.yul\":1524:1547   */\n      tag_135\n      jump\t// in\n    tag_134:\n        /* \"#utility.yul\":1519:1522   */\n      dup3\n        /* \"#utility.yul\":1512:1548   */\n      mstore\n        /* \"#utility.yul\":1439:1554   */\n      pop\n      pop\n      jump\t// out\n        /* \"#utility.yul\":1560:1678   */\n    tag_136:\n        /* \"#utility.yul\":1647:1671   */\n      tag_138\n        /* \"#utility.yul\":1665:1670   */\n      dup2\n        /* \"#utility.yul\":1647:1671   */\n      tag_139\n      jump\t// in\n    tag_138:\n        /* \"#utility.yul\":1642:1645   */\n      dup3\n        /* \"#utility.yul\":1635:1672   */\n      mstore\n        /* \"#utility.yul\":1560:1678   */\n      pop\n      pop\n      jump\t// out\n        /* \"#utility.yul\":1684:1802   */\n    tag_140:\n        /* \"#utility.yul\":1771:1795   */\n      tag_142\n        /* \"#utility.yul\":1789:1794   */\n      dup2\n        /* \"#utility.yul\":1771:1795   */\n      tag_143\n      jump\t// in\n    tag_142:\n        /* \"#utility.yul\":1766:1769   */\n      dup3\n        /* \"#utility.yul\":1759:1796   */\n      mstore\n        /* \"#utility.yul\":1684:1802   */\n      pop\n      pop\n      jump\t// out\n        /* \"#utility.yul\":1808:2026   */\n    tag_19:\n        /* \"#utility.yul\":1899:1903   */\n      0x00\n        /* \"#utility.yul\":1937:1939   */\n      0x20\n        /* \"#utility.yul\":1926:1935   */\n      dup3\n        /* \"#utility.yul\":1922:1940   */\n      add\n        /* \"#utility.yul\":1914:1940   */\n      swap1\n      pop\n        /* \"#utility.yul\":1950:2019   */\n      tag_145\n        /* \"#utility.yul\":2016:2017   */\n      0x00\n        /* \"#utility.yul\":2005:2014   */\n      dup4\n        /* \"#utility.yul\":2001:2018   */\n      add\n        /* \"#utility.yul\":1992:1998   */\n      dup5\n        /* \"#utility.yul\":1950:2019   */\n      tag_132\n      jump\t// in\n    tag_145:\n        /* \"#utility.yul\":1808:2026   */\n      swap3\n      swap2\n      pop\n      pop\n      jump\t// out\n        /* \"#utility.yul\":2032:2254   */\n    tag_57:\n        /* \"#utility.yul\":2125:2129   */\n      0x00\n        /* \"#utility.yul\":2163:2165   */\n      0x20\n        /* \"#utility.yul\":2152:2161   */\n      dup3\n        /* \"#utility.yul\":2148:2166   */\n      add\n        /* \"#utility.yul\":2140:2166   */\n      swap1\n      pop\n        /* \"#utility.yul\":2176:2247   */\n      tag_147\n        /* \"#utility.yul\":2244:2245   */\n      0x00\n        /* \"#utility.yul\":2233:2242   */\n      dup4\n        /* \"#utility.yul\":2229:2246   */\n      add\n        /* \"#utility.yul\":2220:2226   */\n      dup5\n        /* \"#utility.yul\":2176:2247   */\n      tag_136\n      jump\t// in\n    tag_147:\n        /* \"#utility.yul\":2032:2254   */\n      swap3\n      swap2\n      pop\n      pop\n      jump\t// out\n        /* \"#utility.yul\":2260:2482   */\n    tag_39:\n        /* \"#utility.yul\":2353:2357   */\n      0x00\n        /* \"#utility.yul\":2391:2393   */\n      0x20\n        /* \"#utility.yul\":2380:2389   */\n      dup3\n        /* \"#utility.yul\":2376:2394   */\n      add\n        /* \"#utility.yul\":2368:2394   */\n      swap1\n      pop\n        /* \"#utility.yul\":2404:2475   */\n      tag_149\n        /* \"#utility.yul\":2472:2473   */\n      0x00\n        /* \"#utility.yul\":2461:2470   */\n      dup4\n        /* \"#utility.yul\":2457:2474   */\n      add\n        /* \"#utility.yul\":2448:2454   */\n      dup5\n        /* \"#utility.yul\":2404:2475   */\n      tag_140\n      jump\t// in\n    tag_149:\n        /* \"#utility.yul\":2260:2482   */\n      swap3\n      swap2\n      pop\n      pop\n      jump\t// out\n        /* \"#utility.yul\":2569:3094   */\n    tag_84:\n        /* \"#utility.yul\":2608:2611   */\n      0x00\n        /* \"#utility.yul\":2627:2646   */\n      tag_153\n        /* \"#utility.yul\":2644:2645   */\n      dup3\n        /* \"#utility.yul\":2627:2646   */\n      tag_135\n      jump\t// in\n    tag_153:\n        /* \"#utility.yul\":2622:2646   */\n      swap2\n      pop\n        /* \"#utility.yul\":2660:2679   */\n      tag_154\n        /* \"#utility.yul\":2677:2678   */\n      dup4\n        /* \"#utility.yul\":2660:2679   */\n      tag_135\n      jump\t// in\n    tag_154:\n        /* \"#utility.yul\":2655:2679   */\n      swap3\n      pop\n        /* \"#utility.yul\":2848:2849   */\n      dup2\n        /* \"#utility.yul\":2780:2846   */\n      0x7fffffffffffffffffffffffffffffffffffffffffffffffffffffffffffffff\n        /* \"#utility.yul\":2776:2850   */\n      sub\n        /* \"#utility.yul\":2773:2774   */\n      dup4\n        /* \"#utility.yul\":2769:2851   */\n      sgt\n        /* \"#utility.yul\":2764:2765   */\n      0x00\n        /* \"#utility.yul\":2761:2762   */\n      dup4\n        /* \"#utility.yul\":2757:2766   */\n      slt\n        /* \"#utility.yul\":2750:2767   */\n      iszero\n        /* \"#utility.yul\":2746:2852   */\n      and\n        /* \"#utility.yul\":2743:2875   */\n      iszero\n      tag_155\n      jumpi\n        /* \"#utility.yul\":2855:2873   */\n      tag_156\n      tag_157\n      jump\t// in\n    tag_156:\n        /* \"#utility.yul\":2743:2875   */\n    tag_155:\n        /* \"#utility.yul\":3035:3036   */\n      dup2\n        /* \"#utility.yul\":2967:3033   */\n      0x8000000000000000000000000000000000000000000000000000000000000000\n        /* \"#utility.yul\":2963:3037   */\n      sub\n        /* \"#utility.yul\":2960:2961   */\n      dup4\n        /* \"#utility.yul\":2956:3038   */\n      slt\n        /* \"#utility.yul\":2952:2953   */\n      0x00\n        /* \"#utility.yul\":2949:2950   */\n      dup4\n        /* \"#utility.yul\":2945:2954   */\n      slt\n        /* \"#utility.yul\":2941:3039   */\n      and\n        /* \"#utility.yul\":2938:3062   */\n      iszero\n      tag_158\n      jumpi\n        /* \"#utility.yul\":3042:3060   */\n      tag_159\n      tag_157\n      jump\t// in\n    tag_159:\n        /* \"#utility.yul\":2938:3062   */\n    tag_158:\n        /* \"#utility.yul\":3086:3087   */\n      dup3\n        /* \"#utility.yul\":3083:3084   */\n      dup3\n        /* \"#utility.yul\":3079:3088   */\n      add\n        /* \"#utility.yul\":3072:3088   */\n      swap1\n      pop\n        /* \"#utility.yul\":2569:3094   */\n      swap3\n      swap2\n      pop\n      pop\n      jump\t// out\n        /* \"#utility.yul\":3100:3405   */\n    tag_92:\n        /* \"#utility.yul\":3140:3143   */\n      0x00\n        /* \"#utility.yul\":3159:3179   */\n      tag_161\n        /* \"#utility.yul\":3177:3178   */\n      dup3\n        /* \"#utility.yul\":3159:3179   */\n      tag_143\n      jump\t// in\n    tag_161:\n        /* \"#utility.yul\":3154:3179   */\n      swap2\n      pop\n        /* \"#utility.yul\":3193:3213   */\n      tag_162\n        /* \"#utility.yul\":3211:3212   */\n      dup4\n        /* \"#utility.yul\":3193:3213   */\n      tag_143\n      jump\t// in\n    tag_162:\n        /* \"#utility.yul\":3188:3213   */\n      swap3\n      pop\n        /* \"#utility.yul\":3347:3348   */\n      dup3\n        /* \"#utility.yul\":3279:3345   */\n      0xffffffffffffffffffffffffffffffffffffffffffffffffffffffffffffffff\n        /* \"#utility.yul\":3275:3349   */\n      sub\n        /* \"#utility.yul\":3272:3273   */\n      dup3\n        /* \"#utility.yul\":3269:3350   */\n      gt\n        /* \"#utility.yul\":3266:3373   */\n      iszero\n      tag_163\n      jumpi\n        /* \"#utility.yul\":3353:3371   */\n      tag_164\n      tag_157\n      jump\t// in\n    tag_164:\n        /* \"#utility.yul\":3266:3373   */\n    tag_163:\n        /* \"#utility.yul\":3397:3398   */\n      dup3\n        /* \"#utility.yul\":3394:3395   */\n      dup3\n        /* \"#utility.yul\":3390:3399   */\n      add\n        /* \"#utility.yul\":3383:3399   */\n      swap1\n      pop\n        /* \"#utility.yul\":3100:3405   */\n      swap3\n      swap2\n      pop\n      pop\n      jump\t// out\n        /* \"#utility.yul\":3411:3796   */\n    tag_60:\n        /* \"#utility.yul\":3450:3451   */\n      0x00\n        /* \"#utility.yul\":3467:3486   */\n      tag_166\n        /* \"#utility.yul\":3484:3485   */\n      dup3\n        /* \"#utility.yul\":3467:3486   */\n      tag_135\n      jump\t// in\n    tag_166:\n        /* \"#utility.yul\":3462:3486   */\n      swap2\n      pop\n        /* \"#utility.yul\":3500:3519   */\n      tag_167\n        /* \"#utility.yul\":3517:3518   */\n      dup4\n        /* \"#utility.yul\":3500:3519   */\n      tag_135\n      jump\t// in\n    tag_167:\n        /* \"#utility.yul\":3495:3519   */\n      swap3\n      pop\n        /* \"#utility.yul\":3538:3539   */\n      dup3\n        /* \"#utility.yul\":3528:3563   */\n      tag_168\n      jumpi\n        /* \"#utility.yul\":3543:3561   */\n      tag_169\n      tag_170\n      jump\t// in\n    tag_169:\n        /* \"#utility.yul\":3528:3563   */\n    tag_168:\n        /* \"#utility.yul\":3729:3730   */\n      0x01\n        /* \"#utility.yul\":3726:3727   */\n      0x00\n        /* \"#utility.yul\":3722:3731   */\n      sub\n        /* \"#utility.yul\":3719:3720   */\n      dup4\n        /* \"#utility.yul\":3716:3732   */\n      eq\n        /* \"#utility.yul\":3635:3701   */\n      0x8000000000000000000000000000000000000000000000000000000000000000\n        /* \"#utility.yul\":3632:3633   */\n      dup4\n        /* \"#utility.yul\":3629:3702   */\n      eq\n        /* \"#utility.yul\":3612:3742   */\n      and\n        /* \"#utility.yul\":3609:3765   */\n      iszero\n      tag_171\n      jumpi\n        /* \"#utility.yul\":3745:3763   */\n      tag_172\n      tag_157\n      jump\t// in\n    tag_172:\n        /* \"#utility.yul\":3609:3765   */\n    tag_171:\n        /* \"#utility.yul\":3788:3789   */\n      dup3\n        /* \"#utility.yul\":3785:3786   */\n      dup3\n        /* \"#utility.yul\":3780:3790   */\n      sdiv\n        /* \"#utility.yul\":3775:3790   */\n      swap1\n      pop\n        /* \"#utility.yul\":3411:3796   */\n      swap3\n      swap2\n      pop\n      pop\n      jump\t// out\n        /* \"#utility.yul\":3802:3987   */\n    tag_90:\n        /* \"#utility.yul\":3842:3843   */\n      0x00\n        /* \"#utility.yul\":3859:3879   */\n      tag_174\n        /* \"#utility.yul\":3877:3878   */\n      dup3\n        /* \"#utility.yul\":3859:3879   */\n      tag_143\n      jump\t// in\n    tag_174:\n        /* \"#utility.yul\":3854:3879   */\n      swap2\n      pop\n        /* \"#utility.yul\":3893:3913   */\n      tag_175\n        /* \"#utility.yul\":3911:3912   */\n      dup4\n        /* \"#utility.yul\":3893:3913   */\n      tag_143\n      jump\t// in\n    tag_175:\n        /* \"#utility.yul\":3888:3913   */\n      swap3\n      pop\n        /* \"#utility.yul\":3932:3933   */\n      dup3\n        /* \"#utility.yul\":3922:3957   */\n      tag_176\n      jumpi\n        /* \"#utility.yul\":3937:3955   */\n      tag_177\n      tag_170\n      jump\t// in\n    tag_177:\n        /* \"#utility.yul\":3922:3957   */\n    tag_176:\n        /* \"#utility.yul\":3979:3980   */\n      dup3\n        /* \"#utility.yul\":3976:3977   */\n      dup3\n        /* \"#utility.yul\":3972:3981   */\n      div\n        /* \"#utility.yul\":3967:3981   */\n      swap1\n      pop\n        /* \"#utility.yul\":3802:3987   */\n      swap3\n      swap2\n      pop\n      pop\n      jump\t// out\n        /* \"#utility.yul\":3993:4984   */\n    tag_63:\n        /* \"#utility.yul\":4032:4039   */\n      0x00\n        /* \"#utility.yul\":4055:4074   */\n      tag_179\n        /* \"#utility.yul\":4072:4073   */\n      dup3\n        /* \"#utility.yul\":4055:4074   */\n      tag_135\n      jump\t// in\n    tag_179:\n        /* \"#utility.yul\":4050:4074   */\n      swap2\n      pop\n        /* \"#utility.yul\":4088:4107   */\n      tag_180\n        /* \"#utility.yul\":4105:4106   */\n      dup4\n        /* \"#utility.yul\":4088:4107   */\n      tag_135\n      jump\t// in\n    tag_180:\n        /* \"#utility.yul\":4083:4107   */\n      swap3\n      pop\n        /* \"#utility.yul\":4289:4290   */\n      dup3\n        /* \"#utility.yul\":4221:4287   */\n      0x7fffffffffffffffffffffffffffffffffffffffffffffffffffffffffffffff\n        /* \"#utility.yul\":4217:4291   */\n      div\n        /* \"#utility.yul\":4214:4215   */\n      dup3\n        /* \"#utility.yul\":4211:4292   */\n      gt\n        /* \"#utility.yul\":4206:4207   */\n      0x00\n        /* \"#utility.yul\":4203:4204   */\n      dup5\n        /* \"#utility.yul\":4199:4208   */\n      sgt\n        /* \"#utility.yul\":4195:4196   */\n      0x00\n        /* \"#utility.yul\":4192:4193   */\n      dup5\n        /* \"#utility.yul\":4188:4197   */\n      sgt\n        /* \"#utility.yul\":4184:4209   */\n      and\n        /* \"#utility.yul\":4180:4293   */\n      and\n        /* \"#utility.yul\":4177:4316   */\n      iszero\n      tag_181\n      jumpi\n        /* \"#utility.yul\":4296:4314   */\n      tag_182\n      tag_157\n      jump\t// in\n    tag_182:\n        /* \"#utility.yul\":4177:4316   */\n    tag_181:\n        /* \"#utility.yul\":4500:4501   */\n      dup2\n        /* \"#utility.yul\":4432:4498   */\n      0x8000000000000000000000000000000000000000000000000000000000000000\n        /* \"#utility.yul\":4427:4502   */\n      sdiv\n        /* \"#utility.yul\":4424:4425   */\n      dup4\n        /* \"#utility.yul\":4420:4503   */\n      slt\n        /* \"#utility.yul\":4415:4416   */\n      0x00\n        /* \"#utility.yul\":4412:4413   */\n      dup5\n        /* \"#utility.yul\":4408:4417   */\n      slt\n        /* \"#utility.yul\":4404:4405   */\n      0x00\n        /* \"#utility.yul\":4401:4402   */\n      dup5\n        /* \"#utility.yul\":4397:4406   */\n      sgt\n        /* \"#utility.yul\":4393:4418   */\n      and\n        /* \"#utility.yul\":4389:4504   */\n      and\n        /* \"#utility.yul\":4386:4527   */\n      iszero\n      tag_183\n      jumpi\n        /* \"#utility.yul\":4507:4525   */\n      tag_184\n      tag_157\n      jump\t// in\n    tag_184:\n        /* \"#utility.yul\":4386:4527   */\n    tag_183:\n        /* \"#utility.yul\":4711:4712   */\n      dup3\n        /* \"#utility.yul\":4643:4709   */\n      0x8000000000000000000000000000000000000000000000000000000000000000\n        /* \"#utility.yul\":4638:4713   */\n      sdiv\n        /* \"#utility.yul\":4635:4636   */\n      dup3\n        /* \"#utility.yul\":4631:4714   */\n      slt\n        /* \"#utility.yul\":4626:4627   */\n      0x00\n        /* \"#utility.yul\":4623:4624   */\n      dup5\n        /* \"#utility.yul\":4619:4628   */\n      sgt\n        /* \"#utility.yul\":4615:4616   */\n      0x00\n        /* \"#utility.yul\":4612:4613   */\n      dup5\n        /* \"#utility.yul\":4608:4617   */\n      slt\n        /* \"#utility.yul\":4604:4629   */\n      and\n        /* \"#utility.yul\":4600:4715   */\n      and\n        /* \"#utility.yul\":4597:4738   */\n      iszero\n      tag_185\n      jumpi\n        /* \"#utility.yul\":4718:4736   */\n      tag_186\n      tag_157\n      jump\t// in\n    tag_186:\n        /* \"#utility.yul\":4597:4738   */\n    tag_185:\n        /* \"#utility.yul\":4921:4922   */\n      dup3\n        /* \"#utility.yul\":4853:4919   */\n      0x7fffffffffffffffffffffffffffffffffffffffffffffffffffffffffffffff\n        /* \"#utility.yul\":4848:4923   */\n      sdiv\n        /* \"#utility.yul\":4845:4846   */\n      dup3\n        /* \"#utility.yul\":4841:4924   */\n      slt\n        /* \"#utility.yul\":4836:4837   */\n      0x00\n        /* \"#utility.yul\":4833:4834   */\n      dup5\n        /* \"#utility.yul\":4829:4838   */\n      slt\n        /* \"#utility.yul\":4825:4826   */\n      0x00\n        /* \"#utility.yul\":4822:4823   */\n      dup5\n        /* \"#utility.yul\":4818:4827   */\n      slt\n        /* \"#utility.yul\":4814:4839   */\n      and\n        /* \"#utility.yul\":4810:4925   */\n      and\n        /* \"#utility.yul\":4807:4948   */\n      iszero\n      tag_187\n      jumpi\n        /* \"#utility.yul\":4928:4946   */\n      tag_188\n      tag_157\n      jump\t// in\n    tag_188:\n        /* \"#utility.yul\":4807:4948   */\n    tag_187:\n        /* \"#utility.yul\":4976:4977   */\n      dup3\n        /* \"#utility.yul\":4973:4974   */\n      dup3\n        /* \"#utility.yul\":4969:4978   */\n      mul\n        /* \"#utility.yul\":4958:4978   */\n      swap1\n      pop\n        /* \"#utility.yul\":3993:4984   */\n      swap3\n      swap2\n      pop\n      pop\n      jump\t// out\n        /* \"#utility.yul\":4990:5338   */\n    tag_81:\n        /* \"#utility.yul\":5030:5037   */\n      0x00\n        /* \"#utility.yul\":5053:5073   */\n      tag_190\n        /* \"#utility.yul\":5071:5072   */\n      dup3\n        /* \"#utility.yul\":5053:5073   */\n      tag_143\n      jump\t// in\n    tag_190:\n        /* \"#utility.yul\":5048:5073   */\n      swap2\n      pop\n        /* \"#utility.yul\":5087:5107   */\n      tag_191\n        /* \"#utility.yul\":5105:5106   */\n      dup4\n        /* \"#utility.yul\":5087:5107   */\n      tag_143\n      jump\t// in\n    tag_191:\n        /* \"#utility.yul\":5082:5107   */\n      swap3\n      pop\n        /* \"#utility.yul\":5275:5276   */\n      dup2\n        /* \"#utility.yul\":5207:5273   */\n      0xffffffffffffffffffffffffffffffffffffffffffffffffffffffffffffffff\n        /* \"#utility.yul\":5203:5277   */\n      div\n        /* \"#utility.yul\":5200:5201   */\n      dup4\n        /* \"#utility.yul\":5197:5278   */\n      gt\n        /* \"#utility.yul\":5192:5193   */\n      dup3\n        /* \"#utility.yul\":5185:5194   */\n      iszero\n        /* \"#utility.yul\":5178:5195   */\n      iszero\n        /* \"#utility.yul\":5174:5279   */\n      and\n        /* \"#utility.yul\":5171:5302   */\n      iszero\n      tag_192\n      jumpi\n        /* \"#utility.yul\":5282:5300   */\n      tag_193\n      tag_157\n      jump\t// in\n    tag_193:\n        /* \"#utility.yul\":5171:5302   */\n    tag_192:\n        /* \"#utility.yul\":5330:5331   */\n      dup3\n        /* \"#utility.yul\":5327:5328   */\n      dup3\n        /* \"#utility.yul\":5323:5332   */\n      mul\n        /* \"#utility.yul\":5312:5332   */\n      swap1\n      pop\n        /* \"#utility.yul\":4990:5338   */\n      swap3\n      swap2\n      pop\n      pop\n      jump\t// out\n        /* \"#utility.yul\":5344:5871   */\n    tag_66:\n        /* \"#utility.yul\":5383:5387   */\n      0x00\n        /* \"#utility.yul\":5403:5422   */\n      tag_195\n        /* \"#utility.yul\":5420:5421   */\n      dup3\n        /* \"#utility.yul\":5403:5422   */\n      tag_135\n      jump\t// in\n    tag_195:\n        /* \"#utility.yul\":5398:5422   */\n      swap2\n      pop\n        /* \"#utility.yul\":5436:5455   */\n      tag_196\n        /* \"#utility.yul\":5453:5454   */\n      dup4\n        /* \"#utility.yul\":5436:5455   */\n      tag_135\n      jump\t// in\n    tag_196:\n        /* \"#utility.yul\":5431:5455   */\n      swap3\n      pop\n        /* \"#utility.yul\":5625:5626   */\n      dup3\n        /* \"#utility.yul\":5557:5623   */\n      0x8000000000000000000000000000000000000000000000000000000000000000\n        /* \"#utility.yul\":5553:5627   */\n      add\n        /* \"#utility.yul\":5550:5551   */\n      dup3\n        /* \"#utility.yul\":5546:5628   */\n      slt\n        /* \"#utility.yul\":5541:5542   */\n      0x00\n        /* \"#utility.yul\":5538:5539   */\n      dup5\n        /* \"#utility.yul\":5534:5543   */\n      slt\n        /* \"#utility.yul\":5527:5544   */\n      iszero\n        /* \"#utility.yul\":5523:5629   */\n      and\n        /* \"#utility.yul\":5520:5652   */\n      iszero\n      tag_197\n      jumpi\n        /* \"#utility.yul\":5632:5650   */\n      tag_198\n      tag_157\n      jump\t// in\n    tag_198:\n        /* \"#utility.yul\":5520:5652   */\n    tag_197:\n        /* \"#utility.yul\":5811:5812   */\n      dup3\n        /* \"#utility.yul\":5743:5809   */\n      0x7fffffffffffffffffffffffffffffffffffffffffffffffffffffffffffffff\n        /* \"#utility.yul\":5739:5813   */\n      add\n        /* \"#utility.yul\":5736:5737   */\n      dup3\n        /* \"#utility.yul\":5732:5814   */\n      sgt\n        /* \"#utility.yul\":5728:5729   */\n      0x00\n        /* \"#utility.yul\":5725:5726   */\n      dup5\n        /* \"#utility.yul\":5721:5730   */\n      slt\n        /* \"#utility.yul\":5717:5815   */\n      and\n        /* \"#utility.yul\":5714:5838   */\n      iszero\n      tag_199\n      jumpi\n        /* \"#utility.yul\":5818:5836   */\n      tag_200\n      tag_157\n      jump\t// in\n    tag_200:\n        /* \"#utility.yul\":5714:5838   */\n    tag_199:\n        /* \"#utility.yul\":5863:5864   */\n      dup3\n        /* \"#utility.yul\":5860:5861   */\n      dup3\n        /* \"#utility.yul\":5856:5865   */\n      sub\n        /* \"#utility.yul\":5848:5865   */\n      swap1\n      pop\n        /* \"#utility.yul\":5344:5871   */\n      swap3\n      swap2\n      pop\n      pop\n      jump\t// out\n        /* \"#utility.yul\":5877:6068   */\n    tag_79:\n        /* \"#utility.yul\":5917:5921   */\n      0x00\n        /* \"#utility.yul\":5937:5957   */\n      tag_202\n        /* \"#utility.yul\":5955:5956   */\n      dup3\n        /* \"#utility.yul\":5937:5957   */\n      tag_143\n      jump\t// in\n    tag_202:\n        /* \"#utility.yul\":5932:5957   */\n      swap2\n      pop\n        /* \"#utility.yul\":5971:5991   */\n      tag_203\n        /* \"#utility.yul\":5989:5990   */\n      dup4\n        /* \"#utility.yul\":5971:5991   */\n      tag_143\n      jump\t// in\n    tag_203:\n        /* \"#utility.yul\":5966:5991   */\n      swap3\n      pop\n        /* \"#utility.yul\":6010:6011   */\n      dup3\n        /* \"#utility.yul\":6007:6008   */\n      dup3\n        /* \"#utility.yul\":6004:6012   */\n      lt\n        /* \"#utility.yul\":6001:6035   */\n      iszero\n      tag_204\n      jumpi\n        /* \"#utility.yul\":6015:6033   */\n      tag_205\n      tag_157\n      jump\t// in\n    tag_205:\n        /* \"#utility.yul\":6001:6035   */\n    tag_204:\n        /* \"#utility.yul\":6060:6061   */\n      dup3\n        /* \"#utility.yul\":6057:6058   */\n      dup3\n        /* \"#utility.yul\":6053:6062   */\n      sub\n        /* \"#utility.yul\":6045:6062   */\n      swap1\n      pop\n        /* \"#utility.yul\":5877:6068   */\n      swap3\n      swap2\n      pop\n      pop\n      jump\t// out\n        /* \"#utility.yul\":6074:6150   */\n    tag_135:\n        /* \"#utility.yul\":6110:6117   */\n      0x00\n        /* \"#utility.yul\":6139:6144   */\n      dup2\n        /* \"#utility.yul\":6128:6144   */\n      swap1\n      pop\n        /* \"#utility.yul\":6074:6150   */\n      swap2\n      swap1\n      pop\n      jump\t// out\n        /* \"#utility.yul\":6156:6274   */\n    tag_139:\n        /* \"#utility.yul\":6193:6200   */\n      0x00\n        /* \"#utility.yul\":6233:6267   */\n      0xffffffffffffffffffffffffffffffff\n        /* \"#utility.yul\":6226:6231   */\n      dup3\n        /* \"#utility.yul\":6222:6268   */\n      and\n        /* \"#utility.yul\":6211:6268   */\n      swap1\n      pop\n        /* \"#utility.yul\":6156:6274   */\n      swap2\n      swap1\n      pop\n      jump\t// out\n        /* \"#utility.yul\":6280:6357   */\n    tag_143:\n        /* \"#utility.yul\":6317:6324   */\n      0x00\n        /* \"#utility.yul\":6346:6351   */\n      dup2\n        /* \"#utility.yul\":6335:6351   */\n      swap1\n      pop\n        /* \"#utility.yul\":6280:6357   */\n      swap2\n      swap1\n      pop\n      jump\t// out\n        /* \"#utility.yul\":6363:6591   */\n    tag_71:\n        /* \"#utility.yul\":6398:6401   */\n      0x00\n        /* \"#utility.yul\":6421:6444   */\n      tag_210\n        /* \"#utility.yul\":6438:6443   */\n      dup3\n        /* \"#utility.yul\":6421:6444   */\n      tag_135\n      jump\t// in\n    tag_210:\n        /* \"#utility.yul\":6412:6444   */\n      swap2\n      pop\n        /* \"#utility.yul\":6466:6532   */\n      0x8000000000000000000000000000000000000000000000000000000000000000\n        /* \"#utility.yul\":6459:6464   */\n      dup3\n        /* \"#utility.yul\":6456:6533   */\n      eq\n        /* \"#utility.yul\":6453:6556   */\n      iszero\n      tag_211\n      jumpi\n        /* \"#utility.yul\":6536:6554   */\n      tag_212\n      tag_157\n      jump\t// in\n    tag_212:\n        /* \"#utility.yul\":6453:6556   */\n    tag_211:\n        /* \"#utility.yul\":6579:6584   */\n      dup2\n        /* \"#utility.yul\":6576:6577   */\n      0x00\n        /* \"#utility.yul\":6572:6585   */\n      sub\n        /* \"#utility.yul\":6565:6585   */\n      swap1\n      pop\n        /* \"#utility.yul\":6363:6591   */\n      swap2\n      swap1\n      pop\n      jump\t// out\n        /* \"#utility.yul\":6597:6777   */\n    tag_157:\n        /* \"#utility.yul\":6645:6722   */\n      0x4e487b7100000000000000000000000000000000000000000000000000000000\n        /* \"#utility.yul\":6642:6643   */\n      0x00\n        /* \"#utility.yul\":6635:6723   */\n      mstore\n        /* \"#utility.yul\":6742:6746   */\n      0x11\n        /* \"#utility.yul\":6739:6740   */\n      0x04\n        /* \"#utility.yul\":6732:6747   */\n      mstore\n        /* \"#utility.yul\":6766:6770   */\n      0x24\n        /* \"#utility.yul\":6763:6764   */\n      0x00\n        /* \"#utility.yul\":6756:6771   */\n      revert\n        /* \"#utility.yul\":6783:6963   */\n    tag_170:\n        /* \"#utility.yul\":6831:6908   */\n      0x4e487b7100000000000000000000000000000000000000000000000000000000\n        /* \"#utility.yul\":6828:6829   */\n      0x00\n        /* \"#utility.yul\":6821:6909   */\n      mstore\n        /* \"#utility.yul\":6928:6932   */\n      0x12\n        /* \"#utility.yul\":6925:6926   */\n      0x04\n        /* \"#utility.yul\":6918:6933   */\n      mstore\n        /* \"#utility.yul\":6952:6956   */\n      0x24\n        /* \"#utility.yul\":6949:6950   */\n      0x00\n        /* \"#utility.yul\":6942:6957   */\n      revert\n        /* \"#utility.yul\":7092:7209   */\n    tag_121:\n        /* \"#utility.yul\":7201:7202   */\n      0x00\n        /* \"#utility.yul\":7198:7199   */\n      dup1\n        /* \"#utility.yul\":7191:7203   */\n      revert\n        /* \"#utility.yul\":7215:7335   */\n    tag_113:\n        /* \"#utility.yul\":7287:7310   */\n      tag_219\n        /* \"#utility.yul\":7304:7309   */\n      dup2\n        /* \"#utility.yul\":7287:7310   */\n      tag_135\n      jump\t// in\n    tag_219:\n        /* \"#utility.yul\":7280:7285   */\n      dup2\n        /* \"#utility.yul\":7277:7311   */\n      eq\n        /* \"#utility.yul\":7267:7329   */\n      tag_220\n      jumpi\n        /* \"#utility.yul\":7325:7326   */\n      0x00\n        /* \"#utility.yul\":7322:7323   */\n      dup1\n        /* \"#utility.yul\":7315:7327   */\n      revert\n        /* \"#utility.yul\":7267:7329   */\n    tag_220:\n        /* \"#utility.yul\":7215:7335   */\n      pop\n      jump\t// out\n        /* \"#utility.yul\":7341:7463   */\n    tag_117:\n        /* \"#utility.yul\":7414:7438   */\n      tag_222\n        /* \"#utility.yul\":7432:7437   */\n      dup2\n        /* \"#utility.yul\":7414:7438   */\n      tag_143\n      jump\t// in\n    tag_222:\n        /* \"#utility.yul\":7407:7412   */\n      dup2\n        /* \"#utility.yul\":7404:7439   */\n      eq\n        /* \"#utility.yul\":7394:7457   */\n      tag_223\n      jumpi\n        /* \"#utility.yul\":7453:7454   */\n      0x00\n        /* \"#utility.yul\":7450:7451   */\n      dup1\n        /* \"#utility.yul\":7443:7455   */\n      revert\n        /* \"#utility.yul\":7394:7457   */\n    tag_223:\n        /* \"#utility.yul\":7341:7463   */\n      pop\n      jump\t// out\n\n    auxdata: 0xa2646970667358221220df5e878884402929d552781f3e7c950b2325ca65b80ec7166c536e2525f5a8ec64736f6c63430008070033\n}\n",
				"bytecode": {
					"linkReferences": {},
					"object": "608060405234801561001057600080fd5b50610a84806100206000396000f3fe608060405234801561001057600080fd5b506004361061009e5760003560e01c80637d825142116100665780637d8251421461016f5780637ea9e0581461019f57806383714834146101cf5780638f8a0d19146101ff578063b29400d01461022f5761009e565b806309b7cdda146100a35780630dbe671f146100d3578063187983bf146100f15780634c627bad146101215780634df7e3d014610151575b600080fd5b6100bd60048036038101906100b8919061049b565b61025f565b6040516100ca9190610535565b60405180910390f35b6100db610275565b6040516100e89190610535565b60405180910390f35b61010b6004803603810190610106919061049b565b61027b565b6040516101189190610535565b60405180910390f35b61013b6004803603810190610136919061049b565b610291565b6040516101489190610535565b60405180910390f35b6101596102a7565b6040516101669190610535565b60405180910390f35b6101896004803603810190610184919061046e565b6102ad565b604051610196919061056b565b60405180910390f35b6101b960048036038101906101b4919061046e565b6102d1565b6040516101c6919061056b565b60405180910390f35b6101e960048036038101906101e491906104db565b6102e6565b6040516101f6919061056b565b60405180910390f35b6102196004803603810190610214919061049b565b610321565b6040516102269190610535565b60405180910390f35b610249600480360381019061024491906104db565b610337565b6040516102569190610550565b60405180910390f35b6000818361026d9190610670565b905092915050565b60005481565b60008183610289919061070b565b905092915050565b6000818361029f919061087c565b905092915050565b60015481565b6000808213156102bf578190506102cc565b816102c990610974565b90505b919050565b600081826102df919061070b565b9050919050565b6000600182116102f9576001905061031c565b61030e6001836103099190610910565b6102e6565b826103199190610822565b90505b919050565b6000818361032f9190610586565b905092915050565b60008082101561034657600080fd5b6000821415610358576000905061043f565b6000600190506002818461036c91906106da565b82610377919061061a565b61038191906106da565b90506002818461039191906106da565b8261039c919061061a565b6103a691906106da565b9050600281846103b691906106da565b826103c1919061061a565b6103cb91906106da565b9050600281846103db91906106da565b826103e6919061061a565b6103f091906106da565b90506002818461040091906106da565b8261040b919061061a565b61041591906106da565b90506000818461042591906106da565b90508082101561043957819250505061043f565b80925050505b919050565b60008135905061045381610a20565b92915050565b60008135905061046881610a37565b92915050565b60006020828403121561048457610483610a1b565b5b600061049284828501610444565b91505092915050565b600080604083850312156104b2576104b1610a1b565b5b60006104c085828601610444565b92505060206104d185828601610444565b9150509250929050565b6000602082840312156104f1576104f0610a1b565b5b60006104ff84828501610459565b91505092915050565b61051181610944565b82525050565b6105208161094e565b82525050565b61052f8161096a565b82525050565b600060208201905061054a6000830184610508565b92915050565b60006020820190506105656000830184610517565b92915050565b60006020820190506105806000830184610526565b92915050565b600061059182610944565b915061059c83610944565b9250817f7fffffffffffffffffffffffffffffffffffffffffffffffffffffffffffffff038313600083121516156105d7576105d66109bd565b5b817f800000000000000000000000000000000000000000000000000000000000000003831260008312161561060f5761060e6109bd565b5b828201905092915050565b60006106258261096a565b91506106308361096a565b9250827fffffffffffffffffffffffffffffffffffffffffffffffffffffffffffffffff03821115610665576106646109bd565b5b828201905092915050565b600061067b82610944565b915061068683610944565b925082610696576106956109ec565b5b600160000383147f8000000000000000000000000000000000000000000000000000000000000000831416156106cf576106ce6109bd565b5b828205905092915050565b60006106e58261096a565b91506106f08361096a565b925082610700576106ff6109ec565b5b828204905092915050565b600061071682610944565b915061072183610944565b9250827f7fffffffffffffffffffffffffffffffffffffffffffffffffffffffffffffff04821160008413600084131616156107605761075f6109bd565b5b817f8000000000000000000000000000000000000000000000000000000000000000058312600084126000841316161561079d5761079c6109bd565b5b827f800000000000000000000000000000000000000000000000000000000000000005821260008413600084121616156107da576107d96109bd565b5b827f7fffffffffffffffffffffffffffffffffffffffffffffffffffffffffffffff0582126000841260008412161615610817576108166109bd565b5b828202905092915050565b600061082d8261096a565b91506108388361096a565b9250817fffffffffffffffffffffffffffffffffffffffffffffffffffffffffffffffff0483118215151615610871576108706109bd565b5b828202905092915050565b600061088782610944565b915061089283610944565b9250827f8000000000000000000000000000000000000000000000000000000000000000018212600084121516156108cd576108cc6109bd565b5b827f7fffffffffffffffffffffffffffffffffffffffffffffffffffffffffffffff018213600084121615610905576109046109bd565b5b828203905092915050565b600061091b8261096a565b91506109268361096a565b925082821015610939576109386109bd565b5b828203905092915050565b6000819050919050565b60006fffffffffffffffffffffffffffffffff82169050919050565b6000819050919050565b600061097f82610944565b91507f80000000000000000000000000000000000000000000000000000000000000008214156109b2576109b16109bd565b5b816000039050919050565b7f4e487b7100000000000000000000000000000000000000000000000000000000600052601160045260246000fd5b7f4e487b7100000000000000000000000000000000000000000000000000000000600052601260045260246000fd5b600080fd5b610a2981610944565b8114610a3457600080fd5b50565b610a408161096a565b8114610a4b57600080fd5b5056fea2646970667358221220df5e878884402929d552781f3e7c950b2325ca65b80ec7166c536e2525f5a8ec64736f6c63430008070033",
					"opcodes": "PUSH1 0x80 PUSH1 0x40 MSTORE CALLVALUE DUP1 ISZERO PUSH2 0x10 JUMPI PUSH1 0x0 DUP1 REVERT JUMPDEST POP PUSH2 0xA84 DUP1 PUSH2 0x20 PUSH1 0x0 CODECOPY PUSH1 0x0 RETURN INVALID PUSH1 0x80 PUSH1 0x40 MSTORE CALLVALUE DUP1 ISZERO PUSH2 0x10 JUMPI PUSH1 0x0 DUP1 REVERT JUMPDEST POP PUSH1 0x4 CALLDATASIZE LT PUSH2 0x9E JUMPI PUSH1 0x0 CALLDATALOAD PUSH1 0xE0 SHR DUP1 PUSH4 0x7D825142 GT PUSH2 0x66 JUMPI DUP1 PUSH4 0x7D825142 EQ PUSH2 0x16F JUMPI DUP1 PUSH4 0x7EA9E058 EQ PUSH2 0x19F JUMPI DUP1 PUSH4 0x83714834 EQ PUSH2 0x1CF JUMPI DUP1 PUSH4 0x8F8A0D19 EQ PUSH2 0x1FF JUMPI DUP1 PUSH4 0xB29400D0 EQ PUSH2 0x22F JUMPI PUSH2 0x9E JUMP JUMPDEST DUP1 PUSH4 0x9B7CDDA EQ PUSH2 0xA3 JUMPI DUP1 PUSH4 0xDBE671F EQ PUSH2 0xD3 JUMPI DUP1 PUSH4 0x187983BF EQ PUSH2 0xF1 JUMPI DUP1 PUSH4 0x4C627BAD EQ PUSH2 0x121 JUMPI DUP1 PUSH4 0x4DF7E3D0 EQ PUSH2 0x151 JUMPI JUMPDEST PUSH1 0x0 DUP1 REVERT JUMPDEST PUSH2 0xBD PUSH1 0x4 DUP1 CALLDATASIZE SUB DUP2 ADD SWAP1 PUSH2 0xB8 SWAP2 SWAP1 PUSH2 0x49B JUMP JUMPDEST PUSH2 0x25F JUMP JUMPDEST PUSH1 0x40 MLOAD PUSH2 0xCA SWAP2 SWAP1 PUSH2 0x535 JUMP JUMPDEST PUSH1 0x40 MLOAD DUP1 SWAP2 SUB SWAP1 RETURN JUMPDEST PUSH2 0xDB PUSH2 0x275 JUMP JUMPDEST PUSH1 0x40 MLOAD PUSH2 0xE8 SWAP2 SWAP1 PUSH2 0x535 JUMP JUMPDEST PUSH1 0x40 MLOAD DUP1 SWAP2 SUB SWAP1 RETURN JUMPDEST PUSH2 0x10B PUSH1 0x4 DUP1 CALLDATASIZE SUB DUP2 ADD SWAP1 PUSH2 0x106 SWAP2 SWAP1 PUSH2 0x49B JUMP JUMPDEST PUSH2 0x27B JUMP JUMPDEST PUSH1 0x40 MLOAD PUSH2 0x118 SWAP2 SWAP1 PUSH2 0x535 JUMP JUMPDEST PUSH1 0x40 MLOAD DUP1 SWAP2 SUB SWAP1 RETURN JUMPDEST PUSH2 0x13B PUSH1 0x4 DUP1 CALLDATASIZE SUB DUP2 ADD SWAP1 PUSH2 0x136 SWAP2 SWAP1 PUSH2 0x49B JUMP JUMPDEST PUSH2 0x291 JUMP JUMPDEST PUSH1 0x40 MLOAD PUSH2 0x148 SWAP2 SWAP1 PUSH2 0x535 JUMP JUMPDEST PUSH1 0x40 MLOAD DUP1 SWAP2 SUB SWAP1 RETURN JUMPDEST PUSH2 0x159 PUSH2 0x2A7 JUMP JUMPDEST PUSH1 0x40 MLOAD PUSH2 0x166 SWAP2 SWAP1 PUSH2 0x535 JUMP JUMPDEST PUSH1 0x40 MLOAD DUP1 SWAP2 SUB SWAP1 RETURN JUMPDEST PUSH2 0x189 PUSH1 0x4 DUP1 CALLDATASIZE SUB DUP2 ADD SWAP1 PUSH2 0x184 SWAP2 SWAP1 PUSH2 0x46E JUMP JUMPDEST PUSH2 0x2AD JUMP JUMPDEST PUSH1 0x40 MLOAD PUSH2 0x196 SWAP2 SWAP1 PUSH2 0x56B JUMP JUMPDEST PUSH1 0x40 MLOAD DUP1 SWAP2 SUB SWAP1 RETURN JUMPDEST PUSH2 0x1B9 PUSH1 0x4 DUP1 CALLDATASIZE SUB DUP2 ADD SWAP1 PUSH2 0x1B4 SWAP2 SWAP1 PUSH2 0x46E JUMP JUMPDEST PUSH2 0x2D1 JUMP JUMPDEST PUSH1 0x40 MLOAD PUSH2 0x1C6 SWAP2 SWAP1 PUSH2 0x56B JUMP JUMPDEST PUSH1 0x40 MLOAD DUP1 SWAP2 SUB SWAP1 RETURN JUMPDEST PUSH2 0x1E9 PUSH1 0x4 DUP1 CALLDATASIZE SUB DUP2 ADD SWAP1 PUSH2 0x1E4 SWAP2 SWAP1 PUSH2 0x4DB JUMP JUMPDEST PUSH2 0x2E6 JUMP JUMPDEST PUSH1 0x40 MLOAD PUSH2 0x1F6 SWAP2 SWAP1 PUSH2 0x56B JUMP JUMPDEST PUSH1 0x40 MLOAD DUP1 SWAP2 SUB SWAP1 RETURN JUMPDEST PUSH2 0x219 PUSH1 0x4 DUP1 CALLDATASIZE SUB DUP2 ADD SWAP1 PUSH2 0x214 SWAP2 SWAP1 PUSH2 0x49B JUMP JUMPDEST PUSH2 0x321 JUMP JUMPDEST PUSH1 0x40 MLOAD PUSH2 0x226 SWAP2 SWAP1 PUSH2 0x535 JUMP JUMPDEST PUSH1 0x40 MLOAD DUP1 SWAP2 SUB SWAP1 RETURN JUMPDEST PUSH2 0x249 PUSH1 0x4 DUP1 CALLDATASIZE SUB DUP2 ADD SWAP1 PUSH2 0x244 SWAP2 SWAP1 PUSH2 0x4DB JUMP JUMPDEST PUSH2 0x337 JUMP JUMPDEST PUSH1 0x40 MLOAD PUSH2 0x256 SWAP2 SWAP1 PUSH2 0x550 JUMP JUMPDEST PUSH1 0x40 MLOAD DUP1 SWAP2 SUB SWAP1 RETURN JUMPDEST PUSH1 0x0 DUP2 DUP4 PUSH2 0x26D SWAP2 SWAP1 PUSH2 0x670 JUMP JUMPDEST SWAP1 POP SWAP3 SWAP2 POP POP JUMP JUMPDEST PUSH1 0x0 SLOAD DUP2 JUMP JUMPDEST PUSH1 0x0 DUP2 DUP4 PUSH2 0x289 SWAP2 SWAP1 PUSH2 0x70B JUMP JUMPDEST SWAP1 POP SWAP3 SWAP2 POP POP JUMP JUMPDEST PUSH1 0x0 DUP2 DUP4 PUSH2 0x29F SWAP2 SWAP1 PUSH2 0x87C JUMP JUMPDEST SWAP1 POP SWAP3 SWAP2 POP POP JUMP JUMPDEST PUSH1 0x1 SLOAD DUP2 JUMP JUMPDEST PUSH1 0x0 DUP1 DUP3 SGT ISZERO PUSH2 0x2BF JUMPI DUP2 SWAP1 POP PUSH2 0x2CC JUMP JUMPDEST DUP2 PUSH2 0x2C9 SWAP1 PUSH2 0x974 JUMP JUMPDEST SWAP1 POP JUMPDEST SWAP2 SWAP1 POP JUMP JUMPDEST PUSH1 0x0 DUP2 DUP3 PUSH2 0x2DF SWAP2 SWAP1 PUSH2 0x70B JUMP JUMPDEST SWAP1 POP SWAP2 SWAP1 POP JUMP JUMPDEST PUSH1 0x0 PUSH1 0x1 DUP3 GT PUSH2 0x2F9 JUMPI PUSH1 0x1 SWAP1 POP PUSH2 0x31C JUMP JUMPDEST PUSH2 0x30E PUSH1 0x1 DUP4 PUSH2 0x309 SWAP2 SWAP1 PUSH2 0x910 JUMP JUMPDEST PUSH2 0x2E6 JUMP JUMPDEST DUP3 PUSH2 0x319 SWAP2 SWAP1 PUSH2 0x822 JUMP JUMPDEST SWAP1 POP JUMPDEST SWAP2 SWAP1 POP JUMP JUMPDEST PUSH1 0x0 DUP2 DUP4 PUSH2 0x32F SWAP2 SWAP1 PUSH2 0x586 JUMP JUMPDEST SWAP1 POP SWAP3 SWAP2 POP POP JUMP JUMPDEST PUSH1 0x0 DUP1 DUP3 LT ISZERO PUSH2 0x346 JUMPI PUSH1 0x0 DUP1 REVERT JUMPDEST PUSH1 0x0 DUP3 EQ ISZERO PUSH2 0x358 JUMPI PUSH1 0x0 SWAP1 POP PUSH2 0x43F JUMP JUMPDEST PUSH1 0x0 PUSH1 0x1 SWAP1 POP PUSH1 0x2 DUP2 DUP5 PUSH2 0x36C SWAP2 SWAP1 PUSH2 0x6DA JUMP JUMPDEST DUP3 PUSH2 0x377 SWAP2 SWAP1 PUSH2 0x61A JUMP JUMPDEST PUSH2 0x381 SWAP2 SWAP1 PUSH2 0x6DA JUMP JUMPDEST SWAP1 POP PUSH1 0x2 DUP2 DUP5 PUSH2 0x391 SWAP2 SWAP1 PUSH2 0x6DA JUMP JUMPDEST DUP3 PUSH2 0x39C SWAP2 SWAP1 PUSH2 0x61A JUMP JUMPDEST PUSH2 0x3A6 SWAP2 SWAP1 PUSH2 0x6DA JUMP JUMPDEST SWAP1 POP PUSH1 0x2 DUP2 DUP5 PUSH2 0x3B6 SWAP2 SWAP1 PUSH2 0x6DA JUMP JUMPDEST DUP3 PUSH2 0x3C1 SWAP2 SWAP1 PUSH2 0x61A JUMP JUMPDEST PUSH2 0x3CB SWAP2 SWAP1 PUSH2 0x6DA JUMP JUMPDEST SWAP1 POP PUSH1 0x2 DUP2 DUP5 PUSH2 0x3DB SWAP2 SWAP1 PUSH2 0x6DA JUMP JUMPDEST DUP3 PUSH2 0x3E6 SWAP2 SWAP1 PUSH2 0x61A JUMP JUMPDEST PUSH2 0x3F0 SWAP2 SWAP1 PUSH2 0x6DA JUMP JUMPDEST SWAP1 POP PUSH1 0x2 DUP2 DUP5 PUSH2 0x400 SWAP2 SWAP1 PUSH2 0x6DA JUMP JUMPDEST DUP3 PUSH2 0x40B SWAP2 SWAP1 PUSH2 0x61A JUMP JUMPDEST PUSH2 0x415 SWAP2 SWAP1 PUSH2 0x6DA JUMP JUMPDEST SWAP1 POP PUSH1 0x0 DUP2 DUP5 PUSH2 0x425 SWAP2 SWAP1 PUSH2 0x6DA JUMP JUMPDEST SWAP1 POP DUP1 DUP3 LT ISZERO PUSH2 0x439 JUMPI DUP2 SWAP3 POP POP POP PUSH2 0x43F JUMP JUMPDEST DUP1 SWAP3 POP POP POP JUMPDEST SWAP2 SWAP1 POP JUMP JUMPDEST PUSH1 0x0 DUP2 CALLDATALOAD SWAP1 POP PUSH2 0x453 DUP2 PUSH2 0xA20 JUMP JUMPDEST SWAP3 SWAP2 POP POP JUMP JUMPDEST PUSH1 0x0 DUP2 CALLDATALOAD SWAP1 POP PUSH2 0x468 DUP2 PUSH2 0xA37 JUMP JUMPDEST SWAP3 SWAP2 POP POP JUMP JUMPDEST PUSH1 0x0 PUSH1 0x20 DUP3 DUP5 SUB SLT ISZERO PUSH2 0x484 JUMPI PUSH2 0x483 PUSH2 0xA1B JUMP JUMPDEST JUMPDEST PUSH1 0x0 PUSH2 0x492 DUP5 DUP3 DUP6 ADD PUSH2 0x444 JUMP JUMPDEST SWAP2 POP POP SWAP3 SWAP2 POP POP JUMP JUMPDEST PUSH1 0x0 DUP1 PUSH1 0x40 DUP4 DUP6 SUB SLT ISZERO PUSH2 0x4B2 JUMPI PUSH2 0x4B1 PUSH2 0xA1B JUMP JUMPDEST JUMPDEST PUSH1 0x0 PUSH2 0x4C0 DUP6 DUP3 DUP7 ADD PUSH2 0x444 JUMP JUMPDEST SWAP3 POP POP PUSH1 0x20 PUSH2 0x4D1 DUP6 DUP3 DUP7 ADD PUSH2 0x444 JUMP JUMPDEST SWAP2 POP POP SWAP3 POP SWAP3 SWAP1 POP JUMP JUMPDEST PUSH1 0x0 PUSH1 0x20 DUP3 DUP5 SUB SLT ISZERO PUSH2 0x4F1 JUMPI PUSH2 0x4F0 PUSH2 0xA1B JUMP JUMPDEST JUMPDEST PUSH1 0x0 PUSH2 0x4FF DUP5 DUP3 DUP6 ADD PUSH2 0x459 JUMP JUMPDEST SWAP2 POP POP SWAP3 SWAP2 POP POP JUMP JUMPDEST PUSH2 0x511 DUP2 PUSH2 0x944 JUMP JUMPDEST DUP3 MSTORE POP POP JUMP JUMPDEST PUSH2 0x520 DUP2 PUSH2 0x94E JUMP JUMPDEST DUP3 MSTORE POP POP JUMP JUMPDEST PUSH2 0x52F DUP2 PUSH2 0x96A JUMP JUMPDEST DUP3 MSTORE POP POP JUMP JUMPDEST PUSH1 0x0 PUSH1 0x20 DUP3 ADD SWAP1 POP PUSH2 0x54A PUSH1 0x0 DUP4 ADD DUP5 PUSH2 0x508 JUMP JUMPDEST SWAP3 SWAP2 POP POP JUMP JUMPDEST PUSH1 0x0 PUSH1 0x20 DUP3 ADD SWAP1 POP PUSH2 0x565 PUSH1 0x0 DUP4 ADD DUP5 PUSH2 0x517 JUMP JUMPDEST SWAP3 SWAP2 POP POP JUMP JUMPDEST PUSH1 0x0 PUSH1 0x20 DUP3 ADD SWAP1 POP PUSH2 0x580 PUSH1 0x0 DUP4 ADD DUP5 PUSH2 0x526 JUMP JUMPDEST SWAP3 SWAP2 POP POP JUMP JUMPDEST PUSH1 0x0 PUSH2 0x591 DUP3 PUSH2 0x944 JUMP JUMPDEST SWAP2 POP PUSH2 0x59C DUP4 PUSH2 0x944 JUMP JUMPDEST SWAP3 POP DUP2 PUSH32 0x7FFFFFFFFFFFFFFFFFFFFFFFFFFFFFFFFFFFFFFFFFFFFFFFFFFFFFFFFFFFFFFF SUB DUP4 SGT PUSH1 0x0 DUP4 SLT ISZERO AND ISZERO PUSH2 0x5D7 JUMPI PUSH2 0x5D6 PUSH2 0x9BD JUMP JUMPDEST JUMPDEST DUP2 PUSH32 0x8000000000000000000000000000000000000000000000000000000000000000 SUB DUP4 SLT PUSH1 0x0 DUP4 SLT AND ISZERO PUSH2 0x60F JUMPI PUSH2 0x60E PUSH2 0x9BD JUMP JUMPDEST JUMPDEST DUP3 DUP3 ADD SWAP1 POP SWAP3 SWAP2 POP POP JUMP JUMPDEST PUSH1 0x0 PUSH2 0x625 DUP3 PUSH2 0x96A JUMP JUMPDEST SWAP2 POP PUSH2 0x630 DUP4 PUSH2 0x96A JUMP JUMPDEST SWAP3 POP DUP3 PUSH32 0xFFFFFFFFFFFFFFFFFFFFFFFFFFFFFFFFFFFFFFFFFFFFFFFFFFFFFFFFFFFFFFFF SUB DUP3 GT ISZERO PUSH2 0x665 JUMPI PUSH2 0x664 PUSH2 0x9BD JUMP JUMPDEST JUMPDEST DUP3 DUP3 ADD SWAP1 POP SWAP3 SWAP2 POP POP JUMP JUMPDEST PUSH1 0x0 PUSH2 0x67B DUP3 PUSH2 0x944 JUMP JUMPDEST SWAP2 POP PUSH2 0x686 DUP4 PUSH2 0x944 JUMP JUMPDEST SWAP3 POP DUP3 PUSH2 0x696 JUMPI PUSH2 0x695 PUSH2 0x9EC JUMP JUMPDEST JUMPDEST PUSH1 0x1 PUSH1 0x0 SUB DUP4 EQ PUSH32 0x8000000000000000000000000000000000000000000000000000000000000000 DUP4 EQ AND ISZERO PUSH2 0x6CF JUMPI PUSH2 0x6CE PUSH2 0x9BD JUMP JUMPDEST JUMPDEST DUP3 DUP3 SDIV SWAP1 POP SWAP3 SWAP2 POP POP JUMP JUMPDEST PUSH1 0x0 PUSH2 0x6E5 DUP3 PUSH2 0x96A JUMP JUMPDEST SWAP2 POP PUSH2 0x6F0 DUP4 PUSH2 0x96A JUMP JUMPDEST SWAP3 POP DUP3 PUSH2 0x700 JUMPI PUSH2 0x6FF PUSH2 0x9EC JUMP JUMPDEST JUMPDEST DUP3 DUP3 DIV SWAP1 POP SWAP3 SWAP2 POP POP JUMP JUMPDEST PUSH1 0x0 PUSH2 0x716 DUP3 PUSH2 0x944 JUMP JUMPDEST SWAP2 POP PUSH2 0x721 DUP4 PUSH2 0x944 JUMP JUMPDEST SWAP3 POP DUP3 PUSH32 0x7FFFFFFFFFFFFFFFFFFFFFFFFFFFFFFFFFFFFFFFFFFFFFFFFFFFFFFFFFFFFFFF DIV DUP3 GT PUSH1 0x0 DUP5 SGT PUSH1 0x0 DUP5 SGT AND AND ISZERO PUSH2 0x760 JUMPI PUSH2 0x75F PUSH2 0x9BD JUMP JUMPDEST JUMPDEST DUP2 PUSH32 0x8000000000000000000000000000000000000000000000000000000000000000 SDIV DUP4 SLT PUSH1 0x0 DUP5 SLT PUSH1 0x0 DUP5 SGT AND AND ISZERO PUSH2 0x79D JUMPI PUSH2 0x79C PUSH2 0x9BD JUMP JUMPDEST JUMPDEST DUP3 PUSH32 0x8000000000000000000000000000000000000000000000000000000000000000 SDIV DUP3 SLT PUSH1 0x0 DUP5 SGT PUSH1 0x0 DUP5 SLT AND AND ISZERO PUSH2 0x7DA JUMPI PUSH2 0x7D9 PUSH2 0x9BD JUMP JUMPDEST JUMPDEST DUP3 PUSH32 0x7FFFFFFFFFFFFFFFFFFFFFFFFFFFFFFFFFFFFFFFFFFFFFFFFFFFFFFFFFFFFFFF SDIV DUP3 SLT PUSH1 0x0 DUP5 SLT PUSH1 0x0 DUP5 SLT AND AND ISZERO PUSH2 0x817 JUMPI PUSH2 0x816 PUSH2 0x9BD JUMP JUMPDEST JUMPDEST DUP3 DUP3 MUL SWAP1 POP SWAP3 SWAP2 POP POP JUMP JUMPDEST PUSH1 0x0 PUSH2 0x82D DUP3 PUSH2 0x96A JUMP JUMPDEST SWAP2 POP PUSH2 0x838 DUP4 PUSH2 0x96A JUMP JUMPDEST SWAP3 POP DUP2 PUSH32 0xFFFFFFFFFFFFFFFFFFFFFFFFFFFFFFFFFFFFFFFFFFFFFFFFFFFFFFFFFFFFFFFF DIV DUP4 GT DUP3 ISZERO ISZERO AND ISZERO PUSH2 0x871 JUMPI PUSH2 0x870 PUSH2 0x9BD JUMP JUMPDEST JUMPDEST DUP3 DUP3 MUL SWAP1 POP SWAP3 SWAP2 POP POP JUMP JUMPDEST PUSH1 0x0 PUSH2 0x887 DUP3 PUSH2 0x944 JUMP JUMPDEST SWAP2 POP PUSH2 0x892 DUP4 PUSH2 0x944 JUMP JUMPDEST SWAP3 POP DUP3 PUSH32 0x8000000000000000000000000000000000000000000000000000000000000000 ADD DUP3 SLT PUSH1 0x0 DUP5 SLT ISZERO AND ISZERO PUSH2 0x8CD JUMPI PUSH2 0x8CC PUSH2 0x9BD JUMP JUMPDEST JUMPDEST DUP3 PUSH32 0x7FFFFFFFFFFFFFFFFFFFFFFFFFFFFFFFFFFFFFFFFFFFFFFFFFFFFFFFFFFFFFFF ADD DUP3 SGT PUSH1 0x0 DUP5 SLT AND ISZERO PUSH2 0x905 JUMPI PUSH2 0x904 PUSH2 0x9BD JUMP JUMPDEST JUMPDEST DUP3 DUP3 SUB SWAP1 POP SWAP3 SWAP2 POP POP JUMP JUMPDEST PUSH1 0x0 PUSH2 0x91B DUP3 PUSH2 0x96A JUMP JUMPDEST SWAP2 POP PUSH2 0x926 DUP4 PUSH2 0x96A JUMP JUMPDEST SWAP3 POP DUP3 DUP3 LT ISZERO PUSH2 0x939 JUMPI PUSH2 0x938 PUSH2 0x9BD JUMP JUMPDEST JUMPDEST DUP3 DUP3 SUB SWAP1 POP SWAP3 SWAP2 POP POP JUMP JUMPDEST PUSH1 0x0 DUP2 SWAP1 POP SWAP2 SWAP1 POP JUMP JUMPDEST PUSH1 0x0 PUSH16 0xFFFFFFFFFFFFFFFFFFFFFFFFFFFFFFFF DUP3 AND SWAP1 POP SWAP2 SWAP1 POP JUMP JUMPDEST PUSH1 0x0 DUP2 SWAP1 POP SWAP2 SWAP1 POP JUMP JUMPDEST PUSH1 0x0 PUSH2 0x97F DUP3 PUSH2 0x944 JUMP JUMPDEST SWAP2 POP PUSH32 0x8000000000000000000000000000000000000000000000000000000000000000 DUP3 EQ ISZERO PUSH2 0x9B2 JUMPI PUSH2 0x9B1 PUSH2 0x9BD JUMP JUMPDEST JUMPDEST DUP2 PUSH1 0x0 SUB SWAP1 POP SWAP2 SWAP1 POP JUMP JUMPDEST PUSH32 0x4E487B7100000000000000000000000000000000000000000000000000000000 PUSH1 0x0 MSTORE PUSH1 0x11 PUSH1 0x4 MSTORE PUSH1 0x24 PUSH1 0x0 REVERT JUMPDEST PUSH32 0x4E487B7100000000000000000000000000000000000000000000000000000000 PUSH1 0x0 MSTORE PUSH1 0x12 PUSH1 0x4 MSTORE PUSH1 0x24 PUSH1 0x0 REVERT JUMPDEST PUSH1 0x0 DUP1 REVERT JUMPDEST PUSH2 0xA29 DUP2 PUSH2 0x944 JUMP JUMPDEST DUP2 EQ PUSH2 0xA34 JUMPI PUSH1 0x0 DUP1 REVERT JUMPDEST POP JUMP JUMPDEST PUSH2 0xA40 DUP2 PUSH2 0x96A JUMP JUMPDEST DUP2 EQ PUSH2 0xA4B JUMPI PUSH1 0x0 DUP1 REVERT JUMPDEST POP JUMP INVALID LOG2 PUSH5 0x6970667358 0x22 SLT KECCAK256 0xDF 0x5E DUP8 DUP9 DUP5 BLOCKHASH 0x29 0x29 0xD5 MSTORE PUSH25 0x1F3E7C950B2325CA65B80EC7166C536E2525F5A8EC64736F6C PUSH4 0x43000807 STOP CALLER "
				},
				"gasEstimates": {
					"creation": {
						"codeDepositCost": "538400",
						"executionCost": "575",
						"totalCost": "538975"
					},
					"external": {
						"a()": "2452",
						"b()": "2518",
						"cuadrado(int256)": "infinite",
						"division(int256,int256)": "infinite",
						"factorial(uint256)": "infinite",
						"multiplicacion(int256,int256)": "infinite",
						"raizCuadrada(uint256)": "infinite",
						"resta(int256,int256)": "infinite",
						"suma(int256,int256)": "infinite",
						"valorAbsoluto(int256)": "infinite"
					}
				},
				"methodIdentifiers": {
					"a()": "0dbe671f",
					"b()": "4df7e3d0",
					"cuadrado(int256)": "7ea9e058",
					"division(int256,int256)": "09b7cdda",
					"factorial(uint256)": "83714834",
					"multiplicacion(int256,int256)": "187983bf",
					"raizCuadrada(uint256)": "b29400d0",
					"resta(int256,int256)": "4c627bad",
					"suma(int256,int256)": "8f8a0d19",
					"valorAbsoluto(int256)": "7d825142"
				}
			},
			"storageLayout": {
				"storage": [
					{
						"astId": 3,
						"contract": "Documents/GitHub/SOLIDITY-REMIX/5ef069451e67668750287d64bc5f8bae/calculadora.sol:Calculadora",
						"label": "a",
						"offset": 0,
						"slot": "0",
						"type": "t_int256"
					},
					{
						"astId": 5,
						"contract": "Documents/GitHub/SOLIDITY-REMIX/5ef069451e67668750287d64bc5f8bae/calculadora.sol:Calculadora",
						"label": "b",
						"offset": 0,
						"slot": "1",
						"type": "t_int256"
					}
				],
				"types": {
					"t_int256": {
						"encoding": "inplace",
						"label": "int256",
						"numberOfBytes": "32"
					}
				}
			},
			"userdoc": {
				"kind": "user",
				"methods": {},
				"version": 1
			}
		}
	}
}