{
	"localhost/Documents/GitHub/SOLIDITY-REMIX/5ef069451e67668750287d64bc5f8bae/calculadora_test.sol": {
		"TestCalc": {
			"abi": [
				{
					"inputs": [],
					"name": "beforeAll",
					"outputs": [],
					"stateMutability": "nonpayable",
					"type": "function"
				},
				{
					"inputs": [],
					"name": "checkSuccess",
					"outputs": [],
					"stateMutability": "nonpayable",
					"type": "function"
				}
			],
			"devdoc": {
				"kind": "dev",
				"methods": {},
				"version": 1
			},
			"evm": {
				"assembly": "    /* \"localhost/Documents/GitHub/SOLIDITY-REMIX/5ef069451e67668750287d64bc5f8bae/calculadora_test.sol\":294:1419  contract TestCalc {\r... */\n  mstore(0x40, 0x80)\n  callvalue\n  dup1\n  iszero\n  tag_1\n  jumpi\n  0x00\n  dup1\n  revert\ntag_1:\n  pop\n  dataSize(sub_0)\n  dup1\n  dataOffset(sub_0)\n  0x00\n  codecopy\n  0x00\n  return\nstop\n\nsub_0: assembly {\n        /* \"localhost/Documents/GitHub/SOLIDITY-REMIX/5ef069451e67668750287d64bc5f8bae/calculadora_test.sol\":294:1419  contract TestCalc {\r... */\n      mstore(0x40, 0x80)\n      callvalue\n      dup1\n      iszero\n      tag_1\n      jumpi\n      0x00\n      dup1\n      revert\n    tag_1:\n      pop\n      jumpi(tag_2, lt(calldatasize, 0x04))\n      shr(0xe0, calldataload(0x00))\n      dup1\n      0x011e6492\n      eq\n      tag_3\n      jumpi\n      dup1\n      0x7fea0d4b\n      eq\n      tag_4\n      jumpi\n    tag_2:\n      0x00\n      dup1\n      revert\n        /* \"localhost/Documents/GitHub/SOLIDITY-REMIX/5ef069451e67668750287d64bc5f8bae/calculadora_test.sol\":596:1416  function checkSuccess() public {\r... */\n    tag_3:\n      tag_5\n      tag_6\n      jump\t// in\n    tag_5:\n      stop\n        /* \"localhost/Documents/GitHub/SOLIDITY-REMIX/5ef069451e67668750287d64bc5f8bae/calculadora_test.sol\":482:588  function beforeAll() public {\r... */\n    tag_4:\n      tag_7\n      tag_8\n      jump\t// in\n    tag_7:\n      stop\n        /* \"localhost/Documents/GitHub/SOLIDITY-REMIX/5ef069451e67668750287d64bc5f8bae/calculadora_test.sol\":596:1416  function checkSuccess() public {\r... */\n    tag_6:\n        /* \"localhost/Documents/GitHub/SOLIDITY-REMIX/5ef069451e67668750287d64bc5f8bae/calculadora_test.sol\":735:741  Assert */\n      linkerSymbol(\"acbfb1c35000d78352310b16a054a6b1066124b9c6f054b10c085f549bff80c6\")\n        /* \"localhost/Documents/GitHub/SOLIDITY-REMIX/5ef069451e67668750287d64bc5f8bae/calculadora_test.sol\":735:747  Assert.equal */\n      0xf5bae6b6\n        /* \"localhost/Documents/GitHub/SOLIDITY-REMIX/5ef069451e67668750287d64bc5f8bae/calculadora_test.sol\":748:752  calc */\n      0x00\n      dup1\n      sload\n      swap1\n      0x0100\n      exp\n      swap1\n      div\n      0xffffffffffffffffffffffffffffffffffffffff\n      and\n        /* \"localhost/Documents/GitHub/SOLIDITY-REMIX/5ef069451e67668750287d64bc5f8bae/calculadora_test.sol\":748:757  calc.suma */\n      0xffffffffffffffffffffffffffffffffffffffff\n      and\n      0x8f8a0d19\n        /* \"localhost/Documents/GitHub/SOLIDITY-REMIX/5ef069451e67668750287d64bc5f8bae/calculadora_test.sol\":758:759  9 */\n      0x09\n        /* \"localhost/Documents/GitHub/SOLIDITY-REMIX/5ef069451e67668750287d64bc5f8bae/calculadora_test.sol\":760:761  3 */\n      0x03\n        /* \"localhost/Documents/GitHub/SOLIDITY-REMIX/5ef069451e67668750287d64bc5f8bae/calculadora_test.sol\":748:762  calc.suma(9,3) */\n      mload(0x40)\n      dup4\n      0xffffffff\n      and\n      0xe0\n      shl\n      dup2\n      mstore\n      0x04\n      add\n      tag_10\n      swap3\n      swap2\n      swap1\n      tag_11\n      jump\t// in\n    tag_10:\n      0x20\n      mload(0x40)\n      dup1\n      dup4\n      sub\n      dup2\n      dup7\n      dup1\n      extcodesize\n      iszero\n      dup1\n      iszero\n      tag_12\n      jumpi\n      0x00\n      dup1\n      revert\n    tag_12:\n      pop\n      gas\n      staticcall\n      iszero\n      dup1\n      iszero\n      tag_14\n      jumpi\n      returndatasize\n      0x00\n      dup1\n      returndatacopy\n      revert(0x00, returndatasize)\n    tag_14:\n      pop\n      pop\n      pop\n      pop\n      mload(0x40)\n      returndatasize\n      not(0x1f)\n      0x1f\n      dup3\n      add\n      and\n      dup3\n      add\n      dup1\n      0x40\n      mstore\n      pop\n      dup2\n      add\n      swap1\n      tag_15\n      swap2\n      swap1\n      tag_16\n      jump\t// in\n    tag_15:\n        /* \"localhost/Documents/GitHub/SOLIDITY-REMIX/5ef069451e67668750287d64bc5f8bae/calculadora_test.sol\":763:765  12 */\n      0x0c\n        /* \"localhost/Documents/GitHub/SOLIDITY-REMIX/5ef069451e67668750287d64bc5f8bae/calculadora_test.sol\":735:788  Assert.equal(calc.suma(9,3),12,  \"suma should be 12\") */\n      mload(0x40)\n      dup4\n      0xffffffff\n      and\n      0xe0\n      shl\n      dup2\n      mstore\n      0x04\n      add\n      tag_17\n      swap3\n      swap2\n      swap1\n      tag_18\n      jump\t// in\n    tag_17:\n      0x20\n      mload(0x40)\n      dup1\n      dup4\n      sub\n      dup2\n      dup7\n      dup1\n      extcodesize\n      iszero\n      dup1\n      iszero\n      tag_19\n      jumpi\n      0x00\n      dup1\n      revert\n    tag_19:\n      pop\n      gas\n      delegatecall\n      iszero\n      dup1\n      iszero\n      tag_21\n      jumpi\n      returndatasize\n      0x00\n      dup1\n      returndatacopy\n      revert(0x00, returndatasize)\n    tag_21:\n      pop\n      pop\n      pop\n      pop\n      mload(0x40)\n      returndatasize\n      not(0x1f)\n      0x1f\n      dup3\n      add\n      and\n      dup3\n      add\n      dup1\n      0x40\n      mstore\n      pop\n      dup2\n      add\n      swap1\n      tag_22\n      swap2\n      swap1\n      tag_23\n      jump\t// in\n    tag_22:\n      pop\n        /* \"localhost/Documents/GitHub/SOLIDITY-REMIX/5ef069451e67668750287d64bc5f8bae/calculadora_test.sol\":799:805  Assert */\n      linkerSymbol(\"acbfb1c35000d78352310b16a054a6b1066124b9c6f054b10c085f549bff80c6\")\n        /* \"localhost/Documents/GitHub/SOLIDITY-REMIX/5ef069451e67668750287d64bc5f8bae/calculadora_test.sol\":799:811  Assert.equal */\n      0xf5bae6b6\n        /* \"localhost/Documents/GitHub/SOLIDITY-REMIX/5ef069451e67668750287d64bc5f8bae/calculadora_test.sol\":812:816  calc */\n      0x00\n      dup1\n      sload\n      swap1\n      0x0100\n      exp\n      swap1\n      div\n      0xffffffffffffffffffffffffffffffffffffffff\n      and\n        /* \"localhost/Documents/GitHub/SOLIDITY-REMIX/5ef069451e67668750287d64bc5f8bae/calculadora_test.sol\":812:822  calc.resta */\n      0xffffffffffffffffffffffffffffffffffffffff\n      and\n      0x4c627bad\n        /* \"localhost/Documents/GitHub/SOLIDITY-REMIX/5ef069451e67668750287d64bc5f8bae/calculadora_test.sol\":823:824  9 */\n      0x09\n        /* \"localhost/Documents/GitHub/SOLIDITY-REMIX/5ef069451e67668750287d64bc5f8bae/calculadora_test.sol\":825:826  3 */\n      0x03\n        /* \"localhost/Documents/GitHub/SOLIDITY-REMIX/5ef069451e67668750287d64bc5f8bae/calculadora_test.sol\":812:827  calc.resta(9,3) */\n      mload(0x40)\n      dup4\n      0xffffffff\n      and\n      0xe0\n      shl\n      dup2\n      mstore\n      0x04\n      add\n      tag_24\n      swap3\n      swap2\n      swap1\n      tag_11\n      jump\t// in\n    tag_24:\n      0x20\n      mload(0x40)\n      dup1\n      dup4\n      sub\n      dup2\n      dup7\n      dup1\n      extcodesize\n      iszero\n      dup1\n      iszero\n      tag_25\n      jumpi\n      0x00\n      dup1\n      revert\n    tag_25:\n      pop\n      gas\n      staticcall\n      iszero\n      dup1\n      iszero\n      tag_27\n      jumpi\n      returndatasize\n      0x00\n      dup1\n      returndatacopy\n      revert(0x00, returndatasize)\n    tag_27:\n      pop\n      pop\n      pop\n      pop\n      mload(0x40)\n      returndatasize\n      not(0x1f)\n      0x1f\n      dup3\n      add\n      and\n      dup3\n      add\n      dup1\n      0x40\n      mstore\n      pop\n      dup2\n      add\n      swap1\n      tag_28\n      swap2\n      swap1\n      tag_16\n      jump\t// in\n    tag_28:\n        /* \"localhost/Documents/GitHub/SOLIDITY-REMIX/5ef069451e67668750287d64bc5f8bae/calculadora_test.sol\":828:829  6 */\n      0x06\n        /* \"localhost/Documents/GitHub/SOLIDITY-REMIX/5ef069451e67668750287d64bc5f8bae/calculadora_test.sol\":799:851  Assert.equal(calc.resta(9,3),6, \"resta should be 6\") */\n      mload(0x40)\n      dup4\n      0xffffffff\n      and\n      0xe0\n      shl\n      dup2\n      mstore\n      0x04\n      add\n      tag_29\n      swap3\n      swap2\n      swap1\n      tag_30\n      jump\t// in\n    tag_29:\n      0x20\n      mload(0x40)\n      dup1\n      dup4\n      sub\n      dup2\n      dup7\n      dup1\n      extcodesize\n      iszero\n      dup1\n      iszero\n      tag_31\n      jumpi\n      0x00\n      dup1\n      revert\n    tag_31:\n      pop\n      gas\n      delegatecall\n      iszero\n      dup1\n      iszero\n      tag_33\n      jumpi\n      returndatasize\n      0x00\n      dup1\n      returndatacopy\n      revert(0x00, returndatasize)\n    tag_33:\n      pop\n      pop\n      pop\n      pop\n      mload(0x40)\n      returndatasize\n      not(0x1f)\n      0x1f\n      dup3\n      add\n      and\n      dup3\n      add\n      dup1\n      0x40\n      mstore\n      pop\n      dup2\n      add\n      swap1\n      tag_34\n      swap2\n      swap1\n      tag_23\n      jump\t// in\n    tag_34:\n      pop\n        /* \"localhost/Documents/GitHub/SOLIDITY-REMIX/5ef069451e67668750287d64bc5f8bae/calculadora_test.sol\":862:868  Assert */\n      linkerSymbol(\"acbfb1c35000d78352310b16a054a6b1066124b9c6f054b10c085f549bff80c6\")\n        /* \"localhost/Documents/GitHub/SOLIDITY-REMIX/5ef069451e67668750287d64bc5f8bae/calculadora_test.sol\":862:874  Assert.equal */\n      0xf5bae6b6\n        /* \"localhost/Documents/GitHub/SOLIDITY-REMIX/5ef069451e67668750287d64bc5f8bae/calculadora_test.sol\":875:879  calc */\n      0x00\n      dup1\n      sload\n      swap1\n      0x0100\n      exp\n      swap1\n      div\n      0xffffffffffffffffffffffffffffffffffffffff\n      and\n        /* \"localhost/Documents/GitHub/SOLIDITY-REMIX/5ef069451e67668750287d64bc5f8bae/calculadora_test.sol\":875:894  calc.multiplicacion */\n      0xffffffffffffffffffffffffffffffffffffffff\n      and\n      0x187983bf\n        /* \"localhost/Documents/GitHub/SOLIDITY-REMIX/5ef069451e67668750287d64bc5f8bae/calculadora_test.sol\":895:896  9 */\n      0x09\n        /* \"localhost/Documents/GitHub/SOLIDITY-REMIX/5ef069451e67668750287d64bc5f8bae/calculadora_test.sol\":897:898  3 */\n      0x03\n        /* \"localhost/Documents/GitHub/SOLIDITY-REMIX/5ef069451e67668750287d64bc5f8bae/calculadora_test.sol\":875:899  calc.multiplicacion(9,3) */\n      mload(0x40)\n      dup4\n      0xffffffff\n      and\n      0xe0\n      shl\n      dup2\n      mstore\n      0x04\n      add\n      tag_35\n      swap3\n      swap2\n      swap1\n      tag_11\n      jump\t// in\n    tag_35:\n      0x20\n      mload(0x40)\n      dup1\n      dup4\n      sub\n      dup2\n      dup7\n      dup1\n      extcodesize\n      iszero\n      dup1\n      iszero\n      tag_36\n      jumpi\n      0x00\n      dup1\n      revert\n    tag_36:\n      pop\n      gas\n      staticcall\n      iszero\n      dup1\n      iszero\n      tag_38\n      jumpi\n      returndatasize\n      0x00\n      dup1\n      returndatacopy\n      revert(0x00, returndatasize)\n    tag_38:\n      pop\n      pop\n      pop\n      pop\n      mload(0x40)\n      returndatasize\n      not(0x1f)\n      0x1f\n      dup3\n      add\n      and\n      dup3\n      add\n      dup1\n      0x40\n      mstore\n      pop\n      dup2\n      add\n      swap1\n      tag_39\n      swap2\n      swap1\n      tag_16\n      jump\t// in\n    tag_39:\n        /* \"localhost/Documents/GitHub/SOLIDITY-REMIX/5ef069451e67668750287d64bc5f8bae/calculadora_test.sol\":900:902  27 */\n      0x1b\n        /* \"localhost/Documents/GitHub/SOLIDITY-REMIX/5ef069451e67668750287d64bc5f8bae/calculadora_test.sol\":862:934  Assert.equal(calc.multiplicacion(9,3),27, \"multiplicacion should be 27\") */\n      mload(0x40)\n      dup4\n      0xffffffff\n      and\n      0xe0\n      shl\n      dup2\n      mstore\n      0x04\n      add\n      tag_40\n      swap3\n      swap2\n      swap1\n      tag_41\n      jump\t// in\n    tag_40:\n      0x20\n      mload(0x40)\n      dup1\n      dup4\n      sub\n      dup2\n      dup7\n      dup1\n      extcodesize\n      iszero\n      dup1\n      iszero\n      tag_42\n      jumpi\n      0x00\n      dup1\n      revert\n    tag_42:\n      pop\n      gas\n      delegatecall\n      iszero\n      dup1\n      iszero\n      tag_44\n      jumpi\n      returndatasize\n      0x00\n      dup1\n      returndatacopy\n      revert(0x00, returndatasize)\n    tag_44:\n      pop\n      pop\n      pop\n      pop\n      mload(0x40)\n      returndatasize\n      not(0x1f)\n      0x1f\n      dup3\n      add\n      and\n      dup3\n      add\n      dup1\n      0x40\n      mstore\n      pop\n      dup2\n      add\n      swap1\n      tag_45\n      swap2\n      swap1\n      tag_23\n      jump\t// in\n    tag_45:\n      pop\n        /* \"localhost/Documents/GitHub/SOLIDITY-REMIX/5ef069451e67668750287d64bc5f8bae/calculadora_test.sol\":945:951  Assert */\n      linkerSymbol(\"acbfb1c35000d78352310b16a054a6b1066124b9c6f054b10c085f549bff80c6\")\n        /* \"localhost/Documents/GitHub/SOLIDITY-REMIX/5ef069451e67668750287d64bc5f8bae/calculadora_test.sol\":945:957  Assert.equal */\n      0xf5bae6b6\n        /* \"localhost/Documents/GitHub/SOLIDITY-REMIX/5ef069451e67668750287d64bc5f8bae/calculadora_test.sol\":958:962  calc */\n      0x00\n      dup1\n      sload\n      swap1\n      0x0100\n      exp\n      swap1\n      div\n      0xffffffffffffffffffffffffffffffffffffffff\n      and\n        /* \"localhost/Documents/GitHub/SOLIDITY-REMIX/5ef069451e67668750287d64bc5f8bae/calculadora_test.sol\":958:971  calc.division */\n      0xffffffffffffffffffffffffffffffffffffffff\n      and\n      0x09b7cdda\n        /* \"localhost/Documents/GitHub/SOLIDITY-REMIX/5ef069451e67668750287d64bc5f8bae/calculadora_test.sol\":972:973  9 */\n      0x09\n        /* \"localhost/Documents/GitHub/SOLIDITY-REMIX/5ef069451e67668750287d64bc5f8bae/calculadora_test.sol\":974:975  3 */\n      0x03\n        /* \"localhost/Documents/GitHub/SOLIDITY-REMIX/5ef069451e67668750287d64bc5f8bae/calculadora_test.sol\":958:976  calc.division(9,3) */\n      mload(0x40)\n      dup4\n      0xffffffff\n      and\n      0xe0\n      shl\n      dup2\n      mstore\n      0x04\n      add\n      tag_46\n      swap3\n      swap2\n      swap1\n      tag_11\n      jump\t// in\n    tag_46:\n      0x20\n      mload(0x40)\n      dup1\n      dup4\n      sub\n      dup2\n      dup7\n      dup1\n      extcodesize\n      iszero\n      dup1\n      iszero\n      tag_47\n      jumpi\n      0x00\n      dup1\n      revert\n    tag_47:\n      pop\n      gas\n      staticcall\n      iszero\n      dup1\n      iszero\n      tag_49\n      jumpi\n      returndatasize\n      0x00\n      dup1\n      returndatacopy\n      revert(0x00, returndatasize)\n    tag_49:\n      pop\n      pop\n      pop\n      pop\n      mload(0x40)\n      returndatasize\n      not(0x1f)\n      0x1f\n      dup3\n      add\n      and\n      dup3\n      add\n      dup1\n      0x40\n      mstore\n      pop\n      dup2\n      add\n      swap1\n      tag_50\n      swap2\n      swap1\n      tag_16\n      jump\t// in\n    tag_50:\n        /* \"localhost/Documents/GitHub/SOLIDITY-REMIX/5ef069451e67668750287d64bc5f8bae/calculadora_test.sol\":977:978  3 */\n      0x03\n        /* \"localhost/Documents/GitHub/SOLIDITY-REMIX/5ef069451e67668750287d64bc5f8bae/calculadora_test.sol\":945:1003  Assert.equal(calc.division(9,3),3, \"division should be 3\") */\n      mload(0x40)\n      dup4\n      0xffffffff\n      and\n      0xe0\n      shl\n      dup2\n      mstore\n      0x04\n      add\n      tag_51\n      swap3\n      swap2\n      swap1\n      tag_52\n      jump\t// in\n    tag_51:\n      0x20\n      mload(0x40)\n      dup1\n      dup4\n      sub\n      dup2\n      dup7\n      dup1\n      extcodesize\n      iszero\n      dup1\n      iszero\n      tag_53\n      jumpi\n      0x00\n      dup1\n      revert\n    tag_53:\n      pop\n      gas\n      delegatecall\n      iszero\n      dup1\n      iszero\n      tag_55\n      jumpi\n      returndatasize\n      0x00\n      dup1\n      returndatacopy\n      revert(0x00, returndatasize)\n    tag_55:\n      pop\n      pop\n      pop\n      pop\n      mload(0x40)\n      returndatasize\n      not(0x1f)\n      0x1f\n      dup3\n      add\n      and\n      dup3\n      add\n      dup1\n      0x40\n      mstore\n      pop\n      dup2\n      add\n      swap1\n      tag_56\n      swap2\n      swap1\n      tag_23\n      jump\t// in\n    tag_56:\n      pop\n        /* \"localhost/Documents/GitHub/SOLIDITY-REMIX/5ef069451e67668750287d64bc5f8bae/calculadora_test.sol\":1014:1020  Assert */\n      linkerSymbol(\"acbfb1c35000d78352310b16a054a6b1066124b9c6f054b10c085f549bff80c6\")\n        /* \"localhost/Documents/GitHub/SOLIDITY-REMIX/5ef069451e67668750287d64bc5f8bae/calculadora_test.sol\":1014:1026  Assert.equal */\n      0xabcd7960\n        /* \"localhost/Documents/GitHub/SOLIDITY-REMIX/5ef069451e67668750287d64bc5f8bae/calculadora_test.sol\":1027:1031  calc */\n      0x00\n      dup1\n      sload\n      swap1\n      0x0100\n      exp\n      swap1\n      div\n      0xffffffffffffffffffffffffffffffffffffffff\n      and\n        /* \"localhost/Documents/GitHub/SOLIDITY-REMIX/5ef069451e67668750287d64bc5f8bae/calculadora_test.sol\":1027:1041  calc.factorial */\n      0xffffffffffffffffffffffffffffffffffffffff\n      and\n      0x83714834\n        /* \"localhost/Documents/GitHub/SOLIDITY-REMIX/5ef069451e67668750287d64bc5f8bae/calculadora_test.sol\":1042:1043  3 */\n      0x03\n        /* \"localhost/Documents/GitHub/SOLIDITY-REMIX/5ef069451e67668750287d64bc5f8bae/calculadora_test.sol\":1027:1044  calc.factorial(3) */\n      mload(0x40)\n      dup3\n      0xffffffff\n      and\n      0xe0\n      shl\n      dup2\n      mstore\n      0x04\n      add\n      tag_57\n      swap2\n      swap1\n      tag_58\n      jump\t// in\n    tag_57:\n      0x20\n      mload(0x40)\n      dup1\n      dup4\n      sub\n      dup2\n      dup7\n      dup1\n      extcodesize\n      iszero\n      dup1\n      iszero\n      tag_59\n      jumpi\n      0x00\n      dup1\n      revert\n    tag_59:\n      pop\n      gas\n      staticcall\n      iszero\n      dup1\n      iszero\n      tag_61\n      jumpi\n      returndatasize\n      0x00\n      dup1\n      returndatacopy\n      revert(0x00, returndatasize)\n    tag_61:\n      pop\n      pop\n      pop\n      pop\n      mload(0x40)\n      returndatasize\n      not(0x1f)\n      0x1f\n      dup3\n      add\n      and\n      dup3\n      add\n      dup1\n      0x40\n      mstore\n      pop\n      dup2\n      add\n      swap1\n      tag_62\n      swap2\n      swap1\n      tag_63\n      jump\t// in\n    tag_62:\n        /* \"localhost/Documents/GitHub/SOLIDITY-REMIX/5ef069451e67668750287d64bc5f8bae/calculadora_test.sol\":1045:1046  7 */\n      0x07\n        /* \"localhost/Documents/GitHub/SOLIDITY-REMIX/5ef069451e67668750287d64bc5f8bae/calculadora_test.sol\":1014:1062  Assert.equal(calc.factorial(3),7, \"should be 6\") */\n      mload(0x40)\n      dup4\n      0xffffffff\n      and\n      0xe0\n      shl\n      dup2\n      mstore\n      0x04\n      add\n      tag_64\n      swap3\n      swap2\n      swap1\n      tag_65\n      jump\t// in\n    tag_64:\n      0x20\n      mload(0x40)\n      dup1\n      dup4\n      sub\n      dup2\n      dup7\n      dup1\n      extcodesize\n      iszero\n      dup1\n      iszero\n      tag_66\n      jumpi\n      0x00\n      dup1\n      revert\n    tag_66:\n      pop\n      gas\n      delegatecall\n      iszero\n      dup1\n      iszero\n      tag_68\n      jumpi\n      returndatasize\n      0x00\n      dup1\n      returndatacopy\n      revert(0x00, returndatasize)\n    tag_68:\n      pop\n      pop\n      pop\n      pop\n      mload(0x40)\n      returndatasize\n      not(0x1f)\n      0x1f\n      dup3\n      add\n      and\n      dup3\n      add\n      dup1\n      0x40\n      mstore\n      pop\n      dup2\n      add\n      swap1\n      tag_69\n      swap2\n      swap1\n      tag_23\n      jump\t// in\n    tag_69:\n      pop\n        /* \"localhost/Documents/GitHub/SOLIDITY-REMIX/5ef069451e67668750287d64bc5f8bae/calculadora_test.sol\":1073:1079  Assert */\n      linkerSymbol(\"acbfb1c35000d78352310b16a054a6b1066124b9c6f054b10c085f549bff80c6\")\n        /* \"localhost/Documents/GitHub/SOLIDITY-REMIX/5ef069451e67668750287d64bc5f8bae/calculadora_test.sol\":1073:1085  Assert.equal */\n      0xabcd7960\n        /* \"localhost/Documents/GitHub/SOLIDITY-REMIX/5ef069451e67668750287d64bc5f8bae/calculadora_test.sol\":1086:1090  calc */\n      0x00\n      dup1\n      sload\n      swap1\n      0x0100\n      exp\n      swap1\n      div\n      0xffffffffffffffffffffffffffffffffffffffff\n      and\n        /* \"localhost/Documents/GitHub/SOLIDITY-REMIX/5ef069451e67668750287d64bc5f8bae/calculadora_test.sol\":1086:1104  calc.valorAbsoluto */\n      0xffffffffffffffffffffffffffffffffffffffff\n      and\n      0x7d825142\n        /* \"localhost/Documents/GitHub/SOLIDITY-REMIX/5ef069451e67668750287d64bc5f8bae/calculadora_test.sol\":1105:1107  -3 */\n      0xfffffffffffffffffffffffffffffffffffffffffffffffffffffffffffffffd\n        /* \"localhost/Documents/GitHub/SOLIDITY-REMIX/5ef069451e67668750287d64bc5f8bae/calculadora_test.sol\":1086:1108  calc.valorAbsoluto(-3) */\n      mload(0x40)\n      dup3\n      0xffffffff\n      and\n      0xe0\n      shl\n      dup2\n      mstore\n      0x04\n      add\n      tag_70\n      swap2\n      swap1\n      tag_71\n      jump\t// in\n    tag_70:\n      0x20\n      mload(0x40)\n      dup1\n      dup4\n      sub\n      dup2\n      dup7\n      dup1\n      extcodesize\n      iszero\n      dup1\n      iszero\n      tag_72\n      jumpi\n      0x00\n      dup1\n      revert\n    tag_72:\n      pop\n      gas\n      staticcall\n      iszero\n      dup1\n      iszero\n      tag_74\n      jumpi\n      returndatasize\n      0x00\n      dup1\n      returndatacopy\n      revert(0x00, returndatasize)\n    tag_74:\n      pop\n      pop\n      pop\n      pop\n      mload(0x40)\n      returndatasize\n      not(0x1f)\n      0x1f\n      dup3\n      add\n      and\n      dup3\n      add\n      dup1\n      0x40\n      mstore\n      pop\n      dup2\n      add\n      swap1\n      tag_75\n      swap2\n      swap1\n      tag_63\n      jump\t// in\n    tag_75:\n        /* \"localhost/Documents/GitHub/SOLIDITY-REMIX/5ef069451e67668750287d64bc5f8bae/calculadora_test.sol\":1109:1110  3 */\n      0x03\n        /* \"localhost/Documents/GitHub/SOLIDITY-REMIX/5ef069451e67668750287d64bc5f8bae/calculadora_test.sol\":1073:1126  Assert.equal(calc.valorAbsoluto(-3),3, \"should be 3\") */\n      mload(0x40)\n      dup4\n      0xffffffff\n      and\n      0xe0\n      shl\n      dup2\n      mstore\n      0x04\n      add\n      tag_76\n      swap3\n      swap2\n      swap1\n      tag_77\n      jump\t// in\n    tag_76:\n      0x20\n      mload(0x40)\n      dup1\n      dup4\n      sub\n      dup2\n      dup7\n      dup1\n      extcodesize\n      iszero\n      dup1\n      iszero\n      tag_78\n      jumpi\n      0x00\n      dup1\n      revert\n    tag_78:\n      pop\n      gas\n      delegatecall\n      iszero\n      dup1\n      iszero\n      tag_80\n      jumpi\n      returndatasize\n      0x00\n      dup1\n      returndatacopy\n      revert(0x00, returndatasize)\n    tag_80:\n      pop\n      pop\n      pop\n      pop\n      mload(0x40)\n      returndatasize\n      not(0x1f)\n      0x1f\n      dup3\n      add\n      and\n      dup3\n      add\n      dup1\n      0x40\n      mstore\n      pop\n      dup2\n      add\n      swap1\n      tag_81\n      swap2\n      swap1\n      tag_23\n      jump\t// in\n    tag_81:\n      pop\n        /* \"localhost/Documents/GitHub/SOLIDITY-REMIX/5ef069451e67668750287d64bc5f8bae/calculadora_test.sol\":1137:1143  Assert */\n      linkerSymbol(\"acbfb1c35000d78352310b16a054a6b1066124b9c6f054b10c085f549bff80c6\")\n        /* \"localhost/Documents/GitHub/SOLIDITY-REMIX/5ef069451e67668750287d64bc5f8bae/calculadora_test.sol\":1137:1149  Assert.equal */\n      0xabcd7960\n        /* \"localhost/Documents/GitHub/SOLIDITY-REMIX/5ef069451e67668750287d64bc5f8bae/calculadora_test.sol\":1150:1154  calc */\n      0x00\n      dup1\n      sload\n      swap1\n      0x0100\n      exp\n      swap1\n      div\n      0xffffffffffffffffffffffffffffffffffffffff\n      and\n        /* \"localhost/Documents/GitHub/SOLIDITY-REMIX/5ef069451e67668750287d64bc5f8bae/calculadora_test.sol\":1150:1163  calc.cuadrado */\n      0xffffffffffffffffffffffffffffffffffffffff\n      and\n      0x7ea9e058\n        /* \"localhost/Documents/GitHub/SOLIDITY-REMIX/5ef069451e67668750287d64bc5f8bae/calculadora_test.sol\":1164:1165  3 */\n      0x03\n        /* \"localhost/Documents/GitHub/SOLIDITY-REMIX/5ef069451e67668750287d64bc5f8bae/calculadora_test.sol\":1150:1166  calc.cuadrado(3) */\n      mload(0x40)\n      dup3\n      0xffffffff\n      and\n      0xe0\n      shl\n      dup2\n      mstore\n      0x04\n      add\n      tag_82\n      swap2\n      swap1\n      tag_83\n      jump\t// in\n    tag_82:\n      0x20\n      mload(0x40)\n      dup1\n      dup4\n      sub\n      dup2\n      dup7\n      dup1\n      extcodesize\n      iszero\n      dup1\n      iszero\n      tag_84\n      jumpi\n      0x00\n      dup1\n      revert\n    tag_84:\n      pop\n      gas\n      staticcall\n      iszero\n      dup1\n      iszero\n      tag_86\n      jumpi\n      returndatasize\n      0x00\n      dup1\n      returndatacopy\n      revert(0x00, returndatasize)\n    tag_86:\n      pop\n      pop\n      pop\n      pop\n      mload(0x40)\n      returndatasize\n      not(0x1f)\n      0x1f\n      dup3\n      add\n      and\n      dup3\n      add\n      dup1\n      0x40\n      mstore\n      pop\n      dup2\n      add\n      swap1\n      tag_87\n      swap2\n      swap1\n      tag_63\n      jump\t// in\n    tag_87:\n        /* \"localhost/Documents/GitHub/SOLIDITY-REMIX/5ef069451e67668750287d64bc5f8bae/calculadora_test.sol\":1167:1168  9 */\n      0x09\n        /* \"localhost/Documents/GitHub/SOLIDITY-REMIX/5ef069451e67668750287d64bc5f8bae/calculadora_test.sol\":1137:1184  Assert.equal(calc.cuadrado(3),9, \"should be 9\") */\n      mload(0x40)\n      dup4\n      0xffffffff\n      and\n      0xe0\n      shl\n      dup2\n      mstore\n      0x04\n      add\n      tag_88\n      swap3\n      swap2\n      swap1\n      tag_89\n      jump\t// in\n    tag_88:\n      0x20\n      mload(0x40)\n      dup1\n      dup4\n      sub\n      dup2\n      dup7\n      dup1\n      extcodesize\n      iszero\n      dup1\n      iszero\n      tag_90\n      jumpi\n      0x00\n      dup1\n      revert\n    tag_90:\n      pop\n      gas\n      delegatecall\n      iszero\n      dup1\n      iszero\n      tag_92\n      jumpi\n      returndatasize\n      0x00\n      dup1\n      returndatacopy\n      revert(0x00, returndatasize)\n    tag_92:\n      pop\n      pop\n      pop\n      pop\n      mload(0x40)\n      returndatasize\n      not(0x1f)\n      0x1f\n      dup3\n      add\n      and\n      dup3\n      add\n      dup1\n      0x40\n      mstore\n      pop\n      dup2\n      add\n      swap1\n      tag_93\n      swap2\n      swap1\n      tag_23\n      jump\t// in\n    tag_93:\n      pop\n        /* \"localhost/Documents/GitHub/SOLIDITY-REMIX/5ef069451e67668750287d64bc5f8bae/calculadora_test.sol\":1195:1201  Assert */\n      linkerSymbol(\"acbfb1c35000d78352310b16a054a6b1066124b9c6f054b10c085f549bff80c6\")\n        /* \"localhost/Documents/GitHub/SOLIDITY-REMIX/5ef069451e67668750287d64bc5f8bae/calculadora_test.sol\":1195:1207  Assert.equal */\n      0xf5bae6b6\n        /* \"localhost/Documents/GitHub/SOLIDITY-REMIX/5ef069451e67668750287d64bc5f8bae/calculadora_test.sol\":1208:1212  calc */\n      0x00\n      dup1\n      sload\n      swap1\n      0x0100\n      exp\n      swap1\n      div\n      0xffffffffffffffffffffffffffffffffffffffff\n      and\n        /* \"localhost/Documents/GitHub/SOLIDITY-REMIX/5ef069451e67668750287d64bc5f8bae/calculadora_test.sol\":1208:1225  calc.raizCuadrada */\n      0xffffffffffffffffffffffffffffffffffffffff\n      and\n      0xb8501073\n        /* \"localhost/Documents/GitHub/SOLIDITY-REMIX/5ef069451e67668750287d64bc5f8bae/calculadora_test.sol\":1226:1227  9 */\n      0x09\n        /* \"localhost/Documents/GitHub/SOLIDITY-REMIX/5ef069451e67668750287d64bc5f8bae/calculadora_test.sol\":1208:1228  calc.raizCuadrada(9) */\n      mload(0x40)\n      dup3\n      0xffffffff\n      and\n      0xe0\n      shl\n      dup2\n      mstore\n      0x04\n      add\n      tag_94\n      swap2\n      swap1\n      tag_95\n      jump\t// in\n    tag_94:\n      0x20\n      mload(0x40)\n      dup1\n      dup4\n      sub\n      dup2\n      dup7\n      dup1\n      extcodesize\n      iszero\n      dup1\n      iszero\n      tag_96\n      jumpi\n      0x00\n      dup1\n      revert\n    tag_96:\n      pop\n      gas\n      staticcall\n      iszero\n      dup1\n      iszero\n      tag_98\n      jumpi\n      returndatasize\n      0x00\n      dup1\n      returndatacopy\n      revert(0x00, returndatasize)\n    tag_98:\n      pop\n      pop\n      pop\n      pop\n      mload(0x40)\n      returndatasize\n      not(0x1f)\n      0x1f\n      dup3\n      add\n      and\n      dup3\n      add\n      dup1\n      0x40\n      mstore\n      pop\n      dup2\n      add\n      swap1\n      tag_99\n      swap2\n      swap1\n      tag_16\n      jump\t// in\n    tag_99:\n        /* \"localhost/Documents/GitHub/SOLIDITY-REMIX/5ef069451e67668750287d64bc5f8bae/calculadora_test.sol\":1229:1230  3 */\n      0x03\n        /* \"localhost/Documents/GitHub/SOLIDITY-REMIX/5ef069451e67668750287d64bc5f8bae/calculadora_test.sol\":1195:1246  Assert.equal(calc.raizCuadrada(9),3, \"should be 3\") */\n      mload(0x40)\n      dup4\n      0xffffffff\n      and\n      0xe0\n      shl\n      dup2\n      mstore\n      0x04\n      add\n      tag_100\n      swap3\n      swap2\n      swap1\n      tag_101\n      jump\t// in\n    tag_100:\n      0x20\n      mload(0x40)\n      dup1\n      dup4\n      sub\n      dup2\n      dup7\n      dup1\n      extcodesize\n      iszero\n      dup1\n      iszero\n      tag_102\n      jumpi\n      0x00\n      dup1\n      revert\n    tag_102:\n      pop\n      gas\n      delegatecall\n      iszero\n      dup1\n      iszero\n      tag_104\n      jumpi\n      returndatasize\n      0x00\n      dup1\n      returndatacopy\n      revert(0x00, returndatasize)\n    tag_104:\n      pop\n      pop\n      pop\n      pop\n      mload(0x40)\n      returndatasize\n      not(0x1f)\n      0x1f\n      dup3\n      add\n      and\n      dup3\n      add\n      dup1\n      0x40\n      mstore\n      pop\n      dup2\n      add\n      swap1\n      tag_105\n      swap2\n      swap1\n      tag_23\n      jump\t// in\n    tag_105:\n      pop\n        /* \"localhost/Documents/GitHub/SOLIDITY-REMIX/5ef069451e67668750287d64bc5f8bae/calculadora_test.sol\":596:1416  function checkSuccess() public {\r... */\n      jump\t// out\n        /* \"localhost/Documents/GitHub/SOLIDITY-REMIX/5ef069451e67668750287d64bc5f8bae/calculadora_test.sol\":482:588  function beforeAll() public {\r... */\n    tag_8:\n        /* \"localhost/Documents/GitHub/SOLIDITY-REMIX/5ef069451e67668750287d64bc5f8bae/calculadora_test.sol\":563:580  new Calculadora() */\n      mload(0x40)\n      tag_107\n      swap1\n      tag_108\n      jump\t// in\n    tag_107:\n      mload(0x40)\n      dup1\n      swap2\n      sub\n      swap1\n      0x00\n      create\n      dup1\n      iszero\n      dup1\n      iszero\n      tag_109\n      jumpi\n      returndatasize\n      0x00\n      dup1\n      returndatacopy\n      revert(0x00, returndatasize)\n    tag_109:\n      pop\n        /* \"localhost/Documents/GitHub/SOLIDITY-REMIX/5ef069451e67668750287d64bc5f8bae/calculadora_test.sol\":556:560  calc */\n      0x00\n      dup1\n        /* \"localhost/Documents/GitHub/SOLIDITY-REMIX/5ef069451e67668750287d64bc5f8bae/calculadora_test.sol\":556:580  calc = new Calculadora() */\n      0x0100\n      exp\n      dup2\n      sload\n      dup2\n      0xffffffffffffffffffffffffffffffffffffffff\n      mul\n      not\n      and\n      swap1\n      dup4\n      0xffffffffffffffffffffffffffffffffffffffff\n      and\n      mul\n      or\n      swap1\n      sstore\n      pop\n        /* \"localhost/Documents/GitHub/SOLIDITY-REMIX/5ef069451e67668750287d64bc5f8bae/calculadora_test.sol\":482:588  function beforeAll() public {\r... */\n      jump\t// out\n    tag_108:\n      dataSize(sub_0)\n      dup1\n      dataOffset(sub_0)\n      dup4\n      codecopy\n      add\n      swap1\n      jump\t// out\n        /* \"#utility.yul\":7:144   */\n    tag_111:\n        /* \"#utility.yul\":61:66   */\n      0x00\n        /* \"#utility.yul\":92:98   */\n      dup2\n        /* \"#utility.yul\":86:99   */\n      mload\n        /* \"#utility.yul\":77:99   */\n      swap1\n      pop\n        /* \"#utility.yul\":108:138   */\n      tag_113\n        /* \"#utility.yul\":132:137   */\n      dup2\n        /* \"#utility.yul\":108:138   */\n      tag_114\n      jump\t// in\n    tag_113:\n        /* \"#utility.yul\":7:144   */\n      swap3\n      swap2\n      pop\n      pop\n      jump\t// out\n        /* \"#utility.yul\":150:291   */\n    tag_115:\n        /* \"#utility.yul\":206:211   */\n      0x00\n        /* \"#utility.yul\":237:243   */\n      dup2\n        /* \"#utility.yul\":231:244   */\n      mload\n        /* \"#utility.yul\":222:244   */\n      swap1\n      pop\n        /* \"#utility.yul\":253:285   */\n      tag_117\n        /* \"#utility.yul\":279:284   */\n      dup2\n        /* \"#utility.yul\":253:285   */\n      tag_118\n      jump\t// in\n    tag_117:\n        /* \"#utility.yul\":150:291   */\n      swap3\n      swap2\n      pop\n      pop\n      jump\t// out\n        /* \"#utility.yul\":297:440   */\n    tag_119:\n        /* \"#utility.yul\":354:359   */\n      0x00\n        /* \"#utility.yul\":385:391   */\n      dup2\n        /* \"#utility.yul\":379:392   */\n      mload\n        /* \"#utility.yul\":370:392   */\n      swap1\n      pop\n        /* \"#utility.yul\":401:434   */\n      tag_121\n        /* \"#utility.yul\":428:433   */\n      dup2\n        /* \"#utility.yul\":401:434   */\n      tag_122\n      jump\t// in\n    tag_121:\n        /* \"#utility.yul\":297:440   */\n      swap3\n      swap2\n      pop\n      pop\n      jump\t// out\n        /* \"#utility.yul\":446:791   */\n    tag_23:\n        /* \"#utility.yul\":513:519   */\n      0x00\n        /* \"#utility.yul\":562:564   */\n      0x20\n        /* \"#utility.yul\":550:559   */\n      dup3\n        /* \"#utility.yul\":541:548   */\n      dup5\n        /* \"#utility.yul\":537:560   */\n      sub\n        /* \"#utility.yul\":533:565   */\n      slt\n        /* \"#utility.yul\":530:649   */\n      iszero\n      tag_124\n      jumpi\n        /* \"#utility.yul\":568:647   */\n      tag_125\n      tag_126\n      jump\t// in\n    tag_125:\n        /* \"#utility.yul\":530:649   */\n    tag_124:\n        /* \"#utility.yul\":688:689   */\n      0x00\n        /* \"#utility.yul\":713:774   */\n      tag_127\n        /* \"#utility.yul\":766:773   */\n      dup5\n        /* \"#utility.yul\":757:763   */\n      dup3\n        /* \"#utility.yul\":746:755   */\n      dup6\n        /* \"#utility.yul\":742:764   */\n      add\n        /* \"#utility.yul\":713:774   */\n      tag_111\n      jump\t// in\n    tag_127:\n        /* \"#utility.yul\":703:774   */\n      swap2\n      pop\n        /* \"#utility.yul\":659:784   */\n      pop\n        /* \"#utility.yul\":446:791   */\n      swap3\n      swap2\n      pop\n      pop\n      jump\t// out\n        /* \"#utility.yul\":797:1146   */\n    tag_16:\n        /* \"#utility.yul\":866:872   */\n      0x00\n        /* \"#utility.yul\":915:917   */\n      0x20\n        /* \"#utility.yul\":903:912   */\n      dup3\n        /* \"#utility.yul\":894:901   */\n      dup5\n        /* \"#utility.yul\":890:913   */\n      sub\n        /* \"#utility.yul\":886:918   */\n      slt\n        /* \"#utility.yul\":883:1002   */\n      iszero\n      tag_129\n      jumpi\n        /* \"#utility.yul\":921:1000   */\n      tag_130\n      tag_126\n      jump\t// in\n    tag_130:\n        /* \"#utility.yul\":883:1002   */\n    tag_129:\n        /* \"#utility.yul\":1041:1042   */\n      0x00\n        /* \"#utility.yul\":1066:1129   */\n      tag_131\n        /* \"#utility.yul\":1121:1128   */\n      dup5\n        /* \"#utility.yul\":1112:1118   */\n      dup3\n        /* \"#utility.yul\":1101:1110   */\n      dup6\n        /* \"#utility.yul\":1097:1119   */\n      add\n        /* \"#utility.yul\":1066:1129   */\n      tag_115\n      jump\t// in\n    tag_131:\n        /* \"#utility.yul\":1056:1129   */\n      swap2\n      pop\n        /* \"#utility.yul\":1012:1139   */\n      pop\n        /* \"#utility.yul\":797:1146   */\n      swap3\n      swap2\n      pop\n      pop\n      jump\t// out\n        /* \"#utility.yul\":1152:1503   */\n    tag_63:\n        /* \"#utility.yul\":1222:1228   */\n      0x00\n        /* \"#utility.yul\":1271:1273   */\n      0x20\n        /* \"#utility.yul\":1259:1268   */\n      dup3\n        /* \"#utility.yul\":1250:1257   */\n      dup5\n        /* \"#utility.yul\":1246:1269   */\n      sub\n        /* \"#utility.yul\":1242:1274   */\n      slt\n        /* \"#utility.yul\":1239:1358   */\n      iszero\n      tag_133\n      jumpi\n        /* \"#utility.yul\":1277:1356   */\n      tag_134\n      tag_126\n      jump\t// in\n    tag_134:\n        /* \"#utility.yul\":1239:1358   */\n    tag_133:\n        /* \"#utility.yul\":1397:1398   */\n      0x00\n        /* \"#utility.yul\":1422:1486   */\n      tag_135\n        /* \"#utility.yul\":1478:1485   */\n      dup5\n        /* \"#utility.yul\":1469:1475   */\n      dup3\n        /* \"#utility.yul\":1458:1467   */\n      dup6\n        /* \"#utility.yul\":1454:1476   */\n      add\n        /* \"#utility.yul\":1422:1486   */\n      tag_119\n      jump\t// in\n    tag_135:\n        /* \"#utility.yul\":1412:1486   */\n      swap2\n      pop\n        /* \"#utility.yul\":1368:1496   */\n      pop\n        /* \"#utility.yul\":1152:1503   */\n      swap3\n      swap2\n      pop\n      pop\n      jump\t// out\n        /* \"#utility.yul\":1509:1632   */\n    tag_136:\n        /* \"#utility.yul\":1602:1625   */\n      tag_138\n        /* \"#utility.yul\":1619:1624   */\n      dup2\n        /* \"#utility.yul\":1602:1625   */\n      tag_139\n      jump\t// in\n    tag_138:\n        /* \"#utility.yul\":1597:1600   */\n      dup3\n        /* \"#utility.yul\":1590:1626   */\n      mstore\n        /* \"#utility.yul\":1509:1632   */\n      pop\n      pop\n      jump\t// out\n        /* \"#utility.yul\":1638:1793   */\n    tag_140:\n        /* \"#utility.yul\":1741:1786   */\n      tag_142\n        /* \"#utility.yul\":1780:1785   */\n      dup2\n        /* \"#utility.yul\":1741:1786   */\n      tag_143\n      jump\t// in\n    tag_142:\n        /* \"#utility.yul\":1736:1739   */\n      dup3\n        /* \"#utility.yul\":1729:1787   */\n      mstore\n        /* \"#utility.yul\":1638:1793   */\n      pop\n      pop\n      jump\t// out\n        /* \"#utility.yul\":1799:1954   */\n    tag_144:\n        /* \"#utility.yul\":1902:1947   */\n      tag_146\n        /* \"#utility.yul\":1941:1946   */\n      dup2\n        /* \"#utility.yul\":1902:1947   */\n      tag_147\n      jump\t// in\n    tag_146:\n        /* \"#utility.yul\":1897:1900   */\n      dup3\n        /* \"#utility.yul\":1890:1948   */\n      mstore\n        /* \"#utility.yul\":1799:1954   */\n      pop\n      pop\n      jump\t// out\n        /* \"#utility.yul\":1960:2105   */\n    tag_148:\n        /* \"#utility.yul\":2054:2098   */\n      tag_150\n        /* \"#utility.yul\":2092:2097   */\n      dup2\n        /* \"#utility.yul\":2054:2098   */\n      tag_151\n      jump\t// in\n    tag_150:\n        /* \"#utility.yul\":2049:2052   */\n      dup3\n        /* \"#utility.yul\":2042:2099   */\n      mstore\n        /* \"#utility.yul\":1960:2105   */\n      pop\n      pop\n      jump\t// out\n        /* \"#utility.yul\":2111:2264   */\n    tag_152:\n        /* \"#utility.yul\":2213:2257   */\n      tag_154\n        /* \"#utility.yul\":2251:2256   */\n      dup2\n        /* \"#utility.yul\":2213:2257   */\n      tag_151\n      jump\t// in\n    tag_154:\n        /* \"#utility.yul\":2208:2211   */\n      dup3\n        /* \"#utility.yul\":2201:2258   */\n      mstore\n        /* \"#utility.yul\":2111:2264   */\n      pop\n      pop\n      jump\t// out\n        /* \"#utility.yul\":2270:2417   */\n    tag_155:\n        /* \"#utility.yul\":2365:2410   */\n      tag_157\n        /* \"#utility.yul\":2404:2409   */\n      dup2\n        /* \"#utility.yul\":2365:2410   */\n      tag_158\n      jump\t// in\n    tag_157:\n        /* \"#utility.yul\":2360:2363   */\n      dup3\n        /* \"#utility.yul\":2353:2411   */\n      mstore\n        /* \"#utility.yul\":2270:2417   */\n      pop\n      pop\n      jump\t// out\n        /* \"#utility.yul\":2423:2578   */\n    tag_159:\n        /* \"#utility.yul\":2526:2571   */\n      tag_161\n        /* \"#utility.yul\":2565:2570   */\n      dup2\n        /* \"#utility.yul\":2526:2571   */\n      tag_158\n      jump\t// in\n    tag_161:\n        /* \"#utility.yul\":2521:2524   */\n      dup3\n        /* \"#utility.yul\":2514:2572   */\n      mstore\n        /* \"#utility.yul\":2423:2578   */\n      pop\n      pop\n      jump\t// out\n        /* \"#utility.yul\":2584:2737   */\n    tag_162:\n        /* \"#utility.yul\":2686:2730   */\n      tag_164\n        /* \"#utility.yul\":2724:2729   */\n      dup2\n        /* \"#utility.yul\":2686:2730   */\n      tag_165\n      jump\t// in\n    tag_164:\n        /* \"#utility.yul\":2681:2684   */\n      dup3\n        /* \"#utility.yul\":2674:2731   */\n      mstore\n        /* \"#utility.yul\":2584:2737   */\n      pop\n      pop\n      jump\t// out\n        /* \"#utility.yul\":2743:2898   */\n    tag_166:\n        /* \"#utility.yul\":2846:2891   */\n      tag_168\n        /* \"#utility.yul\":2885:2890   */\n      dup2\n        /* \"#utility.yul\":2846:2891   */\n      tag_169\n      jump\t// in\n    tag_168:\n        /* \"#utility.yul\":2841:2844   */\n      dup3\n        /* \"#utility.yul\":2834:2892   */\n      mstore\n        /* \"#utility.yul\":2743:2898   */\n      pop\n      pop\n      jump\t// out\n        /* \"#utility.yul\":2904:3049   */\n    tag_170:\n        /* \"#utility.yul\":2998:3042   */\n      tag_172\n        /* \"#utility.yul\":3036:3041   */\n      dup2\n        /* \"#utility.yul\":2998:3042   */\n      tag_173\n      jump\t// in\n    tag_172:\n        /* \"#utility.yul\":2993:2996   */\n      dup3\n        /* \"#utility.yul\":2986:3043   */\n      mstore\n        /* \"#utility.yul\":2904:3049   */\n      pop\n      pop\n      jump\t// out\n        /* \"#utility.yul\":3055:3200   */\n    tag_174:\n        /* \"#utility.yul\":3149:3193   */\n      tag_176\n        /* \"#utility.yul\":3187:3192   */\n      dup2\n        /* \"#utility.yul\":3149:3193   */\n      tag_177\n      jump\t// in\n    tag_176:\n        /* \"#utility.yul\":3144:3147   */\n      dup3\n        /* \"#utility.yul\":3137:3194   */\n      mstore\n        /* \"#utility.yul\":3055:3200   */\n      pop\n      pop\n      jump\t// out\n        /* \"#utility.yul\":3206:3361   */\n    tag_178:\n        /* \"#utility.yul\":3309:3354   */\n      tag_180\n        /* \"#utility.yul\":3348:3353   */\n      dup2\n        /* \"#utility.yul\":3309:3354   */\n      tag_181\n      jump\t// in\n    tag_180:\n        /* \"#utility.yul\":3304:3307   */\n      dup3\n        /* \"#utility.yul\":3297:3355   */\n      mstore\n        /* \"#utility.yul\":3206:3361   */\n      pop\n      pop\n      jump\t// out\n        /* \"#utility.yul\":3367:3524   */\n    tag_182:\n        /* \"#utility.yul\":3467:3517   */\n      tag_184\n        /* \"#utility.yul\":3511:3516   */\n      dup2\n        /* \"#utility.yul\":3467:3517   */\n      tag_185\n      jump\t// in\n    tag_184:\n        /* \"#utility.yul\":3462:3465   */\n      dup3\n        /* \"#utility.yul\":3455:3518   */\n      mstore\n        /* \"#utility.yul\":3367:3524   */\n      pop\n      pop\n      jump\t// out\n        /* \"#utility.yul\":3530:3912   */\n    tag_186:\n        /* \"#utility.yul\":3680:3683   */\n      0x00\n        /* \"#utility.yul\":3701:3776   */\n      tag_188\n        /* \"#utility.yul\":3773:3775   */\n      0x0b\n        /* \"#utility.yul\":3768:3771   */\n      dup4\n        /* \"#utility.yul\":3701:3776   */\n      tag_189\n      jump\t// in\n    tag_188:\n        /* \"#utility.yul\":3694:3776   */\n      swap2\n      pop\n        /* \"#utility.yul\":3785:3878   */\n      tag_190\n        /* \"#utility.yul\":3874:3877   */\n      dup3\n        /* \"#utility.yul\":3785:3878   */\n      tag_191\n      jump\t// in\n    tag_190:\n        /* \"#utility.yul\":3903:3905   */\n      0x20\n        /* \"#utility.yul\":3898:3901   */\n      dup3\n        /* \"#utility.yul\":3894:3906   */\n      add\n        /* \"#utility.yul\":3887:3906   */\n      swap1\n      pop\n        /* \"#utility.yul\":3530:3912   */\n      swap2\n      swap1\n      pop\n      jump\t// out\n        /* \"#utility.yul\":3918:4300   */\n    tag_192:\n        /* \"#utility.yul\":4068:4071   */\n      0x00\n        /* \"#utility.yul\":4089:4164   */\n      tag_194\n        /* \"#utility.yul\":4161:4163   */\n      0x0b\n        /* \"#utility.yul\":4156:4159   */\n      dup4\n        /* \"#utility.yul\":4089:4164   */\n      tag_189\n      jump\t// in\n    tag_194:\n        /* \"#utility.yul\":4082:4164   */\n      swap2\n      pop\n        /* \"#utility.yul\":4173:4266   */\n      tag_195\n        /* \"#utility.yul\":4262:4265   */\n      dup3\n        /* \"#utility.yul\":4173:4266   */\n      tag_196\n      jump\t// in\n    tag_195:\n        /* \"#utility.yul\":4291:4293   */\n      0x20\n        /* \"#utility.yul\":4286:4289   */\n      dup3\n        /* \"#utility.yul\":4282:4294   */\n      add\n        /* \"#utility.yul\":4275:4294   */\n      swap1\n      pop\n        /* \"#utility.yul\":3918:4300   */\n      swap2\n      swap1\n      pop\n      jump\t// out\n        /* \"#utility.yul\":4306:4688   */\n    tag_197:\n        /* \"#utility.yul\":4456:4459   */\n      0x00\n        /* \"#utility.yul\":4477:4552   */\n      tag_199\n        /* \"#utility.yul\":4549:4551   */\n      0x0b\n        /* \"#utility.yul\":4544:4547   */\n      dup4\n        /* \"#utility.yul\":4477:4552   */\n      tag_189\n      jump\t// in\n    tag_199:\n        /* \"#utility.yul\":4470:4552   */\n      swap2\n      pop\n        /* \"#utility.yul\":4561:4654   */\n      tag_200\n        /* \"#utility.yul\":4650:4653   */\n      dup3\n        /* \"#utility.yul\":4561:4654   */\n      tag_201\n      jump\t// in\n    tag_200:\n        /* \"#utility.yul\":4679:4681   */\n      0x20\n        /* \"#utility.yul\":4674:4677   */\n      dup3\n        /* \"#utility.yul\":4670:4682   */\n      add\n        /* \"#utility.yul\":4663:4682   */\n      swap1\n      pop\n        /* \"#utility.yul\":4306:4688   */\n      swap2\n      swap1\n      pop\n      jump\t// out\n        /* \"#utility.yul\":4694:5076   */\n    tag_202:\n        /* \"#utility.yul\":4844:4847   */\n      0x00\n        /* \"#utility.yul\":4865:4940   */\n      tag_204\n        /* \"#utility.yul\":4937:4939   */\n      0x14\n        /* \"#utility.yul\":4932:4935   */\n      dup4\n        /* \"#utility.yul\":4865:4940   */\n      tag_189\n      jump\t// in\n    tag_204:\n        /* \"#utility.yul\":4858:4940   */\n      swap2\n      pop\n        /* \"#utility.yul\":4949:5042   */\n      tag_205\n        /* \"#utility.yul\":5038:5041   */\n      dup3\n        /* \"#utility.yul\":4949:5042   */\n      tag_206\n      jump\t// in\n    tag_205:\n        /* \"#utility.yul\":5067:5069   */\n      0x20\n        /* \"#utility.yul\":5062:5065   */\n      dup3\n        /* \"#utility.yul\":5058:5070   */\n      add\n        /* \"#utility.yul\":5051:5070   */\n      swap1\n      pop\n        /* \"#utility.yul\":4694:5076   */\n      swap2\n      swap1\n      pop\n      jump\t// out\n        /* \"#utility.yul\":5082:5464   */\n    tag_207:\n        /* \"#utility.yul\":5232:5235   */\n      0x00\n        /* \"#utility.yul\":5253:5328   */\n      tag_209\n        /* \"#utility.yul\":5325:5327   */\n      0x11\n        /* \"#utility.yul\":5320:5323   */\n      dup4\n        /* \"#utility.yul\":5253:5328   */\n      tag_189\n      jump\t// in\n    tag_209:\n        /* \"#utility.yul\":5246:5328   */\n      swap2\n      pop\n        /* \"#utility.yul\":5337:5430   */\n      tag_210\n        /* \"#utility.yul\":5426:5429   */\n      dup3\n        /* \"#utility.yul\":5337:5430   */\n      tag_211\n      jump\t// in\n    tag_210:\n        /* \"#utility.yul\":5455:5457   */\n      0x20\n        /* \"#utility.yul\":5450:5453   */\n      dup3\n        /* \"#utility.yul\":5446:5458   */\n      add\n        /* \"#utility.yul\":5439:5458   */\n      swap1\n      pop\n        /* \"#utility.yul\":5082:5464   */\n      swap2\n      swap1\n      pop\n      jump\t// out\n        /* \"#utility.yul\":5470:5852   */\n    tag_212:\n        /* \"#utility.yul\":5620:5623   */\n      0x00\n        /* \"#utility.yul\":5641:5716   */\n      tag_214\n        /* \"#utility.yul\":5713:5715   */\n      0x1b\n        /* \"#utility.yul\":5708:5711   */\n      dup4\n        /* \"#utility.yul\":5641:5716   */\n      tag_189\n      jump\t// in\n    tag_214:\n        /* \"#utility.yul\":5634:5716   */\n      swap2\n      pop\n        /* \"#utility.yul\":5725:5818   */\n      tag_215\n        /* \"#utility.yul\":5814:5817   */\n      dup3\n        /* \"#utility.yul\":5725:5818   */\n      tag_216\n      jump\t// in\n    tag_215:\n        /* \"#utility.yul\":5843:5845   */\n      0x20\n        /* \"#utility.yul\":5838:5841   */\n      dup3\n        /* \"#utility.yul\":5834:5846   */\n      add\n        /* \"#utility.yul\":5827:5846   */\n      swap1\n      pop\n        /* \"#utility.yul\":5470:5852   */\n      swap2\n      swap1\n      pop\n      jump\t// out\n        /* \"#utility.yul\":5858:6240   */\n    tag_217:\n        /* \"#utility.yul\":6008:6011   */\n      0x00\n        /* \"#utility.yul\":6029:6104   */\n      tag_219\n        /* \"#utility.yul\":6101:6103   */\n      0x11\n        /* \"#utility.yul\":6096:6099   */\n      dup4\n        /* \"#utility.yul\":6029:6104   */\n      tag_189\n      jump\t// in\n    tag_219:\n        /* \"#utility.yul\":6022:6104   */\n      swap2\n      pop\n        /* \"#utility.yul\":6113:6206   */\n      tag_220\n        /* \"#utility.yul\":6202:6205   */\n      dup3\n        /* \"#utility.yul\":6113:6206   */\n      tag_221\n      jump\t// in\n    tag_220:\n        /* \"#utility.yul\":6231:6233   */\n      0x20\n        /* \"#utility.yul\":6226:6229   */\n      dup3\n        /* \"#utility.yul\":6222:6234   */\n      add\n        /* \"#utility.yul\":6215:6234   */\n      swap1\n      pop\n        /* \"#utility.yul\":5858:6240   */\n      swap2\n      swap1\n      pop\n      jump\t// out\n        /* \"#utility.yul\":6246:6372   */\n    tag_222:\n        /* \"#utility.yul\":6341:6365   */\n      tag_224\n        /* \"#utility.yul\":6359:6364   */\n      dup2\n        /* \"#utility.yul\":6341:6365   */\n      tag_225\n      jump\t// in\n    tag_224:\n        /* \"#utility.yul\":6336:6339   */\n      dup3\n        /* \"#utility.yul\":6329:6366   */\n      mstore\n        /* \"#utility.yul\":6246:6372   */\n      pop\n      pop\n      jump\t// out\n        /* \"#utility.yul\":6378:7061   */\n    tag_18:\n        /* \"#utility.yul\":6614:6618   */\n      0x00\n        /* \"#utility.yul\":6652:6654   */\n      0x60\n        /* \"#utility.yul\":6641:6650   */\n      dup3\n        /* \"#utility.yul\":6637:6655   */\n      add\n        /* \"#utility.yul\":6629:6655   */\n      swap1\n      pop\n        /* \"#utility.yul\":6665:6742   */\n      tag_227\n        /* \"#utility.yul\":6739:6740   */\n      0x00\n        /* \"#utility.yul\":6728:6737   */\n      dup4\n        /* \"#utility.yul\":6724:6741   */\n      add\n        /* \"#utility.yul\":6715:6721   */\n      dup6\n        /* \"#utility.yul\":6665:6742   */\n      tag_136\n      jump\t// in\n    tag_227:\n        /* \"#utility.yul\":6752:6840   */\n      tag_228\n        /* \"#utility.yul\":6836:6838   */\n      0x20\n        /* \"#utility.yul\":6825:6834   */\n      dup4\n        /* \"#utility.yul\":6821:6839   */\n      add\n        /* \"#utility.yul\":6812:6818   */\n      dup5\n        /* \"#utility.yul\":6752:6840   */\n      tag_140\n      jump\t// in\n    tag_228:\n        /* \"#utility.yul\":6887:6896   */\n      dup2\n        /* \"#utility.yul\":6881:6885   */\n      dup2\n        /* \"#utility.yul\":6877:6897   */\n      sub\n        /* \"#utility.yul\":6872:6874   */\n      0x40\n        /* \"#utility.yul\":6861:6870   */\n      dup4\n        /* \"#utility.yul\":6857:6875   */\n      add\n        /* \"#utility.yul\":6850:6898   */\n      mstore\n        /* \"#utility.yul\":6915:7054   */\n      tag_229\n        /* \"#utility.yul\":7049:7053   */\n      dup2\n        /* \"#utility.yul\":6915:7054   */\n      tag_217\n      jump\t// in\n    tag_229:\n        /* \"#utility.yul\":6907:7054   */\n      swap1\n      pop\n        /* \"#utility.yul\":6378:7061   */\n      swap4\n      swap3\n      pop\n      pop\n      pop\n      jump\t// out\n        /* \"#utility.yul\":7067:7750   */\n    tag_41:\n        /* \"#utility.yul\":7303:7307   */\n      0x00\n        /* \"#utility.yul\":7341:7343   */\n      0x60\n        /* \"#utility.yul\":7330:7339   */\n      dup3\n        /* \"#utility.yul\":7326:7344   */\n      add\n        /* \"#utility.yul\":7318:7344   */\n      swap1\n      pop\n        /* \"#utility.yul\":7354:7431   */\n      tag_231\n        /* \"#utility.yul\":7428:7429   */\n      0x00\n        /* \"#utility.yul\":7417:7426   */\n      dup4\n        /* \"#utility.yul\":7413:7430   */\n      add\n        /* \"#utility.yul\":7404:7410   */\n      dup6\n        /* \"#utility.yul\":7354:7431   */\n      tag_136\n      jump\t// in\n    tag_231:\n        /* \"#utility.yul\":7441:7529   */\n      tag_232\n        /* \"#utility.yul\":7525:7527   */\n      0x20\n        /* \"#utility.yul\":7514:7523   */\n      dup4\n        /* \"#utility.yul\":7510:7528   */\n      add\n        /* \"#utility.yul\":7501:7507   */\n      dup5\n        /* \"#utility.yul\":7441:7529   */\n      tag_144\n      jump\t// in\n    tag_232:\n        /* \"#utility.yul\":7576:7585   */\n      dup2\n        /* \"#utility.yul\":7570:7574   */\n      dup2\n        /* \"#utility.yul\":7566:7586   */\n      sub\n        /* \"#utility.yul\":7561:7563   */\n      0x40\n        /* \"#utility.yul\":7550:7559   */\n      dup4\n        /* \"#utility.yul\":7546:7564   */\n      add\n        /* \"#utility.yul\":7539:7587   */\n      mstore\n        /* \"#utility.yul\":7604:7743   */\n      tag_233\n        /* \"#utility.yul\":7738:7742   */\n      dup2\n        /* \"#utility.yul\":7604:7743   */\n      tag_212\n      jump\t// in\n    tag_233:\n        /* \"#utility.yul\":7596:7743   */\n      swap1\n      pop\n        /* \"#utility.yul\":7067:7750   */\n      swap4\n      swap3\n      pop\n      pop\n      pop\n      jump\t// out\n        /* \"#utility.yul\":7756:8437   */\n    tag_101:\n        /* \"#utility.yul\":7991:7995   */\n      0x00\n        /* \"#utility.yul\":8029:8031   */\n      0x60\n        /* \"#utility.yul\":8018:8027   */\n      dup3\n        /* \"#utility.yul\":8014:8032   */\n      add\n        /* \"#utility.yul\":8006:8032   */\n      swap1\n      pop\n        /* \"#utility.yul\":8042:8119   */\n      tag_235\n        /* \"#utility.yul\":8116:8117   */\n      0x00\n        /* \"#utility.yul\":8105:8114   */\n      dup4\n        /* \"#utility.yul\":8101:8118   */\n      add\n        /* \"#utility.yul\":8092:8098   */\n      dup6\n        /* \"#utility.yul\":8042:8119   */\n      tag_136\n      jump\t// in\n    tag_235:\n        /* \"#utility.yul\":8129:8216   */\n      tag_236\n        /* \"#utility.yul\":8212:8214   */\n      0x20\n        /* \"#utility.yul\":8201:8210   */\n      dup4\n        /* \"#utility.yul\":8197:8215   */\n      add\n        /* \"#utility.yul\":8188:8194   */\n      dup5\n        /* \"#utility.yul\":8129:8216   */\n      tag_152\n      jump\t// in\n    tag_236:\n        /* \"#utility.yul\":8263:8272   */\n      dup2\n        /* \"#utility.yul\":8257:8261   */\n      dup2\n        /* \"#utility.yul\":8253:8273   */\n      sub\n        /* \"#utility.yul\":8248:8250   */\n      0x40\n        /* \"#utility.yul\":8237:8246   */\n      dup4\n        /* \"#utility.yul\":8233:8251   */\n      add\n        /* \"#utility.yul\":8226:8274   */\n      mstore\n        /* \"#utility.yul\":8291:8430   */\n      tag_237\n        /* \"#utility.yul\":8425:8429   */\n      dup2\n        /* \"#utility.yul\":8291:8430   */\n      tag_192\n      jump\t// in\n    tag_237:\n        /* \"#utility.yul\":8283:8430   */\n      swap1\n      pop\n        /* \"#utility.yul\":7756:8437   */\n      swap4\n      swap3\n      pop\n      pop\n      pop\n      jump\t// out\n        /* \"#utility.yul\":8443:9124   */\n    tag_52:\n        /* \"#utility.yul\":8678:8682   */\n      0x00\n        /* \"#utility.yul\":8716:8718   */\n      0x60\n        /* \"#utility.yul\":8705:8714   */\n      dup3\n        /* \"#utility.yul\":8701:8719   */\n      add\n        /* \"#utility.yul\":8693:8719   */\n      swap1\n      pop\n        /* \"#utility.yul\":8729:8806   */\n      tag_239\n        /* \"#utility.yul\":8803:8804   */\n      0x00\n        /* \"#utility.yul\":8792:8801   */\n      dup4\n        /* \"#utility.yul\":8788:8805   */\n      add\n        /* \"#utility.yul\":8779:8785   */\n      dup6\n        /* \"#utility.yul\":8729:8806   */\n      tag_136\n      jump\t// in\n    tag_239:\n        /* \"#utility.yul\":8816:8903   */\n      tag_240\n        /* \"#utility.yul\":8899:8901   */\n      0x20\n        /* \"#utility.yul\":8888:8897   */\n      dup4\n        /* \"#utility.yul\":8884:8902   */\n      add\n        /* \"#utility.yul\":8875:8881   */\n      dup5\n        /* \"#utility.yul\":8816:8903   */\n      tag_152\n      jump\t// in\n    tag_240:\n        /* \"#utility.yul\":8950:8959   */\n      dup2\n        /* \"#utility.yul\":8944:8948   */\n      dup2\n        /* \"#utility.yul\":8940:8960   */\n      sub\n        /* \"#utility.yul\":8935:8937   */\n      0x40\n        /* \"#utility.yul\":8924:8933   */\n      dup4\n        /* \"#utility.yul\":8920:8938   */\n      add\n        /* \"#utility.yul\":8913:8961   */\n      mstore\n        /* \"#utility.yul\":8978:9117   */\n      tag_241\n        /* \"#utility.yul\":9112:9116   */\n      dup2\n        /* \"#utility.yul\":8978:9117   */\n      tag_202\n      jump\t// in\n    tag_241:\n        /* \"#utility.yul\":8970:9117   */\n      swap1\n      pop\n        /* \"#utility.yul\":8443:9124   */\n      swap4\n      swap3\n      pop\n      pop\n      pop\n      jump\t// out\n        /* \"#utility.yul\":9130:9811   */\n    tag_30:\n        /* \"#utility.yul\":9365:9369   */\n      0x00\n        /* \"#utility.yul\":9403:9405   */\n      0x60\n        /* \"#utility.yul\":9392:9401   */\n      dup3\n        /* \"#utility.yul\":9388:9406   */\n      add\n        /* \"#utility.yul\":9380:9406   */\n      swap1\n      pop\n        /* \"#utility.yul\":9416:9493   */\n      tag_243\n        /* \"#utility.yul\":9490:9491   */\n      0x00\n        /* \"#utility.yul\":9479:9488   */\n      dup4\n        /* \"#utility.yul\":9475:9492   */\n      add\n        /* \"#utility.yul\":9466:9472   */\n      dup6\n        /* \"#utility.yul\":9416:9493   */\n      tag_136\n      jump\t// in\n    tag_243:\n        /* \"#utility.yul\":9503:9590   */\n      tag_244\n        /* \"#utility.yul\":9586:9588   */\n      0x20\n        /* \"#utility.yul\":9575:9584   */\n      dup4\n        /* \"#utility.yul\":9571:9589   */\n      add\n        /* \"#utility.yul\":9562:9568   */\n      dup5\n        /* \"#utility.yul\":9503:9590   */\n      tag_162\n      jump\t// in\n    tag_244:\n        /* \"#utility.yul\":9637:9646   */\n      dup2\n        /* \"#utility.yul\":9631:9635   */\n      dup2\n        /* \"#utility.yul\":9627:9647   */\n      sub\n        /* \"#utility.yul\":9622:9624   */\n      0x40\n        /* \"#utility.yul\":9611:9620   */\n      dup4\n        /* \"#utility.yul\":9607:9625   */\n      add\n        /* \"#utility.yul\":9600:9648   */\n      mstore\n        /* \"#utility.yul\":9665:9804   */\n      tag_245\n        /* \"#utility.yul\":9799:9803   */\n      dup2\n        /* \"#utility.yul\":9665:9804   */\n      tag_207\n      jump\t// in\n    tag_245:\n        /* \"#utility.yul\":9657:9804   */\n      swap1\n      pop\n        /* \"#utility.yul\":9130:9811   */\n      swap4\n      swap3\n      pop\n      pop\n      pop\n      jump\t// out\n        /* \"#utility.yul\":9817:10053   */\n    tag_83:\n        /* \"#utility.yul\":9917:9921   */\n      0x00\n        /* \"#utility.yul\":9955:9957   */\n      0x20\n        /* \"#utility.yul\":9944:9953   */\n      dup3\n        /* \"#utility.yul\":9940:9958   */\n      add\n        /* \"#utility.yul\":9932:9958   */\n      swap1\n      pop\n        /* \"#utility.yul\":9968:10046   */\n      tag_247\n        /* \"#utility.yul\":10043:10044   */\n      0x00\n        /* \"#utility.yul\":10032:10041   */\n      dup4\n        /* \"#utility.yul\":10028:10045   */\n      add\n        /* \"#utility.yul\":10019:10025   */\n      dup5\n        /* \"#utility.yul\":9968:10046   */\n      tag_148\n      jump\t// in\n    tag_247:\n        /* \"#utility.yul\":9817:10053   */\n      swap3\n      swap2\n      pop\n      pop\n      jump\t// out\n        /* \"#utility.yul\":10059:10297   */\n    tag_58:\n        /* \"#utility.yul\":10160:10164   */\n      0x00\n        /* \"#utility.yul\":10198:10200   */\n      0x20\n        /* \"#utility.yul\":10187:10196   */\n      dup3\n        /* \"#utility.yul\":10183:10201   */\n      add\n        /* \"#utility.yul\":10175:10201   */\n      swap1\n      pop\n        /* \"#utility.yul\":10211:10290   */\n      tag_249\n        /* \"#utility.yul\":10287:10288   */\n      0x00\n        /* \"#utility.yul\":10276:10285   */\n      dup4\n        /* \"#utility.yul\":10272:10289   */\n      add\n        /* \"#utility.yul\":10263:10269   */\n      dup5\n        /* \"#utility.yul\":10211:10290   */\n      tag_155\n      jump\t// in\n    tag_249:\n        /* \"#utility.yul\":10059:10297   */\n      swap3\n      swap2\n      pop\n      pop\n      jump\t// out\n        /* \"#utility.yul\":10303:10539   */\n    tag_95:\n        /* \"#utility.yul\":10403:10407   */\n      0x00\n        /* \"#utility.yul\":10441:10443   */\n      0x20\n        /* \"#utility.yul\":10430:10439   */\n      dup3\n        /* \"#utility.yul\":10426:10444   */\n      add\n        /* \"#utility.yul\":10418:10444   */\n      swap1\n      pop\n        /* \"#utility.yul\":10454:10532   */\n      tag_251\n        /* \"#utility.yul\":10529:10530   */\n      0x00\n        /* \"#utility.yul\":10518:10527   */\n      dup4\n        /* \"#utility.yul\":10514:10531   */\n      add\n        /* \"#utility.yul\":10505:10511   */\n      dup5\n        /* \"#utility.yul\":10454:10532   */\n      tag_170\n      jump\t// in\n    tag_251:\n        /* \"#utility.yul\":10303:10539   */\n      swap3\n      swap2\n      pop\n      pop\n      jump\t// out\n        /* \"#utility.yul\":10545:10905   */\n    tag_11:\n        /* \"#utility.yul\":10680:10684   */\n      0x00\n        /* \"#utility.yul\":10718:10720   */\n      0x40\n        /* \"#utility.yul\":10707:10716   */\n      dup3\n        /* \"#utility.yul\":10703:10721   */\n      add\n        /* \"#utility.yul\":10695:10721   */\n      swap1\n      pop\n        /* \"#utility.yul\":10731:10809   */\n      tag_253\n        /* \"#utility.yul\":10806:10807   */\n      0x00\n        /* \"#utility.yul\":10795:10804   */\n      dup4\n        /* \"#utility.yul\":10791:10808   */\n      add\n        /* \"#utility.yul\":10782:10788   */\n      dup6\n        /* \"#utility.yul\":10731:10809   */\n      tag_174\n      jump\t// in\n    tag_253:\n        /* \"#utility.yul\":10819:10898   */\n      tag_254\n        /* \"#utility.yul\":10894:10896   */\n      0x20\n        /* \"#utility.yul\":10883:10892   */\n      dup4\n        /* \"#utility.yul\":10879:10897   */\n      add\n        /* \"#utility.yul\":10870:10876   */\n      dup5\n        /* \"#utility.yul\":10819:10898   */\n      tag_148\n      jump\t// in\n    tag_254:\n        /* \"#utility.yul\":10545:10905   */\n      swap4\n      swap3\n      pop\n      pop\n      pop\n      jump\t// out\n        /* \"#utility.yul\":10911:11159   */\n    tag_71:\n        /* \"#utility.yul\":11017:11021   */\n      0x00\n        /* \"#utility.yul\":11055:11057   */\n      0x20\n        /* \"#utility.yul\":11044:11053   */\n      dup3\n        /* \"#utility.yul\":11040:11058   */\n      add\n        /* \"#utility.yul\":11032:11058   */\n      swap1\n      pop\n        /* \"#utility.yul\":11068:11152   */\n      tag_256\n        /* \"#utility.yul\":11149:11150   */\n      0x00\n        /* \"#utility.yul\":11138:11147   */\n      dup4\n        /* \"#utility.yul\":11134:11151   */\n      add\n        /* \"#utility.yul\":11125:11131   */\n      dup5\n        /* \"#utility.yul\":11068:11152   */\n      tag_182\n      jump\t// in\n    tag_256:\n        /* \"#utility.yul\":10911:11159   */\n      swap3\n      swap2\n      pop\n      pop\n      jump\t// out\n        /* \"#utility.yul\":11165:11852   */\n    tag_77:\n        /* \"#utility.yul\":11403:11407   */\n      0x00\n        /* \"#utility.yul\":11441:11443   */\n      0x60\n        /* \"#utility.yul\":11430:11439   */\n      dup3\n        /* \"#utility.yul\":11426:11444   */\n      add\n        /* \"#utility.yul\":11418:11444   */\n      swap1\n      pop\n        /* \"#utility.yul\":11454:11533   */\n      tag_258\n        /* \"#utility.yul\":11530:11531   */\n      0x00\n        /* \"#utility.yul\":11519:11528   */\n      dup4\n        /* \"#utility.yul\":11515:11532   */\n      add\n        /* \"#utility.yul\":11506:11512   */\n      dup6\n        /* \"#utility.yul\":11454:11533   */\n      tag_222\n      jump\t// in\n    tag_258:\n        /* \"#utility.yul\":11543:11631   */\n      tag_259\n        /* \"#utility.yul\":11627:11629   */\n      0x20\n        /* \"#utility.yul\":11616:11625   */\n      dup4\n        /* \"#utility.yul\":11612:11630   */\n      add\n        /* \"#utility.yul\":11603:11609   */\n      dup5\n        /* \"#utility.yul\":11543:11631   */\n      tag_159\n      jump\t// in\n    tag_259:\n        /* \"#utility.yul\":11678:11687   */\n      dup2\n        /* \"#utility.yul\":11672:11676   */\n      dup2\n        /* \"#utility.yul\":11668:11688   */\n      sub\n        /* \"#utility.yul\":11663:11665   */\n      0x40\n        /* \"#utility.yul\":11652:11661   */\n      dup4\n        /* \"#utility.yul\":11648:11666   */\n      add\n        /* \"#utility.yul\":11641:11689   */\n      mstore\n        /* \"#utility.yul\":11706:11845   */\n      tag_260\n        /* \"#utility.yul\":11840:11844   */\n      dup2\n        /* \"#utility.yul\":11706:11845   */\n      tag_192\n      jump\t// in\n    tag_260:\n        /* \"#utility.yul\":11698:11845   */\n      swap1\n      pop\n        /* \"#utility.yul\":11165:11852   */\n      swap4\n      swap3\n      pop\n      pop\n      pop\n      jump\t// out\n        /* \"#utility.yul\":11858:12545   */\n    tag_65:\n        /* \"#utility.yul\":12096:12100   */\n      0x00\n        /* \"#utility.yul\":12134:12136   */\n      0x60\n        /* \"#utility.yul\":12123:12132   */\n      dup3\n        /* \"#utility.yul\":12119:12137   */\n      add\n        /* \"#utility.yul\":12111:12137   */\n      swap1\n      pop\n        /* \"#utility.yul\":12147:12226   */\n      tag_262\n        /* \"#utility.yul\":12223:12224   */\n      0x00\n        /* \"#utility.yul\":12212:12221   */\n      dup4\n        /* \"#utility.yul\":12208:12225   */\n      add\n        /* \"#utility.yul\":12199:12205   */\n      dup6\n        /* \"#utility.yul\":12147:12226   */\n      tag_222\n      jump\t// in\n    tag_262:\n        /* \"#utility.yul\":12236:12324   */\n      tag_263\n        /* \"#utility.yul\":12320:12322   */\n      0x20\n        /* \"#utility.yul\":12309:12318   */\n      dup4\n        /* \"#utility.yul\":12305:12323   */\n      add\n        /* \"#utility.yul\":12296:12302   */\n      dup5\n        /* \"#utility.yul\":12236:12324   */\n      tag_166\n      jump\t// in\n    tag_263:\n        /* \"#utility.yul\":12371:12380   */\n      dup2\n        /* \"#utility.yul\":12365:12369   */\n      dup2\n        /* \"#utility.yul\":12361:12381   */\n      sub\n        /* \"#utility.yul\":12356:12358   */\n      0x40\n        /* \"#utility.yul\":12345:12354   */\n      dup4\n        /* \"#utility.yul\":12341:12359   */\n      add\n        /* \"#utility.yul\":12334:12382   */\n      mstore\n        /* \"#utility.yul\":12399:12538   */\n      tag_264\n        /* \"#utility.yul\":12533:12537   */\n      dup2\n        /* \"#utility.yul\":12399:12538   */\n      tag_186\n      jump\t// in\n    tag_264:\n        /* \"#utility.yul\":12391:12538   */\n      swap1\n      pop\n        /* \"#utility.yul\":11858:12545   */\n      swap4\n      swap3\n      pop\n      pop\n      pop\n      jump\t// out\n        /* \"#utility.yul\":12551:13238   */\n    tag_89:\n        /* \"#utility.yul\":12789:12793   */\n      0x00\n        /* \"#utility.yul\":12827:12829   */\n      0x60\n        /* \"#utility.yul\":12816:12825   */\n      dup3\n        /* \"#utility.yul\":12812:12830   */\n      add\n        /* \"#utility.yul\":12804:12830   */\n      swap1\n      pop\n        /* \"#utility.yul\":12840:12919   */\n      tag_266\n        /* \"#utility.yul\":12916:12917   */\n      0x00\n        /* \"#utility.yul\":12905:12914   */\n      dup4\n        /* \"#utility.yul\":12901:12918   */\n      add\n        /* \"#utility.yul\":12892:12898   */\n      dup6\n        /* \"#utility.yul\":12840:12919   */\n      tag_222\n      jump\t// in\n    tag_266:\n        /* \"#utility.yul\":12929:13017   */\n      tag_267\n        /* \"#utility.yul\":13013:13015   */\n      0x20\n        /* \"#utility.yul\":13002:13011   */\n      dup4\n        /* \"#utility.yul\":12998:13016   */\n      add\n        /* \"#utility.yul\":12989:12995   */\n      dup5\n        /* \"#utility.yul\":12929:13017   */\n      tag_178\n      jump\t// in\n    tag_267:\n        /* \"#utility.yul\":13064:13073   */\n      dup2\n        /* \"#utility.yul\":13058:13062   */\n      dup2\n        /* \"#utility.yul\":13054:13074   */\n      sub\n        /* \"#utility.yul\":13049:13051   */\n      0x40\n        /* \"#utility.yul\":13038:13047   */\n      dup4\n        /* \"#utility.yul\":13034:13052   */\n      add\n        /* \"#utility.yul\":13027:13075   */\n      mstore\n        /* \"#utility.yul\":13092:13231   */\n      tag_268\n        /* \"#utility.yul\":13226:13230   */\n      dup2\n        /* \"#utility.yul\":13092:13231   */\n      tag_197\n      jump\t// in\n    tag_268:\n        /* \"#utility.yul\":13084:13231   */\n      swap1\n      pop\n        /* \"#utility.yul\":12551:13238   */\n      swap4\n      swap3\n      pop\n      pop\n      pop\n      jump\t// out\n        /* \"#utility.yul\":13325:13502   */\n    tag_189:\n        /* \"#utility.yul\":13417:13428   */\n      0x00\n        /* \"#utility.yul\":13451:13457   */\n      dup3\n        /* \"#utility.yul\":13446:13449   */\n      dup3\n        /* \"#utility.yul\":13439:13458   */\n      mstore\n        /* \"#utility.yul\":13491:13495   */\n      0x20\n        /* \"#utility.yul\":13486:13489   */\n      dup3\n        /* \"#utility.yul\":13482:13496   */\n      add\n        /* \"#utility.yul\":13467:13496   */\n      swap1\n      pop\n        /* \"#utility.yul\":13325:13502   */\n      swap3\n      swap2\n      pop\n      pop\n      jump\t// out\n        /* \"#utility.yul\":13508:13598   */\n    tag_272:\n        /* \"#utility.yul\":13542:13549   */\n      0x00\n        /* \"#utility.yul\":13585:13590   */\n      dup2\n        /* \"#utility.yul\":13578:13591   */\n      iszero\n        /* \"#utility.yul\":13571:13592   */\n      iszero\n        /* \"#utility.yul\":13560:13592   */\n      swap1\n      pop\n        /* \"#utility.yul\":13508:13598   */\n      swap2\n      swap1\n      pop\n      jump\t// out\n        /* \"#utility.yul\":13604:13696   */\n    tag_274:\n        /* \"#utility.yul\":13640:13647   */\n      0x00\n        /* \"#utility.yul\":13684:13689   */\n      dup2\n        /* \"#utility.yul\":13680:13682   */\n      0x0f\n        /* \"#utility.yul\":13669:13690   */\n      signextend\n        /* \"#utility.yul\":13658:13690   */\n      swap1\n      pop\n        /* \"#utility.yul\":13604:13696   */\n      swap2\n      swap1\n      pop\n      jump\t// out\n        /* \"#utility.yul\":13702:13778   */\n    tag_139:\n        /* \"#utility.yul\":13738:13745   */\n      0x00\n        /* \"#utility.yul\":13767:13772   */\n      dup2\n        /* \"#utility.yul\":13756:13772   */\n      swap1\n      pop\n        /* \"#utility.yul\":13702:13778   */\n      swap2\n      swap1\n      pop\n      jump\t// out\n        /* \"#utility.yul\":13784:13861   */\n    tag_225:\n        /* \"#utility.yul\":13821:13828   */\n      0x00\n        /* \"#utility.yul\":13850:13855   */\n      dup2\n        /* \"#utility.yul\":13839:13855   */\n      swap1\n      pop\n        /* \"#utility.yul\":13784:13861   */\n      swap2\n      swap1\n      pop\n      jump\t// out\n        /* \"#utility.yul\":13867:13987   */\n    tag_143:\n        /* \"#utility.yul\":13925:13934   */\n      0x00\n        /* \"#utility.yul\":13958:13981   */\n      tag_279\n        /* \"#utility.yul\":13975:13980   */\n      dup3\n        /* \"#utility.yul\":13958:13981   */\n      tag_139\n      jump\t// in\n    tag_279:\n        /* \"#utility.yul\":13945:13981   */\n      swap1\n      pop\n        /* \"#utility.yul\":13867:13987   */\n      swap2\n      swap1\n      pop\n      jump\t// out\n        /* \"#utility.yul\":13993:14113   */\n    tag_147:\n        /* \"#utility.yul\":14051:14060   */\n      0x00\n        /* \"#utility.yul\":14084:14107   */\n      tag_281\n        /* \"#utility.yul\":14101:14106   */\n      dup3\n        /* \"#utility.yul\":14084:14107   */\n      tag_139\n      jump\t// in\n    tag_281:\n        /* \"#utility.yul\":14071:14107   */\n      swap1\n      pop\n        /* \"#utility.yul\":13993:14113   */\n      swap2\n      swap1\n      pop\n      jump\t// out\n        /* \"#utility.yul\":14119:14238   */\n    tag_151:\n        /* \"#utility.yul\":14176:14185   */\n      0x00\n        /* \"#utility.yul\":14209:14232   */\n      tag_283\n        /* \"#utility.yul\":14226:14231   */\n      dup3\n        /* \"#utility.yul\":14209:14232   */\n      tag_139\n      jump\t// in\n    tag_283:\n        /* \"#utility.yul\":14196:14232   */\n      swap1\n      pop\n        /* \"#utility.yul\":14119:14238   */\n      swap2\n      swap1\n      pop\n      jump\t// out\n        /* \"#utility.yul\":14244:14365   */\n    tag_158:\n        /* \"#utility.yul\":14302:14311   */\n      0x00\n        /* \"#utility.yul\":14335:14359   */\n      tag_285\n        /* \"#utility.yul\":14353:14358   */\n      dup3\n        /* \"#utility.yul\":14335:14359   */\n      tag_225\n      jump\t// in\n    tag_285:\n        /* \"#utility.yul\":14322:14359   */\n      swap1\n      pop\n        /* \"#utility.yul\":14244:14365   */\n      swap2\n      swap1\n      pop\n      jump\t// out\n        /* \"#utility.yul\":14371:14490   */\n    tag_165:\n        /* \"#utility.yul\":14428:14437   */\n      0x00\n        /* \"#utility.yul\":14461:14484   */\n      tag_287\n        /* \"#utility.yul\":14478:14483   */\n      dup3\n        /* \"#utility.yul\":14461:14484   */\n      tag_139\n      jump\t// in\n    tag_287:\n        /* \"#utility.yul\":14448:14484   */\n      swap1\n      pop\n        /* \"#utility.yul\":14371:14490   */\n      swap2\n      swap1\n      pop\n      jump\t// out\n        /* \"#utility.yul\":14496:14617   */\n    tag_169:\n        /* \"#utility.yul\":14554:14563   */\n      0x00\n        /* \"#utility.yul\":14587:14611   */\n      tag_289\n        /* \"#utility.yul\":14605:14610   */\n      dup3\n        /* \"#utility.yul\":14587:14611   */\n      tag_225\n      jump\t// in\n    tag_289:\n        /* \"#utility.yul\":14574:14611   */\n      swap1\n      pop\n        /* \"#utility.yul\":14496:14617   */\n      swap2\n      swap1\n      pop\n      jump\t// out\n        /* \"#utility.yul\":14623:14742   */\n    tag_173:\n        /* \"#utility.yul\":14680:14689   */\n      0x00\n        /* \"#utility.yul\":14713:14736   */\n      tag_291\n        /* \"#utility.yul\":14730:14735   */\n      dup3\n        /* \"#utility.yul\":14713:14736   */\n      tag_274\n      jump\t// in\n    tag_291:\n        /* \"#utility.yul\":14700:14736   */\n      swap1\n      pop\n        /* \"#utility.yul\":14623:14742   */\n      swap2\n      swap1\n      pop\n      jump\t// out\n        /* \"#utility.yul\":14748:14867   */\n    tag_177:\n        /* \"#utility.yul\":14805:14814   */\n      0x00\n        /* \"#utility.yul\":14838:14861   */\n      tag_293\n        /* \"#utility.yul\":14855:14860   */\n      dup3\n        /* \"#utility.yul\":14838:14861   */\n      tag_139\n      jump\t// in\n    tag_293:\n        /* \"#utility.yul\":14825:14861   */\n      swap1\n      pop\n        /* \"#utility.yul\":14748:14867   */\n      swap2\n      swap1\n      pop\n      jump\t// out\n        /* \"#utility.yul\":14873:14994   */\n    tag_181:\n        /* \"#utility.yul\":14931:14940   */\n      0x00\n        /* \"#utility.yul\":14964:14988   */\n      tag_295\n        /* \"#utility.yul\":14982:14987   */\n      dup3\n        /* \"#utility.yul\":14964:14988   */\n      tag_225\n      jump\t// in\n    tag_295:\n        /* \"#utility.yul\":14951:14988   */\n      swap1\n      pop\n        /* \"#utility.yul\":14873:14994   */\n      swap2\n      swap1\n      pop\n      jump\t// out\n        /* \"#utility.yul\":15000:15125   */\n    tag_185:\n        /* \"#utility.yul\":15063:15072   */\n      0x00\n        /* \"#utility.yul\":15096:15119   */\n      tag_297\n        /* \"#utility.yul\":15113:15118   */\n      dup3\n        /* \"#utility.yul\":15096:15119   */\n      tag_139\n      jump\t// in\n    tag_297:\n        /* \"#utility.yul\":15083:15119   */\n      swap1\n      pop\n        /* \"#utility.yul\":15000:15125   */\n      swap2\n      swap1\n      pop\n      jump\t// out\n        /* \"#utility.yul\":15254:15371   */\n    tag_126:\n        /* \"#utility.yul\":15363:15364   */\n      0x00\n        /* \"#utility.yul\":15360:15361   */\n      dup1\n        /* \"#utility.yul\":15353:15365   */\n      revert\n        /* \"#utility.yul\":15377:15538   */\n    tag_191:\n        /* \"#utility.yul\":15517:15530   */\n      0x73686f756c642062652036000000000000000000000000000000000000000000\n        /* \"#utility.yul\":15513:15514   */\n      0x00\n        /* \"#utility.yul\":15505:15511   */\n      dup3\n        /* \"#utility.yul\":15501:15515   */\n      add\n        /* \"#utility.yul\":15494:15531   */\n      mstore\n        /* \"#utility.yul\":15377:15538   */\n      pop\n      jump\t// out\n        /* \"#utility.yul\":15544:15705   */\n    tag_196:\n        /* \"#utility.yul\":15684:15697   */\n      0x73686f756c642062652033000000000000000000000000000000000000000000\n        /* \"#utility.yul\":15680:15681   */\n      0x00\n        /* \"#utility.yul\":15672:15678   */\n      dup3\n        /* \"#utility.yul\":15668:15682   */\n      add\n        /* \"#utility.yul\":15661:15698   */\n      mstore\n        /* \"#utility.yul\":15544:15705   */\n      pop\n      jump\t// out\n        /* \"#utility.yul\":15711:15872   */\n    tag_201:\n        /* \"#utility.yul\":15851:15864   */\n      0x73686f756c642062652039000000000000000000000000000000000000000000\n        /* \"#utility.yul\":15847:15848   */\n      0x00\n        /* \"#utility.yul\":15839:15845   */\n      dup3\n        /* \"#utility.yul\":15835:15849   */\n      add\n        /* \"#utility.yul\":15828:15865   */\n      mstore\n        /* \"#utility.yul\":15711:15872   */\n      pop\n      jump\t// out\n        /* \"#utility.yul\":15878:16048   */\n    tag_206:\n        /* \"#utility.yul\":16018:16040   */\n      0x6469766973696f6e2073686f756c642062652033000000000000000000000000\n        /* \"#utility.yul\":16014:16015   */\n      0x00\n        /* \"#utility.yul\":16006:16012   */\n      dup3\n        /* \"#utility.yul\":16002:16016   */\n      add\n        /* \"#utility.yul\":15995:16041   */\n      mstore\n        /* \"#utility.yul\":15878:16048   */\n      pop\n      jump\t// out\n        /* \"#utility.yul\":16054:16221   */\n    tag_211:\n        /* \"#utility.yul\":16194:16213   */\n      0x72657374612073686f756c642062652036000000000000000000000000000000\n        /* \"#utility.yul\":16190:16191   */\n      0x00\n        /* \"#utility.yul\":16182:16188   */\n      dup3\n        /* \"#utility.yul\":16178:16192   */\n      add\n        /* \"#utility.yul\":16171:16214   */\n      mstore\n        /* \"#utility.yul\":16054:16221   */\n      pop\n      jump\t// out\n        /* \"#utility.yul\":16227:16404   */\n    tag_216:\n        /* \"#utility.yul\":16367:16396   */\n      0x6d756c7469706c69636163696f6e2073686f756c642062652032370000000000\n        /* \"#utility.yul\":16363:16364   */\n      0x00\n        /* \"#utility.yul\":16355:16361   */\n      dup3\n        /* \"#utility.yul\":16351:16365   */\n      add\n        /* \"#utility.yul\":16344:16397   */\n      mstore\n        /* \"#utility.yul\":16227:16404   */\n      pop\n      jump\t// out\n        /* \"#utility.yul\":16410:16577   */\n    tag_221:\n        /* \"#utility.yul\":16550:16569   */\n      0x73756d612073686f756c64206265203132000000000000000000000000000000\n        /* \"#utility.yul\":16546:16547   */\n      0x00\n        /* \"#utility.yul\":16538:16544   */\n      dup3\n        /* \"#utility.yul\":16534:16548   */\n      add\n        /* \"#utility.yul\":16527:16570   */\n      mstore\n        /* \"#utility.yul\":16410:16577   */\n      pop\n      jump\t// out\n        /* \"#utility.yul\":16583:16699   */\n    tag_114:\n        /* \"#utility.yul\":16653:16674   */\n      tag_309\n        /* \"#utility.yul\":16668:16673   */\n      dup2\n        /* \"#utility.yul\":16653:16674   */\n      tag_272\n      jump\t// in\n    tag_309:\n        /* \"#utility.yul\":16646:16651   */\n      dup2\n        /* \"#utility.yul\":16643:16675   */\n      eq\n        /* \"#utility.yul\":16633:16693   */\n      tag_310\n      jumpi\n        /* \"#utility.yul\":16689:16690   */\n      0x00\n        /* \"#utility.yul\":16686:16687   */\n      dup1\n        /* \"#utility.yul\":16679:16691   */\n      revert\n        /* \"#utility.yul\":16633:16693   */\n    tag_310:\n        /* \"#utility.yul\":16583:16699   */\n      pop\n      jump\t// out\n        /* \"#utility.yul\":16705:16825   */\n    tag_118:\n        /* \"#utility.yul\":16777:16800   */\n      tag_312\n        /* \"#utility.yul\":16794:16799   */\n      dup2\n        /* \"#utility.yul\":16777:16800   */\n      tag_139\n      jump\t// in\n    tag_312:\n        /* \"#utility.yul\":16770:16775   */\n      dup2\n        /* \"#utility.yul\":16767:16801   */\n      eq\n        /* \"#utility.yul\":16757:16819   */\n      tag_313\n      jumpi\n        /* \"#utility.yul\":16815:16816   */\n      0x00\n        /* \"#utility.yul\":16812:16813   */\n      dup1\n        /* \"#utility.yul\":16805:16817   */\n      revert\n        /* \"#utility.yul\":16757:16819   */\n    tag_313:\n        /* \"#utility.yul\":16705:16825   */\n      pop\n      jump\t// out\n        /* \"#utility.yul\":16831:16953   */\n    tag_122:\n        /* \"#utility.yul\":16904:16928   */\n      tag_315\n        /* \"#utility.yul\":16922:16927   */\n      dup2\n        /* \"#utility.yul\":16904:16928   */\n      tag_225\n      jump\t// in\n    tag_315:\n        /* \"#utility.yul\":16897:16902   */\n      dup2\n        /* \"#utility.yul\":16894:16929   */\n      eq\n        /* \"#utility.yul\":16884:16947   */\n      tag_316\n      jumpi\n        /* \"#utility.yul\":16943:16944   */\n      0x00\n        /* \"#utility.yul\":16940:16941   */\n      dup1\n        /* \"#utility.yul\":16933:16945   */\n      revert\n        /* \"#utility.yul\":16884:16947   */\n    tag_316:\n        /* \"#utility.yul\":16831:16953   */\n      pop\n      jump\t// out\n    stop\n\n    sub_0: assembly {\n            /* \"localhost/Documents/GitHub/SOLIDITY-REMIX/5ef069451e67668750287d64bc5f8bae/calculadora.sol\":94:957  contract Calculadora {\r... */\n          mstore(0x40, 0x80)\n          callvalue\n          dup1\n          iszero\n          tag_1\n          jumpi\n          0x00\n          dup1\n          revert\n        tag_1:\n          pop\n          dataSize(sub_0)\n          dup1\n          dataOffset(sub_0)\n          0x00\n          codecopy\n          0x00\n          return\n        stop\n\n        sub_0: assembly {\n                /* \"localhost/Documents/GitHub/SOLIDITY-REMIX/5ef069451e67668750287d64bc5f8bae/calculadora.sol\":94:957  contract Calculadora {\r... */\n              mstore(0x40, 0x80)\n              callvalue\n              dup1\n              iszero\n              tag_1\n              jumpi\n              0x00\n              dup1\n              revert\n            tag_1:\n              pop\n              jumpi(tag_2, lt(calldatasize, 0x04))\n              shr(0xe0, calldataload(0x00))\n              dup1\n              0x7ea9e058\n              gt\n              tag_11\n              jumpi\n              dup1\n              0x7ea9e058\n              eq\n              tag_7\n              jumpi\n              dup1\n              0x83714834\n              eq\n              tag_8\n              jumpi\n              dup1\n              0x8f8a0d19\n              eq\n              tag_9\n              jumpi\n              dup1\n              0xb8501073\n              eq\n              tag_10\n              jumpi\n              jump(tag_2)\n            tag_11:\n              dup1\n              0x09b7cdda\n              eq\n              tag_3\n              jumpi\n              dup1\n              0x187983bf\n              eq\n              tag_4\n              jumpi\n              dup1\n              0x4c627bad\n              eq\n              tag_5\n              jumpi\n              dup1\n              0x7d825142\n              eq\n              tag_6\n              jumpi\n            tag_2:\n              0x00\n              dup1\n              revert\n                /* \"localhost/Documents/GitHub/SOLIDITY-REMIX/5ef069451e67668750287d64bc5f8bae/calculadora.sol\":463:557  function division(int a,int b) public pure returns (int){\r... */\n            tag_3:\n              tag_12\n              0x04\n              dup1\n              calldatasize\n              sub\n              dup2\n              add\n              swap1\n              tag_13\n              swap2\n              swap1\n              tag_14\n              jump\t// in\n            tag_13:\n              tag_15\n              jump\t// in\n            tag_12:\n              mload(0x40)\n              tag_16\n              swap2\n              swap1\n              tag_17\n              jump\t// in\n            tag_16:\n              mload(0x40)\n              dup1\n              swap2\n              sub\n              swap1\n              return\n                /* \"localhost/Documents/GitHub/SOLIDITY-REMIX/5ef069451e67668750287d64bc5f8bae/calculadora.sol\":350:455  function multiplicacion(int a, int b) public pure returns (int){\r... */\n            tag_4:\n              tag_18\n              0x04\n              dup1\n              calldatasize\n              sub\n              dup2\n              add\n              swap1\n              tag_19\n              swap2\n              swap1\n              tag_14\n              jump\t// in\n            tag_19:\n              tag_20\n              jump\t// in\n            tag_18:\n              mload(0x40)\n              tag_21\n              swap2\n              swap1\n              tag_17\n              jump\t// in\n            tag_21:\n              mload(0x40)\n              dup1\n              swap2\n              sub\n              swap1\n              return\n                /* \"localhost/Documents/GitHub/SOLIDITY-REMIX/5ef069451e67668750287d64bc5f8bae/calculadora.sol\":251:342  function resta(int a, int b) public pure returns (int){\r... */\n            tag_5:\n              tag_22\n              0x04\n              dup1\n              calldatasize\n              sub\n              dup2\n              add\n              swap1\n              tag_23\n              swap2\n              swap1\n              tag_14\n              jump\t// in\n            tag_23:\n              tag_24\n              jump\t// in\n            tag_22:\n              mload(0x40)\n              tag_25\n              swap2\n              swap1\n              tag_17\n              jump\t// in\n            tag_25:\n              mload(0x40)\n              dup1\n              swap2\n              sub\n              swap1\n              return\n                /* \"localhost/Documents/GitHub/SOLIDITY-REMIX/5ef069451e67668750287d64bc5f8bae/calculadora.sol\":667:762  function  valorAbsoluto(int a) public pure returns (uint){\r... */\n            tag_6:\n              tag_26\n              0x04\n              dup1\n              calldatasize\n              sub\n              dup2\n              add\n              swap1\n              tag_27\n              swap2\n              swap1\n              tag_28\n              jump\t// in\n            tag_27:\n              tag_29\n              jump\t// in\n            tag_26:\n              mload(0x40)\n              tag_30\n              swap2\n              swap1\n              tag_31\n              jump\t// in\n            tag_30:\n              mload(0x40)\n              dup1\n              swap2\n              sub\n              swap1\n              return\n                /* \"localhost/Documents/GitHub/SOLIDITY-REMIX/5ef069451e67668750287d64bc5f8bae/calculadora.sol\":770:855  function cuadrado(int a) public pure returns (uint){\r... */\n            tag_7:\n              tag_32\n              0x04\n              dup1\n              calldatasize\n              sub\n              dup2\n              add\n              swap1\n              tag_33\n              swap2\n              swap1\n              tag_28\n              jump\t// in\n            tag_33:\n              tag_34\n              jump\t// in\n            tag_32:\n              mload(0x40)\n              tag_35\n              swap2\n              swap1\n              tag_31\n              jump\t// in\n            tag_35:\n              mload(0x40)\n              dup1\n              swap2\n              sub\n              swap1\n              return\n                /* \"localhost/Documents/GitHub/SOLIDITY-REMIX/5ef069451e67668750287d64bc5f8bae/calculadora.sol\":565:659  function factorial(uint a) public pure returns (uint){\r... */\n            tag_8:\n              tag_36\n              0x04\n              dup1\n              calldatasize\n              sub\n              dup2\n              add\n              swap1\n              tag_37\n              swap2\n              swap1\n              tag_38\n              jump\t// in\n            tag_37:\n              tag_39\n              jump\t// in\n            tag_36:\n              mload(0x40)\n              tag_40\n              swap2\n              swap1\n              tag_31\n              jump\t// in\n            tag_40:\n              mload(0x40)\n              dup1\n              swap2\n              sub\n              swap1\n              return\n                /* \"localhost/Documents/GitHub/SOLIDITY-REMIX/5ef069451e67668750287d64bc5f8bae/calculadora.sol\":150:243  function suma(int a, int b) public pure returns (int){\r... */\n            tag_9:\n              tag_41\n              0x04\n              dup1\n              calldatasize\n              sub\n              dup2\n              add\n              swap1\n              tag_42\n              swap2\n              swap1\n              tag_14\n              jump\t// in\n            tag_42:\n              tag_43\n              jump\t// in\n            tag_41:\n              mload(0x40)\n              tag_44\n              swap2\n              swap1\n              tag_17\n              jump\t// in\n            tag_44:\n              mload(0x40)\n              dup1\n              swap2\n              sub\n              swap1\n              return\n                /* \"localhost/Documents/GitHub/SOLIDITY-REMIX/5ef069451e67668750287d64bc5f8bae/calculadora.sol\":863:954  function raizCuadrada(int128 a) public pure returns (int){\r... */\n            tag_10:\n              tag_45\n              0x04\n              dup1\n              calldatasize\n              sub\n              dup2\n              add\n              swap1\n              tag_46\n              swap2\n              swap1\n              tag_47\n              jump\t// in\n            tag_46:\n              tag_48\n              jump\t// in\n            tag_45:\n              mload(0x40)\n              tag_49\n              swap2\n              swap1\n              tag_17\n              jump\t// in\n            tag_49:\n              mload(0x40)\n              dup1\n              swap2\n              sub\n              swap1\n              return\n                /* \"localhost/Documents/GitHub/SOLIDITY-REMIX/5ef069451e67668750287d64bc5f8bae/calculadora.sol\":463:557  function division(int a,int b) public pure returns (int){\r... */\n            tag_15:\n                /* \"localhost/Documents/GitHub/SOLIDITY-REMIX/5ef069451e67668750287d64bc5f8bae/calculadora.sol\":515:518  int */\n              0x00\n                /* \"localhost/Documents/GitHub/SOLIDITY-REMIX/5ef069451e67668750287d64bc5f8bae/calculadora.sol\":537:549  a.dividir(b) */\n              tag_51\n                /* \"localhost/Documents/GitHub/SOLIDITY-REMIX/5ef069451e67668750287d64bc5f8bae/calculadora.sol\":547:548  b */\n              dup3\n                /* \"localhost/Documents/GitHub/SOLIDITY-REMIX/5ef069451e67668750287d64bc5f8bae/calculadora.sol\":537:538  a */\n              dup5\n                /* \"localhost/Documents/GitHub/SOLIDITY-REMIX/5ef069451e67668750287d64bc5f8bae/calculadora.sol\":537:546  a.dividir */\n              tag_52\n              swap1\n                /* \"localhost/Documents/GitHub/SOLIDITY-REMIX/5ef069451e67668750287d64bc5f8bae/calculadora.sol\":537:549  a.dividir(b) */\n              swap2\n              swap1\n              0xffffffff\n              and\n              jump\t// in\n            tag_51:\n                /* \"localhost/Documents/GitHub/SOLIDITY-REMIX/5ef069451e67668750287d64bc5f8bae/calculadora.sol\":530:549  return a.dividir(b) */\n              swap1\n              pop\n                /* \"localhost/Documents/GitHub/SOLIDITY-REMIX/5ef069451e67668750287d64bc5f8bae/calculadora.sol\":463:557  function division(int a,int b) public pure returns (int){\r... */\n              swap3\n              swap2\n              pop\n              pop\n              jump\t// out\n                /* \"localhost/Documents/GitHub/SOLIDITY-REMIX/5ef069451e67668750287d64bc5f8bae/calculadora.sol\":350:455  function multiplicacion(int a, int b) public pure returns (int){\r... */\n            tag_20:\n                /* \"localhost/Documents/GitHub/SOLIDITY-REMIX/5ef069451e67668750287d64bc5f8bae/calculadora.sol\":409:412  int */\n              0x00\n                /* \"localhost/Documents/GitHub/SOLIDITY-REMIX/5ef069451e67668750287d64bc5f8bae/calculadora.sol\":431:447  a.multiplicar(b) */\n              tag_54\n                /* \"localhost/Documents/GitHub/SOLIDITY-REMIX/5ef069451e67668750287d64bc5f8bae/calculadora.sol\":445:446  b */\n              dup3\n                /* \"localhost/Documents/GitHub/SOLIDITY-REMIX/5ef069451e67668750287d64bc5f8bae/calculadora.sol\":431:432  a */\n              dup5\n                /* \"localhost/Documents/GitHub/SOLIDITY-REMIX/5ef069451e67668750287d64bc5f8bae/calculadora.sol\":431:444  a.multiplicar */\n              tag_55\n              swap1\n                /* \"localhost/Documents/GitHub/SOLIDITY-REMIX/5ef069451e67668750287d64bc5f8bae/calculadora.sol\":431:447  a.multiplicar(b) */\n              swap2\n              swap1\n              0xffffffff\n              and\n              jump\t// in\n            tag_54:\n                /* \"localhost/Documents/GitHub/SOLIDITY-REMIX/5ef069451e67668750287d64bc5f8bae/calculadora.sol\":424:447  return a.multiplicar(b) */\n              swap1\n              pop\n                /* \"localhost/Documents/GitHub/SOLIDITY-REMIX/5ef069451e67668750287d64bc5f8bae/calculadora.sol\":350:455  function multiplicacion(int a, int b) public pure returns (int){\r... */\n              swap3\n              swap2\n              pop\n              pop\n              jump\t// out\n                /* \"localhost/Documents/GitHub/SOLIDITY-REMIX/5ef069451e67668750287d64bc5f8bae/calculadora.sol\":251:342  function resta(int a, int b) public pure returns (int){\r... */\n            tag_24:\n                /* \"localhost/Documents/GitHub/SOLIDITY-REMIX/5ef069451e67668750287d64bc5f8bae/calculadora.sol\":301:304  int */\n              0x00\n                /* \"localhost/Documents/GitHub/SOLIDITY-REMIX/5ef069451e67668750287d64bc5f8bae/calculadora.sol\":323:334  a.restar(b) */\n              tag_57\n                /* \"localhost/Documents/GitHub/SOLIDITY-REMIX/5ef069451e67668750287d64bc5f8bae/calculadora.sol\":332:333  b */\n              dup3\n                /* \"localhost/Documents/GitHub/SOLIDITY-REMIX/5ef069451e67668750287d64bc5f8bae/calculadora.sol\":323:324  a */\n              dup5\n                /* \"localhost/Documents/GitHub/SOLIDITY-REMIX/5ef069451e67668750287d64bc5f8bae/calculadora.sol\":323:331  a.restar */\n              tag_58\n              swap1\n                /* \"localhost/Documents/GitHub/SOLIDITY-REMIX/5ef069451e67668750287d64bc5f8bae/calculadora.sol\":323:334  a.restar(b) */\n              swap2\n              swap1\n              0xffffffff\n              and\n              jump\t// in\n            tag_57:\n                /* \"localhost/Documents/GitHub/SOLIDITY-REMIX/5ef069451e67668750287d64bc5f8bae/calculadora.sol\":316:334  return a.restar(b) */\n              swap1\n              pop\n                /* \"localhost/Documents/GitHub/SOLIDITY-REMIX/5ef069451e67668750287d64bc5f8bae/calculadora.sol\":251:342  function resta(int a, int b) public pure returns (int){\r... */\n              swap3\n              swap2\n              pop\n              pop\n              jump\t// out\n                /* \"localhost/Documents/GitHub/SOLIDITY-REMIX/5ef069451e67668750287d64bc5f8bae/calculadora.sol\":667:762  function  valorAbsoluto(int a) public pure returns (uint){\r... */\n            tag_29:\n                /* \"localhost/Documents/GitHub/SOLIDITY-REMIX/5ef069451e67668750287d64bc5f8bae/calculadora.sol\":719:723  uint */\n              0x00\n                /* \"localhost/Documents/GitHub/SOLIDITY-REMIX/5ef069451e67668750287d64bc5f8bae/calculadora.sol\":742:754  a.absoluto() */\n              tag_60\n                /* \"localhost/Documents/GitHub/SOLIDITY-REMIX/5ef069451e67668750287d64bc5f8bae/calculadora.sol\":742:743  a */\n              dup3\n                /* \"localhost/Documents/GitHub/SOLIDITY-REMIX/5ef069451e67668750287d64bc5f8bae/calculadora.sol\":742:752  a.absoluto */\n              tag_61\n                /* \"localhost/Documents/GitHub/SOLIDITY-REMIX/5ef069451e67668750287d64bc5f8bae/calculadora.sol\":742:754  a.absoluto() */\n              jump\t// in\n            tag_60:\n                /* \"localhost/Documents/GitHub/SOLIDITY-REMIX/5ef069451e67668750287d64bc5f8bae/calculadora.sol\":735:754  return a.absoluto() */\n              swap1\n              pop\n                /* \"localhost/Documents/GitHub/SOLIDITY-REMIX/5ef069451e67668750287d64bc5f8bae/calculadora.sol\":667:762  function  valorAbsoluto(int a) public pure returns (uint){\r... */\n              swap2\n              swap1\n              pop\n              jump\t// out\n                /* \"localhost/Documents/GitHub/SOLIDITY-REMIX/5ef069451e67668750287d64bc5f8bae/calculadora.sol\":770:855  function cuadrado(int a) public pure returns (uint){\r... */\n            tag_34:\n                /* \"localhost/Documents/GitHub/SOLIDITY-REMIX/5ef069451e67668750287d64bc5f8bae/calculadora.sol\":816:820  uint */\n              0x00\n                /* \"localhost/Documents/GitHub/SOLIDITY-REMIX/5ef069451e67668750287d64bc5f8bae/calculadora.sol\":839:847  a.pow2() */\n              tag_63\n                /* \"localhost/Documents/GitHub/SOLIDITY-REMIX/5ef069451e67668750287d64bc5f8bae/calculadora.sol\":839:840  a */\n              dup3\n                /* \"localhost/Documents/GitHub/SOLIDITY-REMIX/5ef069451e67668750287d64bc5f8bae/calculadora.sol\":839:845  a.pow2 */\n              tag_64\n                /* \"localhost/Documents/GitHub/SOLIDITY-REMIX/5ef069451e67668750287d64bc5f8bae/calculadora.sol\":839:847  a.pow2() */\n              jump\t// in\n            tag_63:\n                /* \"localhost/Documents/GitHub/SOLIDITY-REMIX/5ef069451e67668750287d64bc5f8bae/calculadora.sol\":832:847  return a.pow2() */\n              swap1\n              pop\n                /* \"localhost/Documents/GitHub/SOLIDITY-REMIX/5ef069451e67668750287d64bc5f8bae/calculadora.sol\":770:855  function cuadrado(int a) public pure returns (uint){\r... */\n              swap2\n              swap1\n              pop\n              jump\t// out\n                /* \"localhost/Documents/GitHub/SOLIDITY-REMIX/5ef069451e67668750287d64bc5f8bae/calculadora.sol\":565:659  function factorial(uint a) public pure returns (uint){\r... */\n            tag_39:\n                /* \"localhost/Documents/GitHub/SOLIDITY-REMIX/5ef069451e67668750287d64bc5f8bae/calculadora.sol\":613:617  uint */\n              0x00\n                /* \"localhost/Documents/GitHub/SOLIDITY-REMIX/5ef069451e67668750287d64bc5f8bae/calculadora.sol\":636:651  a.factoriales() */\n              tag_66\n                /* \"localhost/Documents/GitHub/SOLIDITY-REMIX/5ef069451e67668750287d64bc5f8bae/calculadora.sol\":636:637  a */\n              dup3\n                /* \"localhost/Documents/GitHub/SOLIDITY-REMIX/5ef069451e67668750287d64bc5f8bae/calculadora.sol\":636:649  a.factoriales */\n              tag_67\n                /* \"localhost/Documents/GitHub/SOLIDITY-REMIX/5ef069451e67668750287d64bc5f8bae/calculadora.sol\":636:651  a.factoriales() */\n              jump\t// in\n            tag_66:\n                /* \"localhost/Documents/GitHub/SOLIDITY-REMIX/5ef069451e67668750287d64bc5f8bae/calculadora.sol\":629:651  return a.factoriales() */\n              swap1\n              pop\n                /* \"localhost/Documents/GitHub/SOLIDITY-REMIX/5ef069451e67668750287d64bc5f8bae/calculadora.sol\":565:659  function factorial(uint a) public pure returns (uint){\r... */\n              swap2\n              swap1\n              pop\n              jump\t// out\n                /* \"localhost/Documents/GitHub/SOLIDITY-REMIX/5ef069451e67668750287d64bc5f8bae/calculadora.sol\":150:243  function suma(int a, int b) public pure returns (int){\r... */\n            tag_43:\n                /* \"localhost/Documents/GitHub/SOLIDITY-REMIX/5ef069451e67668750287d64bc5f8bae/calculadora.sol\":199:202  int */\n              0x00\n                /* \"localhost/Documents/GitHub/SOLIDITY-REMIX/5ef069451e67668750287d64bc5f8bae/calculadora.sol\":225:235  a.sumar(b) */\n              tag_69\n                /* \"localhost/Documents/GitHub/SOLIDITY-REMIX/5ef069451e67668750287d64bc5f8bae/calculadora.sol\":233:234  b */\n              dup3\n                /* \"localhost/Documents/GitHub/SOLIDITY-REMIX/5ef069451e67668750287d64bc5f8bae/calculadora.sol\":225:226  a */\n              dup5\n                /* \"localhost/Documents/GitHub/SOLIDITY-REMIX/5ef069451e67668750287d64bc5f8bae/calculadora.sol\":225:232  a.sumar */\n              tag_70\n              swap1\n                /* \"localhost/Documents/GitHub/SOLIDITY-REMIX/5ef069451e67668750287d64bc5f8bae/calculadora.sol\":225:235  a.sumar(b) */\n              swap2\n              swap1\n              0xffffffff\n              and\n              jump\t// in\n            tag_69:\n                /* \"localhost/Documents/GitHub/SOLIDITY-REMIX/5ef069451e67668750287d64bc5f8bae/calculadora.sol\":218:235  return a.sumar(b) */\n              swap1\n              pop\n                /* \"localhost/Documents/GitHub/SOLIDITY-REMIX/5ef069451e67668750287d64bc5f8bae/calculadora.sol\":150:243  function suma(int a, int b) public pure returns (int){\r... */\n              swap3\n              swap2\n              pop\n              pop\n              jump\t// out\n                /* \"localhost/Documents/GitHub/SOLIDITY-REMIX/5ef069451e67668750287d64bc5f8bae/calculadora.sol\":863:954  function raizCuadrada(int128 a) public pure returns (int){\r... */\n            tag_48:\n                /* \"localhost/Documents/GitHub/SOLIDITY-REMIX/5ef069451e67668750287d64bc5f8bae/calculadora.sol\":916:919  int */\n              0x00\n                /* \"localhost/Documents/GitHub/SOLIDITY-REMIX/5ef069451e67668750287d64bc5f8bae/calculadora.sol\":938:946  a.sqrt() */\n              tag_72\n                /* \"localhost/Documents/GitHub/SOLIDITY-REMIX/5ef069451e67668750287d64bc5f8bae/calculadora.sol\":938:939  a */\n              dup3\n                /* \"localhost/Documents/GitHub/SOLIDITY-REMIX/5ef069451e67668750287d64bc5f8bae/calculadora.sol\":938:944  a.sqrt */\n              0x0f\n              signextend\n              tag_73\n                /* \"localhost/Documents/GitHub/SOLIDITY-REMIX/5ef069451e67668750287d64bc5f8bae/calculadora.sol\":938:946  a.sqrt() */\n              jump\t// in\n            tag_72:\n                /* \"localhost/Documents/GitHub/SOLIDITY-REMIX/5ef069451e67668750287d64bc5f8bae/calculadora.sol\":931:946  return a.sqrt() */\n              0x0f\n              signextend\n              swap1\n              pop\n                /* \"localhost/Documents/GitHub/SOLIDITY-REMIX/5ef069451e67668750287d64bc5f8bae/calculadora.sol\":863:954  function raizCuadrada(int128 a) public pure returns (int){\r... */\n              swap2\n              swap1\n              pop\n              jump\t// out\n                /* \"localhost/Documents/GitHub/SOLIDITY-REMIX/5ef069451e67668750287d64bc5f8bae/libmates.sol\":396:490  function dividir(int _a,int _b) internal pure returns(int) {\r... */\n            tag_52:\n                /* \"localhost/Documents/GitHub/SOLIDITY-REMIX/5ef069451e67668750287d64bc5f8bae/libmates.sol\":450:453  int */\n              0x00\n                /* \"localhost/Documents/GitHub/SOLIDITY-REMIX/5ef069451e67668750287d64bc5f8bae/libmates.sol\":479:481  _b */\n              dup2\n                /* \"localhost/Documents/GitHub/SOLIDITY-REMIX/5ef069451e67668750287d64bc5f8bae/libmates.sol\":474:476  _a */\n              dup4\n                /* \"localhost/Documents/GitHub/SOLIDITY-REMIX/5ef069451e67668750287d64bc5f8bae/libmates.sol\":474:481  _a / _b */\n              tag_75\n              swap2\n              swap1\n              tag_76\n              jump\t// in\n            tag_75:\n                /* \"localhost/Documents/GitHub/SOLIDITY-REMIX/5ef069451e67668750287d64bc5f8bae/libmates.sol\":466:482  return (_a / _b) */\n              swap1\n              pop\n                /* \"localhost/Documents/GitHub/SOLIDITY-REMIX/5ef069451e67668750287d64bc5f8bae/libmates.sol\":396:490  function dividir(int _a,int _b) internal pure returns(int) {\r... */\n              swap3\n              swap2\n              pop\n              pop\n              jump\t// out\n                /* \"localhost/Documents/GitHub/SOLIDITY-REMIX/5ef069451e67668750287d64bc5f8bae/libmates.sol\":290:388  function multiplicar(int _a,int _b) internal pure returns(int) {\r... */\n            tag_55:\n                /* \"localhost/Documents/GitHub/SOLIDITY-REMIX/5ef069451e67668750287d64bc5f8bae/libmates.sol\":348:351  int */\n              0x00\n                /* \"localhost/Documents/GitHub/SOLIDITY-REMIX/5ef069451e67668750287d64bc5f8bae/libmates.sol\":377:379  _b */\n              dup2\n                /* \"localhost/Documents/GitHub/SOLIDITY-REMIX/5ef069451e67668750287d64bc5f8bae/libmates.sol\":372:374  _a */\n              dup4\n                /* \"localhost/Documents/GitHub/SOLIDITY-REMIX/5ef069451e67668750287d64bc5f8bae/libmates.sol\":372:379  _a * _b */\n              tag_78\n              swap2\n              swap1\n              tag_79\n              jump\t// in\n            tag_78:\n                /* \"localhost/Documents/GitHub/SOLIDITY-REMIX/5ef069451e67668750287d64bc5f8bae/libmates.sol\":364:380  return (_a * _b) */\n              swap1\n              pop\n                /* \"localhost/Documents/GitHub/SOLIDITY-REMIX/5ef069451e67668750287d64bc5f8bae/libmates.sol\":290:388  function multiplicar(int _a,int _b) internal pure returns(int) {\r... */\n              swap3\n              swap2\n              pop\n              pop\n              jump\t// out\n                /* \"localhost/Documents/GitHub/SOLIDITY-REMIX/5ef069451e67668750287d64bc5f8bae/libmates.sol\":189:282  function restar(int _a,int _b) internal pure returns(int) {\r... */\n            tag_58:\n                /* \"localhost/Documents/GitHub/SOLIDITY-REMIX/5ef069451e67668750287d64bc5f8bae/libmates.sol\":242:245  int */\n              0x00\n                /* \"localhost/Documents/GitHub/SOLIDITY-REMIX/5ef069451e67668750287d64bc5f8bae/libmates.sol\":271:273  _b */\n              dup2\n                /* \"localhost/Documents/GitHub/SOLIDITY-REMIX/5ef069451e67668750287d64bc5f8bae/libmates.sol\":266:268  _a */\n              dup4\n                /* \"localhost/Documents/GitHub/SOLIDITY-REMIX/5ef069451e67668750287d64bc5f8bae/libmates.sol\":266:273  _a - _b */\n              tag_81\n              swap2\n              swap1\n              tag_82\n              jump\t// in\n            tag_81:\n                /* \"localhost/Documents/GitHub/SOLIDITY-REMIX/5ef069451e67668750287d64bc5f8bae/libmates.sol\":258:274  return (_a - _b) */\n              swap1\n              pop\n                /* \"localhost/Documents/GitHub/SOLIDITY-REMIX/5ef069451e67668750287d64bc5f8bae/libmates.sol\":189:282  function restar(int _a,int _b) internal pure returns(int) {\r... */\n              swap3\n              swap2\n              pop\n              pop\n              jump\t// out\n                /* \"localhost/Documents/GitHub/SOLIDITY-REMIX/5ef069451e67668750287d64bc5f8bae/libmates.sol\":700:884  function absoluto(int _a) internal pure returns(uint) {\r... */\n            tag_61:\n                /* \"localhost/Documents/GitHub/SOLIDITY-REMIX/5ef069451e67668750287d64bc5f8bae/libmates.sol\":748:752  uint */\n              0x00\n                /* \"localhost/Documents/GitHub/SOLIDITY-REMIX/5ef069451e67668750287d64bc5f8bae/libmates.sol\":774:775  0 */\n              dup1\n                /* \"localhost/Documents/GitHub/SOLIDITY-REMIX/5ef069451e67668750287d64bc5f8bae/libmates.sol\":769:771  _a */\n              dup3\n                /* \"localhost/Documents/GitHub/SOLIDITY-REMIX/5ef069451e67668750287d64bc5f8bae/libmates.sol\":769:775  _a > 0 */\n              sgt\n                /* \"localhost/Documents/GitHub/SOLIDITY-REMIX/5ef069451e67668750287d64bc5f8bae/libmates.sol\":765:877  if (_a > 0){\r... */\n              iszero\n              tag_84\n              jumpi\n                /* \"localhost/Documents/GitHub/SOLIDITY-REMIX/5ef069451e67668750287d64bc5f8bae/libmates.sol\":803:805  _a */\n              dup2\n                /* \"localhost/Documents/GitHub/SOLIDITY-REMIX/5ef069451e67668750287d64bc5f8bae/libmates.sol\":791:807  return(uint(_a)) */\n              swap1\n              pop\n              jump(tag_83)\n                /* \"localhost/Documents/GitHub/SOLIDITY-REMIX/5ef069451e67668750287d64bc5f8bae/libmates.sol\":765:877  if (_a > 0){\r... */\n            tag_84:\n                /* \"localhost/Documents/GitHub/SOLIDITY-REMIX/5ef069451e67668750287d64bc5f8bae/libmates.sol\":861:863  _a */\n              dup2\n                /* \"localhost/Documents/GitHub/SOLIDITY-REMIX/5ef069451e67668750287d64bc5f8bae/libmates.sol\":860:863  -_a */\n              tag_86\n              swap1\n              tag_87\n              jump\t// in\n            tag_86:\n                /* \"localhost/Documents/GitHub/SOLIDITY-REMIX/5ef069451e67668750287d64bc5f8bae/libmates.sol\":848:865  return(uint(-_a)) */\n              swap1\n              pop\n                /* \"localhost/Documents/GitHub/SOLIDITY-REMIX/5ef069451e67668750287d64bc5f8bae/libmates.sol\":700:884  function absoluto(int _a) internal pure returns(uint) {\r... */\n            tag_83:\n              swap2\n              swap1\n              pop\n              jump\t// out\n                /* \"localhost/Documents/GitHub/SOLIDITY-REMIX/5ef069451e67668750287d64bc5f8bae/libmates.sol\":892:981  function pow2(int _a) internal pure returns(uint) {\r... */\n            tag_64:\n                /* \"localhost/Documents/GitHub/SOLIDITY-REMIX/5ef069451e67668750287d64bc5f8bae/libmates.sol\":936:940  uint */\n              0x00\n                /* \"localhost/Documents/GitHub/SOLIDITY-REMIX/5ef069451e67668750287d64bc5f8bae/libmates.sol\":970:972  _a */\n              dup2\n                /* \"localhost/Documents/GitHub/SOLIDITY-REMIX/5ef069451e67668750287d64bc5f8bae/libmates.sol\":965:967  _a */\n              dup3\n                /* \"localhost/Documents/GitHub/SOLIDITY-REMIX/5ef069451e67668750287d64bc5f8bae/libmates.sol\":965:972  _a * _a */\n              tag_89\n              swap2\n              swap1\n              tag_79\n              jump\t// in\n            tag_89:\n                /* \"localhost/Documents/GitHub/SOLIDITY-REMIX/5ef069451e67668750287d64bc5f8bae/libmates.sol\":953:973  return uint(_a * _a) */\n              swap1\n              pop\n                /* \"localhost/Documents/GitHub/SOLIDITY-REMIX/5ef069451e67668750287d64bc5f8bae/libmates.sol\":892:981  function pow2(int _a) internal pure returns(uint) {\r... */\n              swap2\n              swap1\n              pop\n              jump\t// out\n                /* \"localhost/Documents/GitHub/SOLIDITY-REMIX/5ef069451e67668750287d64bc5f8bae/libmates.sol\":498:692  function factoriales(uint _a) internal pure returns(uint){\r... */\n            tag_67:\n                /* \"localhost/Documents/GitHub/SOLIDITY-REMIX/5ef069451e67668750287d64bc5f8bae/libmates.sol\":550:554  uint */\n              0x00\n                /* \"localhost/Documents/GitHub/SOLIDITY-REMIX/5ef069451e67668750287d64bc5f8bae/libmates.sol\":576:577  1 */\n              0x01\n                /* \"localhost/Documents/GitHub/SOLIDITY-REMIX/5ef069451e67668750287d64bc5f8bae/libmates.sol\":570:572  _a */\n              dup3\n                /* \"localhost/Documents/GitHub/SOLIDITY-REMIX/5ef069451e67668750287d64bc5f8bae/libmates.sol\":570:577  _a <= 1 */\n              gt\n                /* \"localhost/Documents/GitHub/SOLIDITY-REMIX/5ef069451e67668750287d64bc5f8bae/libmates.sol\":566:685  if (_a <= 1){\r... */\n              tag_91\n              jumpi\n                /* \"localhost/Documents/GitHub/SOLIDITY-REMIX/5ef069451e67668750287d64bc5f8bae/libmates.sol\":600:601  1 */\n              0x01\n                /* \"localhost/Documents/GitHub/SOLIDITY-REMIX/5ef069451e67668750287d64bc5f8bae/libmates.sol\":593:601  return 1 */\n              swap1\n              pop\n              jump(tag_90)\n                /* \"localhost/Documents/GitHub/SOLIDITY-REMIX/5ef069451e67668750287d64bc5f8bae/libmates.sol\":566:685  if (_a <= 1){\r... */\n            tag_91:\n                /* \"localhost/Documents/GitHub/SOLIDITY-REMIX/5ef069451e67668750287d64bc5f8bae/libmates.sol\":655:672  factoriales(_a-1) */\n              tag_93\n                /* \"localhost/Documents/GitHub/SOLIDITY-REMIX/5ef069451e67668750287d64bc5f8bae/libmates.sol\":670:671  1 */\n              0x01\n                /* \"localhost/Documents/GitHub/SOLIDITY-REMIX/5ef069451e67668750287d64bc5f8bae/libmates.sol\":667:669  _a */\n              dup4\n                /* \"localhost/Documents/GitHub/SOLIDITY-REMIX/5ef069451e67668750287d64bc5f8bae/libmates.sol\":667:671  _a-1 */\n              tag_94\n              swap2\n              swap1\n              tag_95\n              jump\t// in\n            tag_94:\n                /* \"localhost/Documents/GitHub/SOLIDITY-REMIX/5ef069451e67668750287d64bc5f8bae/libmates.sol\":655:666  factoriales */\n              tag_67\n                /* \"localhost/Documents/GitHub/SOLIDITY-REMIX/5ef069451e67668750287d64bc5f8bae/libmates.sol\":655:672  factoriales(_a-1) */\n              jump\t// in\n            tag_93:\n                /* \"localhost/Documents/GitHub/SOLIDITY-REMIX/5ef069451e67668750287d64bc5f8bae/libmates.sol\":650:652  _a */\n              dup3\n                /* \"localhost/Documents/GitHub/SOLIDITY-REMIX/5ef069451e67668750287d64bc5f8bae/libmates.sol\":650:672  _a * factoriales(_a-1) */\n              tag_96\n              swap2\n              swap1\n              tag_97\n              jump\t// in\n            tag_96:\n                /* \"localhost/Documents/GitHub/SOLIDITY-REMIX/5ef069451e67668750287d64bc5f8bae/libmates.sol\":642:673  return (_a * factoriales(_a-1)) */\n              swap1\n              pop\n                /* \"localhost/Documents/GitHub/SOLIDITY-REMIX/5ef069451e67668750287d64bc5f8bae/libmates.sol\":498:692  function factoriales(uint _a) internal pure returns(uint){\r... */\n            tag_90:\n              swap2\n              swap1\n              pop\n              jump\t// out\n                /* \"localhost/Documents/GitHub/SOLIDITY-REMIX/5ef069451e67668750287d64bc5f8bae/libmates.sol\":89:181  function sumar(int _a,int _b) internal pure returns(int) {\r... */\n            tag_70:\n                /* \"localhost/Documents/GitHub/SOLIDITY-REMIX/5ef069451e67668750287d64bc5f8bae/libmates.sol\":141:144  int */\n              0x00\n                /* \"localhost/Documents/GitHub/SOLIDITY-REMIX/5ef069451e67668750287d64bc5f8bae/libmates.sol\":170:172  _b */\n              dup2\n                /* \"localhost/Documents/GitHub/SOLIDITY-REMIX/5ef069451e67668750287d64bc5f8bae/libmates.sol\":165:167  _a */\n              dup4\n                /* \"localhost/Documents/GitHub/SOLIDITY-REMIX/5ef069451e67668750287d64bc5f8bae/libmates.sol\":165:172  _a + _b */\n              tag_99\n              swap2\n              swap1\n              tag_100\n              jump\t// in\n            tag_99:\n                /* \"localhost/Documents/GitHub/SOLIDITY-REMIX/5ef069451e67668750287d64bc5f8bae/libmates.sol\":157:173  return (_a + _b) */\n              swap1\n              pop\n                /* \"localhost/Documents/GitHub/SOLIDITY-REMIX/5ef069451e67668750287d64bc5f8bae/libmates.sol\":89:181  function sumar(int _a,int _b) internal pure returns(int) {\r... */\n              swap3\n              swap2\n              pop\n              pop\n              jump\t// out\n                /* \"localhost/Documents/GitHub/SOLIDITY-REMIX/5ef069451e67668750287d64bc5f8bae/libmates.sol\":989:1135  function sqrt(int128 x) internal pure returns(int128){\r... */\n            tag_73:\n                /* \"localhost/Documents/GitHub/SOLIDITY-REMIX/5ef069451e67668750287d64bc5f8bae/libmates.sol\":1035:1041  int128 */\n              0x00\n                /* \"localhost/Documents/GitHub/SOLIDITY-REMIX/5ef069451e67668750287d64bc5f8bae/libmates.sol\":1066:1067  0 */\n              dup1\n                /* \"localhost/Documents/GitHub/SOLIDITY-REMIX/5ef069451e67668750287d64bc5f8bae/libmates.sol\":1063:1064  x */\n              dup3\n                /* \"localhost/Documents/GitHub/SOLIDITY-REMIX/5ef069451e67668750287d64bc5f8bae/libmates.sol\":1063:1067  x>=0 */\n              0x0f\n              signextend\n              slt\n              iszero\n                /* \"localhost/Documents/GitHub/SOLIDITY-REMIX/5ef069451e67668750287d64bc5f8bae/libmates.sol\":1053:1069  require ( x>=0 ) */\n              tag_102\n              jumpi\n              0x00\n              dup1\n              revert\n            tag_102:\n                /* \"localhost/Documents/GitHub/SOLIDITY-REMIX/5ef069451e67668750287d64bc5f8bae/libmates.sol\":1094:1126  sqrtUnsigned(uint256(int256(x))) */\n              tag_103\n                /* \"localhost/Documents/GitHub/SOLIDITY-REMIX/5ef069451e67668750287d64bc5f8bae/libmates.sol\":1122:1123  x */\n              dup3\n                /* \"localhost/Documents/GitHub/SOLIDITY-REMIX/5ef069451e67668750287d64bc5f8bae/libmates.sol\":1115:1124  int256(x) */\n              0x0f\n              signextend\n                /* \"localhost/Documents/GitHub/SOLIDITY-REMIX/5ef069451e67668750287d64bc5f8bae/libmates.sol\":1094:1106  sqrtUnsigned */\n              tag_104\n                /* \"localhost/Documents/GitHub/SOLIDITY-REMIX/5ef069451e67668750287d64bc5f8bae/libmates.sol\":1094:1126  sqrtUnsigned(uint256(int256(x))) */\n              jump\t// in\n            tag_103:\n                /* \"localhost/Documents/GitHub/SOLIDITY-REMIX/5ef069451e67668750287d64bc5f8bae/libmates.sol\":1080:1127  return int128(sqrtUnsigned(uint256(int256(x)))) */\n              swap1\n              pop\n                /* \"localhost/Documents/GitHub/SOLIDITY-REMIX/5ef069451e67668750287d64bc5f8bae/libmates.sol\":989:1135  function sqrt(int128 x) internal pure returns(int128){\r... */\n              swap2\n              swap1\n              pop\n              jump\t// out\n                /* \"localhost/Documents/GitHub/SOLIDITY-REMIX/5ef069451e67668750287d64bc5f8bae/libmates.sol\":1143:1692  function sqrtUnsigned (uint256 x) internal pure returns(uint128) {\r... */\n            tag_104:\n                /* \"localhost/Documents/GitHub/SOLIDITY-REMIX/5ef069451e67668750287d64bc5f8bae/libmates.sol\":1199:1206  uint128 */\n              0x00\n                /* \"localhost/Documents/GitHub/SOLIDITY-REMIX/5ef069451e67668750287d64bc5f8bae/libmates.sol\":1233:1234  0 */\n              dup1\n                /* \"localhost/Documents/GitHub/SOLIDITY-REMIX/5ef069451e67668750287d64bc5f8bae/libmates.sol\":1228:1229  x */\n              dup3\n                /* \"localhost/Documents/GitHub/SOLIDITY-REMIX/5ef069451e67668750287d64bc5f8bae/libmates.sol\":1228:1234  x >= 0 */\n              lt\n              iszero\n                /* \"localhost/Documents/GitHub/SOLIDITY-REMIX/5ef069451e67668750287d64bc5f8bae/libmates.sol\":1219:1235  require (x >= 0) */\n              tag_106\n              jumpi\n              0x00\n              dup1\n              revert\n            tag_106:\n                /* \"localhost/Documents/GitHub/SOLIDITY-REMIX/5ef069451e67668750287d64bc5f8bae/libmates.sol\":1255:1256  0 */\n              0x00\n                /* \"localhost/Documents/GitHub/SOLIDITY-REMIX/5ef069451e67668750287d64bc5f8bae/libmates.sol\":1250:1251  x */\n              dup3\n                /* \"localhost/Documents/GitHub/SOLIDITY-REMIX/5ef069451e67668750287d64bc5f8bae/libmates.sol\":1250:1256  x == 0 */\n              eq\n                /* \"localhost/Documents/GitHub/SOLIDITY-REMIX/5ef069451e67668750287d64bc5f8bae/libmates.sol\":1246:1679  if (x == 0) return 0;\r... */\n              iszero\n              tag_107\n              jumpi\n                /* \"localhost/Documents/GitHub/SOLIDITY-REMIX/5ef069451e67668750287d64bc5f8bae/libmates.sol\":1265:1266  0 */\n              0x00\n                /* \"localhost/Documents/GitHub/SOLIDITY-REMIX/5ef069451e67668750287d64bc5f8bae/libmates.sol\":1258:1266  return 0 */\n              swap1\n              pop\n              jump(tag_105)\n                /* \"localhost/Documents/GitHub/SOLIDITY-REMIX/5ef069451e67668750287d64bc5f8bae/libmates.sol\":1246:1679  if (x == 0) return 0;\r... */\n            tag_107:\n                /* \"localhost/Documents/GitHub/SOLIDITY-REMIX/5ef069451e67668750287d64bc5f8bae/libmates.sol\":1297:1306  uint256 r */\n              0x00\n                /* \"localhost/Documents/GitHub/SOLIDITY-REMIX/5ef069451e67668750287d64bc5f8bae/libmates.sol\":1309:1310  1 */\n              0x01\n                /* \"localhost/Documents/GitHub/SOLIDITY-REMIX/5ef069451e67668750287d64bc5f8bae/libmates.sol\":1297:1310  uint256 r = 1 */\n              swap1\n              pop\n                /* \"localhost/Documents/GitHub/SOLIDITY-REMIX/5ef069451e67668750287d64bc5f8bae/libmates.sol\":1407:1408  2 */\n              0x02\n                /* \"localhost/Documents/GitHub/SOLIDITY-REMIX/5ef069451e67668750287d64bc5f8bae/libmates.sol\":1404:1405  r */\n              dup2\n                /* \"localhost/Documents/GitHub/SOLIDITY-REMIX/5ef069451e67668750287d64bc5f8bae/libmates.sol\":1402:1403  x */\n              dup5\n                /* \"localhost/Documents/GitHub/SOLIDITY-REMIX/5ef069451e67668750287d64bc5f8bae/libmates.sol\":1402:1405  x/r */\n              tag_109\n              swap2\n              swap1\n              tag_110\n              jump\t// in\n            tag_109:\n                /* \"localhost/Documents/GitHub/SOLIDITY-REMIX/5ef069451e67668750287d64bc5f8bae/libmates.sol\":1400:1401  r */\n              dup3\n                /* \"localhost/Documents/GitHub/SOLIDITY-REMIX/5ef069451e67668750287d64bc5f8bae/libmates.sol\":1400:1405  r+x/r */\n              tag_111\n              swap2\n              swap1\n              tag_112\n              jump\t// in\n            tag_111:\n                /* \"localhost/Documents/GitHub/SOLIDITY-REMIX/5ef069451e67668750287d64bc5f8bae/libmates.sol\":1399:1408  (r+x/r)/2 */\n              tag_113\n              swap2\n              swap1\n              tag_110\n              jump\t// in\n            tag_113:\n                /* \"localhost/Documents/GitHub/SOLIDITY-REMIX/5ef069451e67668750287d64bc5f8bae/libmates.sol\":1395:1408  r = (r+x/r)/2 */\n              swap1\n              pop\n                /* \"localhost/Documents/GitHub/SOLIDITY-REMIX/5ef069451e67668750287d64bc5f8bae/libmates.sol\":1435:1436  2 */\n              0x02\n                /* \"localhost/Documents/GitHub/SOLIDITY-REMIX/5ef069451e67668750287d64bc5f8bae/libmates.sol\":1432:1433  r */\n              dup2\n                /* \"localhost/Documents/GitHub/SOLIDITY-REMIX/5ef069451e67668750287d64bc5f8bae/libmates.sol\":1430:1431  x */\n              dup5\n                /* \"localhost/Documents/GitHub/SOLIDITY-REMIX/5ef069451e67668750287d64bc5f8bae/libmates.sol\":1430:1433  x/r */\n              tag_114\n              swap2\n              swap1\n              tag_110\n              jump\t// in\n            tag_114:\n                /* \"localhost/Documents/GitHub/SOLIDITY-REMIX/5ef069451e67668750287d64bc5f8bae/libmates.sol\":1428:1429  r */\n              dup3\n                /* \"localhost/Documents/GitHub/SOLIDITY-REMIX/5ef069451e67668750287d64bc5f8bae/libmates.sol\":1428:1433  r+x/r */\n              tag_115\n              swap2\n              swap1\n              tag_112\n              jump\t// in\n            tag_115:\n                /* \"localhost/Documents/GitHub/SOLIDITY-REMIX/5ef069451e67668750287d64bc5f8bae/libmates.sol\":1427:1436  (r+x/r)/2 */\n              tag_116\n              swap2\n              swap1\n              tag_110\n              jump\t// in\n            tag_116:\n                /* \"localhost/Documents/GitHub/SOLIDITY-REMIX/5ef069451e67668750287d64bc5f8bae/libmates.sol\":1423:1436  r = (r+x/r)/2 */\n              swap1\n              pop\n                /* \"localhost/Documents/GitHub/SOLIDITY-REMIX/5ef069451e67668750287d64bc5f8bae/libmates.sol\":1463:1464  2 */\n              0x02\n                /* \"localhost/Documents/GitHub/SOLIDITY-REMIX/5ef069451e67668750287d64bc5f8bae/libmates.sol\":1460:1461  r */\n              dup2\n                /* \"localhost/Documents/GitHub/SOLIDITY-REMIX/5ef069451e67668750287d64bc5f8bae/libmates.sol\":1458:1459  x */\n              dup5\n                /* \"localhost/Documents/GitHub/SOLIDITY-REMIX/5ef069451e67668750287d64bc5f8bae/libmates.sol\":1458:1461  x/r */\n              tag_117\n              swap2\n              swap1\n              tag_110\n              jump\t// in\n            tag_117:\n                /* \"localhost/Documents/GitHub/SOLIDITY-REMIX/5ef069451e67668750287d64bc5f8bae/libmates.sol\":1456:1457  r */\n              dup3\n                /* \"localhost/Documents/GitHub/SOLIDITY-REMIX/5ef069451e67668750287d64bc5f8bae/libmates.sol\":1456:1461  r+x/r */\n              tag_118\n              swap2\n              swap1\n              tag_112\n              jump\t// in\n            tag_118:\n                /* \"localhost/Documents/GitHub/SOLIDITY-REMIX/5ef069451e67668750287d64bc5f8bae/libmates.sol\":1455:1464  (r+x/r)/2 */\n              tag_119\n              swap2\n              swap1\n              tag_110\n              jump\t// in\n            tag_119:\n                /* \"localhost/Documents/GitHub/SOLIDITY-REMIX/5ef069451e67668750287d64bc5f8bae/libmates.sol\":1451:1464  r = (r+x/r)/2 */\n              swap1\n              pop\n                /* \"localhost/Documents/GitHub/SOLIDITY-REMIX/5ef069451e67668750287d64bc5f8bae/libmates.sol\":1491:1492  2 */\n              0x02\n                /* \"localhost/Documents/GitHub/SOLIDITY-REMIX/5ef069451e67668750287d64bc5f8bae/libmates.sol\":1488:1489  r */\n              dup2\n                /* \"localhost/Documents/GitHub/SOLIDITY-REMIX/5ef069451e67668750287d64bc5f8bae/libmates.sol\":1486:1487  x */\n              dup5\n                /* \"localhost/Documents/GitHub/SOLIDITY-REMIX/5ef069451e67668750287d64bc5f8bae/libmates.sol\":1486:1489  x/r */\n              tag_120\n              swap2\n              swap1\n              tag_110\n              jump\t// in\n            tag_120:\n                /* \"localhost/Documents/GitHub/SOLIDITY-REMIX/5ef069451e67668750287d64bc5f8bae/libmates.sol\":1484:1485  r */\n              dup3\n                /* \"localhost/Documents/GitHub/SOLIDITY-REMIX/5ef069451e67668750287d64bc5f8bae/libmates.sol\":1484:1489  r+x/r */\n              tag_121\n              swap2\n              swap1\n              tag_112\n              jump\t// in\n            tag_121:\n                /* \"localhost/Documents/GitHub/SOLIDITY-REMIX/5ef069451e67668750287d64bc5f8bae/libmates.sol\":1483:1492  (r+x/r)/2 */\n              tag_122\n              swap2\n              swap1\n              tag_110\n              jump\t// in\n            tag_122:\n                /* \"localhost/Documents/GitHub/SOLIDITY-REMIX/5ef069451e67668750287d64bc5f8bae/libmates.sol\":1479:1492  r = (r+x/r)/2 */\n              swap1\n              pop\n                /* \"localhost/Documents/GitHub/SOLIDITY-REMIX/5ef069451e67668750287d64bc5f8bae/libmates.sol\":1519:1520  2 */\n              0x02\n                /* \"localhost/Documents/GitHub/SOLIDITY-REMIX/5ef069451e67668750287d64bc5f8bae/libmates.sol\":1516:1517  r */\n              dup2\n                /* \"localhost/Documents/GitHub/SOLIDITY-REMIX/5ef069451e67668750287d64bc5f8bae/libmates.sol\":1514:1515  x */\n              dup5\n                /* \"localhost/Documents/GitHub/SOLIDITY-REMIX/5ef069451e67668750287d64bc5f8bae/libmates.sol\":1514:1517  x/r */\n              tag_123\n              swap2\n              swap1\n              tag_110\n              jump\t// in\n            tag_123:\n                /* \"localhost/Documents/GitHub/SOLIDITY-REMIX/5ef069451e67668750287d64bc5f8bae/libmates.sol\":1512:1513  r */\n              dup3\n                /* \"localhost/Documents/GitHub/SOLIDITY-REMIX/5ef069451e67668750287d64bc5f8bae/libmates.sol\":1512:1517  r+x/r */\n              tag_124\n              swap2\n              swap1\n              tag_112\n              jump\t// in\n            tag_124:\n                /* \"localhost/Documents/GitHub/SOLIDITY-REMIX/5ef069451e67668750287d64bc5f8bae/libmates.sol\":1511:1520  (r+x/r)/2 */\n              tag_125\n              swap2\n              swap1\n              tag_110\n              jump\t// in\n            tag_125:\n                /* \"localhost/Documents/GitHub/SOLIDITY-REMIX/5ef069451e67668750287d64bc5f8bae/libmates.sol\":1507:1520  r = (r+x/r)/2 */\n              swap1\n              pop\n                /* \"localhost/Documents/GitHub/SOLIDITY-REMIX/5ef069451e67668750287d64bc5f8bae/libmates.sol\":1535:1545  uint256 r1 */\n              0x00\n                /* \"localhost/Documents/GitHub/SOLIDITY-REMIX/5ef069451e67668750287d64bc5f8bae/libmates.sol\":1550:1551  r */\n              dup2\n                /* \"localhost/Documents/GitHub/SOLIDITY-REMIX/5ef069451e67668750287d64bc5f8bae/libmates.sol\":1548:1549  x */\n              dup5\n                /* \"localhost/Documents/GitHub/SOLIDITY-REMIX/5ef069451e67668750287d64bc5f8bae/libmates.sol\":1548:1551  x/r */\n              tag_126\n              swap2\n              swap1\n              tag_110\n              jump\t// in\n            tag_126:\n                /* \"localhost/Documents/GitHub/SOLIDITY-REMIX/5ef069451e67668750287d64bc5f8bae/libmates.sol\":1535:1551  uint256 r1 = x/r */\n              swap1\n              pop\n                /* \"localhost/Documents/GitHub/SOLIDITY-REMIX/5ef069451e67668750287d64bc5f8bae/libmates.sol\":1574:1576  r1 */\n              dup1\n                /* \"localhost/Documents/GitHub/SOLIDITY-REMIX/5ef069451e67668750287d64bc5f8bae/libmates.sol\":1570:1571  r */\n              dup3\n                /* \"localhost/Documents/GitHub/SOLIDITY-REMIX/5ef069451e67668750287d64bc5f8bae/libmates.sol\":1570:1576  r < r1 */\n              lt\n                /* \"localhost/Documents/GitHub/SOLIDITY-REMIX/5ef069451e67668750287d64bc5f8bae/libmates.sol\":1566:1668  if (r < r1) return uint128(r);\r... */\n              iszero\n              tag_127\n              jumpi\n                /* \"localhost/Documents/GitHub/SOLIDITY-REMIX/5ef069451e67668750287d64bc5f8bae/libmates.sol\":1593:1594  r */\n              dup2\n                /* \"localhost/Documents/GitHub/SOLIDITY-REMIX/5ef069451e67668750287d64bc5f8bae/libmates.sol\":1578:1595  return uint128(r) */\n              swap3\n              pop\n              pop\n              pop\n              jump(tag_105)\n                /* \"localhost/Documents/GitHub/SOLIDITY-REMIX/5ef069451e67668750287d64bc5f8bae/libmates.sol\":1566:1668  if (r < r1) return uint128(r);\r... */\n            tag_127:\n                /* \"localhost/Documents/GitHub/SOLIDITY-REMIX/5ef069451e67668750287d64bc5f8bae/libmates.sol\":1649:1651  r1 */\n              dup1\n                /* \"localhost/Documents/GitHub/SOLIDITY-REMIX/5ef069451e67668750287d64bc5f8bae/libmates.sol\":1634:1652  return uint128(r1) */\n              swap3\n              pop\n              pop\n              pop\n                /* \"localhost/Documents/GitHub/SOLIDITY-REMIX/5ef069451e67668750287d64bc5f8bae/libmates.sol\":1143:1692  function sqrtUnsigned (uint256 x) internal pure returns(uint128) {\r... */\n            tag_105:\n              swap2\n              swap1\n              pop\n              jump\t// out\n                /* \"#utility.yul\":7:144   */\n            tag_130:\n                /* \"#utility.yul\":52:57   */\n              0x00\n                /* \"#utility.yul\":90:96   */\n              dup2\n                /* \"#utility.yul\":77:97   */\n              calldataload\n                /* \"#utility.yul\":68:97   */\n              swap1\n              pop\n                /* \"#utility.yul\":106:138   */\n              tag_132\n                /* \"#utility.yul\":132:137   */\n              dup2\n                /* \"#utility.yul\":106:138   */\n              tag_133\n              jump\t// in\n            tag_132:\n                /* \"#utility.yul\":7:144   */\n              swap3\n              swap2\n              pop\n              pop\n              jump\t// out\n                /* \"#utility.yul\":150:287   */\n            tag_134:\n                /* \"#utility.yul\":195:200   */\n              0x00\n                /* \"#utility.yul\":233:239   */\n              dup2\n                /* \"#utility.yul\":220:240   */\n              calldataload\n                /* \"#utility.yul\":211:240   */\n              swap1\n              pop\n                /* \"#utility.yul\":249:281   */\n              tag_136\n                /* \"#utility.yul\":275:280   */\n              dup2\n                /* \"#utility.yul\":249:281   */\n              tag_137\n              jump\t// in\n            tag_136:\n                /* \"#utility.yul\":150:287   */\n              swap3\n              swap2\n              pop\n              pop\n              jump\t// out\n                /* \"#utility.yul\":293:432   */\n            tag_138:\n                /* \"#utility.yul\":339:344   */\n              0x00\n                /* \"#utility.yul\":377:383   */\n              dup2\n                /* \"#utility.yul\":364:384   */\n              calldataload\n                /* \"#utility.yul\":355:384   */\n              swap1\n              pop\n                /* \"#utility.yul\":393:426   */\n              tag_140\n                /* \"#utility.yul\":420:425   */\n              dup2\n                /* \"#utility.yul\":393:426   */\n              tag_141\n              jump\t// in\n            tag_140:\n                /* \"#utility.yul\":293:432   */\n              swap3\n              swap2\n              pop\n              pop\n              jump\t// out\n                /* \"#utility.yul\":438:765   */\n            tag_47:\n                /* \"#utility.yul\":496:502   */\n              0x00\n                /* \"#utility.yul\":545:547   */\n              0x20\n                /* \"#utility.yul\":533:542   */\n              dup3\n                /* \"#utility.yul\":524:531   */\n              dup5\n                /* \"#utility.yul\":520:543   */\n              sub\n                /* \"#utility.yul\":516:548   */\n              slt\n                /* \"#utility.yul\":513:632   */\n              iszero\n              tag_143\n              jumpi\n                /* \"#utility.yul\":551:630   */\n              tag_144\n              tag_145\n              jump\t// in\n            tag_144:\n                /* \"#utility.yul\":513:632   */\n            tag_143:\n                /* \"#utility.yul\":671:672   */\n              0x00\n                /* \"#utility.yul\":696:748   */\n              tag_146\n                /* \"#utility.yul\":740:747   */\n              dup5\n                /* \"#utility.yul\":731:737   */\n              dup3\n                /* \"#utility.yul\":720:729   */\n              dup6\n                /* \"#utility.yul\":716:738   */\n              add\n                /* \"#utility.yul\":696:748   */\n              tag_130\n              jump\t// in\n            tag_146:\n                /* \"#utility.yul\":686:748   */\n              swap2\n              pop\n                /* \"#utility.yul\":642:758   */\n              pop\n                /* \"#utility.yul\":438:765   */\n              swap3\n              swap2\n              pop\n              pop\n              jump\t// out\n                /* \"#utility.yul\":771:1098   */\n            tag_28:\n                /* \"#utility.yul\":829:835   */\n              0x00\n                /* \"#utility.yul\":878:880   */\n              0x20\n                /* \"#utility.yul\":866:875   */\n              dup3\n                /* \"#utility.yul\":857:864   */\n              dup5\n                /* \"#utility.yul\":853:876   */\n              sub\n                /* \"#utility.yul\":849:881   */\n              slt\n                /* \"#utility.yul\":846:965   */\n              iszero\n              tag_148\n              jumpi\n                /* \"#utility.yul\":884:963   */\n              tag_149\n              tag_145\n              jump\t// in\n            tag_149:\n                /* \"#utility.yul\":846:965   */\n            tag_148:\n                /* \"#utility.yul\":1004:1005   */\n              0x00\n                /* \"#utility.yul\":1029:1081   */\n              tag_150\n                /* \"#utility.yul\":1073:1080   */\n              dup5\n                /* \"#utility.yul\":1064:1070   */\n              dup3\n                /* \"#utility.yul\":1053:1062   */\n              dup6\n                /* \"#utility.yul\":1049:1071   */\n              add\n                /* \"#utility.yul\":1029:1081   */\n              tag_134\n              jump\t// in\n            tag_150:\n                /* \"#utility.yul\":1019:1081   */\n              swap2\n              pop\n                /* \"#utility.yul\":975:1091   */\n              pop\n                /* \"#utility.yul\":771:1098   */\n              swap3\n              swap2\n              pop\n              pop\n              jump\t// out\n                /* \"#utility.yul\":1104:1574   */\n            tag_14:\n                /* \"#utility.yul\":1170:1176   */\n              0x00\n                /* \"#utility.yul\":1178:1184   */\n              dup1\n                /* \"#utility.yul\":1227:1229   */\n              0x40\n                /* \"#utility.yul\":1215:1224   */\n              dup4\n                /* \"#utility.yul\":1206:1213   */\n              dup6\n                /* \"#utility.yul\":1202:1225   */\n              sub\n                /* \"#utility.yul\":1198:1230   */\n              slt\n                /* \"#utility.yul\":1195:1314   */\n              iszero\n              tag_152\n              jumpi\n                /* \"#utility.yul\":1233:1312   */\n              tag_153\n              tag_145\n              jump\t// in\n            tag_153:\n                /* \"#utility.yul\":1195:1314   */\n            tag_152:\n                /* \"#utility.yul\":1353:1354   */\n              0x00\n                /* \"#utility.yul\":1378:1430   */\n              tag_154\n                /* \"#utility.yul\":1422:1429   */\n              dup6\n                /* \"#utility.yul\":1413:1419   */\n              dup3\n                /* \"#utility.yul\":1402:1411   */\n              dup7\n                /* \"#utility.yul\":1398:1420   */\n              add\n                /* \"#utility.yul\":1378:1430   */\n              tag_134\n              jump\t// in\n            tag_154:\n                /* \"#utility.yul\":1368:1430   */\n              swap3\n              pop\n                /* \"#utility.yul\":1324:1440   */\n              pop\n                /* \"#utility.yul\":1479:1481   */\n              0x20\n                /* \"#utility.yul\":1505:1557   */\n              tag_155\n                /* \"#utility.yul\":1549:1556   */\n              dup6\n                /* \"#utility.yul\":1540:1546   */\n              dup3\n                /* \"#utility.yul\":1529:1538   */\n              dup7\n                /* \"#utility.yul\":1525:1547   */\n              add\n                /* \"#utility.yul\":1505:1557   */\n              tag_134\n              jump\t// in\n            tag_155:\n                /* \"#utility.yul\":1495:1557   */\n              swap2\n              pop\n                /* \"#utility.yul\":1450:1567   */\n              pop\n                /* \"#utility.yul\":1104:1574   */\n              swap3\n              pop\n              swap3\n              swap1\n              pop\n              jump\t// out\n                /* \"#utility.yul\":1580:1909   */\n            tag_38:\n                /* \"#utility.yul\":1639:1645   */\n              0x00\n                /* \"#utility.yul\":1688:1690   */\n              0x20\n                /* \"#utility.yul\":1676:1685   */\n              dup3\n                /* \"#utility.yul\":1667:1674   */\n              dup5\n                /* \"#utility.yul\":1663:1686   */\n              sub\n                /* \"#utility.yul\":1659:1691   */\n              slt\n                /* \"#utility.yul\":1656:1775   */\n              iszero\n              tag_157\n              jumpi\n                /* \"#utility.yul\":1694:1773   */\n              tag_158\n              tag_145\n              jump\t// in\n            tag_158:\n                /* \"#utility.yul\":1656:1775   */\n            tag_157:\n                /* \"#utility.yul\":1814:1815   */\n              0x00\n                /* \"#utility.yul\":1839:1892   */\n              tag_159\n                /* \"#utility.yul\":1884:1891   */\n              dup5\n                /* \"#utility.yul\":1875:1881   */\n              dup3\n                /* \"#utility.yul\":1864:1873   */\n              dup6\n                /* \"#utility.yul\":1860:1882   */\n              add\n                /* \"#utility.yul\":1839:1892   */\n              tag_138\n              jump\t// in\n            tag_159:\n                /* \"#utility.yul\":1829:1892   */\n              swap2\n              pop\n                /* \"#utility.yul\":1785:1902   */\n              pop\n                /* \"#utility.yul\":1580:1909   */\n              swap3\n              swap2\n              pop\n              pop\n              jump\t// out\n                /* \"#utility.yul\":1915:2030   */\n            tag_160:\n                /* \"#utility.yul\":2000:2023   */\n              tag_162\n                /* \"#utility.yul\":2017:2022   */\n              dup2\n                /* \"#utility.yul\":2000:2023   */\n              tag_163\n              jump\t// in\n            tag_162:\n                /* \"#utility.yul\":1995:1998   */\n              dup3\n                /* \"#utility.yul\":1988:2024   */\n              mstore\n                /* \"#utility.yul\":1915:2030   */\n              pop\n              pop\n              jump\t// out\n                /* \"#utility.yul\":2036:2154   */\n            tag_164:\n                /* \"#utility.yul\":2123:2147   */\n              tag_166\n                /* \"#utility.yul\":2141:2146   */\n              dup2\n                /* \"#utility.yul\":2123:2147   */\n              tag_167\n              jump\t// in\n            tag_166:\n                /* \"#utility.yul\":2118:2121   */\n              dup3\n                /* \"#utility.yul\":2111:2148   */\n              mstore\n                /* \"#utility.yul\":2036:2154   */\n              pop\n              pop\n              jump\t// out\n                /* \"#utility.yul\":2160:2378   */\n            tag_17:\n                /* \"#utility.yul\":2251:2255   */\n              0x00\n                /* \"#utility.yul\":2289:2291   */\n              0x20\n                /* \"#utility.yul\":2278:2287   */\n              dup3\n                /* \"#utility.yul\":2274:2292   */\n              add\n                /* \"#utility.yul\":2266:2292   */\n              swap1\n              pop\n                /* \"#utility.yul\":2302:2371   */\n              tag_169\n                /* \"#utility.yul\":2368:2369   */\n              0x00\n                /* \"#utility.yul\":2357:2366   */\n              dup4\n                /* \"#utility.yul\":2353:2370   */\n              add\n                /* \"#utility.yul\":2344:2350   */\n              dup5\n                /* \"#utility.yul\":2302:2371   */\n              tag_160\n              jump\t// in\n            tag_169:\n                /* \"#utility.yul\":2160:2378   */\n              swap3\n              swap2\n              pop\n              pop\n              jump\t// out\n                /* \"#utility.yul\":2384:2606   */\n            tag_31:\n                /* \"#utility.yul\":2477:2481   */\n              0x00\n                /* \"#utility.yul\":2515:2517   */\n              0x20\n                /* \"#utility.yul\":2504:2513   */\n              dup3\n                /* \"#utility.yul\":2500:2518   */\n              add\n                /* \"#utility.yul\":2492:2518   */\n              swap1\n              pop\n                /* \"#utility.yul\":2528:2599   */\n              tag_171\n                /* \"#utility.yul\":2596:2597   */\n              0x00\n                /* \"#utility.yul\":2585:2594   */\n              dup4\n                /* \"#utility.yul\":2581:2598   */\n              add\n                /* \"#utility.yul\":2572:2578   */\n              dup5\n                /* \"#utility.yul\":2528:2599   */\n              tag_164\n              jump\t// in\n            tag_171:\n                /* \"#utility.yul\":2384:2606   */\n              swap3\n              swap2\n              pop\n              pop\n              jump\t// out\n                /* \"#utility.yul\":2693:3218   */\n            tag_100:\n                /* \"#utility.yul\":2732:2735   */\n              0x00\n                /* \"#utility.yul\":2751:2770   */\n              tag_175\n                /* \"#utility.yul\":2768:2769   */\n              dup3\n                /* \"#utility.yul\":2751:2770   */\n              tag_163\n              jump\t// in\n            tag_175:\n                /* \"#utility.yul\":2746:2770   */\n              swap2\n              pop\n                /* \"#utility.yul\":2784:2803   */\n              tag_176\n                /* \"#utility.yul\":2801:2802   */\n              dup4\n                /* \"#utility.yul\":2784:2803   */\n              tag_163\n              jump\t// in\n            tag_176:\n                /* \"#utility.yul\":2779:2803   */\n              swap3\n              pop\n                /* \"#utility.yul\":2972:2973   */\n              dup2\n                /* \"#utility.yul\":2904:2970   */\n              0x7fffffffffffffffffffffffffffffffffffffffffffffffffffffffffffffff\n                /* \"#utility.yul\":2900:2974   */\n              sub\n                /* \"#utility.yul\":2897:2898   */\n              dup4\n                /* \"#utility.yul\":2893:2975   */\n              sgt\n                /* \"#utility.yul\":2888:2889   */\n              0x00\n                /* \"#utility.yul\":2885:2886   */\n              dup4\n                /* \"#utility.yul\":2881:2890   */\n              slt\n                /* \"#utility.yul\":2874:2891   */\n              iszero\n                /* \"#utility.yul\":2870:2976   */\n              and\n                /* \"#utility.yul\":2867:2999   */\n              iszero\n              tag_177\n              jumpi\n                /* \"#utility.yul\":2979:2997   */\n              tag_178\n              tag_179\n              jump\t// in\n            tag_178:\n                /* \"#utility.yul\":2867:2999   */\n            tag_177:\n                /* \"#utility.yul\":3159:3160   */\n              dup2\n                /* \"#utility.yul\":3091:3157   */\n              0x8000000000000000000000000000000000000000000000000000000000000000\n                /* \"#utility.yul\":3087:3161   */\n              sub\n                /* \"#utility.yul\":3084:3085   */\n              dup4\n                /* \"#utility.yul\":3080:3162   */\n              slt\n                /* \"#utility.yul\":3076:3077   */\n              0x00\n                /* \"#utility.yul\":3073:3074   */\n              dup4\n                /* \"#utility.yul\":3069:3078   */\n              slt\n                /* \"#utility.yul\":3065:3163   */\n              and\n                /* \"#utility.yul\":3062:3186   */\n              iszero\n              tag_180\n              jumpi\n                /* \"#utility.yul\":3166:3184   */\n              tag_181\n              tag_179\n              jump\t// in\n            tag_181:\n                /* \"#utility.yul\":3062:3186   */\n            tag_180:\n                /* \"#utility.yul\":3210:3211   */\n              dup3\n                /* \"#utility.yul\":3207:3208   */\n              dup3\n                /* \"#utility.yul\":3203:3212   */\n              add\n                /* \"#utility.yul\":3196:3212   */\n              swap1\n              pop\n                /* \"#utility.yul\":2693:3218   */\n              swap3\n              swap2\n              pop\n              pop\n              jump\t// out\n                /* \"#utility.yul\":3224:3529   */\n            tag_112:\n                /* \"#utility.yul\":3264:3267   */\n              0x00\n                /* \"#utility.yul\":3283:3303   */\n              tag_183\n                /* \"#utility.yul\":3301:3302   */\n              dup3\n                /* \"#utility.yul\":3283:3303   */\n              tag_167\n              jump\t// in\n            tag_183:\n                /* \"#utility.yul\":3278:3303   */\n              swap2\n              pop\n                /* \"#utility.yul\":3317:3337   */\n              tag_184\n                /* \"#utility.yul\":3335:3336   */\n              dup4\n                /* \"#utility.yul\":3317:3337   */\n              tag_167\n              jump\t// in\n            tag_184:\n                /* \"#utility.yul\":3312:3337   */\n              swap3\n              pop\n                /* \"#utility.yul\":3471:3472   */\n              dup3\n                /* \"#utility.yul\":3403:3469   */\n              0xffffffffffffffffffffffffffffffffffffffffffffffffffffffffffffffff\n                /* \"#utility.yul\":3399:3473   */\n              sub\n                /* \"#utility.yul\":3396:3397   */\n              dup3\n                /* \"#utility.yul\":3393:3474   */\n              gt\n                /* \"#utility.yul\":3390:3497   */\n              iszero\n              tag_185\n              jumpi\n                /* \"#utility.yul\":3477:3495   */\n              tag_186\n              tag_179\n              jump\t// in\n            tag_186:\n                /* \"#utility.yul\":3390:3497   */\n            tag_185:\n                /* \"#utility.yul\":3521:3522   */\n              dup3\n                /* \"#utility.yul\":3518:3519   */\n              dup3\n                /* \"#utility.yul\":3514:3523   */\n              add\n                /* \"#utility.yul\":3507:3523   */\n              swap1\n              pop\n                /* \"#utility.yul\":3224:3529   */\n              swap3\n              swap2\n              pop\n              pop\n              jump\t// out\n                /* \"#utility.yul\":3535:3920   */\n            tag_76:\n                /* \"#utility.yul\":3574:3575   */\n              0x00\n                /* \"#utility.yul\":3591:3610   */\n              tag_188\n                /* \"#utility.yul\":3608:3609   */\n              dup3\n                /* \"#utility.yul\":3591:3610   */\n              tag_163\n              jump\t// in\n            tag_188:\n                /* \"#utility.yul\":3586:3610   */\n              swap2\n              pop\n                /* \"#utility.yul\":3624:3643   */\n              tag_189\n                /* \"#utility.yul\":3641:3642   */\n              dup4\n                /* \"#utility.yul\":3624:3643   */\n              tag_163\n              jump\t// in\n            tag_189:\n                /* \"#utility.yul\":3619:3643   */\n              swap3\n              pop\n                /* \"#utility.yul\":3662:3663   */\n              dup3\n                /* \"#utility.yul\":3652:3687   */\n              tag_190\n              jumpi\n                /* \"#utility.yul\":3667:3685   */\n              tag_191\n              tag_192\n              jump\t// in\n            tag_191:\n                /* \"#utility.yul\":3652:3687   */\n            tag_190:\n                /* \"#utility.yul\":3853:3854   */\n              0x01\n                /* \"#utility.yul\":3850:3851   */\n              0x00\n                /* \"#utility.yul\":3846:3855   */\n              sub\n                /* \"#utility.yul\":3843:3844   */\n              dup4\n                /* \"#utility.yul\":3840:3856   */\n              eq\n                /* \"#utility.yul\":3759:3825   */\n              0x8000000000000000000000000000000000000000000000000000000000000000\n                /* \"#utility.yul\":3756:3757   */\n              dup4\n                /* \"#utility.yul\":3753:3826   */\n              eq\n                /* \"#utility.yul\":3736:3866   */\n              and\n                /* \"#utility.yul\":3733:3889   */\n              iszero\n              tag_193\n              jumpi\n                /* \"#utility.yul\":3869:3887   */\n              tag_194\n              tag_179\n              jump\t// in\n            tag_194:\n                /* \"#utility.yul\":3733:3889   */\n            tag_193:\n                /* \"#utility.yul\":3912:3913   */\n              dup3\n                /* \"#utility.yul\":3909:3910   */\n              dup3\n                /* \"#utility.yul\":3904:3914   */\n              sdiv\n                /* \"#utility.yul\":3899:3914   */\n              swap1\n              pop\n                /* \"#utility.yul\":3535:3920   */\n              swap3\n              swap2\n              pop\n              pop\n              jump\t// out\n                /* \"#utility.yul\":3926:4111   */\n            tag_110:\n                /* \"#utility.yul\":3966:3967   */\n              0x00\n                /* \"#utility.yul\":3983:4003   */\n              tag_196\n                /* \"#utility.yul\":4001:4002   */\n              dup3\n                /* \"#utility.yul\":3983:4003   */\n              tag_167\n              jump\t// in\n            tag_196:\n                /* \"#utility.yul\":3978:4003   */\n              swap2\n              pop\n                /* \"#utility.yul\":4017:4037   */\n              tag_197\n                /* \"#utility.yul\":4035:4036   */\n              dup4\n                /* \"#utility.yul\":4017:4037   */\n              tag_167\n              jump\t// in\n            tag_197:\n                /* \"#utility.yul\":4012:4037   */\n              swap3\n              pop\n                /* \"#utility.yul\":4056:4057   */\n              dup3\n                /* \"#utility.yul\":4046:4081   */\n              tag_198\n              jumpi\n                /* \"#utility.yul\":4061:4079   */\n              tag_199\n              tag_192\n              jump\t// in\n            tag_199:\n                /* \"#utility.yul\":4046:4081   */\n            tag_198:\n                /* \"#utility.yul\":4103:4104   */\n              dup3\n                /* \"#utility.yul\":4100:4101   */\n              dup3\n                /* \"#utility.yul\":4096:4105   */\n              div\n                /* \"#utility.yul\":4091:4105   */\n              swap1\n              pop\n                /* \"#utility.yul\":3926:4111   */\n              swap3\n              swap2\n              pop\n              pop\n              jump\t// out\n                /* \"#utility.yul\":4117:5108   */\n            tag_79:\n                /* \"#utility.yul\":4156:4163   */\n              0x00\n                /* \"#utility.yul\":4179:4198   */\n              tag_201\n                /* \"#utility.yul\":4196:4197   */\n              dup3\n                /* \"#utility.yul\":4179:4198   */\n              tag_163\n              jump\t// in\n            tag_201:\n                /* \"#utility.yul\":4174:4198   */\n              swap2\n              pop\n                /* \"#utility.yul\":4212:4231   */\n              tag_202\n                /* \"#utility.yul\":4229:4230   */\n              dup4\n                /* \"#utility.yul\":4212:4231   */\n              tag_163\n              jump\t// in\n            tag_202:\n                /* \"#utility.yul\":4207:4231   */\n              swap3\n              pop\n                /* \"#utility.yul\":4413:4414   */\n              dup3\n                /* \"#utility.yul\":4345:4411   */\n              0x7fffffffffffffffffffffffffffffffffffffffffffffffffffffffffffffff\n                /* \"#utility.yul\":4341:4415   */\n              div\n                /* \"#utility.yul\":4338:4339   */\n              dup3\n                /* \"#utility.yul\":4335:4416   */\n              gt\n                /* \"#utility.yul\":4330:4331   */\n              0x00\n                /* \"#utility.yul\":4327:4328   */\n              dup5\n                /* \"#utility.yul\":4323:4332   */\n              sgt\n                /* \"#utility.yul\":4319:4320   */\n              0x00\n                /* \"#utility.yul\":4316:4317   */\n              dup5\n                /* \"#utility.yul\":4312:4321   */\n              sgt\n                /* \"#utility.yul\":4308:4333   */\n              and\n                /* \"#utility.yul\":4304:4417   */\n              and\n                /* \"#utility.yul\":4301:4440   */\n              iszero\n              tag_203\n              jumpi\n                /* \"#utility.yul\":4420:4438   */\n              tag_204\n              tag_179\n              jump\t// in\n            tag_204:\n                /* \"#utility.yul\":4301:4440   */\n            tag_203:\n                /* \"#utility.yul\":4624:4625   */\n              dup2\n                /* \"#utility.yul\":4556:4622   */\n              0x8000000000000000000000000000000000000000000000000000000000000000\n                /* \"#utility.yul\":4551:4626   */\n              sdiv\n                /* \"#utility.yul\":4548:4549   */\n              dup4\n                /* \"#utility.yul\":4544:4627   */\n              slt\n                /* \"#utility.yul\":4539:4540   */\n              0x00\n                /* \"#utility.yul\":4536:4537   */\n              dup5\n                /* \"#utility.yul\":4532:4541   */\n              slt\n                /* \"#utility.yul\":4528:4529   */\n              0x00\n                /* \"#utility.yul\":4525:4526   */\n              dup5\n                /* \"#utility.yul\":4521:4530   */\n              sgt\n                /* \"#utility.yul\":4517:4542   */\n              and\n                /* \"#utility.yul\":4513:4628   */\n              and\n                /* \"#utility.yul\":4510:4651   */\n              iszero\n              tag_205\n              jumpi\n                /* \"#utility.yul\":4631:4649   */\n              tag_206\n              tag_179\n              jump\t// in\n            tag_206:\n                /* \"#utility.yul\":4510:4651   */\n            tag_205:\n                /* \"#utility.yul\":4835:4836   */\n              dup3\n                /* \"#utility.yul\":4767:4833   */\n              0x8000000000000000000000000000000000000000000000000000000000000000\n                /* \"#utility.yul\":4762:4837   */\n              sdiv\n                /* \"#utility.yul\":4759:4760   */\n              dup3\n                /* \"#utility.yul\":4755:4838   */\n              slt\n                /* \"#utility.yul\":4750:4751   */\n              0x00\n                /* \"#utility.yul\":4747:4748   */\n              dup5\n                /* \"#utility.yul\":4743:4752   */\n              sgt\n                /* \"#utility.yul\":4739:4740   */\n              0x00\n                /* \"#utility.yul\":4736:4737   */\n              dup5\n                /* \"#utility.yul\":4732:4741   */\n              slt\n                /* \"#utility.yul\":4728:4753   */\n              and\n                /* \"#utility.yul\":4724:4839   */\n              and\n                /* \"#utility.yul\":4721:4862   */\n              iszero\n              tag_207\n              jumpi\n                /* \"#utility.yul\":4842:4860   */\n              tag_208\n              tag_179\n              jump\t// in\n            tag_208:\n                /* \"#utility.yul\":4721:4862   */\n            tag_207:\n                /* \"#utility.yul\":5045:5046   */\n              dup3\n                /* \"#utility.yul\":4977:5043   */\n              0x7fffffffffffffffffffffffffffffffffffffffffffffffffffffffffffffff\n                /* \"#utility.yul\":4972:5047   */\n              sdiv\n                /* \"#utility.yul\":4969:4970   */\n              dup3\n                /* \"#utility.yul\":4965:5048   */\n              slt\n                /* \"#utility.yul\":4960:4961   */\n              0x00\n                /* \"#utility.yul\":4957:4958   */\n              dup5\n                /* \"#utility.yul\":4953:4962   */\n              slt\n                /* \"#utility.yul\":4949:4950   */\n              0x00\n                /* \"#utility.yul\":4946:4947   */\n              dup5\n                /* \"#utility.yul\":4942:4951   */\n              slt\n                /* \"#utility.yul\":4938:4963   */\n              and\n                /* \"#utility.yul\":4934:5049   */\n              and\n                /* \"#utility.yul\":4931:5072   */\n              iszero\n              tag_209\n              jumpi\n                /* \"#utility.yul\":5052:5070   */\n              tag_210\n              tag_179\n              jump\t// in\n            tag_210:\n                /* \"#utility.yul\":4931:5072   */\n            tag_209:\n                /* \"#utility.yul\":5100:5101   */\n              dup3\n                /* \"#utility.yul\":5097:5098   */\n              dup3\n                /* \"#utility.yul\":5093:5102   */\n              mul\n                /* \"#utility.yul\":5082:5102   */\n              swap1\n              pop\n                /* \"#utility.yul\":4117:5108   */\n              swap3\n              swap2\n              pop\n              pop\n              jump\t// out\n                /* \"#utility.yul\":5114:5462   */\n            tag_97:\n                /* \"#utility.yul\":5154:5161   */\n              0x00\n                /* \"#utility.yul\":5177:5197   */\n              tag_212\n                /* \"#utility.yul\":5195:5196   */\n              dup3\n                /* \"#utility.yul\":5177:5197   */\n              tag_167\n              jump\t// in\n            tag_212:\n                /* \"#utility.yul\":5172:5197   */\n              swap2\n              pop\n                /* \"#utility.yul\":5211:5231   */\n              tag_213\n                /* \"#utility.yul\":5229:5230   */\n              dup4\n                /* \"#utility.yul\":5211:5231   */\n              tag_167\n              jump\t// in\n            tag_213:\n                /* \"#utility.yul\":5206:5231   */\n              swap3\n              pop\n                /* \"#utility.yul\":5399:5400   */\n              dup2\n                /* \"#utility.yul\":5331:5397   */\n              0xffffffffffffffffffffffffffffffffffffffffffffffffffffffffffffffff\n                /* \"#utility.yul\":5327:5401   */\n              div\n                /* \"#utility.yul\":5324:5325   */\n              dup4\n                /* \"#utility.yul\":5321:5402   */\n              gt\n                /* \"#utility.yul\":5316:5317   */\n              dup3\n                /* \"#utility.yul\":5309:5318   */\n              iszero\n                /* \"#utility.yul\":5302:5319   */\n              iszero\n                /* \"#utility.yul\":5298:5403   */\n              and\n                /* \"#utility.yul\":5295:5426   */\n              iszero\n              tag_214\n              jumpi\n                /* \"#utility.yul\":5406:5424   */\n              tag_215\n              tag_179\n              jump\t// in\n            tag_215:\n                /* \"#utility.yul\":5295:5426   */\n            tag_214:\n                /* \"#utility.yul\":5454:5455   */\n              dup3\n                /* \"#utility.yul\":5451:5452   */\n              dup3\n                /* \"#utility.yul\":5447:5456   */\n              mul\n                /* \"#utility.yul\":5436:5456   */\n              swap1\n              pop\n                /* \"#utility.yul\":5114:5462   */\n              swap3\n              swap2\n              pop\n              pop\n              jump\t// out\n                /* \"#utility.yul\":5468:5995   */\n            tag_82:\n                /* \"#utility.yul\":5507:5511   */\n              0x00\n                /* \"#utility.yul\":5527:5546   */\n              tag_217\n                /* \"#utility.yul\":5544:5545   */\n              dup3\n                /* \"#utility.yul\":5527:5546   */\n              tag_163\n              jump\t// in\n            tag_217:\n                /* \"#utility.yul\":5522:5546   */\n              swap2\n              pop\n                /* \"#utility.yul\":5560:5579   */\n              tag_218\n                /* \"#utility.yul\":5577:5578   */\n              dup4\n                /* \"#utility.yul\":5560:5579   */\n              tag_163\n              jump\t// in\n            tag_218:\n                /* \"#utility.yul\":5555:5579   */\n              swap3\n              pop\n                /* \"#utility.yul\":5749:5750   */\n              dup3\n                /* \"#utility.yul\":5681:5747   */\n              0x8000000000000000000000000000000000000000000000000000000000000000\n                /* \"#utility.yul\":5677:5751   */\n              add\n                /* \"#utility.yul\":5674:5675   */\n              dup3\n                /* \"#utility.yul\":5670:5752   */\n              slt\n                /* \"#utility.yul\":5665:5666   */\n              0x00\n                /* \"#utility.yul\":5662:5663   */\n              dup5\n                /* \"#utility.yul\":5658:5667   */\n              slt\n                /* \"#utility.yul\":5651:5668   */\n              iszero\n                /* \"#utility.yul\":5647:5753   */\n              and\n                /* \"#utility.yul\":5644:5776   */\n              iszero\n              tag_219\n              jumpi\n                /* \"#utility.yul\":5756:5774   */\n              tag_220\n              tag_179\n              jump\t// in\n            tag_220:\n                /* \"#utility.yul\":5644:5776   */\n            tag_219:\n                /* \"#utility.yul\":5935:5936   */\n              dup3\n                /* \"#utility.yul\":5867:5933   */\n              0x7fffffffffffffffffffffffffffffffffffffffffffffffffffffffffffffff\n                /* \"#utility.yul\":5863:5937   */\n              add\n                /* \"#utility.yul\":5860:5861   */\n              dup3\n                /* \"#utility.yul\":5856:5938   */\n              sgt\n                /* \"#utility.yul\":5852:5853   */\n              0x00\n                /* \"#utility.yul\":5849:5850   */\n              dup5\n                /* \"#utility.yul\":5845:5854   */\n              slt\n                /* \"#utility.yul\":5841:5939   */\n              and\n                /* \"#utility.yul\":5838:5962   */\n              iszero\n              tag_221\n              jumpi\n                /* \"#utility.yul\":5942:5960   */\n              tag_222\n              tag_179\n              jump\t// in\n            tag_222:\n                /* \"#utility.yul\":5838:5962   */\n            tag_221:\n                /* \"#utility.yul\":5987:5988   */\n              dup3\n                /* \"#utility.yul\":5984:5985   */\n              dup3\n                /* \"#utility.yul\":5980:5989   */\n              sub\n                /* \"#utility.yul\":5972:5989   */\n              swap1\n              pop\n                /* \"#utility.yul\":5468:5995   */\n              swap3\n              swap2\n              pop\n              pop\n              jump\t// out\n                /* \"#utility.yul\":6001:6192   */\n            tag_95:\n                /* \"#utility.yul\":6041:6045   */\n              0x00\n                /* \"#utility.yul\":6061:6081   */\n              tag_224\n                /* \"#utility.yul\":6079:6080   */\n              dup3\n                /* \"#utility.yul\":6061:6081   */\n              tag_167\n              jump\t// in\n            tag_224:\n                /* \"#utility.yul\":6056:6081   */\n              swap2\n              pop\n                /* \"#utility.yul\":6095:6115   */\n              tag_225\n                /* \"#utility.yul\":6113:6114   */\n              dup4\n                /* \"#utility.yul\":6095:6115   */\n              tag_167\n              jump\t// in\n            tag_225:\n                /* \"#utility.yul\":6090:6115   */\n              swap3\n              pop\n                /* \"#utility.yul\":6134:6135   */\n              dup3\n                /* \"#utility.yul\":6131:6132   */\n              dup3\n                /* \"#utility.yul\":6128:6136   */\n              lt\n                /* \"#utility.yul\":6125:6159   */\n              iszero\n              tag_226\n              jumpi\n                /* \"#utility.yul\":6139:6157   */\n              tag_227\n              tag_179\n              jump\t// in\n            tag_227:\n                /* \"#utility.yul\":6125:6159   */\n            tag_226:\n                /* \"#utility.yul\":6184:6185   */\n              dup3\n                /* \"#utility.yul\":6181:6182   */\n              dup3\n                /* \"#utility.yul\":6177:6186   */\n              sub\n                /* \"#utility.yul\":6169:6186   */\n              swap1\n              pop\n                /* \"#utility.yul\":6001:6192   */\n              swap3\n              swap2\n              pop\n              pop\n              jump\t// out\n                /* \"#utility.yul\":6198:6290   */\n            tag_228:\n                /* \"#utility.yul\":6234:6241   */\n              0x00\n                /* \"#utility.yul\":6278:6283   */\n              dup2\n                /* \"#utility.yul\":6274:6276   */\n              0x0f\n                /* \"#utility.yul\":6263:6284   */\n              signextend\n                /* \"#utility.yul\":6252:6284   */\n              swap1\n              pop\n                /* \"#utility.yul\":6198:6290   */\n              swap2\n              swap1\n              pop\n              jump\t// out\n                /* \"#utility.yul\":6296:6372   */\n            tag_163:\n                /* \"#utility.yul\":6332:6339   */\n              0x00\n                /* \"#utility.yul\":6361:6366   */\n              dup2\n                /* \"#utility.yul\":6350:6366   */\n              swap1\n              pop\n                /* \"#utility.yul\":6296:6372   */\n              swap2\n              swap1\n              pop\n              jump\t// out\n                /* \"#utility.yul\":6378:6455   */\n            tag_167:\n                /* \"#utility.yul\":6415:6422   */\n              0x00\n                /* \"#utility.yul\":6444:6449   */\n              dup2\n                /* \"#utility.yul\":6433:6449   */\n              swap1\n              pop\n                /* \"#utility.yul\":6378:6455   */\n              swap2\n              swap1\n              pop\n              jump\t// out\n                /* \"#utility.yul\":6461:6689   */\n            tag_87:\n                /* \"#utility.yul\":6496:6499   */\n              0x00\n                /* \"#utility.yul\":6519:6542   */\n              tag_233\n                /* \"#utility.yul\":6536:6541   */\n              dup3\n                /* \"#utility.yul\":6519:6542   */\n              tag_163\n              jump\t// in\n            tag_233:\n                /* \"#utility.yul\":6510:6542   */\n              swap2\n              pop\n                /* \"#utility.yul\":6564:6630   */\n              0x8000000000000000000000000000000000000000000000000000000000000000\n                /* \"#utility.yul\":6557:6562   */\n              dup3\n                /* \"#utility.yul\":6554:6631   */\n              eq\n                /* \"#utility.yul\":6551:6654   */\n              iszero\n              tag_234\n              jumpi\n                /* \"#utility.yul\":6634:6652   */\n              tag_235\n              tag_179\n              jump\t// in\n            tag_235:\n                /* \"#utility.yul\":6551:6654   */\n            tag_234:\n                /* \"#utility.yul\":6677:6682   */\n              dup2\n                /* \"#utility.yul\":6674:6675   */\n              0x00\n                /* \"#utility.yul\":6670:6683   */\n              sub\n                /* \"#utility.yul\":6663:6683   */\n              swap1\n              pop\n                /* \"#utility.yul\":6461:6689   */\n              swap2\n              swap1\n              pop\n              jump\t// out\n                /* \"#utility.yul\":6695:6875   */\n            tag_179:\n                /* \"#utility.yul\":6743:6820   */\n              0x4e487b7100000000000000000000000000000000000000000000000000000000\n                /* \"#utility.yul\":6740:6741   */\n              0x00\n                /* \"#utility.yul\":6733:6821   */\n              mstore\n                /* \"#utility.yul\":6840:6844   */\n              0x11\n                /* \"#utility.yul\":6837:6838   */\n              0x04\n                /* \"#utility.yul\":6830:6845   */\n              mstore\n                /* \"#utility.yul\":6864:6868   */\n              0x24\n                /* \"#utility.yul\":6861:6862   */\n              0x00\n                /* \"#utility.yul\":6854:6869   */\n              revert\n                /* \"#utility.yul\":6881:7061   */\n            tag_192:\n                /* \"#utility.yul\":6929:7006   */\n              0x4e487b7100000000000000000000000000000000000000000000000000000000\n                /* \"#utility.yul\":6926:6927   */\n              0x00\n                /* \"#utility.yul\":6919:7007   */\n              mstore\n                /* \"#utility.yul\":7026:7030   */\n              0x12\n                /* \"#utility.yul\":7023:7024   */\n              0x04\n                /* \"#utility.yul\":7016:7031   */\n              mstore\n                /* \"#utility.yul\":7050:7054   */\n              0x24\n                /* \"#utility.yul\":7047:7048   */\n              0x00\n                /* \"#utility.yul\":7040:7055   */\n              revert\n                /* \"#utility.yul\":7190:7307   */\n            tag_145:\n                /* \"#utility.yul\":7299:7300   */\n              0x00\n                /* \"#utility.yul\":7296:7297   */\n              dup1\n                /* \"#utility.yul\":7289:7301   */\n              revert\n                /* \"#utility.yul\":7313:7433   */\n            tag_133:\n                /* \"#utility.yul\":7385:7408   */\n              tag_242\n                /* \"#utility.yul\":7402:7407   */\n              dup2\n                /* \"#utility.yul\":7385:7408   */\n              tag_228\n              jump\t// in\n            tag_242:\n                /* \"#utility.yul\":7378:7383   */\n              dup2\n                /* \"#utility.yul\":7375:7409   */\n              eq\n                /* \"#utility.yul\":7365:7427   */\n              tag_243\n              jumpi\n                /* \"#utility.yul\":7423:7424   */\n              0x00\n                /* \"#utility.yul\":7420:7421   */\n              dup1\n                /* \"#utility.yul\":7413:7425   */\n              revert\n                /* \"#utility.yul\":7365:7427   */\n            tag_243:\n                /* \"#utility.yul\":7313:7433   */\n              pop\n              jump\t// out\n                /* \"#utility.yul\":7439:7559   */\n            tag_137:\n                /* \"#utility.yul\":7511:7534   */\n              tag_245\n                /* \"#utility.yul\":7528:7533   */\n              dup2\n                /* \"#utility.yul\":7511:7534   */\n              tag_163\n              jump\t// in\n            tag_245:\n                /* \"#utility.yul\":7504:7509   */\n              dup2\n                /* \"#utility.yul\":7501:7535   */\n              eq\n                /* \"#utility.yul\":7491:7553   */\n              tag_246\n              jumpi\n                /* \"#utility.yul\":7549:7550   */\n              0x00\n                /* \"#utility.yul\":7546:7547   */\n              dup1\n                /* \"#utility.yul\":7539:7551   */\n              revert\n                /* \"#utility.yul\":7491:7553   */\n            tag_246:\n                /* \"#utility.yul\":7439:7559   */\n              pop\n              jump\t// out\n                /* \"#utility.yul\":7565:7687   */\n            tag_141:\n                /* \"#utility.yul\":7638:7662   */\n              tag_248\n                /* \"#utility.yul\":7656:7661   */\n              dup2\n                /* \"#utility.yul\":7638:7662   */\n              tag_167\n              jump\t// in\n            tag_248:\n                /* \"#utility.yul\":7631:7636   */\n              dup2\n                /* \"#utility.yul\":7628:7663   */\n              eq\n                /* \"#utility.yul\":7618:7681   */\n              tag_249\n              jumpi\n                /* \"#utility.yul\":7677:7678   */\n              0x00\n                /* \"#utility.yul\":7674:7675   */\n              dup1\n                /* \"#utility.yul\":7667:7679   */\n              revert\n                /* \"#utility.yul\":7618:7681   */\n            tag_249:\n                /* \"#utility.yul\":7565:7687   */\n              pop\n              jump\t// out\n\n            auxdata: 0xa2646970667358221220aee8be504208b212ddbd5f5fd3e68c9bad15515e7dd80849d721940c8250a99164736f6c63430008070033\n        }\n    }\n\n    auxdata: 0xa2646970667358221220a42f83e2f273cabb95ac6c5d1f1fff03b7f73bf2d952303f7f2effcffdadcb8d64736f6c63430008070033\n}\n",
				"bytecode": {
					"linkReferences": {
						"remix_tests.sol": {
							"Assert": [
								{
									"length": 20,
									"start": 113
								},
								{
									"length": 20,
									"start": 424
								},
								{
									"length": 20,
									"start": 735
								},
								{
									"length": 20,
									"start": 1046
								},
								{
									"length": 20,
									"start": 1357
								},
								{
									"length": 20,
									"start": 1665
								},
								{
									"length": 20,
									"start": 2004
								},
								{
									"length": 20,
									"start": 2312
								}
							]
						}
					},
					"object": "608060405234801561001057600080fd5b50611d73806100206000396000f3fe608060405234801561001057600080fd5b50600436106100365760003560e01c8063011e64921461003b5780637fea0d4b14610045575b600080fd5b61004361004f565b005b61004d610a1c565b005b73__$acbfb1c35000d78352310b16a054a6b106$__63f5bae6b660008054906101000a900473ffffffffffffffffffffffffffffffffffffffff1673ffffffffffffffffffffffffffffffffffffffff16638f8a0d19600960036040518363ffffffff1660e01b81526004016100c6929190610e9d565b60206040518083038186803b1580156100de57600080fd5b505afa1580156100f2573d6000803e3d6000fd5b505050506040513d601f19601f820116820180604052508101906101169190610aff565b600c6040518363ffffffff1660e01b8152600401610135929190610d20565b60206040518083038186803b15801561014d57600080fd5b505af4158015610161573d6000803e3d6000fd5b505050506040513d601f19601f820116820180604052508101906101859190610ad2565b5073__$acbfb1c35000d78352310b16a054a6b106$__63f5bae6b660008054906101000a900473ffffffffffffffffffffffffffffffffffffffff1673ffffffffffffffffffffffffffffffffffffffff16634c627bad600960036040518363ffffffff1660e01b81526004016101fd929190610e9d565b60206040518083038186803b15801561021557600080fd5b505afa158015610229573d6000803e3d6000fd5b505050506040513d601f19601f8201168201806040525081019061024d9190610aff565b60066040518363ffffffff1660e01b815260040161026c929190610e10565b60206040518083038186803b15801561028457600080fd5b505af4158015610298573d6000803e3d6000fd5b505050506040513d601f19601f820116820180604052508101906102bc9190610ad2565b5073__$acbfb1c35000d78352310b16a054a6b106$__63f5bae6b660008054906101000a900473ffffffffffffffffffffffffffffffffffffffff1673ffffffffffffffffffffffffffffffffffffffff1663187983bf600960036040518363ffffffff1660e01b8152600401610334929190610e9d565b60206040518083038186803b15801561034c57600080fd5b505afa158015610360573d6000803e3d6000fd5b505050506040513d601f19601f820116820180604052508101906103849190610aff565b601b6040518363ffffffff1660e01b81526004016103a3929190610d5c565b60206040518083038186803b1580156103bb57600080fd5b505af41580156103cf573d6000803e3d6000fd5b505050506040513d601f19601f820116820180604052508101906103f39190610ad2565b5073__$acbfb1c35000d78352310b16a054a6b106$__63f5bae6b660008054906101000a900473ffffffffffffffffffffffffffffffffffffffff1673ffffffffffffffffffffffffffffffffffffffff166309b7cdda600960036040518363ffffffff1660e01b815260040161046b929190610e9d565b60206040518083038186803b15801561048357600080fd5b505afa158015610497573d6000803e3d6000fd5b505050506040513d601f19601f820116820180604052508101906104bb9190610aff565b60036040518363ffffffff1660e01b81526004016104da929190610dd4565b60206040518083038186803b1580156104f257600080fd5b505af4158015610506573d6000803e3d6000fd5b505050506040513d601f19601f8201168201806040525081019061052a9190610ad2565b5073__$acbfb1c35000d78352310b16a054a6b106$__63abcd796060008054906101000a900473ffffffffffffffffffffffffffffffffffffffff1673ffffffffffffffffffffffffffffffffffffffff16638371483460036040518263ffffffff1660e01b815260040161059f9190610e67565b60206040518083038186803b1580156105b757600080fd5b505afa1580156105cb573d6000803e3d6000fd5b505050506040513d601f19601f820116820180604052508101906105ef9190610b2c565b60076040518363ffffffff1660e01b815260040161060e929190610f1d565b60206040518083038186803b15801561062657600080fd5b505af415801561063a573d6000803e3d6000fd5b505050506040513d601f19601f8201168201806040525081019061065e9190610ad2565b5073__$acbfb1c35000d78352310b16a054a6b106$__63abcd796060008054906101000a900473ffffffffffffffffffffffffffffffffffffffff1673ffffffffffffffffffffffffffffffffffffffff16637d8251427ffffffffffffffffffffffffffffffffffffffffffffffffffffffffffffffffd6040518263ffffffff1660e01b81526004016106f29190610ec6565b60206040518083038186803b15801561070a57600080fd5b505afa15801561071e573d6000803e3d6000fd5b505050506040513d601f19601f820116820180604052508101906107429190610b2c565b60036040518363ffffffff1660e01b8152600401610761929190610ee1565b60206040518083038186803b15801561077957600080fd5b505af415801561078d573d6000803e3d6000fd5b505050506040513d601f19601f820116820180604052508101906107b19190610ad2565b5073__$acbfb1c35000d78352310b16a054a6b106$__63abcd796060008054906101000a900473ffffffffffffffffffffffffffffffffffffffff1673ffffffffffffffffffffffffffffffffffffffff16637ea9e05860036040518263ffffffff1660e01b81526004016108269190610e4c565b60206040518083038186803b15801561083e57600080fd5b505afa158015610852573d6000803e3d6000fd5b505050506040513d601f19601f820116820180604052508101906108769190610b2c565b60096040518363ffffffff1660e01b8152600401610895929190610f59565b60206040518083038186803b1580156108ad57600080fd5b505af41580156108c1573d6000803e3d6000fd5b505050506040513d601f19601f820116820180604052508101906108e59190610ad2565b5073__$acbfb1c35000d78352310b16a054a6b106$__63f5bae6b660008054906101000a900473ffffffffffffffffffffffffffffffffffffffff1673ffffffffffffffffffffffffffffffffffffffff1663b850107360096040518263ffffffff1660e01b815260040161095a9190610e82565b60206040518083038186803b15801561097257600080fd5b505afa158015610986573d6000803e3d6000fd5b505050506040513d601f19601f820116820180604052508101906109aa9190610aff565b60036040518363ffffffff1660e01b81526004016109c9929190610d98565b60206040518083038186803b1580156109e157600080fd5b505af41580156109f5573d6000803e3d6000fd5b505050506040513d601f19601f82011682018060405250810190610a199190610ad2565b50565b604051610a2890610a86565b604051809103906000f080158015610a44573d6000803e3d6000fd5b506000806101000a81548173ffffffffffffffffffffffffffffffffffffffff021916908373ffffffffffffffffffffffffffffffffffffffff160217905550565b610b4d806111f183390190565b600081519050610aa2816111ab565b92915050565b600081519050610ab7816111c2565b92915050565b600081519050610acc816111d9565b92915050565b600060208284031215610ae857610ae7611087565b5b6000610af684828501610a93565b91505092915050565b600060208284031215610b1557610b14611087565b5b6000610b2384828501610aa8565b91505092915050565b600060208284031215610b4257610b41611087565b5b6000610b5084828501610abd565b91505092915050565b610b6281610fbf565b82525050565b610b7181610fd3565b82525050565b610b8081610fe5565b82525050565b610b8f81610ff7565b82525050565b610b9e81610ff7565b82525050565b610bad81611009565b82525050565b610bbc81611009565b82525050565b610bcb8161101b565b82525050565b610bda8161102d565b82525050565b610be98161103f565b82525050565b610bf881611051565b82525050565b610c0781611063565b82525050565b610c1681611075565b82525050565b6000610c29600b83610f95565b9150610c348261108c565b602082019050919050565b6000610c4c600b83610f95565b9150610c57826110b5565b602082019050919050565b6000610c6f600b83610f95565b9150610c7a826110de565b602082019050919050565b6000610c92601483610f95565b9150610c9d82611107565b602082019050919050565b6000610cb5601183610f95565b9150610cc082611130565b602082019050919050565b6000610cd8601b83610f95565b9150610ce382611159565b602082019050919050565b6000610cfb601183610f95565b9150610d0682611182565b602082019050919050565b610d1a81610fc9565b82525050565b6000606082019050610d356000830185610b59565b610d426020830184610b68565b8181036040830152610d5381610cee565b90509392505050565b6000606082019050610d716000830185610b59565b610d7e6020830184610b77565b8181036040830152610d8f81610ccb565b90509392505050565b6000606082019050610dad6000830185610b59565b610dba6020830184610b95565b8181036040830152610dcb81610c3f565b90509392505050565b6000606082019050610de96000830185610b59565b610df66020830184610b95565b8181036040830152610e0781610c85565b90509392505050565b6000606082019050610e256000830185610b59565b610e326020830184610bc2565b8181036040830152610e4381610ca8565b90509392505050565b6000602082019050610e616000830184610b86565b92915050565b6000602082019050610e7c6000830184610ba4565b92915050565b6000602082019050610e976000830184610be0565b92915050565b6000604082019050610eb26000830185610bef565b610ebf6020830184610b86565b9392505050565b6000602082019050610edb6000830184610c0d565b92915050565b6000606082019050610ef66000830185610d11565b610f036020830184610bb3565b8181036040830152610f1481610c3f565b90509392505050565b6000606082019050610f326000830185610d11565b610f3f6020830184610bd1565b8181036040830152610f5081610c1c565b90509392505050565b6000606082019050610f6e6000830185610d11565b610f7b6020830184610bfe565b8181036040830152610f8c81610c62565b90509392505050565b600082825260208201905092915050565b60008115159050919050565b600081600f0b9050919050565b6000819050919050565b6000819050919050565b6000610fde82610fbf565b9050919050565b6000610ff082610fbf565b9050919050565b600061100282610fbf565b9050919050565b600061101482610fc9565b9050919050565b600061102682610fbf565b9050919050565b600061103882610fc9565b9050919050565b600061104a82610fb2565b9050919050565b600061105c82610fbf565b9050919050565b600061106e82610fc9565b9050919050565b600061108082610fbf565b9050919050565b600080fd5b7f73686f756c642062652036000000000000000000000000000000000000000000600082015250565b7f73686f756c642062652033000000000000000000000000000000000000000000600082015250565b7f73686f756c642062652039000000000000000000000000000000000000000000600082015250565b7f6469766973696f6e2073686f756c642062652033000000000000000000000000600082015250565b7f72657374612073686f756c642062652036000000000000000000000000000000600082015250565b7f6d756c7469706c69636163696f6e2073686f756c642062652032370000000000600082015250565b7f73756d612073686f756c64206265203132000000000000000000000000000000600082015250565b6111b481610fa6565b81146111bf57600080fd5b50565b6111cb81610fbf565b81146111d657600080fd5b50565b6111e281610fc9565b81146111ed57600080fd5b5056fe608060405234801561001057600080fd5b50610b2d806100206000396000f3fe608060405234801561001057600080fd5b50600436106100885760003560e01c80637ea9e0581161005b5780637ea9e0581461014d578063837148341461017d5780638f8a0d19146101ad578063b8501073146101dd57610088565b806309b7cdda1461008d578063187983bf146100bd5780634c627bad146100ed5780637d8251421461011d575b600080fd5b6100a760048036038101906100a29190610566565b61020d565b6040516100b491906105f1565b60405180910390f35b6100d760048036038101906100d29190610566565b61022a565b6040516100e491906105f1565b60405180910390f35b61010760048036038101906101029190610566565b610247565b60405161011491906105f1565b60405180910390f35b61013760048036038101906101329190610539565b610264565b604051610144919061060c565b60405180910390f35b61016760048036038101906101629190610539565b610276565b604051610174919061060c565b60405180910390f35b610197600480360381019061019291906105a6565b610288565b6040516101a4919061060c565b60405180910390f35b6101c760048036038101906101c29190610566565b61029a565b6040516101d491906105f1565b60405180910390f35b6101f760048036038101906101f2919061050c565b6102b7565b60405161020491906105f1565b60405180910390f35b600061022282846102cf90919063ffffffff16565b905092915050565b600061023f82846102e590919063ffffffff16565b905092915050565b600061025c82846102fb90919063ffffffff16565b905092915050565b600061026f82610311565b9050919050565b600061028182610335565b9050919050565b60006102938261034a565b9050919050565b60006102af828461038590919063ffffffff16565b905092915050565b60006102c582600f0b61039b565b600f0b9050919050565b600081836102dd9190610711565b905092915050565b600081836102f391906107ac565b905092915050565b60008183610309919061091d565b905092915050565b60008082131561032357819050610330565b8161032d90610a06565b90505b919050565b6000818261034391906107ac565b9050919050565b60006001821161035d5760019050610380565b61037260018361036d91906109b1565b61034a565b8261037d91906108c3565b90505b919050565b600081836103939190610627565b905092915050565b60008082600f0b12156103ad57600080fd5b6103b982600f0b6103c0565b9050919050565b6000808210156103cf57600080fd5b60008214156103e157600090506104c8565b600060019050600281846103f5919061077b565b8261040091906106bb565b61040a919061077b565b90506002818461041a919061077b565b8261042591906106bb565b61042f919061077b565b90506002818461043f919061077b565b8261044a91906106bb565b610454919061077b565b905060028184610464919061077b565b8261046f91906106bb565b610479919061077b565b905060028184610489919061077b565b8261049491906106bb565b61049e919061077b565b9050600081846104ae919061077b565b9050808210156104c25781925050506104c8565b80925050505b919050565b6000813590506104dc81610ab2565b92915050565b6000813590506104f181610ac9565b92915050565b60008135905061050681610ae0565b92915050565b60006020828403121561052257610521610aad565b5b6000610530848285016104cd565b91505092915050565b60006020828403121561054f5761054e610aad565b5b600061055d848285016104e2565b91505092915050565b6000806040838503121561057d5761057c610aad565b5b600061058b858286016104e2565b925050602061059c858286016104e2565b9150509250929050565b6000602082840312156105bc576105bb610aad565b5b60006105ca848285016104f7565b91505092915050565b6105dc816109f2565b82525050565b6105eb816109fc565b82525050565b600060208201905061060660008301846105d3565b92915050565b600060208201905061062160008301846105e2565b92915050565b6000610632826109f2565b915061063d836109f2565b9250817f7fffffffffffffffffffffffffffffffffffffffffffffffffffffffffffffff0383136000831215161561067857610677610a4f565b5b817f80000000000000000000000000000000000000000000000000000000000000000383126000831216156106b0576106af610a4f565b5b828201905092915050565b60006106c6826109fc565b91506106d1836109fc565b9250827fffffffffffffffffffffffffffffffffffffffffffffffffffffffffffffffff0382111561070657610705610a4f565b5b828201905092915050565b600061071c826109f2565b9150610727836109f2565b92508261073757610736610a7e565b5b600160000383147f8000000000000000000000000000000000000000000000000000000000000000831416156107705761076f610a4f565b5b828205905092915050565b6000610786826109fc565b9150610791836109fc565b9250826107a1576107a0610a7e565b5b828204905092915050565b60006107b7826109f2565b91506107c2836109f2565b9250827f7fffffffffffffffffffffffffffffffffffffffffffffffffffffffffffffff048211600084136000841316161561080157610800610a4f565b5b817f8000000000000000000000000000000000000000000000000000000000000000058312600084126000841316161561083e5761083d610a4f565b5b827f8000000000000000000000000000000000000000000000000000000000000000058212600084136000841216161561087b5761087a610a4f565b5b827f7fffffffffffffffffffffffffffffffffffffffffffffffffffffffffffffff05821260008412600084121616156108b8576108b7610a4f565b5b828202905092915050565b60006108ce826109fc565b91506108d9836109fc565b9250817fffffffffffffffffffffffffffffffffffffffffffffffffffffffffffffffff048311821515161561091257610911610a4f565b5b828202905092915050565b6000610928826109f2565b9150610933836109f2565b9250827f80000000000000000000000000000000000000000000000000000000000000000182126000841215161561096e5761096d610a4f565b5b827f7fffffffffffffffffffffffffffffffffffffffffffffffffffffffffffffff0182136000841216156109a6576109a5610a4f565b5b828203905092915050565b60006109bc826109fc565b91506109c7836109fc565b9250828210156109da576109d9610a4f565b5b828203905092915050565b600081600f0b9050919050565b6000819050919050565b6000819050919050565b6000610a11826109f2565b91507f8000000000000000000000000000000000000000000000000000000000000000821415610a4457610a43610a4f565b5b816000039050919050565b7f4e487b7100000000000000000000000000000000000000000000000000000000600052601160045260246000fd5b7f4e487b7100000000000000000000000000000000000000000000000000000000600052601260045260246000fd5b600080fd5b610abb816109e5565b8114610ac657600080fd5b50565b610ad2816109f2565b8114610add57600080fd5b50565b610ae9816109fc565b8114610af457600080fd5b5056fea2646970667358221220aee8be504208b212ddbd5f5fd3e68c9bad15515e7dd80849d721940c8250a99164736f6c63430008070033a2646970667358221220a42f83e2f273cabb95ac6c5d1f1fff03b7f73bf2d952303f7f2effcffdadcb8d64736f6c63430008070033",
					"opcodes": "PUSH1 0x80 PUSH1 0x40 MSTORE CALLVALUE DUP1 ISZERO PUSH2 0x10 JUMPI PUSH1 0x0 DUP1 REVERT JUMPDEST POP PUSH2 0x1D73 DUP1 PUSH2 0x20 PUSH1 0x0 CODECOPY PUSH1 0x0 RETURN INVALID PUSH1 0x80 PUSH1 0x40 MSTORE CALLVALUE DUP1 ISZERO PUSH2 0x10 JUMPI PUSH1 0x0 DUP1 REVERT JUMPDEST POP PUSH1 0x4 CALLDATASIZE LT PUSH2 0x36 JUMPI PUSH1 0x0 CALLDATALOAD PUSH1 0xE0 SHR DUP1 PUSH4 0x11E6492 EQ PUSH2 0x3B JUMPI DUP1 PUSH4 0x7FEA0D4B EQ PUSH2 0x45 JUMPI JUMPDEST PUSH1 0x0 DUP1 REVERT JUMPDEST PUSH2 0x43 PUSH2 0x4F JUMP JUMPDEST STOP JUMPDEST PUSH2 0x4D PUSH2 0xA1C JUMP JUMPDEST STOP JUMPDEST PUSH20 0x0 PUSH4 0xF5BAE6B6 PUSH1 0x0 DUP1 SLOAD SWAP1 PUSH2 0x100 EXP SWAP1 DIV PUSH20 0xFFFFFFFFFFFFFFFFFFFFFFFFFFFFFFFFFFFFFFFF AND PUSH20 0xFFFFFFFFFFFFFFFFFFFFFFFFFFFFFFFFFFFFFFFF AND PUSH4 0x8F8A0D19 PUSH1 0x9 PUSH1 0x3 PUSH1 0x40 MLOAD DUP4 PUSH4 0xFFFFFFFF AND PUSH1 0xE0 SHL DUP2 MSTORE PUSH1 0x4 ADD PUSH2 0xC6 SWAP3 SWAP2 SWAP1 PUSH2 0xE9D JUMP JUMPDEST PUSH1 0x20 PUSH1 0x40 MLOAD DUP1 DUP4 SUB DUP2 DUP7 DUP1 EXTCODESIZE ISZERO DUP1 ISZERO PUSH2 0xDE JUMPI PUSH1 0x0 DUP1 REVERT JUMPDEST POP GAS STATICCALL ISZERO DUP1 ISZERO PUSH2 0xF2 JUMPI RETURNDATASIZE PUSH1 0x0 DUP1 RETURNDATACOPY RETURNDATASIZE PUSH1 0x0 REVERT JUMPDEST POP POP POP POP PUSH1 0x40 MLOAD RETURNDATASIZE PUSH1 0x1F NOT PUSH1 0x1F DUP3 ADD AND DUP3 ADD DUP1 PUSH1 0x40 MSTORE POP DUP2 ADD SWAP1 PUSH2 0x116 SWAP2 SWAP1 PUSH2 0xAFF JUMP JUMPDEST PUSH1 0xC PUSH1 0x40 MLOAD DUP4 PUSH4 0xFFFFFFFF AND PUSH1 0xE0 SHL DUP2 MSTORE PUSH1 0x4 ADD PUSH2 0x135 SWAP3 SWAP2 SWAP1 PUSH2 0xD20 JUMP JUMPDEST PUSH1 0x20 PUSH1 0x40 MLOAD DUP1 DUP4 SUB DUP2 DUP7 DUP1 EXTCODESIZE ISZERO DUP1 ISZERO PUSH2 0x14D JUMPI PUSH1 0x0 DUP1 REVERT JUMPDEST POP GAS DELEGATECALL ISZERO DUP1 ISZERO PUSH2 0x161 JUMPI RETURNDATASIZE PUSH1 0x0 DUP1 RETURNDATACOPY RETURNDATASIZE PUSH1 0x0 REVERT JUMPDEST POP POP POP POP PUSH1 0x40 MLOAD RETURNDATASIZE PUSH1 0x1F NOT PUSH1 0x1F DUP3 ADD AND DUP3 ADD DUP1 PUSH1 0x40 MSTORE POP DUP2 ADD SWAP1 PUSH2 0x185 SWAP2 SWAP1 PUSH2 0xAD2 JUMP JUMPDEST POP PUSH20 0x0 PUSH4 0xF5BAE6B6 PUSH1 0x0 DUP1 SLOAD SWAP1 PUSH2 0x100 EXP SWAP1 DIV PUSH20 0xFFFFFFFFFFFFFFFFFFFFFFFFFFFFFFFFFFFFFFFF AND PUSH20 0xFFFFFFFFFFFFFFFFFFFFFFFFFFFFFFFFFFFFFFFF AND PUSH4 0x4C627BAD PUSH1 0x9 PUSH1 0x3 PUSH1 0x40 MLOAD DUP4 PUSH4 0xFFFFFFFF AND PUSH1 0xE0 SHL DUP2 MSTORE PUSH1 0x4 ADD PUSH2 0x1FD SWAP3 SWAP2 SWAP1 PUSH2 0xE9D JUMP JUMPDEST PUSH1 0x20 PUSH1 0x40 MLOAD DUP1 DUP4 SUB DUP2 DUP7 DUP1 EXTCODESIZE ISZERO DUP1 ISZERO PUSH2 0x215 JUMPI PUSH1 0x0 DUP1 REVERT JUMPDEST POP GAS STATICCALL ISZERO DUP1 ISZERO PUSH2 0x229 JUMPI RETURNDATASIZE PUSH1 0x0 DUP1 RETURNDATACOPY RETURNDATASIZE PUSH1 0x0 REVERT JUMPDEST POP POP POP POP PUSH1 0x40 MLOAD RETURNDATASIZE PUSH1 0x1F NOT PUSH1 0x1F DUP3 ADD AND DUP3 ADD DUP1 PUSH1 0x40 MSTORE POP DUP2 ADD SWAP1 PUSH2 0x24D SWAP2 SWAP1 PUSH2 0xAFF JUMP JUMPDEST PUSH1 0x6 PUSH1 0x40 MLOAD DUP4 PUSH4 0xFFFFFFFF AND PUSH1 0xE0 SHL DUP2 MSTORE PUSH1 0x4 ADD PUSH2 0x26C SWAP3 SWAP2 SWAP1 PUSH2 0xE10 JUMP JUMPDEST PUSH1 0x20 PUSH1 0x40 MLOAD DUP1 DUP4 SUB DUP2 DUP7 DUP1 EXTCODESIZE ISZERO DUP1 ISZERO PUSH2 0x284 JUMPI PUSH1 0x0 DUP1 REVERT JUMPDEST POP GAS DELEGATECALL ISZERO DUP1 ISZERO PUSH2 0x298 JUMPI RETURNDATASIZE PUSH1 0x0 DUP1 RETURNDATACOPY RETURNDATASIZE PUSH1 0x0 REVERT JUMPDEST POP POP POP POP PUSH1 0x40 MLOAD RETURNDATASIZE PUSH1 0x1F NOT PUSH1 0x1F DUP3 ADD AND DUP3 ADD DUP1 PUSH1 0x40 MSTORE POP DUP2 ADD SWAP1 PUSH2 0x2BC SWAP2 SWAP1 PUSH2 0xAD2 JUMP JUMPDEST POP PUSH20 0x0 PUSH4 0xF5BAE6B6 PUSH1 0x0 DUP1 SLOAD SWAP1 PUSH2 0x100 EXP SWAP1 DIV PUSH20 0xFFFFFFFFFFFFFFFFFFFFFFFFFFFFFFFFFFFFFFFF AND PUSH20 0xFFFFFFFFFFFFFFFFFFFFFFFFFFFFFFFFFFFFFFFF AND PUSH4 0x187983BF PUSH1 0x9 PUSH1 0x3 PUSH1 0x40 MLOAD DUP4 PUSH4 0xFFFFFFFF AND PUSH1 0xE0 SHL DUP2 MSTORE PUSH1 0x4 ADD PUSH2 0x334 SWAP3 SWAP2 SWAP1 PUSH2 0xE9D JUMP JUMPDEST PUSH1 0x20 PUSH1 0x40 MLOAD DUP1 DUP4 SUB DUP2 DUP7 DUP1 EXTCODESIZE ISZERO DUP1 ISZERO PUSH2 0x34C JUMPI PUSH1 0x0 DUP1 REVERT JUMPDEST POP GAS STATICCALL ISZERO DUP1 ISZERO PUSH2 0x360 JUMPI RETURNDATASIZE PUSH1 0x0 DUP1 RETURNDATACOPY RETURNDATASIZE PUSH1 0x0 REVERT JUMPDEST POP POP POP POP PUSH1 0x40 MLOAD RETURNDATASIZE PUSH1 0x1F NOT PUSH1 0x1F DUP3 ADD AND DUP3 ADD DUP1 PUSH1 0x40 MSTORE POP DUP2 ADD SWAP1 PUSH2 0x384 SWAP2 SWAP1 PUSH2 0xAFF JUMP JUMPDEST PUSH1 0x1B PUSH1 0x40 MLOAD DUP4 PUSH4 0xFFFFFFFF AND PUSH1 0xE0 SHL DUP2 MSTORE PUSH1 0x4 ADD PUSH2 0x3A3 SWAP3 SWAP2 SWAP1 PUSH2 0xD5C JUMP JUMPDEST PUSH1 0x20 PUSH1 0x40 MLOAD DUP1 DUP4 SUB DUP2 DUP7 DUP1 EXTCODESIZE ISZERO DUP1 ISZERO PUSH2 0x3BB JUMPI PUSH1 0x0 DUP1 REVERT JUMPDEST POP GAS DELEGATECALL ISZERO DUP1 ISZERO PUSH2 0x3CF JUMPI RETURNDATASIZE PUSH1 0x0 DUP1 RETURNDATACOPY RETURNDATASIZE PUSH1 0x0 REVERT JUMPDEST POP POP POP POP PUSH1 0x40 MLOAD RETURNDATASIZE PUSH1 0x1F NOT PUSH1 0x1F DUP3 ADD AND DUP3 ADD DUP1 PUSH1 0x40 MSTORE POP DUP2 ADD SWAP1 PUSH2 0x3F3 SWAP2 SWAP1 PUSH2 0xAD2 JUMP JUMPDEST POP PUSH20 0x0 PUSH4 0xF5BAE6B6 PUSH1 0x0 DUP1 SLOAD SWAP1 PUSH2 0x100 EXP SWAP1 DIV PUSH20 0xFFFFFFFFFFFFFFFFFFFFFFFFFFFFFFFFFFFFFFFF AND PUSH20 0xFFFFFFFFFFFFFFFFFFFFFFFFFFFFFFFFFFFFFFFF AND PUSH4 0x9B7CDDA PUSH1 0x9 PUSH1 0x3 PUSH1 0x40 MLOAD DUP4 PUSH4 0xFFFFFFFF AND PUSH1 0xE0 SHL DUP2 MSTORE PUSH1 0x4 ADD PUSH2 0x46B SWAP3 SWAP2 SWAP1 PUSH2 0xE9D JUMP JUMPDEST PUSH1 0x20 PUSH1 0x40 MLOAD DUP1 DUP4 SUB DUP2 DUP7 DUP1 EXTCODESIZE ISZERO DUP1 ISZERO PUSH2 0x483 JUMPI PUSH1 0x0 DUP1 REVERT JUMPDEST POP GAS STATICCALL ISZERO DUP1 ISZERO PUSH2 0x497 JUMPI RETURNDATASIZE PUSH1 0x0 DUP1 RETURNDATACOPY RETURNDATASIZE PUSH1 0x0 REVERT JUMPDEST POP POP POP POP PUSH1 0x40 MLOAD RETURNDATASIZE PUSH1 0x1F NOT PUSH1 0x1F DUP3 ADD AND DUP3 ADD DUP1 PUSH1 0x40 MSTORE POP DUP2 ADD SWAP1 PUSH2 0x4BB SWAP2 SWAP1 PUSH2 0xAFF JUMP JUMPDEST PUSH1 0x3 PUSH1 0x40 MLOAD DUP4 PUSH4 0xFFFFFFFF AND PUSH1 0xE0 SHL DUP2 MSTORE PUSH1 0x4 ADD PUSH2 0x4DA SWAP3 SWAP2 SWAP1 PUSH2 0xDD4 JUMP JUMPDEST PUSH1 0x20 PUSH1 0x40 MLOAD DUP1 DUP4 SUB DUP2 DUP7 DUP1 EXTCODESIZE ISZERO DUP1 ISZERO PUSH2 0x4F2 JUMPI PUSH1 0x0 DUP1 REVERT JUMPDEST POP GAS DELEGATECALL ISZERO DUP1 ISZERO PUSH2 0x506 JUMPI RETURNDATASIZE PUSH1 0x0 DUP1 RETURNDATACOPY RETURNDATASIZE PUSH1 0x0 REVERT JUMPDEST POP POP POP POP PUSH1 0x40 MLOAD RETURNDATASIZE PUSH1 0x1F NOT PUSH1 0x1F DUP3 ADD AND DUP3 ADD DUP1 PUSH1 0x40 MSTORE POP DUP2 ADD SWAP1 PUSH2 0x52A SWAP2 SWAP1 PUSH2 0xAD2 JUMP JUMPDEST POP PUSH20 0x0 PUSH4 0xABCD7960 PUSH1 0x0 DUP1 SLOAD SWAP1 PUSH2 0x100 EXP SWAP1 DIV PUSH20 0xFFFFFFFFFFFFFFFFFFFFFFFFFFFFFFFFFFFFFFFF AND PUSH20 0xFFFFFFFFFFFFFFFFFFFFFFFFFFFFFFFFFFFFFFFF AND PUSH4 0x83714834 PUSH1 0x3 PUSH1 0x40 MLOAD DUP3 PUSH4 0xFFFFFFFF AND PUSH1 0xE0 SHL DUP2 MSTORE PUSH1 0x4 ADD PUSH2 0x59F SWAP2 SWAP1 PUSH2 0xE67 JUMP JUMPDEST PUSH1 0x20 PUSH1 0x40 MLOAD DUP1 DUP4 SUB DUP2 DUP7 DUP1 EXTCODESIZE ISZERO DUP1 ISZERO PUSH2 0x5B7 JUMPI PUSH1 0x0 DUP1 REVERT JUMPDEST POP GAS STATICCALL ISZERO DUP1 ISZERO PUSH2 0x5CB JUMPI RETURNDATASIZE PUSH1 0x0 DUP1 RETURNDATACOPY RETURNDATASIZE PUSH1 0x0 REVERT JUMPDEST POP POP POP POP PUSH1 0x40 MLOAD RETURNDATASIZE PUSH1 0x1F NOT PUSH1 0x1F DUP3 ADD AND DUP3 ADD DUP1 PUSH1 0x40 MSTORE POP DUP2 ADD SWAP1 PUSH2 0x5EF SWAP2 SWAP1 PUSH2 0xB2C JUMP JUMPDEST PUSH1 0x7 PUSH1 0x40 MLOAD DUP4 PUSH4 0xFFFFFFFF AND PUSH1 0xE0 SHL DUP2 MSTORE PUSH1 0x4 ADD PUSH2 0x60E SWAP3 SWAP2 SWAP1 PUSH2 0xF1D JUMP JUMPDEST PUSH1 0x20 PUSH1 0x40 MLOAD DUP1 DUP4 SUB DUP2 DUP7 DUP1 EXTCODESIZE ISZERO DUP1 ISZERO PUSH2 0x626 JUMPI PUSH1 0x0 DUP1 REVERT JUMPDEST POP GAS DELEGATECALL ISZERO DUP1 ISZERO PUSH2 0x63A JUMPI RETURNDATASIZE PUSH1 0x0 DUP1 RETURNDATACOPY RETURNDATASIZE PUSH1 0x0 REVERT JUMPDEST POP POP POP POP PUSH1 0x40 MLOAD RETURNDATASIZE PUSH1 0x1F NOT PUSH1 0x1F DUP3 ADD AND DUP3 ADD DUP1 PUSH1 0x40 MSTORE POP DUP2 ADD SWAP1 PUSH2 0x65E SWAP2 SWAP1 PUSH2 0xAD2 JUMP JUMPDEST POP PUSH20 0x0 PUSH4 0xABCD7960 PUSH1 0x0 DUP1 SLOAD SWAP1 PUSH2 0x100 EXP SWAP1 DIV PUSH20 0xFFFFFFFFFFFFFFFFFFFFFFFFFFFFFFFFFFFFFFFF AND PUSH20 0xFFFFFFFFFFFFFFFFFFFFFFFFFFFFFFFFFFFFFFFF AND PUSH4 0x7D825142 PUSH32 0xFFFFFFFFFFFFFFFFFFFFFFFFFFFFFFFFFFFFFFFFFFFFFFFFFFFFFFFFFFFFFFFD PUSH1 0x40 MLOAD DUP3 PUSH4 0xFFFFFFFF AND PUSH1 0xE0 SHL DUP2 MSTORE PUSH1 0x4 ADD PUSH2 0x6F2 SWAP2 SWAP1 PUSH2 0xEC6 JUMP JUMPDEST PUSH1 0x20 PUSH1 0x40 MLOAD DUP1 DUP4 SUB DUP2 DUP7 DUP1 EXTCODESIZE ISZERO DUP1 ISZERO PUSH2 0x70A JUMPI PUSH1 0x0 DUP1 REVERT JUMPDEST POP GAS STATICCALL ISZERO DUP1 ISZERO PUSH2 0x71E JUMPI RETURNDATASIZE PUSH1 0x0 DUP1 RETURNDATACOPY RETURNDATASIZE PUSH1 0x0 REVERT JUMPDEST POP POP POP POP PUSH1 0x40 MLOAD RETURNDATASIZE PUSH1 0x1F NOT PUSH1 0x1F DUP3 ADD AND DUP3 ADD DUP1 PUSH1 0x40 MSTORE POP DUP2 ADD SWAP1 PUSH2 0x742 SWAP2 SWAP1 PUSH2 0xB2C JUMP JUMPDEST PUSH1 0x3 PUSH1 0x40 MLOAD DUP4 PUSH4 0xFFFFFFFF AND PUSH1 0xE0 SHL DUP2 MSTORE PUSH1 0x4 ADD PUSH2 0x761 SWAP3 SWAP2 SWAP1 PUSH2 0xEE1 JUMP JUMPDEST PUSH1 0x20 PUSH1 0x40 MLOAD DUP1 DUP4 SUB DUP2 DUP7 DUP1 EXTCODESIZE ISZERO DUP1 ISZERO PUSH2 0x779 JUMPI PUSH1 0x0 DUP1 REVERT JUMPDEST POP GAS DELEGATECALL ISZERO DUP1 ISZERO PUSH2 0x78D JUMPI RETURNDATASIZE PUSH1 0x0 DUP1 RETURNDATACOPY RETURNDATASIZE PUSH1 0x0 REVERT JUMPDEST POP POP POP POP PUSH1 0x40 MLOAD RETURNDATASIZE PUSH1 0x1F NOT PUSH1 0x1F DUP3 ADD AND DUP3 ADD DUP1 PUSH1 0x40 MSTORE POP DUP2 ADD SWAP1 PUSH2 0x7B1 SWAP2 SWAP1 PUSH2 0xAD2 JUMP JUMPDEST POP PUSH20 0x0 PUSH4 0xABCD7960 PUSH1 0x0 DUP1 SLOAD SWAP1 PUSH2 0x100 EXP SWAP1 DIV PUSH20 0xFFFFFFFFFFFFFFFFFFFFFFFFFFFFFFFFFFFFFFFF AND PUSH20 0xFFFFFFFFFFFFFFFFFFFFFFFFFFFFFFFFFFFFFFFF AND PUSH4 0x7EA9E058 PUSH1 0x3 PUSH1 0x40 MLOAD DUP3 PUSH4 0xFFFFFFFF AND PUSH1 0xE0 SHL DUP2 MSTORE PUSH1 0x4 ADD PUSH2 0x826 SWAP2 SWAP1 PUSH2 0xE4C JUMP JUMPDEST PUSH1 0x20 PUSH1 0x40 MLOAD DUP1 DUP4 SUB DUP2 DUP7 DUP1 EXTCODESIZE ISZERO DUP1 ISZERO PUSH2 0x83E JUMPI PUSH1 0x0 DUP1 REVERT JUMPDEST POP GAS STATICCALL ISZERO DUP1 ISZERO PUSH2 0x852 JUMPI RETURNDATASIZE PUSH1 0x0 DUP1 RETURNDATACOPY RETURNDATASIZE PUSH1 0x0 REVERT JUMPDEST POP POP POP POP PUSH1 0x40 MLOAD RETURNDATASIZE PUSH1 0x1F NOT PUSH1 0x1F DUP3 ADD AND DUP3 ADD DUP1 PUSH1 0x40 MSTORE POP DUP2 ADD SWAP1 PUSH2 0x876 SWAP2 SWAP1 PUSH2 0xB2C JUMP JUMPDEST PUSH1 0x9 PUSH1 0x40 MLOAD DUP4 PUSH4 0xFFFFFFFF AND PUSH1 0xE0 SHL DUP2 MSTORE PUSH1 0x4 ADD PUSH2 0x895 SWAP3 SWAP2 SWAP1 PUSH2 0xF59 JUMP JUMPDEST PUSH1 0x20 PUSH1 0x40 MLOAD DUP1 DUP4 SUB DUP2 DUP7 DUP1 EXTCODESIZE ISZERO DUP1 ISZERO PUSH2 0x8AD JUMPI PUSH1 0x0 DUP1 REVERT JUMPDEST POP GAS DELEGATECALL ISZERO DUP1 ISZERO PUSH2 0x8C1 JUMPI RETURNDATASIZE PUSH1 0x0 DUP1 RETURNDATACOPY RETURNDATASIZE PUSH1 0x0 REVERT JUMPDEST POP POP POP POP PUSH1 0x40 MLOAD RETURNDATASIZE PUSH1 0x1F NOT PUSH1 0x1F DUP3 ADD AND DUP3 ADD DUP1 PUSH1 0x40 MSTORE POP DUP2 ADD SWAP1 PUSH2 0x8E5 SWAP2 SWAP1 PUSH2 0xAD2 JUMP JUMPDEST POP PUSH20 0x0 PUSH4 0xF5BAE6B6 PUSH1 0x0 DUP1 SLOAD SWAP1 PUSH2 0x100 EXP SWAP1 DIV PUSH20 0xFFFFFFFFFFFFFFFFFFFFFFFFFFFFFFFFFFFFFFFF AND PUSH20 0xFFFFFFFFFFFFFFFFFFFFFFFFFFFFFFFFFFFFFFFF AND PUSH4 0xB8501073 PUSH1 0x9 PUSH1 0x40 MLOAD DUP3 PUSH4 0xFFFFFFFF AND PUSH1 0xE0 SHL DUP2 MSTORE PUSH1 0x4 ADD PUSH2 0x95A SWAP2 SWAP1 PUSH2 0xE82 JUMP JUMPDEST PUSH1 0x20 PUSH1 0x40 MLOAD DUP1 DUP4 SUB DUP2 DUP7 DUP1 EXTCODESIZE ISZERO DUP1 ISZERO PUSH2 0x972 JUMPI PUSH1 0x0 DUP1 REVERT JUMPDEST POP GAS STATICCALL ISZERO DUP1 ISZERO PUSH2 0x986 JUMPI RETURNDATASIZE PUSH1 0x0 DUP1 RETURNDATACOPY RETURNDATASIZE PUSH1 0x0 REVERT JUMPDEST POP POP POP POP PUSH1 0x40 MLOAD RETURNDATASIZE PUSH1 0x1F NOT PUSH1 0x1F DUP3 ADD AND DUP3 ADD DUP1 PUSH1 0x40 MSTORE POP DUP2 ADD SWAP1 PUSH2 0x9AA SWAP2 SWAP1 PUSH2 0xAFF JUMP JUMPDEST PUSH1 0x3 PUSH1 0x40 MLOAD DUP4 PUSH4 0xFFFFFFFF AND PUSH1 0xE0 SHL DUP2 MSTORE PUSH1 0x4 ADD PUSH2 0x9C9 SWAP3 SWAP2 SWAP1 PUSH2 0xD98 JUMP JUMPDEST PUSH1 0x20 PUSH1 0x40 MLOAD DUP1 DUP4 SUB DUP2 DUP7 DUP1 EXTCODESIZE ISZERO DUP1 ISZERO PUSH2 0x9E1 JUMPI PUSH1 0x0 DUP1 REVERT JUMPDEST POP GAS DELEGATECALL ISZERO DUP1 ISZERO PUSH2 0x9F5 JUMPI RETURNDATASIZE PUSH1 0x0 DUP1 RETURNDATACOPY RETURNDATASIZE PUSH1 0x0 REVERT JUMPDEST POP POP POP POP PUSH1 0x40 MLOAD RETURNDATASIZE PUSH1 0x1F NOT PUSH1 0x1F DUP3 ADD AND DUP3 ADD DUP1 PUSH1 0x40 MSTORE POP DUP2 ADD SWAP1 PUSH2 0xA19 SWAP2 SWAP1 PUSH2 0xAD2 JUMP JUMPDEST POP JUMP JUMPDEST PUSH1 0x40 MLOAD PUSH2 0xA28 SWAP1 PUSH2 0xA86 JUMP JUMPDEST PUSH1 0x40 MLOAD DUP1 SWAP2 SUB SWAP1 PUSH1 0x0 CREATE DUP1 ISZERO DUP1 ISZERO PUSH2 0xA44 JUMPI RETURNDATASIZE PUSH1 0x0 DUP1 RETURNDATACOPY RETURNDATASIZE PUSH1 0x0 REVERT JUMPDEST POP PUSH1 0x0 DUP1 PUSH2 0x100 EXP DUP2 SLOAD DUP2 PUSH20 0xFFFFFFFFFFFFFFFFFFFFFFFFFFFFFFFFFFFFFFFF MUL NOT AND SWAP1 DUP4 PUSH20 0xFFFFFFFFFFFFFFFFFFFFFFFFFFFFFFFFFFFFFFFF AND MUL OR SWAP1 SSTORE POP JUMP JUMPDEST PUSH2 0xB4D DUP1 PUSH2 0x11F1 DUP4 CODECOPY ADD SWAP1 JUMP JUMPDEST PUSH1 0x0 DUP2 MLOAD SWAP1 POP PUSH2 0xAA2 DUP2 PUSH2 0x11AB JUMP JUMPDEST SWAP3 SWAP2 POP POP JUMP JUMPDEST PUSH1 0x0 DUP2 MLOAD SWAP1 POP PUSH2 0xAB7 DUP2 PUSH2 0x11C2 JUMP JUMPDEST SWAP3 SWAP2 POP POP JUMP JUMPDEST PUSH1 0x0 DUP2 MLOAD SWAP1 POP PUSH2 0xACC DUP2 PUSH2 0x11D9 JUMP JUMPDEST SWAP3 SWAP2 POP POP JUMP JUMPDEST PUSH1 0x0 PUSH1 0x20 DUP3 DUP5 SUB SLT ISZERO PUSH2 0xAE8 JUMPI PUSH2 0xAE7 PUSH2 0x1087 JUMP JUMPDEST JUMPDEST PUSH1 0x0 PUSH2 0xAF6 DUP5 DUP3 DUP6 ADD PUSH2 0xA93 JUMP JUMPDEST SWAP2 POP POP SWAP3 SWAP2 POP POP JUMP JUMPDEST PUSH1 0x0 PUSH1 0x20 DUP3 DUP5 SUB SLT ISZERO PUSH2 0xB15 JUMPI PUSH2 0xB14 PUSH2 0x1087 JUMP JUMPDEST JUMPDEST PUSH1 0x0 PUSH2 0xB23 DUP5 DUP3 DUP6 ADD PUSH2 0xAA8 JUMP JUMPDEST SWAP2 POP POP SWAP3 SWAP2 POP POP JUMP JUMPDEST PUSH1 0x0 PUSH1 0x20 DUP3 DUP5 SUB SLT ISZERO PUSH2 0xB42 JUMPI PUSH2 0xB41 PUSH2 0x1087 JUMP JUMPDEST JUMPDEST PUSH1 0x0 PUSH2 0xB50 DUP5 DUP3 DUP6 ADD PUSH2 0xABD JUMP JUMPDEST SWAP2 POP POP SWAP3 SWAP2 POP POP JUMP JUMPDEST PUSH2 0xB62 DUP2 PUSH2 0xFBF JUMP JUMPDEST DUP3 MSTORE POP POP JUMP JUMPDEST PUSH2 0xB71 DUP2 PUSH2 0xFD3 JUMP JUMPDEST DUP3 MSTORE POP POP JUMP JUMPDEST PUSH2 0xB80 DUP2 PUSH2 0xFE5 JUMP JUMPDEST DUP3 MSTORE POP POP JUMP JUMPDEST PUSH2 0xB8F DUP2 PUSH2 0xFF7 JUMP JUMPDEST DUP3 MSTORE POP POP JUMP JUMPDEST PUSH2 0xB9E DUP2 PUSH2 0xFF7 JUMP JUMPDEST DUP3 MSTORE POP POP JUMP JUMPDEST PUSH2 0xBAD DUP2 PUSH2 0x1009 JUMP JUMPDEST DUP3 MSTORE POP POP JUMP JUMPDEST PUSH2 0xBBC DUP2 PUSH2 0x1009 JUMP JUMPDEST DUP3 MSTORE POP POP JUMP JUMPDEST PUSH2 0xBCB DUP2 PUSH2 0x101B JUMP JUMPDEST DUP3 MSTORE POP POP JUMP JUMPDEST PUSH2 0xBDA DUP2 PUSH2 0x102D JUMP JUMPDEST DUP3 MSTORE POP POP JUMP JUMPDEST PUSH2 0xBE9 DUP2 PUSH2 0x103F JUMP JUMPDEST DUP3 MSTORE POP POP JUMP JUMPDEST PUSH2 0xBF8 DUP2 PUSH2 0x1051 JUMP JUMPDEST DUP3 MSTORE POP POP JUMP JUMPDEST PUSH2 0xC07 DUP2 PUSH2 0x1063 JUMP JUMPDEST DUP3 MSTORE POP POP JUMP JUMPDEST PUSH2 0xC16 DUP2 PUSH2 0x1075 JUMP JUMPDEST DUP3 MSTORE POP POP JUMP JUMPDEST PUSH1 0x0 PUSH2 0xC29 PUSH1 0xB DUP4 PUSH2 0xF95 JUMP JUMPDEST SWAP2 POP PUSH2 0xC34 DUP3 PUSH2 0x108C JUMP JUMPDEST PUSH1 0x20 DUP3 ADD SWAP1 POP SWAP2 SWAP1 POP JUMP JUMPDEST PUSH1 0x0 PUSH2 0xC4C PUSH1 0xB DUP4 PUSH2 0xF95 JUMP JUMPDEST SWAP2 POP PUSH2 0xC57 DUP3 PUSH2 0x10B5 JUMP JUMPDEST PUSH1 0x20 DUP3 ADD SWAP1 POP SWAP2 SWAP1 POP JUMP JUMPDEST PUSH1 0x0 PUSH2 0xC6F PUSH1 0xB DUP4 PUSH2 0xF95 JUMP JUMPDEST SWAP2 POP PUSH2 0xC7A DUP3 PUSH2 0x10DE JUMP JUMPDEST PUSH1 0x20 DUP3 ADD SWAP1 POP SWAP2 SWAP1 POP JUMP JUMPDEST PUSH1 0x0 PUSH2 0xC92 PUSH1 0x14 DUP4 PUSH2 0xF95 JUMP JUMPDEST SWAP2 POP PUSH2 0xC9D DUP3 PUSH2 0x1107 JUMP JUMPDEST PUSH1 0x20 DUP3 ADD SWAP1 POP SWAP2 SWAP1 POP JUMP JUMPDEST PUSH1 0x0 PUSH2 0xCB5 PUSH1 0x11 DUP4 PUSH2 0xF95 JUMP JUMPDEST SWAP2 POP PUSH2 0xCC0 DUP3 PUSH2 0x1130 JUMP JUMPDEST PUSH1 0x20 DUP3 ADD SWAP1 POP SWAP2 SWAP1 POP JUMP JUMPDEST PUSH1 0x0 PUSH2 0xCD8 PUSH1 0x1B DUP4 PUSH2 0xF95 JUMP JUMPDEST SWAP2 POP PUSH2 0xCE3 DUP3 PUSH2 0x1159 JUMP JUMPDEST PUSH1 0x20 DUP3 ADD SWAP1 POP SWAP2 SWAP1 POP JUMP JUMPDEST PUSH1 0x0 PUSH2 0xCFB PUSH1 0x11 DUP4 PUSH2 0xF95 JUMP JUMPDEST SWAP2 POP PUSH2 0xD06 DUP3 PUSH2 0x1182 JUMP JUMPDEST PUSH1 0x20 DUP3 ADD SWAP1 POP SWAP2 SWAP1 POP JUMP JUMPDEST PUSH2 0xD1A DUP2 PUSH2 0xFC9 JUMP JUMPDEST DUP3 MSTORE POP POP JUMP JUMPDEST PUSH1 0x0 PUSH1 0x60 DUP3 ADD SWAP1 POP PUSH2 0xD35 PUSH1 0x0 DUP4 ADD DUP6 PUSH2 0xB59 JUMP JUMPDEST PUSH2 0xD42 PUSH1 0x20 DUP4 ADD DUP5 PUSH2 0xB68 JUMP JUMPDEST DUP2 DUP2 SUB PUSH1 0x40 DUP4 ADD MSTORE PUSH2 0xD53 DUP2 PUSH2 0xCEE JUMP JUMPDEST SWAP1 POP SWAP4 SWAP3 POP POP POP JUMP JUMPDEST PUSH1 0x0 PUSH1 0x60 DUP3 ADD SWAP1 POP PUSH2 0xD71 PUSH1 0x0 DUP4 ADD DUP6 PUSH2 0xB59 JUMP JUMPDEST PUSH2 0xD7E PUSH1 0x20 DUP4 ADD DUP5 PUSH2 0xB77 JUMP JUMPDEST DUP2 DUP2 SUB PUSH1 0x40 DUP4 ADD MSTORE PUSH2 0xD8F DUP2 PUSH2 0xCCB JUMP JUMPDEST SWAP1 POP SWAP4 SWAP3 POP POP POP JUMP JUMPDEST PUSH1 0x0 PUSH1 0x60 DUP3 ADD SWAP1 POP PUSH2 0xDAD PUSH1 0x0 DUP4 ADD DUP6 PUSH2 0xB59 JUMP JUMPDEST PUSH2 0xDBA PUSH1 0x20 DUP4 ADD DUP5 PUSH2 0xB95 JUMP JUMPDEST DUP2 DUP2 SUB PUSH1 0x40 DUP4 ADD MSTORE PUSH2 0xDCB DUP2 PUSH2 0xC3F JUMP JUMPDEST SWAP1 POP SWAP4 SWAP3 POP POP POP JUMP JUMPDEST PUSH1 0x0 PUSH1 0x60 DUP3 ADD SWAP1 POP PUSH2 0xDE9 PUSH1 0x0 DUP4 ADD DUP6 PUSH2 0xB59 JUMP JUMPDEST PUSH2 0xDF6 PUSH1 0x20 DUP4 ADD DUP5 PUSH2 0xB95 JUMP JUMPDEST DUP2 DUP2 SUB PUSH1 0x40 DUP4 ADD MSTORE PUSH2 0xE07 DUP2 PUSH2 0xC85 JUMP JUMPDEST SWAP1 POP SWAP4 SWAP3 POP POP POP JUMP JUMPDEST PUSH1 0x0 PUSH1 0x60 DUP3 ADD SWAP1 POP PUSH2 0xE25 PUSH1 0x0 DUP4 ADD DUP6 PUSH2 0xB59 JUMP JUMPDEST PUSH2 0xE32 PUSH1 0x20 DUP4 ADD DUP5 PUSH2 0xBC2 JUMP JUMPDEST DUP2 DUP2 SUB PUSH1 0x40 DUP4 ADD MSTORE PUSH2 0xE43 DUP2 PUSH2 0xCA8 JUMP JUMPDEST SWAP1 POP SWAP4 SWAP3 POP POP POP JUMP JUMPDEST PUSH1 0x0 PUSH1 0x20 DUP3 ADD SWAP1 POP PUSH2 0xE61 PUSH1 0x0 DUP4 ADD DUP5 PUSH2 0xB86 JUMP JUMPDEST SWAP3 SWAP2 POP POP JUMP JUMPDEST PUSH1 0x0 PUSH1 0x20 DUP3 ADD SWAP1 POP PUSH2 0xE7C PUSH1 0x0 DUP4 ADD DUP5 PUSH2 0xBA4 JUMP JUMPDEST SWAP3 SWAP2 POP POP JUMP JUMPDEST PUSH1 0x0 PUSH1 0x20 DUP3 ADD SWAP1 POP PUSH2 0xE97 PUSH1 0x0 DUP4 ADD DUP5 PUSH2 0xBE0 JUMP JUMPDEST SWAP3 SWAP2 POP POP JUMP JUMPDEST PUSH1 0x0 PUSH1 0x40 DUP3 ADD SWAP1 POP PUSH2 0xEB2 PUSH1 0x0 DUP4 ADD DUP6 PUSH2 0xBEF JUMP JUMPDEST PUSH2 0xEBF PUSH1 0x20 DUP4 ADD DUP5 PUSH2 0xB86 JUMP JUMPDEST SWAP4 SWAP3 POP POP POP JUMP JUMPDEST PUSH1 0x0 PUSH1 0x20 DUP3 ADD SWAP1 POP PUSH2 0xEDB PUSH1 0x0 DUP4 ADD DUP5 PUSH2 0xC0D JUMP JUMPDEST SWAP3 SWAP2 POP POP JUMP JUMPDEST PUSH1 0x0 PUSH1 0x60 DUP3 ADD SWAP1 POP PUSH2 0xEF6 PUSH1 0x0 DUP4 ADD DUP6 PUSH2 0xD11 JUMP JUMPDEST PUSH2 0xF03 PUSH1 0x20 DUP4 ADD DUP5 PUSH2 0xBB3 JUMP JUMPDEST DUP2 DUP2 SUB PUSH1 0x40 DUP4 ADD MSTORE PUSH2 0xF14 DUP2 PUSH2 0xC3F JUMP JUMPDEST SWAP1 POP SWAP4 SWAP3 POP POP POP JUMP JUMPDEST PUSH1 0x0 PUSH1 0x60 DUP3 ADD SWAP1 POP PUSH2 0xF32 PUSH1 0x0 DUP4 ADD DUP6 PUSH2 0xD11 JUMP JUMPDEST PUSH2 0xF3F PUSH1 0x20 DUP4 ADD DUP5 PUSH2 0xBD1 JUMP JUMPDEST DUP2 DUP2 SUB PUSH1 0x40 DUP4 ADD MSTORE PUSH2 0xF50 DUP2 PUSH2 0xC1C JUMP JUMPDEST SWAP1 POP SWAP4 SWAP3 POP POP POP JUMP JUMPDEST PUSH1 0x0 PUSH1 0x60 DUP3 ADD SWAP1 POP PUSH2 0xF6E PUSH1 0x0 DUP4 ADD DUP6 PUSH2 0xD11 JUMP JUMPDEST PUSH2 0xF7B PUSH1 0x20 DUP4 ADD DUP5 PUSH2 0xBFE JUMP JUMPDEST DUP2 DUP2 SUB PUSH1 0x40 DUP4 ADD MSTORE PUSH2 0xF8C DUP2 PUSH2 0xC62 JUMP JUMPDEST SWAP1 POP SWAP4 SWAP3 POP POP POP JUMP JUMPDEST PUSH1 0x0 DUP3 DUP3 MSTORE PUSH1 0x20 DUP3 ADD SWAP1 POP SWAP3 SWAP2 POP POP JUMP JUMPDEST PUSH1 0x0 DUP2 ISZERO ISZERO SWAP1 POP SWAP2 SWAP1 POP JUMP JUMPDEST PUSH1 0x0 DUP2 PUSH1 0xF SIGNEXTEND SWAP1 POP SWAP2 SWAP1 POP JUMP JUMPDEST PUSH1 0x0 DUP2 SWAP1 POP SWAP2 SWAP1 POP JUMP JUMPDEST PUSH1 0x0 DUP2 SWAP1 POP SWAP2 SWAP1 POP JUMP JUMPDEST PUSH1 0x0 PUSH2 0xFDE DUP3 PUSH2 0xFBF JUMP JUMPDEST SWAP1 POP SWAP2 SWAP1 POP JUMP JUMPDEST PUSH1 0x0 PUSH2 0xFF0 DUP3 PUSH2 0xFBF JUMP JUMPDEST SWAP1 POP SWAP2 SWAP1 POP JUMP JUMPDEST PUSH1 0x0 PUSH2 0x1002 DUP3 PUSH2 0xFBF JUMP JUMPDEST SWAP1 POP SWAP2 SWAP1 POP JUMP JUMPDEST PUSH1 0x0 PUSH2 0x1014 DUP3 PUSH2 0xFC9 JUMP JUMPDEST SWAP1 POP SWAP2 SWAP1 POP JUMP JUMPDEST PUSH1 0x0 PUSH2 0x1026 DUP3 PUSH2 0xFBF JUMP JUMPDEST SWAP1 POP SWAP2 SWAP1 POP JUMP JUMPDEST PUSH1 0x0 PUSH2 0x1038 DUP3 PUSH2 0xFC9 JUMP JUMPDEST SWAP1 POP SWAP2 SWAP1 POP JUMP JUMPDEST PUSH1 0x0 PUSH2 0x104A DUP3 PUSH2 0xFB2 JUMP JUMPDEST SWAP1 POP SWAP2 SWAP1 POP JUMP JUMPDEST PUSH1 0x0 PUSH2 0x105C DUP3 PUSH2 0xFBF JUMP JUMPDEST SWAP1 POP SWAP2 SWAP1 POP JUMP JUMPDEST PUSH1 0x0 PUSH2 0x106E DUP3 PUSH2 0xFC9 JUMP JUMPDEST SWAP1 POP SWAP2 SWAP1 POP JUMP JUMPDEST PUSH1 0x0 PUSH2 0x1080 DUP3 PUSH2 0xFBF JUMP JUMPDEST SWAP1 POP SWAP2 SWAP1 POP JUMP JUMPDEST PUSH1 0x0 DUP1 REVERT JUMPDEST PUSH32 0x73686F756C642062652036000000000000000000000000000000000000000000 PUSH1 0x0 DUP3 ADD MSTORE POP JUMP JUMPDEST PUSH32 0x73686F756C642062652033000000000000000000000000000000000000000000 PUSH1 0x0 DUP3 ADD MSTORE POP JUMP JUMPDEST PUSH32 0x73686F756C642062652039000000000000000000000000000000000000000000 PUSH1 0x0 DUP3 ADD MSTORE POP JUMP JUMPDEST PUSH32 0x6469766973696F6E2073686F756C642062652033000000000000000000000000 PUSH1 0x0 DUP3 ADD MSTORE POP JUMP JUMPDEST PUSH32 0x72657374612073686F756C642062652036000000000000000000000000000000 PUSH1 0x0 DUP3 ADD MSTORE POP JUMP JUMPDEST PUSH32 0x6D756C7469706C69636163696F6E2073686F756C642062652032370000000000 PUSH1 0x0 DUP3 ADD MSTORE POP JUMP JUMPDEST PUSH32 0x73756D612073686F756C64206265203132000000000000000000000000000000 PUSH1 0x0 DUP3 ADD MSTORE POP JUMP JUMPDEST PUSH2 0x11B4 DUP2 PUSH2 0xFA6 JUMP JUMPDEST DUP2 EQ PUSH2 0x11BF JUMPI PUSH1 0x0 DUP1 REVERT JUMPDEST POP JUMP JUMPDEST PUSH2 0x11CB DUP2 PUSH2 0xFBF JUMP JUMPDEST DUP2 EQ PUSH2 0x11D6 JUMPI PUSH1 0x0 DUP1 REVERT JUMPDEST POP JUMP JUMPDEST PUSH2 0x11E2 DUP2 PUSH2 0xFC9 JUMP JUMPDEST DUP2 EQ PUSH2 0x11ED JUMPI PUSH1 0x0 DUP1 REVERT JUMPDEST POP JUMP INVALID PUSH1 0x80 PUSH1 0x40 MSTORE CALLVALUE DUP1 ISZERO PUSH2 0x10 JUMPI PUSH1 0x0 DUP1 REVERT JUMPDEST POP PUSH2 0xB2D DUP1 PUSH2 0x20 PUSH1 0x0 CODECOPY PUSH1 0x0 RETURN INVALID PUSH1 0x80 PUSH1 0x40 MSTORE CALLVALUE DUP1 ISZERO PUSH2 0x10 JUMPI PUSH1 0x0 DUP1 REVERT JUMPDEST POP PUSH1 0x4 CALLDATASIZE LT PUSH2 0x88 JUMPI PUSH1 0x0 CALLDATALOAD PUSH1 0xE0 SHR DUP1 PUSH4 0x7EA9E058 GT PUSH2 0x5B JUMPI DUP1 PUSH4 0x7EA9E058 EQ PUSH2 0x14D JUMPI DUP1 PUSH4 0x83714834 EQ PUSH2 0x17D JUMPI DUP1 PUSH4 0x8F8A0D19 EQ PUSH2 0x1AD JUMPI DUP1 PUSH4 0xB8501073 EQ PUSH2 0x1DD JUMPI PUSH2 0x88 JUMP JUMPDEST DUP1 PUSH4 0x9B7CDDA EQ PUSH2 0x8D JUMPI DUP1 PUSH4 0x187983BF EQ PUSH2 0xBD JUMPI DUP1 PUSH4 0x4C627BAD EQ PUSH2 0xED JUMPI DUP1 PUSH4 0x7D825142 EQ PUSH2 0x11D JUMPI JUMPDEST PUSH1 0x0 DUP1 REVERT JUMPDEST PUSH2 0xA7 PUSH1 0x4 DUP1 CALLDATASIZE SUB DUP2 ADD SWAP1 PUSH2 0xA2 SWAP2 SWAP1 PUSH2 0x566 JUMP JUMPDEST PUSH2 0x20D JUMP JUMPDEST PUSH1 0x40 MLOAD PUSH2 0xB4 SWAP2 SWAP1 PUSH2 0x5F1 JUMP JUMPDEST PUSH1 0x40 MLOAD DUP1 SWAP2 SUB SWAP1 RETURN JUMPDEST PUSH2 0xD7 PUSH1 0x4 DUP1 CALLDATASIZE SUB DUP2 ADD SWAP1 PUSH2 0xD2 SWAP2 SWAP1 PUSH2 0x566 JUMP JUMPDEST PUSH2 0x22A JUMP JUMPDEST PUSH1 0x40 MLOAD PUSH2 0xE4 SWAP2 SWAP1 PUSH2 0x5F1 JUMP JUMPDEST PUSH1 0x40 MLOAD DUP1 SWAP2 SUB SWAP1 RETURN JUMPDEST PUSH2 0x107 PUSH1 0x4 DUP1 CALLDATASIZE SUB DUP2 ADD SWAP1 PUSH2 0x102 SWAP2 SWAP1 PUSH2 0x566 JUMP JUMPDEST PUSH2 0x247 JUMP JUMPDEST PUSH1 0x40 MLOAD PUSH2 0x114 SWAP2 SWAP1 PUSH2 0x5F1 JUMP JUMPDEST PUSH1 0x40 MLOAD DUP1 SWAP2 SUB SWAP1 RETURN JUMPDEST PUSH2 0x137 PUSH1 0x4 DUP1 CALLDATASIZE SUB DUP2 ADD SWAP1 PUSH2 0x132 SWAP2 SWAP1 PUSH2 0x539 JUMP JUMPDEST PUSH2 0x264 JUMP JUMPDEST PUSH1 0x40 MLOAD PUSH2 0x144 SWAP2 SWAP1 PUSH2 0x60C JUMP JUMPDEST PUSH1 0x40 MLOAD DUP1 SWAP2 SUB SWAP1 RETURN JUMPDEST PUSH2 0x167 PUSH1 0x4 DUP1 CALLDATASIZE SUB DUP2 ADD SWAP1 PUSH2 0x162 SWAP2 SWAP1 PUSH2 0x539 JUMP JUMPDEST PUSH2 0x276 JUMP JUMPDEST PUSH1 0x40 MLOAD PUSH2 0x174 SWAP2 SWAP1 PUSH2 0x60C JUMP JUMPDEST PUSH1 0x40 MLOAD DUP1 SWAP2 SUB SWAP1 RETURN JUMPDEST PUSH2 0x197 PUSH1 0x4 DUP1 CALLDATASIZE SUB DUP2 ADD SWAP1 PUSH2 0x192 SWAP2 SWAP1 PUSH2 0x5A6 JUMP JUMPDEST PUSH2 0x288 JUMP JUMPDEST PUSH1 0x40 MLOAD PUSH2 0x1A4 SWAP2 SWAP1 PUSH2 0x60C JUMP JUMPDEST PUSH1 0x40 MLOAD DUP1 SWAP2 SUB SWAP1 RETURN JUMPDEST PUSH2 0x1C7 PUSH1 0x4 DUP1 CALLDATASIZE SUB DUP2 ADD SWAP1 PUSH2 0x1C2 SWAP2 SWAP1 PUSH2 0x566 JUMP JUMPDEST PUSH2 0x29A JUMP JUMPDEST PUSH1 0x40 MLOAD PUSH2 0x1D4 SWAP2 SWAP1 PUSH2 0x5F1 JUMP JUMPDEST PUSH1 0x40 MLOAD DUP1 SWAP2 SUB SWAP1 RETURN JUMPDEST PUSH2 0x1F7 PUSH1 0x4 DUP1 CALLDATASIZE SUB DUP2 ADD SWAP1 PUSH2 0x1F2 SWAP2 SWAP1 PUSH2 0x50C JUMP JUMPDEST PUSH2 0x2B7 JUMP JUMPDEST PUSH1 0x40 MLOAD PUSH2 0x204 SWAP2 SWAP1 PUSH2 0x5F1 JUMP JUMPDEST PUSH1 0x40 MLOAD DUP1 SWAP2 SUB SWAP1 RETURN JUMPDEST PUSH1 0x0 PUSH2 0x222 DUP3 DUP5 PUSH2 0x2CF SWAP1 SWAP2 SWAP1 PUSH4 0xFFFFFFFF AND JUMP JUMPDEST SWAP1 POP SWAP3 SWAP2 POP POP JUMP JUMPDEST PUSH1 0x0 PUSH2 0x23F DUP3 DUP5 PUSH2 0x2E5 SWAP1 SWAP2 SWAP1 PUSH4 0xFFFFFFFF AND JUMP JUMPDEST SWAP1 POP SWAP3 SWAP2 POP POP JUMP JUMPDEST PUSH1 0x0 PUSH2 0x25C DUP3 DUP5 PUSH2 0x2FB SWAP1 SWAP2 SWAP1 PUSH4 0xFFFFFFFF AND JUMP JUMPDEST SWAP1 POP SWAP3 SWAP2 POP POP JUMP JUMPDEST PUSH1 0x0 PUSH2 0x26F DUP3 PUSH2 0x311 JUMP JUMPDEST SWAP1 POP SWAP2 SWAP1 POP JUMP JUMPDEST PUSH1 0x0 PUSH2 0x281 DUP3 PUSH2 0x335 JUMP JUMPDEST SWAP1 POP SWAP2 SWAP1 POP JUMP JUMPDEST PUSH1 0x0 PUSH2 0x293 DUP3 PUSH2 0x34A JUMP JUMPDEST SWAP1 POP SWAP2 SWAP1 POP JUMP JUMPDEST PUSH1 0x0 PUSH2 0x2AF DUP3 DUP5 PUSH2 0x385 SWAP1 SWAP2 SWAP1 PUSH4 0xFFFFFFFF AND JUMP JUMPDEST SWAP1 POP SWAP3 SWAP2 POP POP JUMP JUMPDEST PUSH1 0x0 PUSH2 0x2C5 DUP3 PUSH1 0xF SIGNEXTEND PUSH2 0x39B JUMP JUMPDEST PUSH1 0xF SIGNEXTEND SWAP1 POP SWAP2 SWAP1 POP JUMP JUMPDEST PUSH1 0x0 DUP2 DUP4 PUSH2 0x2DD SWAP2 SWAP1 PUSH2 0x711 JUMP JUMPDEST SWAP1 POP SWAP3 SWAP2 POP POP JUMP JUMPDEST PUSH1 0x0 DUP2 DUP4 PUSH2 0x2F3 SWAP2 SWAP1 PUSH2 0x7AC JUMP JUMPDEST SWAP1 POP SWAP3 SWAP2 POP POP JUMP JUMPDEST PUSH1 0x0 DUP2 DUP4 PUSH2 0x309 SWAP2 SWAP1 PUSH2 0x91D JUMP JUMPDEST SWAP1 POP SWAP3 SWAP2 POP POP JUMP JUMPDEST PUSH1 0x0 DUP1 DUP3 SGT ISZERO PUSH2 0x323 JUMPI DUP2 SWAP1 POP PUSH2 0x330 JUMP JUMPDEST DUP2 PUSH2 0x32D SWAP1 PUSH2 0xA06 JUMP JUMPDEST SWAP1 POP JUMPDEST SWAP2 SWAP1 POP JUMP JUMPDEST PUSH1 0x0 DUP2 DUP3 PUSH2 0x343 SWAP2 SWAP1 PUSH2 0x7AC JUMP JUMPDEST SWAP1 POP SWAP2 SWAP1 POP JUMP JUMPDEST PUSH1 0x0 PUSH1 0x1 DUP3 GT PUSH2 0x35D JUMPI PUSH1 0x1 SWAP1 POP PUSH2 0x380 JUMP JUMPDEST PUSH2 0x372 PUSH1 0x1 DUP4 PUSH2 0x36D SWAP2 SWAP1 PUSH2 0x9B1 JUMP JUMPDEST PUSH2 0x34A JUMP JUMPDEST DUP3 PUSH2 0x37D SWAP2 SWAP1 PUSH2 0x8C3 JUMP JUMPDEST SWAP1 POP JUMPDEST SWAP2 SWAP1 POP JUMP JUMPDEST PUSH1 0x0 DUP2 DUP4 PUSH2 0x393 SWAP2 SWAP1 PUSH2 0x627 JUMP JUMPDEST SWAP1 POP SWAP3 SWAP2 POP POP JUMP JUMPDEST PUSH1 0x0 DUP1 DUP3 PUSH1 0xF SIGNEXTEND SLT ISZERO PUSH2 0x3AD JUMPI PUSH1 0x0 DUP1 REVERT JUMPDEST PUSH2 0x3B9 DUP3 PUSH1 0xF SIGNEXTEND PUSH2 0x3C0 JUMP JUMPDEST SWAP1 POP SWAP2 SWAP1 POP JUMP JUMPDEST PUSH1 0x0 DUP1 DUP3 LT ISZERO PUSH2 0x3CF JUMPI PUSH1 0x0 DUP1 REVERT JUMPDEST PUSH1 0x0 DUP3 EQ ISZERO PUSH2 0x3E1 JUMPI PUSH1 0x0 SWAP1 POP PUSH2 0x4C8 JUMP JUMPDEST PUSH1 0x0 PUSH1 0x1 SWAP1 POP PUSH1 0x2 DUP2 DUP5 PUSH2 0x3F5 SWAP2 SWAP1 PUSH2 0x77B JUMP JUMPDEST DUP3 PUSH2 0x400 SWAP2 SWAP1 PUSH2 0x6BB JUMP JUMPDEST PUSH2 0x40A SWAP2 SWAP1 PUSH2 0x77B JUMP JUMPDEST SWAP1 POP PUSH1 0x2 DUP2 DUP5 PUSH2 0x41A SWAP2 SWAP1 PUSH2 0x77B JUMP JUMPDEST DUP3 PUSH2 0x425 SWAP2 SWAP1 PUSH2 0x6BB JUMP JUMPDEST PUSH2 0x42F SWAP2 SWAP1 PUSH2 0x77B JUMP JUMPDEST SWAP1 POP PUSH1 0x2 DUP2 DUP5 PUSH2 0x43F SWAP2 SWAP1 PUSH2 0x77B JUMP JUMPDEST DUP3 PUSH2 0x44A SWAP2 SWAP1 PUSH2 0x6BB JUMP JUMPDEST PUSH2 0x454 SWAP2 SWAP1 PUSH2 0x77B JUMP JUMPDEST SWAP1 POP PUSH1 0x2 DUP2 DUP5 PUSH2 0x464 SWAP2 SWAP1 PUSH2 0x77B JUMP JUMPDEST DUP3 PUSH2 0x46F SWAP2 SWAP1 PUSH2 0x6BB JUMP JUMPDEST PUSH2 0x479 SWAP2 SWAP1 PUSH2 0x77B JUMP JUMPDEST SWAP1 POP PUSH1 0x2 DUP2 DUP5 PUSH2 0x489 SWAP2 SWAP1 PUSH2 0x77B JUMP JUMPDEST DUP3 PUSH2 0x494 SWAP2 SWAP1 PUSH2 0x6BB JUMP JUMPDEST PUSH2 0x49E SWAP2 SWAP1 PUSH2 0x77B JUMP JUMPDEST SWAP1 POP PUSH1 0x0 DUP2 DUP5 PUSH2 0x4AE SWAP2 SWAP1 PUSH2 0x77B JUMP JUMPDEST SWAP1 POP DUP1 DUP3 LT ISZERO PUSH2 0x4C2 JUMPI DUP2 SWAP3 POP POP POP PUSH2 0x4C8 JUMP JUMPDEST DUP1 SWAP3 POP POP POP JUMPDEST SWAP2 SWAP1 POP JUMP JUMPDEST PUSH1 0x0 DUP2 CALLDATALOAD SWAP1 POP PUSH2 0x4DC DUP2 PUSH2 0xAB2 JUMP JUMPDEST SWAP3 SWAP2 POP POP JUMP JUMPDEST PUSH1 0x0 DUP2 CALLDATALOAD SWAP1 POP PUSH2 0x4F1 DUP2 PUSH2 0xAC9 JUMP JUMPDEST SWAP3 SWAP2 POP POP JUMP JUMPDEST PUSH1 0x0 DUP2 CALLDATALOAD SWAP1 POP PUSH2 0x506 DUP2 PUSH2 0xAE0 JUMP JUMPDEST SWAP3 SWAP2 POP POP JUMP JUMPDEST PUSH1 0x0 PUSH1 0x20 DUP3 DUP5 SUB SLT ISZERO PUSH2 0x522 JUMPI PUSH2 0x521 PUSH2 0xAAD JUMP JUMPDEST JUMPDEST PUSH1 0x0 PUSH2 0x530 DUP5 DUP3 DUP6 ADD PUSH2 0x4CD JUMP JUMPDEST SWAP2 POP POP SWAP3 SWAP2 POP POP JUMP JUMPDEST PUSH1 0x0 PUSH1 0x20 DUP3 DUP5 SUB SLT ISZERO PUSH2 0x54F JUMPI PUSH2 0x54E PUSH2 0xAAD JUMP JUMPDEST JUMPDEST PUSH1 0x0 PUSH2 0x55D DUP5 DUP3 DUP6 ADD PUSH2 0x4E2 JUMP JUMPDEST SWAP2 POP POP SWAP3 SWAP2 POP POP JUMP JUMPDEST PUSH1 0x0 DUP1 PUSH1 0x40 DUP4 DUP6 SUB SLT ISZERO PUSH2 0x57D JUMPI PUSH2 0x57C PUSH2 0xAAD JUMP JUMPDEST JUMPDEST PUSH1 0x0 PUSH2 0x58B DUP6 DUP3 DUP7 ADD PUSH2 0x4E2 JUMP JUMPDEST SWAP3 POP POP PUSH1 0x20 PUSH2 0x59C DUP6 DUP3 DUP7 ADD PUSH2 0x4E2 JUMP JUMPDEST SWAP2 POP POP SWAP3 POP SWAP3 SWAP1 POP JUMP JUMPDEST PUSH1 0x0 PUSH1 0x20 DUP3 DUP5 SUB SLT ISZERO PUSH2 0x5BC JUMPI PUSH2 0x5BB PUSH2 0xAAD JUMP JUMPDEST JUMPDEST PUSH1 0x0 PUSH2 0x5CA DUP5 DUP3 DUP6 ADD PUSH2 0x4F7 JUMP JUMPDEST SWAP2 POP POP SWAP3 SWAP2 POP POP JUMP JUMPDEST PUSH2 0x5DC DUP2 PUSH2 0x9F2 JUMP JUMPDEST DUP3 MSTORE POP POP JUMP JUMPDEST PUSH2 0x5EB DUP2 PUSH2 0x9FC JUMP JUMPDEST DUP3 MSTORE POP POP JUMP JUMPDEST PUSH1 0x0 PUSH1 0x20 DUP3 ADD SWAP1 POP PUSH2 0x606 PUSH1 0x0 DUP4 ADD DUP5 PUSH2 0x5D3 JUMP JUMPDEST SWAP3 SWAP2 POP POP JUMP JUMPDEST PUSH1 0x0 PUSH1 0x20 DUP3 ADD SWAP1 POP PUSH2 0x621 PUSH1 0x0 DUP4 ADD DUP5 PUSH2 0x5E2 JUMP JUMPDEST SWAP3 SWAP2 POP POP JUMP JUMPDEST PUSH1 0x0 PUSH2 0x632 DUP3 PUSH2 0x9F2 JUMP JUMPDEST SWAP2 POP PUSH2 0x63D DUP4 PUSH2 0x9F2 JUMP JUMPDEST SWAP3 POP DUP2 PUSH32 0x7FFFFFFFFFFFFFFFFFFFFFFFFFFFFFFFFFFFFFFFFFFFFFFFFFFFFFFFFFFFFFFF SUB DUP4 SGT PUSH1 0x0 DUP4 SLT ISZERO AND ISZERO PUSH2 0x678 JUMPI PUSH2 0x677 PUSH2 0xA4F JUMP JUMPDEST JUMPDEST DUP2 PUSH32 0x8000000000000000000000000000000000000000000000000000000000000000 SUB DUP4 SLT PUSH1 0x0 DUP4 SLT AND ISZERO PUSH2 0x6B0 JUMPI PUSH2 0x6AF PUSH2 0xA4F JUMP JUMPDEST JUMPDEST DUP3 DUP3 ADD SWAP1 POP SWAP3 SWAP2 POP POP JUMP JUMPDEST PUSH1 0x0 PUSH2 0x6C6 DUP3 PUSH2 0x9FC JUMP JUMPDEST SWAP2 POP PUSH2 0x6D1 DUP4 PUSH2 0x9FC JUMP JUMPDEST SWAP3 POP DUP3 PUSH32 0xFFFFFFFFFFFFFFFFFFFFFFFFFFFFFFFFFFFFFFFFFFFFFFFFFFFFFFFFFFFFFFFF SUB DUP3 GT ISZERO PUSH2 0x706 JUMPI PUSH2 0x705 PUSH2 0xA4F JUMP JUMPDEST JUMPDEST DUP3 DUP3 ADD SWAP1 POP SWAP3 SWAP2 POP POP JUMP JUMPDEST PUSH1 0x0 PUSH2 0x71C DUP3 PUSH2 0x9F2 JUMP JUMPDEST SWAP2 POP PUSH2 0x727 DUP4 PUSH2 0x9F2 JUMP JUMPDEST SWAP3 POP DUP3 PUSH2 0x737 JUMPI PUSH2 0x736 PUSH2 0xA7E JUMP JUMPDEST JUMPDEST PUSH1 0x1 PUSH1 0x0 SUB DUP4 EQ PUSH32 0x8000000000000000000000000000000000000000000000000000000000000000 DUP4 EQ AND ISZERO PUSH2 0x770 JUMPI PUSH2 0x76F PUSH2 0xA4F JUMP JUMPDEST JUMPDEST DUP3 DUP3 SDIV SWAP1 POP SWAP3 SWAP2 POP POP JUMP JUMPDEST PUSH1 0x0 PUSH2 0x786 DUP3 PUSH2 0x9FC JUMP JUMPDEST SWAP2 POP PUSH2 0x791 DUP4 PUSH2 0x9FC JUMP JUMPDEST SWAP3 POP DUP3 PUSH2 0x7A1 JUMPI PUSH2 0x7A0 PUSH2 0xA7E JUMP JUMPDEST JUMPDEST DUP3 DUP3 DIV SWAP1 POP SWAP3 SWAP2 POP POP JUMP JUMPDEST PUSH1 0x0 PUSH2 0x7B7 DUP3 PUSH2 0x9F2 JUMP JUMPDEST SWAP2 POP PUSH2 0x7C2 DUP4 PUSH2 0x9F2 JUMP JUMPDEST SWAP3 POP DUP3 PUSH32 0x7FFFFFFFFFFFFFFFFFFFFFFFFFFFFFFFFFFFFFFFFFFFFFFFFFFFFFFFFFFFFFFF DIV DUP3 GT PUSH1 0x0 DUP5 SGT PUSH1 0x0 DUP5 SGT AND AND ISZERO PUSH2 0x801 JUMPI PUSH2 0x800 PUSH2 0xA4F JUMP JUMPDEST JUMPDEST DUP2 PUSH32 0x8000000000000000000000000000000000000000000000000000000000000000 SDIV DUP4 SLT PUSH1 0x0 DUP5 SLT PUSH1 0x0 DUP5 SGT AND AND ISZERO PUSH2 0x83E JUMPI PUSH2 0x83D PUSH2 0xA4F JUMP JUMPDEST JUMPDEST DUP3 PUSH32 0x8000000000000000000000000000000000000000000000000000000000000000 SDIV DUP3 SLT PUSH1 0x0 DUP5 SGT PUSH1 0x0 DUP5 SLT AND AND ISZERO PUSH2 0x87B JUMPI PUSH2 0x87A PUSH2 0xA4F JUMP JUMPDEST JUMPDEST DUP3 PUSH32 0x7FFFFFFFFFFFFFFFFFFFFFFFFFFFFFFFFFFFFFFFFFFFFFFFFFFFFFFFFFFFFFFF SDIV DUP3 SLT PUSH1 0x0 DUP5 SLT PUSH1 0x0 DUP5 SLT AND AND ISZERO PUSH2 0x8B8 JUMPI PUSH2 0x8B7 PUSH2 0xA4F JUMP JUMPDEST JUMPDEST DUP3 DUP3 MUL SWAP1 POP SWAP3 SWAP2 POP POP JUMP JUMPDEST PUSH1 0x0 PUSH2 0x8CE DUP3 PUSH2 0x9FC JUMP JUMPDEST SWAP2 POP PUSH2 0x8D9 DUP4 PUSH2 0x9FC JUMP JUMPDEST SWAP3 POP DUP2 PUSH32 0xFFFFFFFFFFFFFFFFFFFFFFFFFFFFFFFFFFFFFFFFFFFFFFFFFFFFFFFFFFFFFFFF DIV DUP4 GT DUP3 ISZERO ISZERO AND ISZERO PUSH2 0x912 JUMPI PUSH2 0x911 PUSH2 0xA4F JUMP JUMPDEST JUMPDEST DUP3 DUP3 MUL SWAP1 POP SWAP3 SWAP2 POP POP JUMP JUMPDEST PUSH1 0x0 PUSH2 0x928 DUP3 PUSH2 0x9F2 JUMP JUMPDEST SWAP2 POP PUSH2 0x933 DUP4 PUSH2 0x9F2 JUMP JUMPDEST SWAP3 POP DUP3 PUSH32 0x8000000000000000000000000000000000000000000000000000000000000000 ADD DUP3 SLT PUSH1 0x0 DUP5 SLT ISZERO AND ISZERO PUSH2 0x96E JUMPI PUSH2 0x96D PUSH2 0xA4F JUMP JUMPDEST JUMPDEST DUP3 PUSH32 0x7FFFFFFFFFFFFFFFFFFFFFFFFFFFFFFFFFFFFFFFFFFFFFFFFFFFFFFFFFFFFFFF ADD DUP3 SGT PUSH1 0x0 DUP5 SLT AND ISZERO PUSH2 0x9A6 JUMPI PUSH2 0x9A5 PUSH2 0xA4F JUMP JUMPDEST JUMPDEST DUP3 DUP3 SUB SWAP1 POP SWAP3 SWAP2 POP POP JUMP JUMPDEST PUSH1 0x0 PUSH2 0x9BC DUP3 PUSH2 0x9FC JUMP JUMPDEST SWAP2 POP PUSH2 0x9C7 DUP4 PUSH2 0x9FC JUMP JUMPDEST SWAP3 POP DUP3 DUP3 LT ISZERO PUSH2 0x9DA JUMPI PUSH2 0x9D9 PUSH2 0xA4F JUMP JUMPDEST JUMPDEST DUP3 DUP3 SUB SWAP1 POP SWAP3 SWAP2 POP POP JUMP JUMPDEST PUSH1 0x0 DUP2 PUSH1 0xF SIGNEXTEND SWAP1 POP SWAP2 SWAP1 POP JUMP JUMPDEST PUSH1 0x0 DUP2 SWAP1 POP SWAP2 SWAP1 POP JUMP JUMPDEST PUSH1 0x0 DUP2 SWAP1 POP SWAP2 SWAP1 POP JUMP JUMPDEST PUSH1 0x0 PUSH2 0xA11 DUP3 PUSH2 0x9F2 JUMP JUMPDEST SWAP2 POP PUSH32 0x8000000000000000000000000000000000000000000000000000000000000000 DUP3 EQ ISZERO PUSH2 0xA44 JUMPI PUSH2 0xA43 PUSH2 0xA4F JUMP JUMPDEST JUMPDEST DUP2 PUSH1 0x0 SUB SWAP1 POP SWAP2 SWAP1 POP JUMP JUMPDEST PUSH32 0x4E487B7100000000000000000000000000000000000000000000000000000000 PUSH1 0x0 MSTORE PUSH1 0x11 PUSH1 0x4 MSTORE PUSH1 0x24 PUSH1 0x0 REVERT JUMPDEST PUSH32 0x4E487B7100000000000000000000000000000000000000000000000000000000 PUSH1 0x0 MSTORE PUSH1 0x12 PUSH1 0x4 MSTORE PUSH1 0x24 PUSH1 0x0 REVERT JUMPDEST PUSH1 0x0 DUP1 REVERT JUMPDEST PUSH2 0xABB DUP2 PUSH2 0x9E5 JUMP JUMPDEST DUP2 EQ PUSH2 0xAC6 JUMPI PUSH1 0x0 DUP1 REVERT JUMPDEST POP JUMP JUMPDEST PUSH2 0xAD2 DUP2 PUSH2 0x9F2 JUMP JUMPDEST DUP2 EQ PUSH2 0xADD JUMPI PUSH1 0x0 DUP1 REVERT JUMPDEST POP JUMP JUMPDEST PUSH2 0xAE9 DUP2 PUSH2 0x9FC JUMP JUMPDEST DUP2 EQ PUSH2 0xAF4 JUMPI PUSH1 0x0 DUP1 REVERT JUMPDEST POP JUMP INVALID LOG2 PUSH5 0x6970667358 0x22 SLT KECCAK256 0xAE 0xE8 0xBE POP TIMESTAMP ADDMOD 0xB2 SLT 0xDD 0xBD 0x5F 0x5F 0xD3 0xE6 DUP13 SWAP12 0xAD ISZERO MLOAD 0x5E PUSH30 0xD80849D721940C8250A99164736F6C63430008070033A264697066735822 SLT KECCAK256 LOG4 0x2F DUP4 0xE2 CALLCODE PUSH20 0xCABB95AC6C5D1F1FFF03B7F73BF2D952303F7F2E SELFDESTRUCT 0xCF REVERT 0xAD 0xCB DUP14 PUSH5 0x736F6C6343 STOP ADDMOD SMOD STOP CALLER "
				},
				"gasEstimates": {
					"creation": {
						"codeDepositCost": "1507800",
						"executionCost": "1575",
						"totalCost": "1509375"
					},
					"external": {
						"beforeAll()": "infinite",
						"checkSuccess()": "infinite"
					}
				},
				"methodIdentifiers": {
					"beforeAll()": "7fea0d4b",
					"checkSuccess()": "011e6492"
				}
			},
			"storageLayout": {
				"storage": [
					{
						"astId": 120,
						"contract": "localhost/Documents/GitHub/SOLIDITY-REMIX/5ef069451e67668750287d64bc5f8bae/calculadora_test.sol:TestCalc",
						"label": "calc",
						"offset": 0,
						"slot": "0",
						"type": "t_contract(Calculadora)113"
					}
				],
				"types": {
					"t_contract(Calculadora)113": {
						"encoding": "inplace",
						"label": "contract Calculadora",
						"numberOfBytes": "20"
					}
				}
			},
			"userdoc": {
				"kind": "user",
				"methods": {
					"beforeAll()": {
						"notice": "'beforeAll' runs before all other tests More special functions are: 'beforeEach', 'beforeAll', 'afterEach' & 'afterAll'"
					}
				},
				"version": 1
			}
		}
	}
}