{
	"Documents/GitHub/SOLIDITY-REMIX/5ef069451e67668750287d64bc5f8bae/calculadora_test.sol": {
		"TestCalc": {
			"abi": [
				{
					"inputs": [],
					"name": "beforeAll",
					"outputs": [],
					"stateMutability": "nonpayable",
					"type": "function"
				},
				{
					"inputs": [],
					"name": "checkFailure",
					"outputs": [],
					"stateMutability": "nonpayable",
					"type": "function"
				},
				{
					"inputs": [],
					"name": "checkSuccess",
					"outputs": [],
					"stateMutability": "nonpayable",
					"type": "function"
				},
				{
					"inputs": [],
					"name": "checkSuccess2",
					"outputs": [
						{
							"internalType": "bool",
							"name": "",
							"type": "bool"
						}
					],
					"stateMutability": "pure",
					"type": "function"
				}
			],
			"devdoc": {
				"kind": "dev",
				"methods": {},
				"version": 1
			},
			"evm": {
				"assembly": "    /* \"Documents/GitHub/SOLIDITY-REMIX/5ef069451e67668750287d64bc5f8bae/calculadora_test.sol\":294:1487  contract TestCalc {\r... */\n  mstore(0x40, 0x80)\n  callvalue\n  dup1\n  iszero\n  tag_1\n  jumpi\n  0x00\n  dup1\n  revert\ntag_1:\n  pop\n  dataSize(sub_0)\n  dup1\n  dataOffset(sub_0)\n  0x00\n  codecopy\n  0x00\n  return\nstop\n\nsub_0: assembly {\n        /* \"Documents/GitHub/SOLIDITY-REMIX/5ef069451e67668750287d64bc5f8bae/calculadora_test.sol\":294:1487  contract TestCalc {\r... */\n      mstore(0x40, 0x80)\n      callvalue\n      dup1\n      iszero\n      tag_1\n      jumpi\n      0x00\n      dup1\n      revert\n    tag_1:\n      pop\n      jumpi(tag_2, lt(calldatasize, 0x04))\n      shr(0xe0, calldataload(0x00))\n      dup1\n      0x011e6492\n      eq\n      tag_3\n      jumpi\n      dup1\n      0x12d487ea\n      eq\n      tag_4\n      jumpi\n      dup1\n      0x36c00656\n      eq\n      tag_5\n      jumpi\n      dup1\n      0x7fea0d4b\n      eq\n      tag_6\n      jumpi\n    tag_2:\n      0x00\n      dup1\n      revert\n        /* \"Documents/GitHub/SOLIDITY-REMIX/5ef069451e67668750287d64bc5f8bae/calculadora_test.sol\":596:1197  function checkSuccess() public {\r... */\n    tag_3:\n      tag_7\n      tag_8\n      jump\t// in\n    tag_7:\n      stop\n        /* \"Documents/GitHub/SOLIDITY-REMIX/5ef069451e67668750287d64bc5f8bae/calculadora_test.sol\":1205:1357  function checkSuccess2() public pure returns (bool) {\r... */\n    tag_4:\n      tag_9\n      tag_10\n      jump\t// in\n    tag_9:\n      mload(0x40)\n      tag_11\n      swap2\n      swap1\n      tag_12\n      jump\t// in\n    tag_11:\n      mload(0x40)\n      dup1\n      swap2\n      sub\n      swap1\n      return\n        /* \"Documents/GitHub/SOLIDITY-REMIX/5ef069451e67668750287d64bc5f8bae/calculadora_test.sol\":1369:1482  function checkFailure() public {\r... */\n    tag_5:\n      tag_13\n      tag_14\n      jump\t// in\n    tag_13:\n      stop\n        /* \"Documents/GitHub/SOLIDITY-REMIX/5ef069451e67668750287d64bc5f8bae/calculadora_test.sol\":482:588  function beforeAll() public {\r... */\n    tag_6:\n      tag_15\n      tag_16\n      jump\t// in\n    tag_15:\n      stop\n        /* \"Documents/GitHub/SOLIDITY-REMIX/5ef069451e67668750287d64bc5f8bae/calculadora_test.sol\":596:1197  function checkSuccess() public {\r... */\n    tag_8:\n        /* \"Documents/GitHub/SOLIDITY-REMIX/5ef069451e67668750287d64bc5f8bae/calculadora_test.sol\":735:741  Assert */\n      linkerSymbol(\"acbfb1c35000d78352310b16a054a6b1066124b9c6f054b10c085f549bff80c6\")\n        /* \"Documents/GitHub/SOLIDITY-REMIX/5ef069451e67668750287d64bc5f8bae/calculadora_test.sol\":735:747  Assert.equal */\n      0xf5bae6b6\n        /* \"Documents/GitHub/SOLIDITY-REMIX/5ef069451e67668750287d64bc5f8bae/calculadora_test.sol\":748:752  calc */\n      0x00\n      dup1\n      sload\n      swap1\n      0x0100\n      exp\n      swap1\n      div\n      0xffffffffffffffffffffffffffffffffffffffff\n      and\n        /* \"Documents/GitHub/SOLIDITY-REMIX/5ef069451e67668750287d64bc5f8bae/calculadora_test.sol\":748:757  calc.suma */\n      0xffffffffffffffffffffffffffffffffffffffff\n      and\n      0x8f8a0d19\n        /* \"Documents/GitHub/SOLIDITY-REMIX/5ef069451e67668750287d64bc5f8bae/calculadora_test.sol\":758:759  9 */\n      0x09\n        /* \"Documents/GitHub/SOLIDITY-REMIX/5ef069451e67668750287d64bc5f8bae/calculadora_test.sol\":760:761  3 */\n      0x03\n        /* \"Documents/GitHub/SOLIDITY-REMIX/5ef069451e67668750287d64bc5f8bae/calculadora_test.sol\":748:762  calc.suma(9,3) */\n      mload(0x40)\n      dup4\n      0xffffffff\n      and\n      0xe0\n      shl\n      dup2\n      mstore\n      0x04\n      add\n      tag_18\n      swap3\n      swap2\n      swap1\n      tag_19\n      jump\t// in\n    tag_18:\n      0x20\n      mload(0x40)\n      dup1\n      dup4\n      sub\n      dup2\n      dup7\n      dup1\n      extcodesize\n      iszero\n      dup1\n      iszero\n      tag_20\n      jumpi\n      0x00\n      dup1\n      revert\n    tag_20:\n      pop\n      gas\n      staticcall\n      iszero\n      dup1\n      iszero\n      tag_22\n      jumpi\n      returndatasize\n      0x00\n      dup1\n      returndatacopy\n      revert(0x00, returndatasize)\n    tag_22:\n      pop\n      pop\n      pop\n      pop\n      mload(0x40)\n      returndatasize\n      not(0x1f)\n      0x1f\n      dup3\n      add\n      and\n      dup3\n      add\n      dup1\n      0x40\n      mstore\n      pop\n      dup2\n      add\n      swap1\n      tag_23\n      swap2\n      swap1\n      tag_24\n      jump\t// in\n    tag_23:\n        /* \"Documents/GitHub/SOLIDITY-REMIX/5ef069451e67668750287d64bc5f8bae/calculadora_test.sol\":763:765  12 */\n      0x0c\n        /* \"Documents/GitHub/SOLIDITY-REMIX/5ef069451e67668750287d64bc5f8bae/calculadora_test.sol\":735:783  Assert.equal(calc.suma(9,3),12,  \"should be 12\") */\n      mload(0x40)\n      dup4\n      0xffffffff\n      and\n      0xe0\n      shl\n      dup2\n      mstore\n      0x04\n      add\n      tag_25\n      swap3\n      swap2\n      swap1\n      tag_26\n      jump\t// in\n    tag_25:\n      0x20\n      mload(0x40)\n      dup1\n      dup4\n      sub\n      dup2\n      dup7\n      dup1\n      extcodesize\n      iszero\n      dup1\n      iszero\n      tag_27\n      jumpi\n      0x00\n      dup1\n      revert\n    tag_27:\n      pop\n      gas\n      delegatecall\n      iszero\n      dup1\n      iszero\n      tag_29\n      jumpi\n      returndatasize\n      0x00\n      dup1\n      returndatacopy\n      revert(0x00, returndatasize)\n    tag_29:\n      pop\n      pop\n      pop\n      pop\n      mload(0x40)\n      returndatasize\n      not(0x1f)\n      0x1f\n      dup3\n      add\n      and\n      dup3\n      add\n      dup1\n      0x40\n      mstore\n      pop\n      dup2\n      add\n      swap1\n      tag_30\n      swap2\n      swap1\n      tag_31\n      jump\t// in\n    tag_30:\n      pop\n        /* \"Documents/GitHub/SOLIDITY-REMIX/5ef069451e67668750287d64bc5f8bae/calculadora_test.sol\":794:800  Assert */\n      linkerSymbol(\"acbfb1c35000d78352310b16a054a6b1066124b9c6f054b10c085f549bff80c6\")\n        /* \"Documents/GitHub/SOLIDITY-REMIX/5ef069451e67668750287d64bc5f8bae/calculadora_test.sol\":794:806  Assert.equal */\n      0xf5bae6b6\n        /* \"Documents/GitHub/SOLIDITY-REMIX/5ef069451e67668750287d64bc5f8bae/calculadora_test.sol\":807:811  calc */\n      0x00\n      dup1\n      sload\n      swap1\n      0x0100\n      exp\n      swap1\n      div\n      0xffffffffffffffffffffffffffffffffffffffff\n      and\n        /* \"Documents/GitHub/SOLIDITY-REMIX/5ef069451e67668750287d64bc5f8bae/calculadora_test.sol\":807:817  calc.resta */\n      0xffffffffffffffffffffffffffffffffffffffff\n      and\n      0x4c627bad\n        /* \"Documents/GitHub/SOLIDITY-REMIX/5ef069451e67668750287d64bc5f8bae/calculadora_test.sol\":818:819  9 */\n      0x09\n        /* \"Documents/GitHub/SOLIDITY-REMIX/5ef069451e67668750287d64bc5f8bae/calculadora_test.sol\":820:821  3 */\n      0x03\n        /* \"Documents/GitHub/SOLIDITY-REMIX/5ef069451e67668750287d64bc5f8bae/calculadora_test.sol\":807:822  calc.resta(9,3) */\n      mload(0x40)\n      dup4\n      0xffffffff\n      and\n      0xe0\n      shl\n      dup2\n      mstore\n      0x04\n      add\n      tag_32\n      swap3\n      swap2\n      swap1\n      tag_19\n      jump\t// in\n    tag_32:\n      0x20\n      mload(0x40)\n      dup1\n      dup4\n      sub\n      dup2\n      dup7\n      dup1\n      extcodesize\n      iszero\n      dup1\n      iszero\n      tag_33\n      jumpi\n      0x00\n      dup1\n      revert\n    tag_33:\n      pop\n      gas\n      staticcall\n      iszero\n      dup1\n      iszero\n      tag_35\n      jumpi\n      returndatasize\n      0x00\n      dup1\n      returndatacopy\n      revert(0x00, returndatasize)\n    tag_35:\n      pop\n      pop\n      pop\n      pop\n      mload(0x40)\n      returndatasize\n      not(0x1f)\n      0x1f\n      dup3\n      add\n      and\n      dup3\n      add\n      dup1\n      0x40\n      mstore\n      pop\n      dup2\n      add\n      swap1\n      tag_36\n      swap2\n      swap1\n      tag_24\n      jump\t// in\n    tag_36:\n        /* \"Documents/GitHub/SOLIDITY-REMIX/5ef069451e67668750287d64bc5f8bae/calculadora_test.sol\":823:824  6 */\n      0x06\n        /* \"Documents/GitHub/SOLIDITY-REMIX/5ef069451e67668750287d64bc5f8bae/calculadora_test.sol\":794:840  Assert.equal(calc.resta(9,3),6, \"should be 6\") */\n      mload(0x40)\n      dup4\n      0xffffffff\n      and\n      0xe0\n      shl\n      dup2\n      mstore\n      0x04\n      add\n      tag_37\n      swap3\n      swap2\n      swap1\n      tag_38\n      jump\t// in\n    tag_37:\n      0x20\n      mload(0x40)\n      dup1\n      dup4\n      sub\n      dup2\n      dup7\n      dup1\n      extcodesize\n      iszero\n      dup1\n      iszero\n      tag_39\n      jumpi\n      0x00\n      dup1\n      revert\n    tag_39:\n      pop\n      gas\n      delegatecall\n      iszero\n      dup1\n      iszero\n      tag_41\n      jumpi\n      returndatasize\n      0x00\n      dup1\n      returndatacopy\n      revert(0x00, returndatasize)\n    tag_41:\n      pop\n      pop\n      pop\n      pop\n      mload(0x40)\n      returndatasize\n      not(0x1f)\n      0x1f\n      dup3\n      add\n      and\n      dup3\n      add\n      dup1\n      0x40\n      mstore\n      pop\n      dup2\n      add\n      swap1\n      tag_42\n      swap2\n      swap1\n      tag_31\n      jump\t// in\n    tag_42:\n      pop\n        /* \"Documents/GitHub/SOLIDITY-REMIX/5ef069451e67668750287d64bc5f8bae/calculadora_test.sol\":851:857  Assert */\n      linkerSymbol(\"acbfb1c35000d78352310b16a054a6b1066124b9c6f054b10c085f549bff80c6\")\n        /* \"Documents/GitHub/SOLIDITY-REMIX/5ef069451e67668750287d64bc5f8bae/calculadora_test.sol\":851:863  Assert.equal */\n      0xf5bae6b6\n        /* \"Documents/GitHub/SOLIDITY-REMIX/5ef069451e67668750287d64bc5f8bae/calculadora_test.sol\":864:868  calc */\n      0x00\n      dup1\n      sload\n      swap1\n      0x0100\n      exp\n      swap1\n      div\n      0xffffffffffffffffffffffffffffffffffffffff\n      and\n        /* \"Documents/GitHub/SOLIDITY-REMIX/5ef069451e67668750287d64bc5f8bae/calculadora_test.sol\":864:883  calc.multiplicacion */\n      0xffffffffffffffffffffffffffffffffffffffff\n      and\n      0x187983bf\n        /* \"Documents/GitHub/SOLIDITY-REMIX/5ef069451e67668750287d64bc5f8bae/calculadora_test.sol\":884:885  9 */\n      0x09\n        /* \"Documents/GitHub/SOLIDITY-REMIX/5ef069451e67668750287d64bc5f8bae/calculadora_test.sol\":886:887  3 */\n      0x03\n        /* \"Documents/GitHub/SOLIDITY-REMIX/5ef069451e67668750287d64bc5f8bae/calculadora_test.sol\":864:888  calc.multiplicacion(9,3) */\n      mload(0x40)\n      dup4\n      0xffffffff\n      and\n      0xe0\n      shl\n      dup2\n      mstore\n      0x04\n      add\n      tag_43\n      swap3\n      swap2\n      swap1\n      tag_19\n      jump\t// in\n    tag_43:\n      0x20\n      mload(0x40)\n      dup1\n      dup4\n      sub\n      dup2\n      dup7\n      dup1\n      extcodesize\n      iszero\n      dup1\n      iszero\n      tag_44\n      jumpi\n      0x00\n      dup1\n      revert\n    tag_44:\n      pop\n      gas\n      staticcall\n      iszero\n      dup1\n      iszero\n      tag_46\n      jumpi\n      returndatasize\n      0x00\n      dup1\n      returndatacopy\n      revert(0x00, returndatasize)\n    tag_46:\n      pop\n      pop\n      pop\n      pop\n      mload(0x40)\n      returndatasize\n      not(0x1f)\n      0x1f\n      dup3\n      add\n      and\n      dup3\n      add\n      dup1\n      0x40\n      mstore\n      pop\n      dup2\n      add\n      swap1\n      tag_47\n      swap2\n      swap1\n      tag_24\n      jump\t// in\n    tag_47:\n        /* \"Documents/GitHub/SOLIDITY-REMIX/5ef069451e67668750287d64bc5f8bae/calculadora_test.sol\":889:891  27 */\n      0x1b\n        /* \"Documents/GitHub/SOLIDITY-REMIX/5ef069451e67668750287d64bc5f8bae/calculadora_test.sol\":851:908  Assert.equal(calc.multiplicacion(9,3),27, \"should be 27\") */\n      mload(0x40)\n      dup4\n      0xffffffff\n      and\n      0xe0\n      shl\n      dup2\n      mstore\n      0x04\n      add\n      tag_48\n      swap3\n      swap2\n      swap1\n      tag_49\n      jump\t// in\n    tag_48:\n      0x20\n      mload(0x40)\n      dup1\n      dup4\n      sub\n      dup2\n      dup7\n      dup1\n      extcodesize\n      iszero\n      dup1\n      iszero\n      tag_50\n      jumpi\n      0x00\n      dup1\n      revert\n    tag_50:\n      pop\n      gas\n      delegatecall\n      iszero\n      dup1\n      iszero\n      tag_52\n      jumpi\n      returndatasize\n      0x00\n      dup1\n      returndatacopy\n      revert(0x00, returndatasize)\n    tag_52:\n      pop\n      pop\n      pop\n      pop\n      mload(0x40)\n      returndatasize\n      not(0x1f)\n      0x1f\n      dup3\n      add\n      and\n      dup3\n      add\n      dup1\n      0x40\n      mstore\n      pop\n      dup2\n      add\n      swap1\n      tag_53\n      swap2\n      swap1\n      tag_31\n      jump\t// in\n    tag_53:\n      pop\n        /* \"Documents/GitHub/SOLIDITY-REMIX/5ef069451e67668750287d64bc5f8bae/calculadora_test.sol\":919:925  Assert */\n      linkerSymbol(\"acbfb1c35000d78352310b16a054a6b1066124b9c6f054b10c085f549bff80c6\")\n        /* \"Documents/GitHub/SOLIDITY-REMIX/5ef069451e67668750287d64bc5f8bae/calculadora_test.sol\":919:931  Assert.equal */\n      0xf5bae6b6\n        /* \"Documents/GitHub/SOLIDITY-REMIX/5ef069451e67668750287d64bc5f8bae/calculadora_test.sol\":932:936  calc */\n      0x00\n      dup1\n      sload\n      swap1\n      0x0100\n      exp\n      swap1\n      div\n      0xffffffffffffffffffffffffffffffffffffffff\n      and\n        /* \"Documents/GitHub/SOLIDITY-REMIX/5ef069451e67668750287d64bc5f8bae/calculadora_test.sol\":932:945  calc.division */\n      0xffffffffffffffffffffffffffffffffffffffff\n      and\n      0x09b7cdda\n        /* \"Documents/GitHub/SOLIDITY-REMIX/5ef069451e67668750287d64bc5f8bae/calculadora_test.sol\":946:947  9 */\n      0x09\n        /* \"Documents/GitHub/SOLIDITY-REMIX/5ef069451e67668750287d64bc5f8bae/calculadora_test.sol\":948:949  3 */\n      0x03\n        /* \"Documents/GitHub/SOLIDITY-REMIX/5ef069451e67668750287d64bc5f8bae/calculadora_test.sol\":932:950  calc.division(9,3) */\n      mload(0x40)\n      dup4\n      0xffffffff\n      and\n      0xe0\n      shl\n      dup2\n      mstore\n      0x04\n      add\n      tag_54\n      swap3\n      swap2\n      swap1\n      tag_19\n      jump\t// in\n    tag_54:\n      0x20\n      mload(0x40)\n      dup1\n      dup4\n      sub\n      dup2\n      dup7\n      dup1\n      extcodesize\n      iszero\n      dup1\n      iszero\n      tag_55\n      jumpi\n      0x00\n      dup1\n      revert\n    tag_55:\n      pop\n      gas\n      staticcall\n      iszero\n      dup1\n      iszero\n      tag_57\n      jumpi\n      returndatasize\n      0x00\n      dup1\n      returndatacopy\n      revert(0x00, returndatasize)\n    tag_57:\n      pop\n      pop\n      pop\n      pop\n      mload(0x40)\n      returndatasize\n      not(0x1f)\n      0x1f\n      dup3\n      add\n      and\n      dup3\n      add\n      dup1\n      0x40\n      mstore\n      pop\n      dup2\n      add\n      swap1\n      tag_58\n      swap2\n      swap1\n      tag_24\n      jump\t// in\n    tag_58:\n        /* \"Documents/GitHub/SOLIDITY-REMIX/5ef069451e67668750287d64bc5f8bae/calculadora_test.sol\":951:952  3 */\n      0x03\n        /* \"Documents/GitHub/SOLIDITY-REMIX/5ef069451e67668750287d64bc5f8bae/calculadora_test.sol\":919:968  Assert.equal(calc.division(9,3),3, \"should be 3\") */\n      mload(0x40)\n      dup4\n      0xffffffff\n      and\n      0xe0\n      shl\n      dup2\n      mstore\n      0x04\n      add\n      tag_59\n      swap3\n      swap2\n      swap1\n      tag_60\n      jump\t// in\n    tag_59:\n      0x20\n      mload(0x40)\n      dup1\n      dup4\n      sub\n      dup2\n      dup7\n      dup1\n      extcodesize\n      iszero\n      dup1\n      iszero\n      tag_61\n      jumpi\n      0x00\n      dup1\n      revert\n    tag_61:\n      pop\n      gas\n      delegatecall\n      iszero\n      dup1\n      iszero\n      tag_63\n      jumpi\n      returndatasize\n      0x00\n      dup1\n      returndatacopy\n      revert(0x00, returndatasize)\n    tag_63:\n      pop\n      pop\n      pop\n      pop\n      mload(0x40)\n      returndatasize\n      not(0x1f)\n      0x1f\n      dup3\n      add\n      and\n      dup3\n      add\n      dup1\n      0x40\n      mstore\n      pop\n      dup2\n      add\n      swap1\n      tag_64\n      swap2\n      swap1\n      tag_31\n      jump\t// in\n    tag_64:\n      pop\n        /* \"Documents/GitHub/SOLIDITY-REMIX/5ef069451e67668750287d64bc5f8bae/calculadora_test.sol\":979:985  Assert */\n      linkerSymbol(\"acbfb1c35000d78352310b16a054a6b1066124b9c6f054b10c085f549bff80c6\")\n        /* \"Documents/GitHub/SOLIDITY-REMIX/5ef069451e67668750287d64bc5f8bae/calculadora_test.sol\":979:991  Assert.equal */\n      0xabcd7960\n        /* \"Documents/GitHub/SOLIDITY-REMIX/5ef069451e67668750287d64bc5f8bae/calculadora_test.sol\":992:996  calc */\n      0x00\n      dup1\n      sload\n      swap1\n      0x0100\n      exp\n      swap1\n      div\n      0xffffffffffffffffffffffffffffffffffffffff\n      and\n        /* \"Documents/GitHub/SOLIDITY-REMIX/5ef069451e67668750287d64bc5f8bae/calculadora_test.sol\":992:1006  calc.factorial */\n      0xffffffffffffffffffffffffffffffffffffffff\n      and\n      0x83714834\n        /* \"Documents/GitHub/SOLIDITY-REMIX/5ef069451e67668750287d64bc5f8bae/calculadora_test.sol\":1007:1008  3 */\n      0x03\n        /* \"Documents/GitHub/SOLIDITY-REMIX/5ef069451e67668750287d64bc5f8bae/calculadora_test.sol\":992:1009  calc.factorial(3) */\n      mload(0x40)\n      dup3\n      0xffffffff\n      and\n      0xe0\n      shl\n      dup2\n      mstore\n      0x04\n      add\n      tag_65\n      swap2\n      swap1\n      tag_66\n      jump\t// in\n    tag_65:\n      0x20\n      mload(0x40)\n      dup1\n      dup4\n      sub\n      dup2\n      dup7\n      dup1\n      extcodesize\n      iszero\n      dup1\n      iszero\n      tag_67\n      jumpi\n      0x00\n      dup1\n      revert\n    tag_67:\n      pop\n      gas\n      staticcall\n      iszero\n      dup1\n      iszero\n      tag_69\n      jumpi\n      returndatasize\n      0x00\n      dup1\n      returndatacopy\n      revert(0x00, returndatasize)\n    tag_69:\n      pop\n      pop\n      pop\n      pop\n      mload(0x40)\n      returndatasize\n      not(0x1f)\n      0x1f\n      dup3\n      add\n      and\n      dup3\n      add\n      dup1\n      0x40\n      mstore\n      pop\n      dup2\n      add\n      swap1\n      tag_70\n      swap2\n      swap1\n      tag_71\n      jump\t// in\n    tag_70:\n        /* \"Documents/GitHub/SOLIDITY-REMIX/5ef069451e67668750287d64bc5f8bae/calculadora_test.sol\":1010:1011  6 */\n      0x06\n        /* \"Documents/GitHub/SOLIDITY-REMIX/5ef069451e67668750287d64bc5f8bae/calculadora_test.sol\":979:1027  Assert.equal(calc.factorial(3),6, \"should be 6\") */\n      mload(0x40)\n      dup4\n      0xffffffff\n      and\n      0xe0\n      shl\n      dup2\n      mstore\n      0x04\n      add\n      tag_72\n      swap3\n      swap2\n      swap1\n      tag_73\n      jump\t// in\n    tag_72:\n      0x20\n      mload(0x40)\n      dup1\n      dup4\n      sub\n      dup2\n      dup7\n      dup1\n      extcodesize\n      iszero\n      dup1\n      iszero\n      tag_74\n      jumpi\n      0x00\n      dup1\n      revert\n    tag_74:\n      pop\n      gas\n      delegatecall\n      iszero\n      dup1\n      iszero\n      tag_76\n      jumpi\n      returndatasize\n      0x00\n      dup1\n      returndatacopy\n      revert(0x00, returndatasize)\n    tag_76:\n      pop\n      pop\n      pop\n      pop\n      mload(0x40)\n      returndatasize\n      not(0x1f)\n      0x1f\n      dup3\n      add\n      and\n      dup3\n      add\n      dup1\n      0x40\n      mstore\n      pop\n      dup2\n      add\n      swap1\n      tag_77\n      swap2\n      swap1\n      tag_31\n      jump\t// in\n    tag_77:\n      pop\n        /* \"Documents/GitHub/SOLIDITY-REMIX/5ef069451e67668750287d64bc5f8bae/calculadora_test.sol\":596:1197  function checkSuccess() public {\r... */\n      jump\t// out\n        /* \"Documents/GitHub/SOLIDITY-REMIX/5ef069451e67668750287d64bc5f8bae/calculadora_test.sol\":1205:1357  function checkSuccess2() public pure returns (bool) {\r... */\n    tag_10:\n        /* \"Documents/GitHub/SOLIDITY-REMIX/5ef069451e67668750287d64bc5f8bae/calculadora_test.sol\":1251:1255  bool */\n      0x00\n        /* \"Documents/GitHub/SOLIDITY-REMIX/5ef069451e67668750287d64bc5f8bae/calculadora_test.sol\":1345:1349  true */\n      0x01\n        /* \"Documents/GitHub/SOLIDITY-REMIX/5ef069451e67668750287d64bc5f8bae/calculadora_test.sol\":1338:1349  return true */\n      swap1\n      pop\n        /* \"Documents/GitHub/SOLIDITY-REMIX/5ef069451e67668750287d64bc5f8bae/calculadora_test.sol\":1205:1357  function checkSuccess2() public pure returns (bool) {\r... */\n      swap1\n      jump\t// out\n        /* \"Documents/GitHub/SOLIDITY-REMIX/5ef069451e67668750287d64bc5f8bae/calculadora_test.sol\":1369:1482  function checkFailure() public {\r... */\n    tag_14:\n        /* \"Documents/GitHub/SOLIDITY-REMIX/5ef069451e67668750287d64bc5f8bae/calculadora_test.sol\":1411:1417  Assert */\n      linkerSymbol(\"acbfb1c35000d78352310b16a054a6b1066124b9c6f054b10c085f549bff80c6\")\n        /* \"Documents/GitHub/SOLIDITY-REMIX/5ef069451e67668750287d64bc5f8bae/calculadora_test.sol\":1411:1426  Assert.notEqual */\n      0x561015e2\n        /* \"Documents/GitHub/SOLIDITY-REMIX/5ef069451e67668750287d64bc5f8bae/calculadora_test.sol\":1432:1433  1 */\n      0x01\n        /* \"Documents/GitHub/SOLIDITY-REMIX/5ef069451e67668750287d64bc5f8bae/calculadora_test.sol\":1441:1442  1 */\n      dup1\n        /* \"Documents/GitHub/SOLIDITY-REMIX/5ef069451e67668750287d64bc5f8bae/calculadora_test.sol\":1411:1474  Assert.notEqual(uint(1), uint(1), \"1 should not be equal to 1\") */\n      mload(0x40)\n      dup4\n      0xffffffff\n      and\n      0xe0\n      shl\n      dup2\n      mstore\n      0x04\n      add\n      tag_80\n      swap3\n      swap2\n      swap1\n      tag_81\n      jump\t// in\n    tag_80:\n      0x20\n      mload(0x40)\n      dup1\n      dup4\n      sub\n      dup2\n      dup7\n      dup1\n      extcodesize\n      iszero\n      dup1\n      iszero\n      tag_82\n      jumpi\n      0x00\n      dup1\n      revert\n    tag_82:\n      pop\n      gas\n      delegatecall\n      iszero\n      dup1\n      iszero\n      tag_84\n      jumpi\n      returndatasize\n      0x00\n      dup1\n      returndatacopy\n      revert(0x00, returndatasize)\n    tag_84:\n      pop\n      pop\n      pop\n      pop\n      mload(0x40)\n      returndatasize\n      not(0x1f)\n      0x1f\n      dup3\n      add\n      and\n      dup3\n      add\n      dup1\n      0x40\n      mstore\n      pop\n      dup2\n      add\n      swap1\n      tag_85\n      swap2\n      swap1\n      tag_31\n      jump\t// in\n    tag_85:\n      pop\n        /* \"Documents/GitHub/SOLIDITY-REMIX/5ef069451e67668750287d64bc5f8bae/calculadora_test.sol\":1369:1482  function checkFailure() public {\r... */\n      jump\t// out\n        /* \"Documents/GitHub/SOLIDITY-REMIX/5ef069451e67668750287d64bc5f8bae/calculadora_test.sol\":482:588  function beforeAll() public {\r... */\n    tag_16:\n        /* \"Documents/GitHub/SOLIDITY-REMIX/5ef069451e67668750287d64bc5f8bae/calculadora_test.sol\":563:580  new Calculadora() */\n      mload(0x40)\n      tag_87\n      swap1\n      tag_88\n      jump\t// in\n    tag_87:\n      mload(0x40)\n      dup1\n      swap2\n      sub\n      swap1\n      0x00\n      create\n      dup1\n      iszero\n      dup1\n      iszero\n      tag_89\n      jumpi\n      returndatasize\n      0x00\n      dup1\n      returndatacopy\n      revert(0x00, returndatasize)\n    tag_89:\n      pop\n        /* \"Documents/GitHub/SOLIDITY-REMIX/5ef069451e67668750287d64bc5f8bae/calculadora_test.sol\":556:560  calc */\n      0x00\n      dup1\n        /* \"Documents/GitHub/SOLIDITY-REMIX/5ef069451e67668750287d64bc5f8bae/calculadora_test.sol\":556:580  calc = new Calculadora() */\n      0x0100\n      exp\n      dup2\n      sload\n      dup2\n      0xffffffffffffffffffffffffffffffffffffffff\n      mul\n      not\n      and\n      swap1\n      dup4\n      0xffffffffffffffffffffffffffffffffffffffff\n      and\n      mul\n      or\n      swap1\n      sstore\n      pop\n        /* \"Documents/GitHub/SOLIDITY-REMIX/5ef069451e67668750287d64bc5f8bae/calculadora_test.sol\":482:588  function beforeAll() public {\r... */\n      jump\t// out\n    tag_88:\n      dataSize(sub_0)\n      dup1\n      dataOffset(sub_0)\n      dup4\n      codecopy\n      add\n      swap1\n      jump\t// out\n        /* \"#utility.yul\":7:144   */\n    tag_91:\n        /* \"#utility.yul\":61:66   */\n      0x00\n        /* \"#utility.yul\":92:98   */\n      dup2\n        /* \"#utility.yul\":86:99   */\n      mload\n        /* \"#utility.yul\":77:99   */\n      swap1\n      pop\n        /* \"#utility.yul\":108:138   */\n      tag_93\n        /* \"#utility.yul\":132:137   */\n      dup2\n        /* \"#utility.yul\":108:138   */\n      tag_94\n      jump\t// in\n    tag_93:\n        /* \"#utility.yul\":7:144   */\n      swap3\n      swap2\n      pop\n      pop\n      jump\t// out\n        /* \"#utility.yul\":150:291   */\n    tag_95:\n        /* \"#utility.yul\":206:211   */\n      0x00\n        /* \"#utility.yul\":237:243   */\n      dup2\n        /* \"#utility.yul\":231:244   */\n      mload\n        /* \"#utility.yul\":222:244   */\n      swap1\n      pop\n        /* \"#utility.yul\":253:285   */\n      tag_97\n        /* \"#utility.yul\":279:284   */\n      dup2\n        /* \"#utility.yul\":253:285   */\n      tag_98\n      jump\t// in\n    tag_97:\n        /* \"#utility.yul\":150:291   */\n      swap3\n      swap2\n      pop\n      pop\n      jump\t// out\n        /* \"#utility.yul\":297:440   */\n    tag_99:\n        /* \"#utility.yul\":354:359   */\n      0x00\n        /* \"#utility.yul\":385:391   */\n      dup2\n        /* \"#utility.yul\":379:392   */\n      mload\n        /* \"#utility.yul\":370:392   */\n      swap1\n      pop\n        /* \"#utility.yul\":401:434   */\n      tag_101\n        /* \"#utility.yul\":428:433   */\n      dup2\n        /* \"#utility.yul\":401:434   */\n      tag_102\n      jump\t// in\n    tag_101:\n        /* \"#utility.yul\":297:440   */\n      swap3\n      swap2\n      pop\n      pop\n      jump\t// out\n        /* \"#utility.yul\":446:791   */\n    tag_31:\n        /* \"#utility.yul\":513:519   */\n      0x00\n        /* \"#utility.yul\":562:564   */\n      0x20\n        /* \"#utility.yul\":550:559   */\n      dup3\n        /* \"#utility.yul\":541:548   */\n      dup5\n        /* \"#utility.yul\":537:560   */\n      sub\n        /* \"#utility.yul\":533:565   */\n      slt\n        /* \"#utility.yul\":530:649   */\n      iszero\n      tag_104\n      jumpi\n        /* \"#utility.yul\":568:647   */\n      tag_105\n      tag_106\n      jump\t// in\n    tag_105:\n        /* \"#utility.yul\":530:649   */\n    tag_104:\n        /* \"#utility.yul\":688:689   */\n      0x00\n        /* \"#utility.yul\":713:774   */\n      tag_107\n        /* \"#utility.yul\":766:773   */\n      dup5\n        /* \"#utility.yul\":757:763   */\n      dup3\n        /* \"#utility.yul\":746:755   */\n      dup6\n        /* \"#utility.yul\":742:764   */\n      add\n        /* \"#utility.yul\":713:774   */\n      tag_91\n      jump\t// in\n    tag_107:\n        /* \"#utility.yul\":703:774   */\n      swap2\n      pop\n        /* \"#utility.yul\":659:784   */\n      pop\n        /* \"#utility.yul\":446:791   */\n      swap3\n      swap2\n      pop\n      pop\n      jump\t// out\n        /* \"#utility.yul\":797:1146   */\n    tag_24:\n        /* \"#utility.yul\":866:872   */\n      0x00\n        /* \"#utility.yul\":915:917   */\n      0x20\n        /* \"#utility.yul\":903:912   */\n      dup3\n        /* \"#utility.yul\":894:901   */\n      dup5\n        /* \"#utility.yul\":890:913   */\n      sub\n        /* \"#utility.yul\":886:918   */\n      slt\n        /* \"#utility.yul\":883:1002   */\n      iszero\n      tag_109\n      jumpi\n        /* \"#utility.yul\":921:1000   */\n      tag_110\n      tag_106\n      jump\t// in\n    tag_110:\n        /* \"#utility.yul\":883:1002   */\n    tag_109:\n        /* \"#utility.yul\":1041:1042   */\n      0x00\n        /* \"#utility.yul\":1066:1129   */\n      tag_111\n        /* \"#utility.yul\":1121:1128   */\n      dup5\n        /* \"#utility.yul\":1112:1118   */\n      dup3\n        /* \"#utility.yul\":1101:1110   */\n      dup6\n        /* \"#utility.yul\":1097:1119   */\n      add\n        /* \"#utility.yul\":1066:1129   */\n      tag_95\n      jump\t// in\n    tag_111:\n        /* \"#utility.yul\":1056:1129   */\n      swap2\n      pop\n        /* \"#utility.yul\":1012:1139   */\n      pop\n        /* \"#utility.yul\":797:1146   */\n      swap3\n      swap2\n      pop\n      pop\n      jump\t// out\n        /* \"#utility.yul\":1152:1503   */\n    tag_71:\n        /* \"#utility.yul\":1222:1228   */\n      0x00\n        /* \"#utility.yul\":1271:1273   */\n      0x20\n        /* \"#utility.yul\":1259:1268   */\n      dup3\n        /* \"#utility.yul\":1250:1257   */\n      dup5\n        /* \"#utility.yul\":1246:1269   */\n      sub\n        /* \"#utility.yul\":1242:1274   */\n      slt\n        /* \"#utility.yul\":1239:1358   */\n      iszero\n      tag_113\n      jumpi\n        /* \"#utility.yul\":1277:1356   */\n      tag_114\n      tag_106\n      jump\t// in\n    tag_114:\n        /* \"#utility.yul\":1239:1358   */\n    tag_113:\n        /* \"#utility.yul\":1397:1398   */\n      0x00\n        /* \"#utility.yul\":1422:1486   */\n      tag_115\n        /* \"#utility.yul\":1478:1485   */\n      dup5\n        /* \"#utility.yul\":1469:1475   */\n      dup3\n        /* \"#utility.yul\":1458:1467   */\n      dup6\n        /* \"#utility.yul\":1454:1476   */\n      add\n        /* \"#utility.yul\":1422:1486   */\n      tag_99\n      jump\t// in\n    tag_115:\n        /* \"#utility.yul\":1412:1486   */\n      swap2\n      pop\n        /* \"#utility.yul\":1368:1496   */\n      pop\n        /* \"#utility.yul\":1152:1503   */\n      swap3\n      swap2\n      pop\n      pop\n      jump\t// out\n        /* \"#utility.yul\":1509:1618   */\n    tag_116:\n        /* \"#utility.yul\":1590:1611   */\n      tag_118\n        /* \"#utility.yul\":1605:1610   */\n      dup2\n        /* \"#utility.yul\":1590:1611   */\n      tag_119\n      jump\t// in\n    tag_118:\n        /* \"#utility.yul\":1585:1588   */\n      dup3\n        /* \"#utility.yul\":1578:1612   */\n      mstore\n        /* \"#utility.yul\":1509:1618   */\n      pop\n      pop\n      jump\t// out\n        /* \"#utility.yul\":1624:1747   */\n    tag_120:\n        /* \"#utility.yul\":1717:1740   */\n      tag_122\n        /* \"#utility.yul\":1734:1739   */\n      dup2\n        /* \"#utility.yul\":1717:1740   */\n      tag_123\n      jump\t// in\n    tag_122:\n        /* \"#utility.yul\":1712:1715   */\n      dup3\n        /* \"#utility.yul\":1705:1741   */\n      mstore\n        /* \"#utility.yul\":1624:1747   */\n      pop\n      pop\n      jump\t// out\n        /* \"#utility.yul\":1753:1908   */\n    tag_124:\n        /* \"#utility.yul\":1856:1901   */\n      tag_126\n        /* \"#utility.yul\":1895:1900   */\n      dup2\n        /* \"#utility.yul\":1856:1901   */\n      tag_127\n      jump\t// in\n    tag_126:\n        /* \"#utility.yul\":1851:1854   */\n      dup3\n        /* \"#utility.yul\":1844:1902   */\n      mstore\n        /* \"#utility.yul\":1753:1908   */\n      pop\n      pop\n      jump\t// out\n        /* \"#utility.yul\":1914:2069   */\n    tag_128:\n        /* \"#utility.yul\":2017:2062   */\n      tag_130\n        /* \"#utility.yul\":2056:2061   */\n      dup2\n        /* \"#utility.yul\":2017:2062   */\n      tag_131\n      jump\t// in\n    tag_130:\n        /* \"#utility.yul\":2012:2015   */\n      dup3\n        /* \"#utility.yul\":2005:2063   */\n      mstore\n        /* \"#utility.yul\":1914:2069   */\n      pop\n      pop\n      jump\t// out\n        /* \"#utility.yul\":2075:2220   */\n    tag_132:\n        /* \"#utility.yul\":2169:2213   */\n      tag_134\n        /* \"#utility.yul\":2207:2212   */\n      dup2\n        /* \"#utility.yul\":2169:2213   */\n      tag_135\n      jump\t// in\n    tag_134:\n        /* \"#utility.yul\":2164:2167   */\n      dup3\n        /* \"#utility.yul\":2157:2214   */\n      mstore\n        /* \"#utility.yul\":2075:2220   */\n      pop\n      pop\n      jump\t// out\n        /* \"#utility.yul\":2226:2379   */\n    tag_136:\n        /* \"#utility.yul\":2328:2372   */\n      tag_138\n        /* \"#utility.yul\":2366:2371   */\n      dup2\n        /* \"#utility.yul\":2328:2372   */\n      tag_135\n      jump\t// in\n    tag_138:\n        /* \"#utility.yul\":2323:2326   */\n      dup3\n        /* \"#utility.yul\":2316:2373   */\n      mstore\n        /* \"#utility.yul\":2226:2379   */\n      pop\n      pop\n      jump\t// out\n        /* \"#utility.yul\":2385:2532   */\n    tag_139:\n        /* \"#utility.yul\":2480:2525   */\n      tag_141\n        /* \"#utility.yul\":2519:2524   */\n      dup2\n        /* \"#utility.yul\":2480:2525   */\n      tag_142\n      jump\t// in\n    tag_141:\n        /* \"#utility.yul\":2475:2478   */\n      dup3\n        /* \"#utility.yul\":2468:2526   */\n      mstore\n        /* \"#utility.yul\":2385:2532   */\n      pop\n      pop\n      jump\t// out\n        /* \"#utility.yul\":2538:2691   */\n    tag_143:\n        /* \"#utility.yul\":2640:2684   */\n      tag_145\n        /* \"#utility.yul\":2678:2683   */\n      dup2\n        /* \"#utility.yul\":2640:2684   */\n      tag_146\n      jump\t// in\n    tag_145:\n        /* \"#utility.yul\":2635:2638   */\n      dup3\n        /* \"#utility.yul\":2628:2685   */\n      mstore\n        /* \"#utility.yul\":2538:2691   */\n      pop\n      pop\n      jump\t// out\n        /* \"#utility.yul\":2697:2852   */\n    tag_147:\n        /* \"#utility.yul\":2800:2845   */\n      tag_149\n        /* \"#utility.yul\":2839:2844   */\n      dup2\n        /* \"#utility.yul\":2800:2845   */\n      tag_150\n      jump\t// in\n    tag_149:\n        /* \"#utility.yul\":2795:2798   */\n      dup3\n        /* \"#utility.yul\":2788:2846   */\n      mstore\n        /* \"#utility.yul\":2697:2852   */\n      pop\n      pop\n      jump\t// out\n        /* \"#utility.yul\":2858:3003   */\n    tag_151:\n        /* \"#utility.yul\":2952:2996   */\n      tag_153\n        /* \"#utility.yul\":2990:2995   */\n      dup2\n        /* \"#utility.yul\":2952:2996   */\n      tag_154\n      jump\t// in\n    tag_153:\n        /* \"#utility.yul\":2947:2950   */\n      dup3\n        /* \"#utility.yul\":2940:2997   */\n      mstore\n        /* \"#utility.yul\":2858:3003   */\n      pop\n      pop\n      jump\t// out\n        /* \"#utility.yul\":3009:3391   */\n    tag_155:\n        /* \"#utility.yul\":3159:3162   */\n      0x00\n        /* \"#utility.yul\":3180:3255   */\n      tag_157\n        /* \"#utility.yul\":3252:3254   */\n      0x0b\n        /* \"#utility.yul\":3247:3250   */\n      dup4\n        /* \"#utility.yul\":3180:3255   */\n      tag_158\n      jump\t// in\n    tag_157:\n        /* \"#utility.yul\":3173:3255   */\n      swap2\n      pop\n        /* \"#utility.yul\":3264:3357   */\n      tag_159\n        /* \"#utility.yul\":3353:3356   */\n      dup3\n        /* \"#utility.yul\":3264:3357   */\n      tag_160\n      jump\t// in\n    tag_159:\n        /* \"#utility.yul\":3382:3384   */\n      0x20\n        /* \"#utility.yul\":3377:3380   */\n      dup3\n        /* \"#utility.yul\":3373:3385   */\n      add\n        /* \"#utility.yul\":3366:3385   */\n      swap1\n      pop\n        /* \"#utility.yul\":3009:3391   */\n      swap2\n      swap1\n      pop\n      jump\t// out\n        /* \"#utility.yul\":3397:3779   */\n    tag_161:\n        /* \"#utility.yul\":3547:3550   */\n      0x00\n        /* \"#utility.yul\":3568:3643   */\n      tag_163\n        /* \"#utility.yul\":3640:3642   */\n      0x0b\n        /* \"#utility.yul\":3635:3638   */\n      dup4\n        /* \"#utility.yul\":3568:3643   */\n      tag_158\n      jump\t// in\n    tag_163:\n        /* \"#utility.yul\":3561:3643   */\n      swap2\n      pop\n        /* \"#utility.yul\":3652:3745   */\n      tag_164\n        /* \"#utility.yul\":3741:3744   */\n      dup3\n        /* \"#utility.yul\":3652:3745   */\n      tag_165\n      jump\t// in\n    tag_164:\n        /* \"#utility.yul\":3770:3772   */\n      0x20\n        /* \"#utility.yul\":3765:3768   */\n      dup3\n        /* \"#utility.yul\":3761:3773   */\n      add\n        /* \"#utility.yul\":3754:3773   */\n      swap1\n      pop\n        /* \"#utility.yul\":3397:3779   */\n      swap2\n      swap1\n      pop\n      jump\t// out\n        /* \"#utility.yul\":3785:4167   */\n    tag_166:\n        /* \"#utility.yul\":3935:3938   */\n      0x00\n        /* \"#utility.yul\":3956:4031   */\n      tag_168\n        /* \"#utility.yul\":4028:4030   */\n      0x0c\n        /* \"#utility.yul\":4023:4026   */\n      dup4\n        /* \"#utility.yul\":3956:4031   */\n      tag_158\n      jump\t// in\n    tag_168:\n        /* \"#utility.yul\":3949:4031   */\n      swap2\n      pop\n        /* \"#utility.yul\":4040:4133   */\n      tag_169\n        /* \"#utility.yul\":4129:4132   */\n      dup3\n        /* \"#utility.yul\":4040:4133   */\n      tag_170\n      jump\t// in\n    tag_169:\n        /* \"#utility.yul\":4158:4160   */\n      0x20\n        /* \"#utility.yul\":4153:4156   */\n      dup3\n        /* \"#utility.yul\":4149:4161   */\n      add\n        /* \"#utility.yul\":4142:4161   */\n      swap1\n      pop\n        /* \"#utility.yul\":3785:4167   */\n      swap2\n      swap1\n      pop\n      jump\t// out\n        /* \"#utility.yul\":4173:4555   */\n    tag_171:\n        /* \"#utility.yul\":4323:4326   */\n      0x00\n        /* \"#utility.yul\":4344:4419   */\n      tag_173\n        /* \"#utility.yul\":4416:4418   */\n      0x0c\n        /* \"#utility.yul\":4411:4414   */\n      dup4\n        /* \"#utility.yul\":4344:4419   */\n      tag_158\n      jump\t// in\n    tag_173:\n        /* \"#utility.yul\":4337:4419   */\n      swap2\n      pop\n        /* \"#utility.yul\":4428:4521   */\n      tag_174\n        /* \"#utility.yul\":4517:4520   */\n      dup3\n        /* \"#utility.yul\":4428:4521   */\n      tag_175\n      jump\t// in\n    tag_174:\n        /* \"#utility.yul\":4546:4548   */\n      0x20\n        /* \"#utility.yul\":4541:4544   */\n      dup3\n        /* \"#utility.yul\":4537:4549   */\n      add\n        /* \"#utility.yul\":4530:4549   */\n      swap1\n      pop\n        /* \"#utility.yul\":4173:4555   */\n      swap2\n      swap1\n      pop\n      jump\t// out\n        /* \"#utility.yul\":4561:4943   */\n    tag_176:\n        /* \"#utility.yul\":4711:4714   */\n      0x00\n        /* \"#utility.yul\":4732:4807   */\n      tag_178\n        /* \"#utility.yul\":4804:4806   */\n      0x1a\n        /* \"#utility.yul\":4799:4802   */\n      dup4\n        /* \"#utility.yul\":4732:4807   */\n      tag_158\n      jump\t// in\n    tag_178:\n        /* \"#utility.yul\":4725:4807   */\n      swap2\n      pop\n        /* \"#utility.yul\":4816:4909   */\n      tag_179\n        /* \"#utility.yul\":4905:4908   */\n      dup3\n        /* \"#utility.yul\":4816:4909   */\n      tag_180\n      jump\t// in\n    tag_179:\n        /* \"#utility.yul\":4934:4936   */\n      0x20\n        /* \"#utility.yul\":4929:4932   */\n      dup3\n        /* \"#utility.yul\":4925:4937   */\n      add\n        /* \"#utility.yul\":4918:4937   */\n      swap1\n      pop\n        /* \"#utility.yul\":4561:4943   */\n      swap2\n      swap1\n      pop\n      jump\t// out\n        /* \"#utility.yul\":4949:5075   */\n    tag_181:\n        /* \"#utility.yul\":5044:5068   */\n      tag_183\n        /* \"#utility.yul\":5062:5067   */\n      dup2\n        /* \"#utility.yul\":5044:5068   */\n      tag_184\n      jump\t// in\n    tag_183:\n        /* \"#utility.yul\":5039:5042   */\n      dup3\n        /* \"#utility.yul\":5032:5069   */\n      mstore\n        /* \"#utility.yul\":4949:5075   */\n      pop\n      pop\n      jump\t// out\n        /* \"#utility.yul\":5081:5291   */\n    tag_12:\n        /* \"#utility.yul\":5168:5172   */\n      0x00\n        /* \"#utility.yul\":5206:5208   */\n      0x20\n        /* \"#utility.yul\":5195:5204   */\n      dup3\n        /* \"#utility.yul\":5191:5209   */\n      add\n        /* \"#utility.yul\":5183:5209   */\n      swap1\n      pop\n        /* \"#utility.yul\":5219:5284   */\n      tag_186\n        /* \"#utility.yul\":5281:5282   */\n      0x00\n        /* \"#utility.yul\":5270:5279   */\n      dup4\n        /* \"#utility.yul\":5266:5283   */\n      add\n        /* \"#utility.yul\":5257:5263   */\n      dup5\n        /* \"#utility.yul\":5219:5284   */\n      tag_116\n      jump\t// in\n    tag_186:\n        /* \"#utility.yul\":5081:5291   */\n      swap3\n      swap2\n      pop\n      pop\n      jump\t// out\n        /* \"#utility.yul\":5297:5980   */\n    tag_26:\n        /* \"#utility.yul\":5533:5537   */\n      0x00\n        /* \"#utility.yul\":5571:5573   */\n      0x60\n        /* \"#utility.yul\":5560:5569   */\n      dup3\n        /* \"#utility.yul\":5556:5574   */\n      add\n        /* \"#utility.yul\":5548:5574   */\n      swap1\n      pop\n        /* \"#utility.yul\":5584:5661   */\n      tag_188\n        /* \"#utility.yul\":5658:5659   */\n      0x00\n        /* \"#utility.yul\":5647:5656   */\n      dup4\n        /* \"#utility.yul\":5643:5660   */\n      add\n        /* \"#utility.yul\":5634:5640   */\n      dup6\n        /* \"#utility.yul\":5584:5661   */\n      tag_120\n      jump\t// in\n    tag_188:\n        /* \"#utility.yul\":5671:5759   */\n      tag_189\n        /* \"#utility.yul\":5755:5757   */\n      0x20\n        /* \"#utility.yul\":5744:5753   */\n      dup4\n        /* \"#utility.yul\":5740:5758   */\n      add\n        /* \"#utility.yul\":5731:5737   */\n      dup5\n        /* \"#utility.yul\":5671:5759   */\n      tag_124\n      jump\t// in\n    tag_189:\n        /* \"#utility.yul\":5806:5815   */\n      dup2\n        /* \"#utility.yul\":5800:5804   */\n      dup2\n        /* \"#utility.yul\":5796:5816   */\n      sub\n        /* \"#utility.yul\":5791:5793   */\n      0x40\n        /* \"#utility.yul\":5780:5789   */\n      dup4\n        /* \"#utility.yul\":5776:5794   */\n      add\n        /* \"#utility.yul\":5769:5817   */\n      mstore\n        /* \"#utility.yul\":5834:5973   */\n      tag_190\n        /* \"#utility.yul\":5968:5972   */\n      dup2\n        /* \"#utility.yul\":5834:5973   */\n      tag_171\n      jump\t// in\n    tag_190:\n        /* \"#utility.yul\":5826:5973   */\n      swap1\n      pop\n        /* \"#utility.yul\":5297:5980   */\n      swap4\n      swap3\n      pop\n      pop\n      pop\n      jump\t// out\n        /* \"#utility.yul\":5986:6669   */\n    tag_49:\n        /* \"#utility.yul\":6222:6226   */\n      0x00\n        /* \"#utility.yul\":6260:6262   */\n      0x60\n        /* \"#utility.yul\":6249:6258   */\n      dup3\n        /* \"#utility.yul\":6245:6263   */\n      add\n        /* \"#utility.yul\":6237:6263   */\n      swap1\n      pop\n        /* \"#utility.yul\":6273:6350   */\n      tag_192\n        /* \"#utility.yul\":6347:6348   */\n      0x00\n        /* \"#utility.yul\":6336:6345   */\n      dup4\n        /* \"#utility.yul\":6332:6349   */\n      add\n        /* \"#utility.yul\":6323:6329   */\n      dup6\n        /* \"#utility.yul\":6273:6350   */\n      tag_120\n      jump\t// in\n    tag_192:\n        /* \"#utility.yul\":6360:6448   */\n      tag_193\n        /* \"#utility.yul\":6444:6446   */\n      0x20\n        /* \"#utility.yul\":6433:6442   */\n      dup4\n        /* \"#utility.yul\":6429:6447   */\n      add\n        /* \"#utility.yul\":6420:6426   */\n      dup5\n        /* \"#utility.yul\":6360:6448   */\n      tag_128\n      jump\t// in\n    tag_193:\n        /* \"#utility.yul\":6495:6504   */\n      dup2\n        /* \"#utility.yul\":6489:6493   */\n      dup2\n        /* \"#utility.yul\":6485:6505   */\n      sub\n        /* \"#utility.yul\":6480:6482   */\n      0x40\n        /* \"#utility.yul\":6469:6478   */\n      dup4\n        /* \"#utility.yul\":6465:6483   */\n      add\n        /* \"#utility.yul\":6458:6506   */\n      mstore\n        /* \"#utility.yul\":6523:6662   */\n      tag_194\n        /* \"#utility.yul\":6657:6661   */\n      dup2\n        /* \"#utility.yul\":6523:6662   */\n      tag_166\n      jump\t// in\n    tag_194:\n        /* \"#utility.yul\":6515:6662   */\n      swap1\n      pop\n        /* \"#utility.yul\":5986:6669   */\n      swap4\n      swap3\n      pop\n      pop\n      pop\n      jump\t// out\n        /* \"#utility.yul\":6675:7356   */\n    tag_60:\n        /* \"#utility.yul\":6910:6914   */\n      0x00\n        /* \"#utility.yul\":6948:6950   */\n      0x60\n        /* \"#utility.yul\":6937:6946   */\n      dup3\n        /* \"#utility.yul\":6933:6951   */\n      add\n        /* \"#utility.yul\":6925:6951   */\n      swap1\n      pop\n        /* \"#utility.yul\":6961:7038   */\n      tag_196\n        /* \"#utility.yul\":7035:7036   */\n      0x00\n        /* \"#utility.yul\":7024:7033   */\n      dup4\n        /* \"#utility.yul\":7020:7037   */\n      add\n        /* \"#utility.yul\":7011:7017   */\n      dup6\n        /* \"#utility.yul\":6961:7038   */\n      tag_120\n      jump\t// in\n    tag_196:\n        /* \"#utility.yul\":7048:7135   */\n      tag_197\n        /* \"#utility.yul\":7131:7133   */\n      0x20\n        /* \"#utility.yul\":7120:7129   */\n      dup4\n        /* \"#utility.yul\":7116:7134   */\n      add\n        /* \"#utility.yul\":7107:7113   */\n      dup5\n        /* \"#utility.yul\":7048:7135   */\n      tag_136\n      jump\t// in\n    tag_197:\n        /* \"#utility.yul\":7182:7191   */\n      dup2\n        /* \"#utility.yul\":7176:7180   */\n      dup2\n        /* \"#utility.yul\":7172:7192   */\n      sub\n        /* \"#utility.yul\":7167:7169   */\n      0x40\n        /* \"#utility.yul\":7156:7165   */\n      dup4\n        /* \"#utility.yul\":7152:7170   */\n      add\n        /* \"#utility.yul\":7145:7193   */\n      mstore\n        /* \"#utility.yul\":7210:7349   */\n      tag_198\n        /* \"#utility.yul\":7344:7348   */\n      dup2\n        /* \"#utility.yul\":7210:7349   */\n      tag_161\n      jump\t// in\n    tag_198:\n        /* \"#utility.yul\":7202:7349   */\n      swap1\n      pop\n        /* \"#utility.yul\":6675:7356   */\n      swap4\n      swap3\n      pop\n      pop\n      pop\n      jump\t// out\n        /* \"#utility.yul\":7362:8043   */\n    tag_38:\n        /* \"#utility.yul\":7597:7601   */\n      0x00\n        /* \"#utility.yul\":7635:7637   */\n      0x60\n        /* \"#utility.yul\":7624:7633   */\n      dup3\n        /* \"#utility.yul\":7620:7638   */\n      add\n        /* \"#utility.yul\":7612:7638   */\n      swap1\n      pop\n        /* \"#utility.yul\":7648:7725   */\n      tag_200\n        /* \"#utility.yul\":7722:7723   */\n      0x00\n        /* \"#utility.yul\":7711:7720   */\n      dup4\n        /* \"#utility.yul\":7707:7724   */\n      add\n        /* \"#utility.yul\":7698:7704   */\n      dup6\n        /* \"#utility.yul\":7648:7725   */\n      tag_120\n      jump\t// in\n    tag_200:\n        /* \"#utility.yul\":7735:7822   */\n      tag_201\n        /* \"#utility.yul\":7818:7820   */\n      0x20\n        /* \"#utility.yul\":7807:7816   */\n      dup4\n        /* \"#utility.yul\":7803:7821   */\n      add\n        /* \"#utility.yul\":7794:7800   */\n      dup5\n        /* \"#utility.yul\":7735:7822   */\n      tag_143\n      jump\t// in\n    tag_201:\n        /* \"#utility.yul\":7869:7878   */\n      dup2\n        /* \"#utility.yul\":7863:7867   */\n      dup2\n        /* \"#utility.yul\":7859:7879   */\n      sub\n        /* \"#utility.yul\":7854:7856   */\n      0x40\n        /* \"#utility.yul\":7843:7852   */\n      dup4\n        /* \"#utility.yul\":7839:7857   */\n      add\n        /* \"#utility.yul\":7832:7880   */\n      mstore\n        /* \"#utility.yul\":7897:8036   */\n      tag_202\n        /* \"#utility.yul\":8031:8035   */\n      dup2\n        /* \"#utility.yul\":7897:8036   */\n      tag_155\n      jump\t// in\n    tag_202:\n        /* \"#utility.yul\":7889:8036   */\n      swap1\n      pop\n        /* \"#utility.yul\":7362:8043   */\n      swap4\n      swap3\n      pop\n      pop\n      pop\n      jump\t// out\n        /* \"#utility.yul\":8049:8287   */\n    tag_66:\n        /* \"#utility.yul\":8150:8154   */\n      0x00\n        /* \"#utility.yul\":8188:8190   */\n      0x20\n        /* \"#utility.yul\":8177:8186   */\n      dup3\n        /* \"#utility.yul\":8173:8191   */\n      add\n        /* \"#utility.yul\":8165:8191   */\n      swap1\n      pop\n        /* \"#utility.yul\":8201:8280   */\n      tag_204\n        /* \"#utility.yul\":8277:8278   */\n      0x00\n        /* \"#utility.yul\":8266:8275   */\n      dup4\n        /* \"#utility.yul\":8262:8279   */\n      add\n        /* \"#utility.yul\":8253:8259   */\n      dup5\n        /* \"#utility.yul\":8201:8280   */\n      tag_139\n      jump\t// in\n    tag_204:\n        /* \"#utility.yul\":8049:8287   */\n      swap3\n      swap2\n      pop\n      pop\n      jump\t// out\n        /* \"#utility.yul\":8293:8653   */\n    tag_19:\n        /* \"#utility.yul\":8428:8432   */\n      0x00\n        /* \"#utility.yul\":8466:8468   */\n      0x40\n        /* \"#utility.yul\":8455:8464   */\n      dup3\n        /* \"#utility.yul\":8451:8469   */\n      add\n        /* \"#utility.yul\":8443:8469   */\n      swap1\n      pop\n        /* \"#utility.yul\":8479:8557   */\n      tag_206\n        /* \"#utility.yul\":8554:8555   */\n      0x00\n        /* \"#utility.yul\":8543:8552   */\n      dup4\n        /* \"#utility.yul\":8539:8556   */\n      add\n        /* \"#utility.yul\":8530:8536   */\n      dup6\n        /* \"#utility.yul\":8479:8557   */\n      tag_151\n      jump\t// in\n    tag_206:\n        /* \"#utility.yul\":8567:8646   */\n      tag_207\n        /* \"#utility.yul\":8642:8644   */\n      0x20\n        /* \"#utility.yul\":8631:8640   */\n      dup4\n        /* \"#utility.yul\":8627:8645   */\n      add\n        /* \"#utility.yul\":8618:8624   */\n      dup5\n        /* \"#utility.yul\":8567:8646   */\n      tag_132\n      jump\t// in\n    tag_207:\n        /* \"#utility.yul\":8293:8653   */\n      swap4\n      swap3\n      pop\n      pop\n      pop\n      jump\t// out\n        /* \"#utility.yul\":8659:9346   */\n    tag_73:\n        /* \"#utility.yul\":8897:8901   */\n      0x00\n        /* \"#utility.yul\":8935:8937   */\n      0x60\n        /* \"#utility.yul\":8924:8933   */\n      dup3\n        /* \"#utility.yul\":8920:8938   */\n      add\n        /* \"#utility.yul\":8912:8938   */\n      swap1\n      pop\n        /* \"#utility.yul\":8948:9027   */\n      tag_209\n        /* \"#utility.yul\":9024:9025   */\n      0x00\n        /* \"#utility.yul\":9013:9022   */\n      dup4\n        /* \"#utility.yul\":9009:9026   */\n      add\n        /* \"#utility.yul\":9000:9006   */\n      dup6\n        /* \"#utility.yul\":8948:9027   */\n      tag_181\n      jump\t// in\n    tag_209:\n        /* \"#utility.yul\":9037:9125   */\n      tag_210\n        /* \"#utility.yul\":9121:9123   */\n      0x20\n        /* \"#utility.yul\":9110:9119   */\n      dup4\n        /* \"#utility.yul\":9106:9124   */\n      add\n        /* \"#utility.yul\":9097:9103   */\n      dup5\n        /* \"#utility.yul\":9037:9125   */\n      tag_147\n      jump\t// in\n    tag_210:\n        /* \"#utility.yul\":9172:9181   */\n      dup2\n        /* \"#utility.yul\":9166:9170   */\n      dup2\n        /* \"#utility.yul\":9162:9182   */\n      sub\n        /* \"#utility.yul\":9157:9159   */\n      0x40\n        /* \"#utility.yul\":9146:9155   */\n      dup4\n        /* \"#utility.yul\":9142:9160   */\n      add\n        /* \"#utility.yul\":9135:9183   */\n      mstore\n        /* \"#utility.yul\":9200:9339   */\n      tag_211\n        /* \"#utility.yul\":9334:9338   */\n      dup2\n        /* \"#utility.yul\":9200:9339   */\n      tag_155\n      jump\t// in\n    tag_211:\n        /* \"#utility.yul\":9192:9339   */\n      swap1\n      pop\n        /* \"#utility.yul\":8659:9346   */\n      swap4\n      swap3\n      pop\n      pop\n      pop\n      jump\t// out\n        /* \"#utility.yul\":9352:10023   */\n    tag_81:\n        /* \"#utility.yul\":9582:9586   */\n      0x00\n        /* \"#utility.yul\":9620:9622   */\n      0x60\n        /* \"#utility.yul\":9609:9618   */\n      dup3\n        /* \"#utility.yul\":9605:9623   */\n      add\n        /* \"#utility.yul\":9597:9623   */\n      swap1\n      pop\n        /* \"#utility.yul\":9633:9712   */\n      tag_213\n        /* \"#utility.yul\":9709:9710   */\n      0x00\n        /* \"#utility.yul\":9698:9707   */\n      dup4\n        /* \"#utility.yul\":9694:9711   */\n      add\n        /* \"#utility.yul\":9685:9691   */\n      dup6\n        /* \"#utility.yul\":9633:9712   */\n      tag_181\n      jump\t// in\n    tag_213:\n        /* \"#utility.yul\":9722:9802   */\n      tag_214\n        /* \"#utility.yul\":9798:9800   */\n      0x20\n        /* \"#utility.yul\":9787:9796   */\n      dup4\n        /* \"#utility.yul\":9783:9801   */\n      add\n        /* \"#utility.yul\":9774:9780   */\n      dup5\n        /* \"#utility.yul\":9722:9802   */\n      tag_181\n      jump\t// in\n    tag_214:\n        /* \"#utility.yul\":9849:9858   */\n      dup2\n        /* \"#utility.yul\":9843:9847   */\n      dup2\n        /* \"#utility.yul\":9839:9859   */\n      sub\n        /* \"#utility.yul\":9834:9836   */\n      0x40\n        /* \"#utility.yul\":9823:9832   */\n      dup4\n        /* \"#utility.yul\":9819:9837   */\n      add\n        /* \"#utility.yul\":9812:9860   */\n      mstore\n        /* \"#utility.yul\":9877:10016   */\n      tag_215\n        /* \"#utility.yul\":10011:10015   */\n      dup2\n        /* \"#utility.yul\":9877:10016   */\n      tag_176\n      jump\t// in\n    tag_215:\n        /* \"#utility.yul\":9869:10016   */\n      swap1\n      pop\n        /* \"#utility.yul\":9352:10023   */\n      swap4\n      swap3\n      pop\n      pop\n      pop\n      jump\t// out\n        /* \"#utility.yul\":10110:10287   */\n    tag_158:\n        /* \"#utility.yul\":10202:10213   */\n      0x00\n        /* \"#utility.yul\":10236:10242   */\n      dup3\n        /* \"#utility.yul\":10231:10234   */\n      dup3\n        /* \"#utility.yul\":10224:10243   */\n      mstore\n        /* \"#utility.yul\":10276:10280   */\n      0x20\n        /* \"#utility.yul\":10271:10274   */\n      dup3\n        /* \"#utility.yul\":10267:10281   */\n      add\n        /* \"#utility.yul\":10252:10281   */\n      swap1\n      pop\n        /* \"#utility.yul\":10110:10287   */\n      swap3\n      swap2\n      pop\n      pop\n      jump\t// out\n        /* \"#utility.yul\":10293:10383   */\n    tag_119:\n        /* \"#utility.yul\":10327:10334   */\n      0x00\n        /* \"#utility.yul\":10370:10375   */\n      dup2\n        /* \"#utility.yul\":10363:10376   */\n      iszero\n        /* \"#utility.yul\":10356:10377   */\n      iszero\n        /* \"#utility.yul\":10345:10377   */\n      swap1\n      pop\n        /* \"#utility.yul\":10293:10383   */\n      swap2\n      swap1\n      pop\n      jump\t// out\n        /* \"#utility.yul\":10389:10465   */\n    tag_123:\n        /* \"#utility.yul\":10425:10432   */\n      0x00\n        /* \"#utility.yul\":10454:10459   */\n      dup2\n        /* \"#utility.yul\":10443:10459   */\n      swap1\n      pop\n        /* \"#utility.yul\":10389:10465   */\n      swap2\n      swap1\n      pop\n      jump\t// out\n        /* \"#utility.yul\":10471:10548   */\n    tag_184:\n        /* \"#utility.yul\":10508:10515   */\n      0x00\n        /* \"#utility.yul\":10537:10542   */\n      dup2\n        /* \"#utility.yul\":10526:10542   */\n      swap1\n      pop\n        /* \"#utility.yul\":10471:10548   */\n      swap2\n      swap1\n      pop\n      jump\t// out\n        /* \"#utility.yul\":10554:10674   */\n    tag_127:\n        /* \"#utility.yul\":10612:10621   */\n      0x00\n        /* \"#utility.yul\":10645:10668   */\n      tag_223\n        /* \"#utility.yul\":10662:10667   */\n      dup3\n        /* \"#utility.yul\":10645:10668   */\n      tag_123\n      jump\t// in\n    tag_223:\n        /* \"#utility.yul\":10632:10668   */\n      swap1\n      pop\n        /* \"#utility.yul\":10554:10674   */\n      swap2\n      swap1\n      pop\n      jump\t// out\n        /* \"#utility.yul\":10680:10800   */\n    tag_131:\n        /* \"#utility.yul\":10738:10747   */\n      0x00\n        /* \"#utility.yul\":10771:10794   */\n      tag_225\n        /* \"#utility.yul\":10788:10793   */\n      dup3\n        /* \"#utility.yul\":10771:10794   */\n      tag_123\n      jump\t// in\n    tag_225:\n        /* \"#utility.yul\":10758:10794   */\n      swap1\n      pop\n        /* \"#utility.yul\":10680:10800   */\n      swap2\n      swap1\n      pop\n      jump\t// out\n        /* \"#utility.yul\":10806:10925   */\n    tag_135:\n        /* \"#utility.yul\":10863:10872   */\n      0x00\n        /* \"#utility.yul\":10896:10919   */\n      tag_227\n        /* \"#utility.yul\":10913:10918   */\n      dup3\n        /* \"#utility.yul\":10896:10919   */\n      tag_123\n      jump\t// in\n    tag_227:\n        /* \"#utility.yul\":10883:10919   */\n      swap1\n      pop\n        /* \"#utility.yul\":10806:10925   */\n      swap2\n      swap1\n      pop\n      jump\t// out\n        /* \"#utility.yul\":10931:11052   */\n    tag_142:\n        /* \"#utility.yul\":10989:10998   */\n      0x00\n        /* \"#utility.yul\":11022:11046   */\n      tag_229\n        /* \"#utility.yul\":11040:11045   */\n      dup3\n        /* \"#utility.yul\":11022:11046   */\n      tag_184\n      jump\t// in\n    tag_229:\n        /* \"#utility.yul\":11009:11046   */\n      swap1\n      pop\n        /* \"#utility.yul\":10931:11052   */\n      swap2\n      swap1\n      pop\n      jump\t// out\n        /* \"#utility.yul\":11058:11177   */\n    tag_146:\n        /* \"#utility.yul\":11115:11124   */\n      0x00\n        /* \"#utility.yul\":11148:11171   */\n      tag_231\n        /* \"#utility.yul\":11165:11170   */\n      dup3\n        /* \"#utility.yul\":11148:11171   */\n      tag_123\n      jump\t// in\n    tag_231:\n        /* \"#utility.yul\":11135:11171   */\n      swap1\n      pop\n        /* \"#utility.yul\":11058:11177   */\n      swap2\n      swap1\n      pop\n      jump\t// out\n        /* \"#utility.yul\":11183:11304   */\n    tag_150:\n        /* \"#utility.yul\":11241:11250   */\n      0x00\n        /* \"#utility.yul\":11274:11298   */\n      tag_233\n        /* \"#utility.yul\":11292:11297   */\n      dup3\n        /* \"#utility.yul\":11274:11298   */\n      tag_184\n      jump\t// in\n    tag_233:\n        /* \"#utility.yul\":11261:11298   */\n      swap1\n      pop\n        /* \"#utility.yul\":11183:11304   */\n      swap2\n      swap1\n      pop\n      jump\t// out\n        /* \"#utility.yul\":11310:11429   */\n    tag_154:\n        /* \"#utility.yul\":11367:11376   */\n      0x00\n        /* \"#utility.yul\":11400:11423   */\n      tag_235\n        /* \"#utility.yul\":11417:11422   */\n      dup3\n        /* \"#utility.yul\":11400:11423   */\n      tag_123\n      jump\t// in\n    tag_235:\n        /* \"#utility.yul\":11387:11423   */\n      swap1\n      pop\n        /* \"#utility.yul\":11310:11429   */\n      swap2\n      swap1\n      pop\n      jump\t// out\n        /* \"#utility.yul\":11558:11675   */\n    tag_106:\n        /* \"#utility.yul\":11667:11668   */\n      0x00\n        /* \"#utility.yul\":11664:11665   */\n      dup1\n        /* \"#utility.yul\":11657:11669   */\n      revert\n        /* \"#utility.yul\":11681:11842   */\n    tag_160:\n        /* \"#utility.yul\":11821:11834   */\n      0x73686f756c642062652036000000000000000000000000000000000000000000\n        /* \"#utility.yul\":11817:11818   */\n      0x00\n        /* \"#utility.yul\":11809:11815   */\n      dup3\n        /* \"#utility.yul\":11805:11819   */\n      add\n        /* \"#utility.yul\":11798:11835   */\n      mstore\n        /* \"#utility.yul\":11681:11842   */\n      pop\n      jump\t// out\n        /* \"#utility.yul\":11848:12009   */\n    tag_165:\n        /* \"#utility.yul\":11988:12001   */\n      0x73686f756c642062652033000000000000000000000000000000000000000000\n        /* \"#utility.yul\":11984:11985   */\n      0x00\n        /* \"#utility.yul\":11976:11982   */\n      dup3\n        /* \"#utility.yul\":11972:11986   */\n      add\n        /* \"#utility.yul\":11965:12002   */\n      mstore\n        /* \"#utility.yul\":11848:12009   */\n      pop\n      jump\t// out\n        /* \"#utility.yul\":12015:12177   */\n    tag_170:\n        /* \"#utility.yul\":12155:12169   */\n      0x73686f756c642062652032370000000000000000000000000000000000000000\n        /* \"#utility.yul\":12151:12152   */\n      0x00\n        /* \"#utility.yul\":12143:12149   */\n      dup3\n        /* \"#utility.yul\":12139:12153   */\n      add\n        /* \"#utility.yul\":12132:12170   */\n      mstore\n        /* \"#utility.yul\":12015:12177   */\n      pop\n      jump\t// out\n        /* \"#utility.yul\":12183:12345   */\n    tag_175:\n        /* \"#utility.yul\":12323:12337   */\n      0x73686f756c642062652031320000000000000000000000000000000000000000\n        /* \"#utility.yul\":12319:12320   */\n      0x00\n        /* \"#utility.yul\":12311:12317   */\n      dup3\n        /* \"#utility.yul\":12307:12321   */\n      add\n        /* \"#utility.yul\":12300:12338   */\n      mstore\n        /* \"#utility.yul\":12183:12345   */\n      pop\n      jump\t// out\n        /* \"#utility.yul\":12351:12527   */\n    tag_180:\n        /* \"#utility.yul\":12491:12519   */\n      0x312073686f756c64206e6f7420626520657175616c20746f2031000000000000\n        /* \"#utility.yul\":12487:12488   */\n      0x00\n        /* \"#utility.yul\":12479:12485   */\n      dup3\n        /* \"#utility.yul\":12475:12489   */\n      add\n        /* \"#utility.yul\":12468:12520   */\n      mstore\n        /* \"#utility.yul\":12351:12527   */\n      pop\n      jump\t// out\n        /* \"#utility.yul\":12533:12649   */\n    tag_94:\n        /* \"#utility.yul\":12603:12624   */\n      tag_245\n        /* \"#utility.yul\":12618:12623   */\n      dup2\n        /* \"#utility.yul\":12603:12624   */\n      tag_119\n      jump\t// in\n    tag_245:\n        /* \"#utility.yul\":12596:12601   */\n      dup2\n        /* \"#utility.yul\":12593:12625   */\n      eq\n        /* \"#utility.yul\":12583:12643   */\n      tag_246\n      jumpi\n        /* \"#utility.yul\":12639:12640   */\n      0x00\n        /* \"#utility.yul\":12636:12637   */\n      dup1\n        /* \"#utility.yul\":12629:12641   */\n      revert\n        /* \"#utility.yul\":12583:12643   */\n    tag_246:\n        /* \"#utility.yul\":12533:12649   */\n      pop\n      jump\t// out\n        /* \"#utility.yul\":12655:12775   */\n    tag_98:\n        /* \"#utility.yul\":12727:12750   */\n      tag_248\n        /* \"#utility.yul\":12744:12749   */\n      dup2\n        /* \"#utility.yul\":12727:12750   */\n      tag_123\n      jump\t// in\n    tag_248:\n        /* \"#utility.yul\":12720:12725   */\n      dup2\n        /* \"#utility.yul\":12717:12751   */\n      eq\n        /* \"#utility.yul\":12707:12769   */\n      tag_249\n      jumpi\n        /* \"#utility.yul\":12765:12766   */\n      0x00\n        /* \"#utility.yul\":12762:12763   */\n      dup1\n        /* \"#utility.yul\":12755:12767   */\n      revert\n        /* \"#utility.yul\":12707:12769   */\n    tag_249:\n        /* \"#utility.yul\":12655:12775   */\n      pop\n      jump\t// out\n        /* \"#utility.yul\":12781:12903   */\n    tag_102:\n        /* \"#utility.yul\":12854:12878   */\n      tag_251\n        /* \"#utility.yul\":12872:12877   */\n      dup2\n        /* \"#utility.yul\":12854:12878   */\n      tag_184\n      jump\t// in\n    tag_251:\n        /* \"#utility.yul\":12847:12852   */\n      dup2\n        /* \"#utility.yul\":12844:12879   */\n      eq\n        /* \"#utility.yul\":12834:12897   */\n      tag_252\n      jumpi\n        /* \"#utility.yul\":12893:12894   */\n      0x00\n        /* \"#utility.yul\":12890:12891   */\n      dup1\n        /* \"#utility.yul\":12883:12895   */\n      revert\n        /* \"#utility.yul\":12834:12897   */\n    tag_252:\n        /* \"#utility.yul\":12781:12903   */\n      pop\n      jump\t// out\n    stop\n\n    sub_0: assembly {\n            /* \"Documents/GitHub/SOLIDITY-REMIX/5ef069451e67668750287d64bc5f8bae/calculadora.sol\":94:957  contract Calculadora {\r... */\n          mstore(0x40, 0x80)\n          callvalue\n          dup1\n          iszero\n          tag_1\n          jumpi\n          0x00\n          dup1\n          revert\n        tag_1:\n          pop\n          dataSize(sub_0)\n          dup1\n          dataOffset(sub_0)\n          0x00\n          codecopy\n          0x00\n          return\n        stop\n\n        sub_0: assembly {\n                /* \"Documents/GitHub/SOLIDITY-REMIX/5ef069451e67668750287d64bc5f8bae/calculadora.sol\":94:957  contract Calculadora {\r... */\n              mstore(0x40, 0x80)\n              callvalue\n              dup1\n              iszero\n              tag_1\n              jumpi\n              0x00\n              dup1\n              revert\n            tag_1:\n              pop\n              jumpi(tag_2, lt(calldatasize, 0x04))\n              shr(0xe0, calldataload(0x00))\n              dup1\n              0x7ea9e058\n              gt\n              tag_11\n              jumpi\n              dup1\n              0x7ea9e058\n              eq\n              tag_7\n              jumpi\n              dup1\n              0x83714834\n              eq\n              tag_8\n              jumpi\n              dup1\n              0x8f8a0d19\n              eq\n              tag_9\n              jumpi\n              dup1\n              0xb8501073\n              eq\n              tag_10\n              jumpi\n              jump(tag_2)\n            tag_11:\n              dup1\n              0x09b7cdda\n              eq\n              tag_3\n              jumpi\n              dup1\n              0x187983bf\n              eq\n              tag_4\n              jumpi\n              dup1\n              0x4c627bad\n              eq\n              tag_5\n              jumpi\n              dup1\n              0x7d825142\n              eq\n              tag_6\n              jumpi\n            tag_2:\n              0x00\n              dup1\n              revert\n                /* \"Documents/GitHub/SOLIDITY-REMIX/5ef069451e67668750287d64bc5f8bae/calculadora.sol\":463:557  function division(int a,int b) public pure returns (int){\r... */\n            tag_3:\n              tag_12\n              0x04\n              dup1\n              calldatasize\n              sub\n              dup2\n              add\n              swap1\n              tag_13\n              swap2\n              swap1\n              tag_14\n              jump\t// in\n            tag_13:\n              tag_15\n              jump\t// in\n            tag_12:\n              mload(0x40)\n              tag_16\n              swap2\n              swap1\n              tag_17\n              jump\t// in\n            tag_16:\n              mload(0x40)\n              dup1\n              swap2\n              sub\n              swap1\n              return\n                /* \"Documents/GitHub/SOLIDITY-REMIX/5ef069451e67668750287d64bc5f8bae/calculadora.sol\":350:455  function multiplicacion(int a, int b) public pure returns (int){\r... */\n            tag_4:\n              tag_18\n              0x04\n              dup1\n              calldatasize\n              sub\n              dup2\n              add\n              swap1\n              tag_19\n              swap2\n              swap1\n              tag_14\n              jump\t// in\n            tag_19:\n              tag_20\n              jump\t// in\n            tag_18:\n              mload(0x40)\n              tag_21\n              swap2\n              swap1\n              tag_17\n              jump\t// in\n            tag_21:\n              mload(0x40)\n              dup1\n              swap2\n              sub\n              swap1\n              return\n                /* \"Documents/GitHub/SOLIDITY-REMIX/5ef069451e67668750287d64bc5f8bae/calculadora.sol\":251:342  function resta(int a, int b) public pure returns (int){\r... */\n            tag_5:\n              tag_22\n              0x04\n              dup1\n              calldatasize\n              sub\n              dup2\n              add\n              swap1\n              tag_23\n              swap2\n              swap1\n              tag_14\n              jump\t// in\n            tag_23:\n              tag_24\n              jump\t// in\n            tag_22:\n              mload(0x40)\n              tag_25\n              swap2\n              swap1\n              tag_17\n              jump\t// in\n            tag_25:\n              mload(0x40)\n              dup1\n              swap2\n              sub\n              swap1\n              return\n                /* \"Documents/GitHub/SOLIDITY-REMIX/5ef069451e67668750287d64bc5f8bae/calculadora.sol\":667:762  function  valorAbsoluto(int a) public pure returns (uint){\r... */\n            tag_6:\n              tag_26\n              0x04\n              dup1\n              calldatasize\n              sub\n              dup2\n              add\n              swap1\n              tag_27\n              swap2\n              swap1\n              tag_28\n              jump\t// in\n            tag_27:\n              tag_29\n              jump\t// in\n            tag_26:\n              mload(0x40)\n              tag_30\n              swap2\n              swap1\n              tag_31\n              jump\t// in\n            tag_30:\n              mload(0x40)\n              dup1\n              swap2\n              sub\n              swap1\n              return\n                /* \"Documents/GitHub/SOLIDITY-REMIX/5ef069451e67668750287d64bc5f8bae/calculadora.sol\":770:855  function cuadrado(int a) public pure returns (uint){\r... */\n            tag_7:\n              tag_32\n              0x04\n              dup1\n              calldatasize\n              sub\n              dup2\n              add\n              swap1\n              tag_33\n              swap2\n              swap1\n              tag_28\n              jump\t// in\n            tag_33:\n              tag_34\n              jump\t// in\n            tag_32:\n              mload(0x40)\n              tag_35\n              swap2\n              swap1\n              tag_31\n              jump\t// in\n            tag_35:\n              mload(0x40)\n              dup1\n              swap2\n              sub\n              swap1\n              return\n                /* \"Documents/GitHub/SOLIDITY-REMIX/5ef069451e67668750287d64bc5f8bae/calculadora.sol\":565:659  function factorial(uint a) public pure returns (uint){\r... */\n            tag_8:\n              tag_36\n              0x04\n              dup1\n              calldatasize\n              sub\n              dup2\n              add\n              swap1\n              tag_37\n              swap2\n              swap1\n              tag_38\n              jump\t// in\n            tag_37:\n              tag_39\n              jump\t// in\n            tag_36:\n              mload(0x40)\n              tag_40\n              swap2\n              swap1\n              tag_31\n              jump\t// in\n            tag_40:\n              mload(0x40)\n              dup1\n              swap2\n              sub\n              swap1\n              return\n                /* \"Documents/GitHub/SOLIDITY-REMIX/5ef069451e67668750287d64bc5f8bae/calculadora.sol\":150:243  function suma(int a, int b) public pure returns (int){\r... */\n            tag_9:\n              tag_41\n              0x04\n              dup1\n              calldatasize\n              sub\n              dup2\n              add\n              swap1\n              tag_42\n              swap2\n              swap1\n              tag_14\n              jump\t// in\n            tag_42:\n              tag_43\n              jump\t// in\n            tag_41:\n              mload(0x40)\n              tag_44\n              swap2\n              swap1\n              tag_17\n              jump\t// in\n            tag_44:\n              mload(0x40)\n              dup1\n              swap2\n              sub\n              swap1\n              return\n                /* \"Documents/GitHub/SOLIDITY-REMIX/5ef069451e67668750287d64bc5f8bae/calculadora.sol\":863:954  function raizCuadrada(int128 a) public pure returns (int){\r... */\n            tag_10:\n              tag_45\n              0x04\n              dup1\n              calldatasize\n              sub\n              dup2\n              add\n              swap1\n              tag_46\n              swap2\n              swap1\n              tag_47\n              jump\t// in\n            tag_46:\n              tag_48\n              jump\t// in\n            tag_45:\n              mload(0x40)\n              tag_49\n              swap2\n              swap1\n              tag_17\n              jump\t// in\n            tag_49:\n              mload(0x40)\n              dup1\n              swap2\n              sub\n              swap1\n              return\n                /* \"Documents/GitHub/SOLIDITY-REMIX/5ef069451e67668750287d64bc5f8bae/calculadora.sol\":463:557  function division(int a,int b) public pure returns (int){\r... */\n            tag_15:\n                /* \"Documents/GitHub/SOLIDITY-REMIX/5ef069451e67668750287d64bc5f8bae/calculadora.sol\":515:518  int */\n              0x00\n                /* \"Documents/GitHub/SOLIDITY-REMIX/5ef069451e67668750287d64bc5f8bae/calculadora.sol\":537:549  a.dividir(b) */\n              tag_51\n                /* \"Documents/GitHub/SOLIDITY-REMIX/5ef069451e67668750287d64bc5f8bae/calculadora.sol\":547:548  b */\n              dup3\n                /* \"Documents/GitHub/SOLIDITY-REMIX/5ef069451e67668750287d64bc5f8bae/calculadora.sol\":537:538  a */\n              dup5\n                /* \"Documents/GitHub/SOLIDITY-REMIX/5ef069451e67668750287d64bc5f8bae/calculadora.sol\":537:546  a.dividir */\n              tag_52\n              swap1\n                /* \"Documents/GitHub/SOLIDITY-REMIX/5ef069451e67668750287d64bc5f8bae/calculadora.sol\":537:549  a.dividir(b) */\n              swap2\n              swap1\n              0xffffffff\n              and\n              jump\t// in\n            tag_51:\n                /* \"Documents/GitHub/SOLIDITY-REMIX/5ef069451e67668750287d64bc5f8bae/calculadora.sol\":530:549  return a.dividir(b) */\n              swap1\n              pop\n                /* \"Documents/GitHub/SOLIDITY-REMIX/5ef069451e67668750287d64bc5f8bae/calculadora.sol\":463:557  function division(int a,int b) public pure returns (int){\r... */\n              swap3\n              swap2\n              pop\n              pop\n              jump\t// out\n                /* \"Documents/GitHub/SOLIDITY-REMIX/5ef069451e67668750287d64bc5f8bae/calculadora.sol\":350:455  function multiplicacion(int a, int b) public pure returns (int){\r... */\n            tag_20:\n                /* \"Documents/GitHub/SOLIDITY-REMIX/5ef069451e67668750287d64bc5f8bae/calculadora.sol\":409:412  int */\n              0x00\n                /* \"Documents/GitHub/SOLIDITY-REMIX/5ef069451e67668750287d64bc5f8bae/calculadora.sol\":431:447  a.multiplicar(b) */\n              tag_54\n                /* \"Documents/GitHub/SOLIDITY-REMIX/5ef069451e67668750287d64bc5f8bae/calculadora.sol\":445:446  b */\n              dup3\n                /* \"Documents/GitHub/SOLIDITY-REMIX/5ef069451e67668750287d64bc5f8bae/calculadora.sol\":431:432  a */\n              dup5\n                /* \"Documents/GitHub/SOLIDITY-REMIX/5ef069451e67668750287d64bc5f8bae/calculadora.sol\":431:444  a.multiplicar */\n              tag_55\n              swap1\n                /* \"Documents/GitHub/SOLIDITY-REMIX/5ef069451e67668750287d64bc5f8bae/calculadora.sol\":431:447  a.multiplicar(b) */\n              swap2\n              swap1\n              0xffffffff\n              and\n              jump\t// in\n            tag_54:\n                /* \"Documents/GitHub/SOLIDITY-REMIX/5ef069451e67668750287d64bc5f8bae/calculadora.sol\":424:447  return a.multiplicar(b) */\n              swap1\n              pop\n                /* \"Documents/GitHub/SOLIDITY-REMIX/5ef069451e67668750287d64bc5f8bae/calculadora.sol\":350:455  function multiplicacion(int a, int b) public pure returns (int){\r... */\n              swap3\n              swap2\n              pop\n              pop\n              jump\t// out\n                /* \"Documents/GitHub/SOLIDITY-REMIX/5ef069451e67668750287d64bc5f8bae/calculadora.sol\":251:342  function resta(int a, int b) public pure returns (int){\r... */\n            tag_24:\n                /* \"Documents/GitHub/SOLIDITY-REMIX/5ef069451e67668750287d64bc5f8bae/calculadora.sol\":301:304  int */\n              0x00\n                /* \"Documents/GitHub/SOLIDITY-REMIX/5ef069451e67668750287d64bc5f8bae/calculadora.sol\":323:334  a.restar(b) */\n              tag_57\n                /* \"Documents/GitHub/SOLIDITY-REMIX/5ef069451e67668750287d64bc5f8bae/calculadora.sol\":332:333  b */\n              dup3\n                /* \"Documents/GitHub/SOLIDITY-REMIX/5ef069451e67668750287d64bc5f8bae/calculadora.sol\":323:324  a */\n              dup5\n                /* \"Documents/GitHub/SOLIDITY-REMIX/5ef069451e67668750287d64bc5f8bae/calculadora.sol\":323:331  a.restar */\n              tag_58\n              swap1\n                /* \"Documents/GitHub/SOLIDITY-REMIX/5ef069451e67668750287d64bc5f8bae/calculadora.sol\":323:334  a.restar(b) */\n              swap2\n              swap1\n              0xffffffff\n              and\n              jump\t// in\n            tag_57:\n                /* \"Documents/GitHub/SOLIDITY-REMIX/5ef069451e67668750287d64bc5f8bae/calculadora.sol\":316:334  return a.restar(b) */\n              swap1\n              pop\n                /* \"Documents/GitHub/SOLIDITY-REMIX/5ef069451e67668750287d64bc5f8bae/calculadora.sol\":251:342  function resta(int a, int b) public pure returns (int){\r... */\n              swap3\n              swap2\n              pop\n              pop\n              jump\t// out\n                /* \"Documents/GitHub/SOLIDITY-REMIX/5ef069451e67668750287d64bc5f8bae/calculadora.sol\":667:762  function  valorAbsoluto(int a) public pure returns (uint){\r... */\n            tag_29:\n                /* \"Documents/GitHub/SOLIDITY-REMIX/5ef069451e67668750287d64bc5f8bae/calculadora.sol\":719:723  uint */\n              0x00\n                /* \"Documents/GitHub/SOLIDITY-REMIX/5ef069451e67668750287d64bc5f8bae/calculadora.sol\":742:754  a.absoluto() */\n              tag_60\n                /* \"Documents/GitHub/SOLIDITY-REMIX/5ef069451e67668750287d64bc5f8bae/calculadora.sol\":742:743  a */\n              dup3\n                /* \"Documents/GitHub/SOLIDITY-REMIX/5ef069451e67668750287d64bc5f8bae/calculadora.sol\":742:752  a.absoluto */\n              tag_61\n                /* \"Documents/GitHub/SOLIDITY-REMIX/5ef069451e67668750287d64bc5f8bae/calculadora.sol\":742:754  a.absoluto() */\n              jump\t// in\n            tag_60:\n                /* \"Documents/GitHub/SOLIDITY-REMIX/5ef069451e67668750287d64bc5f8bae/calculadora.sol\":735:754  return a.absoluto() */\n              swap1\n              pop\n                /* \"Documents/GitHub/SOLIDITY-REMIX/5ef069451e67668750287d64bc5f8bae/calculadora.sol\":667:762  function  valorAbsoluto(int a) public pure returns (uint){\r... */\n              swap2\n              swap1\n              pop\n              jump\t// out\n                /* \"Documents/GitHub/SOLIDITY-REMIX/5ef069451e67668750287d64bc5f8bae/calculadora.sol\":770:855  function cuadrado(int a) public pure returns (uint){\r... */\n            tag_34:\n                /* \"Documents/GitHub/SOLIDITY-REMIX/5ef069451e67668750287d64bc5f8bae/calculadora.sol\":816:820  uint */\n              0x00\n                /* \"Documents/GitHub/SOLIDITY-REMIX/5ef069451e67668750287d64bc5f8bae/calculadora.sol\":839:847  a.pow2() */\n              tag_63\n                /* \"Documents/GitHub/SOLIDITY-REMIX/5ef069451e67668750287d64bc5f8bae/calculadora.sol\":839:840  a */\n              dup3\n                /* \"Documents/GitHub/SOLIDITY-REMIX/5ef069451e67668750287d64bc5f8bae/calculadora.sol\":839:845  a.pow2 */\n              tag_64\n                /* \"Documents/GitHub/SOLIDITY-REMIX/5ef069451e67668750287d64bc5f8bae/calculadora.sol\":839:847  a.pow2() */\n              jump\t// in\n            tag_63:\n                /* \"Documents/GitHub/SOLIDITY-REMIX/5ef069451e67668750287d64bc5f8bae/calculadora.sol\":832:847  return a.pow2() */\n              swap1\n              pop\n                /* \"Documents/GitHub/SOLIDITY-REMIX/5ef069451e67668750287d64bc5f8bae/calculadora.sol\":770:855  function cuadrado(int a) public pure returns (uint){\r... */\n              swap2\n              swap1\n              pop\n              jump\t// out\n                /* \"Documents/GitHub/SOLIDITY-REMIX/5ef069451e67668750287d64bc5f8bae/calculadora.sol\":565:659  function factorial(uint a) public pure returns (uint){\r... */\n            tag_39:\n                /* \"Documents/GitHub/SOLIDITY-REMIX/5ef069451e67668750287d64bc5f8bae/calculadora.sol\":613:617  uint */\n              0x00\n                /* \"Documents/GitHub/SOLIDITY-REMIX/5ef069451e67668750287d64bc5f8bae/calculadora.sol\":636:651  a.factoriales() */\n              tag_66\n                /* \"Documents/GitHub/SOLIDITY-REMIX/5ef069451e67668750287d64bc5f8bae/calculadora.sol\":636:637  a */\n              dup3\n                /* \"Documents/GitHub/SOLIDITY-REMIX/5ef069451e67668750287d64bc5f8bae/calculadora.sol\":636:649  a.factoriales */\n              tag_67\n                /* \"Documents/GitHub/SOLIDITY-REMIX/5ef069451e67668750287d64bc5f8bae/calculadora.sol\":636:651  a.factoriales() */\n              jump\t// in\n            tag_66:\n                /* \"Documents/GitHub/SOLIDITY-REMIX/5ef069451e67668750287d64bc5f8bae/calculadora.sol\":629:651  return a.factoriales() */\n              swap1\n              pop\n                /* \"Documents/GitHub/SOLIDITY-REMIX/5ef069451e67668750287d64bc5f8bae/calculadora.sol\":565:659  function factorial(uint a) public pure returns (uint){\r... */\n              swap2\n              swap1\n              pop\n              jump\t// out\n                /* \"Documents/GitHub/SOLIDITY-REMIX/5ef069451e67668750287d64bc5f8bae/calculadora.sol\":150:243  function suma(int a, int b) public pure returns (int){\r... */\n            tag_43:\n                /* \"Documents/GitHub/SOLIDITY-REMIX/5ef069451e67668750287d64bc5f8bae/calculadora.sol\":199:202  int */\n              0x00\n                /* \"Documents/GitHub/SOLIDITY-REMIX/5ef069451e67668750287d64bc5f8bae/calculadora.sol\":225:235  a.sumar(b) */\n              tag_69\n                /* \"Documents/GitHub/SOLIDITY-REMIX/5ef069451e67668750287d64bc5f8bae/calculadora.sol\":233:234  b */\n              dup3\n                /* \"Documents/GitHub/SOLIDITY-REMIX/5ef069451e67668750287d64bc5f8bae/calculadora.sol\":225:226  a */\n              dup5\n                /* \"Documents/GitHub/SOLIDITY-REMIX/5ef069451e67668750287d64bc5f8bae/calculadora.sol\":225:232  a.sumar */\n              tag_70\n              swap1\n                /* \"Documents/GitHub/SOLIDITY-REMIX/5ef069451e67668750287d64bc5f8bae/calculadora.sol\":225:235  a.sumar(b) */\n              swap2\n              swap1\n              0xffffffff\n              and\n              jump\t// in\n            tag_69:\n                /* \"Documents/GitHub/SOLIDITY-REMIX/5ef069451e67668750287d64bc5f8bae/calculadora.sol\":218:235  return a.sumar(b) */\n              swap1\n              pop\n                /* \"Documents/GitHub/SOLIDITY-REMIX/5ef069451e67668750287d64bc5f8bae/calculadora.sol\":150:243  function suma(int a, int b) public pure returns (int){\r... */\n              swap3\n              swap2\n              pop\n              pop\n              jump\t// out\n                /* \"Documents/GitHub/SOLIDITY-REMIX/5ef069451e67668750287d64bc5f8bae/calculadora.sol\":863:954  function raizCuadrada(int128 a) public pure returns (int){\r... */\n            tag_48:\n                /* \"Documents/GitHub/SOLIDITY-REMIX/5ef069451e67668750287d64bc5f8bae/calculadora.sol\":916:919  int */\n              0x00\n                /* \"Documents/GitHub/SOLIDITY-REMIX/5ef069451e67668750287d64bc5f8bae/calculadora.sol\":938:946  a.sqrt() */\n              tag_72\n                /* \"Documents/GitHub/SOLIDITY-REMIX/5ef069451e67668750287d64bc5f8bae/calculadora.sol\":938:939  a */\n              dup3\n                /* \"Documents/GitHub/SOLIDITY-REMIX/5ef069451e67668750287d64bc5f8bae/calculadora.sol\":938:944  a.sqrt */\n              0x0f\n              signextend\n              tag_73\n                /* \"Documents/GitHub/SOLIDITY-REMIX/5ef069451e67668750287d64bc5f8bae/calculadora.sol\":938:946  a.sqrt() */\n              jump\t// in\n            tag_72:\n                /* \"Documents/GitHub/SOLIDITY-REMIX/5ef069451e67668750287d64bc5f8bae/calculadora.sol\":931:946  return a.sqrt() */\n              0x0f\n              signextend\n              swap1\n              pop\n                /* \"Documents/GitHub/SOLIDITY-REMIX/5ef069451e67668750287d64bc5f8bae/calculadora.sol\":863:954  function raizCuadrada(int128 a) public pure returns (int){\r... */\n              swap2\n              swap1\n              pop\n              jump\t// out\n                /* \"Documents/GitHub/SOLIDITY-REMIX/5ef069451e67668750287d64bc5f8bae/libmates.sol\":396:490  function dividir(int _a,int _b) internal pure returns(int) {\r... */\n            tag_52:\n                /* \"Documents/GitHub/SOLIDITY-REMIX/5ef069451e67668750287d64bc5f8bae/libmates.sol\":450:453  int */\n              0x00\n                /* \"Documents/GitHub/SOLIDITY-REMIX/5ef069451e67668750287d64bc5f8bae/libmates.sol\":479:481  _b */\n              dup2\n                /* \"Documents/GitHub/SOLIDITY-REMIX/5ef069451e67668750287d64bc5f8bae/libmates.sol\":474:476  _a */\n              dup4\n                /* \"Documents/GitHub/SOLIDITY-REMIX/5ef069451e67668750287d64bc5f8bae/libmates.sol\":474:481  _a / _b */\n              tag_75\n              swap2\n              swap1\n              tag_76\n              jump\t// in\n            tag_75:\n                /* \"Documents/GitHub/SOLIDITY-REMIX/5ef069451e67668750287d64bc5f8bae/libmates.sol\":466:482  return (_a / _b) */\n              swap1\n              pop\n                /* \"Documents/GitHub/SOLIDITY-REMIX/5ef069451e67668750287d64bc5f8bae/libmates.sol\":396:490  function dividir(int _a,int _b) internal pure returns(int) {\r... */\n              swap3\n              swap2\n              pop\n              pop\n              jump\t// out\n                /* \"Documents/GitHub/SOLIDITY-REMIX/5ef069451e67668750287d64bc5f8bae/libmates.sol\":290:388  function multiplicar(int _a,int _b) internal pure returns(int) {\r... */\n            tag_55:\n                /* \"Documents/GitHub/SOLIDITY-REMIX/5ef069451e67668750287d64bc5f8bae/libmates.sol\":348:351  int */\n              0x00\n                /* \"Documents/GitHub/SOLIDITY-REMIX/5ef069451e67668750287d64bc5f8bae/libmates.sol\":377:379  _b */\n              dup2\n                /* \"Documents/GitHub/SOLIDITY-REMIX/5ef069451e67668750287d64bc5f8bae/libmates.sol\":372:374  _a */\n              dup4\n                /* \"Documents/GitHub/SOLIDITY-REMIX/5ef069451e67668750287d64bc5f8bae/libmates.sol\":372:379  _a * _b */\n              tag_78\n              swap2\n              swap1\n              tag_79\n              jump\t// in\n            tag_78:\n                /* \"Documents/GitHub/SOLIDITY-REMIX/5ef069451e67668750287d64bc5f8bae/libmates.sol\":364:380  return (_a * _b) */\n              swap1\n              pop\n                /* \"Documents/GitHub/SOLIDITY-REMIX/5ef069451e67668750287d64bc5f8bae/libmates.sol\":290:388  function multiplicar(int _a,int _b) internal pure returns(int) {\r... */\n              swap3\n              swap2\n              pop\n              pop\n              jump\t// out\n                /* \"Documents/GitHub/SOLIDITY-REMIX/5ef069451e67668750287d64bc5f8bae/libmates.sol\":189:282  function restar(int _a,int _b) internal pure returns(int) {\r... */\n            tag_58:\n                /* \"Documents/GitHub/SOLIDITY-REMIX/5ef069451e67668750287d64bc5f8bae/libmates.sol\":242:245  int */\n              0x00\n                /* \"Documents/GitHub/SOLIDITY-REMIX/5ef069451e67668750287d64bc5f8bae/libmates.sol\":271:273  _b */\n              dup2\n                /* \"Documents/GitHub/SOLIDITY-REMIX/5ef069451e67668750287d64bc5f8bae/libmates.sol\":266:268  _a */\n              dup4\n                /* \"Documents/GitHub/SOLIDITY-REMIX/5ef069451e67668750287d64bc5f8bae/libmates.sol\":266:273  _a - _b */\n              tag_81\n              swap2\n              swap1\n              tag_82\n              jump\t// in\n            tag_81:\n                /* \"Documents/GitHub/SOLIDITY-REMIX/5ef069451e67668750287d64bc5f8bae/libmates.sol\":258:274  return (_a - _b) */\n              swap1\n              pop\n                /* \"Documents/GitHub/SOLIDITY-REMIX/5ef069451e67668750287d64bc5f8bae/libmates.sol\":189:282  function restar(int _a,int _b) internal pure returns(int) {\r... */\n              swap3\n              swap2\n              pop\n              pop\n              jump\t// out\n                /* \"Documents/GitHub/SOLIDITY-REMIX/5ef069451e67668750287d64bc5f8bae/libmates.sol\":700:884  function absoluto(int _a) internal pure returns(uint) {\r... */\n            tag_61:\n                /* \"Documents/GitHub/SOLIDITY-REMIX/5ef069451e67668750287d64bc5f8bae/libmates.sol\":748:752  uint */\n              0x00\n                /* \"Documents/GitHub/SOLIDITY-REMIX/5ef069451e67668750287d64bc5f8bae/libmates.sol\":774:775  0 */\n              dup1\n                /* \"Documents/GitHub/SOLIDITY-REMIX/5ef069451e67668750287d64bc5f8bae/libmates.sol\":769:771  _a */\n              dup3\n                /* \"Documents/GitHub/SOLIDITY-REMIX/5ef069451e67668750287d64bc5f8bae/libmates.sol\":769:775  _a > 0 */\n              sgt\n                /* \"Documents/GitHub/SOLIDITY-REMIX/5ef069451e67668750287d64bc5f8bae/libmates.sol\":765:877  if (_a > 0){\r... */\n              iszero\n              tag_84\n              jumpi\n                /* \"Documents/GitHub/SOLIDITY-REMIX/5ef069451e67668750287d64bc5f8bae/libmates.sol\":803:805  _a */\n              dup2\n                /* \"Documents/GitHub/SOLIDITY-REMIX/5ef069451e67668750287d64bc5f8bae/libmates.sol\":791:807  return(uint(_a)) */\n              swap1\n              pop\n              jump(tag_83)\n                /* \"Documents/GitHub/SOLIDITY-REMIX/5ef069451e67668750287d64bc5f8bae/libmates.sol\":765:877  if (_a > 0){\r... */\n            tag_84:\n                /* \"Documents/GitHub/SOLIDITY-REMIX/5ef069451e67668750287d64bc5f8bae/libmates.sol\":861:863  _a */\n              dup2\n                /* \"Documents/GitHub/SOLIDITY-REMIX/5ef069451e67668750287d64bc5f8bae/libmates.sol\":860:863  -_a */\n              tag_86\n              swap1\n              tag_87\n              jump\t// in\n            tag_86:\n                /* \"Documents/GitHub/SOLIDITY-REMIX/5ef069451e67668750287d64bc5f8bae/libmates.sol\":848:865  return(uint(-_a)) */\n              swap1\n              pop\n                /* \"Documents/GitHub/SOLIDITY-REMIX/5ef069451e67668750287d64bc5f8bae/libmates.sol\":700:884  function absoluto(int _a) internal pure returns(uint) {\r... */\n            tag_83:\n              swap2\n              swap1\n              pop\n              jump\t// out\n                /* \"Documents/GitHub/SOLIDITY-REMIX/5ef069451e67668750287d64bc5f8bae/libmates.sol\":892:981  function pow2(int _a) internal pure returns(uint) {\r... */\n            tag_64:\n                /* \"Documents/GitHub/SOLIDITY-REMIX/5ef069451e67668750287d64bc5f8bae/libmates.sol\":936:940  uint */\n              0x00\n                /* \"Documents/GitHub/SOLIDITY-REMIX/5ef069451e67668750287d64bc5f8bae/libmates.sol\":970:972  _a */\n              dup2\n                /* \"Documents/GitHub/SOLIDITY-REMIX/5ef069451e67668750287d64bc5f8bae/libmates.sol\":965:967  _a */\n              dup3\n                /* \"Documents/GitHub/SOLIDITY-REMIX/5ef069451e67668750287d64bc5f8bae/libmates.sol\":965:972  _a * _a */\n              tag_89\n              swap2\n              swap1\n              tag_79\n              jump\t// in\n            tag_89:\n                /* \"Documents/GitHub/SOLIDITY-REMIX/5ef069451e67668750287d64bc5f8bae/libmates.sol\":953:973  return uint(_a * _a) */\n              swap1\n              pop\n                /* \"Documents/GitHub/SOLIDITY-REMIX/5ef069451e67668750287d64bc5f8bae/libmates.sol\":892:981  function pow2(int _a) internal pure returns(uint) {\r... */\n              swap2\n              swap1\n              pop\n              jump\t// out\n                /* \"Documents/GitHub/SOLIDITY-REMIX/5ef069451e67668750287d64bc5f8bae/libmates.sol\":498:692  function factoriales(uint _a) internal pure returns(uint){\r... */\n            tag_67:\n                /* \"Documents/GitHub/SOLIDITY-REMIX/5ef069451e67668750287d64bc5f8bae/libmates.sol\":550:554  uint */\n              0x00\n                /* \"Documents/GitHub/SOLIDITY-REMIX/5ef069451e67668750287d64bc5f8bae/libmates.sol\":576:577  1 */\n              0x01\n                /* \"Documents/GitHub/SOLIDITY-REMIX/5ef069451e67668750287d64bc5f8bae/libmates.sol\":570:572  _a */\n              dup3\n                /* \"Documents/GitHub/SOLIDITY-REMIX/5ef069451e67668750287d64bc5f8bae/libmates.sol\":570:577  _a <= 1 */\n              gt\n                /* \"Documents/GitHub/SOLIDITY-REMIX/5ef069451e67668750287d64bc5f8bae/libmates.sol\":566:685  if (_a <= 1){\r... */\n              tag_91\n              jumpi\n                /* \"Documents/GitHub/SOLIDITY-REMIX/5ef069451e67668750287d64bc5f8bae/libmates.sol\":600:601  1 */\n              0x01\n                /* \"Documents/GitHub/SOLIDITY-REMIX/5ef069451e67668750287d64bc5f8bae/libmates.sol\":593:601  return 1 */\n              swap1\n              pop\n              jump(tag_90)\n                /* \"Documents/GitHub/SOLIDITY-REMIX/5ef069451e67668750287d64bc5f8bae/libmates.sol\":566:685  if (_a <= 1){\r... */\n            tag_91:\n                /* \"Documents/GitHub/SOLIDITY-REMIX/5ef069451e67668750287d64bc5f8bae/libmates.sol\":655:672  factoriales(_a-1) */\n              tag_93\n                /* \"Documents/GitHub/SOLIDITY-REMIX/5ef069451e67668750287d64bc5f8bae/libmates.sol\":670:671  1 */\n              0x01\n                /* \"Documents/GitHub/SOLIDITY-REMIX/5ef069451e67668750287d64bc5f8bae/libmates.sol\":667:669  _a */\n              dup4\n                /* \"Documents/GitHub/SOLIDITY-REMIX/5ef069451e67668750287d64bc5f8bae/libmates.sol\":667:671  _a-1 */\n              tag_94\n              swap2\n              swap1\n              tag_95\n              jump\t// in\n            tag_94:\n                /* \"Documents/GitHub/SOLIDITY-REMIX/5ef069451e67668750287d64bc5f8bae/libmates.sol\":655:666  factoriales */\n              tag_67\n                /* \"Documents/GitHub/SOLIDITY-REMIX/5ef069451e67668750287d64bc5f8bae/libmates.sol\":655:672  factoriales(_a-1) */\n              jump\t// in\n            tag_93:\n                /* \"Documents/GitHub/SOLIDITY-REMIX/5ef069451e67668750287d64bc5f8bae/libmates.sol\":650:652  _a */\n              dup3\n                /* \"Documents/GitHub/SOLIDITY-REMIX/5ef069451e67668750287d64bc5f8bae/libmates.sol\":650:672  _a * factoriales(_a-1) */\n              tag_96\n              swap2\n              swap1\n              tag_97\n              jump\t// in\n            tag_96:\n                /* \"Documents/GitHub/SOLIDITY-REMIX/5ef069451e67668750287d64bc5f8bae/libmates.sol\":642:673  return (_a * factoriales(_a-1)) */\n              swap1\n              pop\n                /* \"Documents/GitHub/SOLIDITY-REMIX/5ef069451e67668750287d64bc5f8bae/libmates.sol\":498:692  function factoriales(uint _a) internal pure returns(uint){\r... */\n            tag_90:\n              swap2\n              swap1\n              pop\n              jump\t// out\n                /* \"Documents/GitHub/SOLIDITY-REMIX/5ef069451e67668750287d64bc5f8bae/libmates.sol\":89:181  function sumar(int _a,int _b) internal pure returns(int) {\r... */\n            tag_70:\n                /* \"Documents/GitHub/SOLIDITY-REMIX/5ef069451e67668750287d64bc5f8bae/libmates.sol\":141:144  int */\n              0x00\n                /* \"Documents/GitHub/SOLIDITY-REMIX/5ef069451e67668750287d64bc5f8bae/libmates.sol\":170:172  _b */\n              dup2\n                /* \"Documents/GitHub/SOLIDITY-REMIX/5ef069451e67668750287d64bc5f8bae/libmates.sol\":165:167  _a */\n              dup4\n                /* \"Documents/GitHub/SOLIDITY-REMIX/5ef069451e67668750287d64bc5f8bae/libmates.sol\":165:172  _a + _b */\n              tag_99\n              swap2\n              swap1\n              tag_100\n              jump\t// in\n            tag_99:\n                /* \"Documents/GitHub/SOLIDITY-REMIX/5ef069451e67668750287d64bc5f8bae/libmates.sol\":157:173  return (_a + _b) */\n              swap1\n              pop\n                /* \"Documents/GitHub/SOLIDITY-REMIX/5ef069451e67668750287d64bc5f8bae/libmates.sol\":89:181  function sumar(int _a,int _b) internal pure returns(int) {\r... */\n              swap3\n              swap2\n              pop\n              pop\n              jump\t// out\n                /* \"Documents/GitHub/SOLIDITY-REMIX/5ef069451e67668750287d64bc5f8bae/libmates.sol\":989:1135  function sqrt(int128 x) internal pure returns(int128){\r... */\n            tag_73:\n                /* \"Documents/GitHub/SOLIDITY-REMIX/5ef069451e67668750287d64bc5f8bae/libmates.sol\":1035:1041  int128 */\n              0x00\n                /* \"Documents/GitHub/SOLIDITY-REMIX/5ef069451e67668750287d64bc5f8bae/libmates.sol\":1066:1067  0 */\n              dup1\n                /* \"Documents/GitHub/SOLIDITY-REMIX/5ef069451e67668750287d64bc5f8bae/libmates.sol\":1063:1064  x */\n              dup3\n                /* \"Documents/GitHub/SOLIDITY-REMIX/5ef069451e67668750287d64bc5f8bae/libmates.sol\":1063:1067  x>=0 */\n              0x0f\n              signextend\n              slt\n              iszero\n                /* \"Documents/GitHub/SOLIDITY-REMIX/5ef069451e67668750287d64bc5f8bae/libmates.sol\":1053:1069  require ( x>=0 ) */\n              tag_102\n              jumpi\n              0x00\n              dup1\n              revert\n            tag_102:\n                /* \"Documents/GitHub/SOLIDITY-REMIX/5ef069451e67668750287d64bc5f8bae/libmates.sol\":1094:1126  sqrtUnsigned(uint256(int256(x))) */\n              tag_103\n                /* \"Documents/GitHub/SOLIDITY-REMIX/5ef069451e67668750287d64bc5f8bae/libmates.sol\":1122:1123  x */\n              dup3\n                /* \"Documents/GitHub/SOLIDITY-REMIX/5ef069451e67668750287d64bc5f8bae/libmates.sol\":1115:1124  int256(x) */\n              0x0f\n              signextend\n                /* \"Documents/GitHub/SOLIDITY-REMIX/5ef069451e67668750287d64bc5f8bae/libmates.sol\":1094:1106  sqrtUnsigned */\n              tag_104\n                /* \"Documents/GitHub/SOLIDITY-REMIX/5ef069451e67668750287d64bc5f8bae/libmates.sol\":1094:1126  sqrtUnsigned(uint256(int256(x))) */\n              jump\t// in\n            tag_103:\n                /* \"Documents/GitHub/SOLIDITY-REMIX/5ef069451e67668750287d64bc5f8bae/libmates.sol\":1080:1127  return int128(sqrtUnsigned(uint256(int256(x)))) */\n              swap1\n              pop\n                /* \"Documents/GitHub/SOLIDITY-REMIX/5ef069451e67668750287d64bc5f8bae/libmates.sol\":989:1135  function sqrt(int128 x) internal pure returns(int128){\r... */\n              swap2\n              swap1\n              pop\n              jump\t// out\n                /* \"Documents/GitHub/SOLIDITY-REMIX/5ef069451e67668750287d64bc5f8bae/libmates.sol\":1143:1692  function sqrtUnsigned (uint256 x) internal pure returns(uint128) {\r... */\n            tag_104:\n                /* \"Documents/GitHub/SOLIDITY-REMIX/5ef069451e67668750287d64bc5f8bae/libmates.sol\":1199:1206  uint128 */\n              0x00\n                /* \"Documents/GitHub/SOLIDITY-REMIX/5ef069451e67668750287d64bc5f8bae/libmates.sol\":1233:1234  0 */\n              dup1\n                /* \"Documents/GitHub/SOLIDITY-REMIX/5ef069451e67668750287d64bc5f8bae/libmates.sol\":1228:1229  x */\n              dup3\n                /* \"Documents/GitHub/SOLIDITY-REMIX/5ef069451e67668750287d64bc5f8bae/libmates.sol\":1228:1234  x >= 0 */\n              lt\n              iszero\n                /* \"Documents/GitHub/SOLIDITY-REMIX/5ef069451e67668750287d64bc5f8bae/libmates.sol\":1219:1235  require (x >= 0) */\n              tag_106\n              jumpi\n              0x00\n              dup1\n              revert\n            tag_106:\n                /* \"Documents/GitHub/SOLIDITY-REMIX/5ef069451e67668750287d64bc5f8bae/libmates.sol\":1255:1256  0 */\n              0x00\n                /* \"Documents/GitHub/SOLIDITY-REMIX/5ef069451e67668750287d64bc5f8bae/libmates.sol\":1250:1251  x */\n              dup3\n                /* \"Documents/GitHub/SOLIDITY-REMIX/5ef069451e67668750287d64bc5f8bae/libmates.sol\":1250:1256  x == 0 */\n              eq\n                /* \"Documents/GitHub/SOLIDITY-REMIX/5ef069451e67668750287d64bc5f8bae/libmates.sol\":1246:1679  if (x == 0) return 0;\r... */\n              iszero\n              tag_107\n              jumpi\n                /* \"Documents/GitHub/SOLIDITY-REMIX/5ef069451e67668750287d64bc5f8bae/libmates.sol\":1265:1266  0 */\n              0x00\n                /* \"Documents/GitHub/SOLIDITY-REMIX/5ef069451e67668750287d64bc5f8bae/libmates.sol\":1258:1266  return 0 */\n              swap1\n              pop\n              jump(tag_105)\n                /* \"Documents/GitHub/SOLIDITY-REMIX/5ef069451e67668750287d64bc5f8bae/libmates.sol\":1246:1679  if (x == 0) return 0;\r... */\n            tag_107:\n                /* \"Documents/GitHub/SOLIDITY-REMIX/5ef069451e67668750287d64bc5f8bae/libmates.sol\":1297:1306  uint256 r */\n              0x00\n                /* \"Documents/GitHub/SOLIDITY-REMIX/5ef069451e67668750287d64bc5f8bae/libmates.sol\":1309:1310  1 */\n              0x01\n                /* \"Documents/GitHub/SOLIDITY-REMIX/5ef069451e67668750287d64bc5f8bae/libmates.sol\":1297:1310  uint256 r = 1 */\n              swap1\n              pop\n                /* \"Documents/GitHub/SOLIDITY-REMIX/5ef069451e67668750287d64bc5f8bae/libmates.sol\":1407:1408  2 */\n              0x02\n                /* \"Documents/GitHub/SOLIDITY-REMIX/5ef069451e67668750287d64bc5f8bae/libmates.sol\":1404:1405  r */\n              dup2\n                /* \"Documents/GitHub/SOLIDITY-REMIX/5ef069451e67668750287d64bc5f8bae/libmates.sol\":1402:1403  x */\n              dup5\n                /* \"Documents/GitHub/SOLIDITY-REMIX/5ef069451e67668750287d64bc5f8bae/libmates.sol\":1402:1405  x/r */\n              tag_109\n              swap2\n              swap1\n              tag_110\n              jump\t// in\n            tag_109:\n                /* \"Documents/GitHub/SOLIDITY-REMIX/5ef069451e67668750287d64bc5f8bae/libmates.sol\":1400:1401  r */\n              dup3\n                /* \"Documents/GitHub/SOLIDITY-REMIX/5ef069451e67668750287d64bc5f8bae/libmates.sol\":1400:1405  r+x/r */\n              tag_111\n              swap2\n              swap1\n              tag_112\n              jump\t// in\n            tag_111:\n                /* \"Documents/GitHub/SOLIDITY-REMIX/5ef069451e67668750287d64bc5f8bae/libmates.sol\":1399:1408  (r+x/r)/2 */\n              tag_113\n              swap2\n              swap1\n              tag_110\n              jump\t// in\n            tag_113:\n                /* \"Documents/GitHub/SOLIDITY-REMIX/5ef069451e67668750287d64bc5f8bae/libmates.sol\":1395:1408  r = (r+x/r)/2 */\n              swap1\n              pop\n                /* \"Documents/GitHub/SOLIDITY-REMIX/5ef069451e67668750287d64bc5f8bae/libmates.sol\":1435:1436  2 */\n              0x02\n                /* \"Documents/GitHub/SOLIDITY-REMIX/5ef069451e67668750287d64bc5f8bae/libmates.sol\":1432:1433  r */\n              dup2\n                /* \"Documents/GitHub/SOLIDITY-REMIX/5ef069451e67668750287d64bc5f8bae/libmates.sol\":1430:1431  x */\n              dup5\n                /* \"Documents/GitHub/SOLIDITY-REMIX/5ef069451e67668750287d64bc5f8bae/libmates.sol\":1430:1433  x/r */\n              tag_114\n              swap2\n              swap1\n              tag_110\n              jump\t// in\n            tag_114:\n                /* \"Documents/GitHub/SOLIDITY-REMIX/5ef069451e67668750287d64bc5f8bae/libmates.sol\":1428:1429  r */\n              dup3\n                /* \"Documents/GitHub/SOLIDITY-REMIX/5ef069451e67668750287d64bc5f8bae/libmates.sol\":1428:1433  r+x/r */\n              tag_115\n              swap2\n              swap1\n              tag_112\n              jump\t// in\n            tag_115:\n                /* \"Documents/GitHub/SOLIDITY-REMIX/5ef069451e67668750287d64bc5f8bae/libmates.sol\":1427:1436  (r+x/r)/2 */\n              tag_116\n              swap2\n              swap1\n              tag_110\n              jump\t// in\n            tag_116:\n                /* \"Documents/GitHub/SOLIDITY-REMIX/5ef069451e67668750287d64bc5f8bae/libmates.sol\":1423:1436  r = (r+x/r)/2 */\n              swap1\n              pop\n                /* \"Documents/GitHub/SOLIDITY-REMIX/5ef069451e67668750287d64bc5f8bae/libmates.sol\":1463:1464  2 */\n              0x02\n                /* \"Documents/GitHub/SOLIDITY-REMIX/5ef069451e67668750287d64bc5f8bae/libmates.sol\":1460:1461  r */\n              dup2\n                /* \"Documents/GitHub/SOLIDITY-REMIX/5ef069451e67668750287d64bc5f8bae/libmates.sol\":1458:1459  x */\n              dup5\n                /* \"Documents/GitHub/SOLIDITY-REMIX/5ef069451e67668750287d64bc5f8bae/libmates.sol\":1458:1461  x/r */\n              tag_117\n              swap2\n              swap1\n              tag_110\n              jump\t// in\n            tag_117:\n                /* \"Documents/GitHub/SOLIDITY-REMIX/5ef069451e67668750287d64bc5f8bae/libmates.sol\":1456:1457  r */\n              dup3\n                /* \"Documents/GitHub/SOLIDITY-REMIX/5ef069451e67668750287d64bc5f8bae/libmates.sol\":1456:1461  r+x/r */\n              tag_118\n              swap2\n              swap1\n              tag_112\n              jump\t// in\n            tag_118:\n                /* \"Documents/GitHub/SOLIDITY-REMIX/5ef069451e67668750287d64bc5f8bae/libmates.sol\":1455:1464  (r+x/r)/2 */\n              tag_119\n              swap2\n              swap1\n              tag_110\n              jump\t// in\n            tag_119:\n                /* \"Documents/GitHub/SOLIDITY-REMIX/5ef069451e67668750287d64bc5f8bae/libmates.sol\":1451:1464  r = (r+x/r)/2 */\n              swap1\n              pop\n                /* \"Documents/GitHub/SOLIDITY-REMIX/5ef069451e67668750287d64bc5f8bae/libmates.sol\":1491:1492  2 */\n              0x02\n                /* \"Documents/GitHub/SOLIDITY-REMIX/5ef069451e67668750287d64bc5f8bae/libmates.sol\":1488:1489  r */\n              dup2\n                /* \"Documents/GitHub/SOLIDITY-REMIX/5ef069451e67668750287d64bc5f8bae/libmates.sol\":1486:1487  x */\n              dup5\n                /* \"Documents/GitHub/SOLIDITY-REMIX/5ef069451e67668750287d64bc5f8bae/libmates.sol\":1486:1489  x/r */\n              tag_120\n              swap2\n              swap1\n              tag_110\n              jump\t// in\n            tag_120:\n                /* \"Documents/GitHub/SOLIDITY-REMIX/5ef069451e67668750287d64bc5f8bae/libmates.sol\":1484:1485  r */\n              dup3\n                /* \"Documents/GitHub/SOLIDITY-REMIX/5ef069451e67668750287d64bc5f8bae/libmates.sol\":1484:1489  r+x/r */\n              tag_121\n              swap2\n              swap1\n              tag_112\n              jump\t// in\n            tag_121:\n                /* \"Documents/GitHub/SOLIDITY-REMIX/5ef069451e67668750287d64bc5f8bae/libmates.sol\":1483:1492  (r+x/r)/2 */\n              tag_122\n              swap2\n              swap1\n              tag_110\n              jump\t// in\n            tag_122:\n                /* \"Documents/GitHub/SOLIDITY-REMIX/5ef069451e67668750287d64bc5f8bae/libmates.sol\":1479:1492  r = (r+x/r)/2 */\n              swap1\n              pop\n                /* \"Documents/GitHub/SOLIDITY-REMIX/5ef069451e67668750287d64bc5f8bae/libmates.sol\":1519:1520  2 */\n              0x02\n                /* \"Documents/GitHub/SOLIDITY-REMIX/5ef069451e67668750287d64bc5f8bae/libmates.sol\":1516:1517  r */\n              dup2\n                /* \"Documents/GitHub/SOLIDITY-REMIX/5ef069451e67668750287d64bc5f8bae/libmates.sol\":1514:1515  x */\n              dup5\n                /* \"Documents/GitHub/SOLIDITY-REMIX/5ef069451e67668750287d64bc5f8bae/libmates.sol\":1514:1517  x/r */\n              tag_123\n              swap2\n              swap1\n              tag_110\n              jump\t// in\n            tag_123:\n                /* \"Documents/GitHub/SOLIDITY-REMIX/5ef069451e67668750287d64bc5f8bae/libmates.sol\":1512:1513  r */\n              dup3\n                /* \"Documents/GitHub/SOLIDITY-REMIX/5ef069451e67668750287d64bc5f8bae/libmates.sol\":1512:1517  r+x/r */\n              tag_124\n              swap2\n              swap1\n              tag_112\n              jump\t// in\n            tag_124:\n                /* \"Documents/GitHub/SOLIDITY-REMIX/5ef069451e67668750287d64bc5f8bae/libmates.sol\":1511:1520  (r+x/r)/2 */\n              tag_125\n              swap2\n              swap1\n              tag_110\n              jump\t// in\n            tag_125:\n                /* \"Documents/GitHub/SOLIDITY-REMIX/5ef069451e67668750287d64bc5f8bae/libmates.sol\":1507:1520  r = (r+x/r)/2 */\n              swap1\n              pop\n                /* \"Documents/GitHub/SOLIDITY-REMIX/5ef069451e67668750287d64bc5f8bae/libmates.sol\":1535:1545  uint256 r1 */\n              0x00\n                /* \"Documents/GitHub/SOLIDITY-REMIX/5ef069451e67668750287d64bc5f8bae/libmates.sol\":1550:1551  r */\n              dup2\n                /* \"Documents/GitHub/SOLIDITY-REMIX/5ef069451e67668750287d64bc5f8bae/libmates.sol\":1548:1549  x */\n              dup5\n                /* \"Documents/GitHub/SOLIDITY-REMIX/5ef069451e67668750287d64bc5f8bae/libmates.sol\":1548:1551  x/r */\n              tag_126\n              swap2\n              swap1\n              tag_110\n              jump\t// in\n            tag_126:\n                /* \"Documents/GitHub/SOLIDITY-REMIX/5ef069451e67668750287d64bc5f8bae/libmates.sol\":1535:1551  uint256 r1 = x/r */\n              swap1\n              pop\n                /* \"Documents/GitHub/SOLIDITY-REMIX/5ef069451e67668750287d64bc5f8bae/libmates.sol\":1574:1576  r1 */\n              dup1\n                /* \"Documents/GitHub/SOLIDITY-REMIX/5ef069451e67668750287d64bc5f8bae/libmates.sol\":1570:1571  r */\n              dup3\n                /* \"Documents/GitHub/SOLIDITY-REMIX/5ef069451e67668750287d64bc5f8bae/libmates.sol\":1570:1576  r < r1 */\n              lt\n                /* \"Documents/GitHub/SOLIDITY-REMIX/5ef069451e67668750287d64bc5f8bae/libmates.sol\":1566:1668  if (r < r1) return uint128(r);\r... */\n              iszero\n              tag_127\n              jumpi\n                /* \"Documents/GitHub/SOLIDITY-REMIX/5ef069451e67668750287d64bc5f8bae/libmates.sol\":1593:1594  r */\n              dup2\n                /* \"Documents/GitHub/SOLIDITY-REMIX/5ef069451e67668750287d64bc5f8bae/libmates.sol\":1578:1595  return uint128(r) */\n              swap3\n              pop\n              pop\n              pop\n              jump(tag_105)\n                /* \"Documents/GitHub/SOLIDITY-REMIX/5ef069451e67668750287d64bc5f8bae/libmates.sol\":1566:1668  if (r < r1) return uint128(r);\r... */\n            tag_127:\n                /* \"Documents/GitHub/SOLIDITY-REMIX/5ef069451e67668750287d64bc5f8bae/libmates.sol\":1649:1651  r1 */\n              dup1\n                /* \"Documents/GitHub/SOLIDITY-REMIX/5ef069451e67668750287d64bc5f8bae/libmates.sol\":1634:1652  return uint128(r1) */\n              swap3\n              pop\n              pop\n              pop\n                /* \"Documents/GitHub/SOLIDITY-REMIX/5ef069451e67668750287d64bc5f8bae/libmates.sol\":1143:1692  function sqrtUnsigned (uint256 x) internal pure returns(uint128) {\r... */\n            tag_105:\n              swap2\n              swap1\n              pop\n              jump\t// out\n                /* \"#utility.yul\":7:144   */\n            tag_130:\n                /* \"#utility.yul\":52:57   */\n              0x00\n                /* \"#utility.yul\":90:96   */\n              dup2\n                /* \"#utility.yul\":77:97   */\n              calldataload\n                /* \"#utility.yul\":68:97   */\n              swap1\n              pop\n                /* \"#utility.yul\":106:138   */\n              tag_132\n                /* \"#utility.yul\":132:137   */\n              dup2\n                /* \"#utility.yul\":106:138   */\n              tag_133\n              jump\t// in\n            tag_132:\n                /* \"#utility.yul\":7:144   */\n              swap3\n              swap2\n              pop\n              pop\n              jump\t// out\n                /* \"#utility.yul\":150:287   */\n            tag_134:\n                /* \"#utility.yul\":195:200   */\n              0x00\n                /* \"#utility.yul\":233:239   */\n              dup2\n                /* \"#utility.yul\":220:240   */\n              calldataload\n                /* \"#utility.yul\":211:240   */\n              swap1\n              pop\n                /* \"#utility.yul\":249:281   */\n              tag_136\n                /* \"#utility.yul\":275:280   */\n              dup2\n                /* \"#utility.yul\":249:281   */\n              tag_137\n              jump\t// in\n            tag_136:\n                /* \"#utility.yul\":150:287   */\n              swap3\n              swap2\n              pop\n              pop\n              jump\t// out\n                /* \"#utility.yul\":293:432   */\n            tag_138:\n                /* \"#utility.yul\":339:344   */\n              0x00\n                /* \"#utility.yul\":377:383   */\n              dup2\n                /* \"#utility.yul\":364:384   */\n              calldataload\n                /* \"#utility.yul\":355:384   */\n              swap1\n              pop\n                /* \"#utility.yul\":393:426   */\n              tag_140\n                /* \"#utility.yul\":420:425   */\n              dup2\n                /* \"#utility.yul\":393:426   */\n              tag_141\n              jump\t// in\n            tag_140:\n                /* \"#utility.yul\":293:432   */\n              swap3\n              swap2\n              pop\n              pop\n              jump\t// out\n                /* \"#utility.yul\":438:765   */\n            tag_47:\n                /* \"#utility.yul\":496:502   */\n              0x00\n                /* \"#utility.yul\":545:547   */\n              0x20\n                /* \"#utility.yul\":533:542   */\n              dup3\n                /* \"#utility.yul\":524:531   */\n              dup5\n                /* \"#utility.yul\":520:543   */\n              sub\n                /* \"#utility.yul\":516:548   */\n              slt\n                /* \"#utility.yul\":513:632   */\n              iszero\n              tag_143\n              jumpi\n                /* \"#utility.yul\":551:630   */\n              tag_144\n              tag_145\n              jump\t// in\n            tag_144:\n                /* \"#utility.yul\":513:632   */\n            tag_143:\n                /* \"#utility.yul\":671:672   */\n              0x00\n                /* \"#utility.yul\":696:748   */\n              tag_146\n                /* \"#utility.yul\":740:747   */\n              dup5\n                /* \"#utility.yul\":731:737   */\n              dup3\n                /* \"#utility.yul\":720:729   */\n              dup6\n                /* \"#utility.yul\":716:738   */\n              add\n                /* \"#utility.yul\":696:748   */\n              tag_130\n              jump\t// in\n            tag_146:\n                /* \"#utility.yul\":686:748   */\n              swap2\n              pop\n                /* \"#utility.yul\":642:758   */\n              pop\n                /* \"#utility.yul\":438:765   */\n              swap3\n              swap2\n              pop\n              pop\n              jump\t// out\n                /* \"#utility.yul\":771:1098   */\n            tag_28:\n                /* \"#utility.yul\":829:835   */\n              0x00\n                /* \"#utility.yul\":878:880   */\n              0x20\n                /* \"#utility.yul\":866:875   */\n              dup3\n                /* \"#utility.yul\":857:864   */\n              dup5\n                /* \"#utility.yul\":853:876   */\n              sub\n                /* \"#utility.yul\":849:881   */\n              slt\n                /* \"#utility.yul\":846:965   */\n              iszero\n              tag_148\n              jumpi\n                /* \"#utility.yul\":884:963   */\n              tag_149\n              tag_145\n              jump\t// in\n            tag_149:\n                /* \"#utility.yul\":846:965   */\n            tag_148:\n                /* \"#utility.yul\":1004:1005   */\n              0x00\n                /* \"#utility.yul\":1029:1081   */\n              tag_150\n                /* \"#utility.yul\":1073:1080   */\n              dup5\n                /* \"#utility.yul\":1064:1070   */\n              dup3\n                /* \"#utility.yul\":1053:1062   */\n              dup6\n                /* \"#utility.yul\":1049:1071   */\n              add\n                /* \"#utility.yul\":1029:1081   */\n              tag_134\n              jump\t// in\n            tag_150:\n                /* \"#utility.yul\":1019:1081   */\n              swap2\n              pop\n                /* \"#utility.yul\":975:1091   */\n              pop\n                /* \"#utility.yul\":771:1098   */\n              swap3\n              swap2\n              pop\n              pop\n              jump\t// out\n                /* \"#utility.yul\":1104:1574   */\n            tag_14:\n                /* \"#utility.yul\":1170:1176   */\n              0x00\n                /* \"#utility.yul\":1178:1184   */\n              dup1\n                /* \"#utility.yul\":1227:1229   */\n              0x40\n                /* \"#utility.yul\":1215:1224   */\n              dup4\n                /* \"#utility.yul\":1206:1213   */\n              dup6\n                /* \"#utility.yul\":1202:1225   */\n              sub\n                /* \"#utility.yul\":1198:1230   */\n              slt\n                /* \"#utility.yul\":1195:1314   */\n              iszero\n              tag_152\n              jumpi\n                /* \"#utility.yul\":1233:1312   */\n              tag_153\n              tag_145\n              jump\t// in\n            tag_153:\n                /* \"#utility.yul\":1195:1314   */\n            tag_152:\n                /* \"#utility.yul\":1353:1354   */\n              0x00\n                /* \"#utility.yul\":1378:1430   */\n              tag_154\n                /* \"#utility.yul\":1422:1429   */\n              dup6\n                /* \"#utility.yul\":1413:1419   */\n              dup3\n                /* \"#utility.yul\":1402:1411   */\n              dup7\n                /* \"#utility.yul\":1398:1420   */\n              add\n                /* \"#utility.yul\":1378:1430   */\n              tag_134\n              jump\t// in\n            tag_154:\n                /* \"#utility.yul\":1368:1430   */\n              swap3\n              pop\n                /* \"#utility.yul\":1324:1440   */\n              pop\n                /* \"#utility.yul\":1479:1481   */\n              0x20\n                /* \"#utility.yul\":1505:1557   */\n              tag_155\n                /* \"#utility.yul\":1549:1556   */\n              dup6\n                /* \"#utility.yul\":1540:1546   */\n              dup3\n                /* \"#utility.yul\":1529:1538   */\n              dup7\n                /* \"#utility.yul\":1525:1547   */\n              add\n                /* \"#utility.yul\":1505:1557   */\n              tag_134\n              jump\t// in\n            tag_155:\n                /* \"#utility.yul\":1495:1557   */\n              swap2\n              pop\n                /* \"#utility.yul\":1450:1567   */\n              pop\n                /* \"#utility.yul\":1104:1574   */\n              swap3\n              pop\n              swap3\n              swap1\n              pop\n              jump\t// out\n                /* \"#utility.yul\":1580:1909   */\n            tag_38:\n                /* \"#utility.yul\":1639:1645   */\n              0x00\n                /* \"#utility.yul\":1688:1690   */\n              0x20\n                /* \"#utility.yul\":1676:1685   */\n              dup3\n                /* \"#utility.yul\":1667:1674   */\n              dup5\n                /* \"#utility.yul\":1663:1686   */\n              sub\n                /* \"#utility.yul\":1659:1691   */\n              slt\n                /* \"#utility.yul\":1656:1775   */\n              iszero\n              tag_157\n              jumpi\n                /* \"#utility.yul\":1694:1773   */\n              tag_158\n              tag_145\n              jump\t// in\n            tag_158:\n                /* \"#utility.yul\":1656:1775   */\n            tag_157:\n                /* \"#utility.yul\":1814:1815   */\n              0x00\n                /* \"#utility.yul\":1839:1892   */\n              tag_159\n                /* \"#utility.yul\":1884:1891   */\n              dup5\n                /* \"#utility.yul\":1875:1881   */\n              dup3\n                /* \"#utility.yul\":1864:1873   */\n              dup6\n                /* \"#utility.yul\":1860:1882   */\n              add\n                /* \"#utility.yul\":1839:1892   */\n              tag_138\n              jump\t// in\n            tag_159:\n                /* \"#utility.yul\":1829:1892   */\n              swap2\n              pop\n                /* \"#utility.yul\":1785:1902   */\n              pop\n                /* \"#utility.yul\":1580:1909   */\n              swap3\n              swap2\n              pop\n              pop\n              jump\t// out\n                /* \"#utility.yul\":1915:2030   */\n            tag_160:\n                /* \"#utility.yul\":2000:2023   */\n              tag_162\n                /* \"#utility.yul\":2017:2022   */\n              dup2\n                /* \"#utility.yul\":2000:2023   */\n              tag_163\n              jump\t// in\n            tag_162:\n                /* \"#utility.yul\":1995:1998   */\n              dup3\n                /* \"#utility.yul\":1988:2024   */\n              mstore\n                /* \"#utility.yul\":1915:2030   */\n              pop\n              pop\n              jump\t// out\n                /* \"#utility.yul\":2036:2154   */\n            tag_164:\n                /* \"#utility.yul\":2123:2147   */\n              tag_166\n                /* \"#utility.yul\":2141:2146   */\n              dup2\n                /* \"#utility.yul\":2123:2147   */\n              tag_167\n              jump\t// in\n            tag_166:\n                /* \"#utility.yul\":2118:2121   */\n              dup3\n                /* \"#utility.yul\":2111:2148   */\n              mstore\n                /* \"#utility.yul\":2036:2154   */\n              pop\n              pop\n              jump\t// out\n                /* \"#utility.yul\":2160:2378   */\n            tag_17:\n                /* \"#utility.yul\":2251:2255   */\n              0x00\n                /* \"#utility.yul\":2289:2291   */\n              0x20\n                /* \"#utility.yul\":2278:2287   */\n              dup3\n                /* \"#utility.yul\":2274:2292   */\n              add\n                /* \"#utility.yul\":2266:2292   */\n              swap1\n              pop\n                /* \"#utility.yul\":2302:2371   */\n              tag_169\n                /* \"#utility.yul\":2368:2369   */\n              0x00\n                /* \"#utility.yul\":2357:2366   */\n              dup4\n                /* \"#utility.yul\":2353:2370   */\n              add\n                /* \"#utility.yul\":2344:2350   */\n              dup5\n                /* \"#utility.yul\":2302:2371   */\n              tag_160\n              jump\t// in\n            tag_169:\n                /* \"#utility.yul\":2160:2378   */\n              swap3\n              swap2\n              pop\n              pop\n              jump\t// out\n                /* \"#utility.yul\":2384:2606   */\n            tag_31:\n                /* \"#utility.yul\":2477:2481   */\n              0x00\n                /* \"#utility.yul\":2515:2517   */\n              0x20\n                /* \"#utility.yul\":2504:2513   */\n              dup3\n                /* \"#utility.yul\":2500:2518   */\n              add\n                /* \"#utility.yul\":2492:2518   */\n              swap1\n              pop\n                /* \"#utility.yul\":2528:2599   */\n              tag_171\n                /* \"#utility.yul\":2596:2597   */\n              0x00\n                /* \"#utility.yul\":2585:2594   */\n              dup4\n                /* \"#utility.yul\":2581:2598   */\n              add\n                /* \"#utility.yul\":2572:2578   */\n              dup5\n                /* \"#utility.yul\":2528:2599   */\n              tag_164\n              jump\t// in\n            tag_171:\n                /* \"#utility.yul\":2384:2606   */\n              swap3\n              swap2\n              pop\n              pop\n              jump\t// out\n                /* \"#utility.yul\":2693:3218   */\n            tag_100:\n                /* \"#utility.yul\":2732:2735   */\n              0x00\n                /* \"#utility.yul\":2751:2770   */\n              tag_175\n                /* \"#utility.yul\":2768:2769   */\n              dup3\n                /* \"#utility.yul\":2751:2770   */\n              tag_163\n              jump\t// in\n            tag_175:\n                /* \"#utility.yul\":2746:2770   */\n              swap2\n              pop\n                /* \"#utility.yul\":2784:2803   */\n              tag_176\n                /* \"#utility.yul\":2801:2802   */\n              dup4\n                /* \"#utility.yul\":2784:2803   */\n              tag_163\n              jump\t// in\n            tag_176:\n                /* \"#utility.yul\":2779:2803   */\n              swap3\n              pop\n                /* \"#utility.yul\":2972:2973   */\n              dup2\n                /* \"#utility.yul\":2904:2970   */\n              0x7fffffffffffffffffffffffffffffffffffffffffffffffffffffffffffffff\n                /* \"#utility.yul\":2900:2974   */\n              sub\n                /* \"#utility.yul\":2897:2898   */\n              dup4\n                /* \"#utility.yul\":2893:2975   */\n              sgt\n                /* \"#utility.yul\":2888:2889   */\n              0x00\n                /* \"#utility.yul\":2885:2886   */\n              dup4\n                /* \"#utility.yul\":2881:2890   */\n              slt\n                /* \"#utility.yul\":2874:2891   */\n              iszero\n                /* \"#utility.yul\":2870:2976   */\n              and\n                /* \"#utility.yul\":2867:2999   */\n              iszero\n              tag_177\n              jumpi\n                /* \"#utility.yul\":2979:2997   */\n              tag_178\n              tag_179\n              jump\t// in\n            tag_178:\n                /* \"#utility.yul\":2867:2999   */\n            tag_177:\n                /* \"#utility.yul\":3159:3160   */\n              dup2\n                /* \"#utility.yul\":3091:3157   */\n              0x8000000000000000000000000000000000000000000000000000000000000000\n                /* \"#utility.yul\":3087:3161   */\n              sub\n                /* \"#utility.yul\":3084:3085   */\n              dup4\n                /* \"#utility.yul\":3080:3162   */\n              slt\n                /* \"#utility.yul\":3076:3077   */\n              0x00\n                /* \"#utility.yul\":3073:3074   */\n              dup4\n                /* \"#utility.yul\":3069:3078   */\n              slt\n                /* \"#utility.yul\":3065:3163   */\n              and\n                /* \"#utility.yul\":3062:3186   */\n              iszero\n              tag_180\n              jumpi\n                /* \"#utility.yul\":3166:3184   */\n              tag_181\n              tag_179\n              jump\t// in\n            tag_181:\n                /* \"#utility.yul\":3062:3186   */\n            tag_180:\n                /* \"#utility.yul\":3210:3211   */\n              dup3\n                /* \"#utility.yul\":3207:3208   */\n              dup3\n                /* \"#utility.yul\":3203:3212   */\n              add\n                /* \"#utility.yul\":3196:3212   */\n              swap1\n              pop\n                /* \"#utility.yul\":2693:3218   */\n              swap3\n              swap2\n              pop\n              pop\n              jump\t// out\n                /* \"#utility.yul\":3224:3529   */\n            tag_112:\n                /* \"#utility.yul\":3264:3267   */\n              0x00\n                /* \"#utility.yul\":3283:3303   */\n              tag_183\n                /* \"#utility.yul\":3301:3302   */\n              dup3\n                /* \"#utility.yul\":3283:3303   */\n              tag_167\n              jump\t// in\n            tag_183:\n                /* \"#utility.yul\":3278:3303   */\n              swap2\n              pop\n                /* \"#utility.yul\":3317:3337   */\n              tag_184\n                /* \"#utility.yul\":3335:3336   */\n              dup4\n                /* \"#utility.yul\":3317:3337   */\n              tag_167\n              jump\t// in\n            tag_184:\n                /* \"#utility.yul\":3312:3337   */\n              swap3\n              pop\n                /* \"#utility.yul\":3471:3472   */\n              dup3\n                /* \"#utility.yul\":3403:3469   */\n              0xffffffffffffffffffffffffffffffffffffffffffffffffffffffffffffffff\n                /* \"#utility.yul\":3399:3473   */\n              sub\n                /* \"#utility.yul\":3396:3397   */\n              dup3\n                /* \"#utility.yul\":3393:3474   */\n              gt\n                /* \"#utility.yul\":3390:3497   */\n              iszero\n              tag_185\n              jumpi\n                /* \"#utility.yul\":3477:3495   */\n              tag_186\n              tag_179\n              jump\t// in\n            tag_186:\n                /* \"#utility.yul\":3390:3497   */\n            tag_185:\n                /* \"#utility.yul\":3521:3522   */\n              dup3\n                /* \"#utility.yul\":3518:3519   */\n              dup3\n                /* \"#utility.yul\":3514:3523   */\n              add\n                /* \"#utility.yul\":3507:3523   */\n              swap1\n              pop\n                /* \"#utility.yul\":3224:3529   */\n              swap3\n              swap2\n              pop\n              pop\n              jump\t// out\n                /* \"#utility.yul\":3535:3920   */\n            tag_76:\n                /* \"#utility.yul\":3574:3575   */\n              0x00\n                /* \"#utility.yul\":3591:3610   */\n              tag_188\n                /* \"#utility.yul\":3608:3609   */\n              dup3\n                /* \"#utility.yul\":3591:3610   */\n              tag_163\n              jump\t// in\n            tag_188:\n                /* \"#utility.yul\":3586:3610   */\n              swap2\n              pop\n                /* \"#utility.yul\":3624:3643   */\n              tag_189\n                /* \"#utility.yul\":3641:3642   */\n              dup4\n                /* \"#utility.yul\":3624:3643   */\n              tag_163\n              jump\t// in\n            tag_189:\n                /* \"#utility.yul\":3619:3643   */\n              swap3\n              pop\n                /* \"#utility.yul\":3662:3663   */\n              dup3\n                /* \"#utility.yul\":3652:3687   */\n              tag_190\n              jumpi\n                /* \"#utility.yul\":3667:3685   */\n              tag_191\n              tag_192\n              jump\t// in\n            tag_191:\n                /* \"#utility.yul\":3652:3687   */\n            tag_190:\n                /* \"#utility.yul\":3853:3854   */\n              0x01\n                /* \"#utility.yul\":3850:3851   */\n              0x00\n                /* \"#utility.yul\":3846:3855   */\n              sub\n                /* \"#utility.yul\":3843:3844   */\n              dup4\n                /* \"#utility.yul\":3840:3856   */\n              eq\n                /* \"#utility.yul\":3759:3825   */\n              0x8000000000000000000000000000000000000000000000000000000000000000\n                /* \"#utility.yul\":3756:3757   */\n              dup4\n                /* \"#utility.yul\":3753:3826   */\n              eq\n                /* \"#utility.yul\":3736:3866   */\n              and\n                /* \"#utility.yul\":3733:3889   */\n              iszero\n              tag_193\n              jumpi\n                /* \"#utility.yul\":3869:3887   */\n              tag_194\n              tag_179\n              jump\t// in\n            tag_194:\n                /* \"#utility.yul\":3733:3889   */\n            tag_193:\n                /* \"#utility.yul\":3912:3913   */\n              dup3\n                /* \"#utility.yul\":3909:3910   */\n              dup3\n                /* \"#utility.yul\":3904:3914   */\n              sdiv\n                /* \"#utility.yul\":3899:3914   */\n              swap1\n              pop\n                /* \"#utility.yul\":3535:3920   */\n              swap3\n              swap2\n              pop\n              pop\n              jump\t// out\n                /* \"#utility.yul\":3926:4111   */\n            tag_110:\n                /* \"#utility.yul\":3966:3967   */\n              0x00\n                /* \"#utility.yul\":3983:4003   */\n              tag_196\n                /* \"#utility.yul\":4001:4002   */\n              dup3\n                /* \"#utility.yul\":3983:4003   */\n              tag_167\n              jump\t// in\n            tag_196:\n                /* \"#utility.yul\":3978:4003   */\n              swap2\n              pop\n                /* \"#utility.yul\":4017:4037   */\n              tag_197\n                /* \"#utility.yul\":4035:4036   */\n              dup4\n                /* \"#utility.yul\":4017:4037   */\n              tag_167\n              jump\t// in\n            tag_197:\n                /* \"#utility.yul\":4012:4037   */\n              swap3\n              pop\n                /* \"#utility.yul\":4056:4057   */\n              dup3\n                /* \"#utility.yul\":4046:4081   */\n              tag_198\n              jumpi\n                /* \"#utility.yul\":4061:4079   */\n              tag_199\n              tag_192\n              jump\t// in\n            tag_199:\n                /* \"#utility.yul\":4046:4081   */\n            tag_198:\n                /* \"#utility.yul\":4103:4104   */\n              dup3\n                /* \"#utility.yul\":4100:4101   */\n              dup3\n                /* \"#utility.yul\":4096:4105   */\n              div\n                /* \"#utility.yul\":4091:4105   */\n              swap1\n              pop\n                /* \"#utility.yul\":3926:4111   */\n              swap3\n              swap2\n              pop\n              pop\n              jump\t// out\n                /* \"#utility.yul\":4117:5108   */\n            tag_79:\n                /* \"#utility.yul\":4156:4163   */\n              0x00\n                /* \"#utility.yul\":4179:4198   */\n              tag_201\n                /* \"#utility.yul\":4196:4197   */\n              dup3\n                /* \"#utility.yul\":4179:4198   */\n              tag_163\n              jump\t// in\n            tag_201:\n                /* \"#utility.yul\":4174:4198   */\n              swap2\n              pop\n                /* \"#utility.yul\":4212:4231   */\n              tag_202\n                /* \"#utility.yul\":4229:4230   */\n              dup4\n                /* \"#utility.yul\":4212:4231   */\n              tag_163\n              jump\t// in\n            tag_202:\n                /* \"#utility.yul\":4207:4231   */\n              swap3\n              pop\n                /* \"#utility.yul\":4413:4414   */\n              dup3\n                /* \"#utility.yul\":4345:4411   */\n              0x7fffffffffffffffffffffffffffffffffffffffffffffffffffffffffffffff\n                /* \"#utility.yul\":4341:4415   */\n              div\n                /* \"#utility.yul\":4338:4339   */\n              dup3\n                /* \"#utility.yul\":4335:4416   */\n              gt\n                /* \"#utility.yul\":4330:4331   */\n              0x00\n                /* \"#utility.yul\":4327:4328   */\n              dup5\n                /* \"#utility.yul\":4323:4332   */\n              sgt\n                /* \"#utility.yul\":4319:4320   */\n              0x00\n                /* \"#utility.yul\":4316:4317   */\n              dup5\n                /* \"#utility.yul\":4312:4321   */\n              sgt\n                /* \"#utility.yul\":4308:4333   */\n              and\n                /* \"#utility.yul\":4304:4417   */\n              and\n                /* \"#utility.yul\":4301:4440   */\n              iszero\n              tag_203\n              jumpi\n                /* \"#utility.yul\":4420:4438   */\n              tag_204\n              tag_179\n              jump\t// in\n            tag_204:\n                /* \"#utility.yul\":4301:4440   */\n            tag_203:\n                /* \"#utility.yul\":4624:4625   */\n              dup2\n                /* \"#utility.yul\":4556:4622   */\n              0x8000000000000000000000000000000000000000000000000000000000000000\n                /* \"#utility.yul\":4551:4626   */\n              sdiv\n                /* \"#utility.yul\":4548:4549   */\n              dup4\n                /* \"#utility.yul\":4544:4627   */\n              slt\n                /* \"#utility.yul\":4539:4540   */\n              0x00\n                /* \"#utility.yul\":4536:4537   */\n              dup5\n                /* \"#utility.yul\":4532:4541   */\n              slt\n                /* \"#utility.yul\":4528:4529   */\n              0x00\n                /* \"#utility.yul\":4525:4526   */\n              dup5\n                /* \"#utility.yul\":4521:4530   */\n              sgt\n                /* \"#utility.yul\":4517:4542   */\n              and\n                /* \"#utility.yul\":4513:4628   */\n              and\n                /* \"#utility.yul\":4510:4651   */\n              iszero\n              tag_205\n              jumpi\n                /* \"#utility.yul\":4631:4649   */\n              tag_206\n              tag_179\n              jump\t// in\n            tag_206:\n                /* \"#utility.yul\":4510:4651   */\n            tag_205:\n                /* \"#utility.yul\":4835:4836   */\n              dup3\n                /* \"#utility.yul\":4767:4833   */\n              0x8000000000000000000000000000000000000000000000000000000000000000\n                /* \"#utility.yul\":4762:4837   */\n              sdiv\n                /* \"#utility.yul\":4759:4760   */\n              dup3\n                /* \"#utility.yul\":4755:4838   */\n              slt\n                /* \"#utility.yul\":4750:4751   */\n              0x00\n                /* \"#utility.yul\":4747:4748   */\n              dup5\n                /* \"#utility.yul\":4743:4752   */\n              sgt\n                /* \"#utility.yul\":4739:4740   */\n              0x00\n                /* \"#utility.yul\":4736:4737   */\n              dup5\n                /* \"#utility.yul\":4732:4741   */\n              slt\n                /* \"#utility.yul\":4728:4753   */\n              and\n                /* \"#utility.yul\":4724:4839   */\n              and\n                /* \"#utility.yul\":4721:4862   */\n              iszero\n              tag_207\n              jumpi\n                /* \"#utility.yul\":4842:4860   */\n              tag_208\n              tag_179\n              jump\t// in\n            tag_208:\n                /* \"#utility.yul\":4721:4862   */\n            tag_207:\n                /* \"#utility.yul\":5045:5046   */\n              dup3\n                /* \"#utility.yul\":4977:5043   */\n              0x7fffffffffffffffffffffffffffffffffffffffffffffffffffffffffffffff\n                /* \"#utility.yul\":4972:5047   */\n              sdiv\n                /* \"#utility.yul\":4969:4970   */\n              dup3\n                /* \"#utility.yul\":4965:5048   */\n              slt\n                /* \"#utility.yul\":4960:4961   */\n              0x00\n                /* \"#utility.yul\":4957:4958   */\n              dup5\n                /* \"#utility.yul\":4953:4962   */\n              slt\n                /* \"#utility.yul\":4949:4950   */\n              0x00\n                /* \"#utility.yul\":4946:4947   */\n              dup5\n                /* \"#utility.yul\":4942:4951   */\n              slt\n                /* \"#utility.yul\":4938:4963   */\n              and\n                /* \"#utility.yul\":4934:5049   */\n              and\n                /* \"#utility.yul\":4931:5072   */\n              iszero\n              tag_209\n              jumpi\n                /* \"#utility.yul\":5052:5070   */\n              tag_210\n              tag_179\n              jump\t// in\n            tag_210:\n                /* \"#utility.yul\":4931:5072   */\n            tag_209:\n                /* \"#utility.yul\":5100:5101   */\n              dup3\n                /* \"#utility.yul\":5097:5098   */\n              dup3\n                /* \"#utility.yul\":5093:5102   */\n              mul\n                /* \"#utility.yul\":5082:5102   */\n              swap1\n              pop\n                /* \"#utility.yul\":4117:5108   */\n              swap3\n              swap2\n              pop\n              pop\n              jump\t// out\n                /* \"#utility.yul\":5114:5462   */\n            tag_97:\n                /* \"#utility.yul\":5154:5161   */\n              0x00\n                /* \"#utility.yul\":5177:5197   */\n              tag_212\n                /* \"#utility.yul\":5195:5196   */\n              dup3\n                /* \"#utility.yul\":5177:5197   */\n              tag_167\n              jump\t// in\n            tag_212:\n                /* \"#utility.yul\":5172:5197   */\n              swap2\n              pop\n                /* \"#utility.yul\":5211:5231   */\n              tag_213\n                /* \"#utility.yul\":5229:5230   */\n              dup4\n                /* \"#utility.yul\":5211:5231   */\n              tag_167\n              jump\t// in\n            tag_213:\n                /* \"#utility.yul\":5206:5231   */\n              swap3\n              pop\n                /* \"#utility.yul\":5399:5400   */\n              dup2\n                /* \"#utility.yul\":5331:5397   */\n              0xffffffffffffffffffffffffffffffffffffffffffffffffffffffffffffffff\n                /* \"#utility.yul\":5327:5401   */\n              div\n                /* \"#utility.yul\":5324:5325   */\n              dup4\n                /* \"#utility.yul\":5321:5402   */\n              gt\n                /* \"#utility.yul\":5316:5317   */\n              dup3\n                /* \"#utility.yul\":5309:5318   */\n              iszero\n                /* \"#utility.yul\":5302:5319   */\n              iszero\n                /* \"#utility.yul\":5298:5403   */\n              and\n                /* \"#utility.yul\":5295:5426   */\n              iszero\n              tag_214\n              jumpi\n                /* \"#utility.yul\":5406:5424   */\n              tag_215\n              tag_179\n              jump\t// in\n            tag_215:\n                /* \"#utility.yul\":5295:5426   */\n            tag_214:\n                /* \"#utility.yul\":5454:5455   */\n              dup3\n                /* \"#utility.yul\":5451:5452   */\n              dup3\n                /* \"#utility.yul\":5447:5456   */\n              mul\n                /* \"#utility.yul\":5436:5456   */\n              swap1\n              pop\n                /* \"#utility.yul\":5114:5462   */\n              swap3\n              swap2\n              pop\n              pop\n              jump\t// out\n                /* \"#utility.yul\":5468:5995   */\n            tag_82:\n                /* \"#utility.yul\":5507:5511   */\n              0x00\n                /* \"#utility.yul\":5527:5546   */\n              tag_217\n                /* \"#utility.yul\":5544:5545   */\n              dup3\n                /* \"#utility.yul\":5527:5546   */\n              tag_163\n              jump\t// in\n            tag_217:\n                /* \"#utility.yul\":5522:5546   */\n              swap2\n              pop\n                /* \"#utility.yul\":5560:5579   */\n              tag_218\n                /* \"#utility.yul\":5577:5578   */\n              dup4\n                /* \"#utility.yul\":5560:5579   */\n              tag_163\n              jump\t// in\n            tag_218:\n                /* \"#utility.yul\":5555:5579   */\n              swap3\n              pop\n                /* \"#utility.yul\":5749:5750   */\n              dup3\n                /* \"#utility.yul\":5681:5747   */\n              0x8000000000000000000000000000000000000000000000000000000000000000\n                /* \"#utility.yul\":5677:5751   */\n              add\n                /* \"#utility.yul\":5674:5675   */\n              dup3\n                /* \"#utility.yul\":5670:5752   */\n              slt\n                /* \"#utility.yul\":5665:5666   */\n              0x00\n                /* \"#utility.yul\":5662:5663   */\n              dup5\n                /* \"#utility.yul\":5658:5667   */\n              slt\n                /* \"#utility.yul\":5651:5668   */\n              iszero\n                /* \"#utility.yul\":5647:5753   */\n              and\n                /* \"#utility.yul\":5644:5776   */\n              iszero\n              tag_219\n              jumpi\n                /* \"#utility.yul\":5756:5774   */\n              tag_220\n              tag_179\n              jump\t// in\n            tag_220:\n                /* \"#utility.yul\":5644:5776   */\n            tag_219:\n                /* \"#utility.yul\":5935:5936   */\n              dup3\n                /* \"#utility.yul\":5867:5933   */\n              0x7fffffffffffffffffffffffffffffffffffffffffffffffffffffffffffffff\n                /* \"#utility.yul\":5863:5937   */\n              add\n                /* \"#utility.yul\":5860:5861   */\n              dup3\n                /* \"#utility.yul\":5856:5938   */\n              sgt\n                /* \"#utility.yul\":5852:5853   */\n              0x00\n                /* \"#utility.yul\":5849:5850   */\n              dup5\n                /* \"#utility.yul\":5845:5854   */\n              slt\n                /* \"#utility.yul\":5841:5939   */\n              and\n                /* \"#utility.yul\":5838:5962   */\n              iszero\n              tag_221\n              jumpi\n                /* \"#utility.yul\":5942:5960   */\n              tag_222\n              tag_179\n              jump\t// in\n            tag_222:\n                /* \"#utility.yul\":5838:5962   */\n            tag_221:\n                /* \"#utility.yul\":5987:5988   */\n              dup3\n                /* \"#utility.yul\":5984:5985   */\n              dup3\n                /* \"#utility.yul\":5980:5989   */\n              sub\n                /* \"#utility.yul\":5972:5989   */\n              swap1\n              pop\n                /* \"#utility.yul\":5468:5995   */\n              swap3\n              swap2\n              pop\n              pop\n              jump\t// out\n                /* \"#utility.yul\":6001:6192   */\n            tag_95:\n                /* \"#utility.yul\":6041:6045   */\n              0x00\n                /* \"#utility.yul\":6061:6081   */\n              tag_224\n                /* \"#utility.yul\":6079:6080   */\n              dup3\n                /* \"#utility.yul\":6061:6081   */\n              tag_167\n              jump\t// in\n            tag_224:\n                /* \"#utility.yul\":6056:6081   */\n              swap2\n              pop\n                /* \"#utility.yul\":6095:6115   */\n              tag_225\n                /* \"#utility.yul\":6113:6114   */\n              dup4\n                /* \"#utility.yul\":6095:6115   */\n              tag_167\n              jump\t// in\n            tag_225:\n                /* \"#utility.yul\":6090:6115   */\n              swap3\n              pop\n                /* \"#utility.yul\":6134:6135   */\n              dup3\n                /* \"#utility.yul\":6131:6132   */\n              dup3\n                /* \"#utility.yul\":6128:6136   */\n              lt\n                /* \"#utility.yul\":6125:6159   */\n              iszero\n              tag_226\n              jumpi\n                /* \"#utility.yul\":6139:6157   */\n              tag_227\n              tag_179\n              jump\t// in\n            tag_227:\n                /* \"#utility.yul\":6125:6159   */\n            tag_226:\n                /* \"#utility.yul\":6184:6185   */\n              dup3\n                /* \"#utility.yul\":6181:6182   */\n              dup3\n                /* \"#utility.yul\":6177:6186   */\n              sub\n                /* \"#utility.yul\":6169:6186   */\n              swap1\n              pop\n                /* \"#utility.yul\":6001:6192   */\n              swap3\n              swap2\n              pop\n              pop\n              jump\t// out\n                /* \"#utility.yul\":6198:6290   */\n            tag_228:\n                /* \"#utility.yul\":6234:6241   */\n              0x00\n                /* \"#utility.yul\":6278:6283   */\n              dup2\n                /* \"#utility.yul\":6274:6276   */\n              0x0f\n                /* \"#utility.yul\":6263:6284   */\n              signextend\n                /* \"#utility.yul\":6252:6284   */\n              swap1\n              pop\n                /* \"#utility.yul\":6198:6290   */\n              swap2\n              swap1\n              pop\n              jump\t// out\n                /* \"#utility.yul\":6296:6372   */\n            tag_163:\n                /* \"#utility.yul\":6332:6339   */\n              0x00\n                /* \"#utility.yul\":6361:6366   */\n              dup2\n                /* \"#utility.yul\":6350:6366   */\n              swap1\n              pop\n                /* \"#utility.yul\":6296:6372   */\n              swap2\n              swap1\n              pop\n              jump\t// out\n                /* \"#utility.yul\":6378:6455   */\n            tag_167:\n                /* \"#utility.yul\":6415:6422   */\n              0x00\n                /* \"#utility.yul\":6444:6449   */\n              dup2\n                /* \"#utility.yul\":6433:6449   */\n              swap1\n              pop\n                /* \"#utility.yul\":6378:6455   */\n              swap2\n              swap1\n              pop\n              jump\t// out\n                /* \"#utility.yul\":6461:6689   */\n            tag_87:\n                /* \"#utility.yul\":6496:6499   */\n              0x00\n                /* \"#utility.yul\":6519:6542   */\n              tag_233\n                /* \"#utility.yul\":6536:6541   */\n              dup3\n                /* \"#utility.yul\":6519:6542   */\n              tag_163\n              jump\t// in\n            tag_233:\n                /* \"#utility.yul\":6510:6542   */\n              swap2\n              pop\n                /* \"#utility.yul\":6564:6630   */\n              0x8000000000000000000000000000000000000000000000000000000000000000\n                /* \"#utility.yul\":6557:6562   */\n              dup3\n                /* \"#utility.yul\":6554:6631   */\n              eq\n                /* \"#utility.yul\":6551:6654   */\n              iszero\n              tag_234\n              jumpi\n                /* \"#utility.yul\":6634:6652   */\n              tag_235\n              tag_179\n              jump\t// in\n            tag_235:\n                /* \"#utility.yul\":6551:6654   */\n            tag_234:\n                /* \"#utility.yul\":6677:6682   */\n              dup2\n                /* \"#utility.yul\":6674:6675   */\n              0x00\n                /* \"#utility.yul\":6670:6683   */\n              sub\n                /* \"#utility.yul\":6663:6683   */\n              swap1\n              pop\n                /* \"#utility.yul\":6461:6689   */\n              swap2\n              swap1\n              pop\n              jump\t// out\n                /* \"#utility.yul\":6695:6875   */\n            tag_179:\n                /* \"#utility.yul\":6743:6820   */\n              0x4e487b7100000000000000000000000000000000000000000000000000000000\n                /* \"#utility.yul\":6740:6741   */\n              0x00\n                /* \"#utility.yul\":6733:6821   */\n              mstore\n                /* \"#utility.yul\":6840:6844   */\n              0x11\n                /* \"#utility.yul\":6837:6838   */\n              0x04\n                /* \"#utility.yul\":6830:6845   */\n              mstore\n                /* \"#utility.yul\":6864:6868   */\n              0x24\n                /* \"#utility.yul\":6861:6862   */\n              0x00\n                /* \"#utility.yul\":6854:6869   */\n              revert\n                /* \"#utility.yul\":6881:7061   */\n            tag_192:\n                /* \"#utility.yul\":6929:7006   */\n              0x4e487b7100000000000000000000000000000000000000000000000000000000\n                /* \"#utility.yul\":6926:6927   */\n              0x00\n                /* \"#utility.yul\":6919:7007   */\n              mstore\n                /* \"#utility.yul\":7026:7030   */\n              0x12\n                /* \"#utility.yul\":7023:7024   */\n              0x04\n                /* \"#utility.yul\":7016:7031   */\n              mstore\n                /* \"#utility.yul\":7050:7054   */\n              0x24\n                /* \"#utility.yul\":7047:7048   */\n              0x00\n                /* \"#utility.yul\":7040:7055   */\n              revert\n                /* \"#utility.yul\":7190:7307   */\n            tag_145:\n                /* \"#utility.yul\":7299:7300   */\n              0x00\n                /* \"#utility.yul\":7296:7297   */\n              dup1\n                /* \"#utility.yul\":7289:7301   */\n              revert\n                /* \"#utility.yul\":7313:7433   */\n            tag_133:\n                /* \"#utility.yul\":7385:7408   */\n              tag_242\n                /* \"#utility.yul\":7402:7407   */\n              dup2\n                /* \"#utility.yul\":7385:7408   */\n              tag_228\n              jump\t// in\n            tag_242:\n                /* \"#utility.yul\":7378:7383   */\n              dup2\n                /* \"#utility.yul\":7375:7409   */\n              eq\n                /* \"#utility.yul\":7365:7427   */\n              tag_243\n              jumpi\n                /* \"#utility.yul\":7423:7424   */\n              0x00\n                /* \"#utility.yul\":7420:7421   */\n              dup1\n                /* \"#utility.yul\":7413:7425   */\n              revert\n                /* \"#utility.yul\":7365:7427   */\n            tag_243:\n                /* \"#utility.yul\":7313:7433   */\n              pop\n              jump\t// out\n                /* \"#utility.yul\":7439:7559   */\n            tag_137:\n                /* \"#utility.yul\":7511:7534   */\n              tag_245\n                /* \"#utility.yul\":7528:7533   */\n              dup2\n                /* \"#utility.yul\":7511:7534   */\n              tag_163\n              jump\t// in\n            tag_245:\n                /* \"#utility.yul\":7504:7509   */\n              dup2\n                /* \"#utility.yul\":7501:7535   */\n              eq\n                /* \"#utility.yul\":7491:7553   */\n              tag_246\n              jumpi\n                /* \"#utility.yul\":7549:7550   */\n              0x00\n                /* \"#utility.yul\":7546:7547   */\n              dup1\n                /* \"#utility.yul\":7539:7551   */\n              revert\n                /* \"#utility.yul\":7491:7553   */\n            tag_246:\n                /* \"#utility.yul\":7439:7559   */\n              pop\n              jump\t// out\n                /* \"#utility.yul\":7565:7687   */\n            tag_141:\n                /* \"#utility.yul\":7638:7662   */\n              tag_248\n                /* \"#utility.yul\":7656:7661   */\n              dup2\n                /* \"#utility.yul\":7638:7662   */\n              tag_167\n              jump\t// in\n            tag_248:\n                /* \"#utility.yul\":7631:7636   */\n              dup2\n                /* \"#utility.yul\":7628:7663   */\n              eq\n                /* \"#utility.yul\":7618:7681   */\n              tag_249\n              jumpi\n                /* \"#utility.yul\":7677:7678   */\n              0x00\n                /* \"#utility.yul\":7674:7675   */\n              dup1\n                /* \"#utility.yul\":7667:7679   */\n              revert\n                /* \"#utility.yul\":7618:7681   */\n            tag_249:\n                /* \"#utility.yul\":7565:7687   */\n              pop\n              jump\t// out\n\n            auxdata: 0xa2646970667358221220ab0a956bb2efb7a53e0070d9caceb5a02f4e800b510215352c8e5fd22eb536c164736f6c63430008070033\n        }\n    }\n\n    auxdata: 0xa2646970667358221220487f99d2fed41f80f9f8ec28dc2ba483505ae7cb5a53e528489e31466732182664736f6c63430008070033\n}\n",
				"bytecode": {
					"linkReferences": {
						"remix_tests.sol": {
							"Assert": [
								{
									"length": 20,
									"start": 175
								},
								{
									"length": 20,
									"start": 486
								},
								{
									"length": 20,
									"start": 797
								},
								{
									"length": 20,
									"start": 1108
								},
								{
									"length": 20,
									"start": 1419
								},
								{
									"length": 20,
									"start": 1738
								}
							]
						}
					},
					"object": "608060405234801561001057600080fd5b506118d6806100206000396000f3fe608060405234801561001057600080fd5b506004361061004c5760003560e01c8063011e64921461005157806312d487ea1461005b57806336c00656146100795780637fea0d4b14610083575b600080fd5b61005961008d565b005b61006361069f565b60405161007091906109c6565b60405180910390f35b6100816106a8565b005b61008b610735565b005b73__$acbfb1c35000d78352310b16a054a6b106$__63f5bae6b660008054906101000a900473ffffffffffffffffffffffffffffffffffffffff1673ffffffffffffffffffffffffffffffffffffffff16638f8a0d19600960036040518363ffffffff1660e01b8152600401610104929190610aec565b60206040518083038186803b15801561011c57600080fd5b505afa158015610130573d6000803e3d6000fd5b505050506040513d601f19601f820116820180604052508101906101549190610818565b600c6040518363ffffffff1660e01b81526004016101739291906109e1565b60206040518083038186803b15801561018b57600080fd5b505af415801561019f573d6000803e3d6000fd5b505050506040513d601f19601f820116820180604052508101906101c391906107eb565b5073__$acbfb1c35000d78352310b16a054a6b106$__63f5bae6b660008054906101000a900473ffffffffffffffffffffffffffffffffffffffff1673ffffffffffffffffffffffffffffffffffffffff16634c627bad600960036040518363ffffffff1660e01b815260040161023b929190610aec565b60206040518083038186803b15801561025357600080fd5b505afa158015610267573d6000803e3d6000fd5b505050506040513d601f19601f8201168201806040525081019061028b9190610818565b60066040518363ffffffff1660e01b81526004016102aa929190610a95565b60206040518083038186803b1580156102c257600080fd5b505af41580156102d6573d6000803e3d6000fd5b505050506040513d601f19601f820116820180604052508101906102fa91906107eb565b5073__$acbfb1c35000d78352310b16a054a6b106$__63f5bae6b660008054906101000a900473ffffffffffffffffffffffffffffffffffffffff1673ffffffffffffffffffffffffffffffffffffffff1663187983bf600960036040518363ffffffff1660e01b8152600401610372929190610aec565b60206040518083038186803b15801561038a57600080fd5b505afa15801561039e573d6000803e3d6000fd5b505050506040513d601f19601f820116820180604052508101906103c29190610818565b601b6040518363ffffffff1660e01b81526004016103e1929190610a1d565b60206040518083038186803b1580156103f957600080fd5b505af415801561040d573d6000803e3d6000fd5b505050506040513d601f19601f8201168201806040525081019061043191906107eb565b5073__$acbfb1c35000d78352310b16a054a6b106$__63f5bae6b660008054906101000a900473ffffffffffffffffffffffffffffffffffffffff1673ffffffffffffffffffffffffffffffffffffffff166309b7cdda600960036040518363ffffffff1660e01b81526004016104a9929190610aec565b60206040518083038186803b1580156104c157600080fd5b505afa1580156104d5573d6000803e3d6000fd5b505050506040513d601f19601f820116820180604052508101906104f99190610818565b60036040518363ffffffff1660e01b8152600401610518929190610a59565b60206040518083038186803b15801561053057600080fd5b505af4158015610544573d6000803e3d6000fd5b505050506040513d601f19601f8201168201806040525081019061056891906107eb565b5073__$acbfb1c35000d78352310b16a054a6b106$__63abcd796060008054906101000a900473ffffffffffffffffffffffffffffffffffffffff1673ffffffffffffffffffffffffffffffffffffffff16638371483460036040518263ffffffff1660e01b81526004016105dd9190610ad1565b60206040518083038186803b1580156105f557600080fd5b505afa158015610609573d6000803e3d6000fd5b505050506040513d601f19601f8201168201806040525081019061062d9190610845565b60066040518363ffffffff1660e01b815260040161064c929190610b15565b60206040518083038186803b15801561066457600080fd5b505af4158015610678573d6000803e3d6000fd5b505050506040513d601f19601f8201168201806040525081019061069c91906107eb565b50565b60006001905090565b73__$acbfb1c35000d78352310b16a054a6b106$__63561015e26001806040518363ffffffff1660e01b81526004016106e2929190610b51565b60206040518083038186803b1580156106fa57600080fd5b505af415801561070e573d6000803e3d6000fd5b505050506040513d601f19601f8201168201806040525081019061073291906107eb565b50565b6040516107419061079f565b604051809103906000f08015801561075d573d6000803e3d6000fd5b506000806101000a81548173ffffffffffffffffffffffffffffffffffffffff021916908373ffffffffffffffffffffffffffffffffffffffff160217905550565b610b4d80610d5483390190565b6000815190506107bb81610d0e565b92915050565b6000815190506107d081610d25565b92915050565b6000815190506107e581610d3c565b92915050565b60006020828403121561080157610800610c3c565b5b600061080f848285016107ac565b91505092915050565b60006020828403121561082e5761082d610c3c565b5b600061083c848285016107c1565b91505092915050565b60006020828403121561085b5761085a610c3c565b5b6000610869848285016107d6565b91505092915050565b61087b81610b9e565b82525050565b61088a81610baa565b82525050565b61089981610bbe565b82525050565b6108a881610bd0565b82525050565b6108b781610be2565b82525050565b6108c681610be2565b82525050565b6108d581610bf4565b82525050565b6108e481610c06565b82525050565b6108f381610c18565b82525050565b61090281610c2a565b82525050565b6000610915600b83610b8d565b915061092082610c41565b602082019050919050565b6000610938600b83610b8d565b915061094382610c6a565b602082019050919050565b600061095b600c83610b8d565b915061096682610c93565b602082019050919050565b600061097e600c83610b8d565b915061098982610cbc565b602082019050919050565b60006109a1601a83610b8d565b91506109ac82610ce5565b602082019050919050565b6109c081610bb4565b82525050565b60006020820190506109db6000830184610872565b92915050565b60006060820190506109f66000830185610881565b610a036020830184610890565b8181036040830152610a1481610971565b90509392505050565b6000606082019050610a326000830185610881565b610a3f602083018461089f565b8181036040830152610a508161094e565b90509392505050565b6000606082019050610a6e6000830185610881565b610a7b60208301846108bd565b8181036040830152610a8c8161092b565b90509392505050565b6000606082019050610aaa6000830185610881565b610ab760208301846108db565b8181036040830152610ac881610908565b90509392505050565b6000602082019050610ae660008301846108cc565b92915050565b6000604082019050610b0160008301856108f9565b610b0e60208301846108ae565b9392505050565b6000606082019050610b2a60008301856109b7565b610b3760208301846108ea565b8181036040830152610b4881610908565b90509392505050565b6000606082019050610b6660008301856109b7565b610b7360208301846109b7565b8181036040830152610b8481610994565b90509392505050565b600082825260208201905092915050565b60008115159050919050565b6000819050919050565b6000819050919050565b6000610bc982610baa565b9050919050565b6000610bdb82610baa565b9050919050565b6000610bed82610baa565b9050919050565b6000610bff82610bb4565b9050919050565b6000610c1182610baa565b9050919050565b6000610c2382610bb4565b9050919050565b6000610c3582610baa565b9050919050565b600080fd5b7f73686f756c642062652036000000000000000000000000000000000000000000600082015250565b7f73686f756c642062652033000000000000000000000000000000000000000000600082015250565b7f73686f756c642062652032370000000000000000000000000000000000000000600082015250565b7f73686f756c642062652031320000000000000000000000000000000000000000600082015250565b7f312073686f756c64206e6f7420626520657175616c20746f2031000000000000600082015250565b610d1781610b9e565b8114610d2257600080fd5b50565b610d2e81610baa565b8114610d3957600080fd5b50565b610d4581610bb4565b8114610d5057600080fd5b5056fe608060405234801561001057600080fd5b50610b2d806100206000396000f3fe608060405234801561001057600080fd5b50600436106100885760003560e01c80637ea9e0581161005b5780637ea9e0581461014d578063837148341461017d5780638f8a0d19146101ad578063b8501073146101dd57610088565b806309b7cdda1461008d578063187983bf146100bd5780634c627bad146100ed5780637d8251421461011d575b600080fd5b6100a760048036038101906100a29190610566565b61020d565b6040516100b491906105f1565b60405180910390f35b6100d760048036038101906100d29190610566565b61022a565b6040516100e491906105f1565b60405180910390f35b61010760048036038101906101029190610566565b610247565b60405161011491906105f1565b60405180910390f35b61013760048036038101906101329190610539565b610264565b604051610144919061060c565b60405180910390f35b61016760048036038101906101629190610539565b610276565b604051610174919061060c565b60405180910390f35b610197600480360381019061019291906105a6565b610288565b6040516101a4919061060c565b60405180910390f35b6101c760048036038101906101c29190610566565b61029a565b6040516101d491906105f1565b60405180910390f35b6101f760048036038101906101f2919061050c565b6102b7565b60405161020491906105f1565b60405180910390f35b600061022282846102cf90919063ffffffff16565b905092915050565b600061023f82846102e590919063ffffffff16565b905092915050565b600061025c82846102fb90919063ffffffff16565b905092915050565b600061026f82610311565b9050919050565b600061028182610335565b9050919050565b60006102938261034a565b9050919050565b60006102af828461038590919063ffffffff16565b905092915050565b60006102c582600f0b61039b565b600f0b9050919050565b600081836102dd9190610711565b905092915050565b600081836102f391906107ac565b905092915050565b60008183610309919061091d565b905092915050565b60008082131561032357819050610330565b8161032d90610a06565b90505b919050565b6000818261034391906107ac565b9050919050565b60006001821161035d5760019050610380565b61037260018361036d91906109b1565b61034a565b8261037d91906108c3565b90505b919050565b600081836103939190610627565b905092915050565b60008082600f0b12156103ad57600080fd5b6103b982600f0b6103c0565b9050919050565b6000808210156103cf57600080fd5b60008214156103e157600090506104c8565b600060019050600281846103f5919061077b565b8261040091906106bb565b61040a919061077b565b90506002818461041a919061077b565b8261042591906106bb565b61042f919061077b565b90506002818461043f919061077b565b8261044a91906106bb565b610454919061077b565b905060028184610464919061077b565b8261046f91906106bb565b610479919061077b565b905060028184610489919061077b565b8261049491906106bb565b61049e919061077b565b9050600081846104ae919061077b565b9050808210156104c25781925050506104c8565b80925050505b919050565b6000813590506104dc81610ab2565b92915050565b6000813590506104f181610ac9565b92915050565b60008135905061050681610ae0565b92915050565b60006020828403121561052257610521610aad565b5b6000610530848285016104cd565b91505092915050565b60006020828403121561054f5761054e610aad565b5b600061055d848285016104e2565b91505092915050565b6000806040838503121561057d5761057c610aad565b5b600061058b858286016104e2565b925050602061059c858286016104e2565b9150509250929050565b6000602082840312156105bc576105bb610aad565b5b60006105ca848285016104f7565b91505092915050565b6105dc816109f2565b82525050565b6105eb816109fc565b82525050565b600060208201905061060660008301846105d3565b92915050565b600060208201905061062160008301846105e2565b92915050565b6000610632826109f2565b915061063d836109f2565b9250817f7fffffffffffffffffffffffffffffffffffffffffffffffffffffffffffffff0383136000831215161561067857610677610a4f565b5b817f80000000000000000000000000000000000000000000000000000000000000000383126000831216156106b0576106af610a4f565b5b828201905092915050565b60006106c6826109fc565b91506106d1836109fc565b9250827fffffffffffffffffffffffffffffffffffffffffffffffffffffffffffffffff0382111561070657610705610a4f565b5b828201905092915050565b600061071c826109f2565b9150610727836109f2565b92508261073757610736610a7e565b5b600160000383147f8000000000000000000000000000000000000000000000000000000000000000831416156107705761076f610a4f565b5b828205905092915050565b6000610786826109fc565b9150610791836109fc565b9250826107a1576107a0610a7e565b5b828204905092915050565b60006107b7826109f2565b91506107c2836109f2565b9250827f7fffffffffffffffffffffffffffffffffffffffffffffffffffffffffffffff048211600084136000841316161561080157610800610a4f565b5b817f8000000000000000000000000000000000000000000000000000000000000000058312600084126000841316161561083e5761083d610a4f565b5b827f8000000000000000000000000000000000000000000000000000000000000000058212600084136000841216161561087b5761087a610a4f565b5b827f7fffffffffffffffffffffffffffffffffffffffffffffffffffffffffffffff05821260008412600084121616156108b8576108b7610a4f565b5b828202905092915050565b60006108ce826109fc565b91506108d9836109fc565b9250817fffffffffffffffffffffffffffffffffffffffffffffffffffffffffffffffff048311821515161561091257610911610a4f565b5b828202905092915050565b6000610928826109f2565b9150610933836109f2565b9250827f80000000000000000000000000000000000000000000000000000000000000000182126000841215161561096e5761096d610a4f565b5b827f7fffffffffffffffffffffffffffffffffffffffffffffffffffffffffffffff0182136000841216156109a6576109a5610a4f565b5b828203905092915050565b60006109bc826109fc565b91506109c7836109fc565b9250828210156109da576109d9610a4f565b5b828203905092915050565b600081600f0b9050919050565b6000819050919050565b6000819050919050565b6000610a11826109f2565b91507f8000000000000000000000000000000000000000000000000000000000000000821415610a4457610a43610a4f565b5b816000039050919050565b7f4e487b7100000000000000000000000000000000000000000000000000000000600052601160045260246000fd5b7f4e487b7100000000000000000000000000000000000000000000000000000000600052601260045260246000fd5b600080fd5b610abb816109e5565b8114610ac657600080fd5b50565b610ad2816109f2565b8114610add57600080fd5b50565b610ae9816109fc565b8114610af457600080fd5b5056fea2646970667358221220ab0a956bb2efb7a53e0070d9caceb5a02f4e800b510215352c8e5fd22eb536c164736f6c63430008070033a2646970667358221220487f99d2fed41f80f9f8ec28dc2ba483505ae7cb5a53e528489e31466732182664736f6c63430008070033",
					"opcodes": "PUSH1 0x80 PUSH1 0x40 MSTORE CALLVALUE DUP1 ISZERO PUSH2 0x10 JUMPI PUSH1 0x0 DUP1 REVERT JUMPDEST POP PUSH2 0x18D6 DUP1 PUSH2 0x20 PUSH1 0x0 CODECOPY PUSH1 0x0 RETURN INVALID PUSH1 0x80 PUSH1 0x40 MSTORE CALLVALUE DUP1 ISZERO PUSH2 0x10 JUMPI PUSH1 0x0 DUP1 REVERT JUMPDEST POP PUSH1 0x4 CALLDATASIZE LT PUSH2 0x4C JUMPI PUSH1 0x0 CALLDATALOAD PUSH1 0xE0 SHR DUP1 PUSH4 0x11E6492 EQ PUSH2 0x51 JUMPI DUP1 PUSH4 0x12D487EA EQ PUSH2 0x5B JUMPI DUP1 PUSH4 0x36C00656 EQ PUSH2 0x79 JUMPI DUP1 PUSH4 0x7FEA0D4B EQ PUSH2 0x83 JUMPI JUMPDEST PUSH1 0x0 DUP1 REVERT JUMPDEST PUSH2 0x59 PUSH2 0x8D JUMP JUMPDEST STOP JUMPDEST PUSH2 0x63 PUSH2 0x69F JUMP JUMPDEST PUSH1 0x40 MLOAD PUSH2 0x70 SWAP2 SWAP1 PUSH2 0x9C6 JUMP JUMPDEST PUSH1 0x40 MLOAD DUP1 SWAP2 SUB SWAP1 RETURN JUMPDEST PUSH2 0x81 PUSH2 0x6A8 JUMP JUMPDEST STOP JUMPDEST PUSH2 0x8B PUSH2 0x735 JUMP JUMPDEST STOP JUMPDEST PUSH20 0x0 PUSH4 0xF5BAE6B6 PUSH1 0x0 DUP1 SLOAD SWAP1 PUSH2 0x100 EXP SWAP1 DIV PUSH20 0xFFFFFFFFFFFFFFFFFFFFFFFFFFFFFFFFFFFFFFFF AND PUSH20 0xFFFFFFFFFFFFFFFFFFFFFFFFFFFFFFFFFFFFFFFF AND PUSH4 0x8F8A0D19 PUSH1 0x9 PUSH1 0x3 PUSH1 0x40 MLOAD DUP4 PUSH4 0xFFFFFFFF AND PUSH1 0xE0 SHL DUP2 MSTORE PUSH1 0x4 ADD PUSH2 0x104 SWAP3 SWAP2 SWAP1 PUSH2 0xAEC JUMP JUMPDEST PUSH1 0x20 PUSH1 0x40 MLOAD DUP1 DUP4 SUB DUP2 DUP7 DUP1 EXTCODESIZE ISZERO DUP1 ISZERO PUSH2 0x11C JUMPI PUSH1 0x0 DUP1 REVERT JUMPDEST POP GAS STATICCALL ISZERO DUP1 ISZERO PUSH2 0x130 JUMPI RETURNDATASIZE PUSH1 0x0 DUP1 RETURNDATACOPY RETURNDATASIZE PUSH1 0x0 REVERT JUMPDEST POP POP POP POP PUSH1 0x40 MLOAD RETURNDATASIZE PUSH1 0x1F NOT PUSH1 0x1F DUP3 ADD AND DUP3 ADD DUP1 PUSH1 0x40 MSTORE POP DUP2 ADD SWAP1 PUSH2 0x154 SWAP2 SWAP1 PUSH2 0x818 JUMP JUMPDEST PUSH1 0xC PUSH1 0x40 MLOAD DUP4 PUSH4 0xFFFFFFFF AND PUSH1 0xE0 SHL DUP2 MSTORE PUSH1 0x4 ADD PUSH2 0x173 SWAP3 SWAP2 SWAP1 PUSH2 0x9E1 JUMP JUMPDEST PUSH1 0x20 PUSH1 0x40 MLOAD DUP1 DUP4 SUB DUP2 DUP7 DUP1 EXTCODESIZE ISZERO DUP1 ISZERO PUSH2 0x18B JUMPI PUSH1 0x0 DUP1 REVERT JUMPDEST POP GAS DELEGATECALL ISZERO DUP1 ISZERO PUSH2 0x19F JUMPI RETURNDATASIZE PUSH1 0x0 DUP1 RETURNDATACOPY RETURNDATASIZE PUSH1 0x0 REVERT JUMPDEST POP POP POP POP PUSH1 0x40 MLOAD RETURNDATASIZE PUSH1 0x1F NOT PUSH1 0x1F DUP3 ADD AND DUP3 ADD DUP1 PUSH1 0x40 MSTORE POP DUP2 ADD SWAP1 PUSH2 0x1C3 SWAP2 SWAP1 PUSH2 0x7EB JUMP JUMPDEST POP PUSH20 0x0 PUSH4 0xF5BAE6B6 PUSH1 0x0 DUP1 SLOAD SWAP1 PUSH2 0x100 EXP SWAP1 DIV PUSH20 0xFFFFFFFFFFFFFFFFFFFFFFFFFFFFFFFFFFFFFFFF AND PUSH20 0xFFFFFFFFFFFFFFFFFFFFFFFFFFFFFFFFFFFFFFFF AND PUSH4 0x4C627BAD PUSH1 0x9 PUSH1 0x3 PUSH1 0x40 MLOAD DUP4 PUSH4 0xFFFFFFFF AND PUSH1 0xE0 SHL DUP2 MSTORE PUSH1 0x4 ADD PUSH2 0x23B SWAP3 SWAP2 SWAP1 PUSH2 0xAEC JUMP JUMPDEST PUSH1 0x20 PUSH1 0x40 MLOAD DUP1 DUP4 SUB DUP2 DUP7 DUP1 EXTCODESIZE ISZERO DUP1 ISZERO PUSH2 0x253 JUMPI PUSH1 0x0 DUP1 REVERT JUMPDEST POP GAS STATICCALL ISZERO DUP1 ISZERO PUSH2 0x267 JUMPI RETURNDATASIZE PUSH1 0x0 DUP1 RETURNDATACOPY RETURNDATASIZE PUSH1 0x0 REVERT JUMPDEST POP POP POP POP PUSH1 0x40 MLOAD RETURNDATASIZE PUSH1 0x1F NOT PUSH1 0x1F DUP3 ADD AND DUP3 ADD DUP1 PUSH1 0x40 MSTORE POP DUP2 ADD SWAP1 PUSH2 0x28B SWAP2 SWAP1 PUSH2 0x818 JUMP JUMPDEST PUSH1 0x6 PUSH1 0x40 MLOAD DUP4 PUSH4 0xFFFFFFFF AND PUSH1 0xE0 SHL DUP2 MSTORE PUSH1 0x4 ADD PUSH2 0x2AA SWAP3 SWAP2 SWAP1 PUSH2 0xA95 JUMP JUMPDEST PUSH1 0x20 PUSH1 0x40 MLOAD DUP1 DUP4 SUB DUP2 DUP7 DUP1 EXTCODESIZE ISZERO DUP1 ISZERO PUSH2 0x2C2 JUMPI PUSH1 0x0 DUP1 REVERT JUMPDEST POP GAS DELEGATECALL ISZERO DUP1 ISZERO PUSH2 0x2D6 JUMPI RETURNDATASIZE PUSH1 0x0 DUP1 RETURNDATACOPY RETURNDATASIZE PUSH1 0x0 REVERT JUMPDEST POP POP POP POP PUSH1 0x40 MLOAD RETURNDATASIZE PUSH1 0x1F NOT PUSH1 0x1F DUP3 ADD AND DUP3 ADD DUP1 PUSH1 0x40 MSTORE POP DUP2 ADD SWAP1 PUSH2 0x2FA SWAP2 SWAP1 PUSH2 0x7EB JUMP JUMPDEST POP PUSH20 0x0 PUSH4 0xF5BAE6B6 PUSH1 0x0 DUP1 SLOAD SWAP1 PUSH2 0x100 EXP SWAP1 DIV PUSH20 0xFFFFFFFFFFFFFFFFFFFFFFFFFFFFFFFFFFFFFFFF AND PUSH20 0xFFFFFFFFFFFFFFFFFFFFFFFFFFFFFFFFFFFFFFFF AND PUSH4 0x187983BF PUSH1 0x9 PUSH1 0x3 PUSH1 0x40 MLOAD DUP4 PUSH4 0xFFFFFFFF AND PUSH1 0xE0 SHL DUP2 MSTORE PUSH1 0x4 ADD PUSH2 0x372 SWAP3 SWAP2 SWAP1 PUSH2 0xAEC JUMP JUMPDEST PUSH1 0x20 PUSH1 0x40 MLOAD DUP1 DUP4 SUB DUP2 DUP7 DUP1 EXTCODESIZE ISZERO DUP1 ISZERO PUSH2 0x38A JUMPI PUSH1 0x0 DUP1 REVERT JUMPDEST POP GAS STATICCALL ISZERO DUP1 ISZERO PUSH2 0x39E JUMPI RETURNDATASIZE PUSH1 0x0 DUP1 RETURNDATACOPY RETURNDATASIZE PUSH1 0x0 REVERT JUMPDEST POP POP POP POP PUSH1 0x40 MLOAD RETURNDATASIZE PUSH1 0x1F NOT PUSH1 0x1F DUP3 ADD AND DUP3 ADD DUP1 PUSH1 0x40 MSTORE POP DUP2 ADD SWAP1 PUSH2 0x3C2 SWAP2 SWAP1 PUSH2 0x818 JUMP JUMPDEST PUSH1 0x1B PUSH1 0x40 MLOAD DUP4 PUSH4 0xFFFFFFFF AND PUSH1 0xE0 SHL DUP2 MSTORE PUSH1 0x4 ADD PUSH2 0x3E1 SWAP3 SWAP2 SWAP1 PUSH2 0xA1D JUMP JUMPDEST PUSH1 0x20 PUSH1 0x40 MLOAD DUP1 DUP4 SUB DUP2 DUP7 DUP1 EXTCODESIZE ISZERO DUP1 ISZERO PUSH2 0x3F9 JUMPI PUSH1 0x0 DUP1 REVERT JUMPDEST POP GAS DELEGATECALL ISZERO DUP1 ISZERO PUSH2 0x40D JUMPI RETURNDATASIZE PUSH1 0x0 DUP1 RETURNDATACOPY RETURNDATASIZE PUSH1 0x0 REVERT JUMPDEST POP POP POP POP PUSH1 0x40 MLOAD RETURNDATASIZE PUSH1 0x1F NOT PUSH1 0x1F DUP3 ADD AND DUP3 ADD DUP1 PUSH1 0x40 MSTORE POP DUP2 ADD SWAP1 PUSH2 0x431 SWAP2 SWAP1 PUSH2 0x7EB JUMP JUMPDEST POP PUSH20 0x0 PUSH4 0xF5BAE6B6 PUSH1 0x0 DUP1 SLOAD SWAP1 PUSH2 0x100 EXP SWAP1 DIV PUSH20 0xFFFFFFFFFFFFFFFFFFFFFFFFFFFFFFFFFFFFFFFF AND PUSH20 0xFFFFFFFFFFFFFFFFFFFFFFFFFFFFFFFFFFFFFFFF AND PUSH4 0x9B7CDDA PUSH1 0x9 PUSH1 0x3 PUSH1 0x40 MLOAD DUP4 PUSH4 0xFFFFFFFF AND PUSH1 0xE0 SHL DUP2 MSTORE PUSH1 0x4 ADD PUSH2 0x4A9 SWAP3 SWAP2 SWAP1 PUSH2 0xAEC JUMP JUMPDEST PUSH1 0x20 PUSH1 0x40 MLOAD DUP1 DUP4 SUB DUP2 DUP7 DUP1 EXTCODESIZE ISZERO DUP1 ISZERO PUSH2 0x4C1 JUMPI PUSH1 0x0 DUP1 REVERT JUMPDEST POP GAS STATICCALL ISZERO DUP1 ISZERO PUSH2 0x4D5 JUMPI RETURNDATASIZE PUSH1 0x0 DUP1 RETURNDATACOPY RETURNDATASIZE PUSH1 0x0 REVERT JUMPDEST POP POP POP POP PUSH1 0x40 MLOAD RETURNDATASIZE PUSH1 0x1F NOT PUSH1 0x1F DUP3 ADD AND DUP3 ADD DUP1 PUSH1 0x40 MSTORE POP DUP2 ADD SWAP1 PUSH2 0x4F9 SWAP2 SWAP1 PUSH2 0x818 JUMP JUMPDEST PUSH1 0x3 PUSH1 0x40 MLOAD DUP4 PUSH4 0xFFFFFFFF AND PUSH1 0xE0 SHL DUP2 MSTORE PUSH1 0x4 ADD PUSH2 0x518 SWAP3 SWAP2 SWAP1 PUSH2 0xA59 JUMP JUMPDEST PUSH1 0x20 PUSH1 0x40 MLOAD DUP1 DUP4 SUB DUP2 DUP7 DUP1 EXTCODESIZE ISZERO DUP1 ISZERO PUSH2 0x530 JUMPI PUSH1 0x0 DUP1 REVERT JUMPDEST POP GAS DELEGATECALL ISZERO DUP1 ISZERO PUSH2 0x544 JUMPI RETURNDATASIZE PUSH1 0x0 DUP1 RETURNDATACOPY RETURNDATASIZE PUSH1 0x0 REVERT JUMPDEST POP POP POP POP PUSH1 0x40 MLOAD RETURNDATASIZE PUSH1 0x1F NOT PUSH1 0x1F DUP3 ADD AND DUP3 ADD DUP1 PUSH1 0x40 MSTORE POP DUP2 ADD SWAP1 PUSH2 0x568 SWAP2 SWAP1 PUSH2 0x7EB JUMP JUMPDEST POP PUSH20 0x0 PUSH4 0xABCD7960 PUSH1 0x0 DUP1 SLOAD SWAP1 PUSH2 0x100 EXP SWAP1 DIV PUSH20 0xFFFFFFFFFFFFFFFFFFFFFFFFFFFFFFFFFFFFFFFF AND PUSH20 0xFFFFFFFFFFFFFFFFFFFFFFFFFFFFFFFFFFFFFFFF AND PUSH4 0x83714834 PUSH1 0x3 PUSH1 0x40 MLOAD DUP3 PUSH4 0xFFFFFFFF AND PUSH1 0xE0 SHL DUP2 MSTORE PUSH1 0x4 ADD PUSH2 0x5DD SWAP2 SWAP1 PUSH2 0xAD1 JUMP JUMPDEST PUSH1 0x20 PUSH1 0x40 MLOAD DUP1 DUP4 SUB DUP2 DUP7 DUP1 EXTCODESIZE ISZERO DUP1 ISZERO PUSH2 0x5F5 JUMPI PUSH1 0x0 DUP1 REVERT JUMPDEST POP GAS STATICCALL ISZERO DUP1 ISZERO PUSH2 0x609 JUMPI RETURNDATASIZE PUSH1 0x0 DUP1 RETURNDATACOPY RETURNDATASIZE PUSH1 0x0 REVERT JUMPDEST POP POP POP POP PUSH1 0x40 MLOAD RETURNDATASIZE PUSH1 0x1F NOT PUSH1 0x1F DUP3 ADD AND DUP3 ADD DUP1 PUSH1 0x40 MSTORE POP DUP2 ADD SWAP1 PUSH2 0x62D SWAP2 SWAP1 PUSH2 0x845 JUMP JUMPDEST PUSH1 0x6 PUSH1 0x40 MLOAD DUP4 PUSH4 0xFFFFFFFF AND PUSH1 0xE0 SHL DUP2 MSTORE PUSH1 0x4 ADD PUSH2 0x64C SWAP3 SWAP2 SWAP1 PUSH2 0xB15 JUMP JUMPDEST PUSH1 0x20 PUSH1 0x40 MLOAD DUP1 DUP4 SUB DUP2 DUP7 DUP1 EXTCODESIZE ISZERO DUP1 ISZERO PUSH2 0x664 JUMPI PUSH1 0x0 DUP1 REVERT JUMPDEST POP GAS DELEGATECALL ISZERO DUP1 ISZERO PUSH2 0x678 JUMPI RETURNDATASIZE PUSH1 0x0 DUP1 RETURNDATACOPY RETURNDATASIZE PUSH1 0x0 REVERT JUMPDEST POP POP POP POP PUSH1 0x40 MLOAD RETURNDATASIZE PUSH1 0x1F NOT PUSH1 0x1F DUP3 ADD AND DUP3 ADD DUP1 PUSH1 0x40 MSTORE POP DUP2 ADD SWAP1 PUSH2 0x69C SWAP2 SWAP1 PUSH2 0x7EB JUMP JUMPDEST POP JUMP JUMPDEST PUSH1 0x0 PUSH1 0x1 SWAP1 POP SWAP1 JUMP JUMPDEST PUSH20 0x0 PUSH4 0x561015E2 PUSH1 0x1 DUP1 PUSH1 0x40 MLOAD DUP4 PUSH4 0xFFFFFFFF AND PUSH1 0xE0 SHL DUP2 MSTORE PUSH1 0x4 ADD PUSH2 0x6E2 SWAP3 SWAP2 SWAP1 PUSH2 0xB51 JUMP JUMPDEST PUSH1 0x20 PUSH1 0x40 MLOAD DUP1 DUP4 SUB DUP2 DUP7 DUP1 EXTCODESIZE ISZERO DUP1 ISZERO PUSH2 0x6FA JUMPI PUSH1 0x0 DUP1 REVERT JUMPDEST POP GAS DELEGATECALL ISZERO DUP1 ISZERO PUSH2 0x70E JUMPI RETURNDATASIZE PUSH1 0x0 DUP1 RETURNDATACOPY RETURNDATASIZE PUSH1 0x0 REVERT JUMPDEST POP POP POP POP PUSH1 0x40 MLOAD RETURNDATASIZE PUSH1 0x1F NOT PUSH1 0x1F DUP3 ADD AND DUP3 ADD DUP1 PUSH1 0x40 MSTORE POP DUP2 ADD SWAP1 PUSH2 0x732 SWAP2 SWAP1 PUSH2 0x7EB JUMP JUMPDEST POP JUMP JUMPDEST PUSH1 0x40 MLOAD PUSH2 0x741 SWAP1 PUSH2 0x79F JUMP JUMPDEST PUSH1 0x40 MLOAD DUP1 SWAP2 SUB SWAP1 PUSH1 0x0 CREATE DUP1 ISZERO DUP1 ISZERO PUSH2 0x75D JUMPI RETURNDATASIZE PUSH1 0x0 DUP1 RETURNDATACOPY RETURNDATASIZE PUSH1 0x0 REVERT JUMPDEST POP PUSH1 0x0 DUP1 PUSH2 0x100 EXP DUP2 SLOAD DUP2 PUSH20 0xFFFFFFFFFFFFFFFFFFFFFFFFFFFFFFFFFFFFFFFF MUL NOT AND SWAP1 DUP4 PUSH20 0xFFFFFFFFFFFFFFFFFFFFFFFFFFFFFFFFFFFFFFFF AND MUL OR SWAP1 SSTORE POP JUMP JUMPDEST PUSH2 0xB4D DUP1 PUSH2 0xD54 DUP4 CODECOPY ADD SWAP1 JUMP JUMPDEST PUSH1 0x0 DUP2 MLOAD SWAP1 POP PUSH2 0x7BB DUP2 PUSH2 0xD0E JUMP JUMPDEST SWAP3 SWAP2 POP POP JUMP JUMPDEST PUSH1 0x0 DUP2 MLOAD SWAP1 POP PUSH2 0x7D0 DUP2 PUSH2 0xD25 JUMP JUMPDEST SWAP3 SWAP2 POP POP JUMP JUMPDEST PUSH1 0x0 DUP2 MLOAD SWAP1 POP PUSH2 0x7E5 DUP2 PUSH2 0xD3C JUMP JUMPDEST SWAP3 SWAP2 POP POP JUMP JUMPDEST PUSH1 0x0 PUSH1 0x20 DUP3 DUP5 SUB SLT ISZERO PUSH2 0x801 JUMPI PUSH2 0x800 PUSH2 0xC3C JUMP JUMPDEST JUMPDEST PUSH1 0x0 PUSH2 0x80F DUP5 DUP3 DUP6 ADD PUSH2 0x7AC JUMP JUMPDEST SWAP2 POP POP SWAP3 SWAP2 POP POP JUMP JUMPDEST PUSH1 0x0 PUSH1 0x20 DUP3 DUP5 SUB SLT ISZERO PUSH2 0x82E JUMPI PUSH2 0x82D PUSH2 0xC3C JUMP JUMPDEST JUMPDEST PUSH1 0x0 PUSH2 0x83C DUP5 DUP3 DUP6 ADD PUSH2 0x7C1 JUMP JUMPDEST SWAP2 POP POP SWAP3 SWAP2 POP POP JUMP JUMPDEST PUSH1 0x0 PUSH1 0x20 DUP3 DUP5 SUB SLT ISZERO PUSH2 0x85B JUMPI PUSH2 0x85A PUSH2 0xC3C JUMP JUMPDEST JUMPDEST PUSH1 0x0 PUSH2 0x869 DUP5 DUP3 DUP6 ADD PUSH2 0x7D6 JUMP JUMPDEST SWAP2 POP POP SWAP3 SWAP2 POP POP JUMP JUMPDEST PUSH2 0x87B DUP2 PUSH2 0xB9E JUMP JUMPDEST DUP3 MSTORE POP POP JUMP JUMPDEST PUSH2 0x88A DUP2 PUSH2 0xBAA JUMP JUMPDEST DUP3 MSTORE POP POP JUMP JUMPDEST PUSH2 0x899 DUP2 PUSH2 0xBBE JUMP JUMPDEST DUP3 MSTORE POP POP JUMP JUMPDEST PUSH2 0x8A8 DUP2 PUSH2 0xBD0 JUMP JUMPDEST DUP3 MSTORE POP POP JUMP JUMPDEST PUSH2 0x8B7 DUP2 PUSH2 0xBE2 JUMP JUMPDEST DUP3 MSTORE POP POP JUMP JUMPDEST PUSH2 0x8C6 DUP2 PUSH2 0xBE2 JUMP JUMPDEST DUP3 MSTORE POP POP JUMP JUMPDEST PUSH2 0x8D5 DUP2 PUSH2 0xBF4 JUMP JUMPDEST DUP3 MSTORE POP POP JUMP JUMPDEST PUSH2 0x8E4 DUP2 PUSH2 0xC06 JUMP JUMPDEST DUP3 MSTORE POP POP JUMP JUMPDEST PUSH2 0x8F3 DUP2 PUSH2 0xC18 JUMP JUMPDEST DUP3 MSTORE POP POP JUMP JUMPDEST PUSH2 0x902 DUP2 PUSH2 0xC2A JUMP JUMPDEST DUP3 MSTORE POP POP JUMP JUMPDEST PUSH1 0x0 PUSH2 0x915 PUSH1 0xB DUP4 PUSH2 0xB8D JUMP JUMPDEST SWAP2 POP PUSH2 0x920 DUP3 PUSH2 0xC41 JUMP JUMPDEST PUSH1 0x20 DUP3 ADD SWAP1 POP SWAP2 SWAP1 POP JUMP JUMPDEST PUSH1 0x0 PUSH2 0x938 PUSH1 0xB DUP4 PUSH2 0xB8D JUMP JUMPDEST SWAP2 POP PUSH2 0x943 DUP3 PUSH2 0xC6A JUMP JUMPDEST PUSH1 0x20 DUP3 ADD SWAP1 POP SWAP2 SWAP1 POP JUMP JUMPDEST PUSH1 0x0 PUSH2 0x95B PUSH1 0xC DUP4 PUSH2 0xB8D JUMP JUMPDEST SWAP2 POP PUSH2 0x966 DUP3 PUSH2 0xC93 JUMP JUMPDEST PUSH1 0x20 DUP3 ADD SWAP1 POP SWAP2 SWAP1 POP JUMP JUMPDEST PUSH1 0x0 PUSH2 0x97E PUSH1 0xC DUP4 PUSH2 0xB8D JUMP JUMPDEST SWAP2 POP PUSH2 0x989 DUP3 PUSH2 0xCBC JUMP JUMPDEST PUSH1 0x20 DUP3 ADD SWAP1 POP SWAP2 SWAP1 POP JUMP JUMPDEST PUSH1 0x0 PUSH2 0x9A1 PUSH1 0x1A DUP4 PUSH2 0xB8D JUMP JUMPDEST SWAP2 POP PUSH2 0x9AC DUP3 PUSH2 0xCE5 JUMP JUMPDEST PUSH1 0x20 DUP3 ADD SWAP1 POP SWAP2 SWAP1 POP JUMP JUMPDEST PUSH2 0x9C0 DUP2 PUSH2 0xBB4 JUMP JUMPDEST DUP3 MSTORE POP POP JUMP JUMPDEST PUSH1 0x0 PUSH1 0x20 DUP3 ADD SWAP1 POP PUSH2 0x9DB PUSH1 0x0 DUP4 ADD DUP5 PUSH2 0x872 JUMP JUMPDEST SWAP3 SWAP2 POP POP JUMP JUMPDEST PUSH1 0x0 PUSH1 0x60 DUP3 ADD SWAP1 POP PUSH2 0x9F6 PUSH1 0x0 DUP4 ADD DUP6 PUSH2 0x881 JUMP JUMPDEST PUSH2 0xA03 PUSH1 0x20 DUP4 ADD DUP5 PUSH2 0x890 JUMP JUMPDEST DUP2 DUP2 SUB PUSH1 0x40 DUP4 ADD MSTORE PUSH2 0xA14 DUP2 PUSH2 0x971 JUMP JUMPDEST SWAP1 POP SWAP4 SWAP3 POP POP POP JUMP JUMPDEST PUSH1 0x0 PUSH1 0x60 DUP3 ADD SWAP1 POP PUSH2 0xA32 PUSH1 0x0 DUP4 ADD DUP6 PUSH2 0x881 JUMP JUMPDEST PUSH2 0xA3F PUSH1 0x20 DUP4 ADD DUP5 PUSH2 0x89F JUMP JUMPDEST DUP2 DUP2 SUB PUSH1 0x40 DUP4 ADD MSTORE PUSH2 0xA50 DUP2 PUSH2 0x94E JUMP JUMPDEST SWAP1 POP SWAP4 SWAP3 POP POP POP JUMP JUMPDEST PUSH1 0x0 PUSH1 0x60 DUP3 ADD SWAP1 POP PUSH2 0xA6E PUSH1 0x0 DUP4 ADD DUP6 PUSH2 0x881 JUMP JUMPDEST PUSH2 0xA7B PUSH1 0x20 DUP4 ADD DUP5 PUSH2 0x8BD JUMP JUMPDEST DUP2 DUP2 SUB PUSH1 0x40 DUP4 ADD MSTORE PUSH2 0xA8C DUP2 PUSH2 0x92B JUMP JUMPDEST SWAP1 POP SWAP4 SWAP3 POP POP POP JUMP JUMPDEST PUSH1 0x0 PUSH1 0x60 DUP3 ADD SWAP1 POP PUSH2 0xAAA PUSH1 0x0 DUP4 ADD DUP6 PUSH2 0x881 JUMP JUMPDEST PUSH2 0xAB7 PUSH1 0x20 DUP4 ADD DUP5 PUSH2 0x8DB JUMP JUMPDEST DUP2 DUP2 SUB PUSH1 0x40 DUP4 ADD MSTORE PUSH2 0xAC8 DUP2 PUSH2 0x908 JUMP JUMPDEST SWAP1 POP SWAP4 SWAP3 POP POP POP JUMP JUMPDEST PUSH1 0x0 PUSH1 0x20 DUP3 ADD SWAP1 POP PUSH2 0xAE6 PUSH1 0x0 DUP4 ADD DUP5 PUSH2 0x8CC JUMP JUMPDEST SWAP3 SWAP2 POP POP JUMP JUMPDEST PUSH1 0x0 PUSH1 0x40 DUP3 ADD SWAP1 POP PUSH2 0xB01 PUSH1 0x0 DUP4 ADD DUP6 PUSH2 0x8F9 JUMP JUMPDEST PUSH2 0xB0E PUSH1 0x20 DUP4 ADD DUP5 PUSH2 0x8AE JUMP JUMPDEST SWAP4 SWAP3 POP POP POP JUMP JUMPDEST PUSH1 0x0 PUSH1 0x60 DUP3 ADD SWAP1 POP PUSH2 0xB2A PUSH1 0x0 DUP4 ADD DUP6 PUSH2 0x9B7 JUMP JUMPDEST PUSH2 0xB37 PUSH1 0x20 DUP4 ADD DUP5 PUSH2 0x8EA JUMP JUMPDEST DUP2 DUP2 SUB PUSH1 0x40 DUP4 ADD MSTORE PUSH2 0xB48 DUP2 PUSH2 0x908 JUMP JUMPDEST SWAP1 POP SWAP4 SWAP3 POP POP POP JUMP JUMPDEST PUSH1 0x0 PUSH1 0x60 DUP3 ADD SWAP1 POP PUSH2 0xB66 PUSH1 0x0 DUP4 ADD DUP6 PUSH2 0x9B7 JUMP JUMPDEST PUSH2 0xB73 PUSH1 0x20 DUP4 ADD DUP5 PUSH2 0x9B7 JUMP JUMPDEST DUP2 DUP2 SUB PUSH1 0x40 DUP4 ADD MSTORE PUSH2 0xB84 DUP2 PUSH2 0x994 JUMP JUMPDEST SWAP1 POP SWAP4 SWAP3 POP POP POP JUMP JUMPDEST PUSH1 0x0 DUP3 DUP3 MSTORE PUSH1 0x20 DUP3 ADD SWAP1 POP SWAP3 SWAP2 POP POP JUMP JUMPDEST PUSH1 0x0 DUP2 ISZERO ISZERO SWAP1 POP SWAP2 SWAP1 POP JUMP JUMPDEST PUSH1 0x0 DUP2 SWAP1 POP SWAP2 SWAP1 POP JUMP JUMPDEST PUSH1 0x0 DUP2 SWAP1 POP SWAP2 SWAP1 POP JUMP JUMPDEST PUSH1 0x0 PUSH2 0xBC9 DUP3 PUSH2 0xBAA JUMP JUMPDEST SWAP1 POP SWAP2 SWAP1 POP JUMP JUMPDEST PUSH1 0x0 PUSH2 0xBDB DUP3 PUSH2 0xBAA JUMP JUMPDEST SWAP1 POP SWAP2 SWAP1 POP JUMP JUMPDEST PUSH1 0x0 PUSH2 0xBED DUP3 PUSH2 0xBAA JUMP JUMPDEST SWAP1 POP SWAP2 SWAP1 POP JUMP JUMPDEST PUSH1 0x0 PUSH2 0xBFF DUP3 PUSH2 0xBB4 JUMP JUMPDEST SWAP1 POP SWAP2 SWAP1 POP JUMP JUMPDEST PUSH1 0x0 PUSH2 0xC11 DUP3 PUSH2 0xBAA JUMP JUMPDEST SWAP1 POP SWAP2 SWAP1 POP JUMP JUMPDEST PUSH1 0x0 PUSH2 0xC23 DUP3 PUSH2 0xBB4 JUMP JUMPDEST SWAP1 POP SWAP2 SWAP1 POP JUMP JUMPDEST PUSH1 0x0 PUSH2 0xC35 DUP3 PUSH2 0xBAA JUMP JUMPDEST SWAP1 POP SWAP2 SWAP1 POP JUMP JUMPDEST PUSH1 0x0 DUP1 REVERT JUMPDEST PUSH32 0x73686F756C642062652036000000000000000000000000000000000000000000 PUSH1 0x0 DUP3 ADD MSTORE POP JUMP JUMPDEST PUSH32 0x73686F756C642062652033000000000000000000000000000000000000000000 PUSH1 0x0 DUP3 ADD MSTORE POP JUMP JUMPDEST PUSH32 0x73686F756C642062652032370000000000000000000000000000000000000000 PUSH1 0x0 DUP3 ADD MSTORE POP JUMP JUMPDEST PUSH32 0x73686F756C642062652031320000000000000000000000000000000000000000 PUSH1 0x0 DUP3 ADD MSTORE POP JUMP JUMPDEST PUSH32 0x312073686F756C64206E6F7420626520657175616C20746F2031000000000000 PUSH1 0x0 DUP3 ADD MSTORE POP JUMP JUMPDEST PUSH2 0xD17 DUP2 PUSH2 0xB9E JUMP JUMPDEST DUP2 EQ PUSH2 0xD22 JUMPI PUSH1 0x0 DUP1 REVERT JUMPDEST POP JUMP JUMPDEST PUSH2 0xD2E DUP2 PUSH2 0xBAA JUMP JUMPDEST DUP2 EQ PUSH2 0xD39 JUMPI PUSH1 0x0 DUP1 REVERT JUMPDEST POP JUMP JUMPDEST PUSH2 0xD45 DUP2 PUSH2 0xBB4 JUMP JUMPDEST DUP2 EQ PUSH2 0xD50 JUMPI PUSH1 0x0 DUP1 REVERT JUMPDEST POP JUMP INVALID PUSH1 0x80 PUSH1 0x40 MSTORE CALLVALUE DUP1 ISZERO PUSH2 0x10 JUMPI PUSH1 0x0 DUP1 REVERT JUMPDEST POP PUSH2 0xB2D DUP1 PUSH2 0x20 PUSH1 0x0 CODECOPY PUSH1 0x0 RETURN INVALID PUSH1 0x80 PUSH1 0x40 MSTORE CALLVALUE DUP1 ISZERO PUSH2 0x10 JUMPI PUSH1 0x0 DUP1 REVERT JUMPDEST POP PUSH1 0x4 CALLDATASIZE LT PUSH2 0x88 JUMPI PUSH1 0x0 CALLDATALOAD PUSH1 0xE0 SHR DUP1 PUSH4 0x7EA9E058 GT PUSH2 0x5B JUMPI DUP1 PUSH4 0x7EA9E058 EQ PUSH2 0x14D JUMPI DUP1 PUSH4 0x83714834 EQ PUSH2 0x17D JUMPI DUP1 PUSH4 0x8F8A0D19 EQ PUSH2 0x1AD JUMPI DUP1 PUSH4 0xB8501073 EQ PUSH2 0x1DD JUMPI PUSH2 0x88 JUMP JUMPDEST DUP1 PUSH4 0x9B7CDDA EQ PUSH2 0x8D JUMPI DUP1 PUSH4 0x187983BF EQ PUSH2 0xBD JUMPI DUP1 PUSH4 0x4C627BAD EQ PUSH2 0xED JUMPI DUP1 PUSH4 0x7D825142 EQ PUSH2 0x11D JUMPI JUMPDEST PUSH1 0x0 DUP1 REVERT JUMPDEST PUSH2 0xA7 PUSH1 0x4 DUP1 CALLDATASIZE SUB DUP2 ADD SWAP1 PUSH2 0xA2 SWAP2 SWAP1 PUSH2 0x566 JUMP JUMPDEST PUSH2 0x20D JUMP JUMPDEST PUSH1 0x40 MLOAD PUSH2 0xB4 SWAP2 SWAP1 PUSH2 0x5F1 JUMP JUMPDEST PUSH1 0x40 MLOAD DUP1 SWAP2 SUB SWAP1 RETURN JUMPDEST PUSH2 0xD7 PUSH1 0x4 DUP1 CALLDATASIZE SUB DUP2 ADD SWAP1 PUSH2 0xD2 SWAP2 SWAP1 PUSH2 0x566 JUMP JUMPDEST PUSH2 0x22A JUMP JUMPDEST PUSH1 0x40 MLOAD PUSH2 0xE4 SWAP2 SWAP1 PUSH2 0x5F1 JUMP JUMPDEST PUSH1 0x40 MLOAD DUP1 SWAP2 SUB SWAP1 RETURN JUMPDEST PUSH2 0x107 PUSH1 0x4 DUP1 CALLDATASIZE SUB DUP2 ADD SWAP1 PUSH2 0x102 SWAP2 SWAP1 PUSH2 0x566 JUMP JUMPDEST PUSH2 0x247 JUMP JUMPDEST PUSH1 0x40 MLOAD PUSH2 0x114 SWAP2 SWAP1 PUSH2 0x5F1 JUMP JUMPDEST PUSH1 0x40 MLOAD DUP1 SWAP2 SUB SWAP1 RETURN JUMPDEST PUSH2 0x137 PUSH1 0x4 DUP1 CALLDATASIZE SUB DUP2 ADD SWAP1 PUSH2 0x132 SWAP2 SWAP1 PUSH2 0x539 JUMP JUMPDEST PUSH2 0x264 JUMP JUMPDEST PUSH1 0x40 MLOAD PUSH2 0x144 SWAP2 SWAP1 PUSH2 0x60C JUMP JUMPDEST PUSH1 0x40 MLOAD DUP1 SWAP2 SUB SWAP1 RETURN JUMPDEST PUSH2 0x167 PUSH1 0x4 DUP1 CALLDATASIZE SUB DUP2 ADD SWAP1 PUSH2 0x162 SWAP2 SWAP1 PUSH2 0x539 JUMP JUMPDEST PUSH2 0x276 JUMP JUMPDEST PUSH1 0x40 MLOAD PUSH2 0x174 SWAP2 SWAP1 PUSH2 0x60C JUMP JUMPDEST PUSH1 0x40 MLOAD DUP1 SWAP2 SUB SWAP1 RETURN JUMPDEST PUSH2 0x197 PUSH1 0x4 DUP1 CALLDATASIZE SUB DUP2 ADD SWAP1 PUSH2 0x192 SWAP2 SWAP1 PUSH2 0x5A6 JUMP JUMPDEST PUSH2 0x288 JUMP JUMPDEST PUSH1 0x40 MLOAD PUSH2 0x1A4 SWAP2 SWAP1 PUSH2 0x60C JUMP JUMPDEST PUSH1 0x40 MLOAD DUP1 SWAP2 SUB SWAP1 RETURN JUMPDEST PUSH2 0x1C7 PUSH1 0x4 DUP1 CALLDATASIZE SUB DUP2 ADD SWAP1 PUSH2 0x1C2 SWAP2 SWAP1 PUSH2 0x566 JUMP JUMPDEST PUSH2 0x29A JUMP JUMPDEST PUSH1 0x40 MLOAD PUSH2 0x1D4 SWAP2 SWAP1 PUSH2 0x5F1 JUMP JUMPDEST PUSH1 0x40 MLOAD DUP1 SWAP2 SUB SWAP1 RETURN JUMPDEST PUSH2 0x1F7 PUSH1 0x4 DUP1 CALLDATASIZE SUB DUP2 ADD SWAP1 PUSH2 0x1F2 SWAP2 SWAP1 PUSH2 0x50C JUMP JUMPDEST PUSH2 0x2B7 JUMP JUMPDEST PUSH1 0x40 MLOAD PUSH2 0x204 SWAP2 SWAP1 PUSH2 0x5F1 JUMP JUMPDEST PUSH1 0x40 MLOAD DUP1 SWAP2 SUB SWAP1 RETURN JUMPDEST PUSH1 0x0 PUSH2 0x222 DUP3 DUP5 PUSH2 0x2CF SWAP1 SWAP2 SWAP1 PUSH4 0xFFFFFFFF AND JUMP JUMPDEST SWAP1 POP SWAP3 SWAP2 POP POP JUMP JUMPDEST PUSH1 0x0 PUSH2 0x23F DUP3 DUP5 PUSH2 0x2E5 SWAP1 SWAP2 SWAP1 PUSH4 0xFFFFFFFF AND JUMP JUMPDEST SWAP1 POP SWAP3 SWAP2 POP POP JUMP JUMPDEST PUSH1 0x0 PUSH2 0x25C DUP3 DUP5 PUSH2 0x2FB SWAP1 SWAP2 SWAP1 PUSH4 0xFFFFFFFF AND JUMP JUMPDEST SWAP1 POP SWAP3 SWAP2 POP POP JUMP JUMPDEST PUSH1 0x0 PUSH2 0x26F DUP3 PUSH2 0x311 JUMP JUMPDEST SWAP1 POP SWAP2 SWAP1 POP JUMP JUMPDEST PUSH1 0x0 PUSH2 0x281 DUP3 PUSH2 0x335 JUMP JUMPDEST SWAP1 POP SWAP2 SWAP1 POP JUMP JUMPDEST PUSH1 0x0 PUSH2 0x293 DUP3 PUSH2 0x34A JUMP JUMPDEST SWAP1 POP SWAP2 SWAP1 POP JUMP JUMPDEST PUSH1 0x0 PUSH2 0x2AF DUP3 DUP5 PUSH2 0x385 SWAP1 SWAP2 SWAP1 PUSH4 0xFFFFFFFF AND JUMP JUMPDEST SWAP1 POP SWAP3 SWAP2 POP POP JUMP JUMPDEST PUSH1 0x0 PUSH2 0x2C5 DUP3 PUSH1 0xF SIGNEXTEND PUSH2 0x39B JUMP JUMPDEST PUSH1 0xF SIGNEXTEND SWAP1 POP SWAP2 SWAP1 POP JUMP JUMPDEST PUSH1 0x0 DUP2 DUP4 PUSH2 0x2DD SWAP2 SWAP1 PUSH2 0x711 JUMP JUMPDEST SWAP1 POP SWAP3 SWAP2 POP POP JUMP JUMPDEST PUSH1 0x0 DUP2 DUP4 PUSH2 0x2F3 SWAP2 SWAP1 PUSH2 0x7AC JUMP JUMPDEST SWAP1 POP SWAP3 SWAP2 POP POP JUMP JUMPDEST PUSH1 0x0 DUP2 DUP4 PUSH2 0x309 SWAP2 SWAP1 PUSH2 0x91D JUMP JUMPDEST SWAP1 POP SWAP3 SWAP2 POP POP JUMP JUMPDEST PUSH1 0x0 DUP1 DUP3 SGT ISZERO PUSH2 0x323 JUMPI DUP2 SWAP1 POP PUSH2 0x330 JUMP JUMPDEST DUP2 PUSH2 0x32D SWAP1 PUSH2 0xA06 JUMP JUMPDEST SWAP1 POP JUMPDEST SWAP2 SWAP1 POP JUMP JUMPDEST PUSH1 0x0 DUP2 DUP3 PUSH2 0x343 SWAP2 SWAP1 PUSH2 0x7AC JUMP JUMPDEST SWAP1 POP SWAP2 SWAP1 POP JUMP JUMPDEST PUSH1 0x0 PUSH1 0x1 DUP3 GT PUSH2 0x35D JUMPI PUSH1 0x1 SWAP1 POP PUSH2 0x380 JUMP JUMPDEST PUSH2 0x372 PUSH1 0x1 DUP4 PUSH2 0x36D SWAP2 SWAP1 PUSH2 0x9B1 JUMP JUMPDEST PUSH2 0x34A JUMP JUMPDEST DUP3 PUSH2 0x37D SWAP2 SWAP1 PUSH2 0x8C3 JUMP JUMPDEST SWAP1 POP JUMPDEST SWAP2 SWAP1 POP JUMP JUMPDEST PUSH1 0x0 DUP2 DUP4 PUSH2 0x393 SWAP2 SWAP1 PUSH2 0x627 JUMP JUMPDEST SWAP1 POP SWAP3 SWAP2 POP POP JUMP JUMPDEST PUSH1 0x0 DUP1 DUP3 PUSH1 0xF SIGNEXTEND SLT ISZERO PUSH2 0x3AD JUMPI PUSH1 0x0 DUP1 REVERT JUMPDEST PUSH2 0x3B9 DUP3 PUSH1 0xF SIGNEXTEND PUSH2 0x3C0 JUMP JUMPDEST SWAP1 POP SWAP2 SWAP1 POP JUMP JUMPDEST PUSH1 0x0 DUP1 DUP3 LT ISZERO PUSH2 0x3CF JUMPI PUSH1 0x0 DUP1 REVERT JUMPDEST PUSH1 0x0 DUP3 EQ ISZERO PUSH2 0x3E1 JUMPI PUSH1 0x0 SWAP1 POP PUSH2 0x4C8 JUMP JUMPDEST PUSH1 0x0 PUSH1 0x1 SWAP1 POP PUSH1 0x2 DUP2 DUP5 PUSH2 0x3F5 SWAP2 SWAP1 PUSH2 0x77B JUMP JUMPDEST DUP3 PUSH2 0x400 SWAP2 SWAP1 PUSH2 0x6BB JUMP JUMPDEST PUSH2 0x40A SWAP2 SWAP1 PUSH2 0x77B JUMP JUMPDEST SWAP1 POP PUSH1 0x2 DUP2 DUP5 PUSH2 0x41A SWAP2 SWAP1 PUSH2 0x77B JUMP JUMPDEST DUP3 PUSH2 0x425 SWAP2 SWAP1 PUSH2 0x6BB JUMP JUMPDEST PUSH2 0x42F SWAP2 SWAP1 PUSH2 0x77B JUMP JUMPDEST SWAP1 POP PUSH1 0x2 DUP2 DUP5 PUSH2 0x43F SWAP2 SWAP1 PUSH2 0x77B JUMP JUMPDEST DUP3 PUSH2 0x44A SWAP2 SWAP1 PUSH2 0x6BB JUMP JUMPDEST PUSH2 0x454 SWAP2 SWAP1 PUSH2 0x77B JUMP JUMPDEST SWAP1 POP PUSH1 0x2 DUP2 DUP5 PUSH2 0x464 SWAP2 SWAP1 PUSH2 0x77B JUMP JUMPDEST DUP3 PUSH2 0x46F SWAP2 SWAP1 PUSH2 0x6BB JUMP JUMPDEST PUSH2 0x479 SWAP2 SWAP1 PUSH2 0x77B JUMP JUMPDEST SWAP1 POP PUSH1 0x2 DUP2 DUP5 PUSH2 0x489 SWAP2 SWAP1 PUSH2 0x77B JUMP JUMPDEST DUP3 PUSH2 0x494 SWAP2 SWAP1 PUSH2 0x6BB JUMP JUMPDEST PUSH2 0x49E SWAP2 SWAP1 PUSH2 0x77B JUMP JUMPDEST SWAP1 POP PUSH1 0x0 DUP2 DUP5 PUSH2 0x4AE SWAP2 SWAP1 PUSH2 0x77B JUMP JUMPDEST SWAP1 POP DUP1 DUP3 LT ISZERO PUSH2 0x4C2 JUMPI DUP2 SWAP3 POP POP POP PUSH2 0x4C8 JUMP JUMPDEST DUP1 SWAP3 POP POP POP JUMPDEST SWAP2 SWAP1 POP JUMP JUMPDEST PUSH1 0x0 DUP2 CALLDATALOAD SWAP1 POP PUSH2 0x4DC DUP2 PUSH2 0xAB2 JUMP JUMPDEST SWAP3 SWAP2 POP POP JUMP JUMPDEST PUSH1 0x0 DUP2 CALLDATALOAD SWAP1 POP PUSH2 0x4F1 DUP2 PUSH2 0xAC9 JUMP JUMPDEST SWAP3 SWAP2 POP POP JUMP JUMPDEST PUSH1 0x0 DUP2 CALLDATALOAD SWAP1 POP PUSH2 0x506 DUP2 PUSH2 0xAE0 JUMP JUMPDEST SWAP3 SWAP2 POP POP JUMP JUMPDEST PUSH1 0x0 PUSH1 0x20 DUP3 DUP5 SUB SLT ISZERO PUSH2 0x522 JUMPI PUSH2 0x521 PUSH2 0xAAD JUMP JUMPDEST JUMPDEST PUSH1 0x0 PUSH2 0x530 DUP5 DUP3 DUP6 ADD PUSH2 0x4CD JUMP JUMPDEST SWAP2 POP POP SWAP3 SWAP2 POP POP JUMP JUMPDEST PUSH1 0x0 PUSH1 0x20 DUP3 DUP5 SUB SLT ISZERO PUSH2 0x54F JUMPI PUSH2 0x54E PUSH2 0xAAD JUMP JUMPDEST JUMPDEST PUSH1 0x0 PUSH2 0x55D DUP5 DUP3 DUP6 ADD PUSH2 0x4E2 JUMP JUMPDEST SWAP2 POP POP SWAP3 SWAP2 POP POP JUMP JUMPDEST PUSH1 0x0 DUP1 PUSH1 0x40 DUP4 DUP6 SUB SLT ISZERO PUSH2 0x57D JUMPI PUSH2 0x57C PUSH2 0xAAD JUMP JUMPDEST JUMPDEST PUSH1 0x0 PUSH2 0x58B DUP6 DUP3 DUP7 ADD PUSH2 0x4E2 JUMP JUMPDEST SWAP3 POP POP PUSH1 0x20 PUSH2 0x59C DUP6 DUP3 DUP7 ADD PUSH2 0x4E2 JUMP JUMPDEST SWAP2 POP POP SWAP3 POP SWAP3 SWAP1 POP JUMP JUMPDEST PUSH1 0x0 PUSH1 0x20 DUP3 DUP5 SUB SLT ISZERO PUSH2 0x5BC JUMPI PUSH2 0x5BB PUSH2 0xAAD JUMP JUMPDEST JUMPDEST PUSH1 0x0 PUSH2 0x5CA DUP5 DUP3 DUP6 ADD PUSH2 0x4F7 JUMP JUMPDEST SWAP2 POP POP SWAP3 SWAP2 POP POP JUMP JUMPDEST PUSH2 0x5DC DUP2 PUSH2 0x9F2 JUMP JUMPDEST DUP3 MSTORE POP POP JUMP JUMPDEST PUSH2 0x5EB DUP2 PUSH2 0x9FC JUMP JUMPDEST DUP3 MSTORE POP POP JUMP JUMPDEST PUSH1 0x0 PUSH1 0x20 DUP3 ADD SWAP1 POP PUSH2 0x606 PUSH1 0x0 DUP4 ADD DUP5 PUSH2 0x5D3 JUMP JUMPDEST SWAP3 SWAP2 POP POP JUMP JUMPDEST PUSH1 0x0 PUSH1 0x20 DUP3 ADD SWAP1 POP PUSH2 0x621 PUSH1 0x0 DUP4 ADD DUP5 PUSH2 0x5E2 JUMP JUMPDEST SWAP3 SWAP2 POP POP JUMP JUMPDEST PUSH1 0x0 PUSH2 0x632 DUP3 PUSH2 0x9F2 JUMP JUMPDEST SWAP2 POP PUSH2 0x63D DUP4 PUSH2 0x9F2 JUMP JUMPDEST SWAP3 POP DUP2 PUSH32 0x7FFFFFFFFFFFFFFFFFFFFFFFFFFFFFFFFFFFFFFFFFFFFFFFFFFFFFFFFFFFFFFF SUB DUP4 SGT PUSH1 0x0 DUP4 SLT ISZERO AND ISZERO PUSH2 0x678 JUMPI PUSH2 0x677 PUSH2 0xA4F JUMP JUMPDEST JUMPDEST DUP2 PUSH32 0x8000000000000000000000000000000000000000000000000000000000000000 SUB DUP4 SLT PUSH1 0x0 DUP4 SLT AND ISZERO PUSH2 0x6B0 JUMPI PUSH2 0x6AF PUSH2 0xA4F JUMP JUMPDEST JUMPDEST DUP3 DUP3 ADD SWAP1 POP SWAP3 SWAP2 POP POP JUMP JUMPDEST PUSH1 0x0 PUSH2 0x6C6 DUP3 PUSH2 0x9FC JUMP JUMPDEST SWAP2 POP PUSH2 0x6D1 DUP4 PUSH2 0x9FC JUMP JUMPDEST SWAP3 POP DUP3 PUSH32 0xFFFFFFFFFFFFFFFFFFFFFFFFFFFFFFFFFFFFFFFFFFFFFFFFFFFFFFFFFFFFFFFF SUB DUP3 GT ISZERO PUSH2 0x706 JUMPI PUSH2 0x705 PUSH2 0xA4F JUMP JUMPDEST JUMPDEST DUP3 DUP3 ADD SWAP1 POP SWAP3 SWAP2 POP POP JUMP JUMPDEST PUSH1 0x0 PUSH2 0x71C DUP3 PUSH2 0x9F2 JUMP JUMPDEST SWAP2 POP PUSH2 0x727 DUP4 PUSH2 0x9F2 JUMP JUMPDEST SWAP3 POP DUP3 PUSH2 0x737 JUMPI PUSH2 0x736 PUSH2 0xA7E JUMP JUMPDEST JUMPDEST PUSH1 0x1 PUSH1 0x0 SUB DUP4 EQ PUSH32 0x8000000000000000000000000000000000000000000000000000000000000000 DUP4 EQ AND ISZERO PUSH2 0x770 JUMPI PUSH2 0x76F PUSH2 0xA4F JUMP JUMPDEST JUMPDEST DUP3 DUP3 SDIV SWAP1 POP SWAP3 SWAP2 POP POP JUMP JUMPDEST PUSH1 0x0 PUSH2 0x786 DUP3 PUSH2 0x9FC JUMP JUMPDEST SWAP2 POP PUSH2 0x791 DUP4 PUSH2 0x9FC JUMP JUMPDEST SWAP3 POP DUP3 PUSH2 0x7A1 JUMPI PUSH2 0x7A0 PUSH2 0xA7E JUMP JUMPDEST JUMPDEST DUP3 DUP3 DIV SWAP1 POP SWAP3 SWAP2 POP POP JUMP JUMPDEST PUSH1 0x0 PUSH2 0x7B7 DUP3 PUSH2 0x9F2 JUMP JUMPDEST SWAP2 POP PUSH2 0x7C2 DUP4 PUSH2 0x9F2 JUMP JUMPDEST SWAP3 POP DUP3 PUSH32 0x7FFFFFFFFFFFFFFFFFFFFFFFFFFFFFFFFFFFFFFFFFFFFFFFFFFFFFFFFFFFFFFF DIV DUP3 GT PUSH1 0x0 DUP5 SGT PUSH1 0x0 DUP5 SGT AND AND ISZERO PUSH2 0x801 JUMPI PUSH2 0x800 PUSH2 0xA4F JUMP JUMPDEST JUMPDEST DUP2 PUSH32 0x8000000000000000000000000000000000000000000000000000000000000000 SDIV DUP4 SLT PUSH1 0x0 DUP5 SLT PUSH1 0x0 DUP5 SGT AND AND ISZERO PUSH2 0x83E JUMPI PUSH2 0x83D PUSH2 0xA4F JUMP JUMPDEST JUMPDEST DUP3 PUSH32 0x8000000000000000000000000000000000000000000000000000000000000000 SDIV DUP3 SLT PUSH1 0x0 DUP5 SGT PUSH1 0x0 DUP5 SLT AND AND ISZERO PUSH2 0x87B JUMPI PUSH2 0x87A PUSH2 0xA4F JUMP JUMPDEST JUMPDEST DUP3 PUSH32 0x7FFFFFFFFFFFFFFFFFFFFFFFFFFFFFFFFFFFFFFFFFFFFFFFFFFFFFFFFFFFFFFF SDIV DUP3 SLT PUSH1 0x0 DUP5 SLT PUSH1 0x0 DUP5 SLT AND AND ISZERO PUSH2 0x8B8 JUMPI PUSH2 0x8B7 PUSH2 0xA4F JUMP JUMPDEST JUMPDEST DUP3 DUP3 MUL SWAP1 POP SWAP3 SWAP2 POP POP JUMP JUMPDEST PUSH1 0x0 PUSH2 0x8CE DUP3 PUSH2 0x9FC JUMP JUMPDEST SWAP2 POP PUSH2 0x8D9 DUP4 PUSH2 0x9FC JUMP JUMPDEST SWAP3 POP DUP2 PUSH32 0xFFFFFFFFFFFFFFFFFFFFFFFFFFFFFFFFFFFFFFFFFFFFFFFFFFFFFFFFFFFFFFFF DIV DUP4 GT DUP3 ISZERO ISZERO AND ISZERO PUSH2 0x912 JUMPI PUSH2 0x911 PUSH2 0xA4F JUMP JUMPDEST JUMPDEST DUP3 DUP3 MUL SWAP1 POP SWAP3 SWAP2 POP POP JUMP JUMPDEST PUSH1 0x0 PUSH2 0x928 DUP3 PUSH2 0x9F2 JUMP JUMPDEST SWAP2 POP PUSH2 0x933 DUP4 PUSH2 0x9F2 JUMP JUMPDEST SWAP3 POP DUP3 PUSH32 0x8000000000000000000000000000000000000000000000000000000000000000 ADD DUP3 SLT PUSH1 0x0 DUP5 SLT ISZERO AND ISZERO PUSH2 0x96E JUMPI PUSH2 0x96D PUSH2 0xA4F JUMP JUMPDEST JUMPDEST DUP3 PUSH32 0x7FFFFFFFFFFFFFFFFFFFFFFFFFFFFFFFFFFFFFFFFFFFFFFFFFFFFFFFFFFFFFFF ADD DUP3 SGT PUSH1 0x0 DUP5 SLT AND ISZERO PUSH2 0x9A6 JUMPI PUSH2 0x9A5 PUSH2 0xA4F JUMP JUMPDEST JUMPDEST DUP3 DUP3 SUB SWAP1 POP SWAP3 SWAP2 POP POP JUMP JUMPDEST PUSH1 0x0 PUSH2 0x9BC DUP3 PUSH2 0x9FC JUMP JUMPDEST SWAP2 POP PUSH2 0x9C7 DUP4 PUSH2 0x9FC JUMP JUMPDEST SWAP3 POP DUP3 DUP3 LT ISZERO PUSH2 0x9DA JUMPI PUSH2 0x9D9 PUSH2 0xA4F JUMP JUMPDEST JUMPDEST DUP3 DUP3 SUB SWAP1 POP SWAP3 SWAP2 POP POP JUMP JUMPDEST PUSH1 0x0 DUP2 PUSH1 0xF SIGNEXTEND SWAP1 POP SWAP2 SWAP1 POP JUMP JUMPDEST PUSH1 0x0 DUP2 SWAP1 POP SWAP2 SWAP1 POP JUMP JUMPDEST PUSH1 0x0 DUP2 SWAP1 POP SWAP2 SWAP1 POP JUMP JUMPDEST PUSH1 0x0 PUSH2 0xA11 DUP3 PUSH2 0x9F2 JUMP JUMPDEST SWAP2 POP PUSH32 0x8000000000000000000000000000000000000000000000000000000000000000 DUP3 EQ ISZERO PUSH2 0xA44 JUMPI PUSH2 0xA43 PUSH2 0xA4F JUMP JUMPDEST JUMPDEST DUP2 PUSH1 0x0 SUB SWAP1 POP SWAP2 SWAP1 POP JUMP JUMPDEST PUSH32 0x4E487B7100000000000000000000000000000000000000000000000000000000 PUSH1 0x0 MSTORE PUSH1 0x11 PUSH1 0x4 MSTORE PUSH1 0x24 PUSH1 0x0 REVERT JUMPDEST PUSH32 0x4E487B7100000000000000000000000000000000000000000000000000000000 PUSH1 0x0 MSTORE PUSH1 0x12 PUSH1 0x4 MSTORE PUSH1 0x24 PUSH1 0x0 REVERT JUMPDEST PUSH1 0x0 DUP1 REVERT JUMPDEST PUSH2 0xABB DUP2 PUSH2 0x9E5 JUMP JUMPDEST DUP2 EQ PUSH2 0xAC6 JUMPI PUSH1 0x0 DUP1 REVERT JUMPDEST POP JUMP JUMPDEST PUSH2 0xAD2 DUP2 PUSH2 0x9F2 JUMP JUMPDEST DUP2 EQ PUSH2 0xADD JUMPI PUSH1 0x0 DUP1 REVERT JUMPDEST POP JUMP JUMPDEST PUSH2 0xAE9 DUP2 PUSH2 0x9FC JUMP JUMPDEST DUP2 EQ PUSH2 0xAF4 JUMPI PUSH1 0x0 DUP1 REVERT JUMPDEST POP JUMP INVALID LOG2 PUSH5 0x6970667358 0x22 SLT KECCAK256 0xAB EXP SWAP6 PUSH12 0xB2EFB7A53E0070D9CACEB5A0 0x2F 0x4E DUP1 SIGNEXTEND MLOAD MUL ISZERO CALLDATALOAD 0x2C DUP15 0x5F 0xD2 0x2E 0xB5 CALLDATASIZE 0xC1 PUSH5 0x736F6C6343 STOP ADDMOD SMOD STOP CALLER LOG2 PUSH5 0x6970667358 0x22 SLT KECCAK256 BASEFEE PUSH32 0x99D2FED41F80F9F8EC28DC2BA483505AE7CB5A53E528489E3146673218266473 PUSH16 0x6C634300080700330000000000000000 "
				},
				"gasEstimates": {
					"creation": {
						"codeDepositCost": "1271600",
						"executionCost": "1322",
						"totalCost": "1272922"
					},
					"external": {
						"beforeAll()": "infinite",
						"checkFailure()": "infinite",
						"checkSuccess()": "infinite",
						"checkSuccess2()": "343"
					}
				},
				"methodIdentifiers": {
					"beforeAll()": "7fea0d4b",
					"checkFailure()": "36c00656",
					"checkSuccess()": "011e6492",
					"checkSuccess2()": "12d487ea"
				}
			},
			"storageLayout": {
				"storage": [
					{
						"astId": 120,
						"contract": "Documents/GitHub/SOLIDITY-REMIX/5ef069451e67668750287d64bc5f8bae/calculadora_test.sol:TestCalc",
						"label": "calc",
						"offset": 0,
						"slot": "0",
						"type": "t_contract(Calculadora)113"
					}
				],
				"types": {
					"t_contract(Calculadora)113": {
						"encoding": "inplace",
						"label": "contract Calculadora",
						"numberOfBytes": "20"
					}
				}
			},
			"userdoc": {
				"kind": "user",
				"methods": {
					"beforeAll()": {
						"notice": "'beforeAll' runs before all other tests More special functions are: 'beforeEach', 'beforeAll', 'afterEach' & 'afterAll'"
					}
				},
				"version": 1
			}
		}
	}
}