{
	"Documents/GitHub/SOLIDITY-REMIX/5ef069451e67668750287d64bc5f8bae/calculadora.sol": {
		"Calculadora": {
			"abi": [
				{
					"inputs": [
						{
							"internalType": "int256",
							"name": "a",
							"type": "int256"
						}
					],
					"name": "cuadrado",
					"outputs": [
						{
							"internalType": "uint256",
							"name": "",
							"type": "uint256"
						}
					],
					"stateMutability": "pure",
					"type": "function"
				},
				{
					"inputs": [
						{
							"internalType": "int256",
							"name": "a",
							"type": "int256"
						},
						{
							"internalType": "int256",
							"name": "b",
							"type": "int256"
						}
					],
					"name": "division",
					"outputs": [
						{
							"internalType": "int256",
							"name": "",
							"type": "int256"
						}
					],
					"stateMutability": "pure",
					"type": "function"
				},
				{
					"inputs": [
						{
							"internalType": "uint256",
							"name": "a",
							"type": "uint256"
						}
					],
					"name": "factorial",
					"outputs": [
						{
							"internalType": "uint256",
							"name": "",
							"type": "uint256"
						}
					],
					"stateMutability": "pure",
					"type": "function"
				},
				{
					"inputs": [
						{
							"internalType": "int256",
							"name": "a",
							"type": "int256"
						},
						{
							"internalType": "int256",
							"name": "b",
							"type": "int256"
						}
					],
					"name": "multiplicacion",
					"outputs": [
						{
							"internalType": "int256",
							"name": "",
							"type": "int256"
						}
					],
					"stateMutability": "pure",
					"type": "function"
				},
				{
					"inputs": [
						{
							"internalType": "int128",
							"name": "a",
							"type": "int128"
						}
					],
					"name": "raizCuadrada",
					"outputs": [
						{
							"internalType": "int256",
							"name": "",
							"type": "int256"
						}
					],
					"stateMutability": "pure",
					"type": "function"
				},
				{
					"inputs": [
						{
							"internalType": "int256",
							"name": "a",
							"type": "int256"
						},
						{
							"internalType": "int256",
							"name": "b",
							"type": "int256"
						}
					],
					"name": "resta",
					"outputs": [
						{
							"internalType": "int256",
							"name": "",
							"type": "int256"
						}
					],
					"stateMutability": "pure",
					"type": "function"
				},
				{
					"inputs": [
						{
							"internalType": "int256",
							"name": "a",
							"type": "int256"
						},
						{
							"internalType": "int256",
							"name": "b",
							"type": "int256"
						}
					],
					"name": "suma",
					"outputs": [
						{
							"internalType": "int256",
							"name": "",
							"type": "int256"
						}
					],
					"stateMutability": "pure",
					"type": "function"
				},
				{
					"inputs": [
						{
							"internalType": "int256",
							"name": "a",
							"type": "int256"
						}
					],
					"name": "valorAbsoluto",
					"outputs": [
						{
							"internalType": "uint256",
							"name": "",
							"type": "uint256"
						}
					],
					"stateMutability": "pure",
					"type": "function"
				}
			],
			"devdoc": {
				"kind": "dev",
				"methods": {},
				"version": 1
			},
			"evm": {
				"assembly": "    /* \"Documents/GitHub/SOLIDITY-REMIX/5ef069451e67668750287d64bc5f8bae/calculadora.sol\":94:957  contract Calculadora {\r... */\n  mstore(0x40, 0x80)\n  callvalue\n  dup1\n  iszero\n  tag_1\n  jumpi\n  0x00\n  dup1\n  revert\ntag_1:\n  pop\n  dataSize(sub_0)\n  dup1\n  dataOffset(sub_0)\n  0x00\n  codecopy\n  0x00\n  return\nstop\n\nsub_0: assembly {\n        /* \"Documents/GitHub/SOLIDITY-REMIX/5ef069451e67668750287d64bc5f8bae/calculadora.sol\":94:957  contract Calculadora {\r... */\n      mstore(0x40, 0x80)\n      callvalue\n      dup1\n      iszero\n      tag_1\n      jumpi\n      0x00\n      dup1\n      revert\n    tag_1:\n      pop\n      jumpi(tag_2, lt(calldatasize, 0x04))\n      shr(0xe0, calldataload(0x00))\n      dup1\n      0x7ea9e058\n      gt\n      tag_11\n      jumpi\n      dup1\n      0x7ea9e058\n      eq\n      tag_7\n      jumpi\n      dup1\n      0x83714834\n      eq\n      tag_8\n      jumpi\n      dup1\n      0x8f8a0d19\n      eq\n      tag_9\n      jumpi\n      dup1\n      0xb8501073\n      eq\n      tag_10\n      jumpi\n      jump(tag_2)\n    tag_11:\n      dup1\n      0x09b7cdda\n      eq\n      tag_3\n      jumpi\n      dup1\n      0x187983bf\n      eq\n      tag_4\n      jumpi\n      dup1\n      0x4c627bad\n      eq\n      tag_5\n      jumpi\n      dup1\n      0x7d825142\n      eq\n      tag_6\n      jumpi\n    tag_2:\n      0x00\n      dup1\n      revert\n        /* \"Documents/GitHub/SOLIDITY-REMIX/5ef069451e67668750287d64bc5f8bae/calculadora.sol\":463:557  function division(int a,int b) public pure returns (int){\r... */\n    tag_3:\n      tag_12\n      0x04\n      dup1\n      calldatasize\n      sub\n      dup2\n      add\n      swap1\n      tag_13\n      swap2\n      swap1\n      tag_14\n      jump\t// in\n    tag_13:\n      tag_15\n      jump\t// in\n    tag_12:\n      mload(0x40)\n      tag_16\n      swap2\n      swap1\n      tag_17\n      jump\t// in\n    tag_16:\n      mload(0x40)\n      dup1\n      swap2\n      sub\n      swap1\n      return\n        /* \"Documents/GitHub/SOLIDITY-REMIX/5ef069451e67668750287d64bc5f8bae/calculadora.sol\":350:455  function multiplicacion(int a, int b) public pure returns (int){\r... */\n    tag_4:\n      tag_18\n      0x04\n      dup1\n      calldatasize\n      sub\n      dup2\n      add\n      swap1\n      tag_19\n      swap2\n      swap1\n      tag_14\n      jump\t// in\n    tag_19:\n      tag_20\n      jump\t// in\n    tag_18:\n      mload(0x40)\n      tag_21\n      swap2\n      swap1\n      tag_17\n      jump\t// in\n    tag_21:\n      mload(0x40)\n      dup1\n      swap2\n      sub\n      swap1\n      return\n        /* \"Documents/GitHub/SOLIDITY-REMIX/5ef069451e67668750287d64bc5f8bae/calculadora.sol\":251:342  function resta(int a, int b) public pure returns (int){\r... */\n    tag_5:\n      tag_22\n      0x04\n      dup1\n      calldatasize\n      sub\n      dup2\n      add\n      swap1\n      tag_23\n      swap2\n      swap1\n      tag_14\n      jump\t// in\n    tag_23:\n      tag_24\n      jump\t// in\n    tag_22:\n      mload(0x40)\n      tag_25\n      swap2\n      swap1\n      tag_17\n      jump\t// in\n    tag_25:\n      mload(0x40)\n      dup1\n      swap2\n      sub\n      swap1\n      return\n        /* \"Documents/GitHub/SOLIDITY-REMIX/5ef069451e67668750287d64bc5f8bae/calculadora.sol\":667:762  function  valorAbsoluto(int a) public pure returns (uint){\r... */\n    tag_6:\n      tag_26\n      0x04\n      dup1\n      calldatasize\n      sub\n      dup2\n      add\n      swap1\n      tag_27\n      swap2\n      swap1\n      tag_28\n      jump\t// in\n    tag_27:\n      tag_29\n      jump\t// in\n    tag_26:\n      mload(0x40)\n      tag_30\n      swap2\n      swap1\n      tag_31\n      jump\t// in\n    tag_30:\n      mload(0x40)\n      dup1\n      swap2\n      sub\n      swap1\n      return\n        /* \"Documents/GitHub/SOLIDITY-REMIX/5ef069451e67668750287d64bc5f8bae/calculadora.sol\":770:855  function cuadrado(int a) public pure returns (uint){\r... */\n    tag_7:\n      tag_32\n      0x04\n      dup1\n      calldatasize\n      sub\n      dup2\n      add\n      swap1\n      tag_33\n      swap2\n      swap1\n      tag_28\n      jump\t// in\n    tag_33:\n      tag_34\n      jump\t// in\n    tag_32:\n      mload(0x40)\n      tag_35\n      swap2\n      swap1\n      tag_31\n      jump\t// in\n    tag_35:\n      mload(0x40)\n      dup1\n      swap2\n      sub\n      swap1\n      return\n        /* \"Documents/GitHub/SOLIDITY-REMIX/5ef069451e67668750287d64bc5f8bae/calculadora.sol\":565:659  function factorial(uint a) public pure returns (uint){\r... */\n    tag_8:\n      tag_36\n      0x04\n      dup1\n      calldatasize\n      sub\n      dup2\n      add\n      swap1\n      tag_37\n      swap2\n      swap1\n      tag_38\n      jump\t// in\n    tag_37:\n      tag_39\n      jump\t// in\n    tag_36:\n      mload(0x40)\n      tag_40\n      swap2\n      swap1\n      tag_31\n      jump\t// in\n    tag_40:\n      mload(0x40)\n      dup1\n      swap2\n      sub\n      swap1\n      return\n        /* \"Documents/GitHub/SOLIDITY-REMIX/5ef069451e67668750287d64bc5f8bae/calculadora.sol\":150:243  function suma(int a, int b) public pure returns (int){\r... */\n    tag_9:\n      tag_41\n      0x04\n      dup1\n      calldatasize\n      sub\n      dup2\n      add\n      swap1\n      tag_42\n      swap2\n      swap1\n      tag_14\n      jump\t// in\n    tag_42:\n      tag_43\n      jump\t// in\n    tag_41:\n      mload(0x40)\n      tag_44\n      swap2\n      swap1\n      tag_17\n      jump\t// in\n    tag_44:\n      mload(0x40)\n      dup1\n      swap2\n      sub\n      swap1\n      return\n        /* \"Documents/GitHub/SOLIDITY-REMIX/5ef069451e67668750287d64bc5f8bae/calculadora.sol\":863:954  function raizCuadrada(int128 a) public pure returns (int){\r... */\n    tag_10:\n      tag_45\n      0x04\n      dup1\n      calldatasize\n      sub\n      dup2\n      add\n      swap1\n      tag_46\n      swap2\n      swap1\n      tag_47\n      jump\t// in\n    tag_46:\n      tag_48\n      jump\t// in\n    tag_45:\n      mload(0x40)\n      tag_49\n      swap2\n      swap1\n      tag_17\n      jump\t// in\n    tag_49:\n      mload(0x40)\n      dup1\n      swap2\n      sub\n      swap1\n      return\n        /* \"Documents/GitHub/SOLIDITY-REMIX/5ef069451e67668750287d64bc5f8bae/calculadora.sol\":463:557  function division(int a,int b) public pure returns (int){\r... */\n    tag_15:\n        /* \"Documents/GitHub/SOLIDITY-REMIX/5ef069451e67668750287d64bc5f8bae/calculadora.sol\":515:518  int */\n      0x00\n        /* \"Documents/GitHub/SOLIDITY-REMIX/5ef069451e67668750287d64bc5f8bae/calculadora.sol\":537:549  a.dividir(b) */\n      tag_51\n        /* \"Documents/GitHub/SOLIDITY-REMIX/5ef069451e67668750287d64bc5f8bae/calculadora.sol\":547:548  b */\n      dup3\n        /* \"Documents/GitHub/SOLIDITY-REMIX/5ef069451e67668750287d64bc5f8bae/calculadora.sol\":537:538  a */\n      dup5\n        /* \"Documents/GitHub/SOLIDITY-REMIX/5ef069451e67668750287d64bc5f8bae/calculadora.sol\":537:546  a.dividir */\n      tag_52\n      swap1\n        /* \"Documents/GitHub/SOLIDITY-REMIX/5ef069451e67668750287d64bc5f8bae/calculadora.sol\":537:549  a.dividir(b) */\n      swap2\n      swap1\n      0xffffffff\n      and\n      jump\t// in\n    tag_51:\n        /* \"Documents/GitHub/SOLIDITY-REMIX/5ef069451e67668750287d64bc5f8bae/calculadora.sol\":530:549  return a.dividir(b) */\n      swap1\n      pop\n        /* \"Documents/GitHub/SOLIDITY-REMIX/5ef069451e67668750287d64bc5f8bae/calculadora.sol\":463:557  function division(int a,int b) public pure returns (int){\r... */\n      swap3\n      swap2\n      pop\n      pop\n      jump\t// out\n        /* \"Documents/GitHub/SOLIDITY-REMIX/5ef069451e67668750287d64bc5f8bae/calculadora.sol\":350:455  function multiplicacion(int a, int b) public pure returns (int){\r... */\n    tag_20:\n        /* \"Documents/GitHub/SOLIDITY-REMIX/5ef069451e67668750287d64bc5f8bae/calculadora.sol\":409:412  int */\n      0x00\n        /* \"Documents/GitHub/SOLIDITY-REMIX/5ef069451e67668750287d64bc5f8bae/calculadora.sol\":431:447  a.multiplicar(b) */\n      tag_54\n        /* \"Documents/GitHub/SOLIDITY-REMIX/5ef069451e67668750287d64bc5f8bae/calculadora.sol\":445:446  b */\n      dup3\n        /* \"Documents/GitHub/SOLIDITY-REMIX/5ef069451e67668750287d64bc5f8bae/calculadora.sol\":431:432  a */\n      dup5\n        /* \"Documents/GitHub/SOLIDITY-REMIX/5ef069451e67668750287d64bc5f8bae/calculadora.sol\":431:444  a.multiplicar */\n      tag_55\n      swap1\n        /* \"Documents/GitHub/SOLIDITY-REMIX/5ef069451e67668750287d64bc5f8bae/calculadora.sol\":431:447  a.multiplicar(b) */\n      swap2\n      swap1\n      0xffffffff\n      and\n      jump\t// in\n    tag_54:\n        /* \"Documents/GitHub/SOLIDITY-REMIX/5ef069451e67668750287d64bc5f8bae/calculadora.sol\":424:447  return a.multiplicar(b) */\n      swap1\n      pop\n        /* \"Documents/GitHub/SOLIDITY-REMIX/5ef069451e67668750287d64bc5f8bae/calculadora.sol\":350:455  function multiplicacion(int a, int b) public pure returns (int){\r... */\n      swap3\n      swap2\n      pop\n      pop\n      jump\t// out\n        /* \"Documents/GitHub/SOLIDITY-REMIX/5ef069451e67668750287d64bc5f8bae/calculadora.sol\":251:342  function resta(int a, int b) public pure returns (int){\r... */\n    tag_24:\n        /* \"Documents/GitHub/SOLIDITY-REMIX/5ef069451e67668750287d64bc5f8bae/calculadora.sol\":301:304  int */\n      0x00\n        /* \"Documents/GitHub/SOLIDITY-REMIX/5ef069451e67668750287d64bc5f8bae/calculadora.sol\":323:334  a.restar(b) */\n      tag_57\n        /* \"Documents/GitHub/SOLIDITY-REMIX/5ef069451e67668750287d64bc5f8bae/calculadora.sol\":332:333  b */\n      dup3\n        /* \"Documents/GitHub/SOLIDITY-REMIX/5ef069451e67668750287d64bc5f8bae/calculadora.sol\":323:324  a */\n      dup5\n        /* \"Documents/GitHub/SOLIDITY-REMIX/5ef069451e67668750287d64bc5f8bae/calculadora.sol\":323:331  a.restar */\n      tag_58\n      swap1\n        /* \"Documents/GitHub/SOLIDITY-REMIX/5ef069451e67668750287d64bc5f8bae/calculadora.sol\":323:334  a.restar(b) */\n      swap2\n      swap1\n      0xffffffff\n      and\n      jump\t// in\n    tag_57:\n        /* \"Documents/GitHub/SOLIDITY-REMIX/5ef069451e67668750287d64bc5f8bae/calculadora.sol\":316:334  return a.restar(b) */\n      swap1\n      pop\n        /* \"Documents/GitHub/SOLIDITY-REMIX/5ef069451e67668750287d64bc5f8bae/calculadora.sol\":251:342  function resta(int a, int b) public pure returns (int){\r... */\n      swap3\n      swap2\n      pop\n      pop\n      jump\t// out\n        /* \"Documents/GitHub/SOLIDITY-REMIX/5ef069451e67668750287d64bc5f8bae/calculadora.sol\":667:762  function  valorAbsoluto(int a) public pure returns (uint){\r... */\n    tag_29:\n        /* \"Documents/GitHub/SOLIDITY-REMIX/5ef069451e67668750287d64bc5f8bae/calculadora.sol\":719:723  uint */\n      0x00\n        /* \"Documents/GitHub/SOLIDITY-REMIX/5ef069451e67668750287d64bc5f8bae/calculadora.sol\":742:754  a.absoluto() */\n      tag_60\n        /* \"Documents/GitHub/SOLIDITY-REMIX/5ef069451e67668750287d64bc5f8bae/calculadora.sol\":742:743  a */\n      dup3\n        /* \"Documents/GitHub/SOLIDITY-REMIX/5ef069451e67668750287d64bc5f8bae/calculadora.sol\":742:752  a.absoluto */\n      tag_61\n        /* \"Documents/GitHub/SOLIDITY-REMIX/5ef069451e67668750287d64bc5f8bae/calculadora.sol\":742:754  a.absoluto() */\n      jump\t// in\n    tag_60:\n        /* \"Documents/GitHub/SOLIDITY-REMIX/5ef069451e67668750287d64bc5f8bae/calculadora.sol\":735:754  return a.absoluto() */\n      swap1\n      pop\n        /* \"Documents/GitHub/SOLIDITY-REMIX/5ef069451e67668750287d64bc5f8bae/calculadora.sol\":667:762  function  valorAbsoluto(int a) public pure returns (uint){\r... */\n      swap2\n      swap1\n      pop\n      jump\t// out\n        /* \"Documents/GitHub/SOLIDITY-REMIX/5ef069451e67668750287d64bc5f8bae/calculadora.sol\":770:855  function cuadrado(int a) public pure returns (uint){\r... */\n    tag_34:\n        /* \"Documents/GitHub/SOLIDITY-REMIX/5ef069451e67668750287d64bc5f8bae/calculadora.sol\":816:820  uint */\n      0x00\n        /* \"Documents/GitHub/SOLIDITY-REMIX/5ef069451e67668750287d64bc5f8bae/calculadora.sol\":839:847  a.pow2() */\n      tag_63\n        /* \"Documents/GitHub/SOLIDITY-REMIX/5ef069451e67668750287d64bc5f8bae/calculadora.sol\":839:840  a */\n      dup3\n        /* \"Documents/GitHub/SOLIDITY-REMIX/5ef069451e67668750287d64bc5f8bae/calculadora.sol\":839:845  a.pow2 */\n      tag_64\n        /* \"Documents/GitHub/SOLIDITY-REMIX/5ef069451e67668750287d64bc5f8bae/calculadora.sol\":839:847  a.pow2() */\n      jump\t// in\n    tag_63:\n        /* \"Documents/GitHub/SOLIDITY-REMIX/5ef069451e67668750287d64bc5f8bae/calculadora.sol\":832:847  return a.pow2() */\n      swap1\n      pop\n        /* \"Documents/GitHub/SOLIDITY-REMIX/5ef069451e67668750287d64bc5f8bae/calculadora.sol\":770:855  function cuadrado(int a) public pure returns (uint){\r... */\n      swap2\n      swap1\n      pop\n      jump\t// out\n        /* \"Documents/GitHub/SOLIDITY-REMIX/5ef069451e67668750287d64bc5f8bae/calculadora.sol\":565:659  function factorial(uint a) public pure returns (uint){\r... */\n    tag_39:\n        /* \"Documents/GitHub/SOLIDITY-REMIX/5ef069451e67668750287d64bc5f8bae/calculadora.sol\":613:617  uint */\n      0x00\n        /* \"Documents/GitHub/SOLIDITY-REMIX/5ef069451e67668750287d64bc5f8bae/calculadora.sol\":636:651  a.factoriales() */\n      tag_66\n        /* \"Documents/GitHub/SOLIDITY-REMIX/5ef069451e67668750287d64bc5f8bae/calculadora.sol\":636:637  a */\n      dup3\n        /* \"Documents/GitHub/SOLIDITY-REMIX/5ef069451e67668750287d64bc5f8bae/calculadora.sol\":636:649  a.factoriales */\n      tag_67\n        /* \"Documents/GitHub/SOLIDITY-REMIX/5ef069451e67668750287d64bc5f8bae/calculadora.sol\":636:651  a.factoriales() */\n      jump\t// in\n    tag_66:\n        /* \"Documents/GitHub/SOLIDITY-REMIX/5ef069451e67668750287d64bc5f8bae/calculadora.sol\":629:651  return a.factoriales() */\n      swap1\n      pop\n        /* \"Documents/GitHub/SOLIDITY-REMIX/5ef069451e67668750287d64bc5f8bae/calculadora.sol\":565:659  function factorial(uint a) public pure returns (uint){\r... */\n      swap2\n      swap1\n      pop\n      jump\t// out\n        /* \"Documents/GitHub/SOLIDITY-REMIX/5ef069451e67668750287d64bc5f8bae/calculadora.sol\":150:243  function suma(int a, int b) public pure returns (int){\r... */\n    tag_43:\n        /* \"Documents/GitHub/SOLIDITY-REMIX/5ef069451e67668750287d64bc5f8bae/calculadora.sol\":199:202  int */\n      0x00\n        /* \"Documents/GitHub/SOLIDITY-REMIX/5ef069451e67668750287d64bc5f8bae/calculadora.sol\":225:235  a.sumar(b) */\n      tag_69\n        /* \"Documents/GitHub/SOLIDITY-REMIX/5ef069451e67668750287d64bc5f8bae/calculadora.sol\":233:234  b */\n      dup3\n        /* \"Documents/GitHub/SOLIDITY-REMIX/5ef069451e67668750287d64bc5f8bae/calculadora.sol\":225:226  a */\n      dup5\n        /* \"Documents/GitHub/SOLIDITY-REMIX/5ef069451e67668750287d64bc5f8bae/calculadora.sol\":225:232  a.sumar */\n      tag_70\n      swap1\n        /* \"Documents/GitHub/SOLIDITY-REMIX/5ef069451e67668750287d64bc5f8bae/calculadora.sol\":225:235  a.sumar(b) */\n      swap2\n      swap1\n      0xffffffff\n      and\n      jump\t// in\n    tag_69:\n        /* \"Documents/GitHub/SOLIDITY-REMIX/5ef069451e67668750287d64bc5f8bae/calculadora.sol\":218:235  return a.sumar(b) */\n      swap1\n      pop\n        /* \"Documents/GitHub/SOLIDITY-REMIX/5ef069451e67668750287d64bc5f8bae/calculadora.sol\":150:243  function suma(int a, int b) public pure returns (int){\r... */\n      swap3\n      swap2\n      pop\n      pop\n      jump\t// out\n        /* \"Documents/GitHub/SOLIDITY-REMIX/5ef069451e67668750287d64bc5f8bae/calculadora.sol\":863:954  function raizCuadrada(int128 a) public pure returns (int){\r... */\n    tag_48:\n        /* \"Documents/GitHub/SOLIDITY-REMIX/5ef069451e67668750287d64bc5f8bae/calculadora.sol\":916:919  int */\n      0x00\n        /* \"Documents/GitHub/SOLIDITY-REMIX/5ef069451e67668750287d64bc5f8bae/calculadora.sol\":938:946  a.sqrt() */\n      tag_72\n        /* \"Documents/GitHub/SOLIDITY-REMIX/5ef069451e67668750287d64bc5f8bae/calculadora.sol\":938:939  a */\n      dup3\n        /* \"Documents/GitHub/SOLIDITY-REMIX/5ef069451e67668750287d64bc5f8bae/calculadora.sol\":938:944  a.sqrt */\n      0x0f\n      signextend\n      tag_73\n        /* \"Documents/GitHub/SOLIDITY-REMIX/5ef069451e67668750287d64bc5f8bae/calculadora.sol\":938:946  a.sqrt() */\n      jump\t// in\n    tag_72:\n        /* \"Documents/GitHub/SOLIDITY-REMIX/5ef069451e67668750287d64bc5f8bae/calculadora.sol\":931:946  return a.sqrt() */\n      0x0f\n      signextend\n      swap1\n      pop\n        /* \"Documents/GitHub/SOLIDITY-REMIX/5ef069451e67668750287d64bc5f8bae/calculadora.sol\":863:954  function raizCuadrada(int128 a) public pure returns (int){\r... */\n      swap2\n      swap1\n      pop\n      jump\t// out\n        /* \"Documents/GitHub/SOLIDITY-REMIX/5ef069451e67668750287d64bc5f8bae/libmates.sol\":471:565  function dividir(int _a,int _b) internal pure returns(int) {\r... */\n    tag_52:\n        /* \"Documents/GitHub/SOLIDITY-REMIX/5ef069451e67668750287d64bc5f8bae/libmates.sol\":525:528  int */\n      0x00\n        /* \"Documents/GitHub/SOLIDITY-REMIX/5ef069451e67668750287d64bc5f8bae/libmates.sol\":554:556  _b */\n      dup2\n        /* \"Documents/GitHub/SOLIDITY-REMIX/5ef069451e67668750287d64bc5f8bae/libmates.sol\":549:551  _a */\n      dup4\n        /* \"Documents/GitHub/SOLIDITY-REMIX/5ef069451e67668750287d64bc5f8bae/libmates.sol\":549:556  _a / _b */\n      tag_75\n      swap2\n      swap1\n      tag_76\n      jump\t// in\n    tag_75:\n        /* \"Documents/GitHub/SOLIDITY-REMIX/5ef069451e67668750287d64bc5f8bae/libmates.sol\":541:557  return (_a / _b) */\n      swap1\n      pop\n        /* \"Documents/GitHub/SOLIDITY-REMIX/5ef069451e67668750287d64bc5f8bae/libmates.sol\":471:565  function dividir(int _a,int _b) internal pure returns(int) {\r... */\n      swap3\n      swap2\n      pop\n      pop\n      jump\t// out\n        /* \"Documents/GitHub/SOLIDITY-REMIX/5ef069451e67668750287d64bc5f8bae/libmates.sol\":365:463  function multiplicar(int _a,int _b) internal pure returns(int) {\r... */\n    tag_55:\n        /* \"Documents/GitHub/SOLIDITY-REMIX/5ef069451e67668750287d64bc5f8bae/libmates.sol\":423:426  int */\n      0x00\n        /* \"Documents/GitHub/SOLIDITY-REMIX/5ef069451e67668750287d64bc5f8bae/libmates.sol\":452:454  _b */\n      dup2\n        /* \"Documents/GitHub/SOLIDITY-REMIX/5ef069451e67668750287d64bc5f8bae/libmates.sol\":447:449  _a */\n      dup4\n        /* \"Documents/GitHub/SOLIDITY-REMIX/5ef069451e67668750287d64bc5f8bae/libmates.sol\":447:454  _a * _b */\n      tag_78\n      swap2\n      swap1\n      tag_79\n      jump\t// in\n    tag_78:\n        /* \"Documents/GitHub/SOLIDITY-REMIX/5ef069451e67668750287d64bc5f8bae/libmates.sol\":439:455  return (_a * _b) */\n      swap1\n      pop\n        /* \"Documents/GitHub/SOLIDITY-REMIX/5ef069451e67668750287d64bc5f8bae/libmates.sol\":365:463  function multiplicar(int _a,int _b) internal pure returns(int) {\r... */\n      swap3\n      swap2\n      pop\n      pop\n      jump\t// out\n        /* \"Documents/GitHub/SOLIDITY-REMIX/5ef069451e67668750287d64bc5f8bae/libmates.sol\":264:357  function restar(int _a,int _b) internal pure returns(int) {\r... */\n    tag_58:\n        /* \"Documents/GitHub/SOLIDITY-REMIX/5ef069451e67668750287d64bc5f8bae/libmates.sol\":317:320  int */\n      0x00\n        /* \"Documents/GitHub/SOLIDITY-REMIX/5ef069451e67668750287d64bc5f8bae/libmates.sol\":346:348  _b */\n      dup2\n        /* \"Documents/GitHub/SOLIDITY-REMIX/5ef069451e67668750287d64bc5f8bae/libmates.sol\":341:343  _a */\n      dup4\n        /* \"Documents/GitHub/SOLIDITY-REMIX/5ef069451e67668750287d64bc5f8bae/libmates.sol\":341:348  _a - _b */\n      tag_81\n      swap2\n      swap1\n      tag_82\n      jump\t// in\n    tag_81:\n        /* \"Documents/GitHub/SOLIDITY-REMIX/5ef069451e67668750287d64bc5f8bae/libmates.sol\":333:349  return (_a - _b) */\n      swap1\n      pop\n        /* \"Documents/GitHub/SOLIDITY-REMIX/5ef069451e67668750287d64bc5f8bae/libmates.sol\":264:357  function restar(int _a,int _b) internal pure returns(int) {\r... */\n      swap3\n      swap2\n      pop\n      pop\n      jump\t// out\n        /* \"Documents/GitHub/SOLIDITY-REMIX/5ef069451e67668750287d64bc5f8bae/libmates.sol\":775:959  function absoluto(int _a) internal pure returns(uint) {\r... */\n    tag_61:\n        /* \"Documents/GitHub/SOLIDITY-REMIX/5ef069451e67668750287d64bc5f8bae/libmates.sol\":823:827  uint */\n      0x00\n        /* \"Documents/GitHub/SOLIDITY-REMIX/5ef069451e67668750287d64bc5f8bae/libmates.sol\":849:850  0 */\n      dup1\n        /* \"Documents/GitHub/SOLIDITY-REMIX/5ef069451e67668750287d64bc5f8bae/libmates.sol\":844:846  _a */\n      dup3\n        /* \"Documents/GitHub/SOLIDITY-REMIX/5ef069451e67668750287d64bc5f8bae/libmates.sol\":844:850  _a > 0 */\n      sgt\n        /* \"Documents/GitHub/SOLIDITY-REMIX/5ef069451e67668750287d64bc5f8bae/libmates.sol\":840:952  if (_a > 0){\r... */\n      iszero\n      tag_84\n      jumpi\n        /* \"Documents/GitHub/SOLIDITY-REMIX/5ef069451e67668750287d64bc5f8bae/libmates.sol\":878:880  _a */\n      dup2\n        /* \"Documents/GitHub/SOLIDITY-REMIX/5ef069451e67668750287d64bc5f8bae/libmates.sol\":866:882  return(uint(_a)) */\n      swap1\n      pop\n      jump(tag_83)\n        /* \"Documents/GitHub/SOLIDITY-REMIX/5ef069451e67668750287d64bc5f8bae/libmates.sol\":840:952  if (_a > 0){\r... */\n    tag_84:\n        /* \"Documents/GitHub/SOLIDITY-REMIX/5ef069451e67668750287d64bc5f8bae/libmates.sol\":936:938  _a */\n      dup2\n        /* \"Documents/GitHub/SOLIDITY-REMIX/5ef069451e67668750287d64bc5f8bae/libmates.sol\":935:938  -_a */\n      tag_86\n      swap1\n      tag_87\n      jump\t// in\n    tag_86:\n        /* \"Documents/GitHub/SOLIDITY-REMIX/5ef069451e67668750287d64bc5f8bae/libmates.sol\":923:940  return(uint(-_a)) */\n      swap1\n      pop\n        /* \"Documents/GitHub/SOLIDITY-REMIX/5ef069451e67668750287d64bc5f8bae/libmates.sol\":775:959  function absoluto(int _a) internal pure returns(uint) {\r... */\n    tag_83:\n      swap2\n      swap1\n      pop\n      jump\t// out\n        /* \"Documents/GitHub/SOLIDITY-REMIX/5ef069451e67668750287d64bc5f8bae/libmates.sol\":967:1056  function pow2(int _a) internal pure returns(uint) {\r... */\n    tag_64:\n        /* \"Documents/GitHub/SOLIDITY-REMIX/5ef069451e67668750287d64bc5f8bae/libmates.sol\":1011:1015  uint */\n      0x00\n        /* \"Documents/GitHub/SOLIDITY-REMIX/5ef069451e67668750287d64bc5f8bae/libmates.sol\":1045:1047  _a */\n      dup2\n        /* \"Documents/GitHub/SOLIDITY-REMIX/5ef069451e67668750287d64bc5f8bae/libmates.sol\":1040:1042  _a */\n      dup3\n        /* \"Documents/GitHub/SOLIDITY-REMIX/5ef069451e67668750287d64bc5f8bae/libmates.sol\":1040:1047  _a * _a */\n      tag_89\n      swap2\n      swap1\n      tag_79\n      jump\t// in\n    tag_89:\n        /* \"Documents/GitHub/SOLIDITY-REMIX/5ef069451e67668750287d64bc5f8bae/libmates.sol\":1028:1048  return uint(_a * _a) */\n      swap1\n      pop\n        /* \"Documents/GitHub/SOLIDITY-REMIX/5ef069451e67668750287d64bc5f8bae/libmates.sol\":967:1056  function pow2(int _a) internal pure returns(uint) {\r... */\n      swap2\n      swap1\n      pop\n      jump\t// out\n        /* \"Documents/GitHub/SOLIDITY-REMIX/5ef069451e67668750287d64bc5f8bae/libmates.sol\":573:767  function factoriales(uint _a) internal pure returns(uint){\r... */\n    tag_67:\n        /* \"Documents/GitHub/SOLIDITY-REMIX/5ef069451e67668750287d64bc5f8bae/libmates.sol\":625:629  uint */\n      0x00\n        /* \"Documents/GitHub/SOLIDITY-REMIX/5ef069451e67668750287d64bc5f8bae/libmates.sol\":651:652  1 */\n      0x01\n        /* \"Documents/GitHub/SOLIDITY-REMIX/5ef069451e67668750287d64bc5f8bae/libmates.sol\":645:647  _a */\n      dup3\n        /* \"Documents/GitHub/SOLIDITY-REMIX/5ef069451e67668750287d64bc5f8bae/libmates.sol\":645:652  _a <= 1 */\n      gt\n        /* \"Documents/GitHub/SOLIDITY-REMIX/5ef069451e67668750287d64bc5f8bae/libmates.sol\":641:760  if (_a <= 1){\r... */\n      tag_91\n      jumpi\n        /* \"Documents/GitHub/SOLIDITY-REMIX/5ef069451e67668750287d64bc5f8bae/libmates.sol\":675:676  1 */\n      0x01\n        /* \"Documents/GitHub/SOLIDITY-REMIX/5ef069451e67668750287d64bc5f8bae/libmates.sol\":668:676  return 1 */\n      swap1\n      pop\n      jump(tag_90)\n        /* \"Documents/GitHub/SOLIDITY-REMIX/5ef069451e67668750287d64bc5f8bae/libmates.sol\":641:760  if (_a <= 1){\r... */\n    tag_91:\n        /* \"Documents/GitHub/SOLIDITY-REMIX/5ef069451e67668750287d64bc5f8bae/libmates.sol\":730:747  factoriales(_a-1) */\n      tag_93\n        /* \"Documents/GitHub/SOLIDITY-REMIX/5ef069451e67668750287d64bc5f8bae/libmates.sol\":745:746  1 */\n      0x01\n        /* \"Documents/GitHub/SOLIDITY-REMIX/5ef069451e67668750287d64bc5f8bae/libmates.sol\":742:744  _a */\n      dup4\n        /* \"Documents/GitHub/SOLIDITY-REMIX/5ef069451e67668750287d64bc5f8bae/libmates.sol\":742:746  _a-1 */\n      tag_94\n      swap2\n      swap1\n      tag_95\n      jump\t// in\n    tag_94:\n        /* \"Documents/GitHub/SOLIDITY-REMIX/5ef069451e67668750287d64bc5f8bae/libmates.sol\":730:741  factoriales */\n      tag_67\n        /* \"Documents/GitHub/SOLIDITY-REMIX/5ef069451e67668750287d64bc5f8bae/libmates.sol\":730:747  factoriales(_a-1) */\n      jump\t// in\n    tag_93:\n        /* \"Documents/GitHub/SOLIDITY-REMIX/5ef069451e67668750287d64bc5f8bae/libmates.sol\":725:727  _a */\n      dup3\n        /* \"Documents/GitHub/SOLIDITY-REMIX/5ef069451e67668750287d64bc5f8bae/libmates.sol\":725:747  _a * factoriales(_a-1) */\n      tag_96\n      swap2\n      swap1\n      tag_97\n      jump\t// in\n    tag_96:\n        /* \"Documents/GitHub/SOLIDITY-REMIX/5ef069451e67668750287d64bc5f8bae/libmates.sol\":717:748  return (_a * factoriales(_a-1)) */\n      swap1\n      pop\n        /* \"Documents/GitHub/SOLIDITY-REMIX/5ef069451e67668750287d64bc5f8bae/libmates.sol\":573:767  function factoriales(uint _a) internal pure returns(uint){\r... */\n    tag_90:\n      swap2\n      swap1\n      pop\n      jump\t// out\n        /* \"Documents/GitHub/SOLIDITY-REMIX/5ef069451e67668750287d64bc5f8bae/libmates.sol\":164:256  function sumar(int _a,int _b) internal pure returns(int) {\r... */\n    tag_70:\n        /* \"Documents/GitHub/SOLIDITY-REMIX/5ef069451e67668750287d64bc5f8bae/libmates.sol\":216:219  int */\n      0x00\n        /* \"Documents/GitHub/SOLIDITY-REMIX/5ef069451e67668750287d64bc5f8bae/libmates.sol\":245:247  _b */\n      dup2\n        /* \"Documents/GitHub/SOLIDITY-REMIX/5ef069451e67668750287d64bc5f8bae/libmates.sol\":240:242  _a */\n      dup4\n        /* \"Documents/GitHub/SOLIDITY-REMIX/5ef069451e67668750287d64bc5f8bae/libmates.sol\":240:247  _a + _b */\n      tag_99\n      swap2\n      swap1\n      tag_100\n      jump\t// in\n    tag_99:\n        /* \"Documents/GitHub/SOLIDITY-REMIX/5ef069451e67668750287d64bc5f8bae/libmates.sol\":232:248  return (_a + _b) */\n      swap1\n      pop\n        /* \"Documents/GitHub/SOLIDITY-REMIX/5ef069451e67668750287d64bc5f8bae/libmates.sol\":164:256  function sumar(int _a,int _b) internal pure returns(int) {\r... */\n      swap3\n      swap2\n      pop\n      pop\n      jump\t// out\n        /* \"Documents/GitHub/SOLIDITY-REMIX/5ef069451e67668750287d64bc5f8bae/libmates.sol\":1066:1212  function sqrt(int128 x) internal pure returns(int128){\r... */\n    tag_73:\n        /* \"Documents/GitHub/SOLIDITY-REMIX/5ef069451e67668750287d64bc5f8bae/libmates.sol\":1112:1118  int128 */\n      0x00\n        /* \"Documents/GitHub/SOLIDITY-REMIX/5ef069451e67668750287d64bc5f8bae/libmates.sol\":1143:1144  0 */\n      dup1\n        /* \"Documents/GitHub/SOLIDITY-REMIX/5ef069451e67668750287d64bc5f8bae/libmates.sol\":1140:1141  x */\n      dup3\n        /* \"Documents/GitHub/SOLIDITY-REMIX/5ef069451e67668750287d64bc5f8bae/libmates.sol\":1140:1144  x>=0 */\n      0x0f\n      signextend\n      slt\n      iszero\n        /* \"Documents/GitHub/SOLIDITY-REMIX/5ef069451e67668750287d64bc5f8bae/libmates.sol\":1130:1146  require ( x>=0 ) */\n      tag_102\n      jumpi\n      0x00\n      dup1\n      revert\n    tag_102:\n        /* \"Documents/GitHub/SOLIDITY-REMIX/5ef069451e67668750287d64bc5f8bae/libmates.sol\":1171:1203  sqrtUnsigned(uint256(int256(x))) */\n      tag_103\n        /* \"Documents/GitHub/SOLIDITY-REMIX/5ef069451e67668750287d64bc5f8bae/libmates.sol\":1199:1200  x */\n      dup3\n        /* \"Documents/GitHub/SOLIDITY-REMIX/5ef069451e67668750287d64bc5f8bae/libmates.sol\":1192:1201  int256(x) */\n      0x0f\n      signextend\n        /* \"Documents/GitHub/SOLIDITY-REMIX/5ef069451e67668750287d64bc5f8bae/libmates.sol\":1171:1183  sqrtUnsigned */\n      tag_104\n        /* \"Documents/GitHub/SOLIDITY-REMIX/5ef069451e67668750287d64bc5f8bae/libmates.sol\":1171:1203  sqrtUnsigned(uint256(int256(x))) */\n      jump\t// in\n    tag_103:\n        /* \"Documents/GitHub/SOLIDITY-REMIX/5ef069451e67668750287d64bc5f8bae/libmates.sol\":1157:1204  return int128(sqrtUnsigned(uint256(int256(x)))) */\n      swap1\n      pop\n        /* \"Documents/GitHub/SOLIDITY-REMIX/5ef069451e67668750287d64bc5f8bae/libmates.sol\":1066:1212  function sqrt(int128 x) internal pure returns(int128){\r... */\n      swap2\n      swap1\n      pop\n      jump\t// out\n        /* \"Documents/GitHub/SOLIDITY-REMIX/5ef069451e67668750287d64bc5f8bae/libmates.sol\":1220:1769  function sqrtUnsigned (uint256 x) internal pure returns(uint128) {\r... */\n    tag_104:\n        /* \"Documents/GitHub/SOLIDITY-REMIX/5ef069451e67668750287d64bc5f8bae/libmates.sol\":1276:1283  uint128 */\n      0x00\n        /* \"Documents/GitHub/SOLIDITY-REMIX/5ef069451e67668750287d64bc5f8bae/libmates.sol\":1310:1311  0 */\n      dup1\n        /* \"Documents/GitHub/SOLIDITY-REMIX/5ef069451e67668750287d64bc5f8bae/libmates.sol\":1305:1306  x */\n      dup3\n        /* \"Documents/GitHub/SOLIDITY-REMIX/5ef069451e67668750287d64bc5f8bae/libmates.sol\":1305:1311  x >= 0 */\n      lt\n      iszero\n        /* \"Documents/GitHub/SOLIDITY-REMIX/5ef069451e67668750287d64bc5f8bae/libmates.sol\":1296:1312  require (x >= 0) */\n      tag_106\n      jumpi\n      0x00\n      dup1\n      revert\n    tag_106:\n        /* \"Documents/GitHub/SOLIDITY-REMIX/5ef069451e67668750287d64bc5f8bae/libmates.sol\":1332:1333  0 */\n      0x00\n        /* \"Documents/GitHub/SOLIDITY-REMIX/5ef069451e67668750287d64bc5f8bae/libmates.sol\":1327:1328  x */\n      dup3\n        /* \"Documents/GitHub/SOLIDITY-REMIX/5ef069451e67668750287d64bc5f8bae/libmates.sol\":1327:1333  x == 0 */\n      eq\n        /* \"Documents/GitHub/SOLIDITY-REMIX/5ef069451e67668750287d64bc5f8bae/libmates.sol\":1323:1756  if (x == 0) return 0;\r... */\n      iszero\n      tag_107\n      jumpi\n        /* \"Documents/GitHub/SOLIDITY-REMIX/5ef069451e67668750287d64bc5f8bae/libmates.sol\":1342:1343  0 */\n      0x00\n        /* \"Documents/GitHub/SOLIDITY-REMIX/5ef069451e67668750287d64bc5f8bae/libmates.sol\":1335:1343  return 0 */\n      swap1\n      pop\n      jump(tag_105)\n        /* \"Documents/GitHub/SOLIDITY-REMIX/5ef069451e67668750287d64bc5f8bae/libmates.sol\":1323:1756  if (x == 0) return 0;\r... */\n    tag_107:\n        /* \"Documents/GitHub/SOLIDITY-REMIX/5ef069451e67668750287d64bc5f8bae/libmates.sol\":1374:1383  uint256 r */\n      0x00\n        /* \"Documents/GitHub/SOLIDITY-REMIX/5ef069451e67668750287d64bc5f8bae/libmates.sol\":1386:1387  1 */\n      0x01\n        /* \"Documents/GitHub/SOLIDITY-REMIX/5ef069451e67668750287d64bc5f8bae/libmates.sol\":1374:1387  uint256 r = 1 */\n      swap1\n      pop\n        /* \"Documents/GitHub/SOLIDITY-REMIX/5ef069451e67668750287d64bc5f8bae/libmates.sol\":1484:1485  2 */\n      0x02\n        /* \"Documents/GitHub/SOLIDITY-REMIX/5ef069451e67668750287d64bc5f8bae/libmates.sol\":1481:1482  r */\n      dup2\n        /* \"Documents/GitHub/SOLIDITY-REMIX/5ef069451e67668750287d64bc5f8bae/libmates.sol\":1479:1480  x */\n      dup5\n        /* \"Documents/GitHub/SOLIDITY-REMIX/5ef069451e67668750287d64bc5f8bae/libmates.sol\":1479:1482  x/r */\n      tag_109\n      swap2\n      swap1\n      tag_110\n      jump\t// in\n    tag_109:\n        /* \"Documents/GitHub/SOLIDITY-REMIX/5ef069451e67668750287d64bc5f8bae/libmates.sol\":1477:1478  r */\n      dup3\n        /* \"Documents/GitHub/SOLIDITY-REMIX/5ef069451e67668750287d64bc5f8bae/libmates.sol\":1477:1482  r+x/r */\n      tag_111\n      swap2\n      swap1\n      tag_112\n      jump\t// in\n    tag_111:\n        /* \"Documents/GitHub/SOLIDITY-REMIX/5ef069451e67668750287d64bc5f8bae/libmates.sol\":1476:1485  (r+x/r)/2 */\n      tag_113\n      swap2\n      swap1\n      tag_110\n      jump\t// in\n    tag_113:\n        /* \"Documents/GitHub/SOLIDITY-REMIX/5ef069451e67668750287d64bc5f8bae/libmates.sol\":1472:1485  r = (r+x/r)/2 */\n      swap1\n      pop\n        /* \"Documents/GitHub/SOLIDITY-REMIX/5ef069451e67668750287d64bc5f8bae/libmates.sol\":1512:1513  2 */\n      0x02\n        /* \"Documents/GitHub/SOLIDITY-REMIX/5ef069451e67668750287d64bc5f8bae/libmates.sol\":1509:1510  r */\n      dup2\n        /* \"Documents/GitHub/SOLIDITY-REMIX/5ef069451e67668750287d64bc5f8bae/libmates.sol\":1507:1508  x */\n      dup5\n        /* \"Documents/GitHub/SOLIDITY-REMIX/5ef069451e67668750287d64bc5f8bae/libmates.sol\":1507:1510  x/r */\n      tag_114\n      swap2\n      swap1\n      tag_110\n      jump\t// in\n    tag_114:\n        /* \"Documents/GitHub/SOLIDITY-REMIX/5ef069451e67668750287d64bc5f8bae/libmates.sol\":1505:1506  r */\n      dup3\n        /* \"Documents/GitHub/SOLIDITY-REMIX/5ef069451e67668750287d64bc5f8bae/libmates.sol\":1505:1510  r+x/r */\n      tag_115\n      swap2\n      swap1\n      tag_112\n      jump\t// in\n    tag_115:\n        /* \"Documents/GitHub/SOLIDITY-REMIX/5ef069451e67668750287d64bc5f8bae/libmates.sol\":1504:1513  (r+x/r)/2 */\n      tag_116\n      swap2\n      swap1\n      tag_110\n      jump\t// in\n    tag_116:\n        /* \"Documents/GitHub/SOLIDITY-REMIX/5ef069451e67668750287d64bc5f8bae/libmates.sol\":1500:1513  r = (r+x/r)/2 */\n      swap1\n      pop\n        /* \"Documents/GitHub/SOLIDITY-REMIX/5ef069451e67668750287d64bc5f8bae/libmates.sol\":1540:1541  2 */\n      0x02\n        /* \"Documents/GitHub/SOLIDITY-REMIX/5ef069451e67668750287d64bc5f8bae/libmates.sol\":1537:1538  r */\n      dup2\n        /* \"Documents/GitHub/SOLIDITY-REMIX/5ef069451e67668750287d64bc5f8bae/libmates.sol\":1535:1536  x */\n      dup5\n        /* \"Documents/GitHub/SOLIDITY-REMIX/5ef069451e67668750287d64bc5f8bae/libmates.sol\":1535:1538  x/r */\n      tag_117\n      swap2\n      swap1\n      tag_110\n      jump\t// in\n    tag_117:\n        /* \"Documents/GitHub/SOLIDITY-REMIX/5ef069451e67668750287d64bc5f8bae/libmates.sol\":1533:1534  r */\n      dup3\n        /* \"Documents/GitHub/SOLIDITY-REMIX/5ef069451e67668750287d64bc5f8bae/libmates.sol\":1533:1538  r+x/r */\n      tag_118\n      swap2\n      swap1\n      tag_112\n      jump\t// in\n    tag_118:\n        /* \"Documents/GitHub/SOLIDITY-REMIX/5ef069451e67668750287d64bc5f8bae/libmates.sol\":1532:1541  (r+x/r)/2 */\n      tag_119\n      swap2\n      swap1\n      tag_110\n      jump\t// in\n    tag_119:\n        /* \"Documents/GitHub/SOLIDITY-REMIX/5ef069451e67668750287d64bc5f8bae/libmates.sol\":1528:1541  r = (r+x/r)/2 */\n      swap1\n      pop\n        /* \"Documents/GitHub/SOLIDITY-REMIX/5ef069451e67668750287d64bc5f8bae/libmates.sol\":1568:1569  2 */\n      0x02\n        /* \"Documents/GitHub/SOLIDITY-REMIX/5ef069451e67668750287d64bc5f8bae/libmates.sol\":1565:1566  r */\n      dup2\n        /* \"Documents/GitHub/SOLIDITY-REMIX/5ef069451e67668750287d64bc5f8bae/libmates.sol\":1563:1564  x */\n      dup5\n        /* \"Documents/GitHub/SOLIDITY-REMIX/5ef069451e67668750287d64bc5f8bae/libmates.sol\":1563:1566  x/r */\n      tag_120\n      swap2\n      swap1\n      tag_110\n      jump\t// in\n    tag_120:\n        /* \"Documents/GitHub/SOLIDITY-REMIX/5ef069451e67668750287d64bc5f8bae/libmates.sol\":1561:1562  r */\n      dup3\n        /* \"Documents/GitHub/SOLIDITY-REMIX/5ef069451e67668750287d64bc5f8bae/libmates.sol\":1561:1566  r+x/r */\n      tag_121\n      swap2\n      swap1\n      tag_112\n      jump\t// in\n    tag_121:\n        /* \"Documents/GitHub/SOLIDITY-REMIX/5ef069451e67668750287d64bc5f8bae/libmates.sol\":1560:1569  (r+x/r)/2 */\n      tag_122\n      swap2\n      swap1\n      tag_110\n      jump\t// in\n    tag_122:\n        /* \"Documents/GitHub/SOLIDITY-REMIX/5ef069451e67668750287d64bc5f8bae/libmates.sol\":1556:1569  r = (r+x/r)/2 */\n      swap1\n      pop\n        /* \"Documents/GitHub/SOLIDITY-REMIX/5ef069451e67668750287d64bc5f8bae/libmates.sol\":1596:1597  2 */\n      0x02\n        /* \"Documents/GitHub/SOLIDITY-REMIX/5ef069451e67668750287d64bc5f8bae/libmates.sol\":1593:1594  r */\n      dup2\n        /* \"Documents/GitHub/SOLIDITY-REMIX/5ef069451e67668750287d64bc5f8bae/libmates.sol\":1591:1592  x */\n      dup5\n        /* \"Documents/GitHub/SOLIDITY-REMIX/5ef069451e67668750287d64bc5f8bae/libmates.sol\":1591:1594  x/r */\n      tag_123\n      swap2\n      swap1\n      tag_110\n      jump\t// in\n    tag_123:\n        /* \"Documents/GitHub/SOLIDITY-REMIX/5ef069451e67668750287d64bc5f8bae/libmates.sol\":1589:1590  r */\n      dup3\n        /* \"Documents/GitHub/SOLIDITY-REMIX/5ef069451e67668750287d64bc5f8bae/libmates.sol\":1589:1594  r+x/r */\n      tag_124\n      swap2\n      swap1\n      tag_112\n      jump\t// in\n    tag_124:\n        /* \"Documents/GitHub/SOLIDITY-REMIX/5ef069451e67668750287d64bc5f8bae/libmates.sol\":1588:1597  (r+x/r)/2 */\n      tag_125\n      swap2\n      swap1\n      tag_110\n      jump\t// in\n    tag_125:\n        /* \"Documents/GitHub/SOLIDITY-REMIX/5ef069451e67668750287d64bc5f8bae/libmates.sol\":1584:1597  r = (r+x/r)/2 */\n      swap1\n      pop\n        /* \"Documents/GitHub/SOLIDITY-REMIX/5ef069451e67668750287d64bc5f8bae/libmates.sol\":1612:1622  uint256 r1 */\n      0x00\n        /* \"Documents/GitHub/SOLIDITY-REMIX/5ef069451e67668750287d64bc5f8bae/libmates.sol\":1627:1628  r */\n      dup2\n        /* \"Documents/GitHub/SOLIDITY-REMIX/5ef069451e67668750287d64bc5f8bae/libmates.sol\":1625:1626  x */\n      dup5\n        /* \"Documents/GitHub/SOLIDITY-REMIX/5ef069451e67668750287d64bc5f8bae/libmates.sol\":1625:1628  x/r */\n      tag_126\n      swap2\n      swap1\n      tag_110\n      jump\t// in\n    tag_126:\n        /* \"Documents/GitHub/SOLIDITY-REMIX/5ef069451e67668750287d64bc5f8bae/libmates.sol\":1612:1628  uint256 r1 = x/r */\n      swap1\n      pop\n        /* \"Documents/GitHub/SOLIDITY-REMIX/5ef069451e67668750287d64bc5f8bae/libmates.sol\":1651:1653  r1 */\n      dup1\n        /* \"Documents/GitHub/SOLIDITY-REMIX/5ef069451e67668750287d64bc5f8bae/libmates.sol\":1647:1648  r */\n      dup3\n        /* \"Documents/GitHub/SOLIDITY-REMIX/5ef069451e67668750287d64bc5f8bae/libmates.sol\":1647:1653  r < r1 */\n      lt\n        /* \"Documents/GitHub/SOLIDITY-REMIX/5ef069451e67668750287d64bc5f8bae/libmates.sol\":1643:1745  if (r < r1) return uint128(r);\r... */\n      iszero\n      tag_127\n      jumpi\n        /* \"Documents/GitHub/SOLIDITY-REMIX/5ef069451e67668750287d64bc5f8bae/libmates.sol\":1670:1671  r */\n      dup2\n        /* \"Documents/GitHub/SOLIDITY-REMIX/5ef069451e67668750287d64bc5f8bae/libmates.sol\":1655:1672  return uint128(r) */\n      swap3\n      pop\n      pop\n      pop\n      jump(tag_105)\n        /* \"Documents/GitHub/SOLIDITY-REMIX/5ef069451e67668750287d64bc5f8bae/libmates.sol\":1643:1745  if (r < r1) return uint128(r);\r... */\n    tag_127:\n        /* \"Documents/GitHub/SOLIDITY-REMIX/5ef069451e67668750287d64bc5f8bae/libmates.sol\":1726:1728  r1 */\n      dup1\n        /* \"Documents/GitHub/SOLIDITY-REMIX/5ef069451e67668750287d64bc5f8bae/libmates.sol\":1711:1729  return uint128(r1) */\n      swap3\n      pop\n      pop\n      pop\n        /* \"Documents/GitHub/SOLIDITY-REMIX/5ef069451e67668750287d64bc5f8bae/libmates.sol\":1220:1769  function sqrtUnsigned (uint256 x) internal pure returns(uint128) {\r... */\n    tag_105:\n      swap2\n      swap1\n      pop\n      jump\t// out\n        /* \"#utility.yul\":7:144   */\n    tag_130:\n        /* \"#utility.yul\":52:57   */\n      0x00\n        /* \"#utility.yul\":90:96   */\n      dup2\n        /* \"#utility.yul\":77:97   */\n      calldataload\n        /* \"#utility.yul\":68:97   */\n      swap1\n      pop\n        /* \"#utility.yul\":106:138   */\n      tag_132\n        /* \"#utility.yul\":132:137   */\n      dup2\n        /* \"#utility.yul\":106:138   */\n      tag_133\n      jump\t// in\n    tag_132:\n        /* \"#utility.yul\":7:144   */\n      swap3\n      swap2\n      pop\n      pop\n      jump\t// out\n        /* \"#utility.yul\":150:287   */\n    tag_134:\n        /* \"#utility.yul\":195:200   */\n      0x00\n        /* \"#utility.yul\":233:239   */\n      dup2\n        /* \"#utility.yul\":220:240   */\n      calldataload\n        /* \"#utility.yul\":211:240   */\n      swap1\n      pop\n        /* \"#utility.yul\":249:281   */\n      tag_136\n        /* \"#utility.yul\":275:280   */\n      dup2\n        /* \"#utility.yul\":249:281   */\n      tag_137\n      jump\t// in\n    tag_136:\n        /* \"#utility.yul\":150:287   */\n      swap3\n      swap2\n      pop\n      pop\n      jump\t// out\n        /* \"#utility.yul\":293:432   */\n    tag_138:\n        /* \"#utility.yul\":339:344   */\n      0x00\n        /* \"#utility.yul\":377:383   */\n      dup2\n        /* \"#utility.yul\":364:384   */\n      calldataload\n        /* \"#utility.yul\":355:384   */\n      swap1\n      pop\n        /* \"#utility.yul\":393:426   */\n      tag_140\n        /* \"#utility.yul\":420:425   */\n      dup2\n        /* \"#utility.yul\":393:426   */\n      tag_141\n      jump\t// in\n    tag_140:\n        /* \"#utility.yul\":293:432   */\n      swap3\n      swap2\n      pop\n      pop\n      jump\t// out\n        /* \"#utility.yul\":438:765   */\n    tag_47:\n        /* \"#utility.yul\":496:502   */\n      0x00\n        /* \"#utility.yul\":545:547   */\n      0x20\n        /* \"#utility.yul\":533:542   */\n      dup3\n        /* \"#utility.yul\":524:531   */\n      dup5\n        /* \"#utility.yul\":520:543   */\n      sub\n        /* \"#utility.yul\":516:548   */\n      slt\n        /* \"#utility.yul\":513:632   */\n      iszero\n      tag_143\n      jumpi\n        /* \"#utility.yul\":551:630   */\n      tag_144\n      tag_145\n      jump\t// in\n    tag_144:\n        /* \"#utility.yul\":513:632   */\n    tag_143:\n        /* \"#utility.yul\":671:672   */\n      0x00\n        /* \"#utility.yul\":696:748   */\n      tag_146\n        /* \"#utility.yul\":740:747   */\n      dup5\n        /* \"#utility.yul\":731:737   */\n      dup3\n        /* \"#utility.yul\":720:729   */\n      dup6\n        /* \"#utility.yul\":716:738   */\n      add\n        /* \"#utility.yul\":696:748   */\n      tag_130\n      jump\t// in\n    tag_146:\n        /* \"#utility.yul\":686:748   */\n      swap2\n      pop\n        /* \"#utility.yul\":642:758   */\n      pop\n        /* \"#utility.yul\":438:765   */\n      swap3\n      swap2\n      pop\n      pop\n      jump\t// out\n        /* \"#utility.yul\":771:1098   */\n    tag_28:\n        /* \"#utility.yul\":829:835   */\n      0x00\n        /* \"#utility.yul\":878:880   */\n      0x20\n        /* \"#utility.yul\":866:875   */\n      dup3\n        /* \"#utility.yul\":857:864   */\n      dup5\n        /* \"#utility.yul\":853:876   */\n      sub\n        /* \"#utility.yul\":849:881   */\n      slt\n        /* \"#utility.yul\":846:965   */\n      iszero\n      tag_148\n      jumpi\n        /* \"#utility.yul\":884:963   */\n      tag_149\n      tag_145\n      jump\t// in\n    tag_149:\n        /* \"#utility.yul\":846:965   */\n    tag_148:\n        /* \"#utility.yul\":1004:1005   */\n      0x00\n        /* \"#utility.yul\":1029:1081   */\n      tag_150\n        /* \"#utility.yul\":1073:1080   */\n      dup5\n        /* \"#utility.yul\":1064:1070   */\n      dup3\n        /* \"#utility.yul\":1053:1062   */\n      dup6\n        /* \"#utility.yul\":1049:1071   */\n      add\n        /* \"#utility.yul\":1029:1081   */\n      tag_134\n      jump\t// in\n    tag_150:\n        /* \"#utility.yul\":1019:1081   */\n      swap2\n      pop\n        /* \"#utility.yul\":975:1091   */\n      pop\n        /* \"#utility.yul\":771:1098   */\n      swap3\n      swap2\n      pop\n      pop\n      jump\t// out\n        /* \"#utility.yul\":1104:1574   */\n    tag_14:\n        /* \"#utility.yul\":1170:1176   */\n      0x00\n        /* \"#utility.yul\":1178:1184   */\n      dup1\n        /* \"#utility.yul\":1227:1229   */\n      0x40\n        /* \"#utility.yul\":1215:1224   */\n      dup4\n        /* \"#utility.yul\":1206:1213   */\n      dup6\n        /* \"#utility.yul\":1202:1225   */\n      sub\n        /* \"#utility.yul\":1198:1230   */\n      slt\n        /* \"#utility.yul\":1195:1314   */\n      iszero\n      tag_152\n      jumpi\n        /* \"#utility.yul\":1233:1312   */\n      tag_153\n      tag_145\n      jump\t// in\n    tag_153:\n        /* \"#utility.yul\":1195:1314   */\n    tag_152:\n        /* \"#utility.yul\":1353:1354   */\n      0x00\n        /* \"#utility.yul\":1378:1430   */\n      tag_154\n        /* \"#utility.yul\":1422:1429   */\n      dup6\n        /* \"#utility.yul\":1413:1419   */\n      dup3\n        /* \"#utility.yul\":1402:1411   */\n      dup7\n        /* \"#utility.yul\":1398:1420   */\n      add\n        /* \"#utility.yul\":1378:1430   */\n      tag_134\n      jump\t// in\n    tag_154:\n        /* \"#utility.yul\":1368:1430   */\n      swap3\n      pop\n        /* \"#utility.yul\":1324:1440   */\n      pop\n        /* \"#utility.yul\":1479:1481   */\n      0x20\n        /* \"#utility.yul\":1505:1557   */\n      tag_155\n        /* \"#utility.yul\":1549:1556   */\n      dup6\n        /* \"#utility.yul\":1540:1546   */\n      dup3\n        /* \"#utility.yul\":1529:1538   */\n      dup7\n        /* \"#utility.yul\":1525:1547   */\n      add\n        /* \"#utility.yul\":1505:1557   */\n      tag_134\n      jump\t// in\n    tag_155:\n        /* \"#utility.yul\":1495:1557   */\n      swap2\n      pop\n        /* \"#utility.yul\":1450:1567   */\n      pop\n        /* \"#utility.yul\":1104:1574   */\n      swap3\n      pop\n      swap3\n      swap1\n      pop\n      jump\t// out\n        /* \"#utility.yul\":1580:1909   */\n    tag_38:\n        /* \"#utility.yul\":1639:1645   */\n      0x00\n        /* \"#utility.yul\":1688:1690   */\n      0x20\n        /* \"#utility.yul\":1676:1685   */\n      dup3\n        /* \"#utility.yul\":1667:1674   */\n      dup5\n        /* \"#utility.yul\":1663:1686   */\n      sub\n        /* \"#utility.yul\":1659:1691   */\n      slt\n        /* \"#utility.yul\":1656:1775   */\n      iszero\n      tag_157\n      jumpi\n        /* \"#utility.yul\":1694:1773   */\n      tag_158\n      tag_145\n      jump\t// in\n    tag_158:\n        /* \"#utility.yul\":1656:1775   */\n    tag_157:\n        /* \"#utility.yul\":1814:1815   */\n      0x00\n        /* \"#utility.yul\":1839:1892   */\n      tag_159\n        /* \"#utility.yul\":1884:1891   */\n      dup5\n        /* \"#utility.yul\":1875:1881   */\n      dup3\n        /* \"#utility.yul\":1864:1873   */\n      dup6\n        /* \"#utility.yul\":1860:1882   */\n      add\n        /* \"#utility.yul\":1839:1892   */\n      tag_138\n      jump\t// in\n    tag_159:\n        /* \"#utility.yul\":1829:1892   */\n      swap2\n      pop\n        /* \"#utility.yul\":1785:1902   */\n      pop\n        /* \"#utility.yul\":1580:1909   */\n      swap3\n      swap2\n      pop\n      pop\n      jump\t// out\n        /* \"#utility.yul\":1915:2030   */\n    tag_160:\n        /* \"#utility.yul\":2000:2023   */\n      tag_162\n        /* \"#utility.yul\":2017:2022   */\n      dup2\n        /* \"#utility.yul\":2000:2023   */\n      tag_163\n      jump\t// in\n    tag_162:\n        /* \"#utility.yul\":1995:1998   */\n      dup3\n        /* \"#utility.yul\":1988:2024   */\n      mstore\n        /* \"#utility.yul\":1915:2030   */\n      pop\n      pop\n      jump\t// out\n        /* \"#utility.yul\":2036:2154   */\n    tag_164:\n        /* \"#utility.yul\":2123:2147   */\n      tag_166\n        /* \"#utility.yul\":2141:2146   */\n      dup2\n        /* \"#utility.yul\":2123:2147   */\n      tag_167\n      jump\t// in\n    tag_166:\n        /* \"#utility.yul\":2118:2121   */\n      dup3\n        /* \"#utility.yul\":2111:2148   */\n      mstore\n        /* \"#utility.yul\":2036:2154   */\n      pop\n      pop\n      jump\t// out\n        /* \"#utility.yul\":2160:2378   */\n    tag_17:\n        /* \"#utility.yul\":2251:2255   */\n      0x00\n        /* \"#utility.yul\":2289:2291   */\n      0x20\n        /* \"#utility.yul\":2278:2287   */\n      dup3\n        /* \"#utility.yul\":2274:2292   */\n      add\n        /* \"#utility.yul\":2266:2292   */\n      swap1\n      pop\n        /* \"#utility.yul\":2302:2371   */\n      tag_169\n        /* \"#utility.yul\":2368:2369   */\n      0x00\n        /* \"#utility.yul\":2357:2366   */\n      dup4\n        /* \"#utility.yul\":2353:2370   */\n      add\n        /* \"#utility.yul\":2344:2350   */\n      dup5\n        /* \"#utility.yul\":2302:2371   */\n      tag_160\n      jump\t// in\n    tag_169:\n        /* \"#utility.yul\":2160:2378   */\n      swap3\n      swap2\n      pop\n      pop\n      jump\t// out\n        /* \"#utility.yul\":2384:2606   */\n    tag_31:\n        /* \"#utility.yul\":2477:2481   */\n      0x00\n        /* \"#utility.yul\":2515:2517   */\n      0x20\n        /* \"#utility.yul\":2504:2513   */\n      dup3\n        /* \"#utility.yul\":2500:2518   */\n      add\n        /* \"#utility.yul\":2492:2518   */\n      swap1\n      pop\n        /* \"#utility.yul\":2528:2599   */\n      tag_171\n        /* \"#utility.yul\":2596:2597   */\n      0x00\n        /* \"#utility.yul\":2585:2594   */\n      dup4\n        /* \"#utility.yul\":2581:2598   */\n      add\n        /* \"#utility.yul\":2572:2578   */\n      dup5\n        /* \"#utility.yul\":2528:2599   */\n      tag_164\n      jump\t// in\n    tag_171:\n        /* \"#utility.yul\":2384:2606   */\n      swap3\n      swap2\n      pop\n      pop\n      jump\t// out\n        /* \"#utility.yul\":2693:3218   */\n    tag_100:\n        /* \"#utility.yul\":2732:2735   */\n      0x00\n        /* \"#utility.yul\":2751:2770   */\n      tag_175\n        /* \"#utility.yul\":2768:2769   */\n      dup3\n        /* \"#utility.yul\":2751:2770   */\n      tag_163\n      jump\t// in\n    tag_175:\n        /* \"#utility.yul\":2746:2770   */\n      swap2\n      pop\n        /* \"#utility.yul\":2784:2803   */\n      tag_176\n        /* \"#utility.yul\":2801:2802   */\n      dup4\n        /* \"#utility.yul\":2784:2803   */\n      tag_163\n      jump\t// in\n    tag_176:\n        /* \"#utility.yul\":2779:2803   */\n      swap3\n      pop\n        /* \"#utility.yul\":2972:2973   */\n      dup2\n        /* \"#utility.yul\":2904:2970   */\n      0x7fffffffffffffffffffffffffffffffffffffffffffffffffffffffffffffff\n        /* \"#utility.yul\":2900:2974   */\n      sub\n        /* \"#utility.yul\":2897:2898   */\n      dup4\n        /* \"#utility.yul\":2893:2975   */\n      sgt\n        /* \"#utility.yul\":2888:2889   */\n      0x00\n        /* \"#utility.yul\":2885:2886   */\n      dup4\n        /* \"#utility.yul\":2881:2890   */\n      slt\n        /* \"#utility.yul\":2874:2891   */\n      iszero\n        /* \"#utility.yul\":2870:2976   */\n      and\n        /* \"#utility.yul\":2867:2999   */\n      iszero\n      tag_177\n      jumpi\n        /* \"#utility.yul\":2979:2997   */\n      tag_178\n      tag_179\n      jump\t// in\n    tag_178:\n        /* \"#utility.yul\":2867:2999   */\n    tag_177:\n        /* \"#utility.yul\":3159:3160   */\n      dup2\n        /* \"#utility.yul\":3091:3157   */\n      0x8000000000000000000000000000000000000000000000000000000000000000\n        /* \"#utility.yul\":3087:3161   */\n      sub\n        /* \"#utility.yul\":3084:3085   */\n      dup4\n        /* \"#utility.yul\":3080:3162   */\n      slt\n        /* \"#utility.yul\":3076:3077   */\n      0x00\n        /* \"#utility.yul\":3073:3074   */\n      dup4\n        /* \"#utility.yul\":3069:3078   */\n      slt\n        /* \"#utility.yul\":3065:3163   */\n      and\n        /* \"#utility.yul\":3062:3186   */\n      iszero\n      tag_180\n      jumpi\n        /* \"#utility.yul\":3166:3184   */\n      tag_181\n      tag_179\n      jump\t// in\n    tag_181:\n        /* \"#utility.yul\":3062:3186   */\n    tag_180:\n        /* \"#utility.yul\":3210:3211   */\n      dup3\n        /* \"#utility.yul\":3207:3208   */\n      dup3\n        /* \"#utility.yul\":3203:3212   */\n      add\n        /* \"#utility.yul\":3196:3212   */\n      swap1\n      pop\n        /* \"#utility.yul\":2693:3218   */\n      swap3\n      swap2\n      pop\n      pop\n      jump\t// out\n        /* \"#utility.yul\":3224:3529   */\n    tag_112:\n        /* \"#utility.yul\":3264:3267   */\n      0x00\n        /* \"#utility.yul\":3283:3303   */\n      tag_183\n        /* \"#utility.yul\":3301:3302   */\n      dup3\n        /* \"#utility.yul\":3283:3303   */\n      tag_167\n      jump\t// in\n    tag_183:\n        /* \"#utility.yul\":3278:3303   */\n      swap2\n      pop\n        /* \"#utility.yul\":3317:3337   */\n      tag_184\n        /* \"#utility.yul\":3335:3336   */\n      dup4\n        /* \"#utility.yul\":3317:3337   */\n      tag_167\n      jump\t// in\n    tag_184:\n        /* \"#utility.yul\":3312:3337   */\n      swap3\n      pop\n        /* \"#utility.yul\":3471:3472   */\n      dup3\n        /* \"#utility.yul\":3403:3469   */\n      0xffffffffffffffffffffffffffffffffffffffffffffffffffffffffffffffff\n        /* \"#utility.yul\":3399:3473   */\n      sub\n        /* \"#utility.yul\":3396:3397   */\n      dup3\n        /* \"#utility.yul\":3393:3474   */\n      gt\n        /* \"#utility.yul\":3390:3497   */\n      iszero\n      tag_185\n      jumpi\n        /* \"#utility.yul\":3477:3495   */\n      tag_186\n      tag_179\n      jump\t// in\n    tag_186:\n        /* \"#utility.yul\":3390:3497   */\n    tag_185:\n        /* \"#utility.yul\":3521:3522   */\n      dup3\n        /* \"#utility.yul\":3518:3519   */\n      dup3\n        /* \"#utility.yul\":3514:3523   */\n      add\n        /* \"#utility.yul\":3507:3523   */\n      swap1\n      pop\n        /* \"#utility.yul\":3224:3529   */\n      swap3\n      swap2\n      pop\n      pop\n      jump\t// out\n        /* \"#utility.yul\":3535:3920   */\n    tag_76:\n        /* \"#utility.yul\":3574:3575   */\n      0x00\n        /* \"#utility.yul\":3591:3610   */\n      tag_188\n        /* \"#utility.yul\":3608:3609   */\n      dup3\n        /* \"#utility.yul\":3591:3610   */\n      tag_163\n      jump\t// in\n    tag_188:\n        /* \"#utility.yul\":3586:3610   */\n      swap2\n      pop\n        /* \"#utility.yul\":3624:3643   */\n      tag_189\n        /* \"#utility.yul\":3641:3642   */\n      dup4\n        /* \"#utility.yul\":3624:3643   */\n      tag_163\n      jump\t// in\n    tag_189:\n        /* \"#utility.yul\":3619:3643   */\n      swap3\n      pop\n        /* \"#utility.yul\":3662:3663   */\n      dup3\n        /* \"#utility.yul\":3652:3687   */\n      tag_190\n      jumpi\n        /* \"#utility.yul\":3667:3685   */\n      tag_191\n      tag_192\n      jump\t// in\n    tag_191:\n        /* \"#utility.yul\":3652:3687   */\n    tag_190:\n        /* \"#utility.yul\":3853:3854   */\n      0x01\n        /* \"#utility.yul\":3850:3851   */\n      0x00\n        /* \"#utility.yul\":3846:3855   */\n      sub\n        /* \"#utility.yul\":3843:3844   */\n      dup4\n        /* \"#utility.yul\":3840:3856   */\n      eq\n        /* \"#utility.yul\":3759:3825   */\n      0x8000000000000000000000000000000000000000000000000000000000000000\n        /* \"#utility.yul\":3756:3757   */\n      dup4\n        /* \"#utility.yul\":3753:3826   */\n      eq\n        /* \"#utility.yul\":3736:3866   */\n      and\n        /* \"#utility.yul\":3733:3889   */\n      iszero\n      tag_193\n      jumpi\n        /* \"#utility.yul\":3869:3887   */\n      tag_194\n      tag_179\n      jump\t// in\n    tag_194:\n        /* \"#utility.yul\":3733:3889   */\n    tag_193:\n        /* \"#utility.yul\":3912:3913   */\n      dup3\n        /* \"#utility.yul\":3909:3910   */\n      dup3\n        /* \"#utility.yul\":3904:3914   */\n      sdiv\n        /* \"#utility.yul\":3899:3914   */\n      swap1\n      pop\n        /* \"#utility.yul\":3535:3920   */\n      swap3\n      swap2\n      pop\n      pop\n      jump\t// out\n        /* \"#utility.yul\":3926:4111   */\n    tag_110:\n        /* \"#utility.yul\":3966:3967   */\n      0x00\n        /* \"#utility.yul\":3983:4003   */\n      tag_196\n        /* \"#utility.yul\":4001:4002   */\n      dup3\n        /* \"#utility.yul\":3983:4003   */\n      tag_167\n      jump\t// in\n    tag_196:\n        /* \"#utility.yul\":3978:4003   */\n      swap2\n      pop\n        /* \"#utility.yul\":4017:4037   */\n      tag_197\n        /* \"#utility.yul\":4035:4036   */\n      dup4\n        /* \"#utility.yul\":4017:4037   */\n      tag_167\n      jump\t// in\n    tag_197:\n        /* \"#utility.yul\":4012:4037   */\n      swap3\n      pop\n        /* \"#utility.yul\":4056:4057   */\n      dup3\n        /* \"#utility.yul\":4046:4081   */\n      tag_198\n      jumpi\n        /* \"#utility.yul\":4061:4079   */\n      tag_199\n      tag_192\n      jump\t// in\n    tag_199:\n        /* \"#utility.yul\":4046:4081   */\n    tag_198:\n        /* \"#utility.yul\":4103:4104   */\n      dup3\n        /* \"#utility.yul\":4100:4101   */\n      dup3\n        /* \"#utility.yul\":4096:4105   */\n      div\n        /* \"#utility.yul\":4091:4105   */\n      swap1\n      pop\n        /* \"#utility.yul\":3926:4111   */\n      swap3\n      swap2\n      pop\n      pop\n      jump\t// out\n        /* \"#utility.yul\":4117:5108   */\n    tag_79:\n        /* \"#utility.yul\":4156:4163   */\n      0x00\n        /* \"#utility.yul\":4179:4198   */\n      tag_201\n        /* \"#utility.yul\":4196:4197   */\n      dup3\n        /* \"#utility.yul\":4179:4198   */\n      tag_163\n      jump\t// in\n    tag_201:\n        /* \"#utility.yul\":4174:4198   */\n      swap2\n      pop\n        /* \"#utility.yul\":4212:4231   */\n      tag_202\n        /* \"#utility.yul\":4229:4230   */\n      dup4\n        /* \"#utility.yul\":4212:4231   */\n      tag_163\n      jump\t// in\n    tag_202:\n        /* \"#utility.yul\":4207:4231   */\n      swap3\n      pop\n        /* \"#utility.yul\":4413:4414   */\n      dup3\n        /* \"#utility.yul\":4345:4411   */\n      0x7fffffffffffffffffffffffffffffffffffffffffffffffffffffffffffffff\n        /* \"#utility.yul\":4341:4415   */\n      div\n        /* \"#utility.yul\":4338:4339   */\n      dup3\n        /* \"#utility.yul\":4335:4416   */\n      gt\n        /* \"#utility.yul\":4330:4331   */\n      0x00\n        /* \"#utility.yul\":4327:4328   */\n      dup5\n        /* \"#utility.yul\":4323:4332   */\n      sgt\n        /* \"#utility.yul\":4319:4320   */\n      0x00\n        /* \"#utility.yul\":4316:4317   */\n      dup5\n        /* \"#utility.yul\":4312:4321   */\n      sgt\n        /* \"#utility.yul\":4308:4333   */\n      and\n        /* \"#utility.yul\":4304:4417   */\n      and\n        /* \"#utility.yul\":4301:4440   */\n      iszero\n      tag_203\n      jumpi\n        /* \"#utility.yul\":4420:4438   */\n      tag_204\n      tag_179\n      jump\t// in\n    tag_204:\n        /* \"#utility.yul\":4301:4440   */\n    tag_203:\n        /* \"#utility.yul\":4624:4625   */\n      dup2\n        /* \"#utility.yul\":4556:4622   */\n      0x8000000000000000000000000000000000000000000000000000000000000000\n        /* \"#utility.yul\":4551:4626   */\n      sdiv\n        /* \"#utility.yul\":4548:4549   */\n      dup4\n        /* \"#utility.yul\":4544:4627   */\n      slt\n        /* \"#utility.yul\":4539:4540   */\n      0x00\n        /* \"#utility.yul\":4536:4537   */\n      dup5\n        /* \"#utility.yul\":4532:4541   */\n      slt\n        /* \"#utility.yul\":4528:4529   */\n      0x00\n        /* \"#utility.yul\":4525:4526   */\n      dup5\n        /* \"#utility.yul\":4521:4530   */\n      sgt\n        /* \"#utility.yul\":4517:4542   */\n      and\n        /* \"#utility.yul\":4513:4628   */\n      and\n        /* \"#utility.yul\":4510:4651   */\n      iszero\n      tag_205\n      jumpi\n        /* \"#utility.yul\":4631:4649   */\n      tag_206\n      tag_179\n      jump\t// in\n    tag_206:\n        /* \"#utility.yul\":4510:4651   */\n    tag_205:\n        /* \"#utility.yul\":4835:4836   */\n      dup3\n        /* \"#utility.yul\":4767:4833   */\n      0x8000000000000000000000000000000000000000000000000000000000000000\n        /* \"#utility.yul\":4762:4837   */\n      sdiv\n        /* \"#utility.yul\":4759:4760   */\n      dup3\n        /* \"#utility.yul\":4755:4838   */\n      slt\n        /* \"#utility.yul\":4750:4751   */\n      0x00\n        /* \"#utility.yul\":4747:4748   */\n      dup5\n        /* \"#utility.yul\":4743:4752   */\n      sgt\n        /* \"#utility.yul\":4739:4740   */\n      0x00\n        /* \"#utility.yul\":4736:4737   */\n      dup5\n        /* \"#utility.yul\":4732:4741   */\n      slt\n        /* \"#utility.yul\":4728:4753   */\n      and\n        /* \"#utility.yul\":4724:4839   */\n      and\n        /* \"#utility.yul\":4721:4862   */\n      iszero\n      tag_207\n      jumpi\n        /* \"#utility.yul\":4842:4860   */\n      tag_208\n      tag_179\n      jump\t// in\n    tag_208:\n        /* \"#utility.yul\":4721:4862   */\n    tag_207:\n        /* \"#utility.yul\":5045:5046   */\n      dup3\n        /* \"#utility.yul\":4977:5043   */\n      0x7fffffffffffffffffffffffffffffffffffffffffffffffffffffffffffffff\n        /* \"#utility.yul\":4972:5047   */\n      sdiv\n        /* \"#utility.yul\":4969:4970   */\n      dup3\n        /* \"#utility.yul\":4965:5048   */\n      slt\n        /* \"#utility.yul\":4960:4961   */\n      0x00\n        /* \"#utility.yul\":4957:4958   */\n      dup5\n        /* \"#utility.yul\":4953:4962   */\n      slt\n        /* \"#utility.yul\":4949:4950   */\n      0x00\n        /* \"#utility.yul\":4946:4947   */\n      dup5\n        /* \"#utility.yul\":4942:4951   */\n      slt\n        /* \"#utility.yul\":4938:4963   */\n      and\n        /* \"#utility.yul\":4934:5049   */\n      and\n        /* \"#utility.yul\":4931:5072   */\n      iszero\n      tag_209\n      jumpi\n        /* \"#utility.yul\":5052:5070   */\n      tag_210\n      tag_179\n      jump\t// in\n    tag_210:\n        /* \"#utility.yul\":4931:5072   */\n    tag_209:\n        /* \"#utility.yul\":5100:5101   */\n      dup3\n        /* \"#utility.yul\":5097:5098   */\n      dup3\n        /* \"#utility.yul\":5093:5102   */\n      mul\n        /* \"#utility.yul\":5082:5102   */\n      swap1\n      pop\n        /* \"#utility.yul\":4117:5108   */\n      swap3\n      swap2\n      pop\n      pop\n      jump\t// out\n        /* \"#utility.yul\":5114:5462   */\n    tag_97:\n        /* \"#utility.yul\":5154:5161   */\n      0x00\n        /* \"#utility.yul\":5177:5197   */\n      tag_212\n        /* \"#utility.yul\":5195:5196   */\n      dup3\n        /* \"#utility.yul\":5177:5197   */\n      tag_167\n      jump\t// in\n    tag_212:\n        /* \"#utility.yul\":5172:5197   */\n      swap2\n      pop\n        /* \"#utility.yul\":5211:5231   */\n      tag_213\n        /* \"#utility.yul\":5229:5230   */\n      dup4\n        /* \"#utility.yul\":5211:5231   */\n      tag_167\n      jump\t// in\n    tag_213:\n        /* \"#utility.yul\":5206:5231   */\n      swap3\n      pop\n        /* \"#utility.yul\":5399:5400   */\n      dup2\n        /* \"#utility.yul\":5331:5397   */\n      0xffffffffffffffffffffffffffffffffffffffffffffffffffffffffffffffff\n        /* \"#utility.yul\":5327:5401   */\n      div\n        /* \"#utility.yul\":5324:5325   */\n      dup4\n        /* \"#utility.yul\":5321:5402   */\n      gt\n        /* \"#utility.yul\":5316:5317   */\n      dup3\n        /* \"#utility.yul\":5309:5318   */\n      iszero\n        /* \"#utility.yul\":5302:5319   */\n      iszero\n        /* \"#utility.yul\":5298:5403   */\n      and\n        /* \"#utility.yul\":5295:5426   */\n      iszero\n      tag_214\n      jumpi\n        /* \"#utility.yul\":5406:5424   */\n      tag_215\n      tag_179\n      jump\t// in\n    tag_215:\n        /* \"#utility.yul\":5295:5426   */\n    tag_214:\n        /* \"#utility.yul\":5454:5455   */\n      dup3\n        /* \"#utility.yul\":5451:5452   */\n      dup3\n        /* \"#utility.yul\":5447:5456   */\n      mul\n        /* \"#utility.yul\":5436:5456   */\n      swap1\n      pop\n        /* \"#utility.yul\":5114:5462   */\n      swap3\n      swap2\n      pop\n      pop\n      jump\t// out\n        /* \"#utility.yul\":5468:5995   */\n    tag_82:\n        /* \"#utility.yul\":5507:5511   */\n      0x00\n        /* \"#utility.yul\":5527:5546   */\n      tag_217\n        /* \"#utility.yul\":5544:5545   */\n      dup3\n        /* \"#utility.yul\":5527:5546   */\n      tag_163\n      jump\t// in\n    tag_217:\n        /* \"#utility.yul\":5522:5546   */\n      swap2\n      pop\n        /* \"#utility.yul\":5560:5579   */\n      tag_218\n        /* \"#utility.yul\":5577:5578   */\n      dup4\n        /* \"#utility.yul\":5560:5579   */\n      tag_163\n      jump\t// in\n    tag_218:\n        /* \"#utility.yul\":5555:5579   */\n      swap3\n      pop\n        /* \"#utility.yul\":5749:5750   */\n      dup3\n        /* \"#utility.yul\":5681:5747   */\n      0x8000000000000000000000000000000000000000000000000000000000000000\n        /* \"#utility.yul\":5677:5751   */\n      add\n        /* \"#utility.yul\":5674:5675   */\n      dup3\n        /* \"#utility.yul\":5670:5752   */\n      slt\n        /* \"#utility.yul\":5665:5666   */\n      0x00\n        /* \"#utility.yul\":5662:5663   */\n      dup5\n        /* \"#utility.yul\":5658:5667   */\n      slt\n        /* \"#utility.yul\":5651:5668   */\n      iszero\n        /* \"#utility.yul\":5647:5753   */\n      and\n        /* \"#utility.yul\":5644:5776   */\n      iszero\n      tag_219\n      jumpi\n        /* \"#utility.yul\":5756:5774   */\n      tag_220\n      tag_179\n      jump\t// in\n    tag_220:\n        /* \"#utility.yul\":5644:5776   */\n    tag_219:\n        /* \"#utility.yul\":5935:5936   */\n      dup3\n        /* \"#utility.yul\":5867:5933   */\n      0x7fffffffffffffffffffffffffffffffffffffffffffffffffffffffffffffff\n        /* \"#utility.yul\":5863:5937   */\n      add\n        /* \"#utility.yul\":5860:5861   */\n      dup3\n        /* \"#utility.yul\":5856:5938   */\n      sgt\n        /* \"#utility.yul\":5852:5853   */\n      0x00\n        /* \"#utility.yul\":5849:5850   */\n      dup5\n        /* \"#utility.yul\":5845:5854   */\n      slt\n        /* \"#utility.yul\":5841:5939   */\n      and\n        /* \"#utility.yul\":5838:5962   */\n      iszero\n      tag_221\n      jumpi\n        /* \"#utility.yul\":5942:5960   */\n      tag_222\n      tag_179\n      jump\t// in\n    tag_222:\n        /* \"#utility.yul\":5838:5962   */\n    tag_221:\n        /* \"#utility.yul\":5987:5988   */\n      dup3\n        /* \"#utility.yul\":5984:5985   */\n      dup3\n        /* \"#utility.yul\":5980:5989   */\n      sub\n        /* \"#utility.yul\":5972:5989   */\n      swap1\n      pop\n        /* \"#utility.yul\":5468:5995   */\n      swap3\n      swap2\n      pop\n      pop\n      jump\t// out\n        /* \"#utility.yul\":6001:6192   */\n    tag_95:\n        /* \"#utility.yul\":6041:6045   */\n      0x00\n        /* \"#utility.yul\":6061:6081   */\n      tag_224\n        /* \"#utility.yul\":6079:6080   */\n      dup3\n        /* \"#utility.yul\":6061:6081   */\n      tag_167\n      jump\t// in\n    tag_224:\n        /* \"#utility.yul\":6056:6081   */\n      swap2\n      pop\n        /* \"#utility.yul\":6095:6115   */\n      tag_225\n        /* \"#utility.yul\":6113:6114   */\n      dup4\n        /* \"#utility.yul\":6095:6115   */\n      tag_167\n      jump\t// in\n    tag_225:\n        /* \"#utility.yul\":6090:6115   */\n      swap3\n      pop\n        /* \"#utility.yul\":6134:6135   */\n      dup3\n        /* \"#utility.yul\":6131:6132   */\n      dup3\n        /* \"#utility.yul\":6128:6136   */\n      lt\n        /* \"#utility.yul\":6125:6159   */\n      iszero\n      tag_226\n      jumpi\n        /* \"#utility.yul\":6139:6157   */\n      tag_227\n      tag_179\n      jump\t// in\n    tag_227:\n        /* \"#utility.yul\":6125:6159   */\n    tag_226:\n        /* \"#utility.yul\":6184:6185   */\n      dup3\n        /* \"#utility.yul\":6181:6182   */\n      dup3\n        /* \"#utility.yul\":6177:6186   */\n      sub\n        /* \"#utility.yul\":6169:6186   */\n      swap1\n      pop\n        /* \"#utility.yul\":6001:6192   */\n      swap3\n      swap2\n      pop\n      pop\n      jump\t// out\n        /* \"#utility.yul\":6198:6290   */\n    tag_228:\n        /* \"#utility.yul\":6234:6241   */\n      0x00\n        /* \"#utility.yul\":6278:6283   */\n      dup2\n        /* \"#utility.yul\":6274:6276   */\n      0x0f\n        /* \"#utility.yul\":6263:6284   */\n      signextend\n        /* \"#utility.yul\":6252:6284   */\n      swap1\n      pop\n        /* \"#utility.yul\":6198:6290   */\n      swap2\n      swap1\n      pop\n      jump\t// out\n        /* \"#utility.yul\":6296:6372   */\n    tag_163:\n        /* \"#utility.yul\":6332:6339   */\n      0x00\n        /* \"#utility.yul\":6361:6366   */\n      dup2\n        /* \"#utility.yul\":6350:6366   */\n      swap1\n      pop\n        /* \"#utility.yul\":6296:6372   */\n      swap2\n      swap1\n      pop\n      jump\t// out\n        /* \"#utility.yul\":6378:6455   */\n    tag_167:\n        /* \"#utility.yul\":6415:6422   */\n      0x00\n        /* \"#utility.yul\":6444:6449   */\n      dup2\n        /* \"#utility.yul\":6433:6449   */\n      swap1\n      pop\n        /* \"#utility.yul\":6378:6455   */\n      swap2\n      swap1\n      pop\n      jump\t// out\n        /* \"#utility.yul\":6461:6689   */\n    tag_87:\n        /* \"#utility.yul\":6496:6499   */\n      0x00\n        /* \"#utility.yul\":6519:6542   */\n      tag_233\n        /* \"#utility.yul\":6536:6541   */\n      dup3\n        /* \"#utility.yul\":6519:6542   */\n      tag_163\n      jump\t// in\n    tag_233:\n        /* \"#utility.yul\":6510:6542   */\n      swap2\n      pop\n        /* \"#utility.yul\":6564:6630   */\n      0x8000000000000000000000000000000000000000000000000000000000000000\n        /* \"#utility.yul\":6557:6562   */\n      dup3\n        /* \"#utility.yul\":6554:6631   */\n      eq\n        /* \"#utility.yul\":6551:6654   */\n      iszero\n      tag_234\n      jumpi\n        /* \"#utility.yul\":6634:6652   */\n      tag_235\n      tag_179\n      jump\t// in\n    tag_235:\n        /* \"#utility.yul\":6551:6654   */\n    tag_234:\n        /* \"#utility.yul\":6677:6682   */\n      dup2\n        /* \"#utility.yul\":6674:6675   */\n      0x00\n        /* \"#utility.yul\":6670:6683   */\n      sub\n        /* \"#utility.yul\":6663:6683   */\n      swap1\n      pop\n        /* \"#utility.yul\":6461:6689   */\n      swap2\n      swap1\n      pop\n      jump\t// out\n        /* \"#utility.yul\":6695:6875   */\n    tag_179:\n        /* \"#utility.yul\":6743:6820   */\n      0x4e487b7100000000000000000000000000000000000000000000000000000000\n        /* \"#utility.yul\":6740:6741   */\n      0x00\n        /* \"#utility.yul\":6733:6821   */\n      mstore\n        /* \"#utility.yul\":6840:6844   */\n      0x11\n        /* \"#utility.yul\":6837:6838   */\n      0x04\n        /* \"#utility.yul\":6830:6845   */\n      mstore\n        /* \"#utility.yul\":6864:6868   */\n      0x24\n        /* \"#utility.yul\":6861:6862   */\n      0x00\n        /* \"#utility.yul\":6854:6869   */\n      revert\n        /* \"#utility.yul\":6881:7061   */\n    tag_192:\n        /* \"#utility.yul\":6929:7006   */\n      0x4e487b7100000000000000000000000000000000000000000000000000000000\n        /* \"#utility.yul\":6926:6927   */\n      0x00\n        /* \"#utility.yul\":6919:7007   */\n      mstore\n        /* \"#utility.yul\":7026:7030   */\n      0x12\n        /* \"#utility.yul\":7023:7024   */\n      0x04\n        /* \"#utility.yul\":7016:7031   */\n      mstore\n        /* \"#utility.yul\":7050:7054   */\n      0x24\n        /* \"#utility.yul\":7047:7048   */\n      0x00\n        /* \"#utility.yul\":7040:7055   */\n      revert\n        /* \"#utility.yul\":7190:7307   */\n    tag_145:\n        /* \"#utility.yul\":7299:7300   */\n      0x00\n        /* \"#utility.yul\":7296:7297   */\n      dup1\n        /* \"#utility.yul\":7289:7301   */\n      revert\n        /* \"#utility.yul\":7313:7433   */\n    tag_133:\n        /* \"#utility.yul\":7385:7408   */\n      tag_242\n        /* \"#utility.yul\":7402:7407   */\n      dup2\n        /* \"#utility.yul\":7385:7408   */\n      tag_228\n      jump\t// in\n    tag_242:\n        /* \"#utility.yul\":7378:7383   */\n      dup2\n        /* \"#utility.yul\":7375:7409   */\n      eq\n        /* \"#utility.yul\":7365:7427   */\n      tag_243\n      jumpi\n        /* \"#utility.yul\":7423:7424   */\n      0x00\n        /* \"#utility.yul\":7420:7421   */\n      dup1\n        /* \"#utility.yul\":7413:7425   */\n      revert\n        /* \"#utility.yul\":7365:7427   */\n    tag_243:\n        /* \"#utility.yul\":7313:7433   */\n      pop\n      jump\t// out\n        /* \"#utility.yul\":7439:7559   */\n    tag_137:\n        /* \"#utility.yul\":7511:7534   */\n      tag_245\n        /* \"#utility.yul\":7528:7533   */\n      dup2\n        /* \"#utility.yul\":7511:7534   */\n      tag_163\n      jump\t// in\n    tag_245:\n        /* \"#utility.yul\":7504:7509   */\n      dup2\n        /* \"#utility.yul\":7501:7535   */\n      eq\n        /* \"#utility.yul\":7491:7553   */\n      tag_246\n      jumpi\n        /* \"#utility.yul\":7549:7550   */\n      0x00\n        /* \"#utility.yul\":7546:7547   */\n      dup1\n        /* \"#utility.yul\":7539:7551   */\n      revert\n        /* \"#utility.yul\":7491:7553   */\n    tag_246:\n        /* \"#utility.yul\":7439:7559   */\n      pop\n      jump\t// out\n        /* \"#utility.yul\":7565:7687   */\n    tag_141:\n        /* \"#utility.yul\":7638:7662   */\n      tag_248\n        /* \"#utility.yul\":7656:7661   */\n      dup2\n        /* \"#utility.yul\":7638:7662   */\n      tag_167\n      jump\t// in\n    tag_248:\n        /* \"#utility.yul\":7631:7636   */\n      dup2\n        /* \"#utility.yul\":7628:7663   */\n      eq\n        /* \"#utility.yul\":7618:7681   */\n      tag_249\n      jumpi\n        /* \"#utility.yul\":7677:7678   */\n      0x00\n        /* \"#utility.yul\":7674:7675   */\n      dup1\n        /* \"#utility.yul\":7667:7679   */\n      revert\n        /* \"#utility.yul\":7618:7681   */\n    tag_249:\n        /* \"#utility.yul\":7565:7687   */\n      pop\n      jump\t// out\n\n    auxdata: 0xa2646970667358221220300b94a53467cafc99f986a7626d4dc06a7a9c913723d891931ab79820bd197464736f6c63430008070033\n}\n",
				"bytecode": {
					"linkReferences": {},
					"object": "608060405234801561001057600080fd5b50610b2d806100206000396000f3fe608060405234801561001057600080fd5b50600436106100885760003560e01c80637ea9e0581161005b5780637ea9e0581461014d578063837148341461017d5780638f8a0d19146101ad578063b8501073146101dd57610088565b806309b7cdda1461008d578063187983bf146100bd5780634c627bad146100ed5780637d8251421461011d575b600080fd5b6100a760048036038101906100a29190610566565b61020d565b6040516100b491906105f1565b60405180910390f35b6100d760048036038101906100d29190610566565b61022a565b6040516100e491906105f1565b60405180910390f35b61010760048036038101906101029190610566565b610247565b60405161011491906105f1565b60405180910390f35b61013760048036038101906101329190610539565b610264565b604051610144919061060c565b60405180910390f35b61016760048036038101906101629190610539565b610276565b604051610174919061060c565b60405180910390f35b610197600480360381019061019291906105a6565b610288565b6040516101a4919061060c565b60405180910390f35b6101c760048036038101906101c29190610566565b61029a565b6040516101d491906105f1565b60405180910390f35b6101f760048036038101906101f2919061050c565b6102b7565b60405161020491906105f1565b60405180910390f35b600061022282846102cf90919063ffffffff16565b905092915050565b600061023f82846102e590919063ffffffff16565b905092915050565b600061025c82846102fb90919063ffffffff16565b905092915050565b600061026f82610311565b9050919050565b600061028182610335565b9050919050565b60006102938261034a565b9050919050565b60006102af828461038590919063ffffffff16565b905092915050565b60006102c582600f0b61039b565b600f0b9050919050565b600081836102dd9190610711565b905092915050565b600081836102f391906107ac565b905092915050565b60008183610309919061091d565b905092915050565b60008082131561032357819050610330565b8161032d90610a06565b90505b919050565b6000818261034391906107ac565b9050919050565b60006001821161035d5760019050610380565b61037260018361036d91906109b1565b61034a565b8261037d91906108c3565b90505b919050565b600081836103939190610627565b905092915050565b60008082600f0b12156103ad57600080fd5b6103b982600f0b6103c0565b9050919050565b6000808210156103cf57600080fd5b60008214156103e157600090506104c8565b600060019050600281846103f5919061077b565b8261040091906106bb565b61040a919061077b565b90506002818461041a919061077b565b8261042591906106bb565b61042f919061077b565b90506002818461043f919061077b565b8261044a91906106bb565b610454919061077b565b905060028184610464919061077b565b8261046f91906106bb565b610479919061077b565b905060028184610489919061077b565b8261049491906106bb565b61049e919061077b565b9050600081846104ae919061077b565b9050808210156104c25781925050506104c8565b80925050505b919050565b6000813590506104dc81610ab2565b92915050565b6000813590506104f181610ac9565b92915050565b60008135905061050681610ae0565b92915050565b60006020828403121561052257610521610aad565b5b6000610530848285016104cd565b91505092915050565b60006020828403121561054f5761054e610aad565b5b600061055d848285016104e2565b91505092915050565b6000806040838503121561057d5761057c610aad565b5b600061058b858286016104e2565b925050602061059c858286016104e2565b9150509250929050565b6000602082840312156105bc576105bb610aad565b5b60006105ca848285016104f7565b91505092915050565b6105dc816109f2565b82525050565b6105eb816109fc565b82525050565b600060208201905061060660008301846105d3565b92915050565b600060208201905061062160008301846105e2565b92915050565b6000610632826109f2565b915061063d836109f2565b9250817f7fffffffffffffffffffffffffffffffffffffffffffffffffffffffffffffff0383136000831215161561067857610677610a4f565b5b817f80000000000000000000000000000000000000000000000000000000000000000383126000831216156106b0576106af610a4f565b5b828201905092915050565b60006106c6826109fc565b91506106d1836109fc565b9250827fffffffffffffffffffffffffffffffffffffffffffffffffffffffffffffffff0382111561070657610705610a4f565b5b828201905092915050565b600061071c826109f2565b9150610727836109f2565b92508261073757610736610a7e565b5b600160000383147f8000000000000000000000000000000000000000000000000000000000000000831416156107705761076f610a4f565b5b828205905092915050565b6000610786826109fc565b9150610791836109fc565b9250826107a1576107a0610a7e565b5b828204905092915050565b60006107b7826109f2565b91506107c2836109f2565b9250827f7fffffffffffffffffffffffffffffffffffffffffffffffffffffffffffffff048211600084136000841316161561080157610800610a4f565b5b817f8000000000000000000000000000000000000000000000000000000000000000058312600084126000841316161561083e5761083d610a4f565b5b827f8000000000000000000000000000000000000000000000000000000000000000058212600084136000841216161561087b5761087a610a4f565b5b827f7fffffffffffffffffffffffffffffffffffffffffffffffffffffffffffffff05821260008412600084121616156108b8576108b7610a4f565b5b828202905092915050565b60006108ce826109fc565b91506108d9836109fc565b9250817fffffffffffffffffffffffffffffffffffffffffffffffffffffffffffffffff048311821515161561091257610911610a4f565b5b828202905092915050565b6000610928826109f2565b9150610933836109f2565b9250827f80000000000000000000000000000000000000000000000000000000000000000182126000841215161561096e5761096d610a4f565b5b827f7fffffffffffffffffffffffffffffffffffffffffffffffffffffffffffffff0182136000841216156109a6576109a5610a4f565b5b828203905092915050565b60006109bc826109fc565b91506109c7836109fc565b9250828210156109da576109d9610a4f565b5b828203905092915050565b600081600f0b9050919050565b6000819050919050565b6000819050919050565b6000610a11826109f2565b91507f8000000000000000000000000000000000000000000000000000000000000000821415610a4457610a43610a4f565b5b816000039050919050565b7f4e487b7100000000000000000000000000000000000000000000000000000000600052601160045260246000fd5b7f4e487b7100000000000000000000000000000000000000000000000000000000600052601260045260246000fd5b600080fd5b610abb816109e5565b8114610ac657600080fd5b50565b610ad2816109f2565b8114610add57600080fd5b50565b610ae9816109fc565b8114610af457600080fd5b5056fea2646970667358221220300b94a53467cafc99f986a7626d4dc06a7a9c913723d891931ab79820bd197464736f6c63430008070033",
					"opcodes": "PUSH1 0x80 PUSH1 0x40 MSTORE CALLVALUE DUP1 ISZERO PUSH2 0x10 JUMPI PUSH1 0x0 DUP1 REVERT JUMPDEST POP PUSH2 0xB2D DUP1 PUSH2 0x20 PUSH1 0x0 CODECOPY PUSH1 0x0 RETURN INVALID PUSH1 0x80 PUSH1 0x40 MSTORE CALLVALUE DUP1 ISZERO PUSH2 0x10 JUMPI PUSH1 0x0 DUP1 REVERT JUMPDEST POP PUSH1 0x4 CALLDATASIZE LT PUSH2 0x88 JUMPI PUSH1 0x0 CALLDATALOAD PUSH1 0xE0 SHR DUP1 PUSH4 0x7EA9E058 GT PUSH2 0x5B JUMPI DUP1 PUSH4 0x7EA9E058 EQ PUSH2 0x14D JUMPI DUP1 PUSH4 0x83714834 EQ PUSH2 0x17D JUMPI DUP1 PUSH4 0x8F8A0D19 EQ PUSH2 0x1AD JUMPI DUP1 PUSH4 0xB8501073 EQ PUSH2 0x1DD JUMPI PUSH2 0x88 JUMP JUMPDEST DUP1 PUSH4 0x9B7CDDA EQ PUSH2 0x8D JUMPI DUP1 PUSH4 0x187983BF EQ PUSH2 0xBD JUMPI DUP1 PUSH4 0x4C627BAD EQ PUSH2 0xED JUMPI DUP1 PUSH4 0x7D825142 EQ PUSH2 0x11D JUMPI JUMPDEST PUSH1 0x0 DUP1 REVERT JUMPDEST PUSH2 0xA7 PUSH1 0x4 DUP1 CALLDATASIZE SUB DUP2 ADD SWAP1 PUSH2 0xA2 SWAP2 SWAP1 PUSH2 0x566 JUMP JUMPDEST PUSH2 0x20D JUMP JUMPDEST PUSH1 0x40 MLOAD PUSH2 0xB4 SWAP2 SWAP1 PUSH2 0x5F1 JUMP JUMPDEST PUSH1 0x40 MLOAD DUP1 SWAP2 SUB SWAP1 RETURN JUMPDEST PUSH2 0xD7 PUSH1 0x4 DUP1 CALLDATASIZE SUB DUP2 ADD SWAP1 PUSH2 0xD2 SWAP2 SWAP1 PUSH2 0x566 JUMP JUMPDEST PUSH2 0x22A JUMP JUMPDEST PUSH1 0x40 MLOAD PUSH2 0xE4 SWAP2 SWAP1 PUSH2 0x5F1 JUMP JUMPDEST PUSH1 0x40 MLOAD DUP1 SWAP2 SUB SWAP1 RETURN JUMPDEST PUSH2 0x107 PUSH1 0x4 DUP1 CALLDATASIZE SUB DUP2 ADD SWAP1 PUSH2 0x102 SWAP2 SWAP1 PUSH2 0x566 JUMP JUMPDEST PUSH2 0x247 JUMP JUMPDEST PUSH1 0x40 MLOAD PUSH2 0x114 SWAP2 SWAP1 PUSH2 0x5F1 JUMP JUMPDEST PUSH1 0x40 MLOAD DUP1 SWAP2 SUB SWAP1 RETURN JUMPDEST PUSH2 0x137 PUSH1 0x4 DUP1 CALLDATASIZE SUB DUP2 ADD SWAP1 PUSH2 0x132 SWAP2 SWAP1 PUSH2 0x539 JUMP JUMPDEST PUSH2 0x264 JUMP JUMPDEST PUSH1 0x40 MLOAD PUSH2 0x144 SWAP2 SWAP1 PUSH2 0x60C JUMP JUMPDEST PUSH1 0x40 MLOAD DUP1 SWAP2 SUB SWAP1 RETURN JUMPDEST PUSH2 0x167 PUSH1 0x4 DUP1 CALLDATASIZE SUB DUP2 ADD SWAP1 PUSH2 0x162 SWAP2 SWAP1 PUSH2 0x539 JUMP JUMPDEST PUSH2 0x276 JUMP JUMPDEST PUSH1 0x40 MLOAD PUSH2 0x174 SWAP2 SWAP1 PUSH2 0x60C JUMP JUMPDEST PUSH1 0x40 MLOAD DUP1 SWAP2 SUB SWAP1 RETURN JUMPDEST PUSH2 0x197 PUSH1 0x4 DUP1 CALLDATASIZE SUB DUP2 ADD SWAP1 PUSH2 0x192 SWAP2 SWAP1 PUSH2 0x5A6 JUMP JUMPDEST PUSH2 0x288 JUMP JUMPDEST PUSH1 0x40 MLOAD PUSH2 0x1A4 SWAP2 SWAP1 PUSH2 0x60C JUMP JUMPDEST PUSH1 0x40 MLOAD DUP1 SWAP2 SUB SWAP1 RETURN JUMPDEST PUSH2 0x1C7 PUSH1 0x4 DUP1 CALLDATASIZE SUB DUP2 ADD SWAP1 PUSH2 0x1C2 SWAP2 SWAP1 PUSH2 0x566 JUMP JUMPDEST PUSH2 0x29A JUMP JUMPDEST PUSH1 0x40 MLOAD PUSH2 0x1D4 SWAP2 SWAP1 PUSH2 0x5F1 JUMP JUMPDEST PUSH1 0x40 MLOAD DUP1 SWAP2 SUB SWAP1 RETURN JUMPDEST PUSH2 0x1F7 PUSH1 0x4 DUP1 CALLDATASIZE SUB DUP2 ADD SWAP1 PUSH2 0x1F2 SWAP2 SWAP1 PUSH2 0x50C JUMP JUMPDEST PUSH2 0x2B7 JUMP JUMPDEST PUSH1 0x40 MLOAD PUSH2 0x204 SWAP2 SWAP1 PUSH2 0x5F1 JUMP JUMPDEST PUSH1 0x40 MLOAD DUP1 SWAP2 SUB SWAP1 RETURN JUMPDEST PUSH1 0x0 PUSH2 0x222 DUP3 DUP5 PUSH2 0x2CF SWAP1 SWAP2 SWAP1 PUSH4 0xFFFFFFFF AND JUMP JUMPDEST SWAP1 POP SWAP3 SWAP2 POP POP JUMP JUMPDEST PUSH1 0x0 PUSH2 0x23F DUP3 DUP5 PUSH2 0x2E5 SWAP1 SWAP2 SWAP1 PUSH4 0xFFFFFFFF AND JUMP JUMPDEST SWAP1 POP SWAP3 SWAP2 POP POP JUMP JUMPDEST PUSH1 0x0 PUSH2 0x25C DUP3 DUP5 PUSH2 0x2FB SWAP1 SWAP2 SWAP1 PUSH4 0xFFFFFFFF AND JUMP JUMPDEST SWAP1 POP SWAP3 SWAP2 POP POP JUMP JUMPDEST PUSH1 0x0 PUSH2 0x26F DUP3 PUSH2 0x311 JUMP JUMPDEST SWAP1 POP SWAP2 SWAP1 POP JUMP JUMPDEST PUSH1 0x0 PUSH2 0x281 DUP3 PUSH2 0x335 JUMP JUMPDEST SWAP1 POP SWAP2 SWAP1 POP JUMP JUMPDEST PUSH1 0x0 PUSH2 0x293 DUP3 PUSH2 0x34A JUMP JUMPDEST SWAP1 POP SWAP2 SWAP1 POP JUMP JUMPDEST PUSH1 0x0 PUSH2 0x2AF DUP3 DUP5 PUSH2 0x385 SWAP1 SWAP2 SWAP1 PUSH4 0xFFFFFFFF AND JUMP JUMPDEST SWAP1 POP SWAP3 SWAP2 POP POP JUMP JUMPDEST PUSH1 0x0 PUSH2 0x2C5 DUP3 PUSH1 0xF SIGNEXTEND PUSH2 0x39B JUMP JUMPDEST PUSH1 0xF SIGNEXTEND SWAP1 POP SWAP2 SWAP1 POP JUMP JUMPDEST PUSH1 0x0 DUP2 DUP4 PUSH2 0x2DD SWAP2 SWAP1 PUSH2 0x711 JUMP JUMPDEST SWAP1 POP SWAP3 SWAP2 POP POP JUMP JUMPDEST PUSH1 0x0 DUP2 DUP4 PUSH2 0x2F3 SWAP2 SWAP1 PUSH2 0x7AC JUMP JUMPDEST SWAP1 POP SWAP3 SWAP2 POP POP JUMP JUMPDEST PUSH1 0x0 DUP2 DUP4 PUSH2 0x309 SWAP2 SWAP1 PUSH2 0x91D JUMP JUMPDEST SWAP1 POP SWAP3 SWAP2 POP POP JUMP JUMPDEST PUSH1 0x0 DUP1 DUP3 SGT ISZERO PUSH2 0x323 JUMPI DUP2 SWAP1 POP PUSH2 0x330 JUMP JUMPDEST DUP2 PUSH2 0x32D SWAP1 PUSH2 0xA06 JUMP JUMPDEST SWAP1 POP JUMPDEST SWAP2 SWAP1 POP JUMP JUMPDEST PUSH1 0x0 DUP2 DUP3 PUSH2 0x343 SWAP2 SWAP1 PUSH2 0x7AC JUMP JUMPDEST SWAP1 POP SWAP2 SWAP1 POP JUMP JUMPDEST PUSH1 0x0 PUSH1 0x1 DUP3 GT PUSH2 0x35D JUMPI PUSH1 0x1 SWAP1 POP PUSH2 0x380 JUMP JUMPDEST PUSH2 0x372 PUSH1 0x1 DUP4 PUSH2 0x36D SWAP2 SWAP1 PUSH2 0x9B1 JUMP JUMPDEST PUSH2 0x34A JUMP JUMPDEST DUP3 PUSH2 0x37D SWAP2 SWAP1 PUSH2 0x8C3 JUMP JUMPDEST SWAP1 POP JUMPDEST SWAP2 SWAP1 POP JUMP JUMPDEST PUSH1 0x0 DUP2 DUP4 PUSH2 0x393 SWAP2 SWAP1 PUSH2 0x627 JUMP JUMPDEST SWAP1 POP SWAP3 SWAP2 POP POP JUMP JUMPDEST PUSH1 0x0 DUP1 DUP3 PUSH1 0xF SIGNEXTEND SLT ISZERO PUSH2 0x3AD JUMPI PUSH1 0x0 DUP1 REVERT JUMPDEST PUSH2 0x3B9 DUP3 PUSH1 0xF SIGNEXTEND PUSH2 0x3C0 JUMP JUMPDEST SWAP1 POP SWAP2 SWAP1 POP JUMP JUMPDEST PUSH1 0x0 DUP1 DUP3 LT ISZERO PUSH2 0x3CF JUMPI PUSH1 0x0 DUP1 REVERT JUMPDEST PUSH1 0x0 DUP3 EQ ISZERO PUSH2 0x3E1 JUMPI PUSH1 0x0 SWAP1 POP PUSH2 0x4C8 JUMP JUMPDEST PUSH1 0x0 PUSH1 0x1 SWAP1 POP PUSH1 0x2 DUP2 DUP5 PUSH2 0x3F5 SWAP2 SWAP1 PUSH2 0x77B JUMP JUMPDEST DUP3 PUSH2 0x400 SWAP2 SWAP1 PUSH2 0x6BB JUMP JUMPDEST PUSH2 0x40A SWAP2 SWAP1 PUSH2 0x77B JUMP JUMPDEST SWAP1 POP PUSH1 0x2 DUP2 DUP5 PUSH2 0x41A SWAP2 SWAP1 PUSH2 0x77B JUMP JUMPDEST DUP3 PUSH2 0x425 SWAP2 SWAP1 PUSH2 0x6BB JUMP JUMPDEST PUSH2 0x42F SWAP2 SWAP1 PUSH2 0x77B JUMP JUMPDEST SWAP1 POP PUSH1 0x2 DUP2 DUP5 PUSH2 0x43F SWAP2 SWAP1 PUSH2 0x77B JUMP JUMPDEST DUP3 PUSH2 0x44A SWAP2 SWAP1 PUSH2 0x6BB JUMP JUMPDEST PUSH2 0x454 SWAP2 SWAP1 PUSH2 0x77B JUMP JUMPDEST SWAP1 POP PUSH1 0x2 DUP2 DUP5 PUSH2 0x464 SWAP2 SWAP1 PUSH2 0x77B JUMP JUMPDEST DUP3 PUSH2 0x46F SWAP2 SWAP1 PUSH2 0x6BB JUMP JUMPDEST PUSH2 0x479 SWAP2 SWAP1 PUSH2 0x77B JUMP JUMPDEST SWAP1 POP PUSH1 0x2 DUP2 DUP5 PUSH2 0x489 SWAP2 SWAP1 PUSH2 0x77B JUMP JUMPDEST DUP3 PUSH2 0x494 SWAP2 SWAP1 PUSH2 0x6BB JUMP JUMPDEST PUSH2 0x49E SWAP2 SWAP1 PUSH2 0x77B JUMP JUMPDEST SWAP1 POP PUSH1 0x0 DUP2 DUP5 PUSH2 0x4AE SWAP2 SWAP1 PUSH2 0x77B JUMP JUMPDEST SWAP1 POP DUP1 DUP3 LT ISZERO PUSH2 0x4C2 JUMPI DUP2 SWAP3 POP POP POP PUSH2 0x4C8 JUMP JUMPDEST DUP1 SWAP3 POP POP POP JUMPDEST SWAP2 SWAP1 POP JUMP JUMPDEST PUSH1 0x0 DUP2 CALLDATALOAD SWAP1 POP PUSH2 0x4DC DUP2 PUSH2 0xAB2 JUMP JUMPDEST SWAP3 SWAP2 POP POP JUMP JUMPDEST PUSH1 0x0 DUP2 CALLDATALOAD SWAP1 POP PUSH2 0x4F1 DUP2 PUSH2 0xAC9 JUMP JUMPDEST SWAP3 SWAP2 POP POP JUMP JUMPDEST PUSH1 0x0 DUP2 CALLDATALOAD SWAP1 POP PUSH2 0x506 DUP2 PUSH2 0xAE0 JUMP JUMPDEST SWAP3 SWAP2 POP POP JUMP JUMPDEST PUSH1 0x0 PUSH1 0x20 DUP3 DUP5 SUB SLT ISZERO PUSH2 0x522 JUMPI PUSH2 0x521 PUSH2 0xAAD JUMP JUMPDEST JUMPDEST PUSH1 0x0 PUSH2 0x530 DUP5 DUP3 DUP6 ADD PUSH2 0x4CD JUMP JUMPDEST SWAP2 POP POP SWAP3 SWAP2 POP POP JUMP JUMPDEST PUSH1 0x0 PUSH1 0x20 DUP3 DUP5 SUB SLT ISZERO PUSH2 0x54F JUMPI PUSH2 0x54E PUSH2 0xAAD JUMP JUMPDEST JUMPDEST PUSH1 0x0 PUSH2 0x55D DUP5 DUP3 DUP6 ADD PUSH2 0x4E2 JUMP JUMPDEST SWAP2 POP POP SWAP3 SWAP2 POP POP JUMP JUMPDEST PUSH1 0x0 DUP1 PUSH1 0x40 DUP4 DUP6 SUB SLT ISZERO PUSH2 0x57D JUMPI PUSH2 0x57C PUSH2 0xAAD JUMP JUMPDEST JUMPDEST PUSH1 0x0 PUSH2 0x58B DUP6 DUP3 DUP7 ADD PUSH2 0x4E2 JUMP JUMPDEST SWAP3 POP POP PUSH1 0x20 PUSH2 0x59C DUP6 DUP3 DUP7 ADD PUSH2 0x4E2 JUMP JUMPDEST SWAP2 POP POP SWAP3 POP SWAP3 SWAP1 POP JUMP JUMPDEST PUSH1 0x0 PUSH1 0x20 DUP3 DUP5 SUB SLT ISZERO PUSH2 0x5BC JUMPI PUSH2 0x5BB PUSH2 0xAAD JUMP JUMPDEST JUMPDEST PUSH1 0x0 PUSH2 0x5CA DUP5 DUP3 DUP6 ADD PUSH2 0x4F7 JUMP JUMPDEST SWAP2 POP POP SWAP3 SWAP2 POP POP JUMP JUMPDEST PUSH2 0x5DC DUP2 PUSH2 0x9F2 JUMP JUMPDEST DUP3 MSTORE POP POP JUMP JUMPDEST PUSH2 0x5EB DUP2 PUSH2 0x9FC JUMP JUMPDEST DUP3 MSTORE POP POP JUMP JUMPDEST PUSH1 0x0 PUSH1 0x20 DUP3 ADD SWAP1 POP PUSH2 0x606 PUSH1 0x0 DUP4 ADD DUP5 PUSH2 0x5D3 JUMP JUMPDEST SWAP3 SWAP2 POP POP JUMP JUMPDEST PUSH1 0x0 PUSH1 0x20 DUP3 ADD SWAP1 POP PUSH2 0x621 PUSH1 0x0 DUP4 ADD DUP5 PUSH2 0x5E2 JUMP JUMPDEST SWAP3 SWAP2 POP POP JUMP JUMPDEST PUSH1 0x0 PUSH2 0x632 DUP3 PUSH2 0x9F2 JUMP JUMPDEST SWAP2 POP PUSH2 0x63D DUP4 PUSH2 0x9F2 JUMP JUMPDEST SWAP3 POP DUP2 PUSH32 0x7FFFFFFFFFFFFFFFFFFFFFFFFFFFFFFFFFFFFFFFFFFFFFFFFFFFFFFFFFFFFFFF SUB DUP4 SGT PUSH1 0x0 DUP4 SLT ISZERO AND ISZERO PUSH2 0x678 JUMPI PUSH2 0x677 PUSH2 0xA4F JUMP JUMPDEST JUMPDEST DUP2 PUSH32 0x8000000000000000000000000000000000000000000000000000000000000000 SUB DUP4 SLT PUSH1 0x0 DUP4 SLT AND ISZERO PUSH2 0x6B0 JUMPI PUSH2 0x6AF PUSH2 0xA4F JUMP JUMPDEST JUMPDEST DUP3 DUP3 ADD SWAP1 POP SWAP3 SWAP2 POP POP JUMP JUMPDEST PUSH1 0x0 PUSH2 0x6C6 DUP3 PUSH2 0x9FC JUMP JUMPDEST SWAP2 POP PUSH2 0x6D1 DUP4 PUSH2 0x9FC JUMP JUMPDEST SWAP3 POP DUP3 PUSH32 0xFFFFFFFFFFFFFFFFFFFFFFFFFFFFFFFFFFFFFFFFFFFFFFFFFFFFFFFFFFFFFFFF SUB DUP3 GT ISZERO PUSH2 0x706 JUMPI PUSH2 0x705 PUSH2 0xA4F JUMP JUMPDEST JUMPDEST DUP3 DUP3 ADD SWAP1 POP SWAP3 SWAP2 POP POP JUMP JUMPDEST PUSH1 0x0 PUSH2 0x71C DUP3 PUSH2 0x9F2 JUMP JUMPDEST SWAP2 POP PUSH2 0x727 DUP4 PUSH2 0x9F2 JUMP JUMPDEST SWAP3 POP DUP3 PUSH2 0x737 JUMPI PUSH2 0x736 PUSH2 0xA7E JUMP JUMPDEST JUMPDEST PUSH1 0x1 PUSH1 0x0 SUB DUP4 EQ PUSH32 0x8000000000000000000000000000000000000000000000000000000000000000 DUP4 EQ AND ISZERO PUSH2 0x770 JUMPI PUSH2 0x76F PUSH2 0xA4F JUMP JUMPDEST JUMPDEST DUP3 DUP3 SDIV SWAP1 POP SWAP3 SWAP2 POP POP JUMP JUMPDEST PUSH1 0x0 PUSH2 0x786 DUP3 PUSH2 0x9FC JUMP JUMPDEST SWAP2 POP PUSH2 0x791 DUP4 PUSH2 0x9FC JUMP JUMPDEST SWAP3 POP DUP3 PUSH2 0x7A1 JUMPI PUSH2 0x7A0 PUSH2 0xA7E JUMP JUMPDEST JUMPDEST DUP3 DUP3 DIV SWAP1 POP SWAP3 SWAP2 POP POP JUMP JUMPDEST PUSH1 0x0 PUSH2 0x7B7 DUP3 PUSH2 0x9F2 JUMP JUMPDEST SWAP2 POP PUSH2 0x7C2 DUP4 PUSH2 0x9F2 JUMP JUMPDEST SWAP3 POP DUP3 PUSH32 0x7FFFFFFFFFFFFFFFFFFFFFFFFFFFFFFFFFFFFFFFFFFFFFFFFFFFFFFFFFFFFFFF DIV DUP3 GT PUSH1 0x0 DUP5 SGT PUSH1 0x0 DUP5 SGT AND AND ISZERO PUSH2 0x801 JUMPI PUSH2 0x800 PUSH2 0xA4F JUMP JUMPDEST JUMPDEST DUP2 PUSH32 0x8000000000000000000000000000000000000000000000000000000000000000 SDIV DUP4 SLT PUSH1 0x0 DUP5 SLT PUSH1 0x0 DUP5 SGT AND AND ISZERO PUSH2 0x83E JUMPI PUSH2 0x83D PUSH2 0xA4F JUMP JUMPDEST JUMPDEST DUP3 PUSH32 0x8000000000000000000000000000000000000000000000000000000000000000 SDIV DUP3 SLT PUSH1 0x0 DUP5 SGT PUSH1 0x0 DUP5 SLT AND AND ISZERO PUSH2 0x87B JUMPI PUSH2 0x87A PUSH2 0xA4F JUMP JUMPDEST JUMPDEST DUP3 PUSH32 0x7FFFFFFFFFFFFFFFFFFFFFFFFFFFFFFFFFFFFFFFFFFFFFFFFFFFFFFFFFFFFFFF SDIV DUP3 SLT PUSH1 0x0 DUP5 SLT PUSH1 0x0 DUP5 SLT AND AND ISZERO PUSH2 0x8B8 JUMPI PUSH2 0x8B7 PUSH2 0xA4F JUMP JUMPDEST JUMPDEST DUP3 DUP3 MUL SWAP1 POP SWAP3 SWAP2 POP POP JUMP JUMPDEST PUSH1 0x0 PUSH2 0x8CE DUP3 PUSH2 0x9FC JUMP JUMPDEST SWAP2 POP PUSH2 0x8D9 DUP4 PUSH2 0x9FC JUMP JUMPDEST SWAP3 POP DUP2 PUSH32 0xFFFFFFFFFFFFFFFFFFFFFFFFFFFFFFFFFFFFFFFFFFFFFFFFFFFFFFFFFFFFFFFF DIV DUP4 GT DUP3 ISZERO ISZERO AND ISZERO PUSH2 0x912 JUMPI PUSH2 0x911 PUSH2 0xA4F JUMP JUMPDEST JUMPDEST DUP3 DUP3 MUL SWAP1 POP SWAP3 SWAP2 POP POP JUMP JUMPDEST PUSH1 0x0 PUSH2 0x928 DUP3 PUSH2 0x9F2 JUMP JUMPDEST SWAP2 POP PUSH2 0x933 DUP4 PUSH2 0x9F2 JUMP JUMPDEST SWAP3 POP DUP3 PUSH32 0x8000000000000000000000000000000000000000000000000000000000000000 ADD DUP3 SLT PUSH1 0x0 DUP5 SLT ISZERO AND ISZERO PUSH2 0x96E JUMPI PUSH2 0x96D PUSH2 0xA4F JUMP JUMPDEST JUMPDEST DUP3 PUSH32 0x7FFFFFFFFFFFFFFFFFFFFFFFFFFFFFFFFFFFFFFFFFFFFFFFFFFFFFFFFFFFFFFF ADD DUP3 SGT PUSH1 0x0 DUP5 SLT AND ISZERO PUSH2 0x9A6 JUMPI PUSH2 0x9A5 PUSH2 0xA4F JUMP JUMPDEST JUMPDEST DUP3 DUP3 SUB SWAP1 POP SWAP3 SWAP2 POP POP JUMP JUMPDEST PUSH1 0x0 PUSH2 0x9BC DUP3 PUSH2 0x9FC JUMP JUMPDEST SWAP2 POP PUSH2 0x9C7 DUP4 PUSH2 0x9FC JUMP JUMPDEST SWAP3 POP DUP3 DUP3 LT ISZERO PUSH2 0x9DA JUMPI PUSH2 0x9D9 PUSH2 0xA4F JUMP JUMPDEST JUMPDEST DUP3 DUP3 SUB SWAP1 POP SWAP3 SWAP2 POP POP JUMP JUMPDEST PUSH1 0x0 DUP2 PUSH1 0xF SIGNEXTEND SWAP1 POP SWAP2 SWAP1 POP JUMP JUMPDEST PUSH1 0x0 DUP2 SWAP1 POP SWAP2 SWAP1 POP JUMP JUMPDEST PUSH1 0x0 DUP2 SWAP1 POP SWAP2 SWAP1 POP JUMP JUMPDEST PUSH1 0x0 PUSH2 0xA11 DUP3 PUSH2 0x9F2 JUMP JUMPDEST SWAP2 POP PUSH32 0x8000000000000000000000000000000000000000000000000000000000000000 DUP3 EQ ISZERO PUSH2 0xA44 JUMPI PUSH2 0xA43 PUSH2 0xA4F JUMP JUMPDEST JUMPDEST DUP2 PUSH1 0x0 SUB SWAP1 POP SWAP2 SWAP1 POP JUMP JUMPDEST PUSH32 0x4E487B7100000000000000000000000000000000000000000000000000000000 PUSH1 0x0 MSTORE PUSH1 0x11 PUSH1 0x4 MSTORE PUSH1 0x24 PUSH1 0x0 REVERT JUMPDEST PUSH32 0x4E487B7100000000000000000000000000000000000000000000000000000000 PUSH1 0x0 MSTORE PUSH1 0x12 PUSH1 0x4 MSTORE PUSH1 0x24 PUSH1 0x0 REVERT JUMPDEST PUSH1 0x0 DUP1 REVERT JUMPDEST PUSH2 0xABB DUP2 PUSH2 0x9E5 JUMP JUMPDEST DUP2 EQ PUSH2 0xAC6 JUMPI PUSH1 0x0 DUP1 REVERT JUMPDEST POP JUMP JUMPDEST PUSH2 0xAD2 DUP2 PUSH2 0x9F2 JUMP JUMPDEST DUP2 EQ PUSH2 0xADD JUMPI PUSH1 0x0 DUP1 REVERT JUMPDEST POP JUMP JUMPDEST PUSH2 0xAE9 DUP2 PUSH2 0x9FC JUMP JUMPDEST DUP2 EQ PUSH2 0xAF4 JUMPI PUSH1 0x0 DUP1 REVERT JUMPDEST POP JUMP INVALID LOG2 PUSH5 0x6970667358 0x22 SLT KECCAK256 ADDRESS SIGNEXTEND SWAP5 0xA5 CALLVALUE PUSH8 0xCAFC99F986A7626D 0x4D 0xC0 PUSH11 0x7A9C913723D891931AB798 KECCAK256 0xBD NOT PUSH21 0x64736F6C6343000807003300000000000000000000 "
				},
				"gasEstimates": {
					"creation": {
						"codeDepositCost": "572200",
						"executionCost": "606",
						"totalCost": "572806"
					},
					"external": {
						"cuadrado(int256)": "infinite",
						"division(int256,int256)": "infinite",
						"factorial(uint256)": "infinite",
						"multiplicacion(int256,int256)": "infinite",
						"raizCuadrada(int128)": "infinite",
						"resta(int256,int256)": "infinite",
						"suma(int256,int256)": "infinite",
						"valorAbsoluto(int256)": "infinite"
					}
				},
				"methodIdentifiers": {
					"cuadrado(int256)": "7ea9e058",
					"division(int256,int256)": "09b7cdda",
					"factorial(uint256)": "83714834",
					"multiplicacion(int256,int256)": "187983bf",
					"raizCuadrada(int128)": "b8501073",
					"resta(int256,int256)": "4c627bad",
					"suma(int256,int256)": "8f8a0d19",
					"valorAbsoluto(int256)": "7d825142"
				}
			},
			"storageLayout": {
				"storage": [],
				"types": null
			},
			"userdoc": {
				"kind": "user",
				"methods": {},
				"version": 1
			}
		}
	}
}