{
	"Documents/GitHub/SOLIDITY-REMIX/5ef069451e67668750287d64bc5f8bae/calculadora.sol": {
		"Calculadora": {
			"abi": [
				{
					"inputs": [
						{
							"internalType": "int256",
							"name": "a",
							"type": "int256"
						},
						{
							"internalType": "int256",
							"name": "b",
							"type": "int256"
						}
					],
					"name": "division",
					"outputs": [
						{
							"internalType": "int256",
							"name": "",
							"type": "int256"
						}
					],
					"stateMutability": "pure",
					"type": "function"
				},
				{
					"inputs": [
						{
							"internalType": "uint256",
							"name": "a",
							"type": "uint256"
						}
					],
					"name": "factorial",
					"outputs": [
						{
							"internalType": "uint256",
							"name": "",
							"type": "uint256"
						}
					],
					"stateMutability": "pure",
					"type": "function"
				},
				{
					"inputs": [
						{
							"internalType": "int256",
							"name": "a",
							"type": "int256"
						},
						{
							"internalType": "int256",
							"name": "b",
							"type": "int256"
						}
					],
					"name": "multiplicacion",
					"outputs": [
						{
							"internalType": "int256",
							"name": "",
							"type": "int256"
						}
					],
					"stateMutability": "pure",
					"type": "function"
				},
				{
					"inputs": [
						{
							"internalType": "int256",
							"name": "a",
							"type": "int256"
						},
						{
							"internalType": "int256",
							"name": "b",
							"type": "int256"
						}
					],
					"name": "resta",
					"outputs": [
						{
							"internalType": "int256",
							"name": "",
							"type": "int256"
						}
					],
					"stateMutability": "pure",
					"type": "function"
				},
				{
					"inputs": [
						{
							"internalType": "int256",
							"name": "a",
							"type": "int256"
						},
						{
							"internalType": "int256",
							"name": "b",
							"type": "int256"
						}
					],
					"name": "suma",
					"outputs": [
						{
							"internalType": "int256",
							"name": "",
							"type": "int256"
						}
					],
					"stateMutability": "pure",
					"type": "function"
				},
				{
					"inputs": [
						{
							"internalType": "int256",
							"name": "a",
							"type": "int256"
						}
					],
					"name": "valorAbsoluto",
					"outputs": [
						{
							"internalType": "uint256",
							"name": "",
							"type": "uint256"
						}
					],
					"stateMutability": "pure",
					"type": "function"
				}
			],
			"devdoc": {
				"kind": "dev",
				"methods": {},
				"version": 1
			},
			"evm": {
				"assembly": "    /* \"Documents/GitHub/SOLIDITY-REMIX/5ef069451e67668750287d64bc5f8bae/calculadora.sol\":94:866  contract Calculadora {\r... */\n  mstore(0x40, 0x80)\n  callvalue\n  dup1\n  iszero\n  tag_1\n  jumpi\n  0x00\n  dup1\n  revert\ntag_1:\n  pop\n  dataSize(sub_0)\n  dup1\n  dataOffset(sub_0)\n  0x00\n  codecopy\n  0x00\n  return\nstop\n\nsub_0: assembly {\n        /* \"Documents/GitHub/SOLIDITY-REMIX/5ef069451e67668750287d64bc5f8bae/calculadora.sol\":94:866  contract Calculadora {\r... */\n      mstore(0x40, 0x80)\n      callvalue\n      dup1\n      iszero\n      tag_1\n      jumpi\n      0x00\n      dup1\n      revert\n    tag_1:\n      pop\n      jumpi(tag_2, lt(calldatasize, 0x04))\n      shr(0xe0, calldataload(0x00))\n      dup1\n      0x09b7cdda\n      eq\n      tag_3\n      jumpi\n      dup1\n      0x187983bf\n      eq\n      tag_4\n      jumpi\n      dup1\n      0x4c627bad\n      eq\n      tag_5\n      jumpi\n      dup1\n      0x7d825142\n      eq\n      tag_6\n      jumpi\n      dup1\n      0x83714834\n      eq\n      tag_7\n      jumpi\n      dup1\n      0x8f8a0d19\n      eq\n      tag_8\n      jumpi\n    tag_2:\n      0x00\n      dup1\n      revert\n        /* \"Documents/GitHub/SOLIDITY-REMIX/5ef069451e67668750287d64bc5f8bae/calculadora.sol\":463:557  function division(int a,int b) public pure returns (int){\r... */\n    tag_3:\n      tag_9\n      0x04\n      dup1\n      calldatasize\n      sub\n      dup2\n      add\n      swap1\n      tag_10\n      swap2\n      swap1\n      tag_11\n      jump\t// in\n    tag_10:\n      tag_12\n      jump\t// in\n    tag_9:\n      mload(0x40)\n      tag_13\n      swap2\n      swap1\n      tag_14\n      jump\t// in\n    tag_13:\n      mload(0x40)\n      dup1\n      swap2\n      sub\n      swap1\n      return\n        /* \"Documents/GitHub/SOLIDITY-REMIX/5ef069451e67668750287d64bc5f8bae/calculadora.sol\":350:455  function multiplicacion(int a, int b) public pure returns (int){\r... */\n    tag_4:\n      tag_15\n      0x04\n      dup1\n      calldatasize\n      sub\n      dup2\n      add\n      swap1\n      tag_16\n      swap2\n      swap1\n      tag_11\n      jump\t// in\n    tag_16:\n      tag_17\n      jump\t// in\n    tag_15:\n      mload(0x40)\n      tag_18\n      swap2\n      swap1\n      tag_14\n      jump\t// in\n    tag_18:\n      mload(0x40)\n      dup1\n      swap2\n      sub\n      swap1\n      return\n        /* \"Documents/GitHub/SOLIDITY-REMIX/5ef069451e67668750287d64bc5f8bae/calculadora.sol\":251:342  function resta(int a, int b) public pure returns (int){\r... */\n    tag_5:\n      tag_19\n      0x04\n      dup1\n      calldatasize\n      sub\n      dup2\n      add\n      swap1\n      tag_20\n      swap2\n      swap1\n      tag_11\n      jump\t// in\n    tag_20:\n      tag_21\n      jump\t// in\n    tag_19:\n      mload(0x40)\n      tag_22\n      swap2\n      swap1\n      tag_14\n      jump\t// in\n    tag_22:\n      mload(0x40)\n      dup1\n      swap2\n      sub\n      swap1\n      return\n        /* \"Documents/GitHub/SOLIDITY-REMIX/5ef069451e67668750287d64bc5f8bae/calculadora.sol\":667:762  function  valorAbsoluto(int a) public pure returns (uint){\r... */\n    tag_6:\n      tag_23\n      0x04\n      dup1\n      calldatasize\n      sub\n      dup2\n      add\n      swap1\n      tag_24\n      swap2\n      swap1\n      tag_25\n      jump\t// in\n    tag_24:\n      tag_26\n      jump\t// in\n    tag_23:\n      mload(0x40)\n      tag_27\n      swap2\n      swap1\n      tag_28\n      jump\t// in\n    tag_27:\n      mload(0x40)\n      dup1\n      swap2\n      sub\n      swap1\n      return\n        /* \"Documents/GitHub/SOLIDITY-REMIX/5ef069451e67668750287d64bc5f8bae/calculadora.sol\":565:659  function factorial(uint a) public pure returns (uint){\r... */\n    tag_7:\n      tag_29\n      0x04\n      dup1\n      calldatasize\n      sub\n      dup2\n      add\n      swap1\n      tag_30\n      swap2\n      swap1\n      tag_31\n      jump\t// in\n    tag_30:\n      tag_32\n      jump\t// in\n    tag_29:\n      mload(0x40)\n      tag_33\n      swap2\n      swap1\n      tag_28\n      jump\t// in\n    tag_33:\n      mload(0x40)\n      dup1\n      swap2\n      sub\n      swap1\n      return\n        /* \"Documents/GitHub/SOLIDITY-REMIX/5ef069451e67668750287d64bc5f8bae/calculadora.sol\":150:243  function suma(int a, int b) public pure returns (int){\r... */\n    tag_8:\n      tag_34\n      0x04\n      dup1\n      calldatasize\n      sub\n      dup2\n      add\n      swap1\n      tag_35\n      swap2\n      swap1\n      tag_11\n      jump\t// in\n    tag_35:\n      tag_36\n      jump\t// in\n    tag_34:\n      mload(0x40)\n      tag_37\n      swap2\n      swap1\n      tag_14\n      jump\t// in\n    tag_37:\n      mload(0x40)\n      dup1\n      swap2\n      sub\n      swap1\n      return\n        /* \"Documents/GitHub/SOLIDITY-REMIX/5ef069451e67668750287d64bc5f8bae/calculadora.sol\":463:557  function division(int a,int b) public pure returns (int){\r... */\n    tag_12:\n        /* \"Documents/GitHub/SOLIDITY-REMIX/5ef069451e67668750287d64bc5f8bae/calculadora.sol\":515:518  int */\n      0x00\n        /* \"Documents/GitHub/SOLIDITY-REMIX/5ef069451e67668750287d64bc5f8bae/calculadora.sol\":537:549  a.dividir(b) */\n      tag_39\n        /* \"Documents/GitHub/SOLIDITY-REMIX/5ef069451e67668750287d64bc5f8bae/calculadora.sol\":547:548  b */\n      dup3\n        /* \"Documents/GitHub/SOLIDITY-REMIX/5ef069451e67668750287d64bc5f8bae/calculadora.sol\":537:538  a */\n      dup5\n        /* \"Documents/GitHub/SOLIDITY-REMIX/5ef069451e67668750287d64bc5f8bae/calculadora.sol\":537:546  a.dividir */\n      tag_40\n      swap1\n        /* \"Documents/GitHub/SOLIDITY-REMIX/5ef069451e67668750287d64bc5f8bae/calculadora.sol\":537:549  a.dividir(b) */\n      swap2\n      swap1\n      0xffffffff\n      and\n      jump\t// in\n    tag_39:\n        /* \"Documents/GitHub/SOLIDITY-REMIX/5ef069451e67668750287d64bc5f8bae/calculadora.sol\":530:549  return a.dividir(b) */\n      swap1\n      pop\n        /* \"Documents/GitHub/SOLIDITY-REMIX/5ef069451e67668750287d64bc5f8bae/calculadora.sol\":463:557  function division(int a,int b) public pure returns (int){\r... */\n      swap3\n      swap2\n      pop\n      pop\n      jump\t// out\n        /* \"Documents/GitHub/SOLIDITY-REMIX/5ef069451e67668750287d64bc5f8bae/calculadora.sol\":350:455  function multiplicacion(int a, int b) public pure returns (int){\r... */\n    tag_17:\n        /* \"Documents/GitHub/SOLIDITY-REMIX/5ef069451e67668750287d64bc5f8bae/calculadora.sol\":409:412  int */\n      0x00\n        /* \"Documents/GitHub/SOLIDITY-REMIX/5ef069451e67668750287d64bc5f8bae/calculadora.sol\":431:447  a.multiplicar(b) */\n      tag_42\n        /* \"Documents/GitHub/SOLIDITY-REMIX/5ef069451e67668750287d64bc5f8bae/calculadora.sol\":445:446  b */\n      dup3\n        /* \"Documents/GitHub/SOLIDITY-REMIX/5ef069451e67668750287d64bc5f8bae/calculadora.sol\":431:432  a */\n      dup5\n        /* \"Documents/GitHub/SOLIDITY-REMIX/5ef069451e67668750287d64bc5f8bae/calculadora.sol\":431:444  a.multiplicar */\n      tag_43\n      swap1\n        /* \"Documents/GitHub/SOLIDITY-REMIX/5ef069451e67668750287d64bc5f8bae/calculadora.sol\":431:447  a.multiplicar(b) */\n      swap2\n      swap1\n      0xffffffff\n      and\n      jump\t// in\n    tag_42:\n        /* \"Documents/GitHub/SOLIDITY-REMIX/5ef069451e67668750287d64bc5f8bae/calculadora.sol\":424:447  return a.multiplicar(b) */\n      swap1\n      pop\n        /* \"Documents/GitHub/SOLIDITY-REMIX/5ef069451e67668750287d64bc5f8bae/calculadora.sol\":350:455  function multiplicacion(int a, int b) public pure returns (int){\r... */\n      swap3\n      swap2\n      pop\n      pop\n      jump\t// out\n        /* \"Documents/GitHub/SOLIDITY-REMIX/5ef069451e67668750287d64bc5f8bae/calculadora.sol\":251:342  function resta(int a, int b) public pure returns (int){\r... */\n    tag_21:\n        /* \"Documents/GitHub/SOLIDITY-REMIX/5ef069451e67668750287d64bc5f8bae/calculadora.sol\":301:304  int */\n      0x00\n        /* \"Documents/GitHub/SOLIDITY-REMIX/5ef069451e67668750287d64bc5f8bae/calculadora.sol\":323:334  a.restar(b) */\n      tag_45\n        /* \"Documents/GitHub/SOLIDITY-REMIX/5ef069451e67668750287d64bc5f8bae/calculadora.sol\":332:333  b */\n      dup3\n        /* \"Documents/GitHub/SOLIDITY-REMIX/5ef069451e67668750287d64bc5f8bae/calculadora.sol\":323:324  a */\n      dup5\n        /* \"Documents/GitHub/SOLIDITY-REMIX/5ef069451e67668750287d64bc5f8bae/calculadora.sol\":323:331  a.restar */\n      tag_46\n      swap1\n        /* \"Documents/GitHub/SOLIDITY-REMIX/5ef069451e67668750287d64bc5f8bae/calculadora.sol\":323:334  a.restar(b) */\n      swap2\n      swap1\n      0xffffffff\n      and\n      jump\t// in\n    tag_45:\n        /* \"Documents/GitHub/SOLIDITY-REMIX/5ef069451e67668750287d64bc5f8bae/calculadora.sol\":316:334  return a.restar(b) */\n      swap1\n      pop\n        /* \"Documents/GitHub/SOLIDITY-REMIX/5ef069451e67668750287d64bc5f8bae/calculadora.sol\":251:342  function resta(int a, int b) public pure returns (int){\r... */\n      swap3\n      swap2\n      pop\n      pop\n      jump\t// out\n        /* \"Documents/GitHub/SOLIDITY-REMIX/5ef069451e67668750287d64bc5f8bae/calculadora.sol\":667:762  function  valorAbsoluto(int a) public pure returns (uint){\r... */\n    tag_26:\n        /* \"Documents/GitHub/SOLIDITY-REMIX/5ef069451e67668750287d64bc5f8bae/calculadora.sol\":719:723  uint */\n      0x00\n        /* \"Documents/GitHub/SOLIDITY-REMIX/5ef069451e67668750287d64bc5f8bae/calculadora.sol\":742:754  a.absoluto() */\n      tag_48\n        /* \"Documents/GitHub/SOLIDITY-REMIX/5ef069451e67668750287d64bc5f8bae/calculadora.sol\":742:743  a */\n      dup3\n        /* \"Documents/GitHub/SOLIDITY-REMIX/5ef069451e67668750287d64bc5f8bae/calculadora.sol\":742:752  a.absoluto */\n      tag_49\n        /* \"Documents/GitHub/SOLIDITY-REMIX/5ef069451e67668750287d64bc5f8bae/calculadora.sol\":742:754  a.absoluto() */\n      jump\t// in\n    tag_48:\n        /* \"Documents/GitHub/SOLIDITY-REMIX/5ef069451e67668750287d64bc5f8bae/calculadora.sol\":735:754  return a.absoluto() */\n      swap1\n      pop\n        /* \"Documents/GitHub/SOLIDITY-REMIX/5ef069451e67668750287d64bc5f8bae/calculadora.sol\":667:762  function  valorAbsoluto(int a) public pure returns (uint){\r... */\n      swap2\n      swap1\n      pop\n      jump\t// out\n        /* \"Documents/GitHub/SOLIDITY-REMIX/5ef069451e67668750287d64bc5f8bae/calculadora.sol\":565:659  function factorial(uint a) public pure returns (uint){\r... */\n    tag_32:\n        /* \"Documents/GitHub/SOLIDITY-REMIX/5ef069451e67668750287d64bc5f8bae/calculadora.sol\":613:617  uint */\n      0x00\n        /* \"Documents/GitHub/SOLIDITY-REMIX/5ef069451e67668750287d64bc5f8bae/calculadora.sol\":636:651  a.factoriales() */\n      tag_51\n        /* \"Documents/GitHub/SOLIDITY-REMIX/5ef069451e67668750287d64bc5f8bae/calculadora.sol\":636:637  a */\n      dup3\n        /* \"Documents/GitHub/SOLIDITY-REMIX/5ef069451e67668750287d64bc5f8bae/calculadora.sol\":636:649  a.factoriales */\n      tag_52\n        /* \"Documents/GitHub/SOLIDITY-REMIX/5ef069451e67668750287d64bc5f8bae/calculadora.sol\":636:651  a.factoriales() */\n      jump\t// in\n    tag_51:\n        /* \"Documents/GitHub/SOLIDITY-REMIX/5ef069451e67668750287d64bc5f8bae/calculadora.sol\":629:651  return a.factoriales() */\n      swap1\n      pop\n        /* \"Documents/GitHub/SOLIDITY-REMIX/5ef069451e67668750287d64bc5f8bae/calculadora.sol\":565:659  function factorial(uint a) public pure returns (uint){\r... */\n      swap2\n      swap1\n      pop\n      jump\t// out\n        /* \"Documents/GitHub/SOLIDITY-REMIX/5ef069451e67668750287d64bc5f8bae/calculadora.sol\":150:243  function suma(int a, int b) public pure returns (int){\r... */\n    tag_36:\n        /* \"Documents/GitHub/SOLIDITY-REMIX/5ef069451e67668750287d64bc5f8bae/calculadora.sol\":199:202  int */\n      0x00\n        /* \"Documents/GitHub/SOLIDITY-REMIX/5ef069451e67668750287d64bc5f8bae/calculadora.sol\":225:235  a.sumar(b) */\n      tag_54\n        /* \"Documents/GitHub/SOLIDITY-REMIX/5ef069451e67668750287d64bc5f8bae/calculadora.sol\":233:234  b */\n      dup3\n        /* \"Documents/GitHub/SOLIDITY-REMIX/5ef069451e67668750287d64bc5f8bae/calculadora.sol\":225:226  a */\n      dup5\n        /* \"Documents/GitHub/SOLIDITY-REMIX/5ef069451e67668750287d64bc5f8bae/calculadora.sol\":225:232  a.sumar */\n      tag_55\n      swap1\n        /* \"Documents/GitHub/SOLIDITY-REMIX/5ef069451e67668750287d64bc5f8bae/calculadora.sol\":225:235  a.sumar(b) */\n      swap2\n      swap1\n      0xffffffff\n      and\n      jump\t// in\n    tag_54:\n        /* \"Documents/GitHub/SOLIDITY-REMIX/5ef069451e67668750287d64bc5f8bae/calculadora.sol\":218:235  return a.sumar(b) */\n      swap1\n      pop\n        /* \"Documents/GitHub/SOLIDITY-REMIX/5ef069451e67668750287d64bc5f8bae/calculadora.sol\":150:243  function suma(int a, int b) public pure returns (int){\r... */\n      swap3\n      swap2\n      pop\n      pop\n      jump\t// out\n        /* \"Documents/GitHub/SOLIDITY-REMIX/5ef069451e67668750287d64bc5f8bae/libmates.sol\":471:565  function dividir(int _a,int _b) internal pure returns(int) {\r... */\n    tag_40:\n        /* \"Documents/GitHub/SOLIDITY-REMIX/5ef069451e67668750287d64bc5f8bae/libmates.sol\":525:528  int */\n      0x00\n        /* \"Documents/GitHub/SOLIDITY-REMIX/5ef069451e67668750287d64bc5f8bae/libmates.sol\":554:556  _b */\n      dup2\n        /* \"Documents/GitHub/SOLIDITY-REMIX/5ef069451e67668750287d64bc5f8bae/libmates.sol\":549:551  _a */\n      dup4\n        /* \"Documents/GitHub/SOLIDITY-REMIX/5ef069451e67668750287d64bc5f8bae/libmates.sol\":549:556  _a / _b */\n      tag_57\n      swap2\n      swap1\n      tag_58\n      jump\t// in\n    tag_57:\n        /* \"Documents/GitHub/SOLIDITY-REMIX/5ef069451e67668750287d64bc5f8bae/libmates.sol\":541:557  return (_a / _b) */\n      swap1\n      pop\n        /* \"Documents/GitHub/SOLIDITY-REMIX/5ef069451e67668750287d64bc5f8bae/libmates.sol\":471:565  function dividir(int _a,int _b) internal pure returns(int) {\r... */\n      swap3\n      swap2\n      pop\n      pop\n      jump\t// out\n        /* \"Documents/GitHub/SOLIDITY-REMIX/5ef069451e67668750287d64bc5f8bae/libmates.sol\":365:463  function multiplicar(int _a,int _b) internal pure returns(int) {\r... */\n    tag_43:\n        /* \"Documents/GitHub/SOLIDITY-REMIX/5ef069451e67668750287d64bc5f8bae/libmates.sol\":423:426  int */\n      0x00\n        /* \"Documents/GitHub/SOLIDITY-REMIX/5ef069451e67668750287d64bc5f8bae/libmates.sol\":452:454  _b */\n      dup2\n        /* \"Documents/GitHub/SOLIDITY-REMIX/5ef069451e67668750287d64bc5f8bae/libmates.sol\":447:449  _a */\n      dup4\n        /* \"Documents/GitHub/SOLIDITY-REMIX/5ef069451e67668750287d64bc5f8bae/libmates.sol\":447:454  _a * _b */\n      tag_60\n      swap2\n      swap1\n      tag_61\n      jump\t// in\n    tag_60:\n        /* \"Documents/GitHub/SOLIDITY-REMIX/5ef069451e67668750287d64bc5f8bae/libmates.sol\":439:455  return (_a * _b) */\n      swap1\n      pop\n        /* \"Documents/GitHub/SOLIDITY-REMIX/5ef069451e67668750287d64bc5f8bae/libmates.sol\":365:463  function multiplicar(int _a,int _b) internal pure returns(int) {\r... */\n      swap3\n      swap2\n      pop\n      pop\n      jump\t// out\n        /* \"Documents/GitHub/SOLIDITY-REMIX/5ef069451e67668750287d64bc5f8bae/libmates.sol\":264:357  function restar(int _a,int _b) internal pure returns(int) {\r... */\n    tag_46:\n        /* \"Documents/GitHub/SOLIDITY-REMIX/5ef069451e67668750287d64bc5f8bae/libmates.sol\":317:320  int */\n      0x00\n        /* \"Documents/GitHub/SOLIDITY-REMIX/5ef069451e67668750287d64bc5f8bae/libmates.sol\":346:348  _b */\n      dup2\n        /* \"Documents/GitHub/SOLIDITY-REMIX/5ef069451e67668750287d64bc5f8bae/libmates.sol\":341:343  _a */\n      dup4\n        /* \"Documents/GitHub/SOLIDITY-REMIX/5ef069451e67668750287d64bc5f8bae/libmates.sol\":341:348  _a - _b */\n      tag_63\n      swap2\n      swap1\n      tag_64\n      jump\t// in\n    tag_63:\n        /* \"Documents/GitHub/SOLIDITY-REMIX/5ef069451e67668750287d64bc5f8bae/libmates.sol\":333:349  return (_a - _b) */\n      swap1\n      pop\n        /* \"Documents/GitHub/SOLIDITY-REMIX/5ef069451e67668750287d64bc5f8bae/libmates.sol\":264:357  function restar(int _a,int _b) internal pure returns(int) {\r... */\n      swap3\n      swap2\n      pop\n      pop\n      jump\t// out\n        /* \"Documents/GitHub/SOLIDITY-REMIX/5ef069451e67668750287d64bc5f8bae/libmates.sol\":775:959  function absoluto(int _a) internal pure returns(uint) {\r... */\n    tag_49:\n        /* \"Documents/GitHub/SOLIDITY-REMIX/5ef069451e67668750287d64bc5f8bae/libmates.sol\":823:827  uint */\n      0x00\n        /* \"Documents/GitHub/SOLIDITY-REMIX/5ef069451e67668750287d64bc5f8bae/libmates.sol\":849:850  0 */\n      dup1\n        /* \"Documents/GitHub/SOLIDITY-REMIX/5ef069451e67668750287d64bc5f8bae/libmates.sol\":844:846  _a */\n      dup3\n        /* \"Documents/GitHub/SOLIDITY-REMIX/5ef069451e67668750287d64bc5f8bae/libmates.sol\":844:850  _a > 0 */\n      sgt\n        /* \"Documents/GitHub/SOLIDITY-REMIX/5ef069451e67668750287d64bc5f8bae/libmates.sol\":840:952  if (_a > 0){\r... */\n      iszero\n      tag_66\n      jumpi\n        /* \"Documents/GitHub/SOLIDITY-REMIX/5ef069451e67668750287d64bc5f8bae/libmates.sol\":878:880  _a */\n      dup2\n        /* \"Documents/GitHub/SOLIDITY-REMIX/5ef069451e67668750287d64bc5f8bae/libmates.sol\":866:882  return(uint(_a)) */\n      swap1\n      pop\n      jump(tag_65)\n        /* \"Documents/GitHub/SOLIDITY-REMIX/5ef069451e67668750287d64bc5f8bae/libmates.sol\":840:952  if (_a > 0){\r... */\n    tag_66:\n        /* \"Documents/GitHub/SOLIDITY-REMIX/5ef069451e67668750287d64bc5f8bae/libmates.sol\":936:938  _a */\n      dup2\n        /* \"Documents/GitHub/SOLIDITY-REMIX/5ef069451e67668750287d64bc5f8bae/libmates.sol\":935:938  -_a */\n      tag_68\n      swap1\n      tag_69\n      jump\t// in\n    tag_68:\n        /* \"Documents/GitHub/SOLIDITY-REMIX/5ef069451e67668750287d64bc5f8bae/libmates.sol\":923:940  return(uint(-_a)) */\n      swap1\n      pop\n        /* \"Documents/GitHub/SOLIDITY-REMIX/5ef069451e67668750287d64bc5f8bae/libmates.sol\":775:959  function absoluto(int _a) internal pure returns(uint) {\r... */\n    tag_65:\n      swap2\n      swap1\n      pop\n      jump\t// out\n        /* \"Documents/GitHub/SOLIDITY-REMIX/5ef069451e67668750287d64bc5f8bae/libmates.sol\":573:767  function factoriales(uint _a) internal pure returns(uint){\r... */\n    tag_52:\n        /* \"Documents/GitHub/SOLIDITY-REMIX/5ef069451e67668750287d64bc5f8bae/libmates.sol\":625:629  uint */\n      0x00\n        /* \"Documents/GitHub/SOLIDITY-REMIX/5ef069451e67668750287d64bc5f8bae/libmates.sol\":651:652  1 */\n      0x01\n        /* \"Documents/GitHub/SOLIDITY-REMIX/5ef069451e67668750287d64bc5f8bae/libmates.sol\":645:647  _a */\n      dup3\n        /* \"Documents/GitHub/SOLIDITY-REMIX/5ef069451e67668750287d64bc5f8bae/libmates.sol\":645:652  _a <= 1 */\n      gt\n        /* \"Documents/GitHub/SOLIDITY-REMIX/5ef069451e67668750287d64bc5f8bae/libmates.sol\":641:760  if (_a <= 1){\r... */\n      tag_71\n      jumpi\n        /* \"Documents/GitHub/SOLIDITY-REMIX/5ef069451e67668750287d64bc5f8bae/libmates.sol\":675:676  1 */\n      0x01\n        /* \"Documents/GitHub/SOLIDITY-REMIX/5ef069451e67668750287d64bc5f8bae/libmates.sol\":668:676  return 1 */\n      swap1\n      pop\n      jump(tag_70)\n        /* \"Documents/GitHub/SOLIDITY-REMIX/5ef069451e67668750287d64bc5f8bae/libmates.sol\":641:760  if (_a <= 1){\r... */\n    tag_71:\n        /* \"Documents/GitHub/SOLIDITY-REMIX/5ef069451e67668750287d64bc5f8bae/libmates.sol\":730:747  factoriales(_a-1) */\n      tag_73\n        /* \"Documents/GitHub/SOLIDITY-REMIX/5ef069451e67668750287d64bc5f8bae/libmates.sol\":745:746  1 */\n      0x01\n        /* \"Documents/GitHub/SOLIDITY-REMIX/5ef069451e67668750287d64bc5f8bae/libmates.sol\":742:744  _a */\n      dup4\n        /* \"Documents/GitHub/SOLIDITY-REMIX/5ef069451e67668750287d64bc5f8bae/libmates.sol\":742:746  _a-1 */\n      tag_74\n      swap2\n      swap1\n      tag_75\n      jump\t// in\n    tag_74:\n        /* \"Documents/GitHub/SOLIDITY-REMIX/5ef069451e67668750287d64bc5f8bae/libmates.sol\":730:741  factoriales */\n      tag_52\n        /* \"Documents/GitHub/SOLIDITY-REMIX/5ef069451e67668750287d64bc5f8bae/libmates.sol\":730:747  factoriales(_a-1) */\n      jump\t// in\n    tag_73:\n        /* \"Documents/GitHub/SOLIDITY-REMIX/5ef069451e67668750287d64bc5f8bae/libmates.sol\":725:727  _a */\n      dup3\n        /* \"Documents/GitHub/SOLIDITY-REMIX/5ef069451e67668750287d64bc5f8bae/libmates.sol\":725:747  _a * factoriales(_a-1) */\n      tag_76\n      swap2\n      swap1\n      tag_77\n      jump\t// in\n    tag_76:\n        /* \"Documents/GitHub/SOLIDITY-REMIX/5ef069451e67668750287d64bc5f8bae/libmates.sol\":717:748  return (_a * factoriales(_a-1)) */\n      swap1\n      pop\n        /* \"Documents/GitHub/SOLIDITY-REMIX/5ef069451e67668750287d64bc5f8bae/libmates.sol\":573:767  function factoriales(uint _a) internal pure returns(uint){\r... */\n    tag_70:\n      swap2\n      swap1\n      pop\n      jump\t// out\n        /* \"Documents/GitHub/SOLIDITY-REMIX/5ef069451e67668750287d64bc5f8bae/libmates.sol\":164:256  function sumar(int _a,int _b) internal pure returns(int) {\r... */\n    tag_55:\n        /* \"Documents/GitHub/SOLIDITY-REMIX/5ef069451e67668750287d64bc5f8bae/libmates.sol\":216:219  int */\n      0x00\n        /* \"Documents/GitHub/SOLIDITY-REMIX/5ef069451e67668750287d64bc5f8bae/libmates.sol\":245:247  _b */\n      dup2\n        /* \"Documents/GitHub/SOLIDITY-REMIX/5ef069451e67668750287d64bc5f8bae/libmates.sol\":240:242  _a */\n      dup4\n        /* \"Documents/GitHub/SOLIDITY-REMIX/5ef069451e67668750287d64bc5f8bae/libmates.sol\":240:247  _a + _b */\n      tag_79\n      swap2\n      swap1\n      tag_80\n      jump\t// in\n    tag_79:\n        /* \"Documents/GitHub/SOLIDITY-REMIX/5ef069451e67668750287d64bc5f8bae/libmates.sol\":232:248  return (_a + _b) */\n      swap1\n      pop\n        /* \"Documents/GitHub/SOLIDITY-REMIX/5ef069451e67668750287d64bc5f8bae/libmates.sol\":164:256  function sumar(int _a,int _b) internal pure returns(int) {\r... */\n      swap3\n      swap2\n      pop\n      pop\n      jump\t// out\n        /* \"#utility.yul\":7:144   */\n    tag_82:\n        /* \"#utility.yul\":52:57   */\n      0x00\n        /* \"#utility.yul\":90:96   */\n      dup2\n        /* \"#utility.yul\":77:97   */\n      calldataload\n        /* \"#utility.yul\":68:97   */\n      swap1\n      pop\n        /* \"#utility.yul\":106:138   */\n      tag_84\n        /* \"#utility.yul\":132:137   */\n      dup2\n        /* \"#utility.yul\":106:138   */\n      tag_85\n      jump\t// in\n    tag_84:\n        /* \"#utility.yul\":7:144   */\n      swap3\n      swap2\n      pop\n      pop\n      jump\t// out\n        /* \"#utility.yul\":150:289   */\n    tag_86:\n        /* \"#utility.yul\":196:201   */\n      0x00\n        /* \"#utility.yul\":234:240   */\n      dup2\n        /* \"#utility.yul\":221:241   */\n      calldataload\n        /* \"#utility.yul\":212:241   */\n      swap1\n      pop\n        /* \"#utility.yul\":250:283   */\n      tag_88\n        /* \"#utility.yul\":277:282   */\n      dup2\n        /* \"#utility.yul\":250:283   */\n      tag_89\n      jump\t// in\n    tag_88:\n        /* \"#utility.yul\":150:289   */\n      swap3\n      swap2\n      pop\n      pop\n      jump\t// out\n        /* \"#utility.yul\":295:622   */\n    tag_25:\n        /* \"#utility.yul\":353:359   */\n      0x00\n        /* \"#utility.yul\":402:404   */\n      0x20\n        /* \"#utility.yul\":390:399   */\n      dup3\n        /* \"#utility.yul\":381:388   */\n      dup5\n        /* \"#utility.yul\":377:400   */\n      sub\n        /* \"#utility.yul\":373:405   */\n      slt\n        /* \"#utility.yul\":370:489   */\n      iszero\n      tag_91\n      jumpi\n        /* \"#utility.yul\":408:487   */\n      tag_92\n      tag_93\n      jump\t// in\n    tag_92:\n        /* \"#utility.yul\":370:489   */\n    tag_91:\n        /* \"#utility.yul\":528:529   */\n      0x00\n        /* \"#utility.yul\":553:605   */\n      tag_94\n        /* \"#utility.yul\":597:604   */\n      dup5\n        /* \"#utility.yul\":588:594   */\n      dup3\n        /* \"#utility.yul\":577:586   */\n      dup6\n        /* \"#utility.yul\":573:595   */\n      add\n        /* \"#utility.yul\":553:605   */\n      tag_82\n      jump\t// in\n    tag_94:\n        /* \"#utility.yul\":543:605   */\n      swap2\n      pop\n        /* \"#utility.yul\":499:615   */\n      pop\n        /* \"#utility.yul\":295:622   */\n      swap3\n      swap2\n      pop\n      pop\n      jump\t// out\n        /* \"#utility.yul\":628:1098   */\n    tag_11:\n        /* \"#utility.yul\":694:700   */\n      0x00\n        /* \"#utility.yul\":702:708   */\n      dup1\n        /* \"#utility.yul\":751:753   */\n      0x40\n        /* \"#utility.yul\":739:748   */\n      dup4\n        /* \"#utility.yul\":730:737   */\n      dup6\n        /* \"#utility.yul\":726:749   */\n      sub\n        /* \"#utility.yul\":722:754   */\n      slt\n        /* \"#utility.yul\":719:838   */\n      iszero\n      tag_96\n      jumpi\n        /* \"#utility.yul\":757:836   */\n      tag_97\n      tag_93\n      jump\t// in\n    tag_97:\n        /* \"#utility.yul\":719:838   */\n    tag_96:\n        /* \"#utility.yul\":877:878   */\n      0x00\n        /* \"#utility.yul\":902:954   */\n      tag_98\n        /* \"#utility.yul\":946:953   */\n      dup6\n        /* \"#utility.yul\":937:943   */\n      dup3\n        /* \"#utility.yul\":926:935   */\n      dup7\n        /* \"#utility.yul\":922:944   */\n      add\n        /* \"#utility.yul\":902:954   */\n      tag_82\n      jump\t// in\n    tag_98:\n        /* \"#utility.yul\":892:954   */\n      swap3\n      pop\n        /* \"#utility.yul\":848:964   */\n      pop\n        /* \"#utility.yul\":1003:1005   */\n      0x20\n        /* \"#utility.yul\":1029:1081   */\n      tag_99\n        /* \"#utility.yul\":1073:1080   */\n      dup6\n        /* \"#utility.yul\":1064:1070   */\n      dup3\n        /* \"#utility.yul\":1053:1062   */\n      dup7\n        /* \"#utility.yul\":1049:1071   */\n      add\n        /* \"#utility.yul\":1029:1081   */\n      tag_82\n      jump\t// in\n    tag_99:\n        /* \"#utility.yul\":1019:1081   */\n      swap2\n      pop\n        /* \"#utility.yul\":974:1091   */\n      pop\n        /* \"#utility.yul\":628:1098   */\n      swap3\n      pop\n      swap3\n      swap1\n      pop\n      jump\t// out\n        /* \"#utility.yul\":1104:1433   */\n    tag_31:\n        /* \"#utility.yul\":1163:1169   */\n      0x00\n        /* \"#utility.yul\":1212:1214   */\n      0x20\n        /* \"#utility.yul\":1200:1209   */\n      dup3\n        /* \"#utility.yul\":1191:1198   */\n      dup5\n        /* \"#utility.yul\":1187:1210   */\n      sub\n        /* \"#utility.yul\":1183:1215   */\n      slt\n        /* \"#utility.yul\":1180:1299   */\n      iszero\n      tag_101\n      jumpi\n        /* \"#utility.yul\":1218:1297   */\n      tag_102\n      tag_93\n      jump\t// in\n    tag_102:\n        /* \"#utility.yul\":1180:1299   */\n    tag_101:\n        /* \"#utility.yul\":1338:1339   */\n      0x00\n        /* \"#utility.yul\":1363:1416   */\n      tag_103\n        /* \"#utility.yul\":1408:1415   */\n      dup5\n        /* \"#utility.yul\":1399:1405   */\n      dup3\n        /* \"#utility.yul\":1388:1397   */\n      dup6\n        /* \"#utility.yul\":1384:1406   */\n      add\n        /* \"#utility.yul\":1363:1416   */\n      tag_86\n      jump\t// in\n    tag_103:\n        /* \"#utility.yul\":1353:1416   */\n      swap2\n      pop\n        /* \"#utility.yul\":1309:1426   */\n      pop\n        /* \"#utility.yul\":1104:1433   */\n      swap3\n      swap2\n      pop\n      pop\n      jump\t// out\n        /* \"#utility.yul\":1439:1554   */\n    tag_104:\n        /* \"#utility.yul\":1524:1547   */\n      tag_106\n        /* \"#utility.yul\":1541:1546   */\n      dup2\n        /* \"#utility.yul\":1524:1547   */\n      tag_107\n      jump\t// in\n    tag_106:\n        /* \"#utility.yul\":1519:1522   */\n      dup3\n        /* \"#utility.yul\":1512:1548   */\n      mstore\n        /* \"#utility.yul\":1439:1554   */\n      pop\n      pop\n      jump\t// out\n        /* \"#utility.yul\":1560:1678   */\n    tag_108:\n        /* \"#utility.yul\":1647:1671   */\n      tag_110\n        /* \"#utility.yul\":1665:1670   */\n      dup2\n        /* \"#utility.yul\":1647:1671   */\n      tag_111\n      jump\t// in\n    tag_110:\n        /* \"#utility.yul\":1642:1645   */\n      dup3\n        /* \"#utility.yul\":1635:1672   */\n      mstore\n        /* \"#utility.yul\":1560:1678   */\n      pop\n      pop\n      jump\t// out\n        /* \"#utility.yul\":1684:1902   */\n    tag_14:\n        /* \"#utility.yul\":1775:1779   */\n      0x00\n        /* \"#utility.yul\":1813:1815   */\n      0x20\n        /* \"#utility.yul\":1802:1811   */\n      dup3\n        /* \"#utility.yul\":1798:1816   */\n      add\n        /* \"#utility.yul\":1790:1816   */\n      swap1\n      pop\n        /* \"#utility.yul\":1826:1895   */\n      tag_113\n        /* \"#utility.yul\":1892:1893   */\n      0x00\n        /* \"#utility.yul\":1881:1890   */\n      dup4\n        /* \"#utility.yul\":1877:1894   */\n      add\n        /* \"#utility.yul\":1868:1874   */\n      dup5\n        /* \"#utility.yul\":1826:1895   */\n      tag_104\n      jump\t// in\n    tag_113:\n        /* \"#utility.yul\":1684:1902   */\n      swap3\n      swap2\n      pop\n      pop\n      jump\t// out\n        /* \"#utility.yul\":1908:2130   */\n    tag_28:\n        /* \"#utility.yul\":2001:2005   */\n      0x00\n        /* \"#utility.yul\":2039:2041   */\n      0x20\n        /* \"#utility.yul\":2028:2037   */\n      dup3\n        /* \"#utility.yul\":2024:2042   */\n      add\n        /* \"#utility.yul\":2016:2042   */\n      swap1\n      pop\n        /* \"#utility.yul\":2052:2123   */\n      tag_115\n        /* \"#utility.yul\":2120:2121   */\n      0x00\n        /* \"#utility.yul\":2109:2118   */\n      dup4\n        /* \"#utility.yul\":2105:2122   */\n      add\n        /* \"#utility.yul\":2096:2102   */\n      dup5\n        /* \"#utility.yul\":2052:2123   */\n      tag_108\n      jump\t// in\n    tag_115:\n        /* \"#utility.yul\":1908:2130   */\n      swap3\n      swap2\n      pop\n      pop\n      jump\t// out\n        /* \"#utility.yul\":2217:2742   */\n    tag_80:\n        /* \"#utility.yul\":2256:2259   */\n      0x00\n        /* \"#utility.yul\":2275:2294   */\n      tag_119\n        /* \"#utility.yul\":2292:2293   */\n      dup3\n        /* \"#utility.yul\":2275:2294   */\n      tag_107\n      jump\t// in\n    tag_119:\n        /* \"#utility.yul\":2270:2294   */\n      swap2\n      pop\n        /* \"#utility.yul\":2308:2327   */\n      tag_120\n        /* \"#utility.yul\":2325:2326   */\n      dup4\n        /* \"#utility.yul\":2308:2327   */\n      tag_107\n      jump\t// in\n    tag_120:\n        /* \"#utility.yul\":2303:2327   */\n      swap3\n      pop\n        /* \"#utility.yul\":2496:2497   */\n      dup2\n        /* \"#utility.yul\":2428:2494   */\n      0x7fffffffffffffffffffffffffffffffffffffffffffffffffffffffffffffff\n        /* \"#utility.yul\":2424:2498   */\n      sub\n        /* \"#utility.yul\":2421:2422   */\n      dup4\n        /* \"#utility.yul\":2417:2499   */\n      sgt\n        /* \"#utility.yul\":2412:2413   */\n      0x00\n        /* \"#utility.yul\":2409:2410   */\n      dup4\n        /* \"#utility.yul\":2405:2414   */\n      slt\n        /* \"#utility.yul\":2398:2415   */\n      iszero\n        /* \"#utility.yul\":2394:2500   */\n      and\n        /* \"#utility.yul\":2391:2523   */\n      iszero\n      tag_121\n      jumpi\n        /* \"#utility.yul\":2503:2521   */\n      tag_122\n      tag_123\n      jump\t// in\n    tag_122:\n        /* \"#utility.yul\":2391:2523   */\n    tag_121:\n        /* \"#utility.yul\":2683:2684   */\n      dup2\n        /* \"#utility.yul\":2615:2681   */\n      0x8000000000000000000000000000000000000000000000000000000000000000\n        /* \"#utility.yul\":2611:2685   */\n      sub\n        /* \"#utility.yul\":2608:2609   */\n      dup4\n        /* \"#utility.yul\":2604:2686   */\n      slt\n        /* \"#utility.yul\":2600:2601   */\n      0x00\n        /* \"#utility.yul\":2597:2598   */\n      dup4\n        /* \"#utility.yul\":2593:2602   */\n      slt\n        /* \"#utility.yul\":2589:2687   */\n      and\n        /* \"#utility.yul\":2586:2710   */\n      iszero\n      tag_124\n      jumpi\n        /* \"#utility.yul\":2690:2708   */\n      tag_125\n      tag_123\n      jump\t// in\n    tag_125:\n        /* \"#utility.yul\":2586:2710   */\n    tag_124:\n        /* \"#utility.yul\":2734:2735   */\n      dup3\n        /* \"#utility.yul\":2731:2732   */\n      dup3\n        /* \"#utility.yul\":2727:2736   */\n      add\n        /* \"#utility.yul\":2720:2736   */\n      swap1\n      pop\n        /* \"#utility.yul\":2217:2742   */\n      swap3\n      swap2\n      pop\n      pop\n      jump\t// out\n        /* \"#utility.yul\":2748:3133   */\n    tag_58:\n        /* \"#utility.yul\":2787:2788   */\n      0x00\n        /* \"#utility.yul\":2804:2823   */\n      tag_127\n        /* \"#utility.yul\":2821:2822   */\n      dup3\n        /* \"#utility.yul\":2804:2823   */\n      tag_107\n      jump\t// in\n    tag_127:\n        /* \"#utility.yul\":2799:2823   */\n      swap2\n      pop\n        /* \"#utility.yul\":2837:2856   */\n      tag_128\n        /* \"#utility.yul\":2854:2855   */\n      dup4\n        /* \"#utility.yul\":2837:2856   */\n      tag_107\n      jump\t// in\n    tag_128:\n        /* \"#utility.yul\":2832:2856   */\n      swap3\n      pop\n        /* \"#utility.yul\":2875:2876   */\n      dup3\n        /* \"#utility.yul\":2865:2900   */\n      tag_129\n      jumpi\n        /* \"#utility.yul\":2880:2898   */\n      tag_130\n      tag_131\n      jump\t// in\n    tag_130:\n        /* \"#utility.yul\":2865:2900   */\n    tag_129:\n        /* \"#utility.yul\":3066:3067   */\n      0x01\n        /* \"#utility.yul\":3063:3064   */\n      0x00\n        /* \"#utility.yul\":3059:3068   */\n      sub\n        /* \"#utility.yul\":3056:3057   */\n      dup4\n        /* \"#utility.yul\":3053:3069   */\n      eq\n        /* \"#utility.yul\":2972:3038   */\n      0x8000000000000000000000000000000000000000000000000000000000000000\n        /* \"#utility.yul\":2969:2970   */\n      dup4\n        /* \"#utility.yul\":2966:3039   */\n      eq\n        /* \"#utility.yul\":2949:3079   */\n      and\n        /* \"#utility.yul\":2946:3102   */\n      iszero\n      tag_132\n      jumpi\n        /* \"#utility.yul\":3082:3100   */\n      tag_133\n      tag_123\n      jump\t// in\n    tag_133:\n        /* \"#utility.yul\":2946:3102   */\n    tag_132:\n        /* \"#utility.yul\":3125:3126   */\n      dup3\n        /* \"#utility.yul\":3122:3123   */\n      dup3\n        /* \"#utility.yul\":3117:3127   */\n      sdiv\n        /* \"#utility.yul\":3112:3127   */\n      swap1\n      pop\n        /* \"#utility.yul\":2748:3133   */\n      swap3\n      swap2\n      pop\n      pop\n      jump\t// out\n        /* \"#utility.yul\":3139:4130   */\n    tag_61:\n        /* \"#utility.yul\":3178:3185   */\n      0x00\n        /* \"#utility.yul\":3201:3220   */\n      tag_135\n        /* \"#utility.yul\":3218:3219   */\n      dup3\n        /* \"#utility.yul\":3201:3220   */\n      tag_107\n      jump\t// in\n    tag_135:\n        /* \"#utility.yul\":3196:3220   */\n      swap2\n      pop\n        /* \"#utility.yul\":3234:3253   */\n      tag_136\n        /* \"#utility.yul\":3251:3252   */\n      dup4\n        /* \"#utility.yul\":3234:3253   */\n      tag_107\n      jump\t// in\n    tag_136:\n        /* \"#utility.yul\":3229:3253   */\n      swap3\n      pop\n        /* \"#utility.yul\":3435:3436   */\n      dup3\n        /* \"#utility.yul\":3367:3433   */\n      0x7fffffffffffffffffffffffffffffffffffffffffffffffffffffffffffffff\n        /* \"#utility.yul\":3363:3437   */\n      div\n        /* \"#utility.yul\":3360:3361   */\n      dup3\n        /* \"#utility.yul\":3357:3438   */\n      gt\n        /* \"#utility.yul\":3352:3353   */\n      0x00\n        /* \"#utility.yul\":3349:3350   */\n      dup5\n        /* \"#utility.yul\":3345:3354   */\n      sgt\n        /* \"#utility.yul\":3341:3342   */\n      0x00\n        /* \"#utility.yul\":3338:3339   */\n      dup5\n        /* \"#utility.yul\":3334:3343   */\n      sgt\n        /* \"#utility.yul\":3330:3355   */\n      and\n        /* \"#utility.yul\":3326:3439   */\n      and\n        /* \"#utility.yul\":3323:3462   */\n      iszero\n      tag_137\n      jumpi\n        /* \"#utility.yul\":3442:3460   */\n      tag_138\n      tag_123\n      jump\t// in\n    tag_138:\n        /* \"#utility.yul\":3323:3462   */\n    tag_137:\n        /* \"#utility.yul\":3646:3647   */\n      dup2\n        /* \"#utility.yul\":3578:3644   */\n      0x8000000000000000000000000000000000000000000000000000000000000000\n        /* \"#utility.yul\":3573:3648   */\n      sdiv\n        /* \"#utility.yul\":3570:3571   */\n      dup4\n        /* \"#utility.yul\":3566:3649   */\n      slt\n        /* \"#utility.yul\":3561:3562   */\n      0x00\n        /* \"#utility.yul\":3558:3559   */\n      dup5\n        /* \"#utility.yul\":3554:3563   */\n      slt\n        /* \"#utility.yul\":3550:3551   */\n      0x00\n        /* \"#utility.yul\":3547:3548   */\n      dup5\n        /* \"#utility.yul\":3543:3552   */\n      sgt\n        /* \"#utility.yul\":3539:3564   */\n      and\n        /* \"#utility.yul\":3535:3650   */\n      and\n        /* \"#utility.yul\":3532:3673   */\n      iszero\n      tag_139\n      jumpi\n        /* \"#utility.yul\":3653:3671   */\n      tag_140\n      tag_123\n      jump\t// in\n    tag_140:\n        /* \"#utility.yul\":3532:3673   */\n    tag_139:\n        /* \"#utility.yul\":3857:3858   */\n      dup3\n        /* \"#utility.yul\":3789:3855   */\n      0x8000000000000000000000000000000000000000000000000000000000000000\n        /* \"#utility.yul\":3784:3859   */\n      sdiv\n        /* \"#utility.yul\":3781:3782   */\n      dup3\n        /* \"#utility.yul\":3777:3860   */\n      slt\n        /* \"#utility.yul\":3772:3773   */\n      0x00\n        /* \"#utility.yul\":3769:3770   */\n      dup5\n        /* \"#utility.yul\":3765:3774   */\n      sgt\n        /* \"#utility.yul\":3761:3762   */\n      0x00\n        /* \"#utility.yul\":3758:3759   */\n      dup5\n        /* \"#utility.yul\":3754:3763   */\n      slt\n        /* \"#utility.yul\":3750:3775   */\n      and\n        /* \"#utility.yul\":3746:3861   */\n      and\n        /* \"#utility.yul\":3743:3884   */\n      iszero\n      tag_141\n      jumpi\n        /* \"#utility.yul\":3864:3882   */\n      tag_142\n      tag_123\n      jump\t// in\n    tag_142:\n        /* \"#utility.yul\":3743:3884   */\n    tag_141:\n        /* \"#utility.yul\":4067:4068   */\n      dup3\n        /* \"#utility.yul\":3999:4065   */\n      0x7fffffffffffffffffffffffffffffffffffffffffffffffffffffffffffffff\n        /* \"#utility.yul\":3994:4069   */\n      sdiv\n        /* \"#utility.yul\":3991:3992   */\n      dup3\n        /* \"#utility.yul\":3987:4070   */\n      slt\n        /* \"#utility.yul\":3982:3983   */\n      0x00\n        /* \"#utility.yul\":3979:3980   */\n      dup5\n        /* \"#utility.yul\":3975:3984   */\n      slt\n        /* \"#utility.yul\":3971:3972   */\n      0x00\n        /* \"#utility.yul\":3968:3969   */\n      dup5\n        /* \"#utility.yul\":3964:3973   */\n      slt\n        /* \"#utility.yul\":3960:3985   */\n      and\n        /* \"#utility.yul\":3956:4071   */\n      and\n        /* \"#utility.yul\":3953:4094   */\n      iszero\n      tag_143\n      jumpi\n        /* \"#utility.yul\":4074:4092   */\n      tag_144\n      tag_123\n      jump\t// in\n    tag_144:\n        /* \"#utility.yul\":3953:4094   */\n    tag_143:\n        /* \"#utility.yul\":4122:4123   */\n      dup3\n        /* \"#utility.yul\":4119:4120   */\n      dup3\n        /* \"#utility.yul\":4115:4124   */\n      mul\n        /* \"#utility.yul\":4104:4124   */\n      swap1\n      pop\n        /* \"#utility.yul\":3139:4130   */\n      swap3\n      swap2\n      pop\n      pop\n      jump\t// out\n        /* \"#utility.yul\":4136:4484   */\n    tag_77:\n        /* \"#utility.yul\":4176:4183   */\n      0x00\n        /* \"#utility.yul\":4199:4219   */\n      tag_146\n        /* \"#utility.yul\":4217:4218   */\n      dup3\n        /* \"#utility.yul\":4199:4219   */\n      tag_111\n      jump\t// in\n    tag_146:\n        /* \"#utility.yul\":4194:4219   */\n      swap2\n      pop\n        /* \"#utility.yul\":4233:4253   */\n      tag_147\n        /* \"#utility.yul\":4251:4252   */\n      dup4\n        /* \"#utility.yul\":4233:4253   */\n      tag_111\n      jump\t// in\n    tag_147:\n        /* \"#utility.yul\":4228:4253   */\n      swap3\n      pop\n        /* \"#utility.yul\":4421:4422   */\n      dup2\n        /* \"#utility.yul\":4353:4419   */\n      0xffffffffffffffffffffffffffffffffffffffffffffffffffffffffffffffff\n        /* \"#utility.yul\":4349:4423   */\n      div\n        /* \"#utility.yul\":4346:4347   */\n      dup4\n        /* \"#utility.yul\":4343:4424   */\n      gt\n        /* \"#utility.yul\":4338:4339   */\n      dup3\n        /* \"#utility.yul\":4331:4340   */\n      iszero\n        /* \"#utility.yul\":4324:4341   */\n      iszero\n        /* \"#utility.yul\":4320:4425   */\n      and\n        /* \"#utility.yul\":4317:4448   */\n      iszero\n      tag_148\n      jumpi\n        /* \"#utility.yul\":4428:4446   */\n      tag_149\n      tag_123\n      jump\t// in\n    tag_149:\n        /* \"#utility.yul\":4317:4448   */\n    tag_148:\n        /* \"#utility.yul\":4476:4477   */\n      dup3\n        /* \"#utility.yul\":4473:4474   */\n      dup3\n        /* \"#utility.yul\":4469:4478   */\n      mul\n        /* \"#utility.yul\":4458:4478   */\n      swap1\n      pop\n        /* \"#utility.yul\":4136:4484   */\n      swap3\n      swap2\n      pop\n      pop\n      jump\t// out\n        /* \"#utility.yul\":4490:5017   */\n    tag_64:\n        /* \"#utility.yul\":4529:4533   */\n      0x00\n        /* \"#utility.yul\":4549:4568   */\n      tag_151\n        /* \"#utility.yul\":4566:4567   */\n      dup3\n        /* \"#utility.yul\":4549:4568   */\n      tag_107\n      jump\t// in\n    tag_151:\n        /* \"#utility.yul\":4544:4568   */\n      swap2\n      pop\n        /* \"#utility.yul\":4582:4601   */\n      tag_152\n        /* \"#utility.yul\":4599:4600   */\n      dup4\n        /* \"#utility.yul\":4582:4601   */\n      tag_107\n      jump\t// in\n    tag_152:\n        /* \"#utility.yul\":4577:4601   */\n      swap3\n      pop\n        /* \"#utility.yul\":4771:4772   */\n      dup3\n        /* \"#utility.yul\":4703:4769   */\n      0x8000000000000000000000000000000000000000000000000000000000000000\n        /* \"#utility.yul\":4699:4773   */\n      add\n        /* \"#utility.yul\":4696:4697   */\n      dup3\n        /* \"#utility.yul\":4692:4774   */\n      slt\n        /* \"#utility.yul\":4687:4688   */\n      0x00\n        /* \"#utility.yul\":4684:4685   */\n      dup5\n        /* \"#utility.yul\":4680:4689   */\n      slt\n        /* \"#utility.yul\":4673:4690   */\n      iszero\n        /* \"#utility.yul\":4669:4775   */\n      and\n        /* \"#utility.yul\":4666:4798   */\n      iszero\n      tag_153\n      jumpi\n        /* \"#utility.yul\":4778:4796   */\n      tag_154\n      tag_123\n      jump\t// in\n    tag_154:\n        /* \"#utility.yul\":4666:4798   */\n    tag_153:\n        /* \"#utility.yul\":4957:4958   */\n      dup3\n        /* \"#utility.yul\":4889:4955   */\n      0x7fffffffffffffffffffffffffffffffffffffffffffffffffffffffffffffff\n        /* \"#utility.yul\":4885:4959   */\n      add\n        /* \"#utility.yul\":4882:4883   */\n      dup3\n        /* \"#utility.yul\":4878:4960   */\n      sgt\n        /* \"#utility.yul\":4874:4875   */\n      0x00\n        /* \"#utility.yul\":4871:4872   */\n      dup5\n        /* \"#utility.yul\":4867:4876   */\n      slt\n        /* \"#utility.yul\":4863:4961   */\n      and\n        /* \"#utility.yul\":4860:4984   */\n      iszero\n      tag_155\n      jumpi\n        /* \"#utility.yul\":4964:4982   */\n      tag_156\n      tag_123\n      jump\t// in\n    tag_156:\n        /* \"#utility.yul\":4860:4984   */\n    tag_155:\n        /* \"#utility.yul\":5009:5010   */\n      dup3\n        /* \"#utility.yul\":5006:5007   */\n      dup3\n        /* \"#utility.yul\":5002:5011   */\n      sub\n        /* \"#utility.yul\":4994:5011   */\n      swap1\n      pop\n        /* \"#utility.yul\":4490:5017   */\n      swap3\n      swap2\n      pop\n      pop\n      jump\t// out\n        /* \"#utility.yul\":5023:5214   */\n    tag_75:\n        /* \"#utility.yul\":5063:5067   */\n      0x00\n        /* \"#utility.yul\":5083:5103   */\n      tag_158\n        /* \"#utility.yul\":5101:5102   */\n      dup3\n        /* \"#utility.yul\":5083:5103   */\n      tag_111\n      jump\t// in\n    tag_158:\n        /* \"#utility.yul\":5078:5103   */\n      swap2\n      pop\n        /* \"#utility.yul\":5117:5137   */\n      tag_159\n        /* \"#utility.yul\":5135:5136   */\n      dup4\n        /* \"#utility.yul\":5117:5137   */\n      tag_111\n      jump\t// in\n    tag_159:\n        /* \"#utility.yul\":5112:5137   */\n      swap3\n      pop\n        /* \"#utility.yul\":5156:5157   */\n      dup3\n        /* \"#utility.yul\":5153:5154   */\n      dup3\n        /* \"#utility.yul\":5150:5158   */\n      lt\n        /* \"#utility.yul\":5147:5181   */\n      iszero\n      tag_160\n      jumpi\n        /* \"#utility.yul\":5161:5179   */\n      tag_161\n      tag_123\n      jump\t// in\n    tag_161:\n        /* \"#utility.yul\":5147:5181   */\n    tag_160:\n        /* \"#utility.yul\":5206:5207   */\n      dup3\n        /* \"#utility.yul\":5203:5204   */\n      dup3\n        /* \"#utility.yul\":5199:5208   */\n      sub\n        /* \"#utility.yul\":5191:5208   */\n      swap1\n      pop\n        /* \"#utility.yul\":5023:5214   */\n      swap3\n      swap2\n      pop\n      pop\n      jump\t// out\n        /* \"#utility.yul\":5220:5296   */\n    tag_107:\n        /* \"#utility.yul\":5256:5263   */\n      0x00\n        /* \"#utility.yul\":5285:5290   */\n      dup2\n        /* \"#utility.yul\":5274:5290   */\n      swap1\n      pop\n        /* \"#utility.yul\":5220:5296   */\n      swap2\n      swap1\n      pop\n      jump\t// out\n        /* \"#utility.yul\":5302:5379   */\n    tag_111:\n        /* \"#utility.yul\":5339:5346   */\n      0x00\n        /* \"#utility.yul\":5368:5373   */\n      dup2\n        /* \"#utility.yul\":5357:5373   */\n      swap1\n      pop\n        /* \"#utility.yul\":5302:5379   */\n      swap2\n      swap1\n      pop\n      jump\t// out\n        /* \"#utility.yul\":5385:5613   */\n    tag_69:\n        /* \"#utility.yul\":5420:5423   */\n      0x00\n        /* \"#utility.yul\":5443:5466   */\n      tag_165\n        /* \"#utility.yul\":5460:5465   */\n      dup3\n        /* \"#utility.yul\":5443:5466   */\n      tag_107\n      jump\t// in\n    tag_165:\n        /* \"#utility.yul\":5434:5466   */\n      swap2\n      pop\n        /* \"#utility.yul\":5488:5554   */\n      0x8000000000000000000000000000000000000000000000000000000000000000\n        /* \"#utility.yul\":5481:5486   */\n      dup3\n        /* \"#utility.yul\":5478:5555   */\n      eq\n        /* \"#utility.yul\":5475:5578   */\n      iszero\n      tag_166\n      jumpi\n        /* \"#utility.yul\":5558:5576   */\n      tag_167\n      tag_123\n      jump\t// in\n    tag_167:\n        /* \"#utility.yul\":5475:5578   */\n    tag_166:\n        /* \"#utility.yul\":5601:5606   */\n      dup2\n        /* \"#utility.yul\":5598:5599   */\n      0x00\n        /* \"#utility.yul\":5594:5607   */\n      sub\n        /* \"#utility.yul\":5587:5607   */\n      swap1\n      pop\n        /* \"#utility.yul\":5385:5613   */\n      swap2\n      swap1\n      pop\n      jump\t// out\n        /* \"#utility.yul\":5619:5799   */\n    tag_123:\n        /* \"#utility.yul\":5667:5744   */\n      0x4e487b7100000000000000000000000000000000000000000000000000000000\n        /* \"#utility.yul\":5664:5665   */\n      0x00\n        /* \"#utility.yul\":5657:5745   */\n      mstore\n        /* \"#utility.yul\":5764:5768   */\n      0x11\n        /* \"#utility.yul\":5761:5762   */\n      0x04\n        /* \"#utility.yul\":5754:5769   */\n      mstore\n        /* \"#utility.yul\":5788:5792   */\n      0x24\n        /* \"#utility.yul\":5785:5786   */\n      0x00\n        /* \"#utility.yul\":5778:5793   */\n      revert\n        /* \"#utility.yul\":5805:5985   */\n    tag_131:\n        /* \"#utility.yul\":5853:5930   */\n      0x4e487b7100000000000000000000000000000000000000000000000000000000\n        /* \"#utility.yul\":5850:5851   */\n      0x00\n        /* \"#utility.yul\":5843:5931   */\n      mstore\n        /* \"#utility.yul\":5950:5954   */\n      0x12\n        /* \"#utility.yul\":5947:5948   */\n      0x04\n        /* \"#utility.yul\":5940:5955   */\n      mstore\n        /* \"#utility.yul\":5974:5978   */\n      0x24\n        /* \"#utility.yul\":5971:5972   */\n      0x00\n        /* \"#utility.yul\":5964:5979   */\n      revert\n        /* \"#utility.yul\":6114:6231   */\n    tag_93:\n        /* \"#utility.yul\":6223:6224   */\n      0x00\n        /* \"#utility.yul\":6220:6221   */\n      dup1\n        /* \"#utility.yul\":6213:6225   */\n      revert\n        /* \"#utility.yul\":6237:6357   */\n    tag_85:\n        /* \"#utility.yul\":6309:6332   */\n      tag_174\n        /* \"#utility.yul\":6326:6331   */\n      dup2\n        /* \"#utility.yul\":6309:6332   */\n      tag_107\n      jump\t// in\n    tag_174:\n        /* \"#utility.yul\":6302:6307   */\n      dup2\n        /* \"#utility.yul\":6299:6333   */\n      eq\n        /* \"#utility.yul\":6289:6351   */\n      tag_175\n      jumpi\n        /* \"#utility.yul\":6347:6348   */\n      0x00\n        /* \"#utility.yul\":6344:6345   */\n      dup1\n        /* \"#utility.yul\":6337:6349   */\n      revert\n        /* \"#utility.yul\":6289:6351   */\n    tag_175:\n        /* \"#utility.yul\":6237:6357   */\n      pop\n      jump\t// out\n        /* \"#utility.yul\":6363:6485   */\n    tag_89:\n        /* \"#utility.yul\":6436:6460   */\n      tag_177\n        /* \"#utility.yul\":6454:6459   */\n      dup2\n        /* \"#utility.yul\":6436:6460   */\n      tag_111\n      jump\t// in\n    tag_177:\n        /* \"#utility.yul\":6429:6434   */\n      dup2\n        /* \"#utility.yul\":6426:6461   */\n      eq\n        /* \"#utility.yul\":6416:6479   */\n      tag_178\n      jumpi\n        /* \"#utility.yul\":6475:6476   */\n      0x00\n        /* \"#utility.yul\":6472:6473   */\n      dup1\n        /* \"#utility.yul\":6465:6477   */\n      revert\n        /* \"#utility.yul\":6416:6479   */\n    tag_178:\n        /* \"#utility.yul\":6363:6485   */\n      pop\n      jump\t// out\n\n    auxdata: 0xa264697066735822122010377b9b2cd827c95c462f4186122b01dc790eb352954643b49543c28ca4fce864736f6c63430008070033\n}\n",
				"bytecode": {
					"linkReferences": {},
					"object": "608060405234801561001057600080fd5b50610849806100206000396000f3fe608060405234801561001057600080fd5b50600436106100625760003560e01c806309b7cdda14610067578063187983bf146100975780634c627bad146100c75780637d825142146100f757806383714834146101275780638f8a0d1914610157575b600080fd5b610081600480360381019061007c919061032d565b610187565b60405161008e91906103b8565b60405180910390f35b6100b160048036038101906100ac919061032d565b6101a4565b6040516100be91906103b8565b60405180910390f35b6100e160048036038101906100dc919061032d565b6101c1565b6040516100ee91906103b8565b60405180910390f35b610111600480360381019061010c9190610300565b6101de565b60405161011e91906103d3565b60405180910390f35b610141600480360381019061013c919061036d565b6101f0565b60405161014e91906103d3565b60405180910390f35b610171600480360381019061016c919061032d565b610202565b60405161017e91906103b8565b60405180910390f35b600061019c828461021f90919063ffffffff16565b905092915050565b60006101b9828461023590919063ffffffff16565b905092915050565b60006101d6828461024b90919063ffffffff16565b905092915050565b60006101e982610261565b9050919050565b60006101fb82610285565b9050919050565b600061021782846102c090919063ffffffff16565b905092915050565b6000818361022d9190610482565b905092915050565b6000818361024391906104ec565b905092915050565b60008183610259919061065d565b905092915050565b60008082131561027357819050610280565b8161027d90610739565b90505b919050565b60006001821161029857600190506102bb565b6102ad6001836102a891906106f1565b610285565b826102b89190610603565b90505b919050565b600081836102ce91906103ee565b905092915050565b6000813590506102e5816107e5565b92915050565b6000813590506102fa816107fc565b92915050565b600060208284031215610316576103156107e0565b5b6000610324848285016102d6565b91505092915050565b60008060408385031215610344576103436107e0565b5b6000610352858286016102d6565b9250506020610363858286016102d6565b9150509250929050565b600060208284031215610383576103826107e0565b5b6000610391848285016102eb565b91505092915050565b6103a381610725565b82525050565b6103b28161072f565b82525050565b60006020820190506103cd600083018461039a565b92915050565b60006020820190506103e860008301846103a9565b92915050565b60006103f982610725565b915061040483610725565b9250817f7fffffffffffffffffffffffffffffffffffffffffffffffffffffffffffffff0383136000831215161561043f5761043e610782565b5b817f800000000000000000000000000000000000000000000000000000000000000003831260008312161561047757610476610782565b5b828201905092915050565b600061048d82610725565b915061049883610725565b9250826104a8576104a76107b1565b5b600160000383147f8000000000000000000000000000000000000000000000000000000000000000831416156104e1576104e0610782565b5b828205905092915050565b60006104f782610725565b915061050283610725565b9250827f7fffffffffffffffffffffffffffffffffffffffffffffffffffffffffffffff048211600084136000841316161561054157610540610782565b5b817f8000000000000000000000000000000000000000000000000000000000000000058312600084126000841316161561057e5761057d610782565b5b827f800000000000000000000000000000000000000000000000000000000000000005821260008413600084121616156105bb576105ba610782565b5b827f7fffffffffffffffffffffffffffffffffffffffffffffffffffffffffffffff05821260008412600084121616156105f8576105f7610782565b5b828202905092915050565b600061060e8261072f565b91506106198361072f565b9250817fffffffffffffffffffffffffffffffffffffffffffffffffffffffffffffffff048311821515161561065257610651610782565b5b828202905092915050565b600061066882610725565b915061067383610725565b9250827f8000000000000000000000000000000000000000000000000000000000000000018212600084121516156106ae576106ad610782565b5b827f7fffffffffffffffffffffffffffffffffffffffffffffffffffffffffffffff0182136000841216156106e6576106e5610782565b5b828203905092915050565b60006106fc8261072f565b91506107078361072f565b92508282101561071a57610719610782565b5b828203905092915050565b6000819050919050565b6000819050919050565b600061074482610725565b91507f800000000000000000000000000000000000000000000000000000000000000082141561077757610776610782565b5b816000039050919050565b7f4e487b7100000000000000000000000000000000000000000000000000000000600052601160045260246000fd5b7f4e487b7100000000000000000000000000000000000000000000000000000000600052601260045260246000fd5b600080fd5b6107ee81610725565b81146107f957600080fd5b50565b6108058161072f565b811461081057600080fd5b5056fea264697066735822122010377b9b2cd827c95c462f4186122b01dc790eb352954643b49543c28ca4fce864736f6c63430008070033",
					"opcodes": "PUSH1 0x80 PUSH1 0x40 MSTORE CALLVALUE DUP1 ISZERO PUSH2 0x10 JUMPI PUSH1 0x0 DUP1 REVERT JUMPDEST POP PUSH2 0x849 DUP1 PUSH2 0x20 PUSH1 0x0 CODECOPY PUSH1 0x0 RETURN INVALID PUSH1 0x80 PUSH1 0x40 MSTORE CALLVALUE DUP1 ISZERO PUSH2 0x10 JUMPI PUSH1 0x0 DUP1 REVERT JUMPDEST POP PUSH1 0x4 CALLDATASIZE LT PUSH2 0x62 JUMPI PUSH1 0x0 CALLDATALOAD PUSH1 0xE0 SHR DUP1 PUSH4 0x9B7CDDA EQ PUSH2 0x67 JUMPI DUP1 PUSH4 0x187983BF EQ PUSH2 0x97 JUMPI DUP1 PUSH4 0x4C627BAD EQ PUSH2 0xC7 JUMPI DUP1 PUSH4 0x7D825142 EQ PUSH2 0xF7 JUMPI DUP1 PUSH4 0x83714834 EQ PUSH2 0x127 JUMPI DUP1 PUSH4 0x8F8A0D19 EQ PUSH2 0x157 JUMPI JUMPDEST PUSH1 0x0 DUP1 REVERT JUMPDEST PUSH2 0x81 PUSH1 0x4 DUP1 CALLDATASIZE SUB DUP2 ADD SWAP1 PUSH2 0x7C SWAP2 SWAP1 PUSH2 0x32D JUMP JUMPDEST PUSH2 0x187 JUMP JUMPDEST PUSH1 0x40 MLOAD PUSH2 0x8E SWAP2 SWAP1 PUSH2 0x3B8 JUMP JUMPDEST PUSH1 0x40 MLOAD DUP1 SWAP2 SUB SWAP1 RETURN JUMPDEST PUSH2 0xB1 PUSH1 0x4 DUP1 CALLDATASIZE SUB DUP2 ADD SWAP1 PUSH2 0xAC SWAP2 SWAP1 PUSH2 0x32D JUMP JUMPDEST PUSH2 0x1A4 JUMP JUMPDEST PUSH1 0x40 MLOAD PUSH2 0xBE SWAP2 SWAP1 PUSH2 0x3B8 JUMP JUMPDEST PUSH1 0x40 MLOAD DUP1 SWAP2 SUB SWAP1 RETURN JUMPDEST PUSH2 0xE1 PUSH1 0x4 DUP1 CALLDATASIZE SUB DUP2 ADD SWAP1 PUSH2 0xDC SWAP2 SWAP1 PUSH2 0x32D JUMP JUMPDEST PUSH2 0x1C1 JUMP JUMPDEST PUSH1 0x40 MLOAD PUSH2 0xEE SWAP2 SWAP1 PUSH2 0x3B8 JUMP JUMPDEST PUSH1 0x40 MLOAD DUP1 SWAP2 SUB SWAP1 RETURN JUMPDEST PUSH2 0x111 PUSH1 0x4 DUP1 CALLDATASIZE SUB DUP2 ADD SWAP1 PUSH2 0x10C SWAP2 SWAP1 PUSH2 0x300 JUMP JUMPDEST PUSH2 0x1DE JUMP JUMPDEST PUSH1 0x40 MLOAD PUSH2 0x11E SWAP2 SWAP1 PUSH2 0x3D3 JUMP JUMPDEST PUSH1 0x40 MLOAD DUP1 SWAP2 SUB SWAP1 RETURN JUMPDEST PUSH2 0x141 PUSH1 0x4 DUP1 CALLDATASIZE SUB DUP2 ADD SWAP1 PUSH2 0x13C SWAP2 SWAP1 PUSH2 0x36D JUMP JUMPDEST PUSH2 0x1F0 JUMP JUMPDEST PUSH1 0x40 MLOAD PUSH2 0x14E SWAP2 SWAP1 PUSH2 0x3D3 JUMP JUMPDEST PUSH1 0x40 MLOAD DUP1 SWAP2 SUB SWAP1 RETURN JUMPDEST PUSH2 0x171 PUSH1 0x4 DUP1 CALLDATASIZE SUB DUP2 ADD SWAP1 PUSH2 0x16C SWAP2 SWAP1 PUSH2 0x32D JUMP JUMPDEST PUSH2 0x202 JUMP JUMPDEST PUSH1 0x40 MLOAD PUSH2 0x17E SWAP2 SWAP1 PUSH2 0x3B8 JUMP JUMPDEST PUSH1 0x40 MLOAD DUP1 SWAP2 SUB SWAP1 RETURN JUMPDEST PUSH1 0x0 PUSH2 0x19C DUP3 DUP5 PUSH2 0x21F SWAP1 SWAP2 SWAP1 PUSH4 0xFFFFFFFF AND JUMP JUMPDEST SWAP1 POP SWAP3 SWAP2 POP POP JUMP JUMPDEST PUSH1 0x0 PUSH2 0x1B9 DUP3 DUP5 PUSH2 0x235 SWAP1 SWAP2 SWAP1 PUSH4 0xFFFFFFFF AND JUMP JUMPDEST SWAP1 POP SWAP3 SWAP2 POP POP JUMP JUMPDEST PUSH1 0x0 PUSH2 0x1D6 DUP3 DUP5 PUSH2 0x24B SWAP1 SWAP2 SWAP1 PUSH4 0xFFFFFFFF AND JUMP JUMPDEST SWAP1 POP SWAP3 SWAP2 POP POP JUMP JUMPDEST PUSH1 0x0 PUSH2 0x1E9 DUP3 PUSH2 0x261 JUMP JUMPDEST SWAP1 POP SWAP2 SWAP1 POP JUMP JUMPDEST PUSH1 0x0 PUSH2 0x1FB DUP3 PUSH2 0x285 JUMP JUMPDEST SWAP1 POP SWAP2 SWAP1 POP JUMP JUMPDEST PUSH1 0x0 PUSH2 0x217 DUP3 DUP5 PUSH2 0x2C0 SWAP1 SWAP2 SWAP1 PUSH4 0xFFFFFFFF AND JUMP JUMPDEST SWAP1 POP SWAP3 SWAP2 POP POP JUMP JUMPDEST PUSH1 0x0 DUP2 DUP4 PUSH2 0x22D SWAP2 SWAP1 PUSH2 0x482 JUMP JUMPDEST SWAP1 POP SWAP3 SWAP2 POP POP JUMP JUMPDEST PUSH1 0x0 DUP2 DUP4 PUSH2 0x243 SWAP2 SWAP1 PUSH2 0x4EC JUMP JUMPDEST SWAP1 POP SWAP3 SWAP2 POP POP JUMP JUMPDEST PUSH1 0x0 DUP2 DUP4 PUSH2 0x259 SWAP2 SWAP1 PUSH2 0x65D JUMP JUMPDEST SWAP1 POP SWAP3 SWAP2 POP POP JUMP JUMPDEST PUSH1 0x0 DUP1 DUP3 SGT ISZERO PUSH2 0x273 JUMPI DUP2 SWAP1 POP PUSH2 0x280 JUMP JUMPDEST DUP2 PUSH2 0x27D SWAP1 PUSH2 0x739 JUMP JUMPDEST SWAP1 POP JUMPDEST SWAP2 SWAP1 POP JUMP JUMPDEST PUSH1 0x0 PUSH1 0x1 DUP3 GT PUSH2 0x298 JUMPI PUSH1 0x1 SWAP1 POP PUSH2 0x2BB JUMP JUMPDEST PUSH2 0x2AD PUSH1 0x1 DUP4 PUSH2 0x2A8 SWAP2 SWAP1 PUSH2 0x6F1 JUMP JUMPDEST PUSH2 0x285 JUMP JUMPDEST DUP3 PUSH2 0x2B8 SWAP2 SWAP1 PUSH2 0x603 JUMP JUMPDEST SWAP1 POP JUMPDEST SWAP2 SWAP1 POP JUMP JUMPDEST PUSH1 0x0 DUP2 DUP4 PUSH2 0x2CE SWAP2 SWAP1 PUSH2 0x3EE JUMP JUMPDEST SWAP1 POP SWAP3 SWAP2 POP POP JUMP JUMPDEST PUSH1 0x0 DUP2 CALLDATALOAD SWAP1 POP PUSH2 0x2E5 DUP2 PUSH2 0x7E5 JUMP JUMPDEST SWAP3 SWAP2 POP POP JUMP JUMPDEST PUSH1 0x0 DUP2 CALLDATALOAD SWAP1 POP PUSH2 0x2FA DUP2 PUSH2 0x7FC JUMP JUMPDEST SWAP3 SWAP2 POP POP JUMP JUMPDEST PUSH1 0x0 PUSH1 0x20 DUP3 DUP5 SUB SLT ISZERO PUSH2 0x316 JUMPI PUSH2 0x315 PUSH2 0x7E0 JUMP JUMPDEST JUMPDEST PUSH1 0x0 PUSH2 0x324 DUP5 DUP3 DUP6 ADD PUSH2 0x2D6 JUMP JUMPDEST SWAP2 POP POP SWAP3 SWAP2 POP POP JUMP JUMPDEST PUSH1 0x0 DUP1 PUSH1 0x40 DUP4 DUP6 SUB SLT ISZERO PUSH2 0x344 JUMPI PUSH2 0x343 PUSH2 0x7E0 JUMP JUMPDEST JUMPDEST PUSH1 0x0 PUSH2 0x352 DUP6 DUP3 DUP7 ADD PUSH2 0x2D6 JUMP JUMPDEST SWAP3 POP POP PUSH1 0x20 PUSH2 0x363 DUP6 DUP3 DUP7 ADD PUSH2 0x2D6 JUMP JUMPDEST SWAP2 POP POP SWAP3 POP SWAP3 SWAP1 POP JUMP JUMPDEST PUSH1 0x0 PUSH1 0x20 DUP3 DUP5 SUB SLT ISZERO PUSH2 0x383 JUMPI PUSH2 0x382 PUSH2 0x7E0 JUMP JUMPDEST JUMPDEST PUSH1 0x0 PUSH2 0x391 DUP5 DUP3 DUP6 ADD PUSH2 0x2EB JUMP JUMPDEST SWAP2 POP POP SWAP3 SWAP2 POP POP JUMP JUMPDEST PUSH2 0x3A3 DUP2 PUSH2 0x725 JUMP JUMPDEST DUP3 MSTORE POP POP JUMP JUMPDEST PUSH2 0x3B2 DUP2 PUSH2 0x72F JUMP JUMPDEST DUP3 MSTORE POP POP JUMP JUMPDEST PUSH1 0x0 PUSH1 0x20 DUP3 ADD SWAP1 POP PUSH2 0x3CD PUSH1 0x0 DUP4 ADD DUP5 PUSH2 0x39A JUMP JUMPDEST SWAP3 SWAP2 POP POP JUMP JUMPDEST PUSH1 0x0 PUSH1 0x20 DUP3 ADD SWAP1 POP PUSH2 0x3E8 PUSH1 0x0 DUP4 ADD DUP5 PUSH2 0x3A9 JUMP JUMPDEST SWAP3 SWAP2 POP POP JUMP JUMPDEST PUSH1 0x0 PUSH2 0x3F9 DUP3 PUSH2 0x725 JUMP JUMPDEST SWAP2 POP PUSH2 0x404 DUP4 PUSH2 0x725 JUMP JUMPDEST SWAP3 POP DUP2 PUSH32 0x7FFFFFFFFFFFFFFFFFFFFFFFFFFFFFFFFFFFFFFFFFFFFFFFFFFFFFFFFFFFFFFF SUB DUP4 SGT PUSH1 0x0 DUP4 SLT ISZERO AND ISZERO PUSH2 0x43F JUMPI PUSH2 0x43E PUSH2 0x782 JUMP JUMPDEST JUMPDEST DUP2 PUSH32 0x8000000000000000000000000000000000000000000000000000000000000000 SUB DUP4 SLT PUSH1 0x0 DUP4 SLT AND ISZERO PUSH2 0x477 JUMPI PUSH2 0x476 PUSH2 0x782 JUMP JUMPDEST JUMPDEST DUP3 DUP3 ADD SWAP1 POP SWAP3 SWAP2 POP POP JUMP JUMPDEST PUSH1 0x0 PUSH2 0x48D DUP3 PUSH2 0x725 JUMP JUMPDEST SWAP2 POP PUSH2 0x498 DUP4 PUSH2 0x725 JUMP JUMPDEST SWAP3 POP DUP3 PUSH2 0x4A8 JUMPI PUSH2 0x4A7 PUSH2 0x7B1 JUMP JUMPDEST JUMPDEST PUSH1 0x1 PUSH1 0x0 SUB DUP4 EQ PUSH32 0x8000000000000000000000000000000000000000000000000000000000000000 DUP4 EQ AND ISZERO PUSH2 0x4E1 JUMPI PUSH2 0x4E0 PUSH2 0x782 JUMP JUMPDEST JUMPDEST DUP3 DUP3 SDIV SWAP1 POP SWAP3 SWAP2 POP POP JUMP JUMPDEST PUSH1 0x0 PUSH2 0x4F7 DUP3 PUSH2 0x725 JUMP JUMPDEST SWAP2 POP PUSH2 0x502 DUP4 PUSH2 0x725 JUMP JUMPDEST SWAP3 POP DUP3 PUSH32 0x7FFFFFFFFFFFFFFFFFFFFFFFFFFFFFFFFFFFFFFFFFFFFFFFFFFFFFFFFFFFFFFF DIV DUP3 GT PUSH1 0x0 DUP5 SGT PUSH1 0x0 DUP5 SGT AND AND ISZERO PUSH2 0x541 JUMPI PUSH2 0x540 PUSH2 0x782 JUMP JUMPDEST JUMPDEST DUP2 PUSH32 0x8000000000000000000000000000000000000000000000000000000000000000 SDIV DUP4 SLT PUSH1 0x0 DUP5 SLT PUSH1 0x0 DUP5 SGT AND AND ISZERO PUSH2 0x57E JUMPI PUSH2 0x57D PUSH2 0x782 JUMP JUMPDEST JUMPDEST DUP3 PUSH32 0x8000000000000000000000000000000000000000000000000000000000000000 SDIV DUP3 SLT PUSH1 0x0 DUP5 SGT PUSH1 0x0 DUP5 SLT AND AND ISZERO PUSH2 0x5BB JUMPI PUSH2 0x5BA PUSH2 0x782 JUMP JUMPDEST JUMPDEST DUP3 PUSH32 0x7FFFFFFFFFFFFFFFFFFFFFFFFFFFFFFFFFFFFFFFFFFFFFFFFFFFFFFFFFFFFFFF SDIV DUP3 SLT PUSH1 0x0 DUP5 SLT PUSH1 0x0 DUP5 SLT AND AND ISZERO PUSH2 0x5F8 JUMPI PUSH2 0x5F7 PUSH2 0x782 JUMP JUMPDEST JUMPDEST DUP3 DUP3 MUL SWAP1 POP SWAP3 SWAP2 POP POP JUMP JUMPDEST PUSH1 0x0 PUSH2 0x60E DUP3 PUSH2 0x72F JUMP JUMPDEST SWAP2 POP PUSH2 0x619 DUP4 PUSH2 0x72F JUMP JUMPDEST SWAP3 POP DUP2 PUSH32 0xFFFFFFFFFFFFFFFFFFFFFFFFFFFFFFFFFFFFFFFFFFFFFFFFFFFFFFFFFFFFFFFF DIV DUP4 GT DUP3 ISZERO ISZERO AND ISZERO PUSH2 0x652 JUMPI PUSH2 0x651 PUSH2 0x782 JUMP JUMPDEST JUMPDEST DUP3 DUP3 MUL SWAP1 POP SWAP3 SWAP2 POP POP JUMP JUMPDEST PUSH1 0x0 PUSH2 0x668 DUP3 PUSH2 0x725 JUMP JUMPDEST SWAP2 POP PUSH2 0x673 DUP4 PUSH2 0x725 JUMP JUMPDEST SWAP3 POP DUP3 PUSH32 0x8000000000000000000000000000000000000000000000000000000000000000 ADD DUP3 SLT PUSH1 0x0 DUP5 SLT ISZERO AND ISZERO PUSH2 0x6AE JUMPI PUSH2 0x6AD PUSH2 0x782 JUMP JUMPDEST JUMPDEST DUP3 PUSH32 0x7FFFFFFFFFFFFFFFFFFFFFFFFFFFFFFFFFFFFFFFFFFFFFFFFFFFFFFFFFFFFFFF ADD DUP3 SGT PUSH1 0x0 DUP5 SLT AND ISZERO PUSH2 0x6E6 JUMPI PUSH2 0x6E5 PUSH2 0x782 JUMP JUMPDEST JUMPDEST DUP3 DUP3 SUB SWAP1 POP SWAP3 SWAP2 POP POP JUMP JUMPDEST PUSH1 0x0 PUSH2 0x6FC DUP3 PUSH2 0x72F JUMP JUMPDEST SWAP2 POP PUSH2 0x707 DUP4 PUSH2 0x72F JUMP JUMPDEST SWAP3 POP DUP3 DUP3 LT ISZERO PUSH2 0x71A JUMPI PUSH2 0x719 PUSH2 0x782 JUMP JUMPDEST JUMPDEST DUP3 DUP3 SUB SWAP1 POP SWAP3 SWAP2 POP POP JUMP JUMPDEST PUSH1 0x0 DUP2 SWAP1 POP SWAP2 SWAP1 POP JUMP JUMPDEST PUSH1 0x0 DUP2 SWAP1 POP SWAP2 SWAP1 POP JUMP JUMPDEST PUSH1 0x0 PUSH2 0x744 DUP3 PUSH2 0x725 JUMP JUMPDEST SWAP2 POP PUSH32 0x8000000000000000000000000000000000000000000000000000000000000000 DUP3 EQ ISZERO PUSH2 0x777 JUMPI PUSH2 0x776 PUSH2 0x782 JUMP JUMPDEST JUMPDEST DUP2 PUSH1 0x0 SUB SWAP1 POP SWAP2 SWAP1 POP JUMP JUMPDEST PUSH32 0x4E487B7100000000000000000000000000000000000000000000000000000000 PUSH1 0x0 MSTORE PUSH1 0x11 PUSH1 0x4 MSTORE PUSH1 0x24 PUSH1 0x0 REVERT JUMPDEST PUSH32 0x4E487B7100000000000000000000000000000000000000000000000000000000 PUSH1 0x0 MSTORE PUSH1 0x12 PUSH1 0x4 MSTORE PUSH1 0x24 PUSH1 0x0 REVERT JUMPDEST PUSH1 0x0 DUP1 REVERT JUMPDEST PUSH2 0x7EE DUP2 PUSH2 0x725 JUMP JUMPDEST DUP2 EQ PUSH2 0x7F9 JUMPI PUSH1 0x0 DUP1 REVERT JUMPDEST POP JUMP JUMPDEST PUSH2 0x805 DUP2 PUSH2 0x72F JUMP JUMPDEST DUP2 EQ PUSH2 0x810 JUMPI PUSH1 0x0 DUP1 REVERT JUMPDEST POP JUMP INVALID LOG2 PUSH5 0x6970667358 0x22 SLT KECCAK256 LT CALLDATACOPY PUSH28 0x9B2CD827C95C462F4186122B01DC790EB352954643B49543C28CA4FC 0xE8 PUSH5 0x736F6C6343 STOP ADDMOD SMOD STOP CALLER "
				},
				"gasEstimates": {
					"creation": {
						"codeDepositCost": "424200",
						"executionCost": "461",
						"totalCost": "424661"
					},
					"external": {
						"division(int256,int256)": "infinite",
						"factorial(uint256)": "infinite",
						"multiplicacion(int256,int256)": "infinite",
						"resta(int256,int256)": "infinite",
						"suma(int256,int256)": "infinite",
						"valorAbsoluto(int256)": "infinite"
					}
				},
				"methodIdentifiers": {
					"division(int256,int256)": "09b7cdda",
					"factorial(uint256)": "83714834",
					"multiplicacion(int256,int256)": "187983bf",
					"resta(int256,int256)": "4c627bad",
					"suma(int256,int256)": "8f8a0d19",
					"valorAbsoluto(int256)": "7d825142"
				}
			},
			"storageLayout": {
				"storage": [],
				"types": null
			},
			"userdoc": {
				"kind": "user",
				"methods": {},
				"version": 1
			}
		}
	}
}