{
	"Documents/GitHub/SOLIDITY-REMIX/5ef069451e67668750287d64bc5f8bae/calculadora.sol": {
		"Calculadora": {
			"abi": [
				{
					"inputs": [],
					"name": "a",
					"outputs": [
						{
							"internalType": "int256",
							"name": "",
							"type": "int256"
						}
					],
					"stateMutability": "view",
					"type": "function"
				},
				{
					"inputs": [],
					"name": "b",
					"outputs": [
						{
							"internalType": "int256",
							"name": "",
							"type": "int256"
						}
					],
					"stateMutability": "view",
					"type": "function"
				},
				{
					"inputs": [
						{
							"internalType": "int256",
							"name": "_a",
							"type": "int256"
						},
						{
							"internalType": "int256",
							"name": "_b",
							"type": "int256"
						}
					],
					"name": "resta",
					"outputs": [
						{
							"internalType": "int256",
							"name": "",
							"type": "int256"
						}
					],
					"stateMutability": "pure",
					"type": "function"
				},
				{
					"inputs": [
						{
							"internalType": "int256",
							"name": "_a",
							"type": "int256"
						},
						{
							"internalType": "int256",
							"name": "_b",
							"type": "int256"
						}
					],
					"name": "suma",
					"outputs": [
						{
							"internalType": "int256",
							"name": "",
							"type": "int256"
						}
					],
					"stateMutability": "pure",
					"type": "function"
				}
			],
			"devdoc": {
				"kind": "dev",
				"methods": {},
				"version": 1
			},
			"evm": {
				"assembly": "    /* \"Documents/GitHub/SOLIDITY-REMIX/5ef069451e67668750287d64bc5f8bae/calculadora.sol\":68:1776  contract Calculadora {\r... */\n  mstore(0x40, 0x80)\n  callvalue\n  dup1\n  iszero\n  tag_1\n  jumpi\n  0x00\n  dup1\n  revert\ntag_1:\n  pop\n  dataSize(sub_0)\n  dup1\n  dataOffset(sub_0)\n  0x00\n  codecopy\n  0x00\n  return\nstop\n\nsub_0: assembly {\n        /* \"Documents/GitHub/SOLIDITY-REMIX/5ef069451e67668750287d64bc5f8bae/calculadora.sol\":68:1776  contract Calculadora {\r... */\n      mstore(0x40, 0x80)\n      callvalue\n      dup1\n      iszero\n      tag_1\n      jumpi\n      0x00\n      dup1\n      revert\n    tag_1:\n      pop\n      jumpi(tag_2, lt(calldatasize, 0x04))\n      shr(0xe0, calldataload(0x00))\n      dup1\n      0x0dbe671f\n      eq\n      tag_3\n      jumpi\n      dup1\n      0x4c627bad\n      eq\n      tag_4\n      jumpi\n      dup1\n      0x4df7e3d0\n      eq\n      tag_5\n      jumpi\n      dup1\n      0x8f8a0d19\n      eq\n      tag_6\n      jumpi\n    tag_2:\n      0x00\n      dup1\n      revert\n        /* \"Documents/GitHub/SOLIDITY-REMIX/5ef069451e67668750287d64bc5f8bae/calculadora.sol\":96:108  int public a */\n    tag_3:\n      tag_7\n      tag_8\n      jump\t// in\n    tag_7:\n      mload(0x40)\n      tag_9\n      swap2\n      swap1\n      tag_10\n      jump\t// in\n    tag_9:\n      mload(0x40)\n      dup1\n      swap2\n      sub\n      swap1\n      return\n        /* \"Documents/GitHub/SOLIDITY-REMIX/5ef069451e67668750287d64bc5f8bae/calculadora.sol\":233:323  function resta(int _a,int _b) public pure returns(int) {\r... */\n    tag_4:\n      tag_11\n      0x04\n      dup1\n      calldatasize\n      sub\n      dup2\n      add\n      swap1\n      tag_12\n      swap2\n      swap1\n      tag_13\n      jump\t// in\n    tag_12:\n      tag_14\n      jump\t// in\n    tag_11:\n      mload(0x40)\n      tag_15\n      swap2\n      swap1\n      tag_10\n      jump\t// in\n    tag_15:\n      mload(0x40)\n      dup1\n      swap2\n      sub\n      swap1\n      return\n        /* \"Documents/GitHub/SOLIDITY-REMIX/5ef069451e67668750287d64bc5f8bae/calculadora.sol\":115:127  int public b */\n    tag_5:\n      tag_16\n      tag_17\n      jump\t// in\n    tag_16:\n      mload(0x40)\n      tag_18\n      swap2\n      swap1\n      tag_10\n      jump\t// in\n    tag_18:\n      mload(0x40)\n      dup1\n      swap2\n      sub\n      swap1\n      return\n        /* \"Documents/GitHub/SOLIDITY-REMIX/5ef069451e67668750287d64bc5f8bae/calculadora.sol\":136:225  function suma(int _a,int _b) public pure returns(int) {\r... */\n    tag_6:\n      tag_19\n      0x04\n      dup1\n      calldatasize\n      sub\n      dup2\n      add\n      swap1\n      tag_20\n      swap2\n      swap1\n      tag_13\n      jump\t// in\n    tag_20:\n      tag_21\n      jump\t// in\n    tag_19:\n      mload(0x40)\n      tag_22\n      swap2\n      swap1\n      tag_10\n      jump\t// in\n    tag_22:\n      mload(0x40)\n      dup1\n      swap2\n      sub\n      swap1\n      return\n        /* \"Documents/GitHub/SOLIDITY-REMIX/5ef069451e67668750287d64bc5f8bae/calculadora.sol\":96:108  int public a */\n    tag_8:\n      sload(0x00)\n      dup2\n      jump\t// out\n        /* \"Documents/GitHub/SOLIDITY-REMIX/5ef069451e67668750287d64bc5f8bae/calculadora.sol\":233:323  function resta(int _a,int _b) public pure returns(int) {\r... */\n    tag_14:\n        /* \"Documents/GitHub/SOLIDITY-REMIX/5ef069451e67668750287d64bc5f8bae/calculadora.sol\":283:286  int */\n      0x00\n        /* \"Documents/GitHub/SOLIDITY-REMIX/5ef069451e67668750287d64bc5f8bae/calculadora.sol\":312:314  _b */\n      dup2\n        /* \"Documents/GitHub/SOLIDITY-REMIX/5ef069451e67668750287d64bc5f8bae/calculadora.sol\":307:309  _a */\n      dup4\n        /* \"Documents/GitHub/SOLIDITY-REMIX/5ef069451e67668750287d64bc5f8bae/calculadora.sol\":307:314  _a - _b */\n      tag_24\n      swap2\n      swap1\n      tag_25\n      jump\t// in\n    tag_24:\n        /* \"Documents/GitHub/SOLIDITY-REMIX/5ef069451e67668750287d64bc5f8bae/calculadora.sol\":299:315  return (_a - _b) */\n      swap1\n      pop\n        /* \"Documents/GitHub/SOLIDITY-REMIX/5ef069451e67668750287d64bc5f8bae/calculadora.sol\":233:323  function resta(int _a,int _b) public pure returns(int) {\r... */\n      swap3\n      swap2\n      pop\n      pop\n      jump\t// out\n        /* \"Documents/GitHub/SOLIDITY-REMIX/5ef069451e67668750287d64bc5f8bae/calculadora.sol\":115:127  int public b */\n    tag_17:\n      sload(0x01)\n      dup2\n      jump\t// out\n        /* \"Documents/GitHub/SOLIDITY-REMIX/5ef069451e67668750287d64bc5f8bae/calculadora.sol\":136:225  function suma(int _a,int _b) public pure returns(int) {\r... */\n    tag_21:\n        /* \"Documents/GitHub/SOLIDITY-REMIX/5ef069451e67668750287d64bc5f8bae/calculadora.sol\":185:188  int */\n      0x00\n        /* \"Documents/GitHub/SOLIDITY-REMIX/5ef069451e67668750287d64bc5f8bae/calculadora.sol\":214:216  _b */\n      dup2\n        /* \"Documents/GitHub/SOLIDITY-REMIX/5ef069451e67668750287d64bc5f8bae/calculadora.sol\":209:211  _a */\n      dup4\n        /* \"Documents/GitHub/SOLIDITY-REMIX/5ef069451e67668750287d64bc5f8bae/calculadora.sol\":209:216  _a + _b */\n      tag_27\n      swap2\n      swap1\n      tag_28\n      jump\t// in\n    tag_27:\n        /* \"Documents/GitHub/SOLIDITY-REMIX/5ef069451e67668750287d64bc5f8bae/calculadora.sol\":201:217  return (_a + _b) */\n      swap1\n      pop\n        /* \"Documents/GitHub/SOLIDITY-REMIX/5ef069451e67668750287d64bc5f8bae/calculadora.sol\":136:225  function suma(int _a,int _b) public pure returns(int) {\r... */\n      swap3\n      swap2\n      pop\n      pop\n      jump\t// out\n        /* \"#utility.yul\":7:144   */\n    tag_30:\n        /* \"#utility.yul\":52:57   */\n      0x00\n        /* \"#utility.yul\":90:96   */\n      dup2\n        /* \"#utility.yul\":77:97   */\n      calldataload\n        /* \"#utility.yul\":68:97   */\n      swap1\n      pop\n        /* \"#utility.yul\":106:138   */\n      tag_32\n        /* \"#utility.yul\":132:137   */\n      dup2\n        /* \"#utility.yul\":106:138   */\n      tag_33\n      jump\t// in\n    tag_32:\n        /* \"#utility.yul\":7:144   */\n      swap3\n      swap2\n      pop\n      pop\n      jump\t// out\n        /* \"#utility.yul\":150:620   */\n    tag_13:\n        /* \"#utility.yul\":216:222   */\n      0x00\n        /* \"#utility.yul\":224:230   */\n      dup1\n        /* \"#utility.yul\":273:275   */\n      0x40\n        /* \"#utility.yul\":261:270   */\n      dup4\n        /* \"#utility.yul\":252:259   */\n      dup6\n        /* \"#utility.yul\":248:271   */\n      sub\n        /* \"#utility.yul\":244:276   */\n      slt\n        /* \"#utility.yul\":241:360   */\n      iszero\n      tag_35\n      jumpi\n        /* \"#utility.yul\":279:358   */\n      tag_36\n      tag_37\n      jump\t// in\n    tag_36:\n        /* \"#utility.yul\":241:360   */\n    tag_35:\n        /* \"#utility.yul\":399:400   */\n      0x00\n        /* \"#utility.yul\":424:476   */\n      tag_38\n        /* \"#utility.yul\":468:475   */\n      dup6\n        /* \"#utility.yul\":459:465   */\n      dup3\n        /* \"#utility.yul\":448:457   */\n      dup7\n        /* \"#utility.yul\":444:466   */\n      add\n        /* \"#utility.yul\":424:476   */\n      tag_30\n      jump\t// in\n    tag_38:\n        /* \"#utility.yul\":414:476   */\n      swap3\n      pop\n        /* \"#utility.yul\":370:486   */\n      pop\n        /* \"#utility.yul\":525:527   */\n      0x20\n        /* \"#utility.yul\":551:603   */\n      tag_39\n        /* \"#utility.yul\":595:602   */\n      dup6\n        /* \"#utility.yul\":586:592   */\n      dup3\n        /* \"#utility.yul\":575:584   */\n      dup7\n        /* \"#utility.yul\":571:593   */\n      add\n        /* \"#utility.yul\":551:603   */\n      tag_30\n      jump\t// in\n    tag_39:\n        /* \"#utility.yul\":541:603   */\n      swap2\n      pop\n        /* \"#utility.yul\":496:613   */\n      pop\n        /* \"#utility.yul\":150:620   */\n      swap3\n      pop\n      swap3\n      swap1\n      pop\n      jump\t// out\n        /* \"#utility.yul\":626:741   */\n    tag_40:\n        /* \"#utility.yul\":711:734   */\n      tag_42\n        /* \"#utility.yul\":728:733   */\n      dup2\n        /* \"#utility.yul\":711:734   */\n      tag_43\n      jump\t// in\n    tag_42:\n        /* \"#utility.yul\":706:709   */\n      dup3\n        /* \"#utility.yul\":699:735   */\n      mstore\n        /* \"#utility.yul\":626:741   */\n      pop\n      pop\n      jump\t// out\n        /* \"#utility.yul\":747:965   */\n    tag_10:\n        /* \"#utility.yul\":838:842   */\n      0x00\n        /* \"#utility.yul\":876:878   */\n      0x20\n        /* \"#utility.yul\":865:874   */\n      dup3\n        /* \"#utility.yul\":861:879   */\n      add\n        /* \"#utility.yul\":853:879   */\n      swap1\n      pop\n        /* \"#utility.yul\":889:958   */\n      tag_45\n        /* \"#utility.yul\":955:956   */\n      0x00\n        /* \"#utility.yul\":944:953   */\n      dup4\n        /* \"#utility.yul\":940:957   */\n      add\n        /* \"#utility.yul\":931:937   */\n      dup5\n        /* \"#utility.yul\":889:958   */\n      tag_40\n      jump\t// in\n    tag_45:\n        /* \"#utility.yul\":747:965   */\n      swap3\n      swap2\n      pop\n      pop\n      jump\t// out\n        /* \"#utility.yul\":1052:1577   */\n    tag_28:\n        /* \"#utility.yul\":1091:1094   */\n      0x00\n        /* \"#utility.yul\":1110:1129   */\n      tag_49\n        /* \"#utility.yul\":1127:1128   */\n      dup3\n        /* \"#utility.yul\":1110:1129   */\n      tag_43\n      jump\t// in\n    tag_49:\n        /* \"#utility.yul\":1105:1129   */\n      swap2\n      pop\n        /* \"#utility.yul\":1143:1162   */\n      tag_50\n        /* \"#utility.yul\":1160:1161   */\n      dup4\n        /* \"#utility.yul\":1143:1162   */\n      tag_43\n      jump\t// in\n    tag_50:\n        /* \"#utility.yul\":1138:1162   */\n      swap3\n      pop\n        /* \"#utility.yul\":1331:1332   */\n      dup2\n        /* \"#utility.yul\":1263:1329   */\n      0x7fffffffffffffffffffffffffffffffffffffffffffffffffffffffffffffff\n        /* \"#utility.yul\":1259:1333   */\n      sub\n        /* \"#utility.yul\":1256:1257   */\n      dup4\n        /* \"#utility.yul\":1252:1334   */\n      sgt\n        /* \"#utility.yul\":1247:1248   */\n      0x00\n        /* \"#utility.yul\":1244:1245   */\n      dup4\n        /* \"#utility.yul\":1240:1249   */\n      slt\n        /* \"#utility.yul\":1233:1250   */\n      iszero\n        /* \"#utility.yul\":1229:1335   */\n      and\n        /* \"#utility.yul\":1226:1358   */\n      iszero\n      tag_51\n      jumpi\n        /* \"#utility.yul\":1338:1356   */\n      tag_52\n      tag_53\n      jump\t// in\n    tag_52:\n        /* \"#utility.yul\":1226:1358   */\n    tag_51:\n        /* \"#utility.yul\":1518:1519   */\n      dup2\n        /* \"#utility.yul\":1450:1516   */\n      0x8000000000000000000000000000000000000000000000000000000000000000\n        /* \"#utility.yul\":1446:1520   */\n      sub\n        /* \"#utility.yul\":1443:1444   */\n      dup4\n        /* \"#utility.yul\":1439:1521   */\n      slt\n        /* \"#utility.yul\":1435:1436   */\n      0x00\n        /* \"#utility.yul\":1432:1433   */\n      dup4\n        /* \"#utility.yul\":1428:1437   */\n      slt\n        /* \"#utility.yul\":1424:1522   */\n      and\n        /* \"#utility.yul\":1421:1545   */\n      iszero\n      tag_54\n      jumpi\n        /* \"#utility.yul\":1525:1543   */\n      tag_55\n      tag_53\n      jump\t// in\n    tag_55:\n        /* \"#utility.yul\":1421:1545   */\n    tag_54:\n        /* \"#utility.yul\":1569:1570   */\n      dup3\n        /* \"#utility.yul\":1566:1567   */\n      dup3\n        /* \"#utility.yul\":1562:1571   */\n      add\n        /* \"#utility.yul\":1555:1571   */\n      swap1\n      pop\n        /* \"#utility.yul\":1052:1577   */\n      swap3\n      swap2\n      pop\n      pop\n      jump\t// out\n        /* \"#utility.yul\":1583:2110   */\n    tag_25:\n        /* \"#utility.yul\":1622:1626   */\n      0x00\n        /* \"#utility.yul\":1642:1661   */\n      tag_57\n        /* \"#utility.yul\":1659:1660   */\n      dup3\n        /* \"#utility.yul\":1642:1661   */\n      tag_43\n      jump\t// in\n    tag_57:\n        /* \"#utility.yul\":1637:1661   */\n      swap2\n      pop\n        /* \"#utility.yul\":1675:1694   */\n      tag_58\n        /* \"#utility.yul\":1692:1693   */\n      dup4\n        /* \"#utility.yul\":1675:1694   */\n      tag_43\n      jump\t// in\n    tag_58:\n        /* \"#utility.yul\":1670:1694   */\n      swap3\n      pop\n        /* \"#utility.yul\":1864:1865   */\n      dup3\n        /* \"#utility.yul\":1796:1862   */\n      0x8000000000000000000000000000000000000000000000000000000000000000\n        /* \"#utility.yul\":1792:1866   */\n      add\n        /* \"#utility.yul\":1789:1790   */\n      dup3\n        /* \"#utility.yul\":1785:1867   */\n      slt\n        /* \"#utility.yul\":1780:1781   */\n      0x00\n        /* \"#utility.yul\":1777:1778   */\n      dup5\n        /* \"#utility.yul\":1773:1782   */\n      slt\n        /* \"#utility.yul\":1766:1783   */\n      iszero\n        /* \"#utility.yul\":1762:1868   */\n      and\n        /* \"#utility.yul\":1759:1891   */\n      iszero\n      tag_59\n      jumpi\n        /* \"#utility.yul\":1871:1889   */\n      tag_60\n      tag_53\n      jump\t// in\n    tag_60:\n        /* \"#utility.yul\":1759:1891   */\n    tag_59:\n        /* \"#utility.yul\":2050:2051   */\n      dup3\n        /* \"#utility.yul\":1982:2048   */\n      0x7fffffffffffffffffffffffffffffffffffffffffffffffffffffffffffffff\n        /* \"#utility.yul\":1978:2052   */\n      add\n        /* \"#utility.yul\":1975:1976   */\n      dup3\n        /* \"#utility.yul\":1971:2053   */\n      sgt\n        /* \"#utility.yul\":1967:1968   */\n      0x00\n        /* \"#utility.yul\":1964:1965   */\n      dup5\n        /* \"#utility.yul\":1960:1969   */\n      slt\n        /* \"#utility.yul\":1956:2054   */\n      and\n        /* \"#utility.yul\":1953:2077   */\n      iszero\n      tag_61\n      jumpi\n        /* \"#utility.yul\":2057:2075   */\n      tag_62\n      tag_53\n      jump\t// in\n    tag_62:\n        /* \"#utility.yul\":1953:2077   */\n    tag_61:\n        /* \"#utility.yul\":2102:2103   */\n      dup3\n        /* \"#utility.yul\":2099:2100   */\n      dup3\n        /* \"#utility.yul\":2095:2104   */\n      sub\n        /* \"#utility.yul\":2087:2104   */\n      swap1\n      pop\n        /* \"#utility.yul\":1583:2110   */\n      swap3\n      swap2\n      pop\n      pop\n      jump\t// out\n        /* \"#utility.yul\":2116:2192   */\n    tag_43:\n        /* \"#utility.yul\":2152:2159   */\n      0x00\n        /* \"#utility.yul\":2181:2186   */\n      dup2\n        /* \"#utility.yul\":2170:2186   */\n      swap1\n      pop\n        /* \"#utility.yul\":2116:2192   */\n      swap2\n      swap1\n      pop\n      jump\t// out\n        /* \"#utility.yul\":2198:2378   */\n    tag_53:\n        /* \"#utility.yul\":2246:2323   */\n      0x4e487b7100000000000000000000000000000000000000000000000000000000\n        /* \"#utility.yul\":2243:2244   */\n      0x00\n        /* \"#utility.yul\":2236:2324   */\n      mstore\n        /* \"#utility.yul\":2343:2347   */\n      0x11\n        /* \"#utility.yul\":2340:2341   */\n      0x04\n        /* \"#utility.yul\":2333:2348   */\n      mstore\n        /* \"#utility.yul\":2367:2371   */\n      0x24\n        /* \"#utility.yul\":2364:2365   */\n      0x00\n        /* \"#utility.yul\":2357:2372   */\n      revert\n        /* \"#utility.yul\":2507:2624   */\n    tag_37:\n        /* \"#utility.yul\":2616:2617   */\n      0x00\n        /* \"#utility.yul\":2613:2614   */\n      dup1\n        /* \"#utility.yul\":2606:2618   */\n      revert\n        /* \"#utility.yul\":2630:2750   */\n    tag_33:\n        /* \"#utility.yul\":2702:2725   */\n      tag_69\n        /* \"#utility.yul\":2719:2724   */\n      dup2\n        /* \"#utility.yul\":2702:2725   */\n      tag_43\n      jump\t// in\n    tag_69:\n        /* \"#utility.yul\":2695:2700   */\n      dup2\n        /* \"#utility.yul\":2692:2726   */\n      eq\n        /* \"#utility.yul\":2682:2744   */\n      tag_70\n      jumpi\n        /* \"#utility.yul\":2740:2741   */\n      0x00\n        /* \"#utility.yul\":2737:2738   */\n      dup1\n        /* \"#utility.yul\":2730:2742   */\n      revert\n        /* \"#utility.yul\":2682:2744   */\n    tag_70:\n        /* \"#utility.yul\":2630:2750   */\n      pop\n      jump\t// out\n\n    auxdata: 0xa26469706673582212208a7be9bbe797393ca0d8f1787fde3afdbe260b644d48ba7fa178b1d5d921b19664736f6c63430008070033\n}\n",
				"bytecode": {
					"linkReferences": {},
					"object": "608060405234801561001057600080fd5b50610357806100206000396000f3fe608060405234801561001057600080fd5b506004361061004c5760003560e01c80630dbe671f146100515780634c627bad1461006f5780634df7e3d01461009f5780638f8a0d19146100bd575b600080fd5b6100596100ed565b6040516100669190610189565b60405180910390f35b6100896004803603810190610084919061013a565b6100f3565b6040516100969190610189565b60405180910390f35b6100a7610109565b6040516100b49190610189565b60405180910390f35b6100d760048036038101906100d2919061013a565b61010f565b6040516100e49190610189565b60405180910390f35b60005481565b600081836101019190610238565b905092915050565b60015481565b6000818361011d91906101a4565b905092915050565b6000813590506101348161030a565b92915050565b6000806040838503121561015157610150610305565b5b600061015f85828601610125565b925050602061017085828601610125565b9150509250929050565b610183816102cc565b82525050565b600060208201905061019e600083018461017a565b92915050565b60006101af826102cc565b91506101ba836102cc565b9250817f7fffffffffffffffffffffffffffffffffffffffffffffffffffffffffffffff038313600083121516156101f5576101f46102d6565b5b817f800000000000000000000000000000000000000000000000000000000000000003831260008312161561022d5761022c6102d6565b5b828201905092915050565b6000610243826102cc565b915061024e836102cc565b9250827f800000000000000000000000000000000000000000000000000000000000000001821260008412151615610289576102886102d6565b5b827f7fffffffffffffffffffffffffffffffffffffffffffffffffffffffffffffff0182136000841216156102c1576102c06102d6565b5b828203905092915050565b6000819050919050565b7f4e487b7100000000000000000000000000000000000000000000000000000000600052601160045260246000fd5b600080fd5b610313816102cc565b811461031e57600080fd5b5056fea26469706673582212208a7be9bbe797393ca0d8f1787fde3afdbe260b644d48ba7fa178b1d5d921b19664736f6c63430008070033",
					"opcodes": "PUSH1 0x80 PUSH1 0x40 MSTORE CALLVALUE DUP1 ISZERO PUSH2 0x10 JUMPI PUSH1 0x0 DUP1 REVERT JUMPDEST POP PUSH2 0x357 DUP1 PUSH2 0x20 PUSH1 0x0 CODECOPY PUSH1 0x0 RETURN INVALID PUSH1 0x80 PUSH1 0x40 MSTORE CALLVALUE DUP1 ISZERO PUSH2 0x10 JUMPI PUSH1 0x0 DUP1 REVERT JUMPDEST POP PUSH1 0x4 CALLDATASIZE LT PUSH2 0x4C JUMPI PUSH1 0x0 CALLDATALOAD PUSH1 0xE0 SHR DUP1 PUSH4 0xDBE671F EQ PUSH2 0x51 JUMPI DUP1 PUSH4 0x4C627BAD EQ PUSH2 0x6F JUMPI DUP1 PUSH4 0x4DF7E3D0 EQ PUSH2 0x9F JUMPI DUP1 PUSH4 0x8F8A0D19 EQ PUSH2 0xBD JUMPI JUMPDEST PUSH1 0x0 DUP1 REVERT JUMPDEST PUSH2 0x59 PUSH2 0xED JUMP JUMPDEST PUSH1 0x40 MLOAD PUSH2 0x66 SWAP2 SWAP1 PUSH2 0x189 JUMP JUMPDEST PUSH1 0x40 MLOAD DUP1 SWAP2 SUB SWAP1 RETURN JUMPDEST PUSH2 0x89 PUSH1 0x4 DUP1 CALLDATASIZE SUB DUP2 ADD SWAP1 PUSH2 0x84 SWAP2 SWAP1 PUSH2 0x13A JUMP JUMPDEST PUSH2 0xF3 JUMP JUMPDEST PUSH1 0x40 MLOAD PUSH2 0x96 SWAP2 SWAP1 PUSH2 0x189 JUMP JUMPDEST PUSH1 0x40 MLOAD DUP1 SWAP2 SUB SWAP1 RETURN JUMPDEST PUSH2 0xA7 PUSH2 0x109 JUMP JUMPDEST PUSH1 0x40 MLOAD PUSH2 0xB4 SWAP2 SWAP1 PUSH2 0x189 JUMP JUMPDEST PUSH1 0x40 MLOAD DUP1 SWAP2 SUB SWAP1 RETURN JUMPDEST PUSH2 0xD7 PUSH1 0x4 DUP1 CALLDATASIZE SUB DUP2 ADD SWAP1 PUSH2 0xD2 SWAP2 SWAP1 PUSH2 0x13A JUMP JUMPDEST PUSH2 0x10F JUMP JUMPDEST PUSH1 0x40 MLOAD PUSH2 0xE4 SWAP2 SWAP1 PUSH2 0x189 JUMP JUMPDEST PUSH1 0x40 MLOAD DUP1 SWAP2 SUB SWAP1 RETURN JUMPDEST PUSH1 0x0 SLOAD DUP2 JUMP JUMPDEST PUSH1 0x0 DUP2 DUP4 PUSH2 0x101 SWAP2 SWAP1 PUSH2 0x238 JUMP JUMPDEST SWAP1 POP SWAP3 SWAP2 POP POP JUMP JUMPDEST PUSH1 0x1 SLOAD DUP2 JUMP JUMPDEST PUSH1 0x0 DUP2 DUP4 PUSH2 0x11D SWAP2 SWAP1 PUSH2 0x1A4 JUMP JUMPDEST SWAP1 POP SWAP3 SWAP2 POP POP JUMP JUMPDEST PUSH1 0x0 DUP2 CALLDATALOAD SWAP1 POP PUSH2 0x134 DUP2 PUSH2 0x30A JUMP JUMPDEST SWAP3 SWAP2 POP POP JUMP JUMPDEST PUSH1 0x0 DUP1 PUSH1 0x40 DUP4 DUP6 SUB SLT ISZERO PUSH2 0x151 JUMPI PUSH2 0x150 PUSH2 0x305 JUMP JUMPDEST JUMPDEST PUSH1 0x0 PUSH2 0x15F DUP6 DUP3 DUP7 ADD PUSH2 0x125 JUMP JUMPDEST SWAP3 POP POP PUSH1 0x20 PUSH2 0x170 DUP6 DUP3 DUP7 ADD PUSH2 0x125 JUMP JUMPDEST SWAP2 POP POP SWAP3 POP SWAP3 SWAP1 POP JUMP JUMPDEST PUSH2 0x183 DUP2 PUSH2 0x2CC JUMP JUMPDEST DUP3 MSTORE POP POP JUMP JUMPDEST PUSH1 0x0 PUSH1 0x20 DUP3 ADD SWAP1 POP PUSH2 0x19E PUSH1 0x0 DUP4 ADD DUP5 PUSH2 0x17A JUMP JUMPDEST SWAP3 SWAP2 POP POP JUMP JUMPDEST PUSH1 0x0 PUSH2 0x1AF DUP3 PUSH2 0x2CC JUMP JUMPDEST SWAP2 POP PUSH2 0x1BA DUP4 PUSH2 0x2CC JUMP JUMPDEST SWAP3 POP DUP2 PUSH32 0x7FFFFFFFFFFFFFFFFFFFFFFFFFFFFFFFFFFFFFFFFFFFFFFFFFFFFFFFFFFFFFFF SUB DUP4 SGT PUSH1 0x0 DUP4 SLT ISZERO AND ISZERO PUSH2 0x1F5 JUMPI PUSH2 0x1F4 PUSH2 0x2D6 JUMP JUMPDEST JUMPDEST DUP2 PUSH32 0x8000000000000000000000000000000000000000000000000000000000000000 SUB DUP4 SLT PUSH1 0x0 DUP4 SLT AND ISZERO PUSH2 0x22D JUMPI PUSH2 0x22C PUSH2 0x2D6 JUMP JUMPDEST JUMPDEST DUP3 DUP3 ADD SWAP1 POP SWAP3 SWAP2 POP POP JUMP JUMPDEST PUSH1 0x0 PUSH2 0x243 DUP3 PUSH2 0x2CC JUMP JUMPDEST SWAP2 POP PUSH2 0x24E DUP4 PUSH2 0x2CC JUMP JUMPDEST SWAP3 POP DUP3 PUSH32 0x8000000000000000000000000000000000000000000000000000000000000000 ADD DUP3 SLT PUSH1 0x0 DUP5 SLT ISZERO AND ISZERO PUSH2 0x289 JUMPI PUSH2 0x288 PUSH2 0x2D6 JUMP JUMPDEST JUMPDEST DUP3 PUSH32 0x7FFFFFFFFFFFFFFFFFFFFFFFFFFFFFFFFFFFFFFFFFFFFFFFFFFFFFFFFFFFFFFF ADD DUP3 SGT PUSH1 0x0 DUP5 SLT AND ISZERO PUSH2 0x2C1 JUMPI PUSH2 0x2C0 PUSH2 0x2D6 JUMP JUMPDEST JUMPDEST DUP3 DUP3 SUB SWAP1 POP SWAP3 SWAP2 POP POP JUMP JUMPDEST PUSH1 0x0 DUP2 SWAP1 POP SWAP2 SWAP1 POP JUMP JUMPDEST PUSH32 0x4E487B7100000000000000000000000000000000000000000000000000000000 PUSH1 0x0 MSTORE PUSH1 0x11 PUSH1 0x4 MSTORE PUSH1 0x24 PUSH1 0x0 REVERT JUMPDEST PUSH1 0x0 DUP1 REVERT JUMPDEST PUSH2 0x313 DUP2 PUSH2 0x2CC JUMP JUMPDEST DUP2 EQ PUSH2 0x31E JUMPI PUSH1 0x0 DUP1 REVERT JUMPDEST POP JUMP INVALID LOG2 PUSH5 0x6970667358 0x22 SLT KECCAK256 DUP11 PUSH28 0xE9BBE797393CA0D8F1787FDE3AFDBE260B644D48BA7FA178B1D5D921 0xB1 SWAP7 PUSH5 0x736F6C6343 STOP ADDMOD SMOD STOP CALLER "
				},
				"gasEstimates": {
					"creation": {
						"codeDepositCost": "171000",
						"executionCost": "214",
						"totalCost": "171214"
					},
					"external": {
						"a()": "2407",
						"b()": "2451",
						"resta(int256,int256)": "infinite",
						"suma(int256,int256)": "infinite"
					},
					"internal": {
						"cuadrado(int256)": "infinite",
						"division(int256,int256)": "infinite",
						"factorial(uint256)": "infinite",
						"multiplicacion(int256,int256)": "infinite",
						"raizCuadrada(int128)": "infinite",
						"raizCuadradaUnsigned(uint256)": "infinite",
						"valorAbsoluto(int256)": "infinite"
					}
				},
				"methodIdentifiers": {
					"a()": "0dbe671f",
					"b()": "4df7e3d0",
					"resta(int256,int256)": "4c627bad",
					"suma(int256,int256)": "8f8a0d19"
				}
			},
			"storageLayout": {
				"storage": [
					{
						"astId": 3,
						"contract": "Documents/GitHub/SOLIDITY-REMIX/5ef069451e67668750287d64bc5f8bae/calculadora.sol:Calculadora",
						"label": "a",
						"offset": 0,
						"slot": "0",
						"type": "t_int256"
					},
					{
						"astId": 5,
						"contract": "Documents/GitHub/SOLIDITY-REMIX/5ef069451e67668750287d64bc5f8bae/calculadora.sol:Calculadora",
						"label": "b",
						"offset": 0,
						"slot": "1",
						"type": "t_int256"
					}
				],
				"types": {
					"t_int256": {
						"encoding": "inplace",
						"label": "int256",
						"numberOfBytes": "32"
					}
				}
			},
			"userdoc": {
				"kind": "user",
				"methods": {},
				"version": 1
			}
		}
	}
}