{
	"Documents/GitHub/SOLIDITY-REMIX/5ef069451e67668750287d64bc5f8bae/calculadora.sol": {
		"Calculadora": {
			"abi": [
				{
					"inputs": [],
					"name": "a",
					"outputs": [
						{
							"internalType": "int256",
							"name": "",
							"type": "int256"
						}
					],
					"stateMutability": "view",
					"type": "function"
				},
				{
					"inputs": [],
					"name": "b",
					"outputs": [
						{
							"internalType": "int256",
							"name": "",
							"type": "int256"
						}
					],
					"stateMutability": "view",
					"type": "function"
				},
				{
					"inputs": [
						{
							"internalType": "int256",
							"name": "_a",
							"type": "int256"
						},
						{
							"internalType": "int256",
							"name": "_b",
							"type": "int256"
						}
					],
					"name": "multiplicacion",
					"outputs": [
						{
							"internalType": "int256",
							"name": "",
							"type": "int256"
						}
					],
					"stateMutability": "pure",
					"type": "function"
				},
				{
					"inputs": [
						{
							"internalType": "int256",
							"name": "_a",
							"type": "int256"
						},
						{
							"internalType": "int256",
							"name": "_b",
							"type": "int256"
						}
					],
					"name": "resta",
					"outputs": [
						{
							"internalType": "int256",
							"name": "",
							"type": "int256"
						}
					],
					"stateMutability": "pure",
					"type": "function"
				},
				{
					"inputs": [
						{
							"internalType": "int256",
							"name": "_a",
							"type": "int256"
						},
						{
							"internalType": "int256",
							"name": "_b",
							"type": "int256"
						}
					],
					"name": "suma",
					"outputs": [
						{
							"internalType": "int256",
							"name": "",
							"type": "int256"
						}
					],
					"stateMutability": "pure",
					"type": "function"
				}
			],
			"devdoc": {
				"kind": "dev",
				"methods": {},
				"version": 1
			},
			"evm": {
				"assembly": "    /* \"Documents/GitHub/SOLIDITY-REMIX/5ef069451e67668750287d64bc5f8bae/calculadora.sol\":68:1774  contract Calculadora {\r... */\n  mstore(0x40, 0x80)\n  callvalue\n  dup1\n  iszero\n  tag_1\n  jumpi\n  0x00\n  dup1\n  revert\ntag_1:\n  pop\n  dataSize(sub_0)\n  dup1\n  dataOffset(sub_0)\n  0x00\n  codecopy\n  0x00\n  return\nstop\n\nsub_0: assembly {\n        /* \"Documents/GitHub/SOLIDITY-REMIX/5ef069451e67668750287d64bc5f8bae/calculadora.sol\":68:1774  contract Calculadora {\r... */\n      mstore(0x40, 0x80)\n      callvalue\n      dup1\n      iszero\n      tag_1\n      jumpi\n      0x00\n      dup1\n      revert\n    tag_1:\n      pop\n      jumpi(tag_2, lt(calldatasize, 0x04))\n      shr(0xe0, calldataload(0x00))\n      dup1\n      0x0dbe671f\n      eq\n      tag_3\n      jumpi\n      dup1\n      0x187983bf\n      eq\n      tag_4\n      jumpi\n      dup1\n      0x4c627bad\n      eq\n      tag_5\n      jumpi\n      dup1\n      0x4df7e3d0\n      eq\n      tag_6\n      jumpi\n      dup1\n      0x8f8a0d19\n      eq\n      tag_7\n      jumpi\n    tag_2:\n      0x00\n      dup1\n      revert\n        /* \"Documents/GitHub/SOLIDITY-REMIX/5ef069451e67668750287d64bc5f8bae/calculadora.sol\":96:108  int public a */\n    tag_3:\n      tag_8\n      tag_9\n      jump\t// in\n    tag_8:\n      mload(0x40)\n      tag_10\n      swap2\n      swap1\n      tag_11\n      jump\t// in\n    tag_10:\n      mload(0x40)\n      dup1\n      swap2\n      sub\n      swap1\n      return\n        /* \"Documents/GitHub/SOLIDITY-REMIX/5ef069451e67668750287d64bc5f8bae/calculadora.sol\":331:430  function multiplicacion(int _a,int _b) public pure returns(int) {\r... */\n    tag_4:\n      tag_12\n      0x04\n      dup1\n      calldatasize\n      sub\n      dup2\n      add\n      swap1\n      tag_13\n      swap2\n      swap1\n      tag_14\n      jump\t// in\n    tag_13:\n      tag_15\n      jump\t// in\n    tag_12:\n      mload(0x40)\n      tag_16\n      swap2\n      swap1\n      tag_11\n      jump\t// in\n    tag_16:\n      mload(0x40)\n      dup1\n      swap2\n      sub\n      swap1\n      return\n        /* \"Documents/GitHub/SOLIDITY-REMIX/5ef069451e67668750287d64bc5f8bae/calculadora.sol\":233:323  function resta(int _a,int _b) public pure returns(int) {\r... */\n    tag_5:\n      tag_17\n      0x04\n      dup1\n      calldatasize\n      sub\n      dup2\n      add\n      swap1\n      tag_18\n      swap2\n      swap1\n      tag_14\n      jump\t// in\n    tag_18:\n      tag_19\n      jump\t// in\n    tag_17:\n      mload(0x40)\n      tag_20\n      swap2\n      swap1\n      tag_11\n      jump\t// in\n    tag_20:\n      mload(0x40)\n      dup1\n      swap2\n      sub\n      swap1\n      return\n        /* \"Documents/GitHub/SOLIDITY-REMIX/5ef069451e67668750287d64bc5f8bae/calculadora.sol\":115:127  int public b */\n    tag_6:\n      tag_21\n      tag_22\n      jump\t// in\n    tag_21:\n      mload(0x40)\n      tag_23\n      swap2\n      swap1\n      tag_11\n      jump\t// in\n    tag_23:\n      mload(0x40)\n      dup1\n      swap2\n      sub\n      swap1\n      return\n        /* \"Documents/GitHub/SOLIDITY-REMIX/5ef069451e67668750287d64bc5f8bae/calculadora.sol\":136:225  function suma(int _a,int _b) public pure returns(int) {\r... */\n    tag_7:\n      tag_24\n      0x04\n      dup1\n      calldatasize\n      sub\n      dup2\n      add\n      swap1\n      tag_25\n      swap2\n      swap1\n      tag_14\n      jump\t// in\n    tag_25:\n      tag_26\n      jump\t// in\n    tag_24:\n      mload(0x40)\n      tag_27\n      swap2\n      swap1\n      tag_11\n      jump\t// in\n    tag_27:\n      mload(0x40)\n      dup1\n      swap2\n      sub\n      swap1\n      return\n        /* \"Documents/GitHub/SOLIDITY-REMIX/5ef069451e67668750287d64bc5f8bae/calculadora.sol\":96:108  int public a */\n    tag_9:\n      sload(0x00)\n      dup2\n      jump\t// out\n        /* \"Documents/GitHub/SOLIDITY-REMIX/5ef069451e67668750287d64bc5f8bae/calculadora.sol\":331:430  function multiplicacion(int _a,int _b) public pure returns(int) {\r... */\n    tag_15:\n        /* \"Documents/GitHub/SOLIDITY-REMIX/5ef069451e67668750287d64bc5f8bae/calculadora.sol\":390:393  int */\n      0x00\n        /* \"Documents/GitHub/SOLIDITY-REMIX/5ef069451e67668750287d64bc5f8bae/calculadora.sol\":419:421  _b */\n      dup2\n        /* \"Documents/GitHub/SOLIDITY-REMIX/5ef069451e67668750287d64bc5f8bae/calculadora.sol\":414:416  _a */\n      dup4\n        /* \"Documents/GitHub/SOLIDITY-REMIX/5ef069451e67668750287d64bc5f8bae/calculadora.sol\":414:421  _a * _b */\n      tag_29\n      swap2\n      swap1\n      tag_30\n      jump\t// in\n    tag_29:\n        /* \"Documents/GitHub/SOLIDITY-REMIX/5ef069451e67668750287d64bc5f8bae/calculadora.sol\":406:422  return (_a * _b) */\n      swap1\n      pop\n        /* \"Documents/GitHub/SOLIDITY-REMIX/5ef069451e67668750287d64bc5f8bae/calculadora.sol\":331:430  function multiplicacion(int _a,int _b) public pure returns(int) {\r... */\n      swap3\n      swap2\n      pop\n      pop\n      jump\t// out\n        /* \"Documents/GitHub/SOLIDITY-REMIX/5ef069451e67668750287d64bc5f8bae/calculadora.sol\":233:323  function resta(int _a,int _b) public pure returns(int) {\r... */\n    tag_19:\n        /* \"Documents/GitHub/SOLIDITY-REMIX/5ef069451e67668750287d64bc5f8bae/calculadora.sol\":283:286  int */\n      0x00\n        /* \"Documents/GitHub/SOLIDITY-REMIX/5ef069451e67668750287d64bc5f8bae/calculadora.sol\":312:314  _b */\n      dup2\n        /* \"Documents/GitHub/SOLIDITY-REMIX/5ef069451e67668750287d64bc5f8bae/calculadora.sol\":307:309  _a */\n      dup4\n        /* \"Documents/GitHub/SOLIDITY-REMIX/5ef069451e67668750287d64bc5f8bae/calculadora.sol\":307:314  _a - _b */\n      tag_32\n      swap2\n      swap1\n      tag_33\n      jump\t// in\n    tag_32:\n        /* \"Documents/GitHub/SOLIDITY-REMIX/5ef069451e67668750287d64bc5f8bae/calculadora.sol\":299:315  return (_a - _b) */\n      swap1\n      pop\n        /* \"Documents/GitHub/SOLIDITY-REMIX/5ef069451e67668750287d64bc5f8bae/calculadora.sol\":233:323  function resta(int _a,int _b) public pure returns(int) {\r... */\n      swap3\n      swap2\n      pop\n      pop\n      jump\t// out\n        /* \"Documents/GitHub/SOLIDITY-REMIX/5ef069451e67668750287d64bc5f8bae/calculadora.sol\":115:127  int public b */\n    tag_22:\n      sload(0x01)\n      dup2\n      jump\t// out\n        /* \"Documents/GitHub/SOLIDITY-REMIX/5ef069451e67668750287d64bc5f8bae/calculadora.sol\":136:225  function suma(int _a,int _b) public pure returns(int) {\r... */\n    tag_26:\n        /* \"Documents/GitHub/SOLIDITY-REMIX/5ef069451e67668750287d64bc5f8bae/calculadora.sol\":185:188  int */\n      0x00\n        /* \"Documents/GitHub/SOLIDITY-REMIX/5ef069451e67668750287d64bc5f8bae/calculadora.sol\":214:216  _b */\n      dup2\n        /* \"Documents/GitHub/SOLIDITY-REMIX/5ef069451e67668750287d64bc5f8bae/calculadora.sol\":209:211  _a */\n      dup4\n        /* \"Documents/GitHub/SOLIDITY-REMIX/5ef069451e67668750287d64bc5f8bae/calculadora.sol\":209:216  _a + _b */\n      tag_35\n      swap2\n      swap1\n      tag_36\n      jump\t// in\n    tag_35:\n        /* \"Documents/GitHub/SOLIDITY-REMIX/5ef069451e67668750287d64bc5f8bae/calculadora.sol\":201:217  return (_a + _b) */\n      swap1\n      pop\n        /* \"Documents/GitHub/SOLIDITY-REMIX/5ef069451e67668750287d64bc5f8bae/calculadora.sol\":136:225  function suma(int _a,int _b) public pure returns(int) {\r... */\n      swap3\n      swap2\n      pop\n      pop\n      jump\t// out\n        /* \"#utility.yul\":7:144   */\n    tag_38:\n        /* \"#utility.yul\":52:57   */\n      0x00\n        /* \"#utility.yul\":90:96   */\n      dup2\n        /* \"#utility.yul\":77:97   */\n      calldataload\n        /* \"#utility.yul\":68:97   */\n      swap1\n      pop\n        /* \"#utility.yul\":106:138   */\n      tag_40\n        /* \"#utility.yul\":132:137   */\n      dup2\n        /* \"#utility.yul\":106:138   */\n      tag_41\n      jump\t// in\n    tag_40:\n        /* \"#utility.yul\":7:144   */\n      swap3\n      swap2\n      pop\n      pop\n      jump\t// out\n        /* \"#utility.yul\":150:620   */\n    tag_14:\n        /* \"#utility.yul\":216:222   */\n      0x00\n        /* \"#utility.yul\":224:230   */\n      dup1\n        /* \"#utility.yul\":273:275   */\n      0x40\n        /* \"#utility.yul\":261:270   */\n      dup4\n        /* \"#utility.yul\":252:259   */\n      dup6\n        /* \"#utility.yul\":248:271   */\n      sub\n        /* \"#utility.yul\":244:276   */\n      slt\n        /* \"#utility.yul\":241:360   */\n      iszero\n      tag_43\n      jumpi\n        /* \"#utility.yul\":279:358   */\n      tag_44\n      tag_45\n      jump\t// in\n    tag_44:\n        /* \"#utility.yul\":241:360   */\n    tag_43:\n        /* \"#utility.yul\":399:400   */\n      0x00\n        /* \"#utility.yul\":424:476   */\n      tag_46\n        /* \"#utility.yul\":468:475   */\n      dup6\n        /* \"#utility.yul\":459:465   */\n      dup3\n        /* \"#utility.yul\":448:457   */\n      dup7\n        /* \"#utility.yul\":444:466   */\n      add\n        /* \"#utility.yul\":424:476   */\n      tag_38\n      jump\t// in\n    tag_46:\n        /* \"#utility.yul\":414:476   */\n      swap3\n      pop\n        /* \"#utility.yul\":370:486   */\n      pop\n        /* \"#utility.yul\":525:527   */\n      0x20\n        /* \"#utility.yul\":551:603   */\n      tag_47\n        /* \"#utility.yul\":595:602   */\n      dup6\n        /* \"#utility.yul\":586:592   */\n      dup3\n        /* \"#utility.yul\":575:584   */\n      dup7\n        /* \"#utility.yul\":571:593   */\n      add\n        /* \"#utility.yul\":551:603   */\n      tag_38\n      jump\t// in\n    tag_47:\n        /* \"#utility.yul\":541:603   */\n      swap2\n      pop\n        /* \"#utility.yul\":496:613   */\n      pop\n        /* \"#utility.yul\":150:620   */\n      swap3\n      pop\n      swap3\n      swap1\n      pop\n      jump\t// out\n        /* \"#utility.yul\":626:741   */\n    tag_48:\n        /* \"#utility.yul\":711:734   */\n      tag_50\n        /* \"#utility.yul\":728:733   */\n      dup2\n        /* \"#utility.yul\":711:734   */\n      tag_51\n      jump\t// in\n    tag_50:\n        /* \"#utility.yul\":706:709   */\n      dup3\n        /* \"#utility.yul\":699:735   */\n      mstore\n        /* \"#utility.yul\":626:741   */\n      pop\n      pop\n      jump\t// out\n        /* \"#utility.yul\":747:965   */\n    tag_11:\n        /* \"#utility.yul\":838:842   */\n      0x00\n        /* \"#utility.yul\":876:878   */\n      0x20\n        /* \"#utility.yul\":865:874   */\n      dup3\n        /* \"#utility.yul\":861:879   */\n      add\n        /* \"#utility.yul\":853:879   */\n      swap1\n      pop\n        /* \"#utility.yul\":889:958   */\n      tag_53\n        /* \"#utility.yul\":955:956   */\n      0x00\n        /* \"#utility.yul\":944:953   */\n      dup4\n        /* \"#utility.yul\":940:957   */\n      add\n        /* \"#utility.yul\":931:937   */\n      dup5\n        /* \"#utility.yul\":889:958   */\n      tag_48\n      jump\t// in\n    tag_53:\n        /* \"#utility.yul\":747:965   */\n      swap3\n      swap2\n      pop\n      pop\n      jump\t// out\n        /* \"#utility.yul\":1052:1577   */\n    tag_36:\n        /* \"#utility.yul\":1091:1094   */\n      0x00\n        /* \"#utility.yul\":1110:1129   */\n      tag_57\n        /* \"#utility.yul\":1127:1128   */\n      dup3\n        /* \"#utility.yul\":1110:1129   */\n      tag_51\n      jump\t// in\n    tag_57:\n        /* \"#utility.yul\":1105:1129   */\n      swap2\n      pop\n        /* \"#utility.yul\":1143:1162   */\n      tag_58\n        /* \"#utility.yul\":1160:1161   */\n      dup4\n        /* \"#utility.yul\":1143:1162   */\n      tag_51\n      jump\t// in\n    tag_58:\n        /* \"#utility.yul\":1138:1162   */\n      swap3\n      pop\n        /* \"#utility.yul\":1331:1332   */\n      dup2\n        /* \"#utility.yul\":1263:1329   */\n      0x7fffffffffffffffffffffffffffffffffffffffffffffffffffffffffffffff\n        /* \"#utility.yul\":1259:1333   */\n      sub\n        /* \"#utility.yul\":1256:1257   */\n      dup4\n        /* \"#utility.yul\":1252:1334   */\n      sgt\n        /* \"#utility.yul\":1247:1248   */\n      0x00\n        /* \"#utility.yul\":1244:1245   */\n      dup4\n        /* \"#utility.yul\":1240:1249   */\n      slt\n        /* \"#utility.yul\":1233:1250   */\n      iszero\n        /* \"#utility.yul\":1229:1335   */\n      and\n        /* \"#utility.yul\":1226:1358   */\n      iszero\n      tag_59\n      jumpi\n        /* \"#utility.yul\":1338:1356   */\n      tag_60\n      tag_61\n      jump\t// in\n    tag_60:\n        /* \"#utility.yul\":1226:1358   */\n    tag_59:\n        /* \"#utility.yul\":1518:1519   */\n      dup2\n        /* \"#utility.yul\":1450:1516   */\n      0x8000000000000000000000000000000000000000000000000000000000000000\n        /* \"#utility.yul\":1446:1520   */\n      sub\n        /* \"#utility.yul\":1443:1444   */\n      dup4\n        /* \"#utility.yul\":1439:1521   */\n      slt\n        /* \"#utility.yul\":1435:1436   */\n      0x00\n        /* \"#utility.yul\":1432:1433   */\n      dup4\n        /* \"#utility.yul\":1428:1437   */\n      slt\n        /* \"#utility.yul\":1424:1522   */\n      and\n        /* \"#utility.yul\":1421:1545   */\n      iszero\n      tag_62\n      jumpi\n        /* \"#utility.yul\":1525:1543   */\n      tag_63\n      tag_61\n      jump\t// in\n    tag_63:\n        /* \"#utility.yul\":1421:1545   */\n    tag_62:\n        /* \"#utility.yul\":1569:1570   */\n      dup3\n        /* \"#utility.yul\":1566:1567   */\n      dup3\n        /* \"#utility.yul\":1562:1571   */\n      add\n        /* \"#utility.yul\":1555:1571   */\n      swap1\n      pop\n        /* \"#utility.yul\":1052:1577   */\n      swap3\n      swap2\n      pop\n      pop\n      jump\t// out\n        /* \"#utility.yul\":1583:2574   */\n    tag_30:\n        /* \"#utility.yul\":1622:1629   */\n      0x00\n        /* \"#utility.yul\":1645:1664   */\n      tag_65\n        /* \"#utility.yul\":1662:1663   */\n      dup3\n        /* \"#utility.yul\":1645:1664   */\n      tag_51\n      jump\t// in\n    tag_65:\n        /* \"#utility.yul\":1640:1664   */\n      swap2\n      pop\n        /* \"#utility.yul\":1678:1697   */\n      tag_66\n        /* \"#utility.yul\":1695:1696   */\n      dup4\n        /* \"#utility.yul\":1678:1697   */\n      tag_51\n      jump\t// in\n    tag_66:\n        /* \"#utility.yul\":1673:1697   */\n      swap3\n      pop\n        /* \"#utility.yul\":1879:1880   */\n      dup3\n        /* \"#utility.yul\":1811:1877   */\n      0x7fffffffffffffffffffffffffffffffffffffffffffffffffffffffffffffff\n        /* \"#utility.yul\":1807:1881   */\n      div\n        /* \"#utility.yul\":1804:1805   */\n      dup3\n        /* \"#utility.yul\":1801:1882   */\n      gt\n        /* \"#utility.yul\":1796:1797   */\n      0x00\n        /* \"#utility.yul\":1793:1794   */\n      dup5\n        /* \"#utility.yul\":1789:1798   */\n      sgt\n        /* \"#utility.yul\":1785:1786   */\n      0x00\n        /* \"#utility.yul\":1782:1783   */\n      dup5\n        /* \"#utility.yul\":1778:1787   */\n      sgt\n        /* \"#utility.yul\":1774:1799   */\n      and\n        /* \"#utility.yul\":1770:1883   */\n      and\n        /* \"#utility.yul\":1767:1906   */\n      iszero\n      tag_67\n      jumpi\n        /* \"#utility.yul\":1886:1904   */\n      tag_68\n      tag_61\n      jump\t// in\n    tag_68:\n        /* \"#utility.yul\":1767:1906   */\n    tag_67:\n        /* \"#utility.yul\":2090:2091   */\n      dup2\n        /* \"#utility.yul\":2022:2088   */\n      0x8000000000000000000000000000000000000000000000000000000000000000\n        /* \"#utility.yul\":2017:2092   */\n      sdiv\n        /* \"#utility.yul\":2014:2015   */\n      dup4\n        /* \"#utility.yul\":2010:2093   */\n      slt\n        /* \"#utility.yul\":2005:2006   */\n      0x00\n        /* \"#utility.yul\":2002:2003   */\n      dup5\n        /* \"#utility.yul\":1998:2007   */\n      slt\n        /* \"#utility.yul\":1994:1995   */\n      0x00\n        /* \"#utility.yul\":1991:1992   */\n      dup5\n        /* \"#utility.yul\":1987:1996   */\n      sgt\n        /* \"#utility.yul\":1983:2008   */\n      and\n        /* \"#utility.yul\":1979:2094   */\n      and\n        /* \"#utility.yul\":1976:2117   */\n      iszero\n      tag_69\n      jumpi\n        /* \"#utility.yul\":2097:2115   */\n      tag_70\n      tag_61\n      jump\t// in\n    tag_70:\n        /* \"#utility.yul\":1976:2117   */\n    tag_69:\n        /* \"#utility.yul\":2301:2302   */\n      dup3\n        /* \"#utility.yul\":2233:2299   */\n      0x8000000000000000000000000000000000000000000000000000000000000000\n        /* \"#utility.yul\":2228:2303   */\n      sdiv\n        /* \"#utility.yul\":2225:2226   */\n      dup3\n        /* \"#utility.yul\":2221:2304   */\n      slt\n        /* \"#utility.yul\":2216:2217   */\n      0x00\n        /* \"#utility.yul\":2213:2214   */\n      dup5\n        /* \"#utility.yul\":2209:2218   */\n      sgt\n        /* \"#utility.yul\":2205:2206   */\n      0x00\n        /* \"#utility.yul\":2202:2203   */\n      dup5\n        /* \"#utility.yul\":2198:2207   */\n      slt\n        /* \"#utility.yul\":2194:2219   */\n      and\n        /* \"#utility.yul\":2190:2305   */\n      and\n        /* \"#utility.yul\":2187:2328   */\n      iszero\n      tag_71\n      jumpi\n        /* \"#utility.yul\":2308:2326   */\n      tag_72\n      tag_61\n      jump\t// in\n    tag_72:\n        /* \"#utility.yul\":2187:2328   */\n    tag_71:\n        /* \"#utility.yul\":2511:2512   */\n      dup3\n        /* \"#utility.yul\":2443:2509   */\n      0x7fffffffffffffffffffffffffffffffffffffffffffffffffffffffffffffff\n        /* \"#utility.yul\":2438:2513   */\n      sdiv\n        /* \"#utility.yul\":2435:2436   */\n      dup3\n        /* \"#utility.yul\":2431:2514   */\n      slt\n        /* \"#utility.yul\":2426:2427   */\n      0x00\n        /* \"#utility.yul\":2423:2424   */\n      dup5\n        /* \"#utility.yul\":2419:2428   */\n      slt\n        /* \"#utility.yul\":2415:2416   */\n      0x00\n        /* \"#utility.yul\":2412:2413   */\n      dup5\n        /* \"#utility.yul\":2408:2417   */\n      slt\n        /* \"#utility.yul\":2404:2429   */\n      and\n        /* \"#utility.yul\":2400:2515   */\n      and\n        /* \"#utility.yul\":2397:2538   */\n      iszero\n      tag_73\n      jumpi\n        /* \"#utility.yul\":2518:2536   */\n      tag_74\n      tag_61\n      jump\t// in\n    tag_74:\n        /* \"#utility.yul\":2397:2538   */\n    tag_73:\n        /* \"#utility.yul\":2566:2567   */\n      dup3\n        /* \"#utility.yul\":2563:2564   */\n      dup3\n        /* \"#utility.yul\":2559:2568   */\n      mul\n        /* \"#utility.yul\":2548:2568   */\n      swap1\n      pop\n        /* \"#utility.yul\":1583:2574   */\n      swap3\n      swap2\n      pop\n      pop\n      jump\t// out\n        /* \"#utility.yul\":2580:3107   */\n    tag_33:\n        /* \"#utility.yul\":2619:2623   */\n      0x00\n        /* \"#utility.yul\":2639:2658   */\n      tag_76\n        /* \"#utility.yul\":2656:2657   */\n      dup3\n        /* \"#utility.yul\":2639:2658   */\n      tag_51\n      jump\t// in\n    tag_76:\n        /* \"#utility.yul\":2634:2658   */\n      swap2\n      pop\n        /* \"#utility.yul\":2672:2691   */\n      tag_77\n        /* \"#utility.yul\":2689:2690   */\n      dup4\n        /* \"#utility.yul\":2672:2691   */\n      tag_51\n      jump\t// in\n    tag_77:\n        /* \"#utility.yul\":2667:2691   */\n      swap3\n      pop\n        /* \"#utility.yul\":2861:2862   */\n      dup3\n        /* \"#utility.yul\":2793:2859   */\n      0x8000000000000000000000000000000000000000000000000000000000000000\n        /* \"#utility.yul\":2789:2863   */\n      add\n        /* \"#utility.yul\":2786:2787   */\n      dup3\n        /* \"#utility.yul\":2782:2864   */\n      slt\n        /* \"#utility.yul\":2777:2778   */\n      0x00\n        /* \"#utility.yul\":2774:2775   */\n      dup5\n        /* \"#utility.yul\":2770:2779   */\n      slt\n        /* \"#utility.yul\":2763:2780   */\n      iszero\n        /* \"#utility.yul\":2759:2865   */\n      and\n        /* \"#utility.yul\":2756:2888   */\n      iszero\n      tag_78\n      jumpi\n        /* \"#utility.yul\":2868:2886   */\n      tag_79\n      tag_61\n      jump\t// in\n    tag_79:\n        /* \"#utility.yul\":2756:2888   */\n    tag_78:\n        /* \"#utility.yul\":3047:3048   */\n      dup3\n        /* \"#utility.yul\":2979:3045   */\n      0x7fffffffffffffffffffffffffffffffffffffffffffffffffffffffffffffff\n        /* \"#utility.yul\":2975:3049   */\n      add\n        /* \"#utility.yul\":2972:2973   */\n      dup3\n        /* \"#utility.yul\":2968:3050   */\n      sgt\n        /* \"#utility.yul\":2964:2965   */\n      0x00\n        /* \"#utility.yul\":2961:2962   */\n      dup5\n        /* \"#utility.yul\":2957:2966   */\n      slt\n        /* \"#utility.yul\":2953:3051   */\n      and\n        /* \"#utility.yul\":2950:3074   */\n      iszero\n      tag_80\n      jumpi\n        /* \"#utility.yul\":3054:3072   */\n      tag_81\n      tag_61\n      jump\t// in\n    tag_81:\n        /* \"#utility.yul\":2950:3074   */\n    tag_80:\n        /* \"#utility.yul\":3099:3100   */\n      dup3\n        /* \"#utility.yul\":3096:3097   */\n      dup3\n        /* \"#utility.yul\":3092:3101   */\n      sub\n        /* \"#utility.yul\":3084:3101   */\n      swap1\n      pop\n        /* \"#utility.yul\":2580:3107   */\n      swap3\n      swap2\n      pop\n      pop\n      jump\t// out\n        /* \"#utility.yul\":3113:3189   */\n    tag_51:\n        /* \"#utility.yul\":3149:3156   */\n      0x00\n        /* \"#utility.yul\":3178:3183   */\n      dup2\n        /* \"#utility.yul\":3167:3183   */\n      swap1\n      pop\n        /* \"#utility.yul\":3113:3189   */\n      swap2\n      swap1\n      pop\n      jump\t// out\n        /* \"#utility.yul\":3195:3375   */\n    tag_61:\n        /* \"#utility.yul\":3243:3320   */\n      0x4e487b7100000000000000000000000000000000000000000000000000000000\n        /* \"#utility.yul\":3240:3241   */\n      0x00\n        /* \"#utility.yul\":3233:3321   */\n      mstore\n        /* \"#utility.yul\":3340:3344   */\n      0x11\n        /* \"#utility.yul\":3337:3338   */\n      0x04\n        /* \"#utility.yul\":3330:3345   */\n      mstore\n        /* \"#utility.yul\":3364:3368   */\n      0x24\n        /* \"#utility.yul\":3361:3362   */\n      0x00\n        /* \"#utility.yul\":3354:3369   */\n      revert\n        /* \"#utility.yul\":3504:3621   */\n    tag_45:\n        /* \"#utility.yul\":3613:3614   */\n      0x00\n        /* \"#utility.yul\":3610:3611   */\n      dup1\n        /* \"#utility.yul\":3603:3615   */\n      revert\n        /* \"#utility.yul\":3627:3747   */\n    tag_41:\n        /* \"#utility.yul\":3699:3722   */\n      tag_88\n        /* \"#utility.yul\":3716:3721   */\n      dup2\n        /* \"#utility.yul\":3699:3722   */\n      tag_51\n      jump\t// in\n    tag_88:\n        /* \"#utility.yul\":3692:3697   */\n      dup2\n        /* \"#utility.yul\":3689:3723   */\n      eq\n        /* \"#utility.yul\":3679:3741   */\n      tag_89\n      jumpi\n        /* \"#utility.yul\":3737:3738   */\n      0x00\n        /* \"#utility.yul\":3734:3735   */\n      dup1\n        /* \"#utility.yul\":3727:3739   */\n      revert\n        /* \"#utility.yul\":3679:3741   */\n    tag_89:\n        /* \"#utility.yul\":3627:3747   */\n      pop\n      jump\t// out\n\n    auxdata: 0xa26469706673582212209b3a6c5c79a43e9bf10c21ff9083e865d390cedf7f40f76e32a87f322c2ad70364736f6c63430008070033\n}\n",
				"bytecode": {
					"linkReferences": {},
					"object": "608060405234801561001057600080fd5b506104bf806100206000396000f3fe608060405234801561001057600080fd5b50600436106100575760003560e01c80630dbe671f1461005c578063187983bf1461007a5780634c627bad146100aa5780634df7e3d0146100da5780638f8a0d19146100f8575b600080fd5b610064610128565b60405161007191906101da565b60405180910390f35b610094600480360381019061008f919061018b565b61012e565b6040516100a191906101da565b60405180910390f35b6100c460048036038101906100bf919061018b565b610144565b6040516100d191906101da565b60405180910390f35b6100e261015a565b6040516100ef91906101da565b60405180910390f35b610112600480360381019061010d919061018b565b610160565b60405161011f91906101da565b60405180910390f35b60005481565b6000818361013c9190610289565b905092915050565b6000818361015291906103a0565b905092915050565b60015481565b6000818361016e91906101f5565b905092915050565b60008135905061018581610472565b92915050565b600080604083850312156101a2576101a161046d565b5b60006101b085828601610176565b92505060206101c185828601610176565b9150509250929050565b6101d481610434565b82525050565b60006020820190506101ef60008301846101cb565b92915050565b600061020082610434565b915061020b83610434565b9250817f7fffffffffffffffffffffffffffffffffffffffffffffffffffffffffffffff038313600083121516156102465761024561043e565b5b817f800000000000000000000000000000000000000000000000000000000000000003831260008312161561027e5761027d61043e565b5b828201905092915050565b600061029482610434565b915061029f83610434565b9250827f7fffffffffffffffffffffffffffffffffffffffffffffffffffffffffffffff04821160008413600084131616156102de576102dd61043e565b5b817f8000000000000000000000000000000000000000000000000000000000000000058312600084126000841316161561031b5761031a61043e565b5b827f800000000000000000000000000000000000000000000000000000000000000005821260008413600084121616156103585761035761043e565b5b827f7fffffffffffffffffffffffffffffffffffffffffffffffffffffffffffffff05821260008412600084121616156103955761039461043e565b5b828202905092915050565b60006103ab82610434565b91506103b683610434565b9250827f8000000000000000000000000000000000000000000000000000000000000000018212600084121516156103f1576103f061043e565b5b827f7fffffffffffffffffffffffffffffffffffffffffffffffffffffffffffffff0182136000841216156104295761042861043e565b5b828203905092915050565b6000819050919050565b7f4e487b7100000000000000000000000000000000000000000000000000000000600052601160045260246000fd5b600080fd5b61047b81610434565b811461048657600080fd5b5056fea26469706673582212209b3a6c5c79a43e9bf10c21ff9083e865d390cedf7f40f76e32a87f322c2ad70364736f6c63430008070033",
					"opcodes": "PUSH1 0x80 PUSH1 0x40 MSTORE CALLVALUE DUP1 ISZERO PUSH2 0x10 JUMPI PUSH1 0x0 DUP1 REVERT JUMPDEST POP PUSH2 0x4BF DUP1 PUSH2 0x20 PUSH1 0x0 CODECOPY PUSH1 0x0 RETURN INVALID PUSH1 0x80 PUSH1 0x40 MSTORE CALLVALUE DUP1 ISZERO PUSH2 0x10 JUMPI PUSH1 0x0 DUP1 REVERT JUMPDEST POP PUSH1 0x4 CALLDATASIZE LT PUSH2 0x57 JUMPI PUSH1 0x0 CALLDATALOAD PUSH1 0xE0 SHR DUP1 PUSH4 0xDBE671F EQ PUSH2 0x5C JUMPI DUP1 PUSH4 0x187983BF EQ PUSH2 0x7A JUMPI DUP1 PUSH4 0x4C627BAD EQ PUSH2 0xAA JUMPI DUP1 PUSH4 0x4DF7E3D0 EQ PUSH2 0xDA JUMPI DUP1 PUSH4 0x8F8A0D19 EQ PUSH2 0xF8 JUMPI JUMPDEST PUSH1 0x0 DUP1 REVERT JUMPDEST PUSH2 0x64 PUSH2 0x128 JUMP JUMPDEST PUSH1 0x40 MLOAD PUSH2 0x71 SWAP2 SWAP1 PUSH2 0x1DA JUMP JUMPDEST PUSH1 0x40 MLOAD DUP1 SWAP2 SUB SWAP1 RETURN JUMPDEST PUSH2 0x94 PUSH1 0x4 DUP1 CALLDATASIZE SUB DUP2 ADD SWAP1 PUSH2 0x8F SWAP2 SWAP1 PUSH2 0x18B JUMP JUMPDEST PUSH2 0x12E JUMP JUMPDEST PUSH1 0x40 MLOAD PUSH2 0xA1 SWAP2 SWAP1 PUSH2 0x1DA JUMP JUMPDEST PUSH1 0x40 MLOAD DUP1 SWAP2 SUB SWAP1 RETURN JUMPDEST PUSH2 0xC4 PUSH1 0x4 DUP1 CALLDATASIZE SUB DUP2 ADD SWAP1 PUSH2 0xBF SWAP2 SWAP1 PUSH2 0x18B JUMP JUMPDEST PUSH2 0x144 JUMP JUMPDEST PUSH1 0x40 MLOAD PUSH2 0xD1 SWAP2 SWAP1 PUSH2 0x1DA JUMP JUMPDEST PUSH1 0x40 MLOAD DUP1 SWAP2 SUB SWAP1 RETURN JUMPDEST PUSH2 0xE2 PUSH2 0x15A JUMP JUMPDEST PUSH1 0x40 MLOAD PUSH2 0xEF SWAP2 SWAP1 PUSH2 0x1DA JUMP JUMPDEST PUSH1 0x40 MLOAD DUP1 SWAP2 SUB SWAP1 RETURN JUMPDEST PUSH2 0x112 PUSH1 0x4 DUP1 CALLDATASIZE SUB DUP2 ADD SWAP1 PUSH2 0x10D SWAP2 SWAP1 PUSH2 0x18B JUMP JUMPDEST PUSH2 0x160 JUMP JUMPDEST PUSH1 0x40 MLOAD PUSH2 0x11F SWAP2 SWAP1 PUSH2 0x1DA JUMP JUMPDEST PUSH1 0x40 MLOAD DUP1 SWAP2 SUB SWAP1 RETURN JUMPDEST PUSH1 0x0 SLOAD DUP2 JUMP JUMPDEST PUSH1 0x0 DUP2 DUP4 PUSH2 0x13C SWAP2 SWAP1 PUSH2 0x289 JUMP JUMPDEST SWAP1 POP SWAP3 SWAP2 POP POP JUMP JUMPDEST PUSH1 0x0 DUP2 DUP4 PUSH2 0x152 SWAP2 SWAP1 PUSH2 0x3A0 JUMP JUMPDEST SWAP1 POP SWAP3 SWAP2 POP POP JUMP JUMPDEST PUSH1 0x1 SLOAD DUP2 JUMP JUMPDEST PUSH1 0x0 DUP2 DUP4 PUSH2 0x16E SWAP2 SWAP1 PUSH2 0x1F5 JUMP JUMPDEST SWAP1 POP SWAP3 SWAP2 POP POP JUMP JUMPDEST PUSH1 0x0 DUP2 CALLDATALOAD SWAP1 POP PUSH2 0x185 DUP2 PUSH2 0x472 JUMP JUMPDEST SWAP3 SWAP2 POP POP JUMP JUMPDEST PUSH1 0x0 DUP1 PUSH1 0x40 DUP4 DUP6 SUB SLT ISZERO PUSH2 0x1A2 JUMPI PUSH2 0x1A1 PUSH2 0x46D JUMP JUMPDEST JUMPDEST PUSH1 0x0 PUSH2 0x1B0 DUP6 DUP3 DUP7 ADD PUSH2 0x176 JUMP JUMPDEST SWAP3 POP POP PUSH1 0x20 PUSH2 0x1C1 DUP6 DUP3 DUP7 ADD PUSH2 0x176 JUMP JUMPDEST SWAP2 POP POP SWAP3 POP SWAP3 SWAP1 POP JUMP JUMPDEST PUSH2 0x1D4 DUP2 PUSH2 0x434 JUMP JUMPDEST DUP3 MSTORE POP POP JUMP JUMPDEST PUSH1 0x0 PUSH1 0x20 DUP3 ADD SWAP1 POP PUSH2 0x1EF PUSH1 0x0 DUP4 ADD DUP5 PUSH2 0x1CB JUMP JUMPDEST SWAP3 SWAP2 POP POP JUMP JUMPDEST PUSH1 0x0 PUSH2 0x200 DUP3 PUSH2 0x434 JUMP JUMPDEST SWAP2 POP PUSH2 0x20B DUP4 PUSH2 0x434 JUMP JUMPDEST SWAP3 POP DUP2 PUSH32 0x7FFFFFFFFFFFFFFFFFFFFFFFFFFFFFFFFFFFFFFFFFFFFFFFFFFFFFFFFFFFFFFF SUB DUP4 SGT PUSH1 0x0 DUP4 SLT ISZERO AND ISZERO PUSH2 0x246 JUMPI PUSH2 0x245 PUSH2 0x43E JUMP JUMPDEST JUMPDEST DUP2 PUSH32 0x8000000000000000000000000000000000000000000000000000000000000000 SUB DUP4 SLT PUSH1 0x0 DUP4 SLT AND ISZERO PUSH2 0x27E JUMPI PUSH2 0x27D PUSH2 0x43E JUMP JUMPDEST JUMPDEST DUP3 DUP3 ADD SWAP1 POP SWAP3 SWAP2 POP POP JUMP JUMPDEST PUSH1 0x0 PUSH2 0x294 DUP3 PUSH2 0x434 JUMP JUMPDEST SWAP2 POP PUSH2 0x29F DUP4 PUSH2 0x434 JUMP JUMPDEST SWAP3 POP DUP3 PUSH32 0x7FFFFFFFFFFFFFFFFFFFFFFFFFFFFFFFFFFFFFFFFFFFFFFFFFFFFFFFFFFFFFFF DIV DUP3 GT PUSH1 0x0 DUP5 SGT PUSH1 0x0 DUP5 SGT AND AND ISZERO PUSH2 0x2DE JUMPI PUSH2 0x2DD PUSH2 0x43E JUMP JUMPDEST JUMPDEST DUP2 PUSH32 0x8000000000000000000000000000000000000000000000000000000000000000 SDIV DUP4 SLT PUSH1 0x0 DUP5 SLT PUSH1 0x0 DUP5 SGT AND AND ISZERO PUSH2 0x31B JUMPI PUSH2 0x31A PUSH2 0x43E JUMP JUMPDEST JUMPDEST DUP3 PUSH32 0x8000000000000000000000000000000000000000000000000000000000000000 SDIV DUP3 SLT PUSH1 0x0 DUP5 SGT PUSH1 0x0 DUP5 SLT AND AND ISZERO PUSH2 0x358 JUMPI PUSH2 0x357 PUSH2 0x43E JUMP JUMPDEST JUMPDEST DUP3 PUSH32 0x7FFFFFFFFFFFFFFFFFFFFFFFFFFFFFFFFFFFFFFFFFFFFFFFFFFFFFFFFFFFFFFF SDIV DUP3 SLT PUSH1 0x0 DUP5 SLT PUSH1 0x0 DUP5 SLT AND AND ISZERO PUSH2 0x395 JUMPI PUSH2 0x394 PUSH2 0x43E JUMP JUMPDEST JUMPDEST DUP3 DUP3 MUL SWAP1 POP SWAP3 SWAP2 POP POP JUMP JUMPDEST PUSH1 0x0 PUSH2 0x3AB DUP3 PUSH2 0x434 JUMP JUMPDEST SWAP2 POP PUSH2 0x3B6 DUP4 PUSH2 0x434 JUMP JUMPDEST SWAP3 POP DUP3 PUSH32 0x8000000000000000000000000000000000000000000000000000000000000000 ADD DUP3 SLT PUSH1 0x0 DUP5 SLT ISZERO AND ISZERO PUSH2 0x3F1 JUMPI PUSH2 0x3F0 PUSH2 0x43E JUMP JUMPDEST JUMPDEST DUP3 PUSH32 0x7FFFFFFFFFFFFFFFFFFFFFFFFFFFFFFFFFFFFFFFFFFFFFFFFFFFFFFFFFFFFFFF ADD DUP3 SGT PUSH1 0x0 DUP5 SLT AND ISZERO PUSH2 0x429 JUMPI PUSH2 0x428 PUSH2 0x43E JUMP JUMPDEST JUMPDEST DUP3 DUP3 SUB SWAP1 POP SWAP3 SWAP2 POP POP JUMP JUMPDEST PUSH1 0x0 DUP2 SWAP1 POP SWAP2 SWAP1 POP JUMP JUMPDEST PUSH32 0x4E487B7100000000000000000000000000000000000000000000000000000000 PUSH1 0x0 MSTORE PUSH1 0x11 PUSH1 0x4 MSTORE PUSH1 0x24 PUSH1 0x0 REVERT JUMPDEST PUSH1 0x0 DUP1 REVERT JUMPDEST PUSH2 0x47B DUP2 PUSH2 0x434 JUMP JUMPDEST DUP2 EQ PUSH2 0x486 JUMPI PUSH1 0x0 DUP1 REVERT JUMPDEST POP JUMP INVALID LOG2 PUSH5 0x6970667358 0x22 SLT KECCAK256 SWAP12 GASPRICE PUSH13 0x5C79A43E9BF10C21FF9083E865 0xD3 SWAP1 0xCE 0xDF PUSH32 0x40F76E32A87F322C2AD70364736F6C6343000807003300000000000000000000 "
				},
				"gasEstimates": {
					"creation": {
						"codeDepositCost": "243000",
						"executionCost": "281",
						"totalCost": "243281"
					},
					"external": {
						"a()": "2407",
						"b()": "2473",
						"multiplicacion(int256,int256)": "infinite",
						"resta(int256,int256)": "infinite",
						"suma(int256,int256)": "infinite"
					},
					"internal": {
						"cuadrado(int256)": "infinite",
						"division(int256,int256)": "infinite",
						"factorial(uint256)": "infinite",
						"raizCuadrada(int128)": "infinite",
						"raizCuadradaUnsigned(uint256)": "infinite",
						"valorAbsoluto(int256)": "infinite"
					}
				},
				"methodIdentifiers": {
					"a()": "0dbe671f",
					"b()": "4df7e3d0",
					"multiplicacion(int256,int256)": "187983bf",
					"resta(int256,int256)": "4c627bad",
					"suma(int256,int256)": "8f8a0d19"
				}
			},
			"storageLayout": {
				"storage": [
					{
						"astId": 3,
						"contract": "Documents/GitHub/SOLIDITY-REMIX/5ef069451e67668750287d64bc5f8bae/calculadora.sol:Calculadora",
						"label": "a",
						"offset": 0,
						"slot": "0",
						"type": "t_int256"
					},
					{
						"astId": 5,
						"contract": "Documents/GitHub/SOLIDITY-REMIX/5ef069451e67668750287d64bc5f8bae/calculadora.sol:Calculadora",
						"label": "b",
						"offset": 0,
						"slot": "1",
						"type": "t_int256"
					}
				],
				"types": {
					"t_int256": {
						"encoding": "inplace",
						"label": "int256",
						"numberOfBytes": "32"
					}
				}
			},
			"userdoc": {
				"kind": "user",
				"methods": {},
				"version": 1
			}
		}
	}
}