{
	"data": {
		"bytecode": {
			"linkReferences": {
				"remix_tests.sol": {
					"Assert": [
						{
							"length": 20,
							"start": 113
						},
						{
							"length": 20,
							"start": 424
						},
						{
							"length": 20,
							"start": 735
						},
						{
							"length": 20,
							"start": 1046
						},
						{
							"length": 20,
							"start": 1357
						},
						{
							"length": 20,
							"start": 1665
						},
						{
							"length": 20,
							"start": 2004
						},
						{
							"length": 20,
							"start": 2312
						}
					]
				}
			},
			"object": "608060405234801561001057600080fd5b50611dbf806100206000396000f3fe608060405234801561001057600080fd5b50600436106100365760003560e01c8063011e64921461003b5780637fea0d4b14610045575b600080fd5b61004361004f565b005b61004d610a1c565b005b73__$acbfb1c35000d78352310b16a054a6b106$__63f5bae6b660008054906101000a900473ffffffffffffffffffffffffffffffffffffffff1673ffffffffffffffffffffffffffffffffffffffff16638f8a0d19600960036040518363ffffffff1660e01b81526004016100c6929190610ec0565b60206040518083038186803b1580156100de57600080fd5b505afa1580156100f2573d6000803e3d6000fd5b505050506040513d601f19601f820116820180604052508101906101169190610aff565b600c6040518363ffffffff1660e01b8152600401610135929190610d43565b60206040518083038186803b15801561014d57600080fd5b505af4158015610161573d6000803e3d6000fd5b505050506040513d601f19601f820116820180604052508101906101859190610ad2565b5073__$acbfb1c35000d78352310b16a054a6b106$__63f5bae6b660008054906101000a900473ffffffffffffffffffffffffffffffffffffffff1673ffffffffffffffffffffffffffffffffffffffff16634c627bad600960036040518363ffffffff1660e01b81526004016101fd929190610ec0565b60206040518083038186803b15801561021557600080fd5b505afa158015610229573d6000803e3d6000fd5b505050506040513d601f19601f8201168201806040525081019061024d9190610aff565b60066040518363ffffffff1660e01b815260040161026c929190610e33565b60206040518083038186803b15801561028457600080fd5b505af4158015610298573d6000803e3d6000fd5b505050506040513d601f19601f820116820180604052508101906102bc9190610ad2565b5073__$acbfb1c35000d78352310b16a054a6b106$__63f5bae6b660008054906101000a900473ffffffffffffffffffffffffffffffffffffffff1673ffffffffffffffffffffffffffffffffffffffff1663187983bf600960036040518363ffffffff1660e01b8152600401610334929190610ec0565b60206040518083038186803b15801561034c57600080fd5b505afa158015610360573d6000803e3d6000fd5b505050506040513d601f19601f820116820180604052508101906103849190610aff565b601b6040518363ffffffff1660e01b81526004016103a3929190610d7f565b60206040518083038186803b1580156103bb57600080fd5b505af41580156103cf573d6000803e3d6000fd5b505050506040513d601f19601f820116820180604052508101906103f39190610ad2565b5073__$acbfb1c35000d78352310b16a054a6b106$__63f5bae6b660008054906101000a900473ffffffffffffffffffffffffffffffffffffffff1673ffffffffffffffffffffffffffffffffffffffff166309b7cdda600960036040518363ffffffff1660e01b815260040161046b929190610ec0565b60206040518083038186803b15801561048357600080fd5b505afa158015610497573d6000803e3d6000fd5b505050506040513d601f19601f820116820180604052508101906104bb9190610aff565b60036040518363ffffffff1660e01b81526004016104da929190610df7565b60206040518083038186803b1580156104f257600080fd5b505af4158015610506573d6000803e3d6000fd5b505050506040513d601f19601f8201168201806040525081019061052a9190610ad2565b5073__$acbfb1c35000d78352310b16a054a6b106$__63abcd796060008054906101000a900473ffffffffffffffffffffffffffffffffffffffff1673ffffffffffffffffffffffffffffffffffffffff16638371483460036040518263ffffffff1660e01b815260040161059f9190610e8a565b60206040518083038186803b1580156105b757600080fd5b505afa1580156105cb573d6000803e3d6000fd5b505050506040513d601f19601f820116820180604052508101906105ef9190610b2c565b60066040518363ffffffff1660e01b815260040161060e929190610f40565b60206040518083038186803b15801561062657600080fd5b505af415801561063a573d6000803e3d6000fd5b505050506040513d601f19601f8201168201806040525081019061065e9190610ad2565b5073__$acbfb1c35000d78352310b16a054a6b106$__63abcd796060008054906101000a900473ffffffffffffffffffffffffffffffffffffffff1673ffffffffffffffffffffffffffffffffffffffff16637d8251427ffffffffffffffffffffffffffffffffffffffffffffffffffffffffffffffffd6040518263ffffffff1660e01b81526004016106f29190610ee9565b60206040518083038186803b15801561070a57600080fd5b505afa15801561071e573d6000803e3d6000fd5b505050506040513d601f19601f820116820180604052508101906107429190610b2c565b60036040518363ffffffff1660e01b8152600401610761929190610f04565b60206040518083038186803b15801561077957600080fd5b505af415801561078d573d6000803e3d6000fd5b505050506040513d601f19601f820116820180604052508101906107b19190610ad2565b5073__$acbfb1c35000d78352310b16a054a6b106$__63abcd796060008054906101000a900473ffffffffffffffffffffffffffffffffffffffff1673ffffffffffffffffffffffffffffffffffffffff16637ea9e05860036040518263ffffffff1660e01b81526004016108269190610e6f565b60206040518083038186803b15801561083e57600080fd5b505afa158015610852573d6000803e3d6000fd5b505050506040513d601f19601f820116820180604052508101906108769190610b2c565b60096040518363ffffffff1660e01b8152600401610895929190610f7c565b60206040518083038186803b1580156108ad57600080fd5b505af41580156108c1573d6000803e3d6000fd5b505050506040513d601f19601f820116820180604052508101906108e59190610ad2565b5073__$acbfb1c35000d78352310b16a054a6b106$__63f5bae6b660008054906101000a900473ffffffffffffffffffffffffffffffffffffffff1673ffffffffffffffffffffffffffffffffffffffff1663b850107360096040518263ffffffff1660e01b815260040161095a9190610ea5565b60206040518083038186803b15801561097257600080fd5b505afa158015610986573d6000803e3d6000fd5b505050506040513d601f19601f820116820180604052508101906109aa9190610aff565b60036040518363ffffffff1660e01b81526004016109c9929190610dbb565b60206040518083038186803b1580156109e157600080fd5b505af41580156109f5573d6000803e3d6000fd5b505050506040513d601f19601f82011682018060405250810190610a199190610ad2565b50565b604051610a2890610a86565b604051809103906000f080158015610a44573d6000803e3d6000fd5b506000806101000a81548173ffffffffffffffffffffffffffffffffffffffff021916908373ffffffffffffffffffffffffffffffffffffffff160217905550565b610b4d8061123d83390190565b600081519050610aa2816111f7565b92915050565b600081519050610ab78161120e565b92915050565b600081519050610acc81611225565b92915050565b600060208284031215610ae857610ae76110aa565b5b6000610af684828501610a93565b91505092915050565b600060208284031215610b1557610b146110aa565b5b6000610b2384828501610aa8565b91505092915050565b600060208284031215610b4257610b416110aa565b5b6000610b5084828501610abd565b91505092915050565b610b6281610fe2565b82525050565b610b7181610ff6565b82525050565b610b8081611008565b82525050565b610b8f8161101a565b82525050565b610b9e8161101a565b82525050565b610bad8161102c565b82525050565b610bbc8161102c565b82525050565b610bcb8161103e565b82525050565b610bda81611050565b82525050565b610be981611062565b82525050565b610bf881611074565b82525050565b610c0781611086565b82525050565b610c1681611098565b82525050565b6000610c29601883610fb8565b9150610c34826110af565b602082019050919050565b6000610c4c601483610fb8565b9150610c57826110d8565b602082019050919050565b6000610c6f601483610fb8565b9150610c7a82611101565b602082019050919050565b6000610c92601983610fb8565b9150610c9d8261112a565b602082019050919050565b6000610cb5601183610fb8565b9150610cc082611153565b602082019050919050565b6000610cd8601583610fb8565b9150610ce38261117c565b602082019050919050565b6000610cfb601b83610fb8565b9150610d06826111a5565b602082019050919050565b6000610d1e601183610fb8565b9150610d29826111ce565b602082019050919050565b610d3d81610fec565b82525050565b6000606082019050610d586000830185610b59565b610d656020830184610b68565b8181036040830152610d7681610d11565b90509392505050565b6000606082019050610d946000830185610b59565b610da16020830184610b77565b8181036040830152610db281610cee565b90509392505050565b6000606082019050610dd06000830185610b59565b610ddd6020830184610b95565b8181036040830152610dee81610c1c565b90509392505050565b6000606082019050610e0c6000830185610b59565b610e196020830184610b95565b8181036040830152610e2a81610c62565b90509392505050565b6000606082019050610e486000830185610b59565b610e556020830184610bc2565b8181036040830152610e6681610ca8565b90509392505050565b6000602082019050610e846000830184610b86565b92915050565b6000602082019050610e9f6000830184610ba4565b92915050565b6000602082019050610eba6000830184610be0565b92915050565b6000604082019050610ed56000830185610bef565b610ee26020830184610b86565b9392505050565b6000602082019050610efe6000830184610c0d565b92915050565b6000606082019050610f196000830185610d34565b610f266020830184610bb3565b8181036040830152610f3781610c85565b90509392505050565b6000606082019050610f556000830185610d34565b610f626020830184610bd1565b8181036040830152610f7381610ccb565b90509392505050565b6000606082019050610f916000830185610d34565b610f9e6020830184610bfe565b8181036040830152610faf81610c3f565b90509392505050565b600082825260208201905092915050565b60008115159050919050565b600081600f0b9050919050565b6000819050919050565b6000819050919050565b600061100182610fe2565b9050919050565b600061101382610fe2565b9050919050565b600061102582610fe2565b9050919050565b600061103782610fec565b9050919050565b600061104982610fe2565b9050919050565b600061105b82610fec565b9050919050565b600061106d82610fd5565b9050919050565b600061107f82610fe2565b9050919050565b600061109182610fec565b9050919050565b60006110a382610fe2565b9050919050565b600080fd5b7f7261697a43756164726164612073686f756c6420626520330000000000000000600082015250565b7f637561647261646f2073686f756c642062652039000000000000000000000000600082015250565b7f6469766973696f6e2073686f756c642062652033000000000000000000000000600082015250565b7f76616c6f724162736f6c75746f2073686f756c64206265203300000000000000600082015250565b7f72657374612073686f756c642062652036000000000000000000000000000000600082015250565b7f666163746f7269616c2073686f756c6420626520360000000000000000000000600082015250565b7f6d756c7469706c69636163696f6e2073686f756c642062652032370000000000600082015250565b7f73756d612073686f756c64206265203132000000000000000000000000000000600082015250565b61120081610fc9565b811461120b57600080fd5b50565b61121781610fe2565b811461122257600080fd5b50565b61122e81610fec565b811461123957600080fd5b5056fe608060405234801561001057600080fd5b50610b2d806100206000396000f3fe608060405234801561001057600080fd5b50600436106100885760003560e01c80637ea9e0581161005b5780637ea9e0581461014d578063837148341461017d5780638f8a0d19146101ad578063b8501073146101dd57610088565b806309b7cdda1461008d578063187983bf146100bd5780634c627bad146100ed5780637d8251421461011d575b600080fd5b6100a760048036038101906100a29190610566565b61020d565b6040516100b491906105f1565b60405180910390f35b6100d760048036038101906100d29190610566565b61022a565b6040516100e491906105f1565b60405180910390f35b61010760048036038101906101029190610566565b610247565b60405161011491906105f1565b60405180910390f35b61013760048036038101906101329190610539565b610264565b604051610144919061060c565b60405180910390f35b61016760048036038101906101629190610539565b610276565b604051610174919061060c565b60405180910390f35b610197600480360381019061019291906105a6565b610288565b6040516101a4919061060c565b60405180910390f35b6101c760048036038101906101c29190610566565b61029a565b6040516101d491906105f1565b60405180910390f35b6101f760048036038101906101f2919061050c565b6102b7565b60405161020491906105f1565b60405180910390f35b600061022282846102cf90919063ffffffff16565b905092915050565b600061023f82846102e590919063ffffffff16565b905092915050565b600061025c82846102fb90919063ffffffff16565b905092915050565b600061026f82610311565b9050919050565b600061028182610335565b9050919050565b60006102938261034a565b9050919050565b60006102af828461038590919063ffffffff16565b905092915050565b60006102c582600f0b61039b565b600f0b9050919050565b600081836102dd9190610711565b905092915050565b600081836102f391906107ac565b905092915050565b60008183610309919061091d565b905092915050565b60008082131561032357819050610330565b8161032d90610a06565b90505b919050565b6000818261034391906107ac565b9050919050565b60006001821161035d5760019050610380565b61037260018361036d91906109b1565b61034a565b8261037d91906108c3565b90505b919050565b600081836103939190610627565b905092915050565b60008082600f0b12156103ad57600080fd5b6103b982600f0b6103c0565b9050919050565b6000808210156103cf57600080fd5b60008214156103e157600090506104c8565b600060019050600281846103f5919061077b565b8261040091906106bb565b61040a919061077b565b90506002818461041a919061077b565b8261042591906106bb565b61042f919061077b565b90506002818461043f919061077b565b8261044a91906106bb565b610454919061077b565b905060028184610464919061077b565b8261046f91906106bb565b610479919061077b565b905060028184610489919061077b565b8261049491906106bb565b61049e919061077b565b9050600081846104ae919061077b565b9050808210156104c25781925050506104c8565b80925050505b919050565b6000813590506104dc81610ab2565b92915050565b6000813590506104f181610ac9565b92915050565b60008135905061050681610ae0565b92915050565b60006020828403121561052257610521610aad565b5b6000610530848285016104cd565b91505092915050565b60006020828403121561054f5761054e610aad565b5b600061055d848285016104e2565b91505092915050565b6000806040838503121561057d5761057c610aad565b5b600061058b858286016104e2565b925050602061059c858286016104e2565b9150509250929050565b6000602082840312156105bc576105bb610aad565b5b60006105ca848285016104f7565b91505092915050565b6105dc816109f2565b82525050565b6105eb816109fc565b82525050565b600060208201905061060660008301846105d3565b92915050565b600060208201905061062160008301846105e2565b92915050565b6000610632826109f2565b915061063d836109f2565b9250817f7fffffffffffffffffffffffffffffffffffffffffffffffffffffffffffffff0383136000831215161561067857610677610a4f565b5b817f80000000000000000000000000000000000000000000000000000000000000000383126000831216156106b0576106af610a4f565b5b828201905092915050565b60006106c6826109fc565b91506106d1836109fc565b9250827fffffffffffffffffffffffffffffffffffffffffffffffffffffffffffffffff0382111561070657610705610a4f565b5b828201905092915050565b600061071c826109f2565b9150610727836109f2565b92508261073757610736610a7e565b5b600160000383147f8000000000000000000000000000000000000000000000000000000000000000831416156107705761076f610a4f565b5b828205905092915050565b6000610786826109fc565b9150610791836109fc565b9250826107a1576107a0610a7e565b5b828204905092915050565b60006107b7826109f2565b91506107c2836109f2565b9250827f7fffffffffffffffffffffffffffffffffffffffffffffffffffffffffffffff048211600084136000841316161561080157610800610a4f565b5b817f8000000000000000000000000000000000000000000000000000000000000000058312600084126000841316161561083e5761083d610a4f565b5b827f8000000000000000000000000000000000000000000000000000000000000000058212600084136000841216161561087b5761087a610a4f565b5b827f7fffffffffffffffffffffffffffffffffffffffffffffffffffffffffffffff05821260008412600084121616156108b8576108b7610a4f565b5b828202905092915050565b60006108ce826109fc565b91506108d9836109fc565b9250817fffffffffffffffffffffffffffffffffffffffffffffffffffffffffffffffff048311821515161561091257610911610a4f565b5b828202905092915050565b6000610928826109f2565b9150610933836109f2565b9250827f80000000000000000000000000000000000000000000000000000000000000000182126000841215161561096e5761096d610a4f565b5b827f7fffffffffffffffffffffffffffffffffffffffffffffffffffffffffffffff0182136000841216156109a6576109a5610a4f565b5b828203905092915050565b60006109bc826109fc565b91506109c7836109fc565b9250828210156109da576109d9610a4f565b5b828203905092915050565b600081600f0b9050919050565b6000819050919050565b6000819050919050565b6000610a11826109f2565b91507f8000000000000000000000000000000000000000000000000000000000000000821415610a4457610a43610a4f565b5b816000039050919050565b7f4e487b7100000000000000000000000000000000000000000000000000000000600052601160045260246000fd5b7f4e487b7100000000000000000000000000000000000000000000000000000000600052601260045260246000fd5b600080fd5b610abb816109e5565b8114610ac657600080fd5b50565b610ad2816109f2565b8114610add57600080fd5b50565b610ae9816109fc565b8114610af457600080fd5b5056fea2646970667358221220ab0a956bb2efb7a53e0070d9caceb5a02f4e800b510215352c8e5fd22eb536c164736f6c63430008070033a2646970667358221220002915152726d28cced50d58519bbb9907bd46f4aea9f73bc4f6e8f81878dbcc64736f6c63430008070033",
			"opcodes": "PUSH1 0x80 PUSH1 0x40 MSTORE CALLVALUE DUP1 ISZERO PUSH2 0x10 JUMPI PUSH1 0x0 DUP1 REVERT JUMPDEST POP PUSH2 0x1DBF DUP1 PUSH2 0x20 PUSH1 0x0 CODECOPY PUSH1 0x0 RETURN INVALID PUSH1 0x80 PUSH1 0x40 MSTORE CALLVALUE DUP1 ISZERO PUSH2 0x10 JUMPI PUSH1 0x0 DUP1 REVERT JUMPDEST POP PUSH1 0x4 CALLDATASIZE LT PUSH2 0x36 JUMPI PUSH1 0x0 CALLDATALOAD PUSH1 0xE0 SHR DUP1 PUSH4 0x11E6492 EQ PUSH2 0x3B JUMPI DUP1 PUSH4 0x7FEA0D4B EQ PUSH2 0x45 JUMPI JUMPDEST PUSH1 0x0 DUP1 REVERT JUMPDEST PUSH2 0x43 PUSH2 0x4F JUMP JUMPDEST STOP JUMPDEST PUSH2 0x4D PUSH2 0xA1C JUMP JUMPDEST STOP JUMPDEST PUSH20 0x0 PUSH4 0xF5BAE6B6 PUSH1 0x0 DUP1 SLOAD SWAP1 PUSH2 0x100 EXP SWAP1 DIV PUSH20 0xFFFFFFFFFFFFFFFFFFFFFFFFFFFFFFFFFFFFFFFF AND PUSH20 0xFFFFFFFFFFFFFFFFFFFFFFFFFFFFFFFFFFFFFFFF AND PUSH4 0x8F8A0D19 PUSH1 0x9 PUSH1 0x3 PUSH1 0x40 MLOAD DUP4 PUSH4 0xFFFFFFFF AND PUSH1 0xE0 SHL DUP2 MSTORE PUSH1 0x4 ADD PUSH2 0xC6 SWAP3 SWAP2 SWAP1 PUSH2 0xEC0 JUMP JUMPDEST PUSH1 0x20 PUSH1 0x40 MLOAD DUP1 DUP4 SUB DUP2 DUP7 DUP1 EXTCODESIZE ISZERO DUP1 ISZERO PUSH2 0xDE JUMPI PUSH1 0x0 DUP1 REVERT JUMPDEST POP GAS STATICCALL ISZERO DUP1 ISZERO PUSH2 0xF2 JUMPI RETURNDATASIZE PUSH1 0x0 DUP1 RETURNDATACOPY RETURNDATASIZE PUSH1 0x0 REVERT JUMPDEST POP POP POP POP PUSH1 0x40 MLOAD RETURNDATASIZE PUSH1 0x1F NOT PUSH1 0x1F DUP3 ADD AND DUP3 ADD DUP1 PUSH1 0x40 MSTORE POP DUP2 ADD SWAP1 PUSH2 0x116 SWAP2 SWAP1 PUSH2 0xAFF JUMP JUMPDEST PUSH1 0xC PUSH1 0x40 MLOAD DUP4 PUSH4 0xFFFFFFFF AND PUSH1 0xE0 SHL DUP2 MSTORE PUSH1 0x4 ADD PUSH2 0x135 SWAP3 SWAP2 SWAP1 PUSH2 0xD43 JUMP JUMPDEST PUSH1 0x20 PUSH1 0x40 MLOAD DUP1 DUP4 SUB DUP2 DUP7 DUP1 EXTCODESIZE ISZERO DUP1 ISZERO PUSH2 0x14D JUMPI PUSH1 0x0 DUP1 REVERT JUMPDEST POP GAS DELEGATECALL ISZERO DUP1 ISZERO PUSH2 0x161 JUMPI RETURNDATASIZE PUSH1 0x0 DUP1 RETURNDATACOPY RETURNDATASIZE PUSH1 0x0 REVERT JUMPDEST POP POP POP POP PUSH1 0x40 MLOAD RETURNDATASIZE PUSH1 0x1F NOT PUSH1 0x1F DUP3 ADD AND DUP3 ADD DUP1 PUSH1 0x40 MSTORE POP DUP2 ADD SWAP1 PUSH2 0x185 SWAP2 SWAP1 PUSH2 0xAD2 JUMP JUMPDEST POP PUSH20 0x0 PUSH4 0xF5BAE6B6 PUSH1 0x0 DUP1 SLOAD SWAP1 PUSH2 0x100 EXP SWAP1 DIV PUSH20 0xFFFFFFFFFFFFFFFFFFFFFFFFFFFFFFFFFFFFFFFF AND PUSH20 0xFFFFFFFFFFFFFFFFFFFFFFFFFFFFFFFFFFFFFFFF AND PUSH4 0x4C627BAD PUSH1 0x9 PUSH1 0x3 PUSH1 0x40 MLOAD DUP4 PUSH4 0xFFFFFFFF AND PUSH1 0xE0 SHL DUP2 MSTORE PUSH1 0x4 ADD PUSH2 0x1FD SWAP3 SWAP2 SWAP1 PUSH2 0xEC0 JUMP JUMPDEST PUSH1 0x20 PUSH1 0x40 MLOAD DUP1 DUP4 SUB DUP2 DUP7 DUP1 EXTCODESIZE ISZERO DUP1 ISZERO PUSH2 0x215 JUMPI PUSH1 0x0 DUP1 REVERT JUMPDEST POP GAS STATICCALL ISZERO DUP1 ISZERO PUSH2 0x229 JUMPI RETURNDATASIZE PUSH1 0x0 DUP1 RETURNDATACOPY RETURNDATASIZE PUSH1 0x0 REVERT JUMPDEST POP POP POP POP PUSH1 0x40 MLOAD RETURNDATASIZE PUSH1 0x1F NOT PUSH1 0x1F DUP3 ADD AND DUP3 ADD DUP1 PUSH1 0x40 MSTORE POP DUP2 ADD SWAP1 PUSH2 0x24D SWAP2 SWAP1 PUSH2 0xAFF JUMP JUMPDEST PUSH1 0x6 PUSH1 0x40 MLOAD DUP4 PUSH4 0xFFFFFFFF AND PUSH1 0xE0 SHL DUP2 MSTORE PUSH1 0x4 ADD PUSH2 0x26C SWAP3 SWAP2 SWAP1 PUSH2 0xE33 JUMP JUMPDEST PUSH1 0x20 PUSH1 0x40 MLOAD DUP1 DUP4 SUB DUP2 DUP7 DUP1 EXTCODESIZE ISZERO DUP1 ISZERO PUSH2 0x284 JUMPI PUSH1 0x0 DUP1 REVERT JUMPDEST POP GAS DELEGATECALL ISZERO DUP1 ISZERO PUSH2 0x298 JUMPI RETURNDATASIZE PUSH1 0x0 DUP1 RETURNDATACOPY RETURNDATASIZE PUSH1 0x0 REVERT JUMPDEST POP POP POP POP PUSH1 0x40 MLOAD RETURNDATASIZE PUSH1 0x1F NOT PUSH1 0x1F DUP3 ADD AND DUP3 ADD DUP1 PUSH1 0x40 MSTORE POP DUP2 ADD SWAP1 PUSH2 0x2BC SWAP2 SWAP1 PUSH2 0xAD2 JUMP JUMPDEST POP PUSH20 0x0 PUSH4 0xF5BAE6B6 PUSH1 0x0 DUP1 SLOAD SWAP1 PUSH2 0x100 EXP SWAP1 DIV PUSH20 0xFFFFFFFFFFFFFFFFFFFFFFFFFFFFFFFFFFFFFFFF AND PUSH20 0xFFFFFFFFFFFFFFFFFFFFFFFFFFFFFFFFFFFFFFFF AND PUSH4 0x187983BF PUSH1 0x9 PUSH1 0x3 PUSH1 0x40 MLOAD DUP4 PUSH4 0xFFFFFFFF AND PUSH1 0xE0 SHL DUP2 MSTORE PUSH1 0x4 ADD PUSH2 0x334 SWAP3 SWAP2 SWAP1 PUSH2 0xEC0 JUMP JUMPDEST PUSH1 0x20 PUSH1 0x40 MLOAD DUP1 DUP4 SUB DUP2 DUP7 DUP1 EXTCODESIZE ISZERO DUP1 ISZERO PUSH2 0x34C JUMPI PUSH1 0x0 DUP1 REVERT JUMPDEST POP GAS STATICCALL ISZERO DUP1 ISZERO PUSH2 0x360 JUMPI RETURNDATASIZE PUSH1 0x0 DUP1 RETURNDATACOPY RETURNDATASIZE PUSH1 0x0 REVERT JUMPDEST POP POP POP POP PUSH1 0x40 MLOAD RETURNDATASIZE PUSH1 0x1F NOT PUSH1 0x1F DUP3 ADD AND DUP3 ADD DUP1 PUSH1 0x40 MSTORE POP DUP2 ADD SWAP1 PUSH2 0x384 SWAP2 SWAP1 PUSH2 0xAFF JUMP JUMPDEST PUSH1 0x1B PUSH1 0x40 MLOAD DUP4 PUSH4 0xFFFFFFFF AND PUSH1 0xE0 SHL DUP2 MSTORE PUSH1 0x4 ADD PUSH2 0x3A3 SWAP3 SWAP2 SWAP1 PUSH2 0xD7F JUMP JUMPDEST PUSH1 0x20 PUSH1 0x40 MLOAD DUP1 DUP4 SUB DUP2 DUP7 DUP1 EXTCODESIZE ISZERO DUP1 ISZERO PUSH2 0x3BB JUMPI PUSH1 0x0 DUP1 REVERT JUMPDEST POP GAS DELEGATECALL ISZERO DUP1 ISZERO PUSH2 0x3CF JUMPI RETURNDATASIZE PUSH1 0x0 DUP1 RETURNDATACOPY RETURNDATASIZE PUSH1 0x0 REVERT JUMPDEST POP POP POP POP PUSH1 0x40 MLOAD RETURNDATASIZE PUSH1 0x1F NOT PUSH1 0x1F DUP3 ADD AND DUP3 ADD DUP1 PUSH1 0x40 MSTORE POP DUP2 ADD SWAP1 PUSH2 0x3F3 SWAP2 SWAP1 PUSH2 0xAD2 JUMP JUMPDEST POP PUSH20 0x0 PUSH4 0xF5BAE6B6 PUSH1 0x0 DUP1 SLOAD SWAP1 PUSH2 0x100 EXP SWAP1 DIV PUSH20 0xFFFFFFFFFFFFFFFFFFFFFFFFFFFFFFFFFFFFFFFF AND PUSH20 0xFFFFFFFFFFFFFFFFFFFFFFFFFFFFFFFFFFFFFFFF AND PUSH4 0x9B7CDDA PUSH1 0x9 PUSH1 0x3 PUSH1 0x40 MLOAD DUP4 PUSH4 0xFFFFFFFF AND PUSH1 0xE0 SHL DUP2 MSTORE PUSH1 0x4 ADD PUSH2 0x46B SWAP3 SWAP2 SWAP1 PUSH2 0xEC0 JUMP JUMPDEST PUSH1 0x20 PUSH1 0x40 MLOAD DUP1 DUP4 SUB DUP2 DUP7 DUP1 EXTCODESIZE ISZERO DUP1 ISZERO PUSH2 0x483 JUMPI PUSH1 0x0 DUP1 REVERT JUMPDEST POP GAS STATICCALL ISZERO DUP1 ISZERO PUSH2 0x497 JUMPI RETURNDATASIZE PUSH1 0x0 DUP1 RETURNDATACOPY RETURNDATASIZE PUSH1 0x0 REVERT JUMPDEST POP POP POP POP PUSH1 0x40 MLOAD RETURNDATASIZE PUSH1 0x1F NOT PUSH1 0x1F DUP3 ADD AND DUP3 ADD DUP1 PUSH1 0x40 MSTORE POP DUP2 ADD SWAP1 PUSH2 0x4BB SWAP2 SWAP1 PUSH2 0xAFF JUMP JUMPDEST PUSH1 0x3 PUSH1 0x40 MLOAD DUP4 PUSH4 0xFFFFFFFF AND PUSH1 0xE0 SHL DUP2 MSTORE PUSH1 0x4 ADD PUSH2 0x4DA SWAP3 SWAP2 SWAP1 PUSH2 0xDF7 JUMP JUMPDEST PUSH1 0x20 PUSH1 0x40 MLOAD DUP1 DUP4 SUB DUP2 DUP7 DUP1 EXTCODESIZE ISZERO DUP1 ISZERO PUSH2 0x4F2 JUMPI PUSH1 0x0 DUP1 REVERT JUMPDEST POP GAS DELEGATECALL ISZERO DUP1 ISZERO PUSH2 0x506 JUMPI RETURNDATASIZE PUSH1 0x0 DUP1 RETURNDATACOPY RETURNDATASIZE PUSH1 0x0 REVERT JUMPDEST POP POP POP POP PUSH1 0x40 MLOAD RETURNDATASIZE PUSH1 0x1F NOT PUSH1 0x1F DUP3 ADD AND DUP3 ADD DUP1 PUSH1 0x40 MSTORE POP DUP2 ADD SWAP1 PUSH2 0x52A SWAP2 SWAP1 PUSH2 0xAD2 JUMP JUMPDEST POP PUSH20 0x0 PUSH4 0xABCD7960 PUSH1 0x0 DUP1 SLOAD SWAP1 PUSH2 0x100 EXP SWAP1 DIV PUSH20 0xFFFFFFFFFFFFFFFFFFFFFFFFFFFFFFFFFFFFFFFF AND PUSH20 0xFFFFFFFFFFFFFFFFFFFFFFFFFFFFFFFFFFFFFFFF AND PUSH4 0x83714834 PUSH1 0x3 PUSH1 0x40 MLOAD DUP3 PUSH4 0xFFFFFFFF AND PUSH1 0xE0 SHL DUP2 MSTORE PUSH1 0x4 ADD PUSH2 0x59F SWAP2 SWAP1 PUSH2 0xE8A JUMP JUMPDEST PUSH1 0x20 PUSH1 0x40 MLOAD DUP1 DUP4 SUB DUP2 DUP7 DUP1 EXTCODESIZE ISZERO DUP1 ISZERO PUSH2 0x5B7 JUMPI PUSH1 0x0 DUP1 REVERT JUMPDEST POP GAS STATICCALL ISZERO DUP1 ISZERO PUSH2 0x5CB JUMPI RETURNDATASIZE PUSH1 0x0 DUP1 RETURNDATACOPY RETURNDATASIZE PUSH1 0x0 REVERT JUMPDEST POP POP POP POP PUSH1 0x40 MLOAD RETURNDATASIZE PUSH1 0x1F NOT PUSH1 0x1F DUP3 ADD AND DUP3 ADD DUP1 PUSH1 0x40 MSTORE POP DUP2 ADD SWAP1 PUSH2 0x5EF SWAP2 SWAP1 PUSH2 0xB2C JUMP JUMPDEST PUSH1 0x6 PUSH1 0x40 MLOAD DUP4 PUSH4 0xFFFFFFFF AND PUSH1 0xE0 SHL DUP2 MSTORE PUSH1 0x4 ADD PUSH2 0x60E SWAP3 SWAP2 SWAP1 PUSH2 0xF40 JUMP JUMPDEST PUSH1 0x20 PUSH1 0x40 MLOAD DUP1 DUP4 SUB DUP2 DUP7 DUP1 EXTCODESIZE ISZERO DUP1 ISZERO PUSH2 0x626 JUMPI PUSH1 0x0 DUP1 REVERT JUMPDEST POP GAS DELEGATECALL ISZERO DUP1 ISZERO PUSH2 0x63A JUMPI RETURNDATASIZE PUSH1 0x0 DUP1 RETURNDATACOPY RETURNDATASIZE PUSH1 0x0 REVERT JUMPDEST POP POP POP POP PUSH1 0x40 MLOAD RETURNDATASIZE PUSH1 0x1F NOT PUSH1 0x1F DUP3 ADD AND DUP3 ADD DUP1 PUSH1 0x40 MSTORE POP DUP2 ADD SWAP1 PUSH2 0x65E SWAP2 SWAP1 PUSH2 0xAD2 JUMP JUMPDEST POP PUSH20 0x0 PUSH4 0xABCD7960 PUSH1 0x0 DUP1 SLOAD SWAP1 PUSH2 0x100 EXP SWAP1 DIV PUSH20 0xFFFFFFFFFFFFFFFFFFFFFFFFFFFFFFFFFFFFFFFF AND PUSH20 0xFFFFFFFFFFFFFFFFFFFFFFFFFFFFFFFFFFFFFFFF AND PUSH4 0x7D825142 PUSH32 0xFFFFFFFFFFFFFFFFFFFFFFFFFFFFFFFFFFFFFFFFFFFFFFFFFFFFFFFFFFFFFFFD PUSH1 0x40 MLOAD DUP3 PUSH4 0xFFFFFFFF AND PUSH1 0xE0 SHL DUP2 MSTORE PUSH1 0x4 ADD PUSH2 0x6F2 SWAP2 SWAP1 PUSH2 0xEE9 JUMP JUMPDEST PUSH1 0x20 PUSH1 0x40 MLOAD DUP1 DUP4 SUB DUP2 DUP7 DUP1 EXTCODESIZE ISZERO DUP1 ISZERO PUSH2 0x70A JUMPI PUSH1 0x0 DUP1 REVERT JUMPDEST POP GAS STATICCALL ISZERO DUP1 ISZERO PUSH2 0x71E JUMPI RETURNDATASIZE PUSH1 0x0 DUP1 RETURNDATACOPY RETURNDATASIZE PUSH1 0x0 REVERT JUMPDEST POP POP POP POP PUSH1 0x40 MLOAD RETURNDATASIZE PUSH1 0x1F NOT PUSH1 0x1F DUP3 ADD AND DUP3 ADD DUP1 PUSH1 0x40 MSTORE POP DUP2 ADD SWAP1 PUSH2 0x742 SWAP2 SWAP1 PUSH2 0xB2C JUMP JUMPDEST PUSH1 0x3 PUSH1 0x40 MLOAD DUP4 PUSH4 0xFFFFFFFF AND PUSH1 0xE0 SHL DUP2 MSTORE PUSH1 0x4 ADD PUSH2 0x761 SWAP3 SWAP2 SWAP1 PUSH2 0xF04 JUMP JUMPDEST PUSH1 0x20 PUSH1 0x40 MLOAD DUP1 DUP4 SUB DUP2 DUP7 DUP1 EXTCODESIZE ISZERO DUP1 ISZERO PUSH2 0x779 JUMPI PUSH1 0x0 DUP1 REVERT JUMPDEST POP GAS DELEGATECALL ISZERO DUP1 ISZERO PUSH2 0x78D JUMPI RETURNDATASIZE PUSH1 0x0 DUP1 RETURNDATACOPY RETURNDATASIZE PUSH1 0x0 REVERT JUMPDEST POP POP POP POP PUSH1 0x40 MLOAD RETURNDATASIZE PUSH1 0x1F NOT PUSH1 0x1F DUP3 ADD AND DUP3 ADD DUP1 PUSH1 0x40 MSTORE POP DUP2 ADD SWAP1 PUSH2 0x7B1 SWAP2 SWAP1 PUSH2 0xAD2 JUMP JUMPDEST POP PUSH20 0x0 PUSH4 0xABCD7960 PUSH1 0x0 DUP1 SLOAD SWAP1 PUSH2 0x100 EXP SWAP1 DIV PUSH20 0xFFFFFFFFFFFFFFFFFFFFFFFFFFFFFFFFFFFFFFFF AND PUSH20 0xFFFFFFFFFFFFFFFFFFFFFFFFFFFFFFFFFFFFFFFF AND PUSH4 0x7EA9E058 PUSH1 0x3 PUSH1 0x40 MLOAD DUP3 PUSH4 0xFFFFFFFF AND PUSH1 0xE0 SHL DUP2 MSTORE PUSH1 0x4 ADD PUSH2 0x826 SWAP2 SWAP1 PUSH2 0xE6F JUMP JUMPDEST PUSH1 0x20 PUSH1 0x40 MLOAD DUP1 DUP4 SUB DUP2 DUP7 DUP1 EXTCODESIZE ISZERO DUP1 ISZERO PUSH2 0x83E JUMPI PUSH1 0x0 DUP1 REVERT JUMPDEST POP GAS STATICCALL ISZERO DUP1 ISZERO PUSH2 0x852 JUMPI RETURNDATASIZE PUSH1 0x0 DUP1 RETURNDATACOPY RETURNDATASIZE PUSH1 0x0 REVERT JUMPDEST POP POP POP POP PUSH1 0x40 MLOAD RETURNDATASIZE PUSH1 0x1F NOT PUSH1 0x1F DUP3 ADD AND DUP3 ADD DUP1 PUSH1 0x40 MSTORE POP DUP2 ADD SWAP1 PUSH2 0x876 SWAP2 SWAP1 PUSH2 0xB2C JUMP JUMPDEST PUSH1 0x9 PUSH1 0x40 MLOAD DUP4 PUSH4 0xFFFFFFFF AND PUSH1 0xE0 SHL DUP2 MSTORE PUSH1 0x4 ADD PUSH2 0x895 SWAP3 SWAP2 SWAP1 PUSH2 0xF7C JUMP JUMPDEST PUSH1 0x20 PUSH1 0x40 MLOAD DUP1 DUP4 SUB DUP2 DUP7 DUP1 EXTCODESIZE ISZERO DUP1 ISZERO PUSH2 0x8AD JUMPI PUSH1 0x0 DUP1 REVERT JUMPDEST POP GAS DELEGATECALL ISZERO DUP1 ISZERO PUSH2 0x8C1 JUMPI RETURNDATASIZE PUSH1 0x0 DUP1 RETURNDATACOPY RETURNDATASIZE PUSH1 0x0 REVERT JUMPDEST POP POP POP POP PUSH1 0x40 MLOAD RETURNDATASIZE PUSH1 0x1F NOT PUSH1 0x1F DUP3 ADD AND DUP3 ADD DUP1 PUSH1 0x40 MSTORE POP DUP2 ADD SWAP1 PUSH2 0x8E5 SWAP2 SWAP1 PUSH2 0xAD2 JUMP JUMPDEST POP PUSH20 0x0 PUSH4 0xF5BAE6B6 PUSH1 0x0 DUP1 SLOAD SWAP1 PUSH2 0x100 EXP SWAP1 DIV PUSH20 0xFFFFFFFFFFFFFFFFFFFFFFFFFFFFFFFFFFFFFFFF AND PUSH20 0xFFFFFFFFFFFFFFFFFFFFFFFFFFFFFFFFFFFFFFFF AND PUSH4 0xB8501073 PUSH1 0x9 PUSH1 0x40 MLOAD DUP3 PUSH4 0xFFFFFFFF AND PUSH1 0xE0 SHL DUP2 MSTORE PUSH1 0x4 ADD PUSH2 0x95A SWAP2 SWAP1 PUSH2 0xEA5 JUMP JUMPDEST PUSH1 0x20 PUSH1 0x40 MLOAD DUP1 DUP4 SUB DUP2 DUP7 DUP1 EXTCODESIZE ISZERO DUP1 ISZERO PUSH2 0x972 JUMPI PUSH1 0x0 DUP1 REVERT JUMPDEST POP GAS STATICCALL ISZERO DUP1 ISZERO PUSH2 0x986 JUMPI RETURNDATASIZE PUSH1 0x0 DUP1 RETURNDATACOPY RETURNDATASIZE PUSH1 0x0 REVERT JUMPDEST POP POP POP POP PUSH1 0x40 MLOAD RETURNDATASIZE PUSH1 0x1F NOT PUSH1 0x1F DUP3 ADD AND DUP3 ADD DUP1 PUSH1 0x40 MSTORE POP DUP2 ADD SWAP1 PUSH2 0x9AA SWAP2 SWAP1 PUSH2 0xAFF JUMP JUMPDEST PUSH1 0x3 PUSH1 0x40 MLOAD DUP4 PUSH4 0xFFFFFFFF AND PUSH1 0xE0 SHL DUP2 MSTORE PUSH1 0x4 ADD PUSH2 0x9C9 SWAP3 SWAP2 SWAP1 PUSH2 0xDBB JUMP JUMPDEST PUSH1 0x20 PUSH1 0x40 MLOAD DUP1 DUP4 SUB DUP2 DUP7 DUP1 EXTCODESIZE ISZERO DUP1 ISZERO PUSH2 0x9E1 JUMPI PUSH1 0x0 DUP1 REVERT JUMPDEST POP GAS DELEGATECALL ISZERO DUP1 ISZERO PUSH2 0x9F5 JUMPI RETURNDATASIZE PUSH1 0x0 DUP1 RETURNDATACOPY RETURNDATASIZE PUSH1 0x0 REVERT JUMPDEST POP POP POP POP PUSH1 0x40 MLOAD RETURNDATASIZE PUSH1 0x1F NOT PUSH1 0x1F DUP3 ADD AND DUP3 ADD DUP1 PUSH1 0x40 MSTORE POP DUP2 ADD SWAP1 PUSH2 0xA19 SWAP2 SWAP1 PUSH2 0xAD2 JUMP JUMPDEST POP JUMP JUMPDEST PUSH1 0x40 MLOAD PUSH2 0xA28 SWAP1 PUSH2 0xA86 JUMP JUMPDEST PUSH1 0x40 MLOAD DUP1 SWAP2 SUB SWAP1 PUSH1 0x0 CREATE DUP1 ISZERO DUP1 ISZERO PUSH2 0xA44 JUMPI RETURNDATASIZE PUSH1 0x0 DUP1 RETURNDATACOPY RETURNDATASIZE PUSH1 0x0 REVERT JUMPDEST POP PUSH1 0x0 DUP1 PUSH2 0x100 EXP DUP2 SLOAD DUP2 PUSH20 0xFFFFFFFFFFFFFFFFFFFFFFFFFFFFFFFFFFFFFFFF MUL NOT AND SWAP1 DUP4 PUSH20 0xFFFFFFFFFFFFFFFFFFFFFFFFFFFFFFFFFFFFFFFF AND MUL OR SWAP1 SSTORE POP JUMP JUMPDEST PUSH2 0xB4D DUP1 PUSH2 0x123D DUP4 CODECOPY ADD SWAP1 JUMP JUMPDEST PUSH1 0x0 DUP2 MLOAD SWAP1 POP PUSH2 0xAA2 DUP2 PUSH2 0x11F7 JUMP JUMPDEST SWAP3 SWAP2 POP POP JUMP JUMPDEST PUSH1 0x0 DUP2 MLOAD SWAP1 POP PUSH2 0xAB7 DUP2 PUSH2 0x120E JUMP JUMPDEST SWAP3 SWAP2 POP POP JUMP JUMPDEST PUSH1 0x0 DUP2 MLOAD SWAP1 POP PUSH2 0xACC DUP2 PUSH2 0x1225 JUMP JUMPDEST SWAP3 SWAP2 POP POP JUMP JUMPDEST PUSH1 0x0 PUSH1 0x20 DUP3 DUP5 SUB SLT ISZERO PUSH2 0xAE8 JUMPI PUSH2 0xAE7 PUSH2 0x10AA JUMP JUMPDEST JUMPDEST PUSH1 0x0 PUSH2 0xAF6 DUP5 DUP3 DUP6 ADD PUSH2 0xA93 JUMP JUMPDEST SWAP2 POP POP SWAP3 SWAP2 POP POP JUMP JUMPDEST PUSH1 0x0 PUSH1 0x20 DUP3 DUP5 SUB SLT ISZERO PUSH2 0xB15 JUMPI PUSH2 0xB14 PUSH2 0x10AA JUMP JUMPDEST JUMPDEST PUSH1 0x0 PUSH2 0xB23 DUP5 DUP3 DUP6 ADD PUSH2 0xAA8 JUMP JUMPDEST SWAP2 POP POP SWAP3 SWAP2 POP POP JUMP JUMPDEST PUSH1 0x0 PUSH1 0x20 DUP3 DUP5 SUB SLT ISZERO PUSH2 0xB42 JUMPI PUSH2 0xB41 PUSH2 0x10AA JUMP JUMPDEST JUMPDEST PUSH1 0x0 PUSH2 0xB50 DUP5 DUP3 DUP6 ADD PUSH2 0xABD JUMP JUMPDEST SWAP2 POP POP SWAP3 SWAP2 POP POP JUMP JUMPDEST PUSH2 0xB62 DUP2 PUSH2 0xFE2 JUMP JUMPDEST DUP3 MSTORE POP POP JUMP JUMPDEST PUSH2 0xB71 DUP2 PUSH2 0xFF6 JUMP JUMPDEST DUP3 MSTORE POP POP JUMP JUMPDEST PUSH2 0xB80 DUP2 PUSH2 0x1008 JUMP JUMPDEST DUP3 MSTORE POP POP JUMP JUMPDEST PUSH2 0xB8F DUP2 PUSH2 0x101A JUMP JUMPDEST DUP3 MSTORE POP POP JUMP JUMPDEST PUSH2 0xB9E DUP2 PUSH2 0x101A JUMP JUMPDEST DUP3 MSTORE POP POP JUMP JUMPDEST PUSH2 0xBAD DUP2 PUSH2 0x102C JUMP JUMPDEST DUP3 MSTORE POP POP JUMP JUMPDEST PUSH2 0xBBC DUP2 PUSH2 0x102C JUMP JUMPDEST DUP3 MSTORE POP POP JUMP JUMPDEST PUSH2 0xBCB DUP2 PUSH2 0x103E JUMP JUMPDEST DUP3 MSTORE POP POP JUMP JUMPDEST PUSH2 0xBDA DUP2 PUSH2 0x1050 JUMP JUMPDEST DUP3 MSTORE POP POP JUMP JUMPDEST PUSH2 0xBE9 DUP2 PUSH2 0x1062 JUMP JUMPDEST DUP3 MSTORE POP POP JUMP JUMPDEST PUSH2 0xBF8 DUP2 PUSH2 0x1074 JUMP JUMPDEST DUP3 MSTORE POP POP JUMP JUMPDEST PUSH2 0xC07 DUP2 PUSH2 0x1086 JUMP JUMPDEST DUP3 MSTORE POP POP JUMP JUMPDEST PUSH2 0xC16 DUP2 PUSH2 0x1098 JUMP JUMPDEST DUP3 MSTORE POP POP JUMP JUMPDEST PUSH1 0x0 PUSH2 0xC29 PUSH1 0x18 DUP4 PUSH2 0xFB8 JUMP JUMPDEST SWAP2 POP PUSH2 0xC34 DUP3 PUSH2 0x10AF JUMP JUMPDEST PUSH1 0x20 DUP3 ADD SWAP1 POP SWAP2 SWAP1 POP JUMP JUMPDEST PUSH1 0x0 PUSH2 0xC4C PUSH1 0x14 DUP4 PUSH2 0xFB8 JUMP JUMPDEST SWAP2 POP PUSH2 0xC57 DUP3 PUSH2 0x10D8 JUMP JUMPDEST PUSH1 0x20 DUP3 ADD SWAP1 POP SWAP2 SWAP1 POP JUMP JUMPDEST PUSH1 0x0 PUSH2 0xC6F PUSH1 0x14 DUP4 PUSH2 0xFB8 JUMP JUMPDEST SWAP2 POP PUSH2 0xC7A DUP3 PUSH2 0x1101 JUMP JUMPDEST PUSH1 0x20 DUP3 ADD SWAP1 POP SWAP2 SWAP1 POP JUMP JUMPDEST PUSH1 0x0 PUSH2 0xC92 PUSH1 0x19 DUP4 PUSH2 0xFB8 JUMP JUMPDEST SWAP2 POP PUSH2 0xC9D DUP3 PUSH2 0x112A JUMP JUMPDEST PUSH1 0x20 DUP3 ADD SWAP1 POP SWAP2 SWAP1 POP JUMP JUMPDEST PUSH1 0x0 PUSH2 0xCB5 PUSH1 0x11 DUP4 PUSH2 0xFB8 JUMP JUMPDEST SWAP2 POP PUSH2 0xCC0 DUP3 PUSH2 0x1153 JUMP JUMPDEST PUSH1 0x20 DUP3 ADD SWAP1 POP SWAP2 SWAP1 POP JUMP JUMPDEST PUSH1 0x0 PUSH2 0xCD8 PUSH1 0x15 DUP4 PUSH2 0xFB8 JUMP JUMPDEST SWAP2 POP PUSH2 0xCE3 DUP3 PUSH2 0x117C JUMP JUMPDEST PUSH1 0x20 DUP3 ADD SWAP1 POP SWAP2 SWAP1 POP JUMP JUMPDEST PUSH1 0x0 PUSH2 0xCFB PUSH1 0x1B DUP4 PUSH2 0xFB8 JUMP JUMPDEST SWAP2 POP PUSH2 0xD06 DUP3 PUSH2 0x11A5 JUMP JUMPDEST PUSH1 0x20 DUP3 ADD SWAP1 POP SWAP2 SWAP1 POP JUMP JUMPDEST PUSH1 0x0 PUSH2 0xD1E PUSH1 0x11 DUP4 PUSH2 0xFB8 JUMP JUMPDEST SWAP2 POP PUSH2 0xD29 DUP3 PUSH2 0x11CE JUMP JUMPDEST PUSH1 0x20 DUP3 ADD SWAP1 POP SWAP2 SWAP1 POP JUMP JUMPDEST PUSH2 0xD3D DUP2 PUSH2 0xFEC JUMP JUMPDEST DUP3 MSTORE POP POP JUMP JUMPDEST PUSH1 0x0 PUSH1 0x60 DUP3 ADD SWAP1 POP PUSH2 0xD58 PUSH1 0x0 DUP4 ADD DUP6 PUSH2 0xB59 JUMP JUMPDEST PUSH2 0xD65 PUSH1 0x20 DUP4 ADD DUP5 PUSH2 0xB68 JUMP JUMPDEST DUP2 DUP2 SUB PUSH1 0x40 DUP4 ADD MSTORE PUSH2 0xD76 DUP2 PUSH2 0xD11 JUMP JUMPDEST SWAP1 POP SWAP4 SWAP3 POP POP POP JUMP JUMPDEST PUSH1 0x0 PUSH1 0x60 DUP3 ADD SWAP1 POP PUSH2 0xD94 PUSH1 0x0 DUP4 ADD DUP6 PUSH2 0xB59 JUMP JUMPDEST PUSH2 0xDA1 PUSH1 0x20 DUP4 ADD DUP5 PUSH2 0xB77 JUMP JUMPDEST DUP2 DUP2 SUB PUSH1 0x40 DUP4 ADD MSTORE PUSH2 0xDB2 DUP2 PUSH2 0xCEE JUMP JUMPDEST SWAP1 POP SWAP4 SWAP3 POP POP POP JUMP JUMPDEST PUSH1 0x0 PUSH1 0x60 DUP3 ADD SWAP1 POP PUSH2 0xDD0 PUSH1 0x0 DUP4 ADD DUP6 PUSH2 0xB59 JUMP JUMPDEST PUSH2 0xDDD PUSH1 0x20 DUP4 ADD DUP5 PUSH2 0xB95 JUMP JUMPDEST DUP2 DUP2 SUB PUSH1 0x40 DUP4 ADD MSTORE PUSH2 0xDEE DUP2 PUSH2 0xC1C JUMP JUMPDEST SWAP1 POP SWAP4 SWAP3 POP POP POP JUMP JUMPDEST PUSH1 0x0 PUSH1 0x60 DUP3 ADD SWAP1 POP PUSH2 0xE0C PUSH1 0x0 DUP4 ADD DUP6 PUSH2 0xB59 JUMP JUMPDEST PUSH2 0xE19 PUSH1 0x20 DUP4 ADD DUP5 PUSH2 0xB95 JUMP JUMPDEST DUP2 DUP2 SUB PUSH1 0x40 DUP4 ADD MSTORE PUSH2 0xE2A DUP2 PUSH2 0xC62 JUMP JUMPDEST SWAP1 POP SWAP4 SWAP3 POP POP POP JUMP JUMPDEST PUSH1 0x0 PUSH1 0x60 DUP3 ADD SWAP1 POP PUSH2 0xE48 PUSH1 0x0 DUP4 ADD DUP6 PUSH2 0xB59 JUMP JUMPDEST PUSH2 0xE55 PUSH1 0x20 DUP4 ADD DUP5 PUSH2 0xBC2 JUMP JUMPDEST DUP2 DUP2 SUB PUSH1 0x40 DUP4 ADD MSTORE PUSH2 0xE66 DUP2 PUSH2 0xCA8 JUMP JUMPDEST SWAP1 POP SWAP4 SWAP3 POP POP POP JUMP JUMPDEST PUSH1 0x0 PUSH1 0x20 DUP3 ADD SWAP1 POP PUSH2 0xE84 PUSH1 0x0 DUP4 ADD DUP5 PUSH2 0xB86 JUMP JUMPDEST SWAP3 SWAP2 POP POP JUMP JUMPDEST PUSH1 0x0 PUSH1 0x20 DUP3 ADD SWAP1 POP PUSH2 0xE9F PUSH1 0x0 DUP4 ADD DUP5 PUSH2 0xBA4 JUMP JUMPDEST SWAP3 SWAP2 POP POP JUMP JUMPDEST PUSH1 0x0 PUSH1 0x20 DUP3 ADD SWAP1 POP PUSH2 0xEBA PUSH1 0x0 DUP4 ADD DUP5 PUSH2 0xBE0 JUMP JUMPDEST SWAP3 SWAP2 POP POP JUMP JUMPDEST PUSH1 0x0 PUSH1 0x40 DUP3 ADD SWAP1 POP PUSH2 0xED5 PUSH1 0x0 DUP4 ADD DUP6 PUSH2 0xBEF JUMP JUMPDEST PUSH2 0xEE2 PUSH1 0x20 DUP4 ADD DUP5 PUSH2 0xB86 JUMP JUMPDEST SWAP4 SWAP3 POP POP POP JUMP JUMPDEST PUSH1 0x0 PUSH1 0x20 DUP3 ADD SWAP1 POP PUSH2 0xEFE PUSH1 0x0 DUP4 ADD DUP5 PUSH2 0xC0D JUMP JUMPDEST SWAP3 SWAP2 POP POP JUMP JUMPDEST PUSH1 0x0 PUSH1 0x60 DUP3 ADD SWAP1 POP PUSH2 0xF19 PUSH1 0x0 DUP4 ADD DUP6 PUSH2 0xD34 JUMP JUMPDEST PUSH2 0xF26 PUSH1 0x20 DUP4 ADD DUP5 PUSH2 0xBB3 JUMP JUMPDEST DUP2 DUP2 SUB PUSH1 0x40 DUP4 ADD MSTORE PUSH2 0xF37 DUP2 PUSH2 0xC85 JUMP JUMPDEST SWAP1 POP SWAP4 SWAP3 POP POP POP JUMP JUMPDEST PUSH1 0x0 PUSH1 0x60 DUP3 ADD SWAP1 POP PUSH2 0xF55 PUSH1 0x0 DUP4 ADD DUP6 PUSH2 0xD34 JUMP JUMPDEST PUSH2 0xF62 PUSH1 0x20 DUP4 ADD DUP5 PUSH2 0xBD1 JUMP JUMPDEST DUP2 DUP2 SUB PUSH1 0x40 DUP4 ADD MSTORE PUSH2 0xF73 DUP2 PUSH2 0xCCB JUMP JUMPDEST SWAP1 POP SWAP4 SWAP3 POP POP POP JUMP JUMPDEST PUSH1 0x0 PUSH1 0x60 DUP3 ADD SWAP1 POP PUSH2 0xF91 PUSH1 0x0 DUP4 ADD DUP6 PUSH2 0xD34 JUMP JUMPDEST PUSH2 0xF9E PUSH1 0x20 DUP4 ADD DUP5 PUSH2 0xBFE JUMP JUMPDEST DUP2 DUP2 SUB PUSH1 0x40 DUP4 ADD MSTORE PUSH2 0xFAF DUP2 PUSH2 0xC3F JUMP JUMPDEST SWAP1 POP SWAP4 SWAP3 POP POP POP JUMP JUMPDEST PUSH1 0x0 DUP3 DUP3 MSTORE PUSH1 0x20 DUP3 ADD SWAP1 POP SWAP3 SWAP2 POP POP JUMP JUMPDEST PUSH1 0x0 DUP2 ISZERO ISZERO SWAP1 POP SWAP2 SWAP1 POP JUMP JUMPDEST PUSH1 0x0 DUP2 PUSH1 0xF SIGNEXTEND SWAP1 POP SWAP2 SWAP1 POP JUMP JUMPDEST PUSH1 0x0 DUP2 SWAP1 POP SWAP2 SWAP1 POP JUMP JUMPDEST PUSH1 0x0 DUP2 SWAP1 POP SWAP2 SWAP1 POP JUMP JUMPDEST PUSH1 0x0 PUSH2 0x1001 DUP3 PUSH2 0xFE2 JUMP JUMPDEST SWAP1 POP SWAP2 SWAP1 POP JUMP JUMPDEST PUSH1 0x0 PUSH2 0x1013 DUP3 PUSH2 0xFE2 JUMP JUMPDEST SWAP1 POP SWAP2 SWAP1 POP JUMP JUMPDEST PUSH1 0x0 PUSH2 0x1025 DUP3 PUSH2 0xFE2 JUMP JUMPDEST SWAP1 POP SWAP2 SWAP1 POP JUMP JUMPDEST PUSH1 0x0 PUSH2 0x1037 DUP3 PUSH2 0xFEC JUMP JUMPDEST SWAP1 POP SWAP2 SWAP1 POP JUMP JUMPDEST PUSH1 0x0 PUSH2 0x1049 DUP3 PUSH2 0xFE2 JUMP JUMPDEST SWAP1 POP SWAP2 SWAP1 POP JUMP JUMPDEST PUSH1 0x0 PUSH2 0x105B DUP3 PUSH2 0xFEC JUMP JUMPDEST SWAP1 POP SWAP2 SWAP1 POP JUMP JUMPDEST PUSH1 0x0 PUSH2 0x106D DUP3 PUSH2 0xFD5 JUMP JUMPDEST SWAP1 POP SWAP2 SWAP1 POP JUMP JUMPDEST PUSH1 0x0 PUSH2 0x107F DUP3 PUSH2 0xFE2 JUMP JUMPDEST SWAP1 POP SWAP2 SWAP1 POP JUMP JUMPDEST PUSH1 0x0 PUSH2 0x1091 DUP3 PUSH2 0xFEC JUMP JUMPDEST SWAP1 POP SWAP2 SWAP1 POP JUMP JUMPDEST PUSH1 0x0 PUSH2 0x10A3 DUP3 PUSH2 0xFE2 JUMP JUMPDEST SWAP1 POP SWAP2 SWAP1 POP JUMP JUMPDEST PUSH1 0x0 DUP1 REVERT JUMPDEST PUSH32 0x7261697A43756164726164612073686F756C6420626520330000000000000000 PUSH1 0x0 DUP3 ADD MSTORE POP JUMP JUMPDEST PUSH32 0x637561647261646F2073686F756C642062652039000000000000000000000000 PUSH1 0x0 DUP3 ADD MSTORE POP JUMP JUMPDEST PUSH32 0x6469766973696F6E2073686F756C642062652033000000000000000000000000 PUSH1 0x0 DUP3 ADD MSTORE POP JUMP JUMPDEST PUSH32 0x76616C6F724162736F6C75746F2073686F756C64206265203300000000000000 PUSH1 0x0 DUP3 ADD MSTORE POP JUMP JUMPDEST PUSH32 0x72657374612073686F756C642062652036000000000000000000000000000000 PUSH1 0x0 DUP3 ADD MSTORE POP JUMP JUMPDEST PUSH32 0x666163746F7269616C2073686F756C6420626520360000000000000000000000 PUSH1 0x0 DUP3 ADD MSTORE POP JUMP JUMPDEST PUSH32 0x6D756C7469706C69636163696F6E2073686F756C642062652032370000000000 PUSH1 0x0 DUP3 ADD MSTORE POP JUMP JUMPDEST PUSH32 0x73756D612073686F756C64206265203132000000000000000000000000000000 PUSH1 0x0 DUP3 ADD MSTORE POP JUMP JUMPDEST PUSH2 0x1200 DUP2 PUSH2 0xFC9 JUMP JUMPDEST DUP2 EQ PUSH2 0x120B JUMPI PUSH1 0x0 DUP1 REVERT JUMPDEST POP JUMP JUMPDEST PUSH2 0x1217 DUP2 PUSH2 0xFE2 JUMP JUMPDEST DUP2 EQ PUSH2 0x1222 JUMPI PUSH1 0x0 DUP1 REVERT JUMPDEST POP JUMP JUMPDEST PUSH2 0x122E DUP2 PUSH2 0xFEC JUMP JUMPDEST DUP2 EQ PUSH2 0x1239 JUMPI PUSH1 0x0 DUP1 REVERT JUMPDEST POP JUMP INVALID PUSH1 0x80 PUSH1 0x40 MSTORE CALLVALUE DUP1 ISZERO PUSH2 0x10 JUMPI PUSH1 0x0 DUP1 REVERT JUMPDEST POP PUSH2 0xB2D DUP1 PUSH2 0x20 PUSH1 0x0 CODECOPY PUSH1 0x0 RETURN INVALID PUSH1 0x80 PUSH1 0x40 MSTORE CALLVALUE DUP1 ISZERO PUSH2 0x10 JUMPI PUSH1 0x0 DUP1 REVERT JUMPDEST POP PUSH1 0x4 CALLDATASIZE LT PUSH2 0x88 JUMPI PUSH1 0x0 CALLDATALOAD PUSH1 0xE0 SHR DUP1 PUSH4 0x7EA9E058 GT PUSH2 0x5B JUMPI DUP1 PUSH4 0x7EA9E058 EQ PUSH2 0x14D JUMPI DUP1 PUSH4 0x83714834 EQ PUSH2 0x17D JUMPI DUP1 PUSH4 0x8F8A0D19 EQ PUSH2 0x1AD JUMPI DUP1 PUSH4 0xB8501073 EQ PUSH2 0x1DD JUMPI PUSH2 0x88 JUMP JUMPDEST DUP1 PUSH4 0x9B7CDDA EQ PUSH2 0x8D JUMPI DUP1 PUSH4 0x187983BF EQ PUSH2 0xBD JUMPI DUP1 PUSH4 0x4C627BAD EQ PUSH2 0xED JUMPI DUP1 PUSH4 0x7D825142 EQ PUSH2 0x11D JUMPI JUMPDEST PUSH1 0x0 DUP1 REVERT JUMPDEST PUSH2 0xA7 PUSH1 0x4 DUP1 CALLDATASIZE SUB DUP2 ADD SWAP1 PUSH2 0xA2 SWAP2 SWAP1 PUSH2 0x566 JUMP JUMPDEST PUSH2 0x20D JUMP JUMPDEST PUSH1 0x40 MLOAD PUSH2 0xB4 SWAP2 SWAP1 PUSH2 0x5F1 JUMP JUMPDEST PUSH1 0x40 MLOAD DUP1 SWAP2 SUB SWAP1 RETURN JUMPDEST PUSH2 0xD7 PUSH1 0x4 DUP1 CALLDATASIZE SUB DUP2 ADD SWAP1 PUSH2 0xD2 SWAP2 SWAP1 PUSH2 0x566 JUMP JUMPDEST PUSH2 0x22A JUMP JUMPDEST PUSH1 0x40 MLOAD PUSH2 0xE4 SWAP2 SWAP1 PUSH2 0x5F1 JUMP JUMPDEST PUSH1 0x40 MLOAD DUP1 SWAP2 SUB SWAP1 RETURN JUMPDEST PUSH2 0x107 PUSH1 0x4 DUP1 CALLDATASIZE SUB DUP2 ADD SWAP1 PUSH2 0x102 SWAP2 SWAP1 PUSH2 0x566 JUMP JUMPDEST PUSH2 0x247 JUMP JUMPDEST PUSH1 0x40 MLOAD PUSH2 0x114 SWAP2 SWAP1 PUSH2 0x5F1 JUMP JUMPDEST PUSH1 0x40 MLOAD DUP1 SWAP2 SUB SWAP1 RETURN JUMPDEST PUSH2 0x137 PUSH1 0x4 DUP1 CALLDATASIZE SUB DUP2 ADD SWAP1 PUSH2 0x132 SWAP2 SWAP1 PUSH2 0x539 JUMP JUMPDEST PUSH2 0x264 JUMP JUMPDEST PUSH1 0x40 MLOAD PUSH2 0x144 SWAP2 SWAP1 PUSH2 0x60C JUMP JUMPDEST PUSH1 0x40 MLOAD DUP1 SWAP2 SUB SWAP1 RETURN JUMPDEST PUSH2 0x167 PUSH1 0x4 DUP1 CALLDATASIZE SUB DUP2 ADD SWAP1 PUSH2 0x162 SWAP2 SWAP1 PUSH2 0x539 JUMP JUMPDEST PUSH2 0x276 JUMP JUMPDEST PUSH1 0x40 MLOAD PUSH2 0x174 SWAP2 SWAP1 PUSH2 0x60C JUMP JUMPDEST PUSH1 0x40 MLOAD DUP1 SWAP2 SUB SWAP1 RETURN JUMPDEST PUSH2 0x197 PUSH1 0x4 DUP1 CALLDATASIZE SUB DUP2 ADD SWAP1 PUSH2 0x192 SWAP2 SWAP1 PUSH2 0x5A6 JUMP JUMPDEST PUSH2 0x288 JUMP JUMPDEST PUSH1 0x40 MLOAD PUSH2 0x1A4 SWAP2 SWAP1 PUSH2 0x60C JUMP JUMPDEST PUSH1 0x40 MLOAD DUP1 SWAP2 SUB SWAP1 RETURN JUMPDEST PUSH2 0x1C7 PUSH1 0x4 DUP1 CALLDATASIZE SUB DUP2 ADD SWAP1 PUSH2 0x1C2 SWAP2 SWAP1 PUSH2 0x566 JUMP JUMPDEST PUSH2 0x29A JUMP JUMPDEST PUSH1 0x40 MLOAD PUSH2 0x1D4 SWAP2 SWAP1 PUSH2 0x5F1 JUMP JUMPDEST PUSH1 0x40 MLOAD DUP1 SWAP2 SUB SWAP1 RETURN JUMPDEST PUSH2 0x1F7 PUSH1 0x4 DUP1 CALLDATASIZE SUB DUP2 ADD SWAP1 PUSH2 0x1F2 SWAP2 SWAP1 PUSH2 0x50C JUMP JUMPDEST PUSH2 0x2B7 JUMP JUMPDEST PUSH1 0x40 MLOAD PUSH2 0x204 SWAP2 SWAP1 PUSH2 0x5F1 JUMP JUMPDEST PUSH1 0x40 MLOAD DUP1 SWAP2 SUB SWAP1 RETURN JUMPDEST PUSH1 0x0 PUSH2 0x222 DUP3 DUP5 PUSH2 0x2CF SWAP1 SWAP2 SWAP1 PUSH4 0xFFFFFFFF AND JUMP JUMPDEST SWAP1 POP SWAP3 SWAP2 POP POP JUMP JUMPDEST PUSH1 0x0 PUSH2 0x23F DUP3 DUP5 PUSH2 0x2E5 SWAP1 SWAP2 SWAP1 PUSH4 0xFFFFFFFF AND JUMP JUMPDEST SWAP1 POP SWAP3 SWAP2 POP POP JUMP JUMPDEST PUSH1 0x0 PUSH2 0x25C DUP3 DUP5 PUSH2 0x2FB SWAP1 SWAP2 SWAP1 PUSH4 0xFFFFFFFF AND JUMP JUMPDEST SWAP1 POP SWAP3 SWAP2 POP POP JUMP JUMPDEST PUSH1 0x0 PUSH2 0x26F DUP3 PUSH2 0x311 JUMP JUMPDEST SWAP1 POP SWAP2 SWAP1 POP JUMP JUMPDEST PUSH1 0x0 PUSH2 0x281 DUP3 PUSH2 0x335 JUMP JUMPDEST SWAP1 POP SWAP2 SWAP1 POP JUMP JUMPDEST PUSH1 0x0 PUSH2 0x293 DUP3 PUSH2 0x34A JUMP JUMPDEST SWAP1 POP SWAP2 SWAP1 POP JUMP JUMPDEST PUSH1 0x0 PUSH2 0x2AF DUP3 DUP5 PUSH2 0x385 SWAP1 SWAP2 SWAP1 PUSH4 0xFFFFFFFF AND JUMP JUMPDEST SWAP1 POP SWAP3 SWAP2 POP POP JUMP JUMPDEST PUSH1 0x0 PUSH2 0x2C5 DUP3 PUSH1 0xF SIGNEXTEND PUSH2 0x39B JUMP JUMPDEST PUSH1 0xF SIGNEXTEND SWAP1 POP SWAP2 SWAP1 POP JUMP JUMPDEST PUSH1 0x0 DUP2 DUP4 PUSH2 0x2DD SWAP2 SWAP1 PUSH2 0x711 JUMP JUMPDEST SWAP1 POP SWAP3 SWAP2 POP POP JUMP JUMPDEST PUSH1 0x0 DUP2 DUP4 PUSH2 0x2F3 SWAP2 SWAP1 PUSH2 0x7AC JUMP JUMPDEST SWAP1 POP SWAP3 SWAP2 POP POP JUMP JUMPDEST PUSH1 0x0 DUP2 DUP4 PUSH2 0x309 SWAP2 SWAP1 PUSH2 0x91D JUMP JUMPDEST SWAP1 POP SWAP3 SWAP2 POP POP JUMP JUMPDEST PUSH1 0x0 DUP1 DUP3 SGT ISZERO PUSH2 0x323 JUMPI DUP2 SWAP1 POP PUSH2 0x330 JUMP JUMPDEST DUP2 PUSH2 0x32D SWAP1 PUSH2 0xA06 JUMP JUMPDEST SWAP1 POP JUMPDEST SWAP2 SWAP1 POP JUMP JUMPDEST PUSH1 0x0 DUP2 DUP3 PUSH2 0x343 SWAP2 SWAP1 PUSH2 0x7AC JUMP JUMPDEST SWAP1 POP SWAP2 SWAP1 POP JUMP JUMPDEST PUSH1 0x0 PUSH1 0x1 DUP3 GT PUSH2 0x35D JUMPI PUSH1 0x1 SWAP1 POP PUSH2 0x380 JUMP JUMPDEST PUSH2 0x372 PUSH1 0x1 DUP4 PUSH2 0x36D SWAP2 SWAP1 PUSH2 0x9B1 JUMP JUMPDEST PUSH2 0x34A JUMP JUMPDEST DUP3 PUSH2 0x37D SWAP2 SWAP1 PUSH2 0x8C3 JUMP JUMPDEST SWAP1 POP JUMPDEST SWAP2 SWAP1 POP JUMP JUMPDEST PUSH1 0x0 DUP2 DUP4 PUSH2 0x393 SWAP2 SWAP1 PUSH2 0x627 JUMP JUMPDEST SWAP1 POP SWAP3 SWAP2 POP POP JUMP JUMPDEST PUSH1 0x0 DUP1 DUP3 PUSH1 0xF SIGNEXTEND SLT ISZERO PUSH2 0x3AD JUMPI PUSH1 0x0 DUP1 REVERT JUMPDEST PUSH2 0x3B9 DUP3 PUSH1 0xF SIGNEXTEND PUSH2 0x3C0 JUMP JUMPDEST SWAP1 POP SWAP2 SWAP1 POP JUMP JUMPDEST PUSH1 0x0 DUP1 DUP3 LT ISZERO PUSH2 0x3CF JUMPI PUSH1 0x0 DUP1 REVERT JUMPDEST PUSH1 0x0 DUP3 EQ ISZERO PUSH2 0x3E1 JUMPI PUSH1 0x0 SWAP1 POP PUSH2 0x4C8 JUMP JUMPDEST PUSH1 0x0 PUSH1 0x1 SWAP1 POP PUSH1 0x2 DUP2 DUP5 PUSH2 0x3F5 SWAP2 SWAP1 PUSH2 0x77B JUMP JUMPDEST DUP3 PUSH2 0x400 SWAP2 SWAP1 PUSH2 0x6BB JUMP JUMPDEST PUSH2 0x40A SWAP2 SWAP1 PUSH2 0x77B JUMP JUMPDEST SWAP1 POP PUSH1 0x2 DUP2 DUP5 PUSH2 0x41A SWAP2 SWAP1 PUSH2 0x77B JUMP JUMPDEST DUP3 PUSH2 0x425 SWAP2 SWAP1 PUSH2 0x6BB JUMP JUMPDEST PUSH2 0x42F SWAP2 SWAP1 PUSH2 0x77B JUMP JUMPDEST SWAP1 POP PUSH1 0x2 DUP2 DUP5 PUSH2 0x43F SWAP2 SWAP1 PUSH2 0x77B JUMP JUMPDEST DUP3 PUSH2 0x44A SWAP2 SWAP1 PUSH2 0x6BB JUMP JUMPDEST PUSH2 0x454 SWAP2 SWAP1 PUSH2 0x77B JUMP JUMPDEST SWAP1 POP PUSH1 0x2 DUP2 DUP5 PUSH2 0x464 SWAP2 SWAP1 PUSH2 0x77B JUMP JUMPDEST DUP3 PUSH2 0x46F SWAP2 SWAP1 PUSH2 0x6BB JUMP JUMPDEST PUSH2 0x479 SWAP2 SWAP1 PUSH2 0x77B JUMP JUMPDEST SWAP1 POP PUSH1 0x2 DUP2 DUP5 PUSH2 0x489 SWAP2 SWAP1 PUSH2 0x77B JUMP JUMPDEST DUP3 PUSH2 0x494 SWAP2 SWAP1 PUSH2 0x6BB JUMP JUMPDEST PUSH2 0x49E SWAP2 SWAP1 PUSH2 0x77B JUMP JUMPDEST SWAP1 POP PUSH1 0x0 DUP2 DUP5 PUSH2 0x4AE SWAP2 SWAP1 PUSH2 0x77B JUMP JUMPDEST SWAP1 POP DUP1 DUP3 LT ISZERO PUSH2 0x4C2 JUMPI DUP2 SWAP3 POP POP POP PUSH2 0x4C8 JUMP JUMPDEST DUP1 SWAP3 POP POP POP JUMPDEST SWAP2 SWAP1 POP JUMP JUMPDEST PUSH1 0x0 DUP2 CALLDATALOAD SWAP1 POP PUSH2 0x4DC DUP2 PUSH2 0xAB2 JUMP JUMPDEST SWAP3 SWAP2 POP POP JUMP JUMPDEST PUSH1 0x0 DUP2 CALLDATALOAD SWAP1 POP PUSH2 0x4F1 DUP2 PUSH2 0xAC9 JUMP JUMPDEST SWAP3 SWAP2 POP POP JUMP JUMPDEST PUSH1 0x0 DUP2 CALLDATALOAD SWAP1 POP PUSH2 0x506 DUP2 PUSH2 0xAE0 JUMP JUMPDEST SWAP3 SWAP2 POP POP JUMP JUMPDEST PUSH1 0x0 PUSH1 0x20 DUP3 DUP5 SUB SLT ISZERO PUSH2 0x522 JUMPI PUSH2 0x521 PUSH2 0xAAD JUMP JUMPDEST JUMPDEST PUSH1 0x0 PUSH2 0x530 DUP5 DUP3 DUP6 ADD PUSH2 0x4CD JUMP JUMPDEST SWAP2 POP POP SWAP3 SWAP2 POP POP JUMP JUMPDEST PUSH1 0x0 PUSH1 0x20 DUP3 DUP5 SUB SLT ISZERO PUSH2 0x54F JUMPI PUSH2 0x54E PUSH2 0xAAD JUMP JUMPDEST JUMPDEST PUSH1 0x0 PUSH2 0x55D DUP5 DUP3 DUP6 ADD PUSH2 0x4E2 JUMP JUMPDEST SWAP2 POP POP SWAP3 SWAP2 POP POP JUMP JUMPDEST PUSH1 0x0 DUP1 PUSH1 0x40 DUP4 DUP6 SUB SLT ISZERO PUSH2 0x57D JUMPI PUSH2 0x57C PUSH2 0xAAD JUMP JUMPDEST JUMPDEST PUSH1 0x0 PUSH2 0x58B DUP6 DUP3 DUP7 ADD PUSH2 0x4E2 JUMP JUMPDEST SWAP3 POP POP PUSH1 0x20 PUSH2 0x59C DUP6 DUP3 DUP7 ADD PUSH2 0x4E2 JUMP JUMPDEST SWAP2 POP POP SWAP3 POP SWAP3 SWAP1 POP JUMP JUMPDEST PUSH1 0x0 PUSH1 0x20 DUP3 DUP5 SUB SLT ISZERO PUSH2 0x5BC JUMPI PUSH2 0x5BB PUSH2 0xAAD JUMP JUMPDEST JUMPDEST PUSH1 0x0 PUSH2 0x5CA DUP5 DUP3 DUP6 ADD PUSH2 0x4F7 JUMP JUMPDEST SWAP2 POP POP SWAP3 SWAP2 POP POP JUMP JUMPDEST PUSH2 0x5DC DUP2 PUSH2 0x9F2 JUMP JUMPDEST DUP3 MSTORE POP POP JUMP JUMPDEST PUSH2 0x5EB DUP2 PUSH2 0x9FC JUMP JUMPDEST DUP3 MSTORE POP POP JUMP JUMPDEST PUSH1 0x0 PUSH1 0x20 DUP3 ADD SWAP1 POP PUSH2 0x606 PUSH1 0x0 DUP4 ADD DUP5 PUSH2 0x5D3 JUMP JUMPDEST SWAP3 SWAP2 POP POP JUMP JUMPDEST PUSH1 0x0 PUSH1 0x20 DUP3 ADD SWAP1 POP PUSH2 0x621 PUSH1 0x0 DUP4 ADD DUP5 PUSH2 0x5E2 JUMP JUMPDEST SWAP3 SWAP2 POP POP JUMP JUMPDEST PUSH1 0x0 PUSH2 0x632 DUP3 PUSH2 0x9F2 JUMP JUMPDEST SWAP2 POP PUSH2 0x63D DUP4 PUSH2 0x9F2 JUMP JUMPDEST SWAP3 POP DUP2 PUSH32 0x7FFFFFFFFFFFFFFFFFFFFFFFFFFFFFFFFFFFFFFFFFFFFFFFFFFFFFFFFFFFFFFF SUB DUP4 SGT PUSH1 0x0 DUP4 SLT ISZERO AND ISZERO PUSH2 0x678 JUMPI PUSH2 0x677 PUSH2 0xA4F JUMP JUMPDEST JUMPDEST DUP2 PUSH32 0x8000000000000000000000000000000000000000000000000000000000000000 SUB DUP4 SLT PUSH1 0x0 DUP4 SLT AND ISZERO PUSH2 0x6B0 JUMPI PUSH2 0x6AF PUSH2 0xA4F JUMP JUMPDEST JUMPDEST DUP3 DUP3 ADD SWAP1 POP SWAP3 SWAP2 POP POP JUMP JUMPDEST PUSH1 0x0 PUSH2 0x6C6 DUP3 PUSH2 0x9FC JUMP JUMPDEST SWAP2 POP PUSH2 0x6D1 DUP4 PUSH2 0x9FC JUMP JUMPDEST SWAP3 POP DUP3 PUSH32 0xFFFFFFFFFFFFFFFFFFFFFFFFFFFFFFFFFFFFFFFFFFFFFFFFFFFFFFFFFFFFFFFF SUB DUP3 GT ISZERO PUSH2 0x706 JUMPI PUSH2 0x705 PUSH2 0xA4F JUMP JUMPDEST JUMPDEST DUP3 DUP3 ADD SWAP1 POP SWAP3 SWAP2 POP POP JUMP JUMPDEST PUSH1 0x0 PUSH2 0x71C DUP3 PUSH2 0x9F2 JUMP JUMPDEST SWAP2 POP PUSH2 0x727 DUP4 PUSH2 0x9F2 JUMP JUMPDEST SWAP3 POP DUP3 PUSH2 0x737 JUMPI PUSH2 0x736 PUSH2 0xA7E JUMP JUMPDEST JUMPDEST PUSH1 0x1 PUSH1 0x0 SUB DUP4 EQ PUSH32 0x8000000000000000000000000000000000000000000000000000000000000000 DUP4 EQ AND ISZERO PUSH2 0x770 JUMPI PUSH2 0x76F PUSH2 0xA4F JUMP JUMPDEST JUMPDEST DUP3 DUP3 SDIV SWAP1 POP SWAP3 SWAP2 POP POP JUMP JUMPDEST PUSH1 0x0 PUSH2 0x786 DUP3 PUSH2 0x9FC JUMP JUMPDEST SWAP2 POP PUSH2 0x791 DUP4 PUSH2 0x9FC JUMP JUMPDEST SWAP3 POP DUP3 PUSH2 0x7A1 JUMPI PUSH2 0x7A0 PUSH2 0xA7E JUMP JUMPDEST JUMPDEST DUP3 DUP3 DIV SWAP1 POP SWAP3 SWAP2 POP POP JUMP JUMPDEST PUSH1 0x0 PUSH2 0x7B7 DUP3 PUSH2 0x9F2 JUMP JUMPDEST SWAP2 POP PUSH2 0x7C2 DUP4 PUSH2 0x9F2 JUMP JUMPDEST SWAP3 POP DUP3 PUSH32 0x7FFFFFFFFFFFFFFFFFFFFFFFFFFFFFFFFFFFFFFFFFFFFFFFFFFFFFFFFFFFFFFF DIV DUP3 GT PUSH1 0x0 DUP5 SGT PUSH1 0x0 DUP5 SGT AND AND ISZERO PUSH2 0x801 JUMPI PUSH2 0x800 PUSH2 0xA4F JUMP JUMPDEST JUMPDEST DUP2 PUSH32 0x8000000000000000000000000000000000000000000000000000000000000000 SDIV DUP4 SLT PUSH1 0x0 DUP5 SLT PUSH1 0x0 DUP5 SGT AND AND ISZERO PUSH2 0x83E JUMPI PUSH2 0x83D PUSH2 0xA4F JUMP JUMPDEST JUMPDEST DUP3 PUSH32 0x8000000000000000000000000000000000000000000000000000000000000000 SDIV DUP3 SLT PUSH1 0x0 DUP5 SGT PUSH1 0x0 DUP5 SLT AND AND ISZERO PUSH2 0x87B JUMPI PUSH2 0x87A PUSH2 0xA4F JUMP JUMPDEST JUMPDEST DUP3 PUSH32 0x7FFFFFFFFFFFFFFFFFFFFFFFFFFFFFFFFFFFFFFFFFFFFFFFFFFFFFFFFFFFFFFF SDIV DUP3 SLT PUSH1 0x0 DUP5 SLT PUSH1 0x0 DUP5 SLT AND AND ISZERO PUSH2 0x8B8 JUMPI PUSH2 0x8B7 PUSH2 0xA4F JUMP JUMPDEST JUMPDEST DUP3 DUP3 MUL SWAP1 POP SWAP3 SWAP2 POP POP JUMP JUMPDEST PUSH1 0x0 PUSH2 0x8CE DUP3 PUSH2 0x9FC JUMP JUMPDEST SWAP2 POP PUSH2 0x8D9 DUP4 PUSH2 0x9FC JUMP JUMPDEST SWAP3 POP DUP2 PUSH32 0xFFFFFFFFFFFFFFFFFFFFFFFFFFFFFFFFFFFFFFFFFFFFFFFFFFFFFFFFFFFFFFFF DIV DUP4 GT DUP3 ISZERO ISZERO AND ISZERO PUSH2 0x912 JUMPI PUSH2 0x911 PUSH2 0xA4F JUMP JUMPDEST JUMPDEST DUP3 DUP3 MUL SWAP1 POP SWAP3 SWAP2 POP POP JUMP JUMPDEST PUSH1 0x0 PUSH2 0x928 DUP3 PUSH2 0x9F2 JUMP JUMPDEST SWAP2 POP PUSH2 0x933 DUP4 PUSH2 0x9F2 JUMP JUMPDEST SWAP3 POP DUP3 PUSH32 0x8000000000000000000000000000000000000000000000000000000000000000 ADD DUP3 SLT PUSH1 0x0 DUP5 SLT ISZERO AND ISZERO PUSH2 0x96E JUMPI PUSH2 0x96D PUSH2 0xA4F JUMP JUMPDEST JUMPDEST DUP3 PUSH32 0x7FFFFFFFFFFFFFFFFFFFFFFFFFFFFFFFFFFFFFFFFFFFFFFFFFFFFFFFFFFFFFFF ADD DUP3 SGT PUSH1 0x0 DUP5 SLT AND ISZERO PUSH2 0x9A6 JUMPI PUSH2 0x9A5 PUSH2 0xA4F JUMP JUMPDEST JUMPDEST DUP3 DUP3 SUB SWAP1 POP SWAP3 SWAP2 POP POP JUMP JUMPDEST PUSH1 0x0 PUSH2 0x9BC DUP3 PUSH2 0x9FC JUMP JUMPDEST SWAP2 POP PUSH2 0x9C7 DUP4 PUSH2 0x9FC JUMP JUMPDEST SWAP3 POP DUP3 DUP3 LT ISZERO PUSH2 0x9DA JUMPI PUSH2 0x9D9 PUSH2 0xA4F JUMP JUMPDEST JUMPDEST DUP3 DUP3 SUB SWAP1 POP SWAP3 SWAP2 POP POP JUMP JUMPDEST PUSH1 0x0 DUP2 PUSH1 0xF SIGNEXTEND SWAP1 POP SWAP2 SWAP1 POP JUMP JUMPDEST PUSH1 0x0 DUP2 SWAP1 POP SWAP2 SWAP1 POP JUMP JUMPDEST PUSH1 0x0 DUP2 SWAP1 POP SWAP2 SWAP1 POP JUMP JUMPDEST PUSH1 0x0 PUSH2 0xA11 DUP3 PUSH2 0x9F2 JUMP JUMPDEST SWAP2 POP PUSH32 0x8000000000000000000000000000000000000000000000000000000000000000 DUP3 EQ ISZERO PUSH2 0xA44 JUMPI PUSH2 0xA43 PUSH2 0xA4F JUMP JUMPDEST JUMPDEST DUP2 PUSH1 0x0 SUB SWAP1 POP SWAP2 SWAP1 POP JUMP JUMPDEST PUSH32 0x4E487B7100000000000000000000000000000000000000000000000000000000 PUSH1 0x0 MSTORE PUSH1 0x11 PUSH1 0x4 MSTORE PUSH1 0x24 PUSH1 0x0 REVERT JUMPDEST PUSH32 0x4E487B7100000000000000000000000000000000000000000000000000000000 PUSH1 0x0 MSTORE PUSH1 0x12 PUSH1 0x4 MSTORE PUSH1 0x24 PUSH1 0x0 REVERT JUMPDEST PUSH1 0x0 DUP1 REVERT JUMPDEST PUSH2 0xABB DUP2 PUSH2 0x9E5 JUMP JUMPDEST DUP2 EQ PUSH2 0xAC6 JUMPI PUSH1 0x0 DUP1 REVERT JUMPDEST POP JUMP JUMPDEST PUSH2 0xAD2 DUP2 PUSH2 0x9F2 JUMP JUMPDEST DUP2 EQ PUSH2 0xADD JUMPI PUSH1 0x0 DUP1 REVERT JUMPDEST POP JUMP JUMPDEST PUSH2 0xAE9 DUP2 PUSH2 0x9FC JUMP JUMPDEST DUP2 EQ PUSH2 0xAF4 JUMPI PUSH1 0x0 DUP1 REVERT JUMPDEST POP JUMP INVALID LOG2 PUSH5 0x6970667358 0x22 SLT KECCAK256 0xAB EXP SWAP6 PUSH12 0xB2EFB7A53E0070D9CACEB5A0 0x2F 0x4E DUP1 SIGNEXTEND MLOAD MUL ISZERO CALLDATALOAD 0x2C DUP15 0x5F 0xD2 0x2E 0xB5 CALLDATASIZE 0xC1 PUSH5 0x736F6C6343 STOP ADDMOD SMOD STOP CALLER LOG2 PUSH5 0x6970667358 0x22 SLT KECCAK256 STOP 0x29 ISZERO ISZERO 0x27 0x26 0xD2 DUP13 0xCE 0xD5 0xD PC MLOAD SWAP12 0xBB SWAP10 SMOD 0xBD CHAINID DELEGATECALL 0xAE 0xA9 0xF7 EXTCODESIZE 0xC4 0xF6 0xE8 0xF8 XOR PUSH25 0xDBCC64736F6C63430008070033000000000000000000000000 "
		},
		"gasEstimates": {
			"creation": {
				"codeDepositCost": "1523000",
				"executionCost": "1589",
				"totalCost": "1524589"
			},
			"external": {
				"beforeAll()": "infinite",
				"checkSuccess()": "infinite"
			}
		},
		"methodIdentifiers": {
			"beforeAll()": "7fea0d4b",
			"checkSuccess()": "011e6492"
		}
	},
	"abi": [
		{
			"inputs": [],
			"name": "beforeAll",
			"outputs": [],
			"stateMutability": "nonpayable",
			"type": "function"
		},
		{
			"inputs": [],
			"name": "checkSuccess",
			"outputs": [],
			"stateMutability": "nonpayable",
			"type": "function"
		}
	]
}